Component: ARM Compiler 5.06 update 6 (build 750) Tool: armlink [4d35ed]

==============================================================================

Section Cross References

    startup_stm32f407xx.o(RESET) refers to startup_stm32f407xx.o(STACK) for __initial_sp
    startup_stm32f407xx.o(RESET) refers to startup_stm32f407xx.o(.text) for Reset_Handler
    startup_stm32f407xx.o(RESET) refers to stm32f4xx_it.o(i.NMI_Handler) for NMI_Handler
    startup_stm32f407xx.o(RESET) refers to stm32f4xx_it.o(i.HardFault_Handler) for HardFault_Handler
    startup_stm32f407xx.o(RESET) refers to stm32f4xx_it.o(i.MemManage_Handler) for MemManage_Handler
    startup_stm32f407xx.o(RESET) refers to stm32f4xx_it.o(i.BusFault_Handler) for BusFault_Handler
    startup_stm32f407xx.o(RESET) refers to stm32f4xx_it.o(i.UsageFault_Handler) for UsageFault_Handler
    startup_stm32f407xx.o(RESET) refers to port.o(.emb_text) for SVC_Handler
    startup_stm32f407xx.o(RESET) refers to stm32f4xx_it.o(i.DebugMon_Handler) for DebugMon_Handler
    startup_stm32f407xx.o(RESET) refers to port.o(i.SysTick_Handler) for SysTick_Handler
    startup_stm32f407xx.o(RESET) refers to stm32f4xx_it.o(i.TIM2_IRQHandler) for TIM2_IRQHandler
    startup_stm32f407xx.o(.text) refers to system_stm32f4xx.o(i.SystemInit) for SystemInit
    startup_stm32f407xx.o(.text) refers to entry.o(.ARM.Collect$$$$00000000) for __main
    maintask.o(i.MainTask) refers to memmove.o(.text) for __aeabi_memcpy4
    maintask.o(i.MainTask) refers to gui_core.o(i.GUI_Init) for GUI_Init
    maintask.o(i.MainTask) refers to gui_common.o(i.GUI_SetBkColor) for GUI_SetBkColor
    maintask.o(i.MainTask) refers to gui_core.o(i.GUI_Clear) for GUI_Clear
    maintask.o(i.MainTask) refers to gui_qr.o(i.GUI_QR_Create) for GUI_QR_Create
==============================================================================

Removing Unused input sections from the image.

    Removing startup_stm32f407xx.o(HEAP), (1024 bytes).
    Removing gui_x_touch_analog.o(.rev16_text), (4 bytes).
    Removing gui_x_touch_analog.o(.revsh_text), (4 bytes).
    Removing gui_x_touch_analog.o(.rrx_text), (6 bytes).
    Removing gui_x_touch_analog.o(i.GUI_TOUCH_X_ActivateX), (2 bytes).
    Removing gui_x_touch_analog.o(i.GUI_TOUCH_X_ActivateY), (2 bytes).
    Removing gui_x_touch_analog.o(i.GUI_TOUCH_X_MeasureX), (16 bytes).
    Removing gui_x_touch_analog.o(i.GUI_TOUCH_X_MeasureY), (16 bytes).
    Removing guidrv_template.o(.rev16_text), (4 bytes).
    Removing guidrv_template.o(.revsh_text), (4 bytes).
    Removing guidrv_template.o(.rrx_text), (6 bytes).
    Removing lcdconf_flexcolor_template.o(.rev16_text), (4 bytes).
    Removing lcdconf_flexcolor_template.o(.revsh_text), (4 bytes).
    Removing lcdconf_flexcolor_template.o(.rrx_text), (6 bytes).
    Removing gui_x_freertos.o(i.GUI_X_ErrorOut), (2 bytes).
    Removing gui_x_freertos.o(i.GUI_X_Log), (2 bytes).
    Removing gui_x_freertos.o(i.GUI_X_SignalEvent), (24 bytes).
    Removing gui_x_freertos.o(i.GUI_X_WaitEvent), (28 bytes).
==============================================================================

Image Symbol Table

    Local Symbols

    Symbol Name                              Value     Ov Type        Size  Object(Section)

    ../Drivers/STM32F4xx_HAL_Driver/Src/stm32f4xx_hal.c 0x00000000   Number         0  stm32f4xx_hal.o ABSOLUTE
    ../Drivers/STM32F4xx_HAL_Driver/Src/stm32f4xx_hal_cortex.c 0x00000000   Number         0  stm32f4xx_hal_cortex.o ABSOLUTE
    ../Drivers/STM32F4xx_HAL_Driver/Src/stm32f4xx_hal_crc.c 0x00000000   Number         0  stm32f4xx_hal_crc.o ABSOLUTE
    ../Drivers/STM32F4xx_HAL_Driver/Src/stm32f4xx_hal_dma.c 0x00000000   Number         0  stm32f4xx_hal_dma.o ABSOLUTE
    ../Drivers/STM32F4xx_HAL_Driver/Src/stm32f4xx_hal_dma_ex.c 0x00000000   Number         0  stm32f4xx_hal_dma_ex.o ABSOLUTE
    ../Drivers/STM32F4xx_HAL_Driver/Src/stm32f4xx_hal_exti.c 0x00000000   Number         0  stm32f4xx_hal_exti.o ABSOLUTE
    ../Drivers/STM32F4xx_HAL_Driver/Src/stm32f4xx_hal_flash.c 0x00000000   Number         0  stm32f4xx_hal_flash.o ABSOLUTE
    ../Drivers/STM32F4xx_HAL_Driver/Src/stm32f4xx_hal_flash_ex.c 0x00000000   Number         0  stm32f4xx_hal_flash_ex.o ABSOLUTE
    ../Drivers/STM32F4xx_HAL_Driver/Src/stm32f4xx_hal_flash_ramfunc.c 0x00000000   Number         0  stm32f4xx_hal_flash_ramfunc.o ABSOLUTE
    ../Drivers/STM32F4xx_HAL_Driver/Src/stm32f4xx_hal_gpio.c 0x00000000   Number         0  stm32f4xx_hal_gpio.o ABSOLUTE
    ../Drivers/STM32F4xx_HAL_Driver/Src/stm32f4xx_hal_pwr.c 0x00000000   Number         0  stm32f4xx_hal_pwr.o ABSOLUTE
    ../Drivers/STM32F4xx_HAL_Driver/Src/stm32f4xx_hal_pwr_ex.c 0x00000000   Number         0  stm32f4xx_hal_pwr_ex.o ABSOLUTE
    ../Drivers/STM32F4xx_HAL_Driver/Src/stm32f4xx_hal_rcc.c 0x00000000   Number         0  stm32f4xx_hal_rcc.o ABSOLUTE
    ../Drivers/STM32F4xx_HAL_Driver/Src/stm32f4xx_hal_rcc_ex.c 0x00000000   Number         0  stm32f4xx_hal_rcc_ex.o ABSOLUTE
    ../Drivers/STM32F4xx_HAL_Driver/Src/stm32f4xx_hal_sram.c 0x00000000   Number         0  stm32f4xx_hal_sram.o ABSOLUTE
    ../Drivers/STM32F4xx_HAL_Driver/Src/stm32f4xx_hal_tim.c 0x00000000   Number         0  stm32f4xx_hal_tim.o ABSOLUTE
    ../Drivers/STM32F4xx_HAL_Driver/Src/stm32f4xx_hal_tim_ex.c 0x00000000   Number         0  stm32f4xx_hal_tim_ex.o ABSOLUTE
    ../Drivers/STM32F4xx_HAL_Driver/Src/stm32f4xx_ll_fsmc.c 0x00000000   Number         0  stm32f4xx_ll_fsmc.o ABSOLUTE
    ../Middlewares/Third_Party/FreeRTOS/Source/CMSIS_RTOS/cmsis_os.c 0x00000000   Number         0  cmsis_os.o ABSOLUTE
    ../Middlewares/Third_Party/FreeRTOS/Source/croutine.c 0x00000000   Number         0  croutine.o ABSOLUTE
    ../Middlewares/Third_Party/FreeRTOS/Source/event_groups.c 0x00000000   Number         0  event_groups.o ABSOLUTE
    ../Middlewares/Third_Party/FreeRTOS/Source/list.c 0x00000000   Number         0  list.o ABSOLUTE
    ../Middlewares/Third_Party/FreeRTOS/Source/portable/MemMang/heap_4.c 0x00000000   Number         0  heap_4.o ABSOLUTE
    ../Middlewares/Third_Party/FreeRTOS/Source/portable/RVDS/ARM_CM4F/port.c 0x00000000   Number         0  port.o ABSOLUTE
    ../Middlewares/Third_Party/FreeRTOS/Source/queue.c 0x00000000   Number         0  queue.o ABSOLUTE
    ../Middlewares/Third_Party/FreeRTOS/Source/stream_buffer.c 0x00000000   Number         0  stream_buffer.o ABSOLUTE
    ../Middlewares/Third_Party/FreeRTOS/Source/tasks.c 0x00000000   Number         0  tasks.o ABSOLUTE
    ../Middlewares/Third_Party/FreeRTOS/Source/timers.c 0x00000000   Number         0  timers.o ABSOLUTE
    ../Src/crc.c                             0x00000000   Number         0  crc.o ABSOLUTE
    ../Src/freertos.c                        0x00000000   Number         0  freertos.o ABSOLUTE
    ../Src/fsmc.c                            0x00000000   Number         0  fsmc.o ABSOLUTE
    ../Src/gpio.c                            0x00000000   Number         0  gpio.o ABSOLUTE
    ../Src/main.c                            0x00000000   Number         0  main.o ABSOLUTE
    ../Src/stm32f4xx_hal_msp.c               0x00000000   Number         0  stm32f4xx_hal_msp.o ABSOLUTE
    ../Src/stm32f4xx_hal_timebase_tim.c      0x00000000   Number         0  stm32f4xx_hal_timebase_tim.o ABSOLUTE
    ../Src/stm32f4xx_it.c                    0x00000000   Number         0  stm32f4xx_it.o ABSOLUTE
    ../Src/system_stm32f4xx.c                0x00000000   Number         0  system_stm32f4xx.o ABSOLUTE
    ../clib/../cmprslib/zerorunl2.c          0x00000000   Number         0  __dczerorl2.o ABSOLUTE
    ../clib/microlib/division.c              0x00000000   Number         0  uldiv.o ABSOLUTE
    ../clib/microlib/errno.c                 0x00000000   Number         0  errno.o ABSOLUTE
    ../clib/microlib/init/entry.s            0x00000000   Number         0  entry.o ABSOLUTE
    ../clib/microlib/init/entry.s            0x00000000   Number         0  entry11b.o ABSOLUTE
    ../clib/microlib/init/entry.s            0x00000000   Number         0  entry9a.o ABSOLUTE
    ../clib/microlib/init/entry.s            0x00000000   Number         0  entry10a.o ABSOLUTE
    ../clib/microlib/init/entry.s            0x00000000   Number         0  entry9b.o ABSOLUTE
    ../clib/microlib/init/entry.s            0x00000000   Number         0  entry10b.o ABSOLUTE
    ../clib/microlib/init/entry.s            0x00000000   Number         0  entry2.o ABSOLUTE
    ../clib/microlib/init/entry.s            0x00000000   Number         0  entry5.o ABSOLUTE
    ../clib/microlib/init/entry.s            0x00000000   Number         0  entry7a.o ABSOLUTE
    ../clib/microlib/init/entry.s            0x00000000   Number         0  entry11a.o ABSOLUTE
    ../clib/microlib/init/entry.s            0x00000000   Number         0  entry8b.o ABSOLUTE
    ../clib/microlib/init/entry.s            0x00000000   Number         0  entry7b.o ABSOLUTE
    ../clib/microlib/init/entry.s            0x00000000   Number         0  entry8a.o ABSOLUTE
    ../clib/microlib/longlong.c              0x00000000   Number         0  llushr.o ABSOLUTE
    ../clib/microlib/longlong.c              0x00000000   Number         0  llshl.o ABSOLUTE
    ../clib/microlib/string/memcmp.c         0x00000000   Number         0  memcmp.o ABSOLUTE
    ../clib/microlib/string/memcpy.c         0x00000000   Number         0  memmove.o ABSOLUTE
    ../clib/microlib/string/memcpy.c         0x00000000   Number         0  memcpya.o ABSOLUTE
    ../clib/microlib/string/memcpy.c         0x00000000   Number         0  memcpy.o ABSOLUTE
    ../clib/microlib/string/memcpy.c         0x00000000   Number         0  memcpyb.o ABSOLUTE
    ../clib/microlib/string/memcpy.c         0x00000000   Number         0  memmovec.o ABSOLUTE
    ../clib/microlib/string/memcpy.c         0x00000000   Number         0  memmoveb.o ABSOLUTE
    ../clib/microlib/string/memcpy.c         0x00000000   Number         0  memcpyc.o ABSOLUTE
    ../clib/microlib/string/memcpy.c         0x00000000   Number         0  memmovea.o ABSOLUTE
    ../clib/microlib/string/memset.c         0x00000000   Number         0  memset.o ABSOLUTE
    ../clib/microlib/string/memset.c         0x00000000   Number         0  memseta.o ABSOLUTE
    ../clib/microlib/string/strcpy.c         0x00000000   Number         0  strcpy.o ABSOLUTE
    ../clib/microlib/string/strlen.c         0x00000000   Number         0  strlen.o ABSOLUTE
    ../clib/microlib/stubs.s                 0x00000000   Number         0  iusefp.o ABSOLUTE
    ../fplib/microlib/f2d.c                  0x00000000   Number         0  f2d.o ABSOLUTE
    ../fplib/microlib/fpepilogue.c           0x00000000   Number         0  depilogue.o ABSOLUTE
    ../fplib/microlib/fpfix.c                0x00000000   Number         0  dfixui.o ABSOLUTE
    ../fplib/microlib/fpflt.c                0x00000000   Number         0  dfltui.o ABSOLUTE
    ../fplib/microlib/fpmul.c                0x00000000   Number         0  dmul.o ABSOLUTE
    ../fplib/microlib/fpsqrt.c               0x00000000   Number         0  dsqrt.o ABSOLUTE
    ../mathlib/sqrt.c                        0x00000000   Number         0  sqrt_x.o ABSOLUTE
    ../mathlib/sqrt.c                        0x00000000   Number         0  sqrt.o ABSOLUTE
    ..\..\..\Utilities\Third_Party\STemWin540_20170609\GUI\Core\GUICC_0.c 0x00000000   Number         0  guicc_0.o ABSOLUTE
    ..\..\..\Utilities\Third_Party\STemWin540_20170609\GUI\Core\GUICC_565.c 0x00000000   Number         0  guicc_565.o ABSOLUTE
    ..\..\..\Utilities\Third_Party\STemWin540_20170609\GUI\Core\GUICC_8888.c 0x00000000   Number         0  guicc_8888.o ABSOLUTE
    ..\..\..\Utilities\Third_Party\STemWin540_20170609\GUI\Core\GUICC_8888_Index2Color.c 0x00000000   Number         0  guicc_8888_index2color.o ABSOLUTE
    ..\..\..\Utilities\Third_Party\STemWin540_20170609\GUI\Core\GUICC_888_Index2Color.c 0x00000000   Number         0  guicc_888_index2color.o ABSOLUTE
    ..\..\..\Utilities\Third_Party\STemWin540_20170609\GUI\Core\GUI_Alloc.c 0x00000000   Number         0  gui_alloc.o ABSOLUTE
    ..\..\..\Utilities\Third_Party\STemWin540_20170609\GUI\Core\GUI_Char.c 0x00000000   Number         0  gui_char.o ABSOLUTE
    ..\..\..\Utilities\Third_Party\STemWin540_20170609\GUI\Core\GUI_CharLine.c 0x00000000   Number         0  gui_charline.o ABSOLUTE
    ..\..\..\Utilities\Third_Party\STemWin540_20170609\GUI\Core\GUI_CharM.c 0x00000000   Number         0  gui_charm.o ABSOLUTE
    ..\..\..\Utilities\Third_Party\STemWin540_20170609\GUI\Core\GUI_Common.c 0x00000000   Number         0  gui_common.o ABSOLUTE
    ..\..\..\Utilities\Third_Party\STemWin540_20170609\GUI\Core\GUI_Core.c 0x00000000   Number         0  gui_core.o ABSOLUTE
    ..\..\..\Utilities\Third_Party\STemWin540_20170609\GUI\Core\GUI_Cursor.c 0x00000000   Number         0  gui_cursor.o ABSOLUTE
    ..\..\..\Utilities\Third_Party\STemWin540_20170609\GUI\Core\GUI_CursorResource.c 0x00000000   Number         0  gui_cursorresource.o ABSOLUTE
    ..\..\..\Utilities\Third_Party\STemWin540_20170609\GUI\Core\GUI_Device.c 0x00000000   Number         0  gui_device.o ABSOLUTE
    ..\..\..\Utilities\Third_Party\STemWin540_20170609\GUI\Core\GUI_DispChar.c 0x00000000   Number         0  gui_dispchar.o ABSOLUTE
    ..\..\..\Utilities\Third_Party\STemWin540_20170609\GUI\Core\GUI_DispString.c 0x00000000   Number         0  gui_dispstring.o ABSOLUTE
    ..\..\..\Utilities\Third_Party\STemWin540_20170609\GUI\Core\GUI_DrawBitmap.c 0x00000000   Number         0  gui_drawbitmap.o ABSOLUTE
    ..\..\..\Utilities\Third_Party\STemWin540_20170609\GUI\Core\GUI_OnKey.c 0x00000000   Number         0  gui_onkey.o ABSOLUTE
    ..\..\..\Utilities\Third_Party\STemWin540_20170609\GUI\Core\GUI_PID.c 0x00000000   Number         0  gui_pid.o ABSOLUTE
    ..\..\..\Utilities\Third_Party\STemWin540_20170609\GUI\Core\GUI_QR.c 0x00000000   Number         0  gui_qr.o ABSOLUTE
    ..\..\..\Utilities\Third_Party\STemWin540_20170609\GUI\Core\GUI_SPRITE.c 0x00000000   Number         0  gui_sprite.o ABSOLUTE
    ..\..\..\Utilities\Third_Party\STemWin540_20170609\GUI\Core\GUI_SPRITE_Anim.c 0x00000000   Number         0  gui_sprite_anim.o ABSOLUTE
    ..\..\..\Utilities\Third_Party\STemWin540_20170609\GUI\Core\GUI_SelectLayer.c 0x00000000   Number         0  gui_selectlayer.o ABSOLUTE
    ..\..\..\Utilities\Third_Party\STemWin540_20170609\GUI\Core\GUI_SetAlpha.c 0x00000000   Number         0  gui_setalpha.o ABSOLUTE
    ..\..\..\Utilities\Third_Party\STemWin540_20170609\GUI\Core\GUI_TOUCH.c 0x00000000   Number         0  gui_touch.o ABSOLUTE
    ..\..\..\Utilities\Third_Party\STemWin540_20170609\GUI\Core\GUI_TOUCH_Calibrate.c 0x00000000   Number         0  gui_touch_calibrate.o ABSOLUTE
    ..\..\..\Utilities\Third_Party\STemWin540_20170609\GUI\Core\GUI_TOUCH_DriverAnalog.c 0x00000000   Number         0  gui_touch_driveranalog.o ABSOLUTE
    ..\..\..\Utilities\Third_Party\STemWin540_20170609\GUI\Core\GUI_TOUCH_StoreState.c 0x00000000   Number         0  gui_touch_storestate.o ABSOLUTE
    ..\..\..\Utilities\Third_Party\STemWin540_20170609\GUI\Core\GUI_Task.c 0x00000000   Number         0  gui_task.o ABSOLUTE
    ..\..\..\Utilities\Third_Party\STemWin540_20170609\GUI\Core\GUI_Time.c 0x00000000   Number         0  gui_time.o ABSOLUTE
    ..\..\..\Utilities\Third_Party\STemWin540_20170609\GUI\Core\GUI_Timer.c 0x00000000   Number         0  gui_timer.o ABSOLUTE
    ..\..\..\Utilities\Third_Party\STemWin540_20170609\GUI\Core\GUI_UC.c 0x00000000   Number         0  gui_uc.o ABSOLUTE
    ..\..\..\Utilities\Third_Party\STemWin540_20170609\GUI\Core\GUI_UC_EncodeNone.c 0x00000000   Number         0  gui_uc_encodenone.o ABSOLUTE
    ..\..\..\Utilities\Third_Party\STemWin540_20170609\GUI\Core\GUI_WaitEvent.c 0x00000000   Number         0  gui_waitevent.o ABSOLUTE
    ..\..\..\Utilities\Third_Party\STemWin540_20170609\GUI\Core\GUI__Alpha.c 0x00000000   Number         0  gui__alpha.o ABSOLUTE
    ..\..\..\Utilities\Third_Party\STemWin540_20170609\GUI\Core\GUI__CompactPixelIndices.c 0x00000000   Number         0  gui__compactpixelindices.o ABSOLUTE
    ..\..\..\Utilities\Third_Party\STemWin540_20170609\GUI\Core\GUI__DivTbl.c 0x00000000   Number         0  gui__divtbl.o ABSOLUTE
    ..\..\..\Utilities\Third_Party\STemWin540_20170609\GUI\Core\GUI__ExpandPixelIndices.c 0x00000000   Number         0  gui__expandpixelindices.o ABSOLUTE
    ..\..\..\Utilities\Third_Party\STemWin540_20170609\GUI\Core\GUI__ManageCache.c 0x00000000   Number         0  gui__managecache.o ABSOLUTE
    ..\..\..\Utilities\Third_Party\STemWin540_20170609\GUI\Core\GUI__Private.c 0x00000000   Number         0  gui__private.o ABSOLUTE
    ..\..\..\Utilities\Third_Party\STemWin540_20170609\GUI\Core\GUI__SinHQ.c 0x00000000   Number         0  gui__sinhq.o ABSOLUTE
    ..\..\..\Utilities\Third_Party\STemWin540_20170609\GUI\Core\GUI__Wrap.c 0x00000000   Number         0  gui__wrap.o ABSOLUTE
    ..\..\..\Utilities\Third_Party\STemWin540_20170609\GUI\Core\LCD.c 0x00000000   Number         0  lcd.o ABSOLUTE
    ..\..\..\Utilities\Third_Party\STemWin540_20170609\GUI\Core\LCD_AA.c 0x00000000   Number         0  lcd_aa.o ABSOLUTE
    ..\..\..\Utilities\Third_Party\STemWin540_20170609\GUI\Core\LCD_Color.c 0x00000000   Number         0  lcd_color.o ABSOLUTE
    ..\..\..\Utilities\Third_Party\STemWin540_20170609\GUI\Core\LCD_GetColorIndex.c 0x00000000   Number         0  lcd_getcolorindex.o ABSOLUTE
    ..\..\..\Utilities\Third_Party\STemWin540_20170609\GUI\Core\LCD_GetEx.c 0x00000000   Number         0  lcd_getex.o ABSOLUTE
    ..\..\..\Utilities\Third_Party\STemWin540_20170609\GUI\Core\LCD_GetNumDisplays.c 0x00000000   Number         0  lcd_getnumdisplays.o ABSOLUTE
    ..\..\..\Utilities\Third_Party\STemWin540_20170609\GUI\Core\LCD_GetP.c 0x00000000   Number         0  lcd_getp.o ABSOLUTE
    ..\..\..\Utilities\Third_Party\STemWin540_20170609\GUI\Core\LCD_GetPixelColor.c 0x00000000   Number         0  lcd_getpixelcolor.o ABSOLUTE
    ..\..\..\Utilities\Third_Party\STemWin540_20170609\GUI\Core\LCD_Mirror.c 0x00000000   Number         0  lcd_mirror.o ABSOLUTE
    ..\..\..\Utilities\Third_Party\STemWin540_20170609\GUI\Core\LCD_ReadRect.c 0x00000000   Number         0  lcd_readrect.o ABSOLUTE
    ..\..\..\Utilities\Third_Party\STemWin540_20170609\GUI\Core\LCD_SelectLCD.c 0x00000000   Number         0  lcd_selectlcd.o ABSOLUTE
    ..\..\..\Utilities\Third_Party\STemWin540_20170609\GUI\Core\LCD_Set.c 0x00000000   Number         0  lcd_set.o ABSOLUTE
    ..\..\..\Utilities\Third_Party\STemWin540_20170609\GUI\Core\LCD_SetClipRectEx.c 0x00000000   Number         0  lcd_setcliprectex.o ABSOLUTE
    ..\..\..\Utilities\Third_Party\STemWin540_20170609\GUI\Core\LCD_UpdateColorIndices.c 0x00000000   Number         0  lcd_updatecolorindices.o ABSOLUTE
    ..\..\..\Utilities\Third_Party\STemWin540_20170609\GUI\Font\F6x8.c 0x00000000   Number         0  f6x8.o ABSOLUTE
    ..\..\..\Utilities\Third_Party\STemWin540_20170609\GUI\MemDev\GUIDEV.c 0x00000000   Number         0  guidev.o ABSOLUTE
    ..\..\..\Utilities\Third_Party\STemWin540_20170609\GUI\MemDev\GUIDEV_16.c 0x00000000   Number         0  guidev_16.o ABSOLUTE
    ..\..\..\Utilities\Third_Party\STemWin540_20170609\GUI\MemDev\GUIDEV_32.c 0x00000000   Number         0  guidev_32.o ABSOLUTE
    ..\..\..\Utilities\Third_Party\STemWin540_20170609\GUI\MemDev\GUIDEV_Banding.c 0x00000000   Number         0  guidev_banding.o ABSOLUTE
    ..\..\..\Utilities\Third_Party\STemWin540_20170609\GUI\MemDev\GUIDEV_Clear.c 0x00000000   Number         0  guidev_clear.o ABSOLUTE
    ..\..\..\Utilities\Third_Party\STemWin540_20170609\GUI\MemDev\GUIDEV_CreateFixed.c 0x00000000   Number         0  guidev_createfixed.o ABSOLUTE
    ..\..\..\Utilities\Third_Party\STemWin540_20170609\GUI\MemDev\GUIDEV_GetDataPtr.c 0x00000000   Number         0  guidev_getdataptr.o ABSOLUTE
    ..\..\..\Utilities\Third_Party\STemWin540_20170609\GUI\MemDev\GUIDEV_GetPos.c 0x00000000   Number         0  guidev_getpos.o ABSOLUTE
    ..\..\..\Utilities\Third_Party\STemWin540_20170609\GUI\MemDev\GUIDEV_GetXSize.c 0x00000000   Number         0  guidev_getxsize.o ABSOLUTE
    ..\..\..\Utilities\Third_Party\STemWin540_20170609\GUI\MemDev\GUIDEV_GetYSize.c 0x00000000   Number         0  guidev_getysize.o ABSOLUTE
    ..\..\..\Utilities\Third_Party\STemWin540_20170609\GUI\MemDev\GUIDEV_ReduceYSize.c 0x00000000   Number         0  guidev_reduceysize.o ABSOLUTE
    ..\..\..\Utilities\Third_Party\STemWin540_20170609\GUI\MemDev\GUIDEV_SetOrg.c 0x00000000   Number         0  guidev_setorg.o ABSOLUTE
    ..\..\..\Utilities\Third_Party\STemWin540_20170609\GUI\MemDev\GUIDEV_StaticDevices.c 0x00000000   Number         0  guidev_staticdevices.o ABSOLUTE
    ..\..\..\Utilities\Third_Party\STemWin540_20170609\GUI\MemDev\GUIDEV_Usage.c 0x00000000   Number         0  guidev_usage.o ABSOLUTE
    ..\..\..\Utilities\Third_Party\STemWin540_20170609\GUI\MemDev\GUIDEV_UsageBM.c 0x00000000   Number         0  guidev_usagebm.o ABSOLUTE
    ..\..\..\Utilities\Third_Party\STemWin540_20170609\GUI\MemDev\GUIDEV_Write.c 0x00000000   Number         0  guidev_write.o ABSOLUTE
    ..\..\..\Utilities\Third_Party\STemWin540_20170609\GUI\MemDev\GUIDEV_WriteToActiveAlpha.c 0x00000000   Number         0  guidev_writetoactivealpha.o ABSOLUTE
    ..\..\..\Utilities\Third_Party\STemWin540_20170609\GUI\MemDev\GUIDEV_WriteToActiveOpaque.c 0x00000000   Number         0  guidev_writetoactiveopaque.o ABSOLUTE
    ..\..\..\Utilities\Third_Party\STemWin540_20170609\GUI\WM\WM.c 0x00000000   Number         0  wm.o ABSOLUTE
    ..\..\..\Utilities\Third_Party\STemWin540_20170609\GUI\WM\WM_Lib.c 0x00000000   Number         0  wm_lib.o ABSOLUTE
    ..\..\..\Utilities\Third_Party\STemWin540_20170609\GUI\WM\WM_Move.c 0x00000000   Number         0  wm_move.o ABSOLUTE
    ..\..\..\Utilities\Third_Party\STemWin540_20170609\GUI\WM\WM_PID__GetPrevState.c 0x00000000   Number         0  wm_pid__getprevstate.o ABSOLUTE
    ..\..\..\Utilities\Third_Party\STemWin540_20170609\GUI\WM\WM_Screen2Win.c 0x00000000   Number         0  wm_screen2win.o ABSOLUTE
    ..\..\..\Utilities\Third_Party\STemWin540_20170609\GUI\WM\WM_SetCapture.c 0x00000000   Number         0  wm_setcapture.o ABSOLUTE
    ..\..\..\Utilities\Third_Party\STemWin540_20170609\GUI\WM\WM_Timer.c 0x00000000   Number         0  wm_timer.o ABSOLUTE
    ..\..\..\Utilities\Third_Party\STemWin540_20170609\GUI\WM\WM_Touch.c 0x00000000   Number         0  wm_touch.o ABSOLUTE
    ..\..\..\Utilities\Third_Party\STemWin540_20170609\GUI\WM\WM__Private.c 0x00000000   Number         0  wm__private.o ABSOLUTE
    ..\Demo\MainTask.c                       0x00000000   Number         0  maintask.o ABSOLUTE
    ..\Drivers\STM32F4xx_HAL_Driver\Src\stm32f4xx_hal.c 0x00000000   Number         0  stm32f4xx_hal.o ABSOLUTE
    ..\Drivers\STM32F4xx_HAL_Driver\Src\stm32f4xx_hal_cortex.c 0x00000000   Number         0  stm32f4xx_hal_cortex.o ABSOLUTE
    ..\Drivers\STM32F4xx_HAL_Driver\Src\stm32f4xx_hal_crc.c 0x00000000   Number         0  stm32f4xx_hal_crc.o ABSOLUTE
    ..\Drivers\STM32F4xx_HAL_Driver\Src\stm32f4xx_hal_dma.c 0x00000000   Number         0  stm32f4xx_hal_dma.o ABSOLUTE
    ..\Drivers\STM32F4xx_HAL_Driver\Src\stm32f4xx_hal_dma_ex.c 0x00000000   Number         0  stm32f4xx_hal_dma_ex.o ABSOLUTE
    ..\Drivers\STM32F4xx_HAL_Driver\Src\stm32f4xx_hal_exti.c 0x00000000   Number         0  stm32f4xx_hal_exti.o ABSOLUTE
    ..\Drivers\STM32F4xx_HAL_Driver\Src\stm32f4xx_hal_flash.c 0x00000000   Number         0  stm32f4xx_hal_flash.o ABSOLUTE
    ..\Drivers\STM32F4xx_HAL_Driver\Src\stm32f4xx_hal_flash_ex.c 0x00000000   Number         0  stm32f4xx_hal_flash_ex.o ABSOLUTE
    ..\Drivers\STM32F4xx_HAL_Driver\Src\stm32f4xx_hal_flash_ramfunc.c 0x00000000   Number         0  stm32f4xx_hal_flash_ramfunc.o ABSOLUTE
    ..\Drivers\STM32F4xx_HAL_Driver\Src\stm32f4xx_hal_gpio.c 0x00000000   Number         0  stm32f4xx_hal_gpio.o ABSOLUTE
    ..\Drivers\STM32F4xx_HAL_Driver\Src\stm32f4xx_hal_pwr.c 0x00000000   Number         0  stm32f4xx_hal_pwr.o ABSOLUTE
    ..\Drivers\STM32F4xx_HAL_Driver\Src\stm32f4xx_hal_pwr_ex.c 0x00000000   Number         0  stm32f4xx_hal_pwr_ex.o ABSOLUTE
    ..\Drivers\STM32F4xx_HAL_Driver\Src\stm32f4xx_hal_rcc.c 0x00000000   Number         0  stm32f4xx_hal_rcc.o ABSOLUTE
    ..\Drivers\STM32F4xx_HAL_Driver\Src\stm32f4xx_hal_rcc_ex.c 0x00000000   Number         0  stm32f4xx_hal_rcc_ex.o ABSOLUTE
    ..\Drivers\STM32F4xx_HAL_Driver\Src\stm32f4xx_hal_sram.c 0x00000000   Number         0  stm32f4xx_hal_sram.o ABSOLUTE
    ..\Drivers\STM32F4xx_HAL_Driver\Src\stm32f4xx_hal_tim.c 0x00000000   Number         0  stm32f4xx_hal_tim.o ABSOLUTE
    ..\Drivers\STM32F4xx_HAL_Driver\Src\stm32f4xx_hal_tim_ex.c 0x00000000   Number         0  stm32f4xx_hal_tim_ex.o ABSOLUTE
    ..\Drivers\STM32F4xx_HAL_Driver\Src\stm32f4xx_ll_fsmc.c 0x00000000   Number         0  stm32f4xx_ll_fsmc.o ABSOLUTE
    ..\Middlewares\Third_Party\FreeRTOS\Source\CMSIS_RTOS\cmsis_os.c 0x00000000   Number         0  cmsis_os.o ABSOLUTE
    ..\Middlewares\Third_Party\FreeRTOS\Source\portable\RVDS\ARM_CM4F\port.c 0x00000000   Number         0  port.o ABSOLUTE
    ..\STemWinLibrary522\Config\GUIConf.c    0x00000000   Number         0  guiconf.o ABSOLUTE
    ..\STemWinLibrary522\Config\GUIDRV_Template.c 0x00000000   Number         0  guidrv_template.o ABSOLUTE
    ..\STemWinLibrary522\Config\GUI_X_Touch_Analog.c 0x00000000   Number         0  gui_x_touch_analog.o ABSOLUTE
    ..\STemWinLibrary522\Config\LCDConf_FlexColor_Template.c 0x00000000   Number         0  lcdconf_flexcolor_template.o ABSOLUTE
    ..\STemWinLibrary522\OS\GUI_X_FreeRTOS.c 0x00000000   Number         0  gui_x_freertos.o ABSOLUTE
    ..\Src\24cxx.c                           0x00000000   Number         0  24cxx.o ABSOLUTE
    ..\Src\common.c                          0x00000000   Number         0  common.o ABSOLUTE
    ..\Src\crc.c                             0x00000000   Number         0  crc.o ABSOLUTE
    ..\Src\freertos.c                        0x00000000   Number         0  freertos.o ABSOLUTE
    ..\Src\fsmc.c                            0x00000000   Number         0  fsmc.o ABSOLUTE
    ..\Src\gpio.c                            0x00000000   Number         0  gpio.o ABSOLUTE
    ..\Src\lcd_config.c                      0x00000000   Number         0  lcd_config.o ABSOLUTE
    ..\Src\main.c                            0x00000000   Number         0  main.o ABSOLUTE
    ..\Src\myiic.c                           0x00000000   Number         0  myiic.o ABSOLUTE
    ..\Src\stm32f4xx_hal_msp.c               0x00000000   Number         0  stm32f4xx_hal_msp.o ABSOLUTE
    ..\Src\stm32f4xx_hal_timebase_tim.c      0x00000000   Number         0  stm32f4xx_hal_timebase_tim.o ABSOLUTE
    ..\Src\stm32f4xx_it.c                    0x00000000   Number         0  stm32f4xx_it.o ABSOLUTE
    ..\Src\system_stm32f4xx.c                0x00000000   Number         0  system_stm32f4xx.o ABSOLUTE
    ..\Src\touch.c                           0x00000000   Number         0  touch.o ABSOLUTE
    ..\\STemWinLibrary522\\Config\\GUIDRV_Template.c 0x00000000   Number         0  guidrv_template.o ABSOLUTE
    ..\\STemWinLibrary522\\Config\\GUI_X_Touch_Analog.c 0x00000000   Number         0  gui_x_touch_analog.o ABSOLUTE
    ..\\STemWinLibrary522\\Config\\LCDConf_FlexColor_Template.c 0x00000000   Number         0  lcdconf_flexcolor_template.o ABSOLUTE
    ..\\Src\\24cxx.c                         0x00000000   Number         0  24cxx.o ABSOLUTE
    ..\\Src\\common.c                        0x00000000   Number         0  common.o ABSOLUTE
    ..\\Src\\lcd_config.c                    0x00000000   Number         0  lcd_config.o ABSOLUTE
    ..\\Src\\myiic.c                         0x00000000   Number         0  myiic.o ABSOLUTE
    ..\\Src\\touch.c                         0x00000000   Number         0  touch.o ABSOLUTE
    cdcmple.s                                0x00000000   Number         0  cdcmple.o ABSOLUTE
    cdrcmple.s                               0x00000000   Number         0  cdrcmple.o ABSOLUTE
    dc.s                                     0x00000000   Number         0  dc.o ABSOLUTE
    handlers.s                               0x00000000   Number         0  handlers.o ABSOLUTE
    init.s                                   0x00000000   Number         0  init.o ABSOLUTE
    startup_stm32f407xx.s                    0x00000000   Number         0  startup_stm32f407xx.o ABSOLUTE
    RESET                                    0x08000000   Section      392  startup_stm32f407xx.o(RESET)
    .ARM.Collect$$$$00000000                 0x08000188   Section        0  entry.o(.ARM.Collect$$$$00000000)
    .ARM.Collect$$$$00000001                 0x08000188   Section        4  entry2.o(.ARM.Collect$$$$00000001)
    .ARM.Collect$$$$00000004                 0x0800018c   Section        4  entry5.o(.ARM.Collect$$$$00000004)
    .ARM.Collect$$$$00000008                 0x08000190   Section        0  entry7b.o(.ARM.Collect$$$$00000008)
    .ARM.Collect$$$$0000000A                 0x08000190   Section        0  entry8b.o(.ARM.Collect$$$$0000000A)
    .ARM.Collect$$$$0000000B                 0x08000190   Section        8  entry9a.o(.ARM.Collect$$$$0000000B)
    .ARM.Collect$$$$0000000D                 0x08000198   Section        0  entry10a.o(.ARM.Collect$$$$0000000D)
    .ARM.Collect$$$$0000000F                 0x08000198   Section        0  entry11a.o(.ARM.Collect$$$$0000000F)
    .ARM.Collect$$$$00002712                 0x08000198   Section        4  entry2.o(.ARM.Collect$$$$00002712)
    __lit__00000000                          0x08000198   Data           4  entry2.o(.ARM.Collect$$$$00002712)
    .emb_text                                0x0800019c   Section      190  port.o(.emb_text)
    $v0                                      0x0800019c   Number         0  port.o(.emb_text)
    .text                                    0x0800025c   Section       36  startup_stm32f407xx.o(.text)
    $v0                                      0x0800025c   Number         0  startup_stm32f407xx.o(.text)
    .text                                    0x08000280   Section        0  uldiv.o(.text)
    .text                                    0x080002e2   Section        0  memmove.o(.text)
    .text                                    0x08000324   Section        0  memseta.o(.text)
    .text                                    0x08000348   Section        0  strlen.o(.text)
    .text                                    0x08000356   Section        0  dmul.o(.text)
    .text                                    0x0800043a   Section        0  dfltui.o(.text)
    .text                                    0x08000454   Section        0  dfixui.o(.text)
    .text                                    0x08000486   Section        0  f2d.o(.text)
    .text                                    0x080004ac   Section       48  cdcmple.o(.text)
    .text                                    0x080004dc   Section       48  cdrcmple.o(.text)
    .text                                    0x0800050c   Section        0  llshl.o(.text)
    .text                                    0x0800052a   Section        0  llushr.o(.text)
    .text                                    0x0800054a   Section        0  depilogue.o(.text)
    .text                                    0x0800054a   Section        0  iusefp.o(.text)
    .text                                    0x08000604   Section        0  dsqrt.o(.text)
    .text                                    0x080006a8   Section       36  init.o(.text)
    .text                                    0x080006cc   Section        0  __dczerorl2.o(.text)
    i.AT24CXX_Init                           0x08000722   Section        0  24cxx.o(i.AT24CXX_Init)
    i.AT24CXX_ReadLenByte                    0x0800072a   Section        0  24cxx.o(i.AT24CXX_ReadLenByte)
    i.AT24CXX_ReadOneByte                    0x08000756   Section        0  24cxx.o(i.AT24CXX_ReadOneByte)
    i.AT24CXX_WriteLenByte                   0x080007ae   Section        0  24cxx.o(i.AT24CXX_WriteLenByte)
    i.AT24CXX_WriteOneByte                   0x080007d8   Section        0  24cxx.o(i.AT24CXX_WriteOneByte)
    i.BusFault_Handler                       0x08000828   Section        0  stm32f4xx_it.o(i.BusFault_Handler)
    i.DebugMon_Handler                       0x0800082c   Section        0  stm32f4xx_it.o(i.DebugMon_Handler)
    i.Error_Handler                          0x0800082e   Section        0  main.o(i.Error_Handler)
    i.FSMC_NORSRAM_Extended_Timing_Init      0x08000830   Section        0  stm32f4xx_ll_fsmc.o(i.FSMC_NORSRAM_Extended_Timing_Init)
    i.FSMC_NORSRAM_Init                      0x08000878   Section        0  stm32f4xx_ll_fsmc.o(i.FSMC_NORSRAM_Init)
    i.FSMC_NORSRAM_Timing_Init               0x080008d4   Section        0  stm32f4xx_ll_fsmc.o(i.FSMC_NORSRAM_Timing_Init)
    i.GL_DrawBitmap                          0x08000918   Section        0  gui_drawbitmap.o(i.GL_DrawBitmap)
    i.GL_SetDefault                          0x080009b4   Section        0  gui_common.o(i.GL_SetDefault)
    i.GUIMONO_DispChar                       0x080009fc   Section        0  gui_charm.o(i.GUIMONO_DispChar)
    i.GUIMONO_GetCharDistX                   0x08000b30   Section        0  gui_charm.o(i.GUIMONO_GetCharDistX)
    i.GUIMONO_GetFontInfo                    0x08000b48   Section        0  gui_charm.o(i.GUIMONO_GetFontInfo)
    i.GUIMONO_IsInFont                       0x08000b4e   Section        0  gui_charm.o(i.GUIMONO_IsInFont)
    i.GUITASK_CopyContext                    0x08000b88   Section        0  gui_task.o(i.GUITASK_CopyContext)
    i.GUITASK_Init                           0x08000bec   Section        0  gui_task.o(i.GUITASK_Init)
    i.GUI_ALLOC_AllocNoInit                  0x08000c38   Section        0  gui_alloc.o(i.GUI_ALLOC_AllocNoInit)
    i.GUI_ALLOC_AllocZero                    0x08000c58   Section        0  gui_alloc.o(i.GUI_ALLOC_AllocZero)
    i.GUI_ALLOC_AssignMemory                 0x08000c8c   Section        0  gui_alloc.o(i.GUI_ALLOC_AssignMemory)
    i.GUI_ALLOC_Free                         0x08000c9c   Section        0  gui_alloc.o(i.GUI_ALLOC_Free)
    i.GUI_ALLOC_FreeFixedBlock               0x08000ccc   Section        0  gui_alloc.o(i.GUI_ALLOC_FreeFixedBlock)
    i.GUI_ALLOC_GetFixedBlock                0x08000ce4   Section        0  gui_alloc.o(i.GUI_ALLOC_GetFixedBlock)
    i.GUI_ALLOC_GetMaxSize                   0x08000d94   Section        0  gui_alloc.o(i.GUI_ALLOC_GetMaxSize)
    i.GUI_ALLOC_Lock                         0x08000dd4   Section        0  gui_alloc.o(i.GUI_ALLOC_Lock)
    i.GUI_ALLOC_LockH                        0x08000de4   Section        0  gui_alloc.o(i.GUI_ALLOC_LockH)
    i.GUI_ALLOC_RequestSize                  0x08000e00   Section        0  gui_alloc.o(i.GUI_ALLOC_RequestSize)
    i.GUI_ALLOC_SetAvBlockSize               0x08000e34   Section        0  gui_alloc.o(i.GUI_ALLOC_SetAvBlockSize)
    i.GUI_ALLOC_Unlock                       0x08000e50   Section        0  gui_alloc.o(i.GUI_ALLOC_Unlock)
    i.GUI_ALLOC_UnlockH                      0x08000e60   Section        0  gui_alloc.o(i.GUI_ALLOC_UnlockH)
    i.GUI_ALLOC_h2p                          0x08000e90   Section        0  gui_alloc.o(i.GUI_ALLOC_h2p)
    i.GUI_ALLOC_p2h                          0x08000ea4   Section        0  gui_alloc.o(i.GUI_ALLOC_p2h)
    i.GUI_CalcColorDist                      0x08000eaa   Section        0  gui_common.o(i.GUI_CalcColorDist)
    i.GUI_Clear                              0x08000ee6   Section        0  gui_core.o(i.GUI_Clear)
    i.GUI_ClearRect                          0x08000f04   Section        0  gui_core.o(i.GUI_ClearRect)
    i.GUI_DEVICE_Create                      0x08000f6c   Section        0  gui_device.o(i.GUI_DEVICE_Create)
    i.GUI_DEVICE_CreateAndLink               0x08000fbc   Section        0  gui_device.o(i.GUI_DEVICE_CreateAndLink)
    i.GUI_DEVICE_Delete                      0x08000fe4   Section        0  gui_device.o(i.GUI_DEVICE_Delete)
    i.GUI_DEVICE_Link                        0x08000fe8   Section        0  gui_device.o(i.GUI_DEVICE_Link)
    i.GUI_DEVICE_LinkDevices                 0x08001080   Section        0  gui_device.o(i.GUI_DEVICE_LinkDevices)
    i.GUI_DEVICE_Unlink                      0x08001094   Section        0  gui_device.o(i.GUI_DEVICE_Unlink)
    i.GUI_DEVICE_UnlinkTaskDevices           0x080010cc   Section        0  gui_device.o(i.GUI_DEVICE_UnlinkTaskDevices)
    i.GUI_DEVICE__GetpDriver                 0x080010d0   Section        0  gui_device.o(i.GUI_DEVICE__GetpDriver)
    i.GUI_Delay                              0x080010f4   Section        0  gui_time.o(i.GUI_Delay)
    i.GUI_DrawBitmap                         0x08001164   Section        0  gui_drawbitmap.o(i.GUI_DrawBitmap)
    i.GUI_Exec                               0x080011bc   Section        0  gui_common.o(i.GUI_Exec)
    i.GUI_Exec1                              0x080011d0   Section        0  gui_common.o(i.GUI_Exec1)
    i.GUI_GetBitsPerPixelEx                  0x0800120c   Section        0  lcd_getex.o(i.GUI_GetBitsPerPixelEx)
    i.GUI_GetOrg                             0x08001220   Section        0  gui_common.o(i.GUI_GetOrg)
    i.GUI_GetpfColor2IndexEx                 0x0800123c   Section        0  lcd_getex.o(i.GUI_GetpfColor2IndexEx)
    i.GUI_GetpfIndex2ColorEx                 0x0800124c   Section        0  lcd_getex.o(i.GUI_GetpfIndex2ColorEx)
    i.GUI_GotoXY                             0x0800125c   Section        0  gui_common.o(i.GUI_GotoXY)
    i.GUI_Init                               0x0800127c   Section        0  gui_core.o(i.GUI_Init)
    i.GUI_Lock                               0x08001310   Section        0  gui_task.o(i.GUI_Lock)
    i.GUI_MEMDEV_Clear                       0x0800137c   Section        0  guidev_clear.o(i.GUI_MEMDEV_Clear)
    i.GUI_MEMDEV_CopyToLCD                   0x080013c0   Section        0  guidev.o(i.GUI_MEMDEV_CopyToLCD)
    i.GUI_MEMDEV_CopyToLCDAt                 0x080013cc   Section        0  guidev.o(i.GUI_MEMDEV_CopyToLCDAt)
    i.GUI_MEMDEV_CreateEx                    0x08001474   Section        0  guidev.o(i.GUI_MEMDEV_CreateEx)
    i.GUI_MEMDEV_Delete                      0x080014f8   Section        0  guidev.o(i.GUI_MEMDEV_Delete)
    i.GUI_MEMDEV_Draw                        0x08001540   Section        0  guidev_banding.o(i.GUI_MEMDEV_Draw)
    i.GUI_MEMDEV_GetBitsPerPixel             0x08001698   Section        0  guidev.o(i.GUI_MEMDEV_GetBitsPerPixel)
    i.GUI_MEMDEV_GetDataPtr                  0x080016ca   Section        0  guidev_getdataptr.o(i.GUI_MEMDEV_GetDataPtr)
    i.GUI_MEMDEV_GetYSize                    0x080016f4   Section        0  guidev_getysize.o(i.GUI_MEMDEV_GetYSize)
    i.GUI_MEMDEV_Paint1Static                0x08001728   Section        0  guidev_staticdevices.o(i.GUI_MEMDEV_Paint1Static)
    i.GUI_MEMDEV_ReduceYSize                 0x08001748   Section        0  guidev_reduceysize.o(i.GUI_MEMDEV_ReduceYSize)
    i.GUI_MEMDEV_Select                      0x08001780   Section        0  guidev.o(i.GUI_MEMDEV_Select)
    i.GUI_MEMDEV_SetOrg                      0x080017d0   Section        0  guidev_setorg.o(i.GUI_MEMDEV_SetOrg)
    i.GUI_MEMDEV_Write                       0x08001834   Section        0  guidev_write.o(i.GUI_MEMDEV_Write)
    i.GUI_MEMDEV_WriteAt                     0x08001840   Section        0  guidev_write.o(i.GUI_MEMDEV_WriteAt)
    i.GUI_MEMDEV__CreateFixed                0x080018a8   Section        0  guidev.o(i.GUI_MEMDEV__CreateFixed)
    i.GUI_MEMDEV__WriteToActiveAlpha         0x0800199c   Section        0  guidev_writetoactivealpha.o(i.GUI_MEMDEV__WriteToActiveAlpha)
    i.GUI_MEMDEV__WriteToActiveAt            0x080019bc   Section        0  guidev.o(i.GUI_MEMDEV__WriteToActiveAt)
    i.GUI_MEMDEV__WriteToActiveOpaque        0x080019ec   Section        0  guidev_writetoactiveopaque.o(i.GUI_MEMDEV__WriteToActiveOpaque)
    i.GUI_MergeRect                          0x08001a2a   Section        0  gui_common.o(i.GUI_MergeRect)
    i.GUI_MoveRect                           0x08001a82   Section        0  gui_common.o(i.GUI_MoveRect)
    i.GUI_PollKeyMsg                         0x08001aa0   Section        0  gui_onkey.o(i.GUI_PollKeyMsg)
    i.GUI_QR_Create                          0x08001ad4   Section        0  gui_qr.o(i.GUI_QR_Create)
    i.GUI_QR_Delete                          0x08001c58   Section        0  gui_qr.o(i.GUI_QR_Delete)
    i.GUI_QR_Draw                            0x08001c62   Section        0  gui_qr.o(i.GUI_QR_Draw)
    i.GUI_ReadRectEx                         0x08001ca0   Section        0  lcd_readrect.o(i.GUI_ReadRectEx)
    i.GUI_RectsIntersect                     0x08001d00   Section        0  gui_common.o(i.GUI_RectsIntersect)
    i.GUI_RestoreContext                     0x08001d38   Section        0  gui_common.o(i.GUI_RestoreContext)
    i.GUI_SaveContext_W                      0x08001d48   Section        0  gui_common.o(i.GUI_SaveContext_W)
    i.GUI_SelectLCD                          0x08001d58   Section        0  gui_common.o(i.GUI_SelectLCD)
    i.GUI_SelectLayer                        0x08001d74   Section        0  gui_selectlayer.o(i.GUI_SelectLayer)
    i.GUI_SetBkColor                         0x08001dac   Section        0  gui_common.o(i.GUI_SetBkColor)
    i.GUI_SetColor                           0x08001dc2   Section        0  gui_common.o(i.GUI_SetColor)
    i.GUI_SetDrawMode                        0x08001dd8   Section        0  gui_common.o(i.GUI_SetDrawMode)
    i.GUI_SetFont                            0x08001df0   Section        0  gui_common.o(i.GUI_SetFont)
    i.GUI_SetLineStyle                       0x08001e10   Section        0  gui_common.o(i.GUI_SetLineStyle)
    i.GUI_SetOrg                             0x08001e2c   Section        0  gui_common.o(i.GUI_SetOrg)
    i.GUI_SetPenSize                         0x08001e6c   Section        0  gui_common.o(i.GUI_SetPenSize)
    i.GUI_SetTextAlign                       0x08001e88   Section        0  gui_common.o(i.GUI_SetTextAlign)
    i.GUI_SetTextMode                        0x08001ea8   Section        0  gui_common.o(i.GUI_SetTextMode)
    i.GUI_SignalEvent                        0x08001ec8   Section        0  gui_waitevent.o(i.GUI_SignalEvent)
    i.GUI_StoreKey                           0x08001ed8   Section        0  gui_onkey.o(i.GUI_StoreKey)
    i.GUI_TIMER_Delete                       0x08001ee8   Section        0  gui_timer.o(i.GUI_TIMER_Delete)
    i.GUI_TIMER_GetFlag                      0x08001f0e   Section        0  gui_timer.o(i.GUI_TIMER_GetFlag)
    i.GUI_TIMER__GetFirstTimer               0x08001f40   Section        0  gui_timer.o(i.GUI_TIMER__GetFirstTimer)
    i.GUI_TIMER__GetNextTimerLin             0x08001f68   Section        0  gui_timer.o(i.GUI_TIMER__GetNextTimerLin)
    i.GUI_TOUCH_CalcCoefficients             0x08001fa0   Section        0  gui_touch_calibrate.o(i.GUI_TOUCH_CalcCoefficients)
    i.GUI_TOUCH_Calibrate                    0x0800243c   Section        0  gui_touch_driveranalog.o(i.GUI_TOUCH_Calibrate)
    i.GUI_TOUCH_SetOrientation               0x08002504   Section        0  gui_touch_driveranalog.o(i.GUI_TOUCH_SetOrientation)
    i.GUI_USAGE_AddRect                      0x08002510   Section        0  guidev_usage.o(i.GUI_USAGE_AddRect)
    i.GUI_USAGE_BM_AddHLine                  0x08002538   Section        0  guidev_usagebm.o(i.GUI_USAGE_BM_AddHLine)
    GUI_USAGE_BM_AddHLine                    0x08002539   Thumb Code   116  guidev_usagebm.o(i.GUI_USAGE_BM_AddHLine)
    i.GUI_USAGE_BM_AddPixel                  0x080025ac   Section        0  guidev_usagebm.o(i.GUI_USAGE_BM_AddPixel)
    GUI_USAGE_BM_AddPixel                    0x080025ad   Thumb Code    44  guidev_usagebm.o(i.GUI_USAGE_BM_AddPixel)
    i.GUI_USAGE_BM_Clear                     0x080025d8   Section        0  guidev_usagebm.o(i.GUI_USAGE_BM_Clear)
    GUI_USAGE_BM_Clear                       0x080025d9   Thumb Code    14  guidev_usagebm.o(i.GUI_USAGE_BM_Clear)
    i.GUI_USAGE_BM_Create                    0x080025e8   Section        0  guidev_usagebm.o(i.GUI_USAGE_BM_Create)
    i.GUI_USAGE_BM_GetNextDirty              0x08002644   Section        0  guidev_usagebm.o(i.GUI_USAGE_BM_GetNextDirty)
    GUI_USAGE_BM_GetNextDirty                0x08002645   Thumb Code   154  guidev_usagebm.o(i.GUI_USAGE_BM_GetNextDirty)
    i.GUI_USAGE_DecUseCnt                    0x080026de   Section        0  guidev_usage.o(i.GUI_USAGE_DecUseCnt)
    i.GUI_Unlock                             0x0800270c   Section        0  gui_task.o(i.GUI_Unlock)
    i.GUI_X_Config                           0x08002720   Section        0  guiconf.o(i.GUI_X_Config)
    i.GUI_X_Delay                            0x08002738   Section        0  gui_x_freertos.o(i.GUI_X_Delay)
    i.GUI_X_ExecIdle                         0x08002744   Section        0  gui_x_freertos.o(i.GUI_X_ExecIdle)
    i.GUI_X_GetTaskId                        0x08002746   Section        0  gui_x_freertos.o(i.GUI_X_GetTaskId)
    i.GUI_X_GetTime                          0x0800274e   Section        0  gui_x_freertos.o(i.GUI_X_GetTime)
    i.GUI_X_Init                             0x08002756   Section        0  gui_x_freertos.o(i.GUI_X_Init)
    i.GUI_X_InitOS                           0x08002758   Section        0  gui_x_freertos.o(i.GUI_X_InitOS)
    i.GUI_X_Lock                             0x080027d8   Section        0  gui_x_freertos.o(i.GUI_X_Lock)
    i.GUI_X_Unlock                           0x080027f8   Section        0  gui_x_freertos.o(i.GUI_X_Unlock)
    i.GUI__AllocAlphaBuffer                  0x08002810   Section        0  gui__alpha.o(i.GUI__AllocAlphaBuffer)
    i.GUI__AlphaPreserveTrans                0x08002828   Section        0  gui_setalpha.o(i.GUI__AlphaPreserveTrans)
    i.GUI__CompactPixelIndices               0x0800284c   Section        0  gui__compactpixelindices.o(i.GUI__CompactPixelIndices)
    i.GUI__CompactPixelIndicesEx             0x08002970   Section        0  gui__compactpixelindices.o(i.GUI__CompactPixelIndicesEx)
    i.GUI__Config                            0x0800297c   Section        0  gui_core.o(i.GUI__Config)
    i.GUI__ConvertColor2Index                0x080029b4   Section        0  gui__compactpixelindices.o(i.GUI__ConvertColor2Index)
    i.GUI__DoAlphaBlending                   0x08002b1c   Section        0  gui__alpha.o(i.GUI__DoAlphaBlending)
    i.GUI__ExpandPixelIndicesEx              0x08002cf0   Section        0  gui__expandpixelindices.o(i.GUI__ExpandPixelIndicesEx)
    i.GUI__GetAlphaBuffer                    0x08002e34   Section        0  gui__alpha.o(i.GUI__GetAlphaBuffer)
    i.GUI__GetOrg                            0x08002ed0   Section        0  gui_common.o(i.GUI__GetOrg)
    i.GUI__IntersectRect                     0x08002eec   Section        0  gui__private.o(i.GUI__IntersectRect)
    i.GUI__IntersectRects                    0x08002f26   Section        0  gui__private.o(i.GUI__IntersectRects)
    i.GUI__ManageCache                       0x08002f78   Section        0  gui__managecache.o(i.GUI__ManageCache)
    i.GUI__ManageCacheEx                     0x08002f88   Section        0  gui__managecache.o(i.GUI__ManageCacheEx)
    i.GUI__MixColors                         0x0800305c   Section        0  gui__alpha.o(i.GUI__MixColors)
    i.GUI__MixColorsBulk                     0x080030b8   Section        0  gui__alpha.o(i.GUI__MixColorsBulk)
    i.GUI__RegisterExit                      0x08003118   Section        0  gui_core.o(i.GUI__RegisterExit)
    i.GUI__memset16                          0x08003128   Section        0  gui__private.o(i.GUI__memset16)
    i.HAL_CRC_Init                           0x08003164   Section        0  stm32f4xx_hal_crc.o(i.HAL_CRC_Init)
    i.HAL_CRC_MspInit                        0x08003188   Section        0  crc.o(i.HAL_CRC_MspInit)
    i.HAL_Delay                              0x080031bc   Section        0  stm32f4xx_hal.o(i.HAL_Delay)
    i.HAL_FSMC_MspInit                       0x080031e4   Section        0  fsmc.o(i.HAL_FSMC_MspInit)
    HAL_FSMC_MspInit                         0x080031e5   Thumb Code   182  fsmc.o(i.HAL_FSMC_MspInit)
    i.HAL_GPIO_Init                          0x080032b4   Section        0  stm32f4xx_hal_gpio.o(i.HAL_GPIO_Init)
    i.HAL_GPIO_WritePin                      0x080034b4   Section        0  stm32f4xx_hal_gpio.o(i.HAL_GPIO_WritePin)
    i.HAL_GetTick                            0x080034c0   Section        0  stm32f4xx_hal.o(i.HAL_GetTick)
    i.HAL_IncTick                            0x080034cc   Section        0  stm32f4xx_hal.o(i.HAL_IncTick)
    i.HAL_Init                               0x080034e4   Section        0  stm32f4xx_hal.o(i.HAL_Init)
    i.HAL_InitTick                           0x08003520   Section        0  stm32f4xx_hal_timebase_tim.o(i.HAL_InitTick)
    i.HAL_MspInit                            0x080035a8   Section        0  stm32f4xx_hal_msp.o(i.HAL_MspInit)
    i.HAL_NVIC_EnableIRQ                     0x080035fc   Section        0  stm32f4xx_hal_cortex.o(i.HAL_NVIC_EnableIRQ)
    i.HAL_NVIC_SetPriority                   0x0800361c   Section        0  stm32f4xx_hal_cortex.o(i.HAL_NVIC_SetPriority)
    i.HAL_NVIC_SetPriorityGrouping           0x08003698   Section        0  stm32f4xx_hal_cortex.o(i.HAL_NVIC_SetPriorityGrouping)
    i.HAL_RCC_ClockConfig                    0x080036c0   Section        0  stm32f4xx_hal_rcc.o(i.HAL_RCC_ClockConfig)
    i.HAL_RCC_GetClockConfig                 0x08003840   Section        0  stm32f4xx_hal_rcc.o(i.HAL_RCC_GetClockConfig)
    i.HAL_RCC_GetHCLKFreq                    0x08003884   Section        0  stm32f4xx_hal_rcc.o(i.HAL_RCC_GetHCLKFreq)
    i.HAL_RCC_GetPCLK1Freq                   0x08003890   Section        0  stm32f4xx_hal_rcc.o(i.HAL_RCC_GetPCLK1Freq)
    i.HAL_RCC_GetSysClockFreq                0x080038b0   Section        0  stm32f4xx_hal_rcc.o(i.HAL_RCC_GetSysClockFreq)
    i.HAL_RCC_OscConfig                      0x08003960   Section        0  stm32f4xx_hal_rcc.o(i.HAL_RCC_OscConfig)
    i.HAL_SRAM_Init                          0x08003da8   Section        0  stm32f4xx_hal_sram.o(i.HAL_SRAM_Init)
    i.HAL_SRAM_MspInit                       0x08003e00   Section        0  fsmc.o(i.HAL_SRAM_MspInit)
    i.HAL_TIMEx_BreakCallback                0x08003e0a   Section        0  stm32f4xx_hal_tim_ex.o(i.HAL_TIMEx_BreakCallback)
    i.HAL_TIMEx_CommutCallback               0x08003e0c   Section        0  stm32f4xx_hal_tim_ex.o(i.HAL_TIMEx_CommutCallback)
    i.HAL_TIM_Base_Init                      0x08003e0e   Section        0  stm32f4xx_hal_tim.o(i.HAL_TIM_Base_Init)
    i.HAL_TIM_Base_MspInit                   0x08003e42   Section        0  stm32f4xx_hal_tim.o(i.HAL_TIM_Base_MspInit)
    i.HAL_TIM_Base_Start_IT                  0x08003e44   Section        0  stm32f4xx_hal_tim.o(i.HAL_TIM_Base_Start_IT)
    i.HAL_TIM_IC_CaptureCallback             0x08003e6e   Section        0  stm32f4xx_hal_tim.o(i.HAL_TIM_IC_CaptureCallback)
    i.HAL_TIM_IRQHandler                     0x08003e70   Section        0  stm32f4xx_hal_tim.o(i.HAL_TIM_IRQHandler)
    i.HAL_TIM_OC_DelayElapsedCallback        0x08004006   Section        0  stm32f4xx_hal_tim.o(i.HAL_TIM_OC_DelayElapsedCallback)
    i.HAL_TIM_PWM_PulseFinishedCallback      0x08004008   Section        0  stm32f4xx_hal_tim.o(i.HAL_TIM_PWM_PulseFinishedCallback)
    i.HAL_TIM_PeriodElapsedCallback          0x0800400a   Section        0  main.o(i.HAL_TIM_PeriodElapsedCallback)
    i.HAL_TIM_TriggerCallback                0x0800401c   Section        0  stm32f4xx_hal_tim.o(i.HAL_TIM_TriggerCallback)
    i.HardFault_Handler                      0x0800401e   Section        0  stm32f4xx_it.o(i.HardFault_Handler)
    i.IIC_Ack                                0x08004024   Section        0  myiic.o(i.IIC_Ack)
    i.IIC_Init                               0x08004074   Section        0  myiic.o(i.IIC_Init)
    i.IIC_NAck                               0x0800408c   Section        0  myiic.o(i.IIC_NAck)
    i.IIC_Read_Byte                          0x080040dc   Section        0  myiic.o(i.IIC_Read_Byte)
    i.IIC_Send_Byte                          0x08004148   Section        0  myiic.o(i.IIC_Send_Byte)
    i.IIC_Start                              0x080041b0   Section        0  myiic.o(i.IIC_Start)
    i.IIC_Stop                               0x080041fc   Section        0  myiic.o(i.IIC_Stop)
    i.IIC_Wait_Ack                           0x08004244   Section        0  myiic.o(i.IIC_Wait_Ack)
    i.LCD_AA_MixColors16                     0x080042a4   Section        0  lcd_aa.o(i.LCD_AA_MixColors16)
    i.LCD_AA_SetAndMask                      0x080042f4   Section        0  lcd_aa.o(i.LCD_AA_SetAndMask)
    i.LCD_BGR2RGB                            0x08004304   Section        0  lcd_config.o(i.LCD_BGR2RGB)
    i.LCD_Clear                              0x08004320   Section        0  lcd_config.o(i.LCD_Clear)
    i.LCD_Color2Index                        0x0800438c   Section        0  lcd.o(i.LCD_Color2Index)
    i.LCD_Config_Init                        0x080043a8   Section        0  lcd_config.o(i.LCD_Config_Init)
    i.LCD_Display_Dir                        0x080079fc   Section        0  lcd_config.o(i.LCD_Display_Dir)
    i.LCD_DrawBitmap                         0x08007bbc   Section        0  lcd.o(i.LCD_DrawBitmap)
    i.LCD_DrawHLine                          0x08007dc0   Section        0  lcd.o(i.LCD_DrawHLine)
    i.LCD_DrawLine                           0x08007e18   Section        0  lcd_config.o(i.LCD_DrawLine)
    i.LCD_DrawPixel                          0x08007ec8   Section        0  lcd.o(i.LCD_DrawPixel)
    i.LCD_DrawPoint                          0x08007f30   Section        0  lcd_config.o(i.LCD_DrawPoint)
    i.LCD_Draw_Circle                        0x08007f54   Section        0  lcd_config.o(i.LCD_Draw_Circle)
    i.LCD_Fast_DrawPoint                     0x08007fec   Section        0  lcd_config.o(i.LCD_Fast_DrawPoint)
    i.LCD_Fill                               0x0800816c   Section        0  lcd_config.o(i.LCD_Fill)
    i.LCD_FillRect                           0x08008224   Section        0  lcd.o(i.LCD_FillRect)
    i.LCD_GetBitsPerPixelEx                  0x0800827c   Section        0  lcd_getex.o(i.LCD_GetBitsPerPixelEx)
    i.LCD_GetNumColors                       0x08008284   Section        0  lcd_getex.o(i.LCD_GetNumColors)
    i.LCD_GetNumColorsEx                     0x08008294   Section        0  lcd_getex.o(i.LCD_GetNumColorsEx)
    i.LCD_GetNumLayers                       0x0800829a   Section        0  lcd_getnumdisplays.o(i.LCD_GetNumLayers)
    i.LCD_GetPalette                         0x080082b4   Section        0  lcd_getex.o(i.LCD_GetPalette)
    i.LCD_GetPaletteEx                       0x080082c4   Section        0  lcd_getex.o(i.LCD_GetPaletteEx)
    i.LCD_GetVXSizeEx                        0x080082dc   Section        0  lcd_getex.o(i.LCD_GetVXSizeEx)
    i.LCD_GetVXSizeMax                       0x080082e2   Section        0  lcd_getex.o(i.LCD_GetVXSizeMax)
    i.LCD_GetVYSizeEx                        0x080082e8   Section        0  lcd_getex.o(i.LCD_GetVYSizeEx)
    i.LCD_GetXSize                           0x080082f0   Section        0  lcd_getex.o(i.LCD_GetXSize)
    i.LCD_GetXSizeDisplay                    0x08008300   Section        0  lcd_getex.o(i.LCD_GetXSizeDisplay)
    i.LCD_GetXSizeEx                         0x0800830c   Section        0  lcd_getex.o(i.LCD_GetXSizeEx)
    i.LCD_GetXSizeMax                        0x08008312   Section        0  lcd_getex.o(i.LCD_GetXSizeMax)
    i.LCD_GetYSize                           0x08008318   Section        0  lcd_getex.o(i.LCD_GetYSize)
    i.LCD_GetYSizeDisplay                    0x08008328   Section        0  lcd_getex.o(i.LCD_GetYSizeDisplay)
    i.LCD_GetYSizeEx                         0x08008334   Section        0  lcd_getex.o(i.LCD_GetYSizeEx)
    i.LCD_GetYSizeMax                        0x0800833a   Section        0  lcd_getex.o(i.LCD_GetYSizeMax)
    i.LCD_GetpPalConvTableBM                 0x08008340   Section        0  lcd_color.o(i.LCD_GetpPalConvTableBM)
    i.LCD_GetpPalConvTableUncached           0x08008344   Section        0  lcd_color.o(i.LCD_GetpPalConvTableUncached)
    i.LCD_Index2Color                        0x080083a0   Section        0  lcd.o(i.LCD_Index2Color)
    i.LCD_Index2Color_565                    0x080083bc   Section        0  guicc_565.o(i.LCD_Index2Color_565)
    i.LCD_Index2Color_888                    0x080083e8   Section        0  guicc_888_index2color.o(i.LCD_Index2Color_888)
    i.LCD_Index2Color_8888                   0x080083ea   Section        0  guicc_8888_index2color.o(i.LCD_Index2Color_8888)
    i.LCD_InitColors                         0x080083ec   Section        0  lcd_color.o(i.LCD_InitColors)
    i.LCD_InitLUT                            0x08008420   Section        0  lcd_color.o(i.LCD_InitLUT)
    i.LCD_RD_DATA                            0x0800849c   Section        0  lcd_config.o(i.LCD_RD_DATA)
    i.LCD_ReadPoint                          0x080084b0   Section        0  lcd_config.o(i.LCD_ReadPoint)
    i.LCD_ReadRectEx                         0x0800861c   Section        0  lcd_readrect.o(i.LCD_ReadRectEx)
    LCD_ReadRectEx                           0x0800861d   Thumb Code   404  lcd_readrect.o(i.LCD_ReadRectEx)
    i.LCD_ReadReg                            0x080087b4   Section        0  lcd_config.o(i.LCD_ReadReg)
    i.LCD_SSD_BackLightSet                   0x080087cc   Section        0  lcd_config.o(i.LCD_SSD_BackLightSet)
    i.LCD_Scan_Dir                           0x0800882c   Section        0  lcd_config.o(i.LCD_Scan_Dir)
    i.LCD_SelectLCD                          0x08008b18   Section        0  lcd_selectlcd.o(i.LCD_SelectLCD)
    i.LCD_SetBkColor                         0x08008b58   Section        0  lcd.o(i.LCD_SetBkColor)
    i.LCD_SetBkColorIndex                    0x08008b64   Section        0  lcd.o(i.LCD_SetBkColorIndex)
    i.LCD_SetClipRectEx                      0x08008b7c   Section        0  lcd_setcliprectex.o(i.LCD_SetClipRectEx)
    i.LCD_SetClipRectMax                     0x08008bac   Section        0  lcd.o(i.LCD_SetClipRectMax)
    i.LCD_SetColor                           0x08008bc8   Section        0  lcd.o(i.LCD_SetColor)
    i.LCD_SetColorIndex                      0x08008bd4   Section        0  lcd.o(i.LCD_SetColorIndex)
    i.LCD_SetCursor                          0x08008bec   Section        0  lcd_config.o(i.LCD_SetCursor)
    i.LCD_SetDisplaySize                     0x08008d94   Section        0  lcd_getex.o(i.LCD_SetDisplaySize)
    i.LCD_SetDrawMode                        0x08008da0   Section        0  lcd.o(i.LCD_SetDrawMode)
    i.LCD_SetLUTEntryEx                      0x08008dac   Section        0  lcd_set.o(i.LCD_SetLUTEntryEx)
    i.LCD_SetSizeEx                          0x08008dd8   Section        0  lcd_set.o(i.LCD_SetSizeEx)
    i.LCD_SetVSizeEx                         0x08008e04   Section        0  lcd_set.o(i.LCD_SetVSizeEx)
    i.LCD_UpdateColorIndices                 0x08008e30   Section        0  lcd_updatecolorindices.o(i.LCD_UpdateColorIndices)
    i.LCD_WR_DATA                            0x08008e54   Section        0  lcd_config.o(i.LCD_WR_DATA)
    i.LCD_WR_REG                             0x08008e60   Section        0  lcd_config.o(i.LCD_WR_REG)
    i.LCD_WriteRAM_Prepare                   0x08008e6c   Section        0  lcd_config.o(i.LCD_WriteRAM_Prepare)
    i.LCD_WriteReg                           0x08008e80   Section        0  lcd_config.o(i.LCD_WriteReg)
    i.LCD_X_Config                           0x08008e94   Section        0  lcdconf_flexcolor_template.o(i.LCD_X_Config)
    i.LCD_X_DisplayDriver                    0x08008ef4   Section        0  lcdconf_flexcolor_template.o(i.LCD_X_DisplayDriver)
    i.LCD__DrawBitmap_1bpp                   0x08008f10   Section        0  lcd.o(i.LCD__DrawBitmap_1bpp)
    i.LCD__GetBPP                            0x080090c4   Section        0  lcd_getex.o(i.LCD__GetBPP)
    i.LCD__GetBPPDevice                      0x08009120   Section        0  lcd_getex.o(i.LCD__GetBPPDevice)
    i.MX_CRC_Init                            0x08009154   Section        0  crc.o(i.MX_CRC_Init)
    i.MX_FREERTOS_Init                       0x08009174   Section        0  freertos.o(i.MX_FREERTOS_Init)
    i.MX_FSMC_Init                           0x080091b8   Section        0  fsmc.o(i.MX_FSMC_Init)
    i.MX_GPIO_Init                           0x08009234   Section        0  gpio.o(i.MX_GPIO_Init)
    i.MainTask                               0x08009444   Section        0  maintask.o(i.MainTask)
    i.MemManage_Handler                      0x0800949c   Section        0  stm32f4xx_it.o(i.MemManage_Handler)
    i.NMI_Handler                            0x080094a0   Section        0  stm32f4xx_it.o(i.NMI_Handler)
    i.Start_LCD_Task                         0x080094a2   Section        0  freertos.o(i.Start_LCD_Task)
    i.Start_LED_Task                         0x080094b0   Section        0  freertos.o(i.Start_LED_Task)
    i.SysTick_Handler                        0x080094bc   Section        0  port.o(i.SysTick_Handler)
    i.SystemClock_Config                     0x080094f0   Section        0  main.o(i.SystemClock_Config)
    i.SystemInit                             0x080095a4   Section        0  system_stm32f4xx.o(i.SystemInit)
    i.TIM2_IRQHandler                        0x08009608   Section        0  stm32f4xx_it.o(i.TIM2_IRQHandler)
    i.TIM_Base_SetConfig                     0x08009618   Section        0  stm32f4xx_hal_tim.o(i.TIM_Base_SetConfig)
    i.TP_Adjust                              0x080096f0   Section        0  touch.o(i.TP_Adjust)
    i.TP_Drow_Touch_Point                    0x08009d70   Section        0  touch.o(i.TP_Drow_Touch_Point)
    i.TP_Get_Adjdata                         0x08009de0   Section        0  touch.o(i.TP_Get_Adjdata)
    i.TP_Init                                0x08009e64   Section        0  touch.o(i.TP_Init)
    i.TP_Read_AD                             0x08009ed8   Section        0  touch.o(i.TP_Read_AD)
    i.TP_Read_XOY                            0x08009f64   Section        0  touch.o(i.TP_Read_XOY)
    i.TP_Read_XY                             0x08009fdc   Section        0  touch.o(i.TP_Read_XY)
    i.TP_Read_XY2                            0x0800a00c   Section        0  touch.o(i.TP_Read_XY2)
    i.TP_Save_Adjdata                        0x0800a0cc   Section        0  touch.o(i.TP_Save_Adjdata)
    i.TP_Scan                                0x0800a11c   Section        0  touch.o(i.TP_Scan)
    i.TP_Write_Byte                          0x0800a218   Section        0  touch.o(i.TP_Write_Byte)
    i.UsageFault_Handler                     0x0800a25c   Section        0  stm32f4xx_it.o(i.UsageFault_Handler)
    i.WM_Activate                            0x0800a260   Section        0  wm.o(i.WM_Activate)
    i.WM_BringToBottom                       0x0800a270   Section        0  wm_lib.o(i.WM_BringToBottom)
    i.WM_CreateWindowAsChild                 0x0800a2f8   Section        0  wm.o(i.WM_CreateWindowAsChild)
    i.WM_Deactivate                          0x0800a448   Section        0  wm.o(i.WM_Deactivate)
    i.WM_DefaultProc                         0x0800a468   Section        0  wm.o(i.WM_DefaultProc)
    i.WM_DeleteTimer                         0x0800a4ae   Section        0  wm_timer.o(i.WM_DeleteTimer)
    i.WM_DeleteWindow                        0x0800a4d8   Section        0  wm.o(i.WM_DeleteWindow)
    i.WM_Exec                                0x0800a5c8   Section        0  wm.o(i.WM_Exec)
    i.WM_GetDesktopWindow                    0x0800a644   Section        0  wm_lib.o(i.WM_GetDesktopWindow)
    i.WM_GetFirstChild                       0x0800a65c   Section        0  wm_lib.o(i.WM_GetFirstChild)
    i.WM_GetParent                           0x0800a676   Section        0  wm_lib.o(i.WM_GetParent)
    i.WM_GetWindowOrgX                       0x0800a690   Section        0  wm_lib.o(i.WM_GetWindowOrgX)
    i.WM_Init                                0x0800a6b0   Section        0  wm.o(i.WM_Init)
    i.WM_InvalidateRect                      0x0800a784   Section        0  wm.o(i.WM_InvalidateRect)
    i.WM_InvalidateWindow                    0x0800a804   Section        0  wm.o(i.WM_InvalidateWindow)
    i.WM_InvalidateWindowAndDescsEx          0x0800a80a   Section        0  wm.o(i.WM_InvalidateWindowAndDescsEx)
    i.WM_MoveWindow                          0x0800a868   Section        0  wm_move.o(i.WM_MoveWindow)
    i.WM_NotifyParent                        0x0800a886   Section        0  wm_lib.o(i.WM_NotifyParent)
    i.WM_OnKey                               0x0800a898   Section        0  wm_lib.o(i.WM_OnKey)
    i.WM_ResizeWindow                        0x0800a8d8   Section        0  wm_lib.o(i.WM_ResizeWindow)
    i.WM_SelectWindow                        0x0800a9cc   Section        0  wm.o(i.WM_SelectWindow)
    i.WM_SendMessageNoPara                   0x0800aa10   Section        0  wm_lib.o(i.WM_SendMessageNoPara)
    i.WM_SendToParent                        0x0800aa2a   Section        0  wm_lib.o(i.WM_SendToParent)
    i.WM_SetDefault                          0x0800aa50   Section        0  wm.o(i.WM_SetDefault)
    i.WM_SetSize                             0x0800aa64   Section        0  wm_lib.o(i.WM_SetSize)
    i.WM__ActivateClipRect                   0x0800aaac   Section        0  wm.o(i.WM__ActivateClipRect)
    i.WM__AddCriticalHandle                  0x0800aaf4   Section        0  wm__private.o(i.WM__AddCriticalHandle)
    i.WM__Client2Screen                      0x0800ab04   Section        0  wm.o(i.WM__Client2Screen)
    i.WM__ClipAtParentBorders                0x0800ab14   Section        0  wm.o(i.WM__ClipAtParentBorders)
    i.WM__DeleteAssocTimer                   0x0800ab62   Section        0  wm_timer.o(i.WM__DeleteAssocTimer)
    i.WM__DetachWindow                       0x0800abb4   Section        0  wm.o(i.WM__DetachWindow)
    i.WM__GetClientRectEx                    0x0800abdc   Section        0  wm__private.o(i.WM__GetClientRectEx)
    i.WM__GetClientRectWin                   0x0800abfc   Section        0  wm.o(i.WM__GetClientRectWin)
    i.WM__GetFirstSibling                    0x0800ac14   Section        0  wm__private.o(i.WM__GetFirstSibling)
    i.WM__GetNextIVR                         0x0800ac28   Section        0  wm.o(i.WM__GetNextIVR)
    i.WM__GetPrevSibling                     0x0800ac68   Section        0  wm__private.o(i.WM__GetPrevSibling)
    i.WM__GetTopLevelLayer                   0x0800ac8c   Section        0  wm.o(i.WM__GetTopLevelLayer)
    i.WM__InitIVRSearch                      0x0800aca4   Section        0  wm.o(i.WM__InitIVRSearch)
    i.WM__InsertWindowIntoList               0x0800ad94   Section        0  wm.o(i.WM__InsertWindowIntoList)
    i.WM__Invalidate1Abs                     0x0800ae38   Section        0  wm.o(i.WM__Invalidate1Abs)
    i.WM__InvalidateDrawAndDescs             0x0800ae40   Section        0  wm.o(i.WM__InvalidateDrawAndDescs)
    i.WM__InvalidateParent                   0x0800ae94   Section        0  wm.o(i.WM__InvalidateParent)
    i.WM__InvalidateRect                     0x0800aebe   Section        0  wm.o(i.WM__InvalidateRect)
    i.WM__InvalidateRectEx                   0x0800af34   Section        0  wm.o(i.WM__InvalidateRectEx)
    i.WM__IsWindow                           0x0800af3c   Section        0  wm.o(i.WM__IsWindow)
    i.WM__MoveWindow                         0x0800af5c   Section        0  wm_move.o(i.WM__MoveWindow)
    i.WM__Paint                              0x0800aff8   Section        0  wm.o(i.WM__Paint)
    i.WM__Paint1                             0x0800b098   Section        0  wm.o(i.WM__Paint1)
    i.WM__PaintWinAndOverlays                0x0800b124   Section        0  wm.o(i.WM__PaintWinAndOverlays)
    WM__PaintWinAndOverlays                  0x0800b125   Thumb Code   116  wm.o(i.WM__PaintWinAndOverlays)
    i.WM__RectIsNZ                           0x0800b19c   Section        0  wm.o(i.WM__RectIsNZ)
    i.WM__RemoveWindowFromList               0x0800b1bc   Section        0  wm.o(i.WM__RemoveWindowFromList)
    i.WM__SelectTopLevelLayer                0x0800b1fc   Section        0  wm.o(i.WM__SelectTopLevelLayer)
    i.WM__SendMessage                        0x0800b210   Section        0  wm__private.o(i.WM__SendMessage)
    i.WM__SendMessageNoPara                  0x0800b24c   Section        0  wm__private.o(i.WM__SendMessageNoPara)
    i.WM__SendMsgNoData                      0x0800b272   Section        0  wm.o(i.WM__SendMsgNoData)
    i.WM__UpdateChildPositions               0x0800b280   Section        0  wm__private.o(i.WM__UpdateChildPositions)
    i._AddFreeMemory                         0x0800b35c   Section        0  gui_alloc.o(i._AddFreeMemory)
    _AddFreeMemory                           0x0800b35d   Thumb Code   140  gui_alloc.o(i._AddFreeMemory)
    i._Alloc                                 0x0800b3ec   Section        0  gui_alloc.o(i._Alloc)
    _Alloc                                   0x0800b3ed   Thumb Code   178  gui_alloc.o(i._Alloc)
    i._BS_Allocate                           0x0800b4a4   Section        0  gui_qr.o(i._BS_Allocate)
    _BS_Allocate                             0x0800b4a5   Thumb Code    46  gui_qr.o(i._BS_Allocate)
    i._BS_Append                             0x0800b4d4   Section        0  gui_qr.o(i._BS_Append)
    _BS_Append                               0x0800b4d5   Thumb Code   100  gui_qr.o(i._BS_Append)
    i._BS_AppendBytes                        0x0800b53c   Section        0  gui_qr.o(i._BS_AppendBytes)
    _BS_AppendBytes                          0x0800b53d   Thumb Code   122  gui_qr.o(i._BS_AppendBytes)
    i._BS_AppendNum                          0x0800b5b6   Section        0  gui_qr.o(i._BS_AppendNum)
    _BS_AppendNum                            0x0800b5b7   Thumb Code   108  gui_qr.o(i._BS_AppendNum)
    i._BS_Create                             0x0800b622   Section        0  gui_qr.o(i._BS_Create)
    _BS_Create                               0x0800b623   Thumb Code    20  gui_qr.o(i._BS_Create)
    i._BS_Delete                             0x0800b636   Section        0  gui_qr.o(i._BS_Delete)
    _BS_Delete                               0x0800b637   Thumb Code    24  gui_qr.o(i._BS_Delete)
    i._BS_ToByte                             0x0800b64e   Section        0  gui_qr.o(i._BS_ToByte)
    _BS_ToByte                               0x0800b64f   Thumb Code   110  gui_qr.o(i._BS_ToByte)
    i._CalcSizeOfChar                        0x0800b6bc   Section        0  gui_uc_encodenone.o(i._CalcSizeOfChar)
    _CalcSizeOfChar                          0x0800b6bd   Thumb Code     4  gui_uc_encodenone.o(i._CalcSizeOfChar)
    i._Calloc                                0x0800b6c0   Section        0  gui_qr.o(i._Calloc)
    _Calloc                                  0x0800b6c1   Thumb Code    16  gui_qr.o(i._Calloc)
    i._Color2IndexBulk                       0x0800b6d0   Section        0  guicc_565.o(i._Color2IndexBulk)
    _Color2IndexBulk                         0x0800b6d1   Thumb Code    48  guicc_565.o(i._Color2IndexBulk)
    i._Color2IndexBulk                       0x0800b708   Section        0  guicc_8888.o(i._Color2IndexBulk)
    _Color2IndexBulk                         0x0800b709   Thumb Code    14  guicc_8888.o(i._Color2IndexBulk)
    i._Color2Index_0                         0x0800b718   Section        0  guicc_0.o(i._Color2Index_0)
    _Color2Index_0                           0x0800b719   Thumb Code    84  guicc_0.o(i._Color2Index_0)
    i._Color2Index_565                       0x0800b76c   Section        0  guicc_565.o(i._Color2Index_565)
    _Color2Index_565                         0x0800b76d   Thumb Code    34  guicc_565.o(i._Color2Index_565)
    i._Color2Index_8888                      0x0800b798   Section        0  guicc_8888.o(i._Color2Index_8888)
    _Color2Index_8888                        0x0800b799   Thumb Code     2  guicc_8888.o(i._Color2Index_8888)
    i._Convert16                             0x0800b79a   Section        0  guidev_writetoactiveopaque.o(i._Convert16)
    _Convert16                               0x0800b79b   Thumb Code    62  guidev_writetoactiveopaque.o(i._Convert16)
    i._Convert8                              0x0800b7d8   Section        0  guidev_writetoactiveopaque.o(i._Convert8)
    _Convert8                                0x0800b7d9   Thumb Code    62  guidev_writetoactiveopaque.o(i._Convert8)
    i._CreateStaticDevice                    0x0800b818   Section        0  guidev_staticdevices.o(i._CreateStaticDevice)
    _CreateStaticDevice                      0x0800b819   Thumb Code   310  guidev_staticdevices.o(i._CreateStaticDevice)
    i._DeleteAllChildren                     0x0800b968   Section        0  wm.o(i._DeleteAllChildren)
    _DeleteAllChildren                       0x0800b969   Thumb Code    18  wm.o(i._DeleteAllChildren)
    i._DesktopHandle2Index                   0x0800b97c   Section        0  wm.o(i._DesktopHandle2Index)
    _DesktopHandle2Index                     0x0800b97d   Thumb Code    28  wm.o(i._DesktopHandle2Index)
    i._DrawBitLine16BPP                      0x0800b99c   Section        0  guidrv_template.o(i._DrawBitLine16BPP)
    _DrawBitLine16BPP                        0x0800b99d   Thumb Code    42  guidrv_template.o(i._DrawBitLine16BPP)
    i._DrawBitLine1BPP                       0x0800b9c8   Section        0  guidrv_template.o(i._DrawBitLine1BPP)
    _DrawBitLine1BPP                         0x0800b9c9   Thumb Code   236  guidrv_template.o(i._DrawBitLine1BPP)
    i._DrawBitLine1BPP                       0x0800bab8   Section        0  guidev_16.o(i._DrawBitLine1BPP)
    _DrawBitLine1BPP                         0x0800bab9   Thumb Code   320  guidev_16.o(i._DrawBitLine1BPP)
    i._DrawBitLine1BPP                       0x0800bc00   Section        0  guidev_32.o(i._DrawBitLine1BPP)
    _DrawBitLine1BPP                         0x0800bc01   Thumb Code   276  guidev_32.o(i._DrawBitLine1BPP)
    i._DrawBitLine2BPP                       0x0800bd1c   Section        0  guidrv_template.o(i._DrawBitLine2BPP)
    _DrawBitLine2BPP                         0x0800bd1d   Thumb Code   358  guidrv_template.o(i._DrawBitLine2BPP)
    i._DrawBitLine2BPP                       0x0800be88   Section        0  guidev_16.o(i._DrawBitLine2BPP)
    _DrawBitLine2BPP                         0x0800be89   Thumb Code   220  guidev_16.o(i._DrawBitLine2BPP)
    i._DrawBitLine2BPP                       0x0800bf68   Section        0  guidev_32.o(i._DrawBitLine2BPP)
    _DrawBitLine2BPP                         0x0800bf69   Thumb Code   218  guidev_32.o(i._DrawBitLine2BPP)
    i._DrawBitLine32BPP                      0x0800c048   Section        0  guidrv_template.o(i._DrawBitLine32BPP)
    _DrawBitLine32BPP                        0x0800c049   Thumb Code    42  guidrv_template.o(i._DrawBitLine32BPP)
    i._DrawBitLine32BPP_DDB                  0x0800c074   Section        0  guidev_32.o(i._DrawBitLine32BPP_DDB)
    _DrawBitLine32BPP_DDB                    0x0800c075   Thumb Code   170  guidev_32.o(i._DrawBitLine32BPP_DDB)
    i._DrawBitLine4BPP                       0x0800c128   Section        0  guidrv_template.o(i._DrawBitLine4BPP)
    _DrawBitLine4BPP                         0x0800c129   Thumb Code   358  guidrv_template.o(i._DrawBitLine4BPP)
    i._DrawBitLine4BPP                       0x0800c294   Section        0  guidev_16.o(i._DrawBitLine4BPP)
    _DrawBitLine4BPP                         0x0800c295   Thumb Code   346  guidev_16.o(i._DrawBitLine4BPP)
    i._DrawBitLine4BPP                       0x0800c3f4   Section        0  guidev_32.o(i._DrawBitLine4BPP)
    _DrawBitLine4BPP                         0x0800c3f5   Thumb Code   340  guidev_32.o(i._DrawBitLine4BPP)
    i._DrawBitLine8BPP                       0x0800c54c   Section        0  guidrv_template.o(i._DrawBitLine8BPP)
    _DrawBitLine8BPP                         0x0800c54d   Thumb Code   170  guidrv_template.o(i._DrawBitLine8BPP)
    i._DrawBitmap                            0x0800c5fc   Section        0  guidrv_template.o(i._DrawBitmap)
    _DrawBitmap                              0x0800c5fd   Thumb Code   250  guidrv_template.o(i._DrawBitmap)
    i._DrawBitmap                            0x0800c6f8   Section        0  guidev_16.o(i._DrawBitmap)
    _DrawBitmap                              0x0800c6f9   Thumb Code   716  guidev_16.o(i._DrawBitmap)
    i._DrawBitmap                            0x0800c9d4   Section        0  guidev_32.o(i._DrawBitmap)
    _DrawBitmap                              0x0800c9d5   Thumb Code   666  guidev_32.o(i._DrawBitmap)
    i._DrawHLine                             0x0800cc7c   Section        0  guidrv_template.o(i._DrawHLine)
    _DrawHLine                               0x0800cc7d   Thumb Code    26  guidrv_template.o(i._DrawHLine)
    i._DrawHLine                             0x0800cc96   Section        0  guidev_16.o(i._DrawHLine)
    _DrawHLine                               0x0800cc97   Thumb Code    10  guidev_16.o(i._DrawHLine)
    i._DrawHLine                             0x0800cca0   Section        0  guidev_32.o(i._DrawHLine)
    _DrawHLine                               0x0800cca1   Thumb Code    10  guidev_32.o(i._DrawHLine)
    i._DrawNext                              0x0800ccac   Section        0  wm.o(i._DrawNext)
    _DrawNext                                0x0800ccad   Thumb Code    82  wm.o(i._DrawNext)
    i._DrawVLine                             0x0800cd08   Section        0  guidrv_template.o(i._DrawVLine)
    _DrawVLine                               0x0800cd09   Thumb Code    26  guidrv_template.o(i._DrawVLine)
    i._DrawVLine                             0x0800cd24   Section        0  guidev_16.o(i._DrawVLine)
    _DrawVLine                               0x0800cd25   Thumb Code   180  guidev_16.o(i._DrawVLine)
    i._DrawVLine                             0x0800cddc   Section        0  guidev_32.o(i._DrawVLine)
    _DrawVLine                               0x0800cddd   Thumb Code   166  guidev_32.o(i._DrawVLine)
    i._Eat8                                  0x0800ce88   Section        0  gui_qr.o(i._Eat8)
    _Eat8                                    0x0800ce89   Thumb Code   172  gui_qr.o(i._Eat8)
    i._EatAn                                 0x0800cf38   Section        0  gui_qr.o(i._EatAn)
    _EatAn                                   0x0800cf39   Thumb Code   202  gui_qr.o(i._EatAn)
    i._EatNum                                0x0800d008   Section        0  gui_qr.o(i._EatNum)
    _EatNum                                  0x0800d009   Thumb Code   162  gui_qr.o(i._EatNum)
    i._Encode                                0x0800d0aa   Section        0  gui_uc_encodenone.o(i._Encode)
    _Encode                                  0x0800d0ab   Thumb Code     6  gui_uc_encodenone.o(i._Encode)
    i._EncodeRSChar                          0x0800d0b0   Section        0  gui_qr.o(i._EncodeRSChar)
    _EncodeRSChar                            0x0800d0b1   Thumb Code   150  gui_qr.o(i._EncodeRSChar)
    i._EncodeString                          0x0800d14c   Section        0  gui_qr.o(i._EncodeString)
    _EncodeString                            0x0800d14d   Thumb Code   106  gui_qr.o(i._EncodeString)
    i._EnlargeBlocks                         0x0800d1b8   Section        0  gui_alloc.o(i._EnlargeBlocks)
    _EnlargeBlocks                           0x0800d1b9   Thumb Code   148  gui_alloc.o(i._EnlargeBlocks)
    i._Exec1Draw                             0x0800d254   Section        0  wm.o(i._Exec1Draw)
    _Exec1Draw                               0x0800d255   Thumb Code    40  wm.o(i._Exec1Draw)
    i._Exec1Input                            0x0800d284   Section        0  wm.o(i._Exec1Input)
    _Exec1Input                              0x0800d285   Thumb Code   108  wm.o(i._Exec1Input)
    i._FRAME_FILLER_Next                     0x0800d2fc   Section        0  gui_qr.o(i._FRAME_FILLER_Next)
    _FRAME_FILLER_Next                       0x0800d2fd   Thumb Code   140  gui_qr.o(i._FRAME_FILLER_Next)
    i._FillRect                              0x0800d388   Section        0  guidrv_template.o(i._FillRect)
    _FillRect                                0x0800d389   Thumb Code    42  guidrv_template.o(i._FillRect)
    i._FillRect                              0x0800d3b8   Section        0  guidev_16.o(i._FillRect)
    _FillRect                                0x0800d3b9   Thumb Code   166  guidev_16.o(i._FillRect)
    i._FillRect                              0x0800d464   Section        0  guidev_32.o(i._FillRect)
    _FillRect                                0x0800d465   Thumb Code   160  guidev_32.o(i._FillRect)
    i._FindNext_IVR                          0x0800d508   Section        0  wm.o(i._FindNext_IVR)
    _FindNext_IVR                            0x0800d509   Thumb Code   318  wm.o(i._FindNext_IVR)
    i._Findx0                                0x0800d650   Section        0  wm.o(i._Findx0)
    _Findx0                                  0x0800d651   Thumb Code   124  wm.o(i._Findx0)
    i._Findx1                                0x0800d6cc   Section        0  wm.o(i._Findx1)
    _Findx1                                  0x0800d6cd   Thumb Code   114  wm.o(i._Findx1)
    i._Findy1                                0x0800d73e   Section        0  wm.o(i._Findy1)
    _Findy1                                  0x0800d73f   Thumb Code   166  wm.o(i._Findy1)
    i._Free                                  0x0800d7e4   Section        0  gui_qr.o(i._Free)
    _Free                                    0x0800d7e5   Thumb Code    28  gui_qr.o(i._Free)
    i._GUI_USAGE_BM_Delete                   0x0800d800   Section        0  guidev_usagebm.o(i._GUI_USAGE_BM_Delete)
    _GUI_USAGE_BM_Delete                     0x0800d801   Thumb Code     4  guidev_usagebm.o(i._GUI_USAGE_BM_Delete)
    i._GetCharCode                           0x0800d804   Section        0  gui_uc_encodenone.o(i._GetCharCode)
    _GetCharCode                             0x0800d805   Thumb Code     4  gui_uc_encodenone.o(i._GetCharCode)
    i._GetCharSize                           0x0800d808   Section        0  gui_uc_encodenone.o(i._GetCharSize)
    _GetCharSize                             0x0800d809   Thumb Code     4  gui_uc_encodenone.o(i._GetCharSize)
    i._GetDevData                            0x0800d80c   Section        0  guidrv_template.o(i._GetDevData)
    _GetDevData                              0x0800d80d   Thumb Code    14  guidrv_template.o(i._GetDevData)
    i._GetDevData                            0x0800d820   Section        0  guidev_16.o(i._GetDevData)
    _GetDevData                              0x0800d821   Thumb Code    12  guidev_16.o(i._GetDevData)
    i._GetDevData                            0x0800d830   Section        0  guidev_32.o(i._GetDevData)
    _GetDevData                              0x0800d831   Thumb Code    12  guidev_32.o(i._GetDevData)
    i._GetDevFunc                            0x0800d840   Section        0  guidrv_template.o(i._GetDevFunc)
    _GetDevFunc                              0x0800d841   Thumb Code    54  guidrv_template.o(i._GetDevFunc)
    i._GetDevFunc                            0x0800d894   Section        0  guidev_16.o(i._GetDevFunc)
    _GetDevFunc                              0x0800d895   Thumb Code    12  guidev_16.o(i._GetDevFunc)
    i._GetDevFunc                            0x0800d8a4   Section        0  guidev_32.o(i._GetDevFunc)
    _GetDevFunc                              0x0800d8a5   Thumb Code    12  guidev_32.o(i._GetDevFunc)
    i._GetDevProp                            0x0800d8b4   Section        0  guidrv_template.o(i._GetDevProp)
    _GetDevProp                              0x0800d8b5   Thumb Code    80  guidrv_template.o(i._GetDevProp)
    i._GetDevProp                            0x0800d904   Section        0  lcd_getex.o(i._GetDevProp)
    _GetDevProp                              0x0800d905   Thumb Code    30  lcd_getex.o(i._GetDevProp)
    i._GetDevProp                            0x0800d922   Section        0  guidev_16.o(i._GetDevProp)
    _GetDevProp                              0x0800d923   Thumb Code    24  guidev_16.o(i._GetDevProp)
    i._GetDevProp                            0x0800d93a   Section        0  guidev_32.o(i._GetDevProp)
    _GetDevProp                              0x0800d93b   Thumb Code    12  guidev_32.o(i._GetDevProp)
    i._GetIndexMask_0                        0x0800d946   Section        0  guicc_0.o(i._GetIndexMask_0)
    _GetIndexMask_0                          0x0800d947   Thumb Code    82  guicc_0.o(i._GetIndexMask_0)
    i._GetIndexMask_565                      0x0800d998   Section        0  guicc_565.o(i._GetIndexMask_565)
    _GetIndexMask_565                        0x0800d999   Thumb Code     6  guicc_565.o(i._GetIndexMask_565)
    i._GetIndexMask_8888                     0x0800d99e   Section        0  guicc_8888.o(i._GetIndexMask_8888)
    _GetIndexMask_8888                       0x0800d99f   Thumb Code     6  guicc_8888.o(i._GetIndexMask_8888)
    i._GetMaxValue                           0x0800d9a4   Section        0  lcd_getex.o(i._GetMaxValue)
    _GetMaxValue                             0x0800d9a5   Thumb Code    30  lcd_getex.o(i._GetMaxValue)
    i._GetMinIndex                           0x0800d9c4   Section        0  gui_alloc.o(i._GetMinIndex)
    _GetMinIndex                             0x0800d9c5   Thumb Code    24  gui_alloc.o(i._GetMinIndex)
    i._GetPixelIndex                         0x0800d9e0   Section        0  guidrv_template.o(i._GetPixelIndex)
    _GetPixelIndex                           0x0800d9e1   Thumb Code    26  guidrv_template.o(i._GetPixelIndex)
    i._GetPixelIndex                         0x0800d9fa   Section        0  guidev_16.o(i._GetPixelIndex)
    _GetPixelIndex                           0x0800d9fb   Thumb Code    14  guidev_16.o(i._GetPixelIndex)
    i._GetPixelIndex                         0x0800da08   Section        0  guidev_32.o(i._GetPixelIndex)
    _GetPixelIndex                           0x0800da09   Thumb Code    14  guidev_32.o(i._GetPixelIndex)
    i._GetRect                               0x0800da16   Section        0  guidrv_template.o(i._GetRect)
    _GetRect                                 0x0800da17   Thumb Code    26  guidrv_template.o(i._GetRect)
    i._GetRect                               0x0800da30   Section        0  guidev_16.o(i._GetRect)
    _GetRect                                 0x0800da31   Thumb Code    52  guidev_16.o(i._GetRect)
    i._GetRect                               0x0800da64   Section        0  guidev_32.o(i._GetRect)
    _GetRect                                 0x0800da65   Thumb Code    52  guidev_32.o(i._GetRect)
    i._GetTaskNo                             0x0800da98   Section        0  gui_task.o(i._GetTaskNo)
    _GetTaskNo                               0x0800da99   Thumb Code    54  gui_task.o(i._GetTaskNo)
    i._IdentifyMode                          0x0800dad4   Section        0  gui_qr.o(i._IdentifyMode)
    _IdentifyMode                            0x0800dad5   Thumb Code    88  gui_qr.o(i._IdentifyMode)
    i._IncPointer                            0x0800db30   Section        0  gui_onkey.o(i._IncPointer)
    _IncPointer                              0x0800db31   Thumb Code    24  gui_onkey.o(i._IncPointer)
    i._IncReadPointer                        0x0800db4c   Section        0  gui_onkey.o(i._IncReadPointer)
    _IncReadPointer                          0x0800db4d   Thumb Code     6  gui_onkey.o(i._IncReadPointer)
    i._Index2ColorBulk                       0x0800db54   Section        0  guicc_565.o(i._Index2ColorBulk)
    _Index2ColorBulk                         0x0800db55   Thumb Code    62  guicc_565.o(i._Index2ColorBulk)
    i._Index2ColorBulk                       0x0800db9c   Section        0  guicc_8888.o(i._Index2ColorBulk)
    _Index2ColorBulk                         0x0800db9d   Thumb Code    14  guicc_8888.o(i._Index2ColorBulk)
    i._Index2Color_0                         0x0800dbaa   Section        0  guicc_0.o(i._Index2Color_0)
    _Index2Color_0                           0x0800dbab   Thumb Code    32  guicc_0.o(i._Index2Color_0)
    i._Init                                  0x0800dbca   Section        0  guidrv_template.o(i._Init)
    _Init                                    0x0800dbcb   Thumb Code    28  guidrv_template.o(i._Init)
    i._InitContext                           0x0800dbe8   Section        0  gui_core.o(i._InitContext)
    _InitContext                             0x0800dbe9   Thumb Code    96  gui_core.o(i._InitContext)
    i._InitOnce                              0x0800dc54   Section        0  guidrv_template.o(i._InitOnce)
    _InitOnce                                0x0800dc55   Thumb Code    44  guidrv_template.o(i._InitOnce)
    i._InitOnce                              0x0800dc80   Section        0  gui_alloc.o(i._InitOnce)
    _InitOnce                                0x0800dc81   Thumb Code   128  gui_alloc.o(i._InitOnce)
    i._InitRS                                0x0800dd04   Section        0  gui_qr.o(i._InitRS)
    _InitRS                                  0x0800dd05   Thumb Code    94  gui_qr.o(i._InitRS)
    i._InitRSChar                            0x0800dd68   Section        0  gui_qr.o(i._InitRSChar)
    _InitRSChar                              0x0800dd69   Thumb Code   384  gui_qr.o(i._InitRSChar)
    i._Invalidate1Abs                        0x0800dee8   Section        0  wm.o(i._Invalidate1Abs)
    _Invalidate1Abs                          0x0800dee9   Thumb Code   138  wm.o(i._Invalidate1Abs)
    i._Log2PhysX                             0x0800df78   Section        0  gui_touch_calibrate.o(i._Log2PhysX)
    _Log2PhysX                               0x0800df79   Thumb Code    76  gui_touch_calibrate.o(i._Log2PhysX)
    i._Log2PhysY                             0x0800dfc8   Section        0  gui_touch_calibrate.o(i._Log2PhysY)
    _Log2PhysY                               0x0800dfc9   Thumb Code    76  gui_touch_calibrate.o(i._Log2PhysY)
    i._Malloc                                0x0800e018   Section        0  gui_qr.o(i._Malloc)
    _Malloc                                  0x0800e019   Thumb Code    14  gui_qr.o(i._Malloc)
    i._Min                                   0x0800e026   Section        0  guidev_banding.o(i._Min)
    _Min                                     0x0800e027   Thumb Code     8  guidev_banding.o(i._Min)
    i._ModNN                                 0x0800e02e   Section        0  gui_qr.o(i._ModNN)
    _ModNN                                   0x0800e02f   Thumb Code    26  gui_qr.o(i._ModNN)
    i._MoveDescendents                       0x0800e048   Section        0  wm_move.o(i._MoveDescendents)
    _MoveDescendents                         0x0800e049   Thumb Code   110  wm_move.o(i._MoveDescendents)
    i._Off                                   0x0800e0b6   Section        0  guidrv_template.o(i._Off)
    _Off                                     0x0800e0b7   Thumb Code    16  guidrv_template.o(i._Off)
    i._On                                    0x0800e0c6   Section        0  guidrv_template.o(i._On)
    _On                                      0x0800e0c7   Thumb Code    16  guidrv_template.o(i._On)
    i._OnExit                                0x0800e0d8   Section        0  gui_core.o(i._OnExit)
    _OnExit                                  0x0800e0d9   Thumb Code    42  gui_core.o(i._OnExit)
    i._OnExit                                0x0800e110   Section        0  gui_task.o(i._OnExit)
    _OnExit                                  0x0800e111   Thumb Code    16  gui_task.o(i._OnExit)
    i._OnExit                                0x0800e124   Section        0  lcd_color.o(i._OnExit)
    _OnExit                                  0x0800e125   Thumb Code    18  lcd_color.o(i._OnExit)
    i._OnExit                                0x0800e13c   Section        0  wm.o(i._OnExit)
    _OnExit                                  0x0800e13d   Thumb Code   112  wm.o(i._OnExit)
    i._OnExit                                0x0800e1c4   Section        0  gui__alpha.o(i._OnExit)
    _OnExit                                  0x0800e1c5   Thumb Code    36  gui__alpha.o(i._OnExit)
    i._Paint1                                0x0800e1ec   Section        0  wm.o(i._Paint1)
    _Paint1                                  0x0800e1ed   Thumb Code    28  wm.o(i._Paint1)
    i._Paint1Trans                           0x0800e210   Section        0  wm.o(i._Paint1Trans)
    _Paint1Trans                             0x0800e211   Thumb Code   130  wm.o(i._Paint1Trans)
    i._PaintTransChildren                    0x0800e29c   Section        0  wm.o(i._PaintTransChildren)
    _PaintTransChildren                      0x0800e29d   Thumb Code   154  wm.o(i._PaintTransChildren)
    i._PopFreeBlock                          0x0800e338   Section        0  gui_alloc.o(i._PopFreeBlock)
    _PopFreeBlock                            0x0800e339   Thumb Code    60  gui_alloc.o(i._PopFreeBlock)
    i._PushFreeBlock                         0x0800e378   Section        0  gui_alloc.o(i._PushFreeBlock)
    _PushFreeBlock                           0x0800e379   Thumb Code    34  gui_alloc.o(i._PushFreeBlock)
    i._QR_CODE_EncodeMask                    0x0800e3a0   Section        0  gui_qr.o(i._QR_CODE_EncodeMask)
    _QR_CODE_EncodeMask                      0x0800e3a1   Thumb Code   404  gui_qr.o(i._QR_CODE_EncodeMask)
    i._QR_CalcN1N3                           0x0800e540   Section        0  gui_qr.o(i._QR_CalcN1N3)
    _QR_CalcN1N3                             0x0800e541   Thumb Code   122  gui_qr.o(i._QR_CalcN1N3)
    i._QR_CalcRunLength                      0x0800e5ba   Section        0  gui_qr.o(i._QR_CalcRunLength)
    _QR_CalcRunLength                        0x0800e5bb   Thumb Code    86  gui_qr.o(i._QR_CalcRunLength)
    i._QR_CreateFrame                        0x0800e610   Section        0  gui_qr.o(i._QR_CreateFrame)
    _QR_CreateFrame                          0x0800e611   Thumb Code    78  gui_qr.o(i._QR_CreateFrame)
    i._QR_CreateFrameSub                     0x0800e66c   Section        0  gui_qr.o(i._QR_CreateFrameSub)
    _QR_CreateFrameSub                       0x0800e66d   Thumb Code   400  gui_qr.o(i._QR_CreateFrameSub)
    i._QR_GetDataLength                      0x0800e808   Section        0  gui_qr.o(i._QR_GetDataLength)
    _QR_GetDataLength                        0x0800e809   Thumb Code    22  gui_qr.o(i._QR_GetDataLength)
    i._QR_GetLengthIndicator                 0x0800e824   Section        0  gui_qr.o(i._QR_GetLengthIndicator)
    _QR_GetLengthIndicator                   0x0800e825   Thumb Code    42  gui_qr.o(i._QR_GetLengthIndicator)
    i._QR_GetMinimumVersion                  0x0800e854   Section        0  gui_qr.o(i._QR_GetMinimumVersion)
    _QR_GetMinimumVersion                    0x0800e855   Thumb Code    42  gui_qr.o(i._QR_GetMinimumVersion)
    i._QR_INPUT_Append                       0x0800e884   Section        0  gui_qr.o(i._QR_INPUT_Append)
    _QR_INPUT_Append                         0x0800e885   Thumb Code    46  gui_qr.o(i._QR_INPUT_Append)
    i._QR_INPUT_AppendPaddingBit             0x0800e8b2   Section        0  gui_qr.o(i._QR_INPUT_AppendPaddingBit)
    _QR_INPUT_AppendPaddingBit               0x0800e8b3   Thumb Code   194  gui_qr.o(i._QR_INPUT_AppendPaddingBit)
    i._QR_INPUT_Check                        0x0800e974   Section        0  gui_qr.o(i._QR_INPUT_Check)
    _QR_INPUT_Check                          0x0800e975   Thumb Code   152  gui_qr.o(i._QR_INPUT_Check)
    i._QR_INPUT_ConvertData                  0x0800ea10   Section        0  gui_qr.o(i._QR_INPUT_ConvertData)
    _QR_INPUT_ConvertData                    0x0800ea11   Thumb Code   144  gui_qr.o(i._QR_INPUT_ConvertData)
    i._QR_INPUT_DecodeECIFromByteArray       0x0800eaa0   Section        0  gui_qr.o(i._QR_INPUT_DecodeECIFromByteArray)
    _QR_INPUT_DecodeECIFromByteArray         0x0800eaa1   Thumb Code    24  gui_qr.o(i._QR_INPUT_DecodeECIFromByteArray)
    i._QR_INPUT_Delete                       0x0800eab8   Section        0  gui_qr.o(i._QR_INPUT_Delete)
    _QR_INPUT_Delete                         0x0800eab9   Thumb Code    34  gui_qr.o(i._QR_INPUT_Delete)
    i._QR_INPUT_EncodeBitStream              0x0800eadc   Section        0  gui_qr.o(i._QR_INPUT_EncodeBitStream)
    _QR_INPUT_EncodeBitStream                0x0800eadd   Thumb Code   348  gui_qr.o(i._QR_INPUT_EncodeBitStream)
    i._QR_INPUT_EncodeMode8                  0x0800ec3c   Section        0  gui_qr.o(i._QR_INPUT_EncodeMode8)
    _QR_INPUT_EncodeMode8                    0x0800ec3d   Thumb Code    88  gui_qr.o(i._QR_INPUT_EncodeMode8)
    i._QR_INPUT_EncodeModeAn                 0x0800ec94   Section        0  gui_qr.o(i._QR_INPUT_EncodeModeAn)
    _QR_INPUT_EncodeModeAn                   0x0800ec95   Thumb Code   196  gui_qr.o(i._QR_INPUT_EncodeModeAn)
    i._QR_INPUT_EncodeModeECI                0x0800ed5c   Section        0  gui_qr.o(i._QR_INPUT_EncodeModeECI)
    _QR_INPUT_EncodeModeECI                  0x0800ed5d   Thumb Code   104  gui_qr.o(i._QR_INPUT_EncodeModeECI)
    i._QR_INPUT_EncodeModeKanji              0x0800edc4   Section        0  gui_qr.o(i._QR_INPUT_EncodeModeKanji)
    _QR_INPUT_EncodeModeKanji                0x0800edc5   Thumb Code   148  gui_qr.o(i._QR_INPUT_EncodeModeKanji)
    i._QR_INPUT_EncodeModeNum                0x0800ee58   Section        0  gui_qr.o(i._QR_INPUT_EncodeModeNum)
    _QR_INPUT_EncodeModeNum                  0x0800ee59   Thumb Code   218  gui_qr.o(i._QR_INPUT_EncodeModeNum)
    i._QR_INPUT_EncodeModeStructure          0x0800ef32   Section        0  gui_qr.o(i._QR_INPUT_EncodeModeStructure)
    _QR_INPUT_EncodeModeStructure            0x0800ef33   Thumb Code    98  gui_qr.o(i._QR_INPUT_EncodeModeStructure)
    i._QR_INPUT_EstimateBitStreamSizeOfEntry 0x0800ef94   Section        0  gui_qr.o(i._QR_INPUT_EstimateBitStreamSizeOfEntry)
    _QR_INPUT_EstimateBitStreamSizeOfEntry   0x0800ef95   Thumb Code   144  gui_qr.o(i._QR_INPUT_EstimateBitStreamSizeOfEntry)
    i._QR_INPUT_EstimateBitsModeAn           0x0800f024   Section        0  gui_qr.o(i._QR_INPUT_EstimateBitsModeAn)
    _QR_INPUT_EstimateBitsModeAn             0x0800f025   Thumb Code    24  gui_qr.o(i._QR_INPUT_EstimateBitsModeAn)
    i._QR_INPUT_EstimateBitsModeNum          0x0800f03c   Section        0  gui_qr.o(i._QR_INPUT_EstimateBitsModeNum)
    _QR_INPUT_EstimateBitsModeNum            0x0800f03d   Thumb Code    36  gui_qr.o(i._QR_INPUT_EstimateBitsModeNum)
    i._QR_INPUT_LIST_CreateEntry             0x0800f060   Section        0  gui_qr.o(i._QR_INPUT_LIST_CreateEntry)
    _QR_INPUT_LIST_CreateEntry               0x0800f061   Thumb Code    78  gui_qr.o(i._QR_INPUT_LIST_CreateEntry)
    i._QR_INPUT_LIST_DeleteEntry             0x0800f0b4   Section        0  gui_qr.o(i._QR_INPUT_LIST_DeleteEntry)
    _QR_INPUT_LIST_DeleteEntry               0x0800f0b5   Thumb Code    30  gui_qr.o(i._QR_INPUT_LIST_DeleteEntry)
    i._QR_INPUT_MergeBitStream               0x0800f0d2   Section        0  gui_qr.o(i._QR_INPUT_MergeBitStream)
    _QR_INPUT_MergeBitStream                 0x0800f0d3   Thumb Code   102  gui_qr.o(i._QR_INPUT_MergeBitStream)
    i._QR_MASK_EvaluateSymbol                0x0800f138   Section        0  gui_qr.o(i._QR_MASK_EvaluateSymbol)
    _QR_MASK_EvaluateSymbol                  0x0800f139   Thumb Code   168  gui_qr.o(i._QR_MASK_EvaluateSymbol)
    i._QR_MASK_WriteFormatInformation        0x0800f1e0   Section        0  gui_qr.o(i._QR_MASK_WriteFormatInformation)
    _QR_MASK_WriteFormatInformation          0x0800f1e1   Thumb Code   126  gui_qr.o(i._QR_MASK_WriteFormatInformation)
    i._QR_Mask                               0x0800f264   Section        0  gui_qr.o(i._QR_Mask)
    _QR_Mask                                 0x0800f265   Thumb Code   156  gui_qr.o(i._QR_Mask)
    i._QR_Mask0                              0x0800f304   Section        0  gui_qr.o(i._QR_Mask0)
    _QR_Mask0                                0x0800f305   Thumb Code    56  gui_qr.o(i._QR_Mask0)
    i._QR_Mask1                              0x0800f33c   Section        0  gui_qr.o(i._QR_Mask1)
    _QR_Mask1                                0x0800f33d   Thumb Code    54  gui_qr.o(i._QR_Mask1)
    i._QR_Mask2                              0x0800f372   Section        0  gui_qr.o(i._QR_Mask2)
    _QR_Mask2                                0x0800f373   Thumb Code    66  gui_qr.o(i._QR_Mask2)
    i._QR_Mask3                              0x0800f3b4   Section        0  gui_qr.o(i._QR_Mask3)
    _QR_Mask3                                0x0800f3b5   Thumb Code    68  gui_qr.o(i._QR_Mask3)
    i._QR_Mask4                              0x0800f3f8   Section        0  gui_qr.o(i._QR_Mask4)
    _QR_Mask4                                0x0800f3f9   Thumb Code    72  gui_qr.o(i._QR_Mask4)
    i._QR_Mask5                              0x0800f440   Section        0  gui_qr.o(i._QR_Mask5)
    _QR_Mask5                                0x0800f441   Thumb Code    82  gui_qr.o(i._QR_Mask5)
    i._QR_Mask6                              0x0800f492   Section        0  gui_qr.o(i._QR_Mask6)
    _QR_Mask6                                0x0800f493   Thumb Code    76  gui_qr.o(i._QR_Mask6)
    i._QR_Mask7                              0x0800f4de   Section        0  gui_qr.o(i._QR_Mask7)
    _QR_Mask7                                0x0800f4df   Thumb Code    76  gui_qr.o(i._QR_Mask7)
    i._QR_PutAlignmentMarker                 0x0800f52c   Section        0  gui_qr.o(i._QR_PutAlignmentMarker)
    _QR_PutAlignmentMarker                   0x0800f52d   Thumb Code    40  gui_qr.o(i._QR_PutAlignmentMarker)
    i._QR_PutAlignmentPattern                0x0800f558   Section        0  gui_qr.o(i._QR_PutAlignmentPattern)
    _QR_PutAlignmentPattern                  0x0800f559   Thumb Code   168  gui_qr.o(i._QR_PutAlignmentPattern)
    i._QR_PutFinderPattern                   0x0800f604   Section        0  gui_qr.o(i._QR_PutFinderPattern)
    _QR_PutFinderPattern                     0x0800f605   Thumb Code    36  gui_qr.o(i._QR_PutFinderPattern)
    i._QR_RAW_Create                         0x0800f62c   Section        0  gui_qr.o(i._QR_RAW_Create)
    _QR_RAW_Create                           0x0800f62d   Thumb Code   286  gui_qr.o(i._QR_RAW_Create)
    i._QR_RAW_Delete                         0x0800f754   Section        0  gui_qr.o(i._QR_RAW_Delete)
    _QR_RAW_Delete                           0x0800f755   Thumb Code    36  gui_qr.o(i._QR_RAW_Delete)
    i._QR_RAW_GetCode                        0x0800f778   Section        0  gui_qr.o(i._QR_RAW_GetCode)
    _QR_RAW_GetCode                          0x0800f779   Thumb Code    96  gui_qr.o(i._QR_RAW_GetCode)
    i._RS_BLOCK_Init                         0x0800f7d8   Section        0  gui_qr.o(i._RS_BLOCK_Init)
    _RS_BLOCK_Init                           0x0800f7d9   Thumb Code   182  gui_qr.o(i._RS_BLOCK_Init)
    i._RS_BLOCK_InitBlock                    0x0800f88e   Section        0  gui_qr.o(i._RS_BLOCK_InitBlock)
    _RS_BLOCK_InitBlock                      0x0800f88f   Thumb Code    26  gui_qr.o(i._RS_BLOCK_InitBlock)
    i._RemoveFreeBlock                       0x0800f8a8   Section        0  gui_alloc.o(i._RemoveFreeBlock)
    _RemoveFreeBlock                         0x0800f8a9   Thumb Code    48  gui_alloc.o(i._RemoveFreeBlock)
    i._RemoveFromLinList                     0x0800f8dc   Section        0  gui_timer.o(i._RemoveFromLinList)
    _RemoveFromLinList                       0x0800f8dd   Thumb Code    88  gui_timer.o(i._RemoveFromLinList)
    i._RemoveHoles                           0x0800f938   Section        0  gui_alloc.o(i._RemoveHoles)
    _RemoveHoles                             0x0800f939   Thumb Code   156  gui_alloc.o(i._RemoveHoles)
    i._SetBkColor                            0x0800f9d8   Section        0  lcd.o(i._SetBkColor)
    _SetBkColor                              0x0800f9d9   Thumb Code    28  lcd.o(i._SetBkColor)
    i._SetClipRectUserIntersect              0x0800f9f8   Section        0  wm.o(i._SetClipRectUserIntersect)
    _SetClipRectUserIntersect                0x0800f9f9   Thumb Code    68  wm.o(i._SetClipRectUserIntersect)
    i._SetColor                              0x0800fa44   Section        0  lcd.o(i._SetColor)
    _SetColor                                0x0800fa45   Thumb Code    28  lcd.o(i._SetColor)
    i._SetDrawMode                           0x0800fa64   Section        0  lcd.o(i._SetDrawMode)
    _SetDrawMode                             0x0800fa65   Thumb Code    40  lcd.o(i._SetDrawMode)
    i._SetLUTEntry                           0x0800fa90   Section        0  guidrv_template.o(i._SetLUTEntry)
    _SetLUTEntry                             0x0800fa91   Thumb Code    32  guidrv_template.o(i._SetLUTEntry)
    i._SetOrg                                0x0800fab0   Section        0  guidrv_template.o(i._SetOrg)
    _SetOrg                                  0x0800fab1   Thumb Code    30  guidrv_template.o(i._SetOrg)
    i._SetOrg                                0x0800face   Section        0  guidev_16.o(i._SetOrg)
    _SetOrg                                  0x0800facf   Thumb Code    14  guidev_16.o(i._SetOrg)
    i._SetOrg                                0x0800fadc   Section        0  guidev_32.o(i._SetOrg)
    _SetOrg                                  0x0800fadd   Thumb Code     8  guidev_32.o(i._SetOrg)
    i._SetPixelIndex                         0x0800fae4   Section        0  guidrv_template.o(i._SetPixelIndex)
    _SetPixelIndex                           0x0800fae5   Thumb Code    26  guidrv_template.o(i._SetPixelIndex)
    i._SetPixelIndex                         0x0800fb00   Section        0  guidev_16.o(i._SetPixelIndex)
    _SetPixelIndex                           0x0800fb01   Thumb Code    66  guidev_16.o(i._SetPixelIndex)
    i._SetPixelIndex                         0x0800fb48   Section        0  guidev_32.o(i._SetPixelIndex)
    _SetPixelIndex                           0x0800fb49   Thumb Code    66  guidev_32.o(i._SetPixelIndex)
    i._SetSize                               0x0800fb90   Section        0  guidrv_template.o(i._SetSize)
    _SetSize                                 0x0800fb91   Thumb Code    62  guidrv_template.o(i._SetSize)
    i._SetVRAMAddr                           0x0800fbce   Section        0  guidrv_template.o(i._SetVRAMAddr)
    _SetVRAMAddr                             0x0800fbcf   Thumb Code    38  guidrv_template.o(i._SetVRAMAddr)
    i._SetVSize                              0x0800fbf4   Section        0  guidrv_template.o(i._SetVSize)
    _SetVSize                                0x0800fbf5   Thumb Code    32  guidrv_template.o(i._SetVSize)
    i._SplitString                           0x0800fc14   Section        0  gui_qr.o(i._SplitString)
    _SplitString                             0x0800fc15   Thumb Code   140  gui_qr.o(i._SplitString)
    i._SplitStringToQRinput                  0x0800fca0   Section        0  gui_qr.o(i._SplitStringToQRinput)
    _SplitStringToQRinput                    0x0800fca1   Thumb Code   132  gui_qr.o(i._SplitStringToQRinput)
    i._Unlink                                0x0800fd28   Section        0  gui_timer.o(i._Unlink)
    _Unlink                                  0x0800fd29   Thumb Code    74  gui_timer.o(i._Unlink)
    i._WriteTagData                          0x0800fd78   Section        0  gui_alloc.o(i._WriteTagData)
    _WriteTagData                            0x0800fd79   Thumb Code    14  gui_alloc.o(i._WriteTagData)
    i._WriteToActiveAlpha                    0x0800fd88   Section        0  guidev_writetoactivealpha.o(i._WriteToActiveAlpha)
    _WriteToActiveAlpha                      0x0800fd89   Thumb Code   372  guidev_writetoactivealpha.o(i._WriteToActiveAlpha)
    i._WriteToActiveOpaque_8                 0x0800ff08   Section        0  guidev_writetoactiveopaque.o(i._WriteToActiveOpaque_8)
    _WriteToActiveOpaque_8                   0x0800ff09   Thumb Code   824  guidev_writetoactiveopaque.o(i._WriteToActiveOpaque_8)
    i._WriteToActiveOpaque_HT                0x08010248   Section        0  guidev_writetoactiveopaque.o(i._WriteToActiveOpaque_HT)
    _WriteToActiveOpaque_HT                  0x08010249   Thumb Code   826  guidev_writetoactiveopaque.o(i._WriteToActiveOpaque_HT)
    i._XY2PTR                                0x0801058c   Section        0  guidev_16.o(i._XY2PTR)
    _XY2PTR                                  0x0801058d   Thumb Code    56  guidev_16.o(i._XY2PTR)
    i._XY2PTR                                0x080105c8   Section        0  guidev_32.o(i._XY2PTR)
    _XY2PTR                                  0x080105c9   Thumb Code    56  guidev_32.o(i._XY2PTR)
    i._XorPixel                              0x08010604   Section        0  guidrv_template.o(i._XorPixel)
    _XorPixel                                0x08010605   Thumb Code    48  guidrv_template.o(i._XorPixel)
    i._XorPixel                              0x08010634   Section        0  guidev_16.o(i._XorPixel)
    _XorPixel                                0x08010635   Thumb Code    78  guidev_16.o(i._XorPixel)
    i._XorPixel                              0x08010688   Section        0  guidev_32.o(i._XorPixel)
    _XorPixel                                0x08010689   Thumb Code    82  guidev_32.o(i._XorPixel)
    i.__NVIC_GetPriorityGrouping             0x080106e0   Section        0  stm32f4xx_hal_cortex.o(i.__NVIC_GetPriorityGrouping)
    __NVIC_GetPriorityGrouping               0x080106e1   Thumb Code    10  stm32f4xx_hal_cortex.o(i.__NVIC_GetPriorityGrouping)
    i.__NVIC_SetPriority                     0x080106f0   Section        0  stm32f4xx_hal_cortex.o(i.__NVIC_SetPriority)
    __NVIC_SetPriority                       0x080106f1   Thumb Code    32  stm32f4xx_hal_cortex.o(i.__NVIC_SetPriority)
    i.__hardfp_sqrt                          0x08010718   Section        0  sqrt.o(i.__hardfp_sqrt)
    i.__scatterload_copy                     0x08010792   Section       14  handlers.o(i.__scatterload_copy)
    i.__scatterload_null                     0x080107a0   Section        2  handlers.o(i.__scatterload_null)
    i.__scatterload_zeroinit                 0x080107a2   Section       14  handlers.o(i.__scatterload_zeroinit)
    i.__set_errno                            0x080107b0   Section        0  errno.o(i.__set_errno)
    i._cbBackWin                             0x080107bc   Section        0  wm.o(i._cbBackWin)
    _cbBackWin                               0x080107bd   Thumb Code    74  wm.o(i._cbBackWin)
    i._cbPaintMemDev                         0x0801080c   Section        0  wm.o(i._cbPaintMemDev)
    _cbPaintMemDev                           0x0801080d   Thumb Code    64  wm.o(i._cbPaintMemDev)
    i.delay_us                               0x08010850   Section        0  common.o(i.delay_us)
    i.emWin_LCD_Init                         0x08010864   Section        0  lcd.o(i.emWin_LCD_Init)
    i.main                                   0x080108fc   Section        0  main.o(i.main)
    i.makeFreeRtosPriority                   0x08010924   Section        0  cmsis_os.o(i.makeFreeRtosPriority)
    makeFreeRtosPriority                     0x08010925   Thumb Code    14  cmsis_os.o(i.makeFreeRtosPriority)
    i.opt_delay                              0x08010932   Section        0  lcd_config.o(i.opt_delay)
    i.osDelay                                0x08010940   Section        0  cmsis_os.o(i.osDelay)
    i.osKernelStart                          0x08010958   Section        0  cmsis_os.o(i.osKernelStart)
    i.osThreadCreate                         0x08010962   Section        0  cmsis_os.o(i.osThreadCreate)
    i.prvAddCurrentTaskToDelayedList         0x080109c0   Section        0  tasks.o(i.prvAddCurrentTaskToDelayedList)
    prvAddCurrentTaskToDelayedList           0x080109c1   Thumb Code   124  tasks.o(i.prvAddCurrentTaskToDelayedList)
    i.prvAddNewTaskToReadyList               0x08010a58   Section        0  tasks.o(i.prvAddNewTaskToReadyList)
    prvAddNewTaskToReadyList                 0x08010a59   Thumb Code   150  tasks.o(i.prvAddNewTaskToReadyList)
    i.prvCheckTasksWaitingTermination        0x08010b0c   Section        0  tasks.o(i.prvCheckTasksWaitingTermination)
    prvCheckTasksWaitingTermination          0x08010b0d   Thumb Code    60  tasks.o(i.prvCheckTasksWaitingTermination)
    i.prvCopyDataToQueue                     0x08010b54   Section        0  queue.o(i.prvCopyDataToQueue)
    prvCopyDataToQueue                       0x08010b55   Thumb Code   124  queue.o(i.prvCopyDataToQueue)
    i.prvDeleteTCB                           0x08010bd0   Section        0  tasks.o(i.prvDeleteTCB)
    prvDeleteTCB                             0x08010bd1   Thumb Code    80  tasks.o(i.prvDeleteTCB)
    i.prvGetDisinheritPriorityAfterTimeout   0x08010c20   Section        0  queue.o(i.prvGetDisinheritPriorityAfterTimeout)
    prvGetDisinheritPriorityAfterTimeout     0x08010c21   Thumb Code    20  queue.o(i.prvGetDisinheritPriorityAfterTimeout)
    i.prvHeapInit                            0x08010c34   Section        0  heap_4.o(i.prvHeapInit)
    prvHeapInit                              0x08010c35   Thumb Code    98  heap_4.o(i.prvHeapInit)
    i.prvIdleTask                            0x08010cb0   Section        0  tasks.o(i.prvIdleTask)
    prvIdleTask                              0x08010cb1   Thumb Code    32  tasks.o(i.prvIdleTask)
    i.prvInitialiseMutex                     0x08010cd8   Section        0  queue.o(i.prvInitialiseMutex)
    prvInitialiseMutex                       0x08010cd9   Thumb Code    28  queue.o(i.prvInitialiseMutex)
    i.prvInitialiseNewQueue                  0x08010cf4   Section        0  queue.o(i.prvInitialiseNewQueue)
    prvInitialiseNewQueue                    0x08010cf5   Thumb Code    38  queue.o(i.prvInitialiseNewQueue)
    i.prvInitialiseNewTask                   0x08010d1a   Section        0  tasks.o(i.prvInitialiseNewTask)
    prvInitialiseNewTask                     0x08010d1b   Thumb Code   170  tasks.o(i.prvInitialiseNewTask)
    i.prvInitialiseTaskLists                 0x08010dc4   Section        0  tasks.o(i.prvInitialiseTaskLists)
    prvInitialiseTaskLists                   0x08010dc5   Thumb Code    70  tasks.o(i.prvInitialiseTaskLists)
    i.prvInsertBlockIntoFreeList             0x08010e2c   Section        0  heap_4.o(i.prvInsertBlockIntoFreeList)
    prvInsertBlockIntoFreeList               0x08010e2d   Thumb Code    96  heap_4.o(i.prvInsertBlockIntoFreeList)
    i.prvIsQueueEmpty                        0x08010e94   Section        0  queue.o(i.prvIsQueueEmpty)
    prvIsQueueEmpty                          0x08010e95   Thumb Code    26  queue.o(i.prvIsQueueEmpty)
    i.prvIsQueueFull                         0x08010eae   Section        0  queue.o(i.prvIsQueueFull)
    prvIsQueueFull                           0x08010eaf   Thumb Code    30  queue.o(i.prvIsQueueFull)
    i.prvResetNextTaskUnblockTime            0x08010ecc   Section        0  tasks.o(i.prvResetNextTaskUnblockTime)
    prvResetNextTaskUnblockTime              0x08010ecd   Thumb Code    42  tasks.o(i.prvResetNextTaskUnblockTime)
    i.prvTaskExitError                       0x08010f00   Section        0  port.o(i.prvTaskExitError)
    prvTaskExitError                         0x08010f01   Thumb Code    60  port.o(i.prvTaskExitError)
    i.prvUnlockQueue                         0x08010f40   Section        0  queue.o(i.prvUnlockQueue)
    prvUnlockQueue                           0x08010f41   Thumb Code   126  queue.o(i.prvUnlockQueue)
    i.pvPortMalloc                           0x08010fc0   Section        0  heap_4.o(i.pvPortMalloc)
    i.pvTaskIncrementMutexHeldCount          0x080110fc   Section        0  tasks.o(i.pvTaskIncrementMutexHeldCount)
    i.pxPortInitialiseStack                  0x0801111c   Section        0  port.o(i.pxPortInitialiseStack)
    i.uxListRemove                           0x08011148   Section        0  list.o(i.uxListRemove)
    i.vApplicationGetIdleTaskMemory          0x08011170   Section        0  freertos.o(i.vApplicationGetIdleTaskMemory)
    i.vListInitialise                        0x08011188   Section        0  list.o(i.vListInitialise)
    i.vListInitialiseItem                    0x080111a2   Section        0  list.o(i.vListInitialiseItem)
    i.vListInsert                            0x080111a8   Section        0  list.o(i.vListInsert)
    i.vListInsertEnd                         0x080111dc   Section        0  list.o(i.vListInsertEnd)
    i.vPortEnterCritical                     0x080111f4   Section        0  port.o(i.vPortEnterCritical)
    i.vPortExitCritical                      0x08011248   Section        0  port.o(i.vPortExitCritical)
    i.vPortFree                              0x08011284   Section        0  heap_4.o(i.vPortFree)
    i.vPortSetupTimerInterrupt               0x08011318   Section        0  port.o(i.vPortSetupTimerInterrupt)
    i.vTaskDelay                             0x08011340   Section        0  tasks.o(i.vTaskDelay)
    i.vTaskInternalSetTimeOutState           0x0801139c   Section        0  tasks.o(i.vTaskInternalSetTimeOutState)
    i.vTaskMissedYield                       0x080113b4   Section        0  tasks.o(i.vTaskMissedYield)
    i.vTaskPlaceOnEventList                  0x080113c0   Section        0  tasks.o(i.vTaskPlaceOnEventList)
    i.vTaskPriorityDisinheritAfterTimeout    0x080113f8   Section        0  tasks.o(i.vTaskPriorityDisinheritAfterTimeout)
    i.vTaskStartScheduler                    0x080114ec   Section        0  tasks.o(i.vTaskStartScheduler)
    i.vTaskSuspendAll                        0x0801159c   Section        0  tasks.o(i.vTaskSuspendAll)
    i.vTaskSwitchContext                     0x080115ac   Section        0  tasks.o(i.vTaskSwitchContext)
    i.xPortStartScheduler                    0x08011638   Section        0  port.o(i.xPortStartScheduler)
    i.xQueueCreateMutex                      0x080117a0   Section        0  queue.o(i.xQueueCreateMutex)
    i.xQueueGenericCreate                    0x080117c2   Section        0  queue.o(i.xQueueGenericCreate)
    i.xQueueGenericReset                     0x08011820   Section        0  queue.o(i.xQueueGenericReset)
    i.xQueueGenericSend                      0x080118b8   Section        0  queue.o(i.xQueueGenericSend)
    i.xQueueSemaphoreTake                    0x08011a60   Section        0  queue.o(i.xQueueSemaphoreTake)
    i.xTaskCheckForTimeOut                   0x08011c18   Section        0  tasks.o(i.xTaskCheckForTimeOut)
    i.xTaskCreate                            0x08011ca4   Section        0  tasks.o(i.xTaskCreate)
    i.xTaskCreateStatic                      0x08011d08   Section        0  tasks.o(i.xTaskCreateStatic)
    i.xTaskGetCurrentTaskHandle              0x08011dc0   Section        0  tasks.o(i.xTaskGetCurrentTaskHandle)
    i.xTaskGetSchedulerState                 0x08011dcc   Section        0  tasks.o(i.xTaskGetSchedulerState)
    i.xTaskGetTickCount                      0x08011dec   Section        0  tasks.o(i.xTaskGetTickCount)
    i.xTaskIncrementTick                     0x08011df8   Section        0  tasks.o(i.xTaskIncrementTick)
    i.xTaskPriorityDisinherit                0x08011f40   Section        0  tasks.o(i.xTaskPriorityDisinherit)
    i.xTaskPriorityInherit                   0x08012008   Section        0  tasks.o(i.xTaskPriorityInherit)
    i.xTaskRemoveFromEventList               0x080120d0   Section        0  tasks.o(i.xTaskRemoveFromEventList)
    i.xTaskResumeAll                         0x08012168   Section        0  tasks.o(i.xTaskResumeAll)
    .constdata                               0x0801226c   Section       52  guidrv_template.o(.constdata)
    .constdata                               0x080122a0   Section       56  freertos.o(.constdata)
    .constdata                               0x080122d8   Section       24  system_stm32f4xx.o(.constdata)
    .constdata                               0x080122f0   Section        8  gui_core.o(.constdata)
    _HL_APIList                              0x080122f0   Data           8  gui_core.o(.constdata)
    .constdata                               0x080122f8   Section     3305  gui_qr.o(.constdata)
    _aQRSpecCapacity                         0x080122f8   Data        1148  gui_qr.o(.constdata)
    _aaQRLengthTableBits                     0x08012774   Data          48  gui_qr.o(.constdata)
    _aAN_Table                               0x080127a4   Data         128  gui_qr.o(.constdata)
    aaaEccTable                              0x08012824   Data        1312  gui_qr.o(.constdata)
    aFinder                                  0x08012d44   Data          25  gui_qr.o(.constdata)
    aaAlignmentPattern                       0x08012d60   Data         328  gui_qr.o(.constdata)
    aVersionPattern                          0x08012ea8   Data         136  gui_qr.o(.constdata)
    aaFormatInfo                             0x08012f30   Data         128  gui_qr.o(.constdata)
    aFinder                                  0x08012fb0   Data          49  gui_qr.o(.constdata)
    .constdata                               0x08012fe4   Section       24  guicc_565.o(.constdata)
    .constdata                               0x08012ffc   Section      116  guidev_16.o(.constdata)
    _aID                                     0x08012ffc   Data          64  guidev_16.o(.constdata)
    .constdata                               0x08013070   Section       32  gui__divtbl.o(.constdata)
    .constdata                               0x08013090   Section       64  gui__divtbl.o(.constdata)
    .constdata                               0x080130d0   Section      256  gui__divtbl.o(.constdata)
    .constdata                               0x080131d0   Section      256  gui__divtbl.o(.constdata)
    .constdata                               0x080132d0   Section       16  gui_uc_encodenone.o(.constdata)
    .constdata                               0x080132e0   Section       12  lcd.o(.constdata)
    _SetColorAPI                             0x080132e0   Data          12  lcd.o(.constdata)
    .constdata                               0x080132ec   Section      256  lcd_mirror.o(.constdata)
    .constdata                               0x080133ec   Section     1304  f6x8.o(.constdata)
    GUI_acFont6x8                            0x080133ec   Data        1304  f6x8.o(.constdata)
    .constdata                               0x08013904   Section      448  f6x8.o(.constdata)
    GUI_F6x8_TL8859_1                        0x08013904   Data         448  f6x8.o(.constdata)
    .constdata                               0x08013ac4   Section        8  f6x8.o(.constdata)
    GUI_F6x8_TI8859_1                        0x08013ac4   Data           8  f6x8.o(.constdata)
    .constdata                               0x08013acc   Section       20  f6x8.o(.constdata)
    GUI_F6x8_Mono                            0x08013acc   Data          20  f6x8.o(.constdata)
    .constdata                               0x08013ae0   Section       36  f6x8.o(.constdata)
    .constdata                               0x08013b04   Section        8  guidev_writetoactiveopaque.o(.constdata)
    .constdata                               0x08013b0c   Section       24  guicc_0.o(.constdata)
    .constdata                               0x08013b24   Section       24  guicc_8888.o(.constdata)
    .constdata                               0x08013b3c   Section      116  guidev_32.o(.constdata)
    aID                                      0x08013b3c   Data          64  guidev_32.o(.constdata)
    .constdata                               0x08013bb0   Section       24  guidev_usagebm.o(.constdata)
    API                                      0x08013bb0   Data          24  guidev_usagebm.o(.constdata)
    .conststring                             0x08013bc8   Section      121  touch.o(.conststring)
    .conststring                             0x08013c44   Section       21  freertos.o(.conststring)
    .data                                    0x20000000   Section        8  gui_x_freertos.o(.data)
    xQueueMutex                              0x20000000   Data           4  gui_x_freertos.o(.data)
    xSemaTxDone                              0x20000004   Data           4  gui_x_freertos.o(.data)
    .data                                    0x20000008   Section       60  touch.o(.data)
    .data                                    0x20000044   Section        4  lcd_config.o(.data)
    .data                                    0x20000048   Section        8  crc.o(.data)
    .data                                    0x20000050   Section        8  freertos.o(.data)
    .data                                    0x20000058   Section        8  fsmc.o(.data)
    FSMC_Initialized                         0x20000058   Data           4  fsmc.o(.data)
    FSMC_DeInitialized                       0x2000005c   Data           4  fsmc.o(.data)
    .data                                    0x20000060   Section        4  system_stm32f4xx.o(.data)
    .data                                    0x20000064   Section        9  stm32f4xx_hal.o(.data)
    .data                                    0x20000070   Section       60  tasks.o(.data)
    pxDelayedTaskList                        0x20000074   Data           4  tasks.o(.data)
    pxOverflowDelayedTaskList                0x20000078   Data           4  tasks.o(.data)
    uxDeletedTasksWaitingCleanUp             0x2000007c   Data           4  tasks.o(.data)
    uxCurrentNumberOfTasks                   0x20000080   Data           4  tasks.o(.data)
    xTickCount                               0x20000084   Data           4  tasks.o(.data)
    uxTopReadyPriority                       0x20000088   Data           4  tasks.o(.data)
    xSchedulerRunning                        0x2000008c   Data           4  tasks.o(.data)
    uxPendedTicks                            0x20000090   Data           4  tasks.o(.data)
    xYieldPending                            0x20000094   Data           4  tasks.o(.data)
    xNumOfOverflows                          0x20000098   Data           4  tasks.o(.data)
    uxTaskNumber                             0x2000009c   Data           4  tasks.o(.data)
    xNextTaskUnblockTime                     0x200000a0   Data           4  tasks.o(.data)
    xIdleTaskHandle                          0x200000a4   Data           4  tasks.o(.data)
    uxSchedulerSuspended                     0x200000a8   Data           4  tasks.o(.data)
    .data                                    0x200000ac   Section       24  heap_4.o(.data)
    xStart                                   0x200000ac   Data           8  heap_4.o(.data)
    pxEnd                                    0x200000b4   Data           4  heap_4.o(.data)
    xFreeBytesRemaining                      0x200000b8   Data           4  heap_4.o(.data)
    xMinimumEverFreeBytesRemaining           0x200000bc   Data           4  heap_4.o(.data)
    xBlockAllocatedBit                       0x200000c0   Data           4  heap_4.o(.data)
    .data                                    0x200000c4   Section       12  port.o(.data)
    uxCriticalNesting                        0x200000c4   Data           4  port.o(.data)
    ucMaxSysCallPriority                     0x200000c8   Data           1  port.o(.data)
    ulMaxPRIGROUPValue                       0x200000cc   Data           4  port.o(.data)
    .data                                    0x200000d0   Section       72  gui_core.o(.data)
    _pFirstExit                              0x20000100   Data           4  gui_core.o(.data)
    _IsInitialized                           0x20000104   Data           4  gui_core.o(.data)
    RegisterExit                             0x20000108   Data           8  gui_core.o(.data)
    .data                                    0x20000118   Section        4  gui_core.o(.data)
    .data                                    0x2000011c   Section        4  gui_core.o(.data)
    .data                                    0x20000120   Section        4  gui_core.o(.data)
    .data                                    0x20000124   Section        4  gui_core.o(.data)
    .data                                    0x20000128   Section        4  gui_core.o(.data)
    .data                                    0x2000012c   Section        2  gui_core.o(.data)
    .data                                    0x2000012e   Section        1  gui_core.o(.data)
    .data                                    0x20000130   Section        4  gui_core.o(.data)
    .data                                    0x20000134   Section        2  gui_core.o(.data)
    .data                                    0x20000136   Section        2  gui_core.o(.data)
    .data                                    0x20000138   Section       36  gui_qr.o(.data)
    _pRSList                                 0x20000138   Data           4  gui_qr.o(.data)
    _apf_QR_MaskGen                          0x2000013c   Data          32  gui_qr.o(.data)
    .data                                    0x2000015c   Section        4  gui_time.o(.data)
    _TimeSlice                               0x2000015c   Data           4  gui_time.o(.data)
    .data                                    0x20000160   Section       56  gui_touch_driveranalog.o(.data)
    Mask                                     0x20000160   Data           1  gui_touch_driveranalog.o(.data)
    ReadState                                0x20000161   Data           1  gui_touch_driveranalog.o(.data)
    IsPressed                                0x20000162   Data           1  gui_touch_driveranalog.o(.data)
    xLast                                    0x20000164   Data           4  gui_touch_driveranalog.o(.data)
    yLast                                    0x20000168   Data           4  gui_touch_driveranalog.o(.data)
    _xPhys                                   0x2000016c   Data           4  gui_touch_driveranalog.o(.data)
    _yPhys                                   0x20000170   Data           4  gui_touch_driveranalog.o(.data)
    _OrientationLog                          0x20000174   Data           4  gui_touch_driveranalog.o(.data)
    axRef                                    0x20000178   Data           8  gui_touch_driveranalog.o(.data)
    ayRef                                    0x20000180   Data           8  gui_touch_driveranalog.o(.data)
    axSample                                 0x20000188   Data           8  gui_touch_driveranalog.o(.data)
    aySample                                 0x20000190   Data           8  gui_touch_driveranalog.o(.data)
    .data                                    0x20000198   Section        8  lcd_getex.o(.data)
    _xSizeDisplay                            0x20000198   Data           4  lcd_getex.o(.data)
    _ySizeDisplay                            0x2000019c   Data           4  lcd_getex.o(.data)
    .data                                    0x200001a0   Section        4  guidev_16.o(.data)
    _pfDrawMemdev16bppFunc                   0x200001a0   Data           4  guidev_16.o(.data)
    .data                                    0x200001a4   Section        4  gui__private.o(.data)
    .data                                    0x200001a8   Section        4  gui__private.o(.data)
    .data                                    0x200001ac   Section       16  gui_onkey.o(.data)
    _pReadKey                                0x200001ac   Data           4  gui_onkey.o(.data)
    _pWriteKey                               0x200001b0   Data           4  gui_onkey.o(.data)
    _Key                                     0x200001b4   Data           4  gui_onkey.o(.data)
    _pfHook                                  0x200001b8   Data           4  gui_onkey.o(.data)
    .data                                    0x200001bc   Section       28  gui_task.o(.data)
    _CurrentTaskNo                           0x200001bc   Data           4  gui_task.o(.data)
    _TaskIDLock                              0x200001c0   Data           4  gui_task.o(.data)
    _MaxTask                                 0x200001c4   Data           4  gui_task.o(.data)
    _pSave                                   0x200001cc   Data           4  gui_task.o(.data)
    RegisterExit                             0x200001d0   Data           8  gui_task.o(.data)
    .data                                    0x200001d8   Section       28  gui_touch_calibrate.o(.data)
    _CoefficientsValid                       0x200001d8   Data           4  gui_touch_calibrate.o(.data)
    _xSize                                   0x200001dc   Data           4  gui_touch_calibrate.o(.data)
    _ySize                                   0x200001e0   Data           4  gui_touch_calibrate.o(.data)
    _xMin                                    0x200001e4   Data           4  gui_touch_calibrate.o(.data)
    _yMin                                    0x200001e8   Data           4  gui_touch_calibrate.o(.data)
    _xMax                                    0x200001ec   Data           4  gui_touch_calibrate.o(.data)
    _yMax                                    0x200001f0   Data           4  gui_touch_calibrate.o(.data)
    .data                                    0x200001f4   Section       12  gui_waitevent.o(.data)
    _pfSignalEvent                           0x200001f4   Data           4  gui_waitevent.o(.data)
    _pfWaitEvent                             0x200001f8   Data           4  gui_waitevent.o(.data)
    _pfWaitEventTimed                        0x200001fc   Data           4  gui_waitevent.o(.data)
    .data                                    0x20000200   Section        4  lcd.o(.data)
    .data                                    0x20000204   Section       20  lcd_color.o(.data)
    _NumColors                               0x20000204   Data           4  lcd_color.o(.data)
    _pfPaletteConversionHook                 0x20000208   Data           4  lcd_color.o(.data)
    RegisterExit                             0x20000210   Data           8  lcd_color.o(.data)
    .data                                    0x20000218   Section      104  wm.o(.data)
    _IsInited                                0x20000219   Data           1  wm.o(.data)
    iWin                                     0x20000220   Data           4  wm.o(.data)
    _NextDrawWin                             0x20000250   Data           4  wm.o(.data)
    _DeleteWindows                           0x20000254   Data           4  wm.o(.data)
    RegisterExit                             0x20000258   Data           8  wm.o(.data)
    .data                                    0x20000280   Section       48  gui__alpha.o(.data)
    _pCurrent                                0x20000288   Data           4  gui__alpha.o(.data)
    _pConvert                                0x2000028c   Data           4  gui__alpha.o(.data)
    _pData                                   0x20000290   Data           4  gui__alpha.o(.data)
    _VXSizeMax                               0x20000294   Data           4  gui__alpha.o(.data)
    _IsInitialized                           0x20000298   Data           4  gui__alpha.o(.data)
    _pfAlphaBlending                         0x2000029c   Data           4  gui__alpha.o(.data)
    RegisterExit                             0x200002a8   Data           8  gui__alpha.o(.data)
    .data                                    0x200002b0   Section       24  gui__managecache.o(.data)
    _pFuncRefreshHook                        0x200002b0   Data           4  gui__managecache.o(.data)
    _pFuncControlHook                        0x200002b4   Data           4  gui__managecache.o(.data)
    RegisterExit                             0x200002b8   Data           8  gui__managecache.o(.data)
    aLockCnt                                 0x200002c0   Data           8  gui__managecache.o(.data)
    .data                                    0x200002c8   Section       20  gui_timer.o(.data)
    _hFirstTimer                             0x200002c8   Data           4  gui_timer.o(.data)
    _hActiveTimer                            0x200002cc   Data           4  gui_timer.o(.data)
    _IsInitialized                           0x200002d0   Data           4  gui_timer.o(.data)
    RegisterExit                             0x200002d4   Data           8  gui_timer.o(.data)
    .data                                    0x200002dc   Section       24  lcd_aa.o(.data)
    _AndMask                                 0x200002dc   Data           4  lcd_aa.o(.data)
    _aGamma                                  0x200002e4   Data          16  lcd_aa.o(.data)
    .data                                    0x200002f4   Section        4  guidev_banding.o(.data)
    _pcbSetAlpha                             0x200002f4   Data           4  guidev_banding.o(.data)
    .data                                    0x200002f8   Section        1  guidev_staticdevices.o(.data)
    _FillByte                                0x200002f8   Data           1  guidev_staticdevices.o(.data)
    .data                                    0x200002fc   Section        4  wm__private.o(.data)
    _EntranceCnt                             0x200002fc   Data           4  wm__private.o(.data)
    .data                                    0x20000300   Section        4  errno.o(.data)
    _errno                                   0x20000300   Data           4  errno.o(.data)
    .bss                                     0x20000304   Section    102400  guiconf.o(.bss)
    aMemory                                  0x20000304   Data       102400  guiconf.o(.bss)
    .bss                                     0x20019304   Section       14  lcd_config.o(.bss)
    .bss                                     0x20019314   Section      596  freertos.o(.bss)
    xIdleTaskTCBBuffer                       0x20019314   Data          84  freertos.o(.bss)
    xIdleStack                               0x20019368   Data         512  freertos.o(.bss)
    .bss                                     0x20019568   Section       80  fsmc.o(.bss)
    .bss                                     0x200195b8   Section       64  stm32f4xx_hal_timebase_tim.o(.bss)
    .bss                                     0x200195f8   Section      240  tasks.o(.bss)
    pxReadyTasksLists                        0x200195f8   Data         140  tasks.o(.bss)
    xDelayedTaskList1                        0x20019684   Data          20  tasks.o(.bss)
    xDelayedTaskList2                        0x20019698   Data          20  tasks.o(.bss)
    xPendingReadyList                        0x200196ac   Data          20  tasks.o(.bss)
    xTasksWaitingTermination                 0x200196c0   Data          20  tasks.o(.bss)
    xSuspendedTaskList                       0x200196d4   Data          20  tasks.o(.bss)
    .bss                                     0x200196e8   Section    15360  heap_4.o(.bss)
    ucHeap                                   0x200196e8   Data       15360  heap_4.o(.bss)
    .bss                                     0x2001d2e8   Section      204  gui_alloc.o(.bss)
    _Config                                  0x2001d3a8   Data          12  gui_alloc.o(.bss)
    .bss                                     0x2001d3b4   Section      112  gui_core.o(.bss)
    GUI__Context                             0x2001d3b4   Data         112  gui_core.o(.bss)
    .bss                                     0x2001d424   Section      164  gui_qr.o(.bss)
    _apQRFrames                              0x2001d424   Data         164  gui_qr.o(.bss)
    .bss                                     0x2001d4c8   Section       88  gui_onkey.o(.bss)
    _aState                                  0x2001d4c8   Data          88  gui_onkey.o(.bss)
    .bss                                     0x2001d520   Section       24  gui_touch_calibrate.o(.bss)
    _aCoefficient                            0x2001d520   Data          24  gui_touch_calibrate.o(.bss)
    .bss                                     0x2001d538   Section       24  wm.o(.bss)
    _ClipContext                             0x2001d538   Data          24  wm.o(.bss)
    .bss                                     0x2001d550   Section       72  wm_touch.o(.bss)
    _aStateLast                              0x2001d550   Data          24  wm_touch.o(.bss)
    STACK                                    0x2001d598   Section     2048  startup_stm32f407xx.o(STACK)

    Global Symbols

    Symbol Name                              Value     Ov Type        Size  Object(Section)

    BuildAttributes$$THM_ISAv4$E$P$D$K$B$S$7EM$VFPi3$EXTD16$VFPS$VFMA$PE$A:L22UL41UL21$X:L11$S22US41US21$IEEE1$IW$USESV6$~STKCKD$USESV7$~SHL$OTIME$ROPI$IEEEJ$EBA8$MICROLIB$REQ8$PRES8$EABIv2 0x00000000   Number         0  anon$$obj.o ABSOLUTE
    __ARM_use_no_argv                        0x00000000   Number         0  main.o ABSOLUTE
    __cpp_initialize__aeabi_                  - Undefined Weak Reference
    __cxa_finalize                            - Undefined Weak Reference
    _clock_init                               - Undefined Weak Reference
    _microlib_exit                            - Undefined Weak Reference
    __Vectors_Size                           0x00000188   Number         0  startup_stm32f407xx.o ABSOLUTE
    __Vectors                                0x08000000   Data           4  startup_stm32f407xx.o(RESET)
    __Vectors_End                            0x08000188   Data           0  startup_stm32f407xx.o(RESET)
    __main                                   0x08000189   Thumb Code     0  entry.o(.ARM.Collect$$$$00000000)
    _main_stk                                0x08000189   Thumb Code     0  entry2.o(.ARM.Collect$$$$00000001)
    _main_scatterload                        0x0800018d   Thumb Code     0  entry5.o(.ARM.Collect$$$$00000004)
    __main_after_scatterload                 0x08000191   Thumb Code     0  entry5.o(.ARM.Collect$$$$00000004)
    _main_clock                              0x08000191   Thumb Code     0  entry7b.o(.ARM.Collect$$$$00000008)
    _main_cpp_init                           0x08000191   Thumb Code     0  entry8b.o(.ARM.Collect$$$$0000000A)
    _main_init                               0x08000191   Thumb Code     0  entry9a.o(.ARM.Collect$$$$0000000B)
    __rt_final_cpp                           0x08000199   Thumb Code     0  entry10a.o(.ARM.Collect$$$$0000000D)
    __rt_final_exit                          0x08000199   Thumb Code     0  entry11a.o(.ARM.Collect$$$$0000000F)
    SVC_Handler                              0x0800019d   Thumb Code    28  port.o(.emb_text)
    __asm___6_port_c_39a90d8d__prvStartFirstTask 0x080001bd   Thumb Code    36  port.o(.emb_text)
    __asm___6_port_c_39a90d8d__prvEnableVFP  0x080001e5   Thumb Code    16  port.o(.emb_text)
    PendSV_Handler                           0x080001f9   Thumb Code    88  port.o(.emb_text)
    vPortGetIPSR                             0x08000255   Thumb Code     6  port.o(.emb_text)
    Reset_Handler                            0x0800025d   Thumb Code     8  startup_stm32f407xx.o(.text)
    ADC_IRQHandler                           0x08000277   Thumb Code     0  startup_stm32f407xx.o(.text)
    CAN1_RX0_IRQHandler                      0x08000277   Thumb Code     0  startup_stm32f407xx.o(.text)
    CAN1_RX1_IRQHandler                      0x08000277   Thumb Code     0  startup_stm32f407xx.o(.text)
    CAN1_SCE_IRQHandler                      0x08000277   Thumb Code     0  startup_stm32f407xx.o(.text)
    CAN1_TX_IRQHandler                       0x08000277   Thumb Code     0  startup_stm32f407xx.o(.text)
    CAN2_RX0_IRQHandler                      0x08000277   Thumb Code     0  startup_stm32f407xx.o(.text)
    CAN2_RX1_IRQHandler                      0x08000277   Thumb Code     0  startup_stm32f407xx.o(.text)
    CAN2_SCE_IRQHandler                      0x08000277   Thumb Code     0  startup_stm32f407xx.o(.text)
    CAN2_TX_IRQHandler                       0x08000277   Thumb Code     0  startup_stm32f407xx.o(.text)
    DCMI_IRQHandler                          0x08000277   Thumb Code     0  startup_stm32f407xx.o(.text)
    DMA1_Stream0_IRQHandler                  0x08000277   Thumb Code     0  startup_stm32f407xx.o(.text)
    DMA1_Stream1_IRQHandler                  0x08000277   Thumb Code     0  startup_stm32f407xx.o(.text)
    DMA1_Stream2_IRQHandler                  0x08000277   Thumb Code     0  startup_stm32f407xx.o(.text)
    DMA1_Stream3_IRQHandler                  0x08000277   Thumb Code     0  startup_stm32f407xx.o(.text)
    DMA1_Stream4_IRQHandler                  0x08000277   Thumb Code     0  startup_stm32f407xx.o(.text)
    DMA1_Stream5_IRQHandler                  0x08000277   Thumb Code     0  startup_stm32f407xx.o(.text)
    DMA1_Stream6_IRQHandler                  0x08000277   Thumb Code     0  startup_stm32f407xx.o(.text)
    DMA1_Stream7_IRQHandler                  0x08000277   Thumb Code     0  startup_stm32f407xx.o(.text)
    DMA2_Stream0_IRQHandler                  0x08000277   Thumb Code     0  startup_stm32f407xx.o(.text)
    DMA2_Stream1_IRQHandler                  0x08000277   Thumb Code     0  startup_stm32f407xx.o(.text)
    DMA2_Stream2_IRQHandler                  0x08000277   Thumb Code     0  startup_stm32f407xx.o(.text)
    DMA2_Stream3_IRQHandler                  0x08000277   Thumb Code     0  startup_stm32f407xx.o(.text)
    DMA2_Stream4_IRQHandler                  0x08000277   Thumb Code     0  startup_stm32f407xx.o(.text)
    DMA2_Stream5_IRQHandler                  0x08000277   Thumb Code     0  startup_stm32f407xx.o(.text)
    DMA2_Stream6_IRQHandler                  0x08000277   Thumb Code     0  startup_stm32f407xx.o(.text)
    DMA2_Stream7_IRQHandler                  0x08000277   Thumb Code     0  startup_stm32f407xx.o(.text)
    ETH_IRQHandler                           0x08000277   Thumb Code     0  startup_stm32f407xx.o(.text)
    ETH_WKUP_IRQHandler                      0x08000277   Thumb Code     0  startup_stm32f407xx.o(.text)
    EXTI0_IRQHandler                         0x08000277   Thumb Code     0  startup_stm32f407xx.o(.text)
    EXTI15_10_IRQHandler                     0x08000277   Thumb Code     0  startup_stm32f407xx.o(.text)
    EXTI1_IRQHandler                         0x08000277   Thumb Code     0  startup_stm32f407xx.o(.text)
    EXTI2_IRQHandler                         0x08000277   Thumb Code     0  startup_stm32f407xx.o(.text)
    EXTI3_IRQHandler                         0x08000277   Thumb Code     0  startup_stm32f407xx.o(.text)
    EXTI4_IRQHandler                         0x08000277   Thumb Code     0  startup_stm32f407xx.o(.text)
    EXTI9_5_IRQHandler                       0x08000277   Thumb Code     0  startup_stm32f407xx.o(.text)
    FLASH_IRQHandler                         0x08000277   Thumb Code     0  startup_stm32f407xx.o(.text)
    FMC_IRQHandler                           0x08000277   Thumb Code     0  startup_stm32f407xx.o(.text)
    FPU_IRQHandler                           0x08000277   Thumb Code     0  startup_stm32f407xx.o(.text)
    HASH_RNG_IRQHandler                      0x08000277   Thumb Code     0  startup_stm32f407xx.o(.text)
    I2C1_ER_IRQHandler                       0x08000277   Thumb Code     0  startup_stm32f407xx.o(.text)
    I2C1_EV_IRQHandler                       0x08000277   Thumb Code     0  startup_stm32f407xx.o(.text)
    I2C2_ER_IRQHandler                       0x08000277   Thumb Code     0  startup_stm32f407xx.o(.text)
    I2C2_EV_IRQHandler                       0x08000277   Thumb Code     0  startup_stm32f407xx.o(.text)
    I2C3_ER_IRQHandler                       0x08000277   Thumb Code     0  startup_stm32f407xx.o(.text)
    I2C3_EV_IRQHandler                       0x08000277   Thumb Code     0  startup_stm32f407xx.o(.text)
    OTG_FS_IRQHandler                        0x08000277   Thumb Code     0  startup_stm32f407xx.o(.text)
    OTG_FS_WKUP_IRQHandler                   0x08000277   Thumb Code     0  startup_stm32f407xx.o(.text)
    OTG_HS_EP1_IN_IRQHandler                 0x08000277   Thumb Code     0  startup_stm32f407xx.o(.text)
    OTG_HS_EP1_OUT_IRQHandler                0x08000277   Thumb Code     0  startup_stm32f407xx.o(.text)
    OTG_HS_IRQHandler                        0x08000277   Thumb Code     0  startup_stm32f407xx.o(.text)
    OTG_HS_WKUP_IRQHandler                   0x08000277   Thumb Code     0  startup_stm32f407xx.o(.text)
    PVD_IRQHandler                           0x08000277   Thumb Code     0  startup_stm32f407xx.o(.text)
    RCC_IRQHandler                           0x08000277   Thumb Code     0  startup_stm32f407xx.o(.text)
    RTC_Alarm_IRQHandler                     0x08000277   Thumb Code     0  startup_stm32f407xx.o(.text)
    RTC_WKUP_IRQHandler                      0x08000277   Thumb Code     0  startup_stm32f407xx.o(.text)
    SDIO_IRQHandler                          0x08000277   Thumb Code     0  startup_stm32f407xx.o(.text)
    SPI1_IRQHandler                          0x08000277   Thumb Code     0  startup_stm32f407xx.o(.text)
    SPI2_IRQHandler                          0x08000277   Thumb Code     0  startup_stm32f407xx.o(.text)
    SPI3_IRQHandler                          0x08000277   Thumb Code     0  startup_stm32f407xx.o(.text)
    TAMP_STAMP_IRQHandler                    0x08000277   Thumb Code     0  startup_stm32f407xx.o(.text)
    TIM1_BRK_TIM9_IRQHandler                 0x08000277   Thumb Code     0  startup_stm32f407xx.o(.text)
    TIM1_CC_IRQHandler                       0x08000277   Thumb Code     0  startup_stm32f407xx.o(.text)
    TIM1_TRG_COM_TIM11_IRQHandler            0x08000277   Thumb Code     0  startup_stm32f407xx.o(.text)
    TIM1_UP_TIM10_IRQHandler                 0x08000277   Thumb Code     0  startup_stm32f407xx.o(.text)
    TIM3_IRQHandler                          0x08000277   Thumb Code     0  startup_stm32f407xx.o(.text)
    TIM4_IRQHandler                          0x08000277   Thumb Code     0  startup_stm32f407xx.o(.text)
    TIM5_IRQHandler                          0x08000277   Thumb Code     0  startup_stm32f407xx.o(.text)
    TIM6_DAC_IRQHandler                      0x08000277   Thumb Code     0  startup_stm32f407xx.o(.text)
    TIM7_IRQHandler                          0x08000277   Thumb Code     0  startup_stm32f407xx.o(.text)
    TIM8_BRK_TIM12_IRQHandler                0x08000277   Thumb Code     0  startup_stm32f407xx.o(.text)
    TIM8_CC_IRQHandler                       0x08000277   Thumb Code     0  startup_stm32f407xx.o(.text)
    TIM8_TRG_COM_TIM14_IRQHandler            0x08000277   Thumb Code     0  startup_stm32f407xx.o(.text)
    TIM8_UP_TIM13_IRQHandler                 0x08000277   Thumb Code     0  startup_stm32f407xx.o(.text)
    UART4_IRQHandler                         0x08000277   Thumb Code     0  startup_stm32f407xx.o(.text)
    UART5_IRQHandler                         0x08000277   Thumb Code     0  startup_stm32f407xx.o(.text)
    USART1_IRQHandler                        0x08000277   Thumb Code     0  startup_stm32f407xx.o(.text)
    USART2_IRQHandler                        0x08000277   Thumb Code     0  startup_stm32f407xx.o(.text)
    USART3_IRQHandler                        0x08000277   Thumb Code     0  startup_stm32f407xx.o(.text)
    USART6_IRQHandler                        0x08000277   Thumb Code     0  startup_stm32f407xx.o(.text)
    WWDG_IRQHandler                          0x08000277   Thumb Code     0  startup_stm32f407xx.o(.text)
    __aeabi_uldivmod                         0x08000281   Thumb Code    98  uldiv.o(.text)
    ____aeabi_memcpy8$ret$move               0x080002e3   Thumb Code     0  memmove.o(.text)
    ___aeabi_memmove4$ret                    0x080002e3   Thumb Code     0  memmove.o(.text)
    ___aeabi_memmove8$ret                    0x080002e3   Thumb Code     0  memmove.o(.text)
    __aeabi_memcpy                           0x080002e3   Thumb Code    66  memmove.o(.text)
    __aeabi_memcpy4                          0x080002e3   Thumb Code     0  memmove.o(.text)
    __aeabi_memmove                          0x080002e3   Thumb Code     0  memmove.o(.text)
    memcpy                                   0x080002e3   Thumb Code     0  memmove.o(.text)
    memmove                                  0x080002e3   Thumb Code     0  memmove.o(.text)
    __aeabi_memset                           0x08000325   Thumb Code    14  memseta.o(.text)
    __aeabi_memset4                          0x08000325   Thumb Code     0  memseta.o(.text)
    __aeabi_memset8                          0x08000325   Thumb Code     0  memseta.o(.text)
    __aeabi_memclr                           0x08000333   Thumb Code     4  memseta.o(.text)
    __aeabi_memclr4                          0x08000333   Thumb Code     0  memseta.o(.text)
    __aeabi_memclr8                          0x08000333   Thumb Code     0  memseta.o(.text)
    memset                                   0x08000337   Thumb Code    18  memseta.o(.text)
    strlen                                   0x08000349   Thumb Code    14  strlen.o(.text)
    __aeabi_dmul                             0x08000357   Thumb Code   228  dmul.o(.text)
    __aeabi_ui2d                             0x0800043b   Thumb Code    26  dfltui.o(.text)
    __aeabi_d2uiz                            0x08000455   Thumb Code    50  dfixui.o(.text)
    __aeabi_f2d                              0x08000487   Thumb Code    38  f2d.o(.text)
    __aeabi_cdcmpeq                          0x080004ad   Thumb Code     0  cdcmple.o(.text)
    __aeabi_cdcmple                          0x080004ad   Thumb Code    48  cdcmple.o(.text)
    __aeabi_cdrcmple                         0x080004dd   Thumb Code    48  cdrcmple.o(.text)
    __aeabi_llsl                             0x0800050d   Thumb Code    30  llshl.o(.text)
    _ll_shift_l                              0x0800050d   Thumb Code     0  llshl.o(.text)
    __aeabi_llsr                             0x0800052b   Thumb Code    32  llushr.o(.text)
    _ll_ushift_r                             0x0800052b   Thumb Code     0  llushr.o(.text)
    __I$use$fp                               0x0800054b   Thumb Code     0  iusefp.o(.text)
    _double_round                            0x0800054b   Thumb Code    30  depilogue.o(.text)
    _double_epilogue                         0x08000569   Thumb Code   156  depilogue.o(.text)
    _dsqrt                                   0x08000605   Thumb Code   162  dsqrt.o(.text)
    __scatterload                            0x080006a9   Thumb Code    28  init.o(.text)
    __scatterload_rt2                        0x080006a9   Thumb Code     0  init.o(.text)
    __decompress                             0x080006cd   Thumb Code     0  __dczerorl2.o(.text)
    __decompress1                            0x080006cd   Thumb Code    86  __dczerorl2.o(.text)
    AT24CXX_Init                             0x08000723   Thumb Code     8  24cxx.o(i.AT24CXX_Init)
    AT24CXX_ReadLenByte                      0x0800072b   Thumb Code    44  24cxx.o(i.AT24CXX_ReadLenByte)
    AT24CXX_ReadOneByte                      0x08000757   Thumb Code    88  24cxx.o(i.AT24CXX_ReadOneByte)
    AT24CXX_WriteLenByte                     0x080007af   Thumb Code    42  24cxx.o(i.AT24CXX_WriteLenByte)
    AT24CXX_WriteOneByte                     0x080007d9   Thumb Code    80  24cxx.o(i.AT24CXX_WriteOneByte)
    BusFault_Handler                         0x08000829   Thumb Code     4  stm32f4xx_it.o(i.BusFault_Handler)
    DebugMon_Handler                         0x0800082d   Thumb Code     2  stm32f4xx_it.o(i.DebugMon_Handler)
    Error_Handler                            0x0800082f   Thumb Code     2  main.o(i.Error_Handler)
    FSMC_NORSRAM_Extended_Timing_Init        0x08000831   Thumb Code    66  stm32f4xx_ll_fsmc.o(i.FSMC_NORSRAM_Extended_Timing_Init)
    FSMC_NORSRAM_Init                        0x08000879   Thumb Code    88  stm32f4xx_ll_fsmc.o(i.FSMC_NORSRAM_Init)
    FSMC_NORSRAM_Timing_Init                 0x080008d5   Thumb Code    68  stm32f4xx_ll_fsmc.o(i.FSMC_NORSRAM_Timing_Init)
    GL_DrawBitmap                            0x08000919   Thumb Code   146  gui_drawbitmap.o(i.GL_DrawBitmap)
    GL_SetDefault                            0x080009b5   Thumb Code    60  gui_common.o(i.GL_SetDefault)
    GUIMONO_DispChar                         0x080009fd   Thumb Code   302  gui_charm.o(i.GUIMONO_DispChar)
    GUIMONO_GetCharDistX                     0x08000b31   Thumb Code    18  gui_charm.o(i.GUIMONO_GetCharDistX)
    GUIMONO_GetFontInfo                      0x08000b49   Thumb Code     6  gui_charm.o(i.GUIMONO_GetFontInfo)
    GUIMONO_IsInFont                         0x08000b4f   Thumb Code    56  gui_charm.o(i.GUIMONO_IsInFont)
    GUITASK_CopyContext                      0x08000b89   Thumb Code    90  gui_task.o(i.GUITASK_CopyContext)
    GUITASK_Init                             0x08000bed   Thumb Code    62  gui_task.o(i.GUITASK_Init)
    GUI_ALLOC_AllocNoInit                    0x08000c39   Thumb Code    30  gui_alloc.o(i.GUI_ALLOC_AllocNoInit)
    GUI_ALLOC_AllocZero                      0x08000c59   Thumb Code    48  gui_alloc.o(i.GUI_ALLOC_AllocZero)
    GUI_ALLOC_AssignMemory                   0x08000c8d   Thumb Code    12  gui_alloc.o(i.GUI_ALLOC_AssignMemory)
    GUI_ALLOC_Free                           0x08000c9d   Thumb Code    44  gui_alloc.o(i.GUI_ALLOC_Free)
    GUI_ALLOC_FreeFixedBlock                 0x08000ccd   Thumb Code    18  gui_alloc.o(i.GUI_ALLOC_FreeFixedBlock)
    GUI_ALLOC_GetFixedBlock                  0x08000ce5   Thumb Code   170  gui_alloc.o(i.GUI_ALLOC_GetFixedBlock)
    GUI_ALLOC_GetMaxSize                     0x08000d95   Thumb Code    58  gui_alloc.o(i.GUI_ALLOC_GetMaxSize)
    GUI_ALLOC_Lock                           0x08000dd5   Thumb Code    10  gui_alloc.o(i.GUI_ALLOC_Lock)
    GUI_ALLOC_LockH                          0x08000de5   Thumb Code    24  gui_alloc.o(i.GUI_ALLOC_LockH)
    GUI_ALLOC_RequestSize                    0x08000e01   Thumb Code    46  gui_alloc.o(i.GUI_ALLOC_RequestSize)
    GUI_ALLOC_SetAvBlockSize                 0x08000e35   Thumb Code    24  gui_alloc.o(i.GUI_ALLOC_SetAvBlockSize)
    GUI_ALLOC_Unlock                         0x08000e51   Thumb Code    10  gui_alloc.o(i.GUI_ALLOC_Unlock)
    GUI_ALLOC_UnlockH                        0x08000e61   Thumb Code    42  gui_alloc.o(i.GUI_ALLOC_UnlockH)
    GUI_ALLOC_h2p                            0x08000e91   Thumb Code    16  gui_alloc.o(i.GUI_ALLOC_h2p)
    GUI_ALLOC_p2h                            0x08000ea5   Thumb Code     6  gui_alloc.o(i.GUI_ALLOC_p2h)
    GUI_CalcColorDist                        0x08000eab   Thumb Code    60  gui_common.o(i.GUI_CalcColorDist)
    GUI_Clear                                0x08000ee7   Thumb Code    28  gui_core.o(i.GUI_Clear)
    GUI_ClearRect                            0x08000f05   Thumb Code    98  gui_core.o(i.GUI_ClearRect)
    GUI_DEVICE_Create                        0x08000f6d   Thumb Code    76  gui_device.o(i.GUI_DEVICE_Create)
    GUI_DEVICE_CreateAndLink                 0x08000fbd   Thumb Code    36  gui_device.o(i.GUI_DEVICE_CreateAndLink)
    GUI_DEVICE_Delete                        0x08000fe5   Thumb Code     4  gui_device.o(i.GUI_DEVICE_Delete)
    GUI_DEVICE_Link                          0x08000fe9   Thumb Code   142  gui_device.o(i.GUI_DEVICE_Link)
    GUI_DEVICE_LinkDevices                   0x08001081   Thumb Code    18  gui_device.o(i.GUI_DEVICE_LinkDevices)
    GUI_DEVICE_Unlink                        0x08001095   Thumb Code    50  gui_device.o(i.GUI_DEVICE_Unlink)
    GUI_DEVICE_UnlinkTaskDevices             0x080010cd   Thumb Code     4  gui_device.o(i.GUI_DEVICE_UnlinkTaskDevices)
    GUI_DEVICE__GetpDriver                   0x080010d1   Thumb Code    32  gui_device.o(i.GUI_DEVICE__GetpDriver)
    GUI_Delay                                0x080010f5   Thumb Code   102  gui_time.o(i.GUI_Delay)
    GUI_DrawBitmap                           0x08001165   Thumb Code    84  gui_drawbitmap.o(i.GUI_DrawBitmap)
    GUI_Exec                                 0x080011bd   Thumb Code    20  gui_common.o(i.GUI_Exec)
    GUI_Exec1                                0x080011d1   Thumb Code    48  gui_common.o(i.GUI_Exec1)
    GUI_GetBitsPerPixelEx                    0x0800120d   Thumb Code    14  lcd_getex.o(i.GUI_GetBitsPerPixelEx)
    GUI_GetOrg                               0x08001221   Thumb Code    26  gui_common.o(i.GUI_GetOrg)
    GUI_GetpfColor2IndexEx                   0x0800123d   Thumb Code    12  lcd_getex.o(i.GUI_GetpfColor2IndexEx)
    GUI_GetpfIndex2ColorEx                   0x0800124d   Thumb Code    12  lcd_getex.o(i.GUI_GetpfIndex2ColorEx)
    GUI_GotoXY                               0x0800125d   Thumb Code    26  gui_common.o(i.GUI_GotoXY)
    GUI_Init                                 0x0800127d   Thumb Code   124  gui_core.o(i.GUI_Init)
    GUI_Lock                                 0x08001311   Thumb Code    98  gui_task.o(i.GUI_Lock)
    GUI_MEMDEV_Clear                         0x0800137d   Thumb Code    64  guidev_clear.o(i.GUI_MEMDEV_Clear)
    GUI_MEMDEV_CopyToLCD                     0x080013c1   Thumb Code     8  guidev.o(i.GUI_MEMDEV_CopyToLCD)
    GUI_MEMDEV_CopyToLCDAt                   0x080013cd   Thumb Code   164  guidev.o(i.GUI_MEMDEV_CopyToLCDAt)
    GUI_MEMDEV_CreateEx                      0x08001475   Thumb Code   118  guidev.o(i.GUI_MEMDEV_CreateEx)
    GUI_MEMDEV_Delete                        0x080014f9   Thumb Code    66  guidev.o(i.GUI_MEMDEV_Delete)
    GUI_MEMDEV_Draw                          0x08001541   Thumb Code   332  guidev_banding.o(i.GUI_MEMDEV_Draw)
    GUI_MEMDEV_GetBitsPerPixel               0x08001699   Thumb Code    50  guidev.o(i.GUI_MEMDEV_GetBitsPerPixel)
    GUI_MEMDEV_GetDataPtr                    0x080016cb   Thumb Code    40  guidev_getdataptr.o(i.GUI_MEMDEV_GetDataPtr)
    GUI_MEMDEV_GetYSize                      0x080016f5   Thumb Code    46  guidev_getysize.o(i.GUI_MEMDEV_GetYSize)
    GUI_MEMDEV_Paint1Static                  0x08001729   Thumb Code    30  guidev_staticdevices.o(i.GUI_MEMDEV_Paint1Static)
    GUI_MEMDEV_ReduceYSize                   0x08001749   Thumb Code    52  guidev_reduceysize.o(i.GUI_MEMDEV_ReduceYSize)
    GUI_MEMDEV_Select                        0x08001781   Thumb Code    74  guidev.o(i.GUI_MEMDEV_Select)
    GUI_MEMDEV_SetOrg                        0x080017d1   Thumb Code    96  guidev_setorg.o(i.GUI_MEMDEV_SetOrg)
    GUI_MEMDEV_Write                         0x08001835   Thumb Code     8  guidev_write.o(i.GUI_MEMDEV_Write)
    GUI_MEMDEV_WriteAt                       0x08001841   Thumb Code   104  guidev_write.o(i.GUI_MEMDEV_WriteAt)
    GUI_MEMDEV__CreateFixed                  0x080018a9   Thumb Code   238  guidev.o(i.GUI_MEMDEV__CreateFixed)
    GUI_MEMDEV__WriteToActiveAlpha           0x0800199d   Thumb Code    22  guidev_writetoactivealpha.o(i.GUI_MEMDEV__WriteToActiveAlpha)
    GUI_MEMDEV__WriteToActiveAt              0x080019bd   Thumb Code    48  guidev.o(i.GUI_MEMDEV__WriteToActiveAt)
    GUI_MEMDEV__WriteToActiveOpaque          0x080019ed   Thumb Code    62  guidev_writetoactiveopaque.o(i.GUI_MEMDEV__WriteToActiveOpaque)
    GUI_MergeRect                            0x08001a2b   Thumb Code    88  gui_common.o(i.GUI_MergeRect)
    GUI_MoveRect                             0x08001a83   Thumb Code    30  gui_common.o(i.GUI_MoveRect)
    GUI_PollKeyMsg                           0x08001aa1   Thumb Code    48  gui_onkey.o(i.GUI_PollKeyMsg)
    GUI_QR_Create                            0x08001ad5   Thumb Code   380  gui_qr.o(i.GUI_QR_Create)
    GUI_QR_Delete                            0x08001c59   Thumb Code    10  gui_qr.o(i.GUI_QR_Delete)
    GUI_QR_Draw                              0x08001c63   Thumb Code    60  gui_qr.o(i.GUI_QR_Draw)
    GUI_ReadRectEx                           0x08001ca1   Thumb Code    92  lcd_readrect.o(i.GUI_ReadRectEx)
    GUI_RectsIntersect                       0x08001d01   Thumb Code    56  gui_common.o(i.GUI_RectsIntersect)
    GUI_RestoreContext                       0x08001d39   Thumb Code    12  gui_common.o(i.GUI_RestoreContext)
    GUI_SaveContext_W                        0x08001d49   Thumb Code    10  gui_common.o(i.GUI_SaveContext_W)
    GUI_SelectLCD                            0x08001d59   Thumb Code    26  gui_common.o(i.GUI_SelectLCD)
    GUI_SelectLayer                          0x08001d75   Thumb Code    46  gui_selectlayer.o(i.GUI_SelectLayer)
    GUI_SetBkColor                           0x08001dad   Thumb Code    22  gui_common.o(i.GUI_SetBkColor)
    GUI_SetColor                             0x08001dc3   Thumb Code    22  gui_common.o(i.GUI_SetColor)
    GUI_SetDrawMode                          0x08001dd9   Thumb Code    24  gui_common.o(i.GUI_SetDrawMode)
    GUI_SetFont                              0x08001df1   Thumb Code    26  gui_common.o(i.GUI_SetFont)
    GUI_SetLineStyle                         0x08001e11   Thumb Code    24  gui_common.o(i.GUI_SetLineStyle)
    GUI_SetOrg                               0x08001e2d   Thumb Code    48  gui_common.o(i.GUI_SetOrg)
    GUI_SetPenSize                           0x08001e6d   Thumb Code    24  gui_common.o(i.GUI_SetPenSize)
    GUI_SetTextAlign                         0x08001e89   Thumb Code    26  gui_common.o(i.GUI_SetTextAlign)
    GUI_SetTextMode                          0x08001ea9   Thumb Code    26  gui_common.o(i.GUI_SetTextMode)
    GUI_SignalEvent                          0x08001ec9   Thumb Code    12  gui_waitevent.o(i.GUI_SignalEvent)
    GUI_StoreKey                             0x08001ed9   Thumb Code    12  gui_onkey.o(i.GUI_StoreKey)
    GUI_TIMER_Delete                         0x08001ee9   Thumb Code    38  gui_timer.o(i.GUI_TIMER_Delete)
    GUI_TIMER_GetFlag                        0x08001f0f   Thumb Code    50  gui_timer.o(i.GUI_TIMER_GetFlag)
    GUI_TIMER__GetFirstTimer                 0x08001f41   Thumb Code    36  gui_timer.o(i.GUI_TIMER__GetFirstTimer)
    GUI_TIMER__GetNextTimerLin               0x08001f69   Thumb Code    54  gui_timer.o(i.GUI_TIMER__GetNextTimerLin)
    GUI_TOUCH_CalcCoefficients               0x08001fa1   Thumb Code  1178  gui_touch_calibrate.o(i.GUI_TOUCH_CalcCoefficients)
    GUI_TOUCH_Calibrate                      0x0800243d   Thumb Code   192  gui_touch_driveranalog.o(i.GUI_TOUCH_Calibrate)
    GUI_TOUCH_SetOrientation                 0x08002505   Thumb Code     6  gui_touch_driveranalog.o(i.GUI_TOUCH_SetOrientation)
    GUI_USAGE_AddRect                        0x08002511   Thumb Code    40  guidev_usage.o(i.GUI_USAGE_AddRect)
    GUI_USAGE_BM_Create                      0x080025e9   Thumb Code    88  guidev_usagebm.o(i.GUI_USAGE_BM_Create)
    GUI_USAGE_DecUseCnt                      0x080026df   Thumb Code    44  guidev_usage.o(i.GUI_USAGE_DecUseCnt)
    GUI_Unlock                               0x0800270d   Thumb Code    16  gui_task.o(i.GUI_Unlock)
    GUI_X_Config                             0x08002721   Thumb Code    20  guiconf.o(i.GUI_X_Config)
    GUI_X_Delay                              0x08002739   Thumb Code    12  gui_x_freertos.o(i.GUI_X_Delay)
    GUI_X_ExecIdle                           0x08002745   Thumb Code     2  gui_x_freertos.o(i.GUI_X_ExecIdle)
    GUI_X_GetTaskId                          0x08002747   Thumb Code     8  gui_x_freertos.o(i.GUI_X_GetTaskId)
    GUI_X_GetTime                            0x0800274f   Thumb Code     8  gui_x_freertos.o(i.GUI_X_GetTime)
    GUI_X_Init                               0x08002757   Thumb Code     2  gui_x_freertos.o(i.GUI_X_Init)
    GUI_X_InitOS                             0x08002759   Thumb Code   120  gui_x_freertos.o(i.GUI_X_InitOS)
    GUI_X_Lock                               0x080027d9   Thumb Code    26  gui_x_freertos.o(i.GUI_X_Lock)
    GUI_X_Unlock                             0x080027f9   Thumb Code    18  gui_x_freertos.o(i.GUI_X_Unlock)
    GUI__AllocAlphaBuffer                    0x08002811   Thumb Code    22  gui__alpha.o(i.GUI__AllocAlphaBuffer)
    GUI__AlphaPreserveTrans                  0x08002829   Thumb Code    32  gui_setalpha.o(i.GUI__AlphaPreserveTrans)
    GUI__CompactPixelIndices                 0x0800284d   Thumb Code   292  gui__compactpixelindices.o(i.GUI__CompactPixelIndices)
    GUI__CompactPixelIndicesEx               0x08002971   Thumb Code    12  gui__compactpixelindices.o(i.GUI__CompactPixelIndicesEx)
    GUI__Config                              0x0800297d   Thumb Code    46  gui_core.o(i.GUI__Config)
    GUI__ConvertColor2Index                  0x080029b5   Thumb Code   360  gui__compactpixelindices.o(i.GUI__ConvertColor2Index)
    GUI__DoAlphaBlending                     0x08002b1d   Thumb Code   446  gui__alpha.o(i.GUI__DoAlphaBlending)
    GUI__ExpandPixelIndicesEx                0x08002cf1   Thumb Code   322  gui__expandpixelindices.o(i.GUI__ExpandPixelIndicesEx)
    GUI__GetAlphaBuffer                      0x08002e35   Thumb Code   144  gui__alpha.o(i.GUI__GetAlphaBuffer)
    GUI__GetOrg                              0x08002ed1   Thumb Code    18  gui_common.o(i.GUI__GetOrg)
    GUI__IntersectRect                       0x08002eed   Thumb Code    58  gui__private.o(i.GUI__IntersectRect)
    GUI__IntersectRects                      0x08002f27   Thumb Code    82  gui__private.o(i.GUI__IntersectRects)
    GUI__ManageCache                         0x08002f79   Thumb Code    12  gui__managecache.o(i.GUI__ManageCache)
    GUI__ManageCacheEx                       0x08002f89   Thumb Code   208  gui__managecache.o(i.GUI__ManageCacheEx)
    GUI__MixColors                           0x0800305d   Thumb Code    90  gui__alpha.o(i.GUI__MixColors)
    GUI__MixColorsBulk                       0x080030b9   Thumb Code    90  gui__alpha.o(i.GUI__MixColorsBulk)
    GUI__RegisterExit                        0x08003119   Thumb Code    10  gui_core.o(i.GUI__RegisterExit)
    GUI__memset16                            0x08003129   Thumb Code    60  gui__private.o(i.GUI__memset16)
    HAL_CRC_Init                             0x08003165   Thumb Code    36  stm32f4xx_hal_crc.o(i.HAL_CRC_Init)
    HAL_CRC_MspInit                          0x08003189   Thumb Code    44  crc.o(i.HAL_CRC_MspInit)
    HAL_Delay                                0x080031bd   Thumb Code    36  stm32f4xx_hal.o(i.HAL_Delay)
    HAL_GPIO_Init                            0x080032b5   Thumb Code   466  stm32f4xx_hal_gpio.o(i.HAL_GPIO_Init)
    HAL_GPIO_WritePin                        0x080034b5   Thumb Code    12  stm32f4xx_hal_gpio.o(i.HAL_GPIO_WritePin)
    HAL_GetTick                              0x080034c1   Thumb Code     6  stm32f4xx_hal.o(i.HAL_GetTick)
    HAL_IncTick                              0x080034cd   Thumb Code    16  stm32f4xx_hal.o(i.HAL_IncTick)
    HAL_Init                                 0x080034e5   Thumb Code    54  stm32f4xx_hal.o(i.HAL_Init)
    HAL_InitTick                             0x08003521   Thumb Code   124  stm32f4xx_hal_timebase_tim.o(i.HAL_InitTick)
    HAL_MspInit                              0x080035a9   Thumb Code    78  stm32f4xx_hal_msp.o(i.HAL_MspInit)
    HAL_NVIC_EnableIRQ                       0x080035fd   Thumb Code    32  stm32f4xx_hal_cortex.o(i.HAL_NVIC_EnableIRQ)
    HAL_NVIC_SetPriority                     0x0800361d   Thumb Code   124  stm32f4xx_hal_cortex.o(i.HAL_NVIC_SetPriority)
    HAL_NVIC_SetPriorityGrouping             0x08003699   Thumb Code    32  stm32f4xx_hal_cortex.o(i.HAL_NVIC_SetPriorityGrouping)
    HAL_RCC_ClockConfig                      0x080036c1   Thumb Code   366  stm32f4xx_hal_rcc.o(i.HAL_RCC_ClockConfig)
    HAL_RCC_GetClockConfig                   0x08003841   Thumb Code    58  stm32f4xx_hal_rcc.o(i.HAL_RCC_GetClockConfig)
    HAL_RCC_GetHCLKFreq                      0x08003885   Thumb Code     6  stm32f4xx_hal_rcc.o(i.HAL_RCC_GetHCLKFreq)
    HAL_RCC_GetPCLK1Freq                     0x08003891   Thumb Code    22  stm32f4xx_hal_rcc.o(i.HAL_RCC_GetPCLK1Freq)
    HAL_RCC_GetSysClockFreq                  0x080038b1   Thumb Code   162  stm32f4xx_hal_rcc.o(i.HAL_RCC_GetSysClockFreq)
    HAL_RCC_OscConfig                        0x08003961   Thumb Code  1086  stm32f4xx_hal_rcc.o(i.HAL_RCC_OscConfig)
    HAL_SRAM_Init                            0x08003da9   Thumb Code    88  stm32f4xx_hal_sram.o(i.HAL_SRAM_Init)
    HAL_SRAM_MspInit                         0x08003e01   Thumb Code    10  fsmc.o(i.HAL_SRAM_MspInit)
    HAL_TIMEx_BreakCallback                  0x08003e0b   Thumb Code     2  stm32f4xx_hal_tim_ex.o(i.HAL_TIMEx_BreakCallback)
    HAL_TIMEx_CommutCallback                 0x08003e0d   Thumb Code     2  stm32f4xx_hal_tim_ex.o(i.HAL_TIMEx_CommutCallback)
    HAL_TIM_Base_Init                        0x08003e0f   Thumb Code    52  stm32f4xx_hal_tim.o(i.HAL_TIM_Base_Init)
    HAL_TIM_Base_MspInit                     0x08003e43   Thumb Code     2  stm32f4xx_hal_tim.o(i.HAL_TIM_Base_MspInit)
    HAL_TIM_Base_Start_IT                    0x08003e45   Thumb Code    42  stm32f4xx_hal_tim.o(i.HAL_TIM_Base_Start_IT)
    HAL_TIM_IC_CaptureCallback               0x08003e6f   Thumb Code     2  stm32f4xx_hal_tim.o(i.HAL_TIM_IC_CaptureCallback)
    HAL_TIM_IRQHandler                       0x08003e71   Thumb Code   406  stm32f4xx_hal_tim.o(i.HAL_TIM_IRQHandler)
    HAL_TIM_OC_DelayElapsedCallback          0x08004007   Thumb Code     2  stm32f4xx_hal_tim.o(i.HAL_TIM_OC_DelayElapsedCallback)
    HAL_TIM_PWM_PulseFinishedCallback        0x08004009   Thumb Code     2  stm32f4xx_hal_tim.o(i.HAL_TIM_PWM_PulseFinishedCallback)
    HAL_TIM_PeriodElapsedCallback            0x0800400b   Thumb Code    18  main.o(i.HAL_TIM_PeriodElapsedCallback)
    HAL_TIM_TriggerCallback                  0x0800401d   Thumb Code     2  stm32f4xx_hal_tim.o(i.HAL_TIM_TriggerCallback)
    HardFault_Handler                        0x0800401f   Thumb Code     4  stm32f4xx_it.o(i.HardFault_Handler)
    IIC_Ack                                  0x08004025   Thumb Code    66  myiic.o(i.IIC_Ack)
    IIC_Init                                 0x08004075   Thumb Code    14  myiic.o(i.IIC_Init)
    IIC_NAck                                 0x0800408d   Thumb Code    66  myiic.o(i.IIC_NAck)
    IIC_Read_Byte                            0x080040dd   Thumb Code    94  myiic.o(i.IIC_Read_Byte)
    IIC_Send_Byte                            0x08004149   Thumb Code    90  myiic.o(i.IIC_Send_Byte)
    IIC_Start                                0x080041b1   Thumb Code    62  myiic.o(i.IIC_Start)
    IIC_Stop                                 0x080041fd   Thumb Code    60  myiic.o(i.IIC_Stop)
    IIC_Wait_Ack                             0x08004245   Thumb Code    82  myiic.o(i.IIC_Wait_Ack)
    LCD_AA_MixColors16                       0x080042a5   Thumb Code    72  lcd_aa.o(i.LCD_AA_MixColors16)
    LCD_AA_SetAndMask                        0x080042f5   Thumb Code    10  lcd_aa.o(i.LCD_AA_SetAndMask)
    LCD_BGR2RGB                              0x08004305   Thumb Code    26  lcd_config.o(i.LCD_BGR2RGB)
    LCD_Clear                                0x08004321   Thumb Code   100  lcd_config.o(i.LCD_Clear)
    LCD_Color2Index                          0x0800438d   Thumb Code    18  lcd.o(i.LCD_Color2Index)
    LCD_Config_Init                          0x080043a9   Thumb Code 13898  lcd_config.o(i.LCD_Config_Init)
    LCD_Display_Dir                          0x080079fd   Thumb Code   444  lcd_config.o(i.LCD_Display_Dir)
    LCD_DrawBitmap                           0x08007bbd   Thumb Code   504  lcd.o(i.LCD_DrawBitmap)
    LCD_DrawHLine                            0x08007dc1   Thumb Code    78  lcd.o(i.LCD_DrawHLine)
    LCD_DrawLine                             0x08007e19   Thumb Code   176  lcd_config.o(i.LCD_DrawLine)
    LCD_DrawPixel                            0x08007ec9   Thumb Code    96  lcd.o(i.LCD_DrawPixel)
    LCD_DrawPoint                            0x08007f31   Thumb Code    28  lcd_config.o(i.LCD_DrawPoint)
    LCD_Draw_Circle                          0x08007f55   Thumb Code   152  lcd_config.o(i.LCD_Draw_Circle)
    LCD_Fast_DrawPoint                       0x08007fed   Thumb Code   374  lcd_config.o(i.LCD_Fast_DrawPoint)
    LCD_Fill                                 0x0800816d   Thumb Code   180  lcd_config.o(i.LCD_Fill)
    LCD_FillRect                             0x08008225   Thumb Code    80  lcd.o(i.LCD_FillRect)
    LCD_GetBitsPerPixelEx                    0x0800827d   Thumb Code     6  lcd_getex.o(i.LCD_GetBitsPerPixelEx)
    LCD_GetNumColors                         0x08008285   Thumb Code    12  lcd_getex.o(i.LCD_GetNumColors)
    LCD_GetNumColorsEx                       0x08008295   Thumb Code     6  lcd_getex.o(i.LCD_GetNumColorsEx)
    LCD_GetNumLayers                         0x0800829b   Thumb Code    26  lcd_getnumdisplays.o(i.LCD_GetNumLayers)
    LCD_GetPalette                           0x080082b5   Thumb Code    10  lcd_getex.o(i.LCD_GetPalette)
    LCD_GetPaletteEx                         0x080082c5   Thumb Code    24  lcd_getex.o(i.LCD_GetPaletteEx)
    LCD_GetVXSizeEx                          0x080082dd   Thumb Code     6  lcd_getex.o(i.LCD_GetVXSizeEx)
    LCD_GetVXSizeMax                         0x080082e3   Thumb Code     6  lcd_getex.o(i.LCD_GetVXSizeMax)
    LCD_GetVYSizeEx                          0x080082e9   Thumb Code     6  lcd_getex.o(i.LCD_GetVYSizeEx)
    LCD_GetXSize                             0x080082f1   Thumb Code    12  lcd_getex.o(i.LCD_GetXSize)
    LCD_GetXSizeDisplay                      0x08008301   Thumb Code     6  lcd_getex.o(i.LCD_GetXSizeDisplay)
    LCD_GetXSizeEx                           0x0800830d   Thumb Code     6  lcd_getex.o(i.LCD_GetXSizeEx)
    LCD_GetXSizeMax                          0x08008313   Thumb Code     6  lcd_getex.o(i.LCD_GetXSizeMax)
    LCD_GetYSize                             0x08008319   Thumb Code    12  lcd_getex.o(i.LCD_GetYSize)
    LCD_GetYSizeDisplay                      0x08008329   Thumb Code     6  lcd_getex.o(i.LCD_GetYSizeDisplay)
    LCD_GetYSizeEx                           0x08008335   Thumb Code     6  lcd_getex.o(i.LCD_GetYSizeEx)
    LCD_GetYSizeMax                          0x0800833b   Thumb Code     6  lcd_getex.o(i.LCD_GetYSizeMax)
    LCD_GetpPalConvTableBM                   0x08008341   Thumb Code     4  lcd_color.o(i.LCD_GetpPalConvTableBM)
    LCD_GetpPalConvTableUncached             0x08008345   Thumb Code    86  lcd_color.o(i.LCD_GetpPalConvTableUncached)
    LCD_Index2Color                          0x080083a1   Thumb Code    18  lcd.o(i.LCD_Index2Color)
    LCD_Index2Color_565                      0x080083bd   Thumb Code    34  guicc_565.o(i.LCD_Index2Color_565)
    LCD_Index2Color_888                      0x080083e9   Thumb Code     2  guicc_888_index2color.o(i.LCD_Index2Color_888)
    LCD_Index2Color_8888                     0x080083eb   Thumb Code     2  guicc_8888_index2color.o(i.LCD_Index2Color_8888)
    LCD_InitColors                           0x080083ed   Thumb Code    42  lcd_color.o(i.LCD_InitColors)
    LCD_InitLUT                              0x08008421   Thumb Code   112  lcd_color.o(i.LCD_InitLUT)
    LCD_RD_DATA                              0x0800849d   Thumb Code    14  lcd_config.o(i.LCD_RD_DATA)
    LCD_ReadPoint                            0x080084b1   Thumb Code   360  lcd_config.o(i.LCD_ReadPoint)
    LCD_ReadReg                              0x080087b5   Thumb Code    22  lcd_config.o(i.LCD_ReadReg)
    LCD_SSD_BackLightSet                     0x080087cd   Thumb Code    88  lcd_config.o(i.LCD_SSD_BackLightSet)
    LCD_Scan_Dir                             0x0800882d   Thumb Code   744  lcd_config.o(i.LCD_Scan_Dir)
    LCD_SelectLCD                            0x08008b19   Thumb Code    56  lcd_selectlcd.o(i.LCD_SelectLCD)
    LCD_SetBkColor                           0x08008b59   Thumb Code     8  lcd.o(i.LCD_SetBkColor)
    LCD_SetBkColorIndex                      0x08008b65   Thumb Code    20  lcd.o(i.LCD_SetBkColorIndex)
    LCD_SetClipRectEx                        0x08008b7d   Thumb Code    38  lcd_setcliprectex.o(i.LCD_SetClipRectEx)
    LCD_SetClipRectMax                       0x08008bad   Thumb Code    20  lcd.o(i.LCD_SetClipRectMax)
    LCD_SetColor                             0x08008bc9   Thumb Code     8  lcd.o(i.LCD_SetColor)
    LCD_SetColorIndex                        0x08008bd5   Thumb Code    20  lcd.o(i.LCD_SetColorIndex)
    LCD_SetCursor                            0x08008bed   Thumb Code   418  lcd_config.o(i.LCD_SetCursor)
    LCD_SetDisplaySize                       0x08008d95   Thumb Code     8  lcd_getex.o(i.LCD_SetDisplaySize)
    LCD_SetDrawMode                          0x08008da1   Thumb Code     8  lcd.o(i.LCD_SetDrawMode)
    LCD_SetLUTEntryEx                        0x08008dad   Thumb Code    44  lcd_set.o(i.LCD_SetLUTEntryEx)
    LCD_SetSizeEx                            0x08008dd9   Thumb Code    44  lcd_set.o(i.LCD_SetSizeEx)
    LCD_SetVSizeEx                           0x08008e05   Thumb Code    44  lcd_set.o(i.LCD_SetVSizeEx)
    LCD_UpdateColorIndices                   0x08008e31   Thumb Code    32  lcd_updatecolorindices.o(i.LCD_UpdateColorIndices)
    LCD_WR_DATA                              0x08008e55   Thumb Code     6  lcd_config.o(i.LCD_WR_DATA)
    LCD_WR_REG                               0x08008e61   Thumb Code     6  lcd_config.o(i.LCD_WR_REG)
    LCD_WriteRAM_Prepare                     0x08008e6d   Thumb Code    10  lcd_config.o(i.LCD_WriteRAM_Prepare)
    LCD_WriteReg                             0x08008e81   Thumb Code    14  lcd_config.o(i.LCD_WriteReg)
    LCD_X_Config                             0x08008e95   Thumb Code    84  lcdconf_flexcolor_template.o(i.LCD_X_Config)
    LCD_X_DisplayDriver                      0x08008ef5   Thumb Code    26  lcdconf_flexcolor_template.o(i.LCD_X_DisplayDriver)
    LCD__DrawBitmap_1bpp                     0x08008f11   Thumb Code   424  lcd.o(i.LCD__DrawBitmap_1bpp)
    LCD__GetBPP                              0x080090c5   Thumb Code    92  lcd_getex.o(i.LCD__GetBPP)
    LCD__GetBPPDevice                        0x08009121   Thumb Code    50  lcd_getex.o(i.LCD__GetBPPDevice)
    MX_CRC_Init                              0x08009155   Thumb Code    22  crc.o(i.MX_CRC_Init)
    MX_FREERTOS_Init                         0x08009175   Thumb Code    54  freertos.o(i.MX_FREERTOS_Init)
    MX_FSMC_Init                             0x080091b9   Thumb Code   116  fsmc.o(i.MX_FSMC_Init)
    MX_GPIO_Init                             0x08009235   Thumb Code   506  gpio.o(i.MX_GPIO_Init)
    MainTask                                 0x08009445   Thumb Code    68  maintask.o(i.MainTask)
    MemManage_Handler                        0x0800949d   Thumb Code     4  stm32f4xx_it.o(i.MemManage_Handler)
    NMI_Handler                              0x080094a1   Thumb Code     2  stm32f4xx_it.o(i.NMI_Handler)
    Start_LCD_Task                           0x080094a3   Thumb Code    14  freertos.o(i.Start_LCD_Task)
    Start_LED_Task                           0x080094b1   Thumb Code    10  freertos.o(i.Start_LED_Task)
    SysTick_Handler                          0x080094bd   Thumb Code    46  port.o(i.SysTick_Handler)
    SystemClock_Config                       0x080094f1   Thumb Code   172  main.o(i.SystemClock_Config)
    SystemInit                               0x080095a5   Thumb Code    82  system_stm32f4xx.o(i.SystemInit)
    TIM2_IRQHandler                          0x08009609   Thumb Code    10  stm32f4xx_it.o(i.TIM2_IRQHandler)
    TIM_Base_SetConfig                       0x08009619   Thumb Code   170  stm32f4xx_hal_tim.o(i.TIM_Base_SetConfig)
    TP_Adjust                                0x080096f1   Thumb Code  1644  touch.o(i.TP_Adjust)
    TP_Drow_Touch_Point                      0x08009d71   Thumb Code   108  touch.o(i.TP_Drow_Touch_Point)
    TP_Get_Adjdata                           0x08009de1   Thumb Code   120  touch.o(i.TP_Get_Adjdata)
    TP_Init                                  0x08009e65   Thumb Code   106  touch.o(i.TP_Init)
    TP_Read_AD                               0x08009ed9   Thumb Code   122  touch.o(i.TP_Read_AD)
    TP_Read_XOY                              0x08009f65   Thumb Code   120  touch.o(i.TP_Read_XOY)
    TP_Read_XY                               0x08009fdd   Thumb Code    38  touch.o(i.TP_Read_XY)
    TP_Read_XY2                              0x0800a00d   Thumb Code   192  touch.o(i.TP_Read_XY2)
    TP_Save_Adjdata                          0x0800a0cd   Thumb Code    76  touch.o(i.TP_Save_Adjdata)
    TP_Scan                                  0x0800a11d   Thumb Code   242  touch.o(i.TP_Scan)
    TP_Write_Byte                            0x0800a219   Thumb Code    54  touch.o(i.TP_Write_Byte)
    UsageFault_Handler                       0x0800a25d   Thumb Code     4  stm32f4xx_it.o(i.UsageFault_Handler)
    WM_Activate                              0x0800a261   Thumb Code    12  wm.o(i.WM_Activate)
    WM_BringToBottom                         0x0800a271   Thumb Code   136  wm_lib.o(i.WM_BringToBottom)
    WM_CreateWindowAsChild                   0x0800a2f9   Thumb Code   324  wm.o(i.WM_CreateWindowAsChild)
    WM_Deactivate                            0x0800a449   Thumb Code    28  wm.o(i.WM_Deactivate)
    WM_DefaultProc                           0x0800a469   Thumb Code    70  wm.o(i.WM_DefaultProc)
    WM_DeleteTimer                           0x0800a4af   Thumb Code    42  wm_timer.o(i.WM_DeleteTimer)
    WM_DeleteWindow                          0x0800a4d9   Thumb Code   234  wm.o(i.WM_DeleteWindow)
    WM_Exec                                  0x0800a5c9   Thumb Code   114  wm.o(i.WM_Exec)
    WM_GetDesktopWindow                      0x0800a645   Thumb Code    14  wm_lib.o(i.WM_GetDesktopWindow)
    WM_GetFirstChild                         0x0800a65d   Thumb Code    26  wm_lib.o(i.WM_GetFirstChild)
    WM_GetParent                             0x0800a677   Thumb Code    26  wm_lib.o(i.WM_GetParent)
    WM_GetWindowOrgX                         0x0800a691   Thumb Code    32  wm_lib.o(i.WM_GetWindowOrgX)
    WM_Init                                  0x0800a6b1   Thumb Code   184  wm.o(i.WM_Init)
    WM_InvalidateRect                        0x0800a785   Thumb Code   128  wm.o(i.WM_InvalidateRect)
    WM_InvalidateWindow                      0x0800a805   Thumb Code     6  wm.o(i.WM_InvalidateWindow)
    WM_InvalidateWindowAndDescsEx            0x0800a80b   Thumb Code    94  wm.o(i.WM_InvalidateWindowAndDescsEx)
    WM_MoveWindow                            0x0800a869   Thumb Code    30  wm_move.o(i.WM_MoveWindow)
    WM_NotifyParent                          0x0800a887   Thumb Code    16  wm_lib.o(i.WM_NotifyParent)
    WM_OnKey                                 0x0800a899   Thumb Code    56  wm_lib.o(i.WM_OnKey)
    WM_ResizeWindow                          0x0800a8d9   Thumb Code   244  wm_lib.o(i.WM_ResizeWindow)
    WM_SelectWindow                          0x0800a9cd   Thumb Code    60  wm.o(i.WM_SelectWindow)
    WM_SendMessageNoPara                     0x0800aa11   Thumb Code    26  wm_lib.o(i.WM_SendMessageNoPara)
    WM_SendToParent                          0x0800aa2b   Thumb Code    38  wm_lib.o(i.WM_SendToParent)
    WM_SetDefault                            0x0800aa51   Thumb Code    16  wm.o(i.WM_SetDefault)
    WM_SetSize                               0x0800aa65   Thumb Code    72  wm_lib.o(i.WM_SetSize)
    WM__ActivateClipRect                     0x0800aaad   Thumb Code    58  wm.o(i.WM__ActivateClipRect)
    WM__AddCriticalHandle                    0x0800aaf5   Thumb Code    10  wm__private.o(i.WM__AddCriticalHandle)
    WM__Client2Screen                        0x0800ab05   Thumb Code    16  wm.o(i.WM__Client2Screen)
    WM__ClipAtParentBorders                  0x0800ab15   Thumb Code    78  wm.o(i.WM__ClipAtParentBorders)
    WM__DeleteAssocTimer                     0x0800ab63   Thumb Code    82  wm_timer.o(i.WM__DeleteAssocTimer)
    WM__DetachWindow                         0x0800abb5   Thumb Code    40  wm.o(i.WM__DetachWindow)
    WM__GetClientRectEx                      0x0800abdd   Thumb Code    32  wm__private.o(i.WM__GetClientRectEx)
    WM__GetClientRectWin                     0x0800abfd   Thumb Code    24  wm.o(i.WM__GetClientRectWin)
    WM__GetFirstSibling                      0x0800ac15   Thumb Code    18  wm__private.o(i.WM__GetFirstSibling)
    WM__GetNextIVR                           0x0800ac29   Thumb Code    54  wm.o(i.WM__GetNextIVR)
    WM__GetPrevSibling                       0x0800ac69   Thumb Code    36  wm__private.o(i.WM__GetPrevSibling)
    WM__GetTopLevelLayer                     0x0800ac8d   Thumb Code    24  wm.o(i.WM__GetTopLevelLayer)
    WM__InitIVRSearch                        0x0800aca5   Thumb Code   228  wm.o(i.WM__InitIVRSearch)
    WM__InsertWindowIntoList                 0x0800ad95   Thumb Code   164  wm.o(i.WM__InsertWindowIntoList)
    WM__Invalidate1Abs                       0x0800ae39   Thumb Code     6  wm.o(i.WM__Invalidate1Abs)
    WM__InvalidateDrawAndDescs               0x0800ae41   Thumb Code    78  wm.o(i.WM__InvalidateDrawAndDescs)
    WM__InvalidateParent                     0x0800ae95   Thumb Code    42  wm.o(i.WM__InvalidateParent)
    WM__InvalidateRect                       0x0800aebf   Thumb Code   118  wm.o(i.WM__InvalidateRect)
    WM__InvalidateRectEx                     0x0800af35   Thumb Code     6  wm.o(i.WM__InvalidateRectEx)
    WM__IsWindow                             0x0800af3d   Thumb Code    26  wm.o(i.WM__IsWindow)
    WM__MoveWindow                           0x0800af5d   Thumb Code   154  wm_move.o(i.WM__MoveWindow)
    WM__Paint                                0x0800aff9   Thumb Code   152  wm.o(i.WM__Paint)
    WM__Paint1                               0x0800b099   Thumb Code   136  wm.o(i.WM__Paint1)
    WM__RectIsNZ                             0x0800b19d   Thumb Code    32  wm.o(i.WM__RectIsNZ)
    WM__RemoveWindowFromList                 0x0800b1bd   Thumb Code    64  wm.o(i.WM__RemoveWindowFromList)
    WM__SelectTopLevelLayer                  0x0800b1fd   Thumb Code    20  wm.o(i.WM__SelectTopLevelLayer)
    WM__SendMessage                          0x0800b211   Thumb Code    54  wm__private.o(i.WM__SendMessage)
    WM__SendMessageNoPara                    0x0800b24d   Thumb Code    38  wm__private.o(i.WM__SendMessageNoPara)
    WM__SendMsgNoData                        0x0800b273   Thumb Code    14  wm.o(i.WM__SendMsgNoData)
    WM__UpdateChildPositions                 0x0800b281   Thumb Code   220  wm__private.o(i.WM__UpdateChildPositions)
    __hardfp_sqrt                            0x08010719   Thumb Code   122  sqrt.o(i.__hardfp_sqrt)
    __scatterload_copy                       0x08010793   Thumb Code    14  handlers.o(i.__scatterload_copy)
    __scatterload_null                       0x080107a1   Thumb Code     2  handlers.o(i.__scatterload_null)
    __scatterload_zeroinit                   0x080107a3   Thumb Code    14  handlers.o(i.__scatterload_zeroinit)
    __set_errno                              0x080107b1   Thumb Code     6  errno.o(i.__set_errno)
    delay_us                                 0x08010851   Thumb Code    18  common.o(i.delay_us)
    emWin_LCD_Init                           0x08010865   Thumb Code   148  lcd.o(i.emWin_LCD_Init)
    main                                     0x080108fd   Thumb Code    40  main.o(i.main)
    opt_delay                                0x08010933   Thumb Code    14  lcd_config.o(i.opt_delay)
    osDelay                                  0x08010941   Thumb Code    24  cmsis_os.o(i.osDelay)
    osKernelStart                            0x08010959   Thumb Code    10  cmsis_os.o(i.osKernelStart)
    osThreadCreate                           0x08010963   Thumb Code    94  cmsis_os.o(i.osThreadCreate)
    pvPortMalloc                             0x08010fc1   Thumb Code   296  heap_4.o(i.pvPortMalloc)
    pvTaskIncrementMutexHeldCount            0x080110fd   Thumb Code    26  tasks.o(i.pvTaskIncrementMutexHeldCount)
    pxPortInitialiseStack                    0x0801111d   Thumb Code    38  port.o(i.pxPortInitialiseStack)
    uxListRemove                             0x08011149   Thumb Code    40  list.o(i.uxListRemove)
    vApplicationGetIdleTaskMemory            0x08011171   Thumb Code    14  freertos.o(i.vApplicationGetIdleTaskMemory)
    vListInitialise                          0x08011189   Thumb Code    26  list.o(i.vListInitialise)
    vListInitialiseItem                      0x080111a3   Thumb Code     6  list.o(i.vListInitialiseItem)
    vListInsert                              0x080111a9   Thumb Code    52  list.o(i.vListInsert)
    vListInsertEnd                           0x080111dd   Thumb Code    24  list.o(i.vListInsertEnd)
    vPortEnterCritical                       0x080111f5   Thumb Code    76  port.o(i.vPortEnterCritical)
    vPortExitCritical                        0x08011249   Thumb Code    56  port.o(i.vPortExitCritical)
    vPortFree                                0x08011285   Thumb Code   140  heap_4.o(i.vPortFree)
    vPortSetupTimerInterrupt                 0x08011319   Thumb Code    36  port.o(i.vPortSetupTimerInterrupt)
    vTaskDelay                               0x08011341   Thumb Code    82  tasks.o(i.vTaskDelay)
    vTaskInternalSetTimeOutState             0x0801139d   Thumb Code    14  tasks.o(i.vTaskInternalSetTimeOutState)
    vTaskMissedYield                         0x080113b5   Thumb Code     8  tasks.o(i.vTaskMissedYield)
    vTaskPlaceOnEventList                    0x080113c1   Thumb Code    52  tasks.o(i.vTaskPlaceOnEventList)
    vTaskPriorityDisinheritAfterTimeout      0x080113f9   Thumb Code   230  tasks.o(i.vTaskPriorityDisinheritAfterTimeout)
    vTaskStartScheduler                      0x080114ed   Thumb Code   146  tasks.o(i.vTaskStartScheduler)
    vTaskSuspendAll                          0x0801159d   Thumb Code    12  tasks.o(i.vTaskSuspendAll)
    vTaskSwitchContext                       0x080115ad   Thumb Code   118  tasks.o(i.vTaskSwitchContext)
    xPortStartScheduler                      0x08011639   Thumb Code   330  port.o(i.xPortStartScheduler)
    xQueueCreateMutex                        0x080117a1   Thumb Code    34  queue.o(i.xQueueCreateMutex)
    xQueueGenericCreate                      0x080117c3   Thumb Code    94  queue.o(i.xQueueGenericCreate)
    xQueueGenericReset                       0x08011821   Thumb Code   146  queue.o(i.xQueueGenericReset)
    xQueueGenericSend                        0x080118b9   Thumb Code   420  queue.o(i.xQueueGenericSend)
    xQueueSemaphoreTake                      0x08011a61   Thumb Code   434  queue.o(i.xQueueSemaphoreTake)
    xTaskCheckForTimeOut                     0x08011c19   Thumb Code   132  tasks.o(i.xTaskCheckForTimeOut)
    xTaskCreate                              0x08011ca5   Thumb Code   100  tasks.o(i.xTaskCreate)
    xTaskCreateStatic                        0x08011d09   Thumb Code   184  tasks.o(i.xTaskCreateStatic)
    xTaskGetCurrentTaskHandle                0x08011dc1   Thumb Code     6  tasks.o(i.xTaskGetCurrentTaskHandle)
    xTaskGetSchedulerState                   0x08011dcd   Thumb Code    24  tasks.o(i.xTaskGetSchedulerState)
    xTaskGetTickCount                        0x08011ded   Thumb Code     6  tasks.o(i.xTaskGetTickCount)
    xTaskIncrementTick                       0x08011df9   Thumb Code   282  tasks.o(i.xTaskIncrementTick)
    xTaskPriorityDisinherit                  0x08011f41   Thumb Code   188  tasks.o(i.xTaskPriorityDisinherit)
    xTaskPriorityInherit                     0x08012009   Thumb Code   186  tasks.o(i.xTaskPriorityInherit)
    xTaskRemoveFromEventList                 0x080120d1   Thumb Code   128  tasks.o(i.xTaskRemoveFromEventList)
    xTaskResumeAll                           0x08012169   Thumb Code   224  tasks.o(i.xTaskResumeAll)
    GUIDRV_Template_API                      0x0801226c   Data          52  guidrv_template.o(.constdata)
    AHBPrescTable                            0x080122d8   Data          16  system_stm32f4xx.o(.constdata)
    APBPrescTable                            0x080122e8   Data           8  system_stm32f4xx.o(.constdata)
    LCD_API_ColorConv_565                    0x08012fe4   Data          24  guicc_565.o(.constdata)
    GUI_MEMDEV_DEVICE_16                     0x0801303c   Data          52  guidev_16.o(.constdata)
    GUI__aConvert_31_255                     0x08013070   Data          32  gui__divtbl.o(.constdata)
    GUI__aConvert_63_255                     0x08013090   Data          64  gui__divtbl.o(.constdata)
    GUI__aConvert_255_31                     0x080130d0   Data         256  gui__divtbl.o(.constdata)
    GUI__aConvert_255_63                     0x080131d0   Data         256  gui__divtbl.o(.constdata)
    GUI_UC_None                              0x080132d0   Data          16  gui_uc_encodenone.o(.constdata)
    LCD_aMirror                              0x080132ec   Data         256  lcd_mirror.o(.constdata)
    GUI_Font6x8                              0x08013ae0   Data          36  f6x8.o(.constdata)
    LCD_API_ColorConv_0                      0x08013b0c   Data          24  guicc_0.o(.constdata)
    LCD_API_ColorConv_8888                   0x08013b24   Data          24  guicc_8888.o(.constdata)
    GUI_MEMDEV_DEVICE_32                     0x08013b7c   Data          52  guidev_32.o(.constdata)
    Region$$Table$$Base                      0x08013c5c   Number         0  anon$$obj.o(Region$$Table)
    Region$$Table$$Limit                     0x08013c7c   Number         0  anon$$obj.o(Region$$Table)
    tp_dev                                   0x20000008   Data          52  touch.o(.data)
    CMD_RDX                                  0x2000003c   Data           1  touch.o(.data)
    CMD_RDY                                  0x2000003d   Data           1  touch.o(.data)
    TP_REMIND_MSG_TBL                        0x20000040   Data           4  touch.o(.data)
    POINT_COLOR                              0x20000044   Data           2  lcd_config.o(.data)
    BACK_COLOR                               0x20000046   Data           2  lcd_config.o(.data)
    hcrc                                     0x20000048   Data           8  crc.o(.data)
    LED_taskHandle                           0x20000050   Data           4  freertos.o(.data)
    LCD_TaskHandle                           0x20000054   Data           4  freertos.o(.data)
    SystemCoreClock                          0x20000060   Data           4  system_stm32f4xx.o(.data)
    uwTick                                   0x20000064   Data           4  stm32f4xx_hal.o(.data)
    uwTickPrio                               0x20000068   Data           4  stm32f4xx_hal.o(.data)
    uwTickFreq                               0x2000006c   Data           1  stm32f4xx_hal.o(.data)
    pxCurrentTCB                             0x20000070   Data           4  tasks.o(.data)
    GUI_DecChar                              0x200000d0   Data           1  gui_core.o(.data)
    GUI__PreserveTrans                       0x200000d1   Data           1  gui_core.o(.data)
    GUI__IsInitialized                       0x200000d2   Data           1  gui_core.o(.data)
    GUI_pfGetpPalConvTable                   0x200000d4   Data           4  gui_core.o(.data)
    GUI__pFontDefault                        0x200000d8   Data           4  gui_core.o(.data)
    GUI__ColorDefault                        0x200000dc   Data           4  gui_core.o(.data)
    GUI__BkColorDefault                      0x200000e0   Data           4  gui_core.o(.data)
    GUI_pContext                             0x200000e4   Data           4  gui_core.o(.data)
    GUI_pfAfterInitHook                      0x200000e8   Data           4  gui_core.o(.data)
    GUI_pUC_API                              0x200000ec   Data           4  gui_core.o(.data)
    GUI_pfTimerExec                          0x200000f0   Data           4  gui_core.o(.data)
