:020000040800F2
:1000000098DD01205D020008A19400081F4000084F
:100010009D940008290800085DA200080000000067
:100020000000000000000000000000009D0100082A
:100030002D08000800000000F9010008BD94000828
:1000400077020008770200087702000877020008AC
:10005000770200087702000877020008770200089C
:10006000770200087702000877020008770200088C
:10007000770200087702000877020008770200087C
:10008000770200087702000877020008770200086C
:10009000770200087702000877020008770200085C
:1000A000770200087702000877020008770200084C
:1000B0000996000877020008770200087702000816
:1000C000770200087702000877020008770200082C
:1000D000770200087702000877020008770200081C
:1000E000770200087702000877020008770200080C
:1000F00077020008770200087702000877020008FC
:1001000077020008770200087702000877020008EB
:1001100077020008770200087702000877020008DB
:1001200077020008770200087702000877020008CB
:1001300077020008770200087702000877020008BB
:1001400077020008770200087702000877020008AB
:10015000770200087702000877020008770200089B
:10016000770200087702000877020008770200088B
:1001700077020008770200087702000800000000FC
:100180007702000877020008DFF80CD000F08CFA44
:1001900000480047FD08010898DD01202C4B196834
:1001A0000868B0E8F04F80F30988BFF36F8F4FF015
:1001B000000080F3118870470000000008480068C4
:1001C000006880F308884FF0000080F3148862B65E
:1001D00061B6BFF34F8FBFF36F8F00DF00BF00BF6B
:1001E00008ED00E0DFF80C00016841F470010160E7
:1001F000704700BF88ED00E0EFF30980BFF36F8F19
:10020000134B1A681EF0100F08BF20ED108A20E96A
:10021000F04F106009B44FF0500080F31188BFF325
:100220004F8FBFF36F8F11F0C1F94FF0000080F3D3
:10023000118809BC19680868B0E8F04F1EF0100F6B
:1002400008BFB0EC108A80F30988BFF36F8F704746
:1002500070000020EFF305807047000006488047DB
:1002600006480047FEE7FEE7FEE7FEE7FEE7FEE79B
:10027000FEE7FEE7FEE7FEE7A59500088901000816
:100280002DE9F05F0546002092469B4688460646CB
:10029000814640241BE0284641464746224600F05E
:1002A00044F953465A46C01A914110D31146184694
:1002B000224600F02BF92D1A67EB01084F46224623
:1002C0000120002100F022F917EB00094E41201E09
:1002D000A4F10104DFDC484631462A464346BDE826
:1002E000F09F10B5441A0346944209D28418114471
:1002F00003E011F8013D04F8013D521EF9D210BD92
:1003000040EA0104A40703D009E010C9121F10C37A
:10031000042AFAD203E011F8014B03F8014B521EF4
:10032000F9D210BDD2B201E000F8012B491EFBD278
:1003300070470022F6E710B513460A4604461946F0
:10034000FFF7F0FF204610BD421C10F8011B0029EA
:10035000FBD1801A70472DE9FE4F81EA030404F0B7
:10036000004421F0004100944FF0000B23F00043C3
:1003700050EA01045ED052EA03045BD0C3F30A548E
:10038000C1F30A552C44A4F2F3340194A0FB0254A7
:10039000C1F3130141F48011C3F3130343F4801339
:1003A00001FB024400FB034E840A970A44EA81548D
:1003B00047EA8357A4FB076802958D0A05FB07856A
:1003C0004FEA932C04FB0C542705029D4FEA065874
:1003D00047EA1637B5EB08056EEB070C870E920E51
:1003E00047EA811742EA8312A7FB0201B6EB0B0131
:1003F00064EB00042B0D43EA0C335E1844EB1C50F5
:10040000DA465146E7FB0201C5F313044FEA0B330A
:1004100043EA14534FEA0432019C43EA0603A4F171
:100420000C040294009CCDE900B400F09DF803B0E8
:10043000BDE8F08F00200146F9E70EB540F23341E8
:1004400002910021CDE900110A460B4600F08CF81C
:1004500003B000BDC1F30A5210B5C1F3130140F25D
:10046000FF3341F480119A4201DA002010BD40F2BE
:1004700033439A42A2F2334203DC524200F055F871
:1004800010BD904010BD00F0004230F000400AD096
:10049000C10D01F56071C0F3160042EA0151C208B6
:1004A00040071143704700200146704730B5041ED5
:1004B00071F1000404DB4FF00044404264EB0101A1
:1004C000141E73F1000405DB1C464FF0004352423A
:1004D00063EB04038B4208BF824230BD30B5041E7B
:1004E00071F1000404DB4FF00044404264EB010171
:1004F000141E73F1000405DB1C464FF0004352420A
:1005000063EB0403994208BF904230BD202A04DB0C
:10051000203A00FA02F1002070479140C2F1200316
:1005200020FA03F3194390407047202A04DB203A55
:1005300021FA02F00021704721FA02F3D040C2F103
:100540002002914008431946704710B5141E73F1FC
:10055000000408DA401C41F1000192185B411A4383
:1005600001D120F0010010BD2DE9F04D92469B46CF
:1005700011B1B1FA81F202E0B0FA80F22032904675
:10058000FFF7C4FF04460F4640EA0A0041EA0B01A8
:1005900053465A46084313D0114653EA010019D076
:1005A000C8F140025046FFF7C0FF05460E465046D0
:1005B00059464246FFF7AAFF084305D0012004E050
:1005C00020463946BDE8F08D0020054346EAE07636
:1005D0002C4337430A986305E40AA0EB0800002285
:1005E000FD0A44EA47540A3002D500200146E9E7F3
:1005F000010510196941DDE9084500196941BDE8A7
:10060000F04DA2E72DE9F04D00231A461B1A8A414E
:1006100003DB00200146BDE8F08DC1F30A52C1F3AF
:10062000130141F480154FF0000BD10702D10018DF
:100630006D41521E0027044640F2FF11384601EB7F
:10064000620A3E468046024600204FF48011FFF7C2
:100650006CFFC2197141BB1846EB0100B4EB030CEF
:1006600075EB000C04D3E41A65EB000517460E4643
:10067000241908F101006D4180463428E3DDF919A1
:1006800046EB0600091BA84103D24FF0FF32134688
:1006900001E0002213461BEB070046EB0A51BDE8C0
:1006A000F04DFFF752BF0000064C074D06E0E06832
:1006B00040F0010394E8070098471034AC42F6D3A9
:1006C000FFF766FD5C3C01087C3C010870B58C18A6
:1006D00010F8015B15F0070301D110F8013B2A1156
:1006E00006D110F8012B03E010F8016B01F8016B43
:1006F0005B1EF9D12B0705D40023521E0DD401F83F
:10070000013BFAE710F8013BCB1A921C03E013F807
:10071000015B01F8015B521EF9D5A142D8D300203C
:1007200070BD10B503F0A6FC10BD2DE9F0410746E1
:100730000C460026002509E036023919491B491EDE
:1007400088B200F008F80644681CC5B2A542F3DB85
:100750003046BDE8F08170B50446002603F028FD60
:100760002546E11704EB11610912A02202EB4101B9
:10077000C8B203F0E9FC03F065FDE11704EB116179
:100780000912A4EB0121C8B203F0DEFC03F05AFD0C
:1007900003F00EFDA12003F0D7FC03F053FD002071
:1007A00003F09CFC064603F029FD304670BD2DE9A0
:1007B000F04105460E461746002409E0E20026FAFD
:1007C00002F2D1B22A1990B200F006F8601CC4B24D
:1007D000BC42F3DBBDE8F08170B504460E4603F081
:1007E000E7FC2546E11704EB11610912A02202EB98
:1007F0004101C8B203F0A8FC03F024FDE11704EBAB
:1008000011610912A4EB0121C8B203F09DFC03F0B1
:1008100019FD304603F098FC03F014FD03F0EEFCE4
:100820000A2002F0CBFC70BD00BFFEE770477047A6
:1008300070B504461D460023B5F5804F13D154F81A
:1008400022300C480340D1E9000640EA06108E68C9
:1008500040EA06208E8940EA06408E693043034311
:1008600044F8223003E06FF0704044F8220000208A
:1008700070BD00000000F0CF10B5034600220868EC
:1008800053F8202012480240D1E901042043CC68EB
:1008900020430C6920434C6920438C692043CC6978
:1008A00020430C6A20434C6A20438C6A2043CC6A64
:1008B0002043CC6B20430C6B2043024388680828FC
:1008C00001D142F04002086843F82020002010BD0A
:1008D0008000F0FF30B503460024501C53F8204040
:1008E00004F04044D1E9000540EA05108D6840EA73
:1008F00005208D8940EA0545088A401E45EA0055D5
:10090000087D801E45EA00608D6928430443501C21
:1009100043F82040002030BD2DE9F0430446C5686F
:1009200087B090468946002001F056FA064625B168
:10093000287910B146F0020001E026F0020001F033
:100940004BFA2069012558B1D4E902128DE826003E
:10095000039563882288046841464846A0471EE004
:10096000124F134B214638681B68427CE068984759
:1009700030B9E088012801D0002001E03868806BA0
:10098000A288E388A1680095CDE90410CDE9023280
:100990000195638822884146484607F00FF907B061
:1009A0003046BDE8F04301F017BA0000E400002033
:1009B000D40000200E4810B5006801F0F7F90D488A
:1009C000006801F0FEF9012001F050FA002001F06A
:1009D0005BFA002001F068FA002001F0FDF90648FA
:1009E000006801F005FABDE81040002001F010BADF
:1009F000E0000020DC000020D80000202DE9F04FAE
:100A0000DFF828B191B04FF0FF35DBF80030B3F9D3
:100A100022100691DE69B3F92490F469A18981421C
:100A200006D8E289824203D3471AD4F8008012E044
:100A3000D4E9018100296FD00A8882426CD84D88A0
:100A4000854269D3801A82B2486800EB8200B0F90F
:100A50000070B0F90250781C5ED0307EA17C10FB93
:100A600001FA217CCDE90701B3F92A60304608F08C
:100A700097F9C0B20E90DBF8000007FB0A81A37C57
:100A8000826B0127CDE90412CDE90273C069089A8F
:100A9000C17E807ECDE90001DDE90603494607F00D
:100AA0008DF8681C18D046F0020008F079F9DBF8E0
:100AB0000000A37C05FB0A81826BCDE90273CDE9BE
:100AC0000412C069089AC17E807ECDE90001DDE98B
:100AD0000603494607F072F8DBF800005D46C0697E
:100AE000417E007E814214D9022E12D086F004008D
:100AF00008F056F92868C069027EC37E12FB039194
:100B0000437E857E089A06984B4412FB050207F047
:100B100089FB0E9808F044F9DBF80000627C418CF8
:100B20001144418411B0BDE8F08F0000E4000020C2
:100B300004480068C069C06909B1027C0A60407C51
:100B400070470000E4000020022008807047C06960
:100B500082898A4202D8C2898A4210D2806880B1D2
:100B600002888A420DD843888B420AD3406800EB42
:100B70008100A0EB8200B0F90000002801DB012019
:100B800070470020704700002DE9F0410025154E08
:100B9000154C18E02069C5EB051700EBC700702263
:100BA000001D3168FFF79DFB2069002140F83710D8
:100BB00000EBC70000F10C018161011D0A1DC0E9B5
:100BC0000F126D1C4164A0688542E3DB0CF064FFEA
:100BD0002169C0EB001001EBC000001D3060BDE8D2
:100BE000F0810000E4000020BC01002070B5104935
:100BF0000E480860084602F08FFA0D4C143CA068BD
:100C0000C0EB0010C500284600F06CF8094B2061CD
:100C10002A461B68002198474FF0FF30206001F002
:100C20009BFDBDE870400CF037BF000011E10008EB
:100C3000D0010020A401002010B5040009D000F06C
:100C400067FB20460AF0D2FB044601F05FFD204618
:100C500010BD002010BD000038B5054600F058FB5F
:100C60002846FFF7E9FF04000AD000F0BBF8064B66
:100C700000902A461B6800219847684600F0F0F86B
:100C800001F044FD204638BDA4010020024A106056
:100C900021F0030050607047A8D3012010B5040074
:100CA00011D000F035FB0848042101EBC401406B72
:100CB000415848680AF052FB20460DF05DFBBDE844
:100CC000104001F023BD10BDE8D20120002805D05E
:100CD000034AD16B016001B14860D06370470000E6
:100CE000E8D201202DE9F04104460CF0C9FF284864
:100CF000E41C24F00305016C2D1DA94200D90D460A
:100D0000C46B13E054F8042CAA420ED184B12168BC
:100D100009B162684A60616809B122680A60C26B01
:100D2000A24231D12168C1632EE02468002CE9D1B0
:100D30008046816BC0680F1857F8040C3E1A306863
:100D400038B100200EF0F8FD57F8040C3E1A306858
:100D5000D0B97068A84217DB3044441B3046241DCC
:100D60000EF0A2FDD8F80C10491BC8F80C10D8F8EA
:100D700014102944C8F814107068401B02D0314682
:100D80000AF0ECFA44F8045C2046BDE8F08100006B
:100D9000E8D2012010B500240CF072FF0C490F209E
:100DA00001EBC002526C1AB101EBC000406C08E0CC
:100DB000401EF5D508E04168A14200D90C46806884
:100DC00010B180680028F6D1A4F10C0010BD00001D
:100DD000E8D2012002488169491C81617047000006
:100DE000E8D201200549CA69521CCA61496B01EB6E
:100DF000C0010A78521C0A7000F04AB8E8D20120FB
:100E000010B500F085FAFFF7C5FF64220849B0F578
:100E1000800F04D990FBF2F4086A444303E0096AA6
:100E20004143B1FBF2F401F071FC204610BD00001B
:100E3000E8D201200549102805D94A68B0EB520FC5
:100E400002D3500800E0102088607047A8D301202A
:100E500002488169491E816170470000E8D2012083
:100E60000A4902684B6B52F8082C03EBC202137854
:100E7000022B03D3CB690BB15B1ECB611178491EEA
:100E8000117000210160084670470000E8D201207F
:100E90000349042202EBC000496B08580830704730
:100EA000E8D2012050F8080C704710B5C2B2CBB29E
:100EB000D21A00D5524293B25B43C0F30722C1F36A
:100EC0000724121B00D55242000C92B2A0EB114035
:100ED00002FB023200B2002801DA404200B280B2C6
:100EE00000FB002010BD10B50021084600F0B6F947
:100EF00043F6FF725042BDE810401346014600F031
:100F000001B800002DE9FC411C4615460E46074677
:100F100000F0FEF9042007F043FF804612484069C4
:100F2000C16C006D0F4406440D440444ADF80070DC
:100F3000ADF80450ADF80260ADF80640684609F01F
:100F4000B1FE07E023462A463146384607F06AF9E3
:100F500009F06AFE0028F5D1404607F021FF01F0B4
:100F6000D5FBBDE8FC810000D00000202DE9F04158
:100F70001C4616460D460746022B02DB0020BDE844
:100F8000F0811C20FFF7AEFE0028F8D00DB10561FE
:100F90000AE0094A52F8241009B905E011460A6826
:100FA000002AFBD109690161846186820021016008
:100FB0004160C0E90217E2E71001002070B51D464C
:100FC000FFF7D4FF040009D000F00EF8E0680068D5
:100FD00020B90348006800EB85008465204670BD99
:100FE000E4000020FFF772BE70B5C0B38269022A28
:100FF00036DA2149531C0C789C4200DA0B701F4CE6
:1010000054F8221019B944F8220032E019464B680E
:10101000002BFBD106E0CB68C5681B682D68AB428E
:1010200003DD09680029F6D11AE0C1B1CB68C668B2
:101030001B683668B3420CD1838A012B05D008E0C7
:101040001946DB681B68AB4203DB0B68002BF7D14A
:1010500029B14B6833B118604A68426004E0FFE789
:10106000012070BD44F822004860884200D1002170
:101070000160002070BD00002E0100201001002042
:1010800010B503E00468FFF7AFFF20460028F9D150
:1010900010BD000010B50C4B8269002153F82240AE
:1010A000844205D1046843F82240026802B15160CD
:1010B00042680AB10368136002680AB1436853606A
:1010C0000160416010BD0000100100200020704749
:1010D000022801DB00207047054951F8200004E098
:1010E000C16809680029F6D000680028F8D1704767
:1010F000100100202DE9F041044601F028FB0619FB
:10110000164F1FE000F05AF83868844200DD0446AC
:10111000A04600F0FDF812480568FFF75BFE2C00C2
:1011200017D000BF01F0F2FA641EFBD1404601F077
:1011300003FB1DB100F0ECF86D1EFBD1FFF788FE3C
:1011400001F0E4FA01F003FB341A002CDADCBDE80C
:10115000F081404601F0F0FAF0E700005C01002069
:10116000C80100207CB514460D46064600F0D0F8B4
:1011700011480068C16C006D0D4404443188681E3C
:101180000844ADF80400ADF800507188601E0844B2
:10119000ADF80600ADF80240684609F083FD06E0B0
:1011A000224629463046FFF7B7FB09F03DFD0028EF
:1011B000F6D101F0ABFA7CBDE400002010B50024AC
:1011C00000E0012400F004F80028FAD1204610BD08
:1011D0000B4810B50068002410B1804700B101240D
:1011E00009F0F2F900B101240648006810B1804707
:1011F00000B101240448006800B18047204610BDBA
:10120000F00000201C01002018010020034951F8C3
:101210002000C1688A6A08211047000010010020E0
:1012200070B50C46054600F073F82146284601F0DB
:101230004FFEBDE8704001F069BA0000024951F864
:10124000200000690068704710010020024951F831
:1012500020000069406870471001002070B50C46FE
:10126000054600F055F8044800684584848401F080
:101270004DFA002070BD0000E40000202DE9F0418F
:101280001D48016821F0010101601C4801268660AB
:1012900081680029FCD11A49016000681949884217
:1012A00000D0FEE701F06AFB174C2E20207001F001
:1012B00052FA16480CF098FC0FF0D4FA074607F0E3
:1012C0001FF810B107F030F838B907F036F80546C6
:1012D00007F01FF8294607F05DFD0021084600F0E1
:1012E000A5FD09F0E5F9FFF74FFCA06900B18047C3
:1012F000A6703846BDE8F081002000E000300240D2
:10130000C2A507F4CDB5E8B5D0000020B4D30120C4
:1013100070B5184CE06820B101F015FA6168884298
:1013200004D001F059FA01F00EFA6060E068401C48
:10133000E06001281CD10CF0AFFB05462068854217
:1013400016D0002813DBFFF7C1FE01462068C0EB72
:101350000012206900EBC2025167C5EB0511064A75
:1013600000EBC100011D1160406FFFF789FE256091
:1013700070BD0000BC010020E40000201CB504008A
:1013800004D10E480068046E002C16D0FFF7C0FF91
:101390002046FFF727FD009044696846FFF760FD8F
:1013A0004CB12046FFF71EFD01908168896888478F
:1013B00001A8FFF755FD01F0A9F91CBDE4000020CC
:1013C00001490A4600F002B801F0FFFF2DE9F043A1
:1013D00087B015460C465FEA000846D0FFF798FF35
:1013E000002000F0F9FC814621480068066E404666
:1013F000FFF7F8FC00900068806900F0BBFC07462E
:1014000040F6FF70C44204D10098B0F90440B0F92E
:1014100006500098611E0289ADF804401144ADF8F1
:1014200008104189681E0844ADF80650ADF80A005E
:1014300008F016FF6846FFF713FD01A809F032FC1B
:1014400006E02A462146404600F0D0FA09F0ECFBBF
:101450000028F6D1384600F08DFC304600F090F9B7
:10146000484600F0B9FC01F051F907B0BDE8F0833F
:10147000E40000202DE9FE4F984691468A468346B7
:1014800000270C9EFFF744FF184819490068407C6C
:1014900051F82040E1680968042903D02468002C31
:1014A000F8D100E01CB9FFF713FE041E1BD0E06862
:1014B0000121C26A20469047050011D02469A06826
:1014C0008047401C02D10B4C46F001060096CDE946
:1014D000015443464A465146584600F0E5F907464E
:1014E00001F014F93846BDE8FE8F0000E40000204A
:1014F00010010020243B010838B504001CD0FFF780
:1015000007FF0E480068006EA04201D100F024FCE5
:101510002046FFF767FC0090406908B101F0DFF852
:1015200000980068FFF75EFD6846FFF799FC2046CB
:10153000FFF7B4FB01F0EAF838BD0000E40000203A
:101540002DE9FF4F83B09A468B460746FFF7E0FE32
:10155000DFF83891D9F80000447C4D480057012845
:10156000204606DD06F0D2FE0546204606F0E2FEE5
:1015700005E006F0B3FE0546204606F0B5FE04463B
:101580001FB302A901A8FFF74BFEB7F9000000281E
:1015900000DA0020B7F902608046002E00DA00264B
:1015A00001984119B7F90400491E0CF03CFD0546AD
:1015B00002980119B7F90600491E0CF034FDA5EB9D
:1015C0000802841B521C641C03E04FF000084646CE
:1015D0002A46BAF1000F01D1C4F1000A002A51DDF8
:1015E000002C4FDD10980090534631464046FFF7DF
:1015F00041FF5FEA000A10D000F07CF80746A042E5
:1016000006D0D9F80000806C10B1322109F01EFE1E
:10161000504600F0B5F8002523E059460598884764
:1016200001F074F8012007B0BDE8F08F611BB942EA
:1016300002DA504600F088F83DB172194146504632
:1016400000F0C6F85046FFF799FE594605988847BE
:101650001048016809B1002088475046FFF7B0FEE6
:101660003D44A542E2DB5046FFF746FF002000F074
:1016700087F8A74206D0D9F80000806C10B133215A
:1016800009F0E4FD01F042F80020CCE7E40000207E
:101690002C010020F402002038B505004FF00004B2
:1016A00011D0FFF735FE2846FFF79CFB009000683D
:1016B00000698068804707F033FD04466846FFF7FD
:1016C000CFFB01F023F8204638BD38B504000ED01A
:1016D000FFF71EFE2046FFF785FB00F1180400907F
:1016E0006846FFF7BDFB01F011F8204638BD002029
:1016F00038BD000038B504460025FFF709FE1CB9C7
:1017000008480068046E44B12046FFF76BFB009068
:10171000B0F90A506846FFF7A3FB00F0F7FF284630
:1017200038BD0000E400002070B5054600242846BE
:101730000AF072F8641C18B1BDE8704000F07AB885
:10174000052CF4DB70BD000038B50C46050004D153
:101750000A480068056E002D0FD0FFF7D9FD284616
:10176000FFF740FB0090B0F90A10A14200DD448170
:101770006846FFF775FB00F0C9FF38BDE4000020A4
:10178000F8B50546FFF7C4FD104E3068046ECDB1C4
:101790000CB100F0E1FA08F057FE2846FFF722FBF3
:1017A000009031680D660068FFF71EFC6846FFF781
:1017B00057FB07F03DFB07F0F9F900BF00F0A6FF6B
:1017C0002046F8BD00F0C8FAF8E70000E400002069
:1017D0007CB515460E46040004D115480068046E19
:1017E000002C24D0FFF794FD2046FFF7FBFA2DB222
:1017F0000090C58034B2848007F0D8F90098406921
:1018000080B1FFF7EFFA009A0190B2F908108180D9
:10181000B2F90A20C28011B10AB10480458001A842
:10182000FFF71EFB6846FFF71BFB00F06FFF7CBD58
:10183000E400002001490A4600F002B801F0FFFF71
:101840007FB515460C4606002DD0FFF761FD3046EA
:10185000FFF7C8FA40F6FF710190CC4203D1B0F90E
:101860000440B0F906500289611E1144ADF80840E9
:10187000ADF80C104189681E0844ADF80E00ADF8B3
:101880000A5001A8FFF7ECFA02A809F00BFA06E0EB
:101890002A462146304600F091F809F0C5F90028A3
:1018A000F6D100F033FF7FBD2DE9FF4FDFF8E8B040
:1018B00083B01C46DBF80010DDE9106092464FF063
:1018C00000084B7C42461299FFF750FB050060D0A0
:1018D00028698068804707F023FC81460AFB09F1EC
:1018E000C91DCF08FFF78CFAF10705D1C11700EB2E
:1018F0009170801000EB4000002C09DC1FB11838FB
:10190000B0FBF7F000E000206442A04200DC044697
:10191000F00707D10090DDE903012346524600F0AD
:1019200063FE8046002C03DC2846FFF75BFB30E0BB
:1019300004FB07F01830F10702D0FFF77DF901E052
:10194000FFF78AF906001CD0FFF74CFA01900560FA
:10195000039981800499C180A0F808A04481C0F84F
:101960001480C0E9037901A8FFF77AFA1298AE60F3
:101970002861DBF80000407CA861304607B0BDE874
:10198000F08F2846FFF72EFBB8F1000001D0FFF7DB
:1019900085F90020F2E70000E4000020054B30B498
:1019A0001B68054C5B7C54F823301B6930BC0EF07F
:1019B000EBB90000E400002010010020F8B5154646
:1019C0000E460746FFF70EFA009000681621C06821
:1019D000426A0020904704466846FFF741FA002C0F
:1019E00003D02A4631463846A047F8BDF8B516461A
:1019F0000F46050012D0FFF7F5F9009044696846DC
:101A0000FFF72EFA2846FFF747FE0346082800DDB9
:101A10002CB13246394628460EF076FAF8BD3246E9
:101A2000394628460EF010FCF8BD10B5002821D02C
:101A300009B30AB3B1F90040B2F900309C4200DAB0
:101A400023460380B1F90240B2F902309C4200DA29
:101A500023464380B1F90440B2F904309C4200DDD2
:101A600023468380B1F90610B2F90620914200DCCA
:101A70001146C18010BD11460A6802604968416084
:101A800010BD00280BD003880B44038083881944C1
:101A90008180418811444180C1881144C1807047D0
:101AA00070B50025FFF734FC094CD4E900208242D0
:101AB0000AD0D2E9005610460CF048F820603146B2
:101AC000284608F0E9FE012500F020FE284670BDFA
:101AD000AC0100202DE9FC5F1F4614460E4605466A
:101AE000FFF716FCFFF776F94FF0010B02232246B1
:101AF00039462846CDF800B00BF028FB05007DD014
:101B0000AC68D5F800A004FB06F808F10700C1177F
:101B100000EB51704FEAE00909FB08F101F13000D8
:101B2000FFF79AF80090A0B3FFF75CF901906F6897
:101B30004761AF688761A0F806B0A0F80490A0F8EC
:101B4000028000F11C0200F13001A0F80080C0E921
:101B5000021200F128030020107102271760936021
:101B600018606FF07F405860002036E00846802201
:101B70004FF0000C20E0002318E000BF9AF800703E
:101B80005FEA87784FEAC7770AD51FB1077817430E
:101B900002E028E0077897430770520803D004E07A
:101BA000002FF7D1F2E78022401C5B1CB342E5DB3B
:101BB0000AF1010A0CF1010CA445DCDB012707E066
:101BC00001EB090080464A46FEF78BFB41467F1C2D
:101BD000B742F5DB49440BF101008346A042C5DB67
:101BE00001A8FFF73DF92DB128680BF0FBFD284651
:101BF0000BF0F8FD01240026154D00E01EE055F81D
:101C000024000BF0EFFD45F82460641C282CF4DD63
:101C1000104F3C680EE0E56A0BD0A0680BF0E2FDC7
:101C2000E0680BF0DFFD20690BF0DCFD20460BF0D7
:101C3000D9FD2C46002CEED13E6002E04FF00000B2
:101C4000009000F063FDFFF703F90098BDE8FC9FEA
:101C500024D4012038010020002801D0FFF71EB84D
:101C60007047F8B514460D46060017D0FFF750FB35
:101C70003046FFF7B7F800F11C0200F13003009086
:101C8000C0E9023200F12801416222462946FFF7ED
:101C900069FA6846FFF7E4F800F038FDF8BD000087
:101CA0002DE9FC41154DDDE908742D68B5F9086092
:101CB000864200DD3046B5F90C60964200DA3246C5
:101CC000824219DBB5F90A608E4200DD3146B5F972
:101CD0000E509D4200DA2B468B420DDB00E02C4675
:101CE000E5682D6825B1042D02D02568002DF6D1B8
:101CF000CDE9007406F092FCBDE8FC81E400002010
:101D0000B0F90220B1F906309A4213DCB1F9022091
:101D1000B0F906309A420DDCB0F90020B1F9043078
:101D20009A4207DCB1F90010B0F90400814201DCED
:101D30000120704700207047014602487022006869
:101D4000FEF7CFBAE4000020024970220968FEF7CE
:101D5000C8BA0000E400002010B5FFF7D9FA06F079
:101D6000DBFE07F065F808F07BFABDE8104000F0F4
:101D7000CDBC000070B50B4D04462868467CFFF7CB
:101D8000C7FA022C09D22046FFF7A2F928B1286829
:101D90004474FFF7E1FF0448046000F0B7FC3046EC
:101DA00070BD0000E40000202802002010B50446A9
:101DB000FFF7AEFA204606F0CFFEBDE8104000F077
:101DC000A5BC10B50446FFF7A3FA204606F0FCFEBA
:101DD000BDE8104000F09ABC10B50446FFF798FA31
:101DE000204606F0DDFF044600F090FC204610BDC2
:101DF00070B50446FFF78CFA04480068C56904B161
:101E0000C46100F083FC284670BD0000E40000209F
:101E100070B50546FFF77CFA03480068847E857636
:101E200000F074FC204670BDE400002070B50C4644
:101E30000546FFF76DFA09482246058008480480E8
:101E400008480068417C084850F82100C1680B6AC6
:101E500029469847BDE8704000F058BC3401002086
:101E600036010020E40000201001002070B5054676
:101E7000FFF74EFA03480068047E057600F046FC42
:101E8000204670BDE400002070B50446FFF740FA1C
:101E900004480068B0F92C50848500F037FC2846CF
:101EA00070BD0000E400002070B50446FFF730FA72
:101EB00004480068B0F92A50448500F027FC284601
:101EC00070BD0000E400002002480068002800D037
:101ED00000477047F401002002498A6802B988600F
:101EE000FFF7F2BFAC01002010B504000ED0FFF7E1
:101EF0000FFA20460DF0F2FC20460DF015FF2046AB
:101F0000FEF7CCFEBDE8104000F000BC10BD38B5B7
:101F10000C46050011D0FFF7FBF92846FEF762FFDB
:101F200000908089204201D0012400E0002468460E
:101F3000FEF796FF00F0EAFB00E00124204638BDE2
:101F400038B50546002028600648046844B120469C
:101F5000FEF748FF0090006928606846FEF780FFA2
:101F6000204638BDC802002038B504004FF00000FC
:101F70000D46086011D02046FEF734FF00908468BB
:101F800044B16846FEF76CFF2046FEF72BFF009039
:101F9000006928606846FEF763FF204638BD0000F0
:101FA0002DE9F04F00242DED028B9BB0DFF800B43B
:101FB000DDE9266ADDF8A090A6469FEDFE0ACBF883
:101FC0000040022839D00DAD6F460DF10C0C0328EE
:101FD0007EDB00BF4FF0000469D100BF53F82480BE
:101FE00000EE108A0DF1200808EB8408B8EEC00A54
:101FF00088ED000A56F8248000EE108A05EB84086C
:10200000B8EEC00A88ED000A51F8248000EE108A6C
:1020100007EB8408B8EEC00A88ED000A52F8248065
:1020200000EE108A0CEB840804F10104B8EEC00A3B
:10203000844288ED000AD1DB42E148680968401A11
:1020400000EE900AD3E90010F8EEE01A401A00EE14
:10205000900AD948F8EEE00A81EEA01A00EE901A34
:10206000F8EEE00A80ED001A61EE600A80ED010AE8
:10207000C0ED020A80ED030A51681268891A00EE69
:10208000101AD6E90012B8EEC01A521A00EE102A41
:10209000B8EEC00AC1EE000A00EE101AB8EEC00A8F
:1020A000C0ED040A20EEC00A80ED050A8EE10CEBBB
:1020B000840888ED000A07EB840888ED000A05EB28
:1020C000840888ED000A0DF1200808EB840800E080
:1020D000B1E1641C88ED000A032CE8DB002794E0E2
:1020E00053F82750DDED0A0A00EE105AB8EEC00A88
:1020F00030EE800A8DED0A0A56F82740DDED0F0A12
:1021000000EE104AB8EEC00A30EE800A8DED0F0ADC
:1021100051F82780DDED020A00EE108AB8EEC00A01
:1021200030EE800A8DED020A52F827C0DDED050A77
:1021300000EE10CA7F1CB8EEC00A30EE800A8DEDAA
:10214000050A00EE105ADDED080AB8EEC01A00EEDE
:10215000105AB8EEC00A41EE000A00EE105AB8EE6E
:10216000C01A00EE104ACDED080ADDED090AB8EEFE
:10217000C00A41EE000A00EE104AB8EEC01A00EEA6
:10218000104ACDED090ACDED0D0AB8EEC00ADDED1D
:102190000E0A41EE000A00EE105AB8EEC01A00EE28
:1021A000108ACDED0E0ADDED000AB8EEC00A41EE50
:1021B000000A00EE104AB8EEC01A00EE108ACDED0B
:1021C000000ADDED010AB8EEC00A41EE000A00EE99
:1021D000105AB8EEC01A00EE10CACDED010ADDEDBE
:1021E000030AB8EEC00A41EE000A00EE104AB8EE4B
:1021F000C01A00EE10CACDED030ADDED040AB8EEF8
:10220000C00A41EE000ACDED040A8742FFF668AF2E
:10221000DDED080A9DED0A0A80EE801A8DED081AA0
:102220009DED091ADDED0F0AC1EE201ACDED091A58
:102230009DED0D1AC1EE001ACDED0D1A9DED0E1A91
:10224000C1EE201ACDED0E1A9DED001AC1EE001A56
:10225000CDED001A9DED011AC1EE201ACDED011A47
:102260009DED031AC1EE001ACDED031A9DED041A7F
:10227000C1EE201A01EE100AB8EEC11ACDED041A13
:10228000C0EE011A00EE100AB8EEC00A80EE801A05
:1022900000EE100ACDED0A1AB8EEC00A8DED0F1A45
:1022A000DDED020A80EE801A00EE100AB8EEC00AD8
:1022B0008DED021ADDED050A80EE801A8DED051A0E
:1022C000DDED081ADDED0A0ADDED0E4A9DED0F2A5F
:1022D00071EEE05A9DED091A34EEC25ADDED0D3A69
:1022E00031EE604A25EE850A33EEC23A04EE430A27
:1022F000B5EEC00AF1EE10FA6CD09DED006ADDED8E
:10230000022ADDED016A2C4836EE627A76EEE27A38
:1023100027EE058A07EEC38A67EEA57A47EE447A70
:10232000C8EE008A87EE807AC0ED008A80ED017ADF
:1023300020EEA67A01EE627A61EEA22A40EEC62A6B
:1023400027EE237A04EEA27A61EE062A41EEE62A0F
:1023500002EE227AC7EE002AC0ED022A9DED036A42
:10236000DDED052A76EE626A66EE857A9DED045A09
:1023700035EE627A47EE437A87EE803A80ED033A93
:1023800027EE253A06EEC43A83EE004A20EE853A5F
:1023900001EE623A61EEA22A40EEC62A23EE233A0B
:1023A00061EE060A04EEA23A80ED044A06E011E06E
:1023B000D80100200000000020D5012041EEC50A10
:1023C00002EE203AC3EE000AC0ED050A0120CBF868
:1023D000000002E0BEF1000F2DD05C460021C4E9F0
:1023E00001A908460BF0C8FD0021E06008460BF08B
:1023F000EBFD2061A9F10101AAF101000BF0BCFD88
:102400006061A9F10101AAF101000BF0DDFDA061FD
:102410006269E168914201DDE260616121698142A6
:1024200001DDA1612061206828B100201BB0BDEC56
:10243000028BBDE8F08F0120F8E700002DE9FE4394
:10244000DFF8B89005000A9ED9F814C04FF00000DC
:10245000CCF3410709F1300439D0012D02D001201D
:10246000BDE8FE83DFF8948008F12008C8E9001277
:10247000052131EA0C013ED0012F3CD0C4E90036E1
:10248000012199F80030A9404A46194201D00023A1
:10249000137013781943C9B289F800100329DFD1EA
:1024A000174E3068407C05F031FF05463068407CAF
:1024B00005F040FF114B0094CDE901502833A3F102
:1024C0000802A2F108010220FFF76AFDC8E7DFF861
:1024D0002C80032F08F11808C8E9001208F1100138
:1024E00006D00CF00502012A02D0C1E90036C7E788
:1024F000C1E90063C4E7C4E90063C1E760010020EB
:10250000E40000200149486170470000600100209C
:102510002DE9F0411E46069C1746884605463A4678
:10252000A8687F1C3346D0F804C041462846E047DF
:10253000641EF4D1BDE8F08170B5B0F90040091B0C
:10254000B0F904408C422CDD00F11404B0F90250C3
:102550000069521B02FB0040CA1800EBE104521E46
:10256000D010B0EBE10501F007034FF0FF0102F0DE
:10257000070221FA03F0C2F1070201FA02F1CEB21A
:1025800021780FD001436D1E04F8011B002D05DDDD
:10259000FF2229462046FDF7C5FE2C442078304313
:1025A000207070BD30400143217070BD10B5B0F98E
:1025B0000030B0F90240C91A00F114030069121B7F
:1025C00002FB003000EBE10001F0070302788021FC
:1025D000D9400A43027010BDB0F906100269514398
:1025E0001430FDF7A6BE00002DE9F843804602F145
:1025F0000F000011470003FB07F01C4615468946F3
:102600001430FEF729FB060018D0FEF781FE304695
:10261000FEF7E8FB0090A0F80080A0F8029085800B
:10262000C480074981600121818107616846FEF706
:1026300017FC00F06BF83046BDE8F8830020FBE79C
:10264000B03B010870B5B0F90660B0F904400B6802
:1026500000F1140596421BDD0069A34202FB005005
:1026600000EBE30214DA641EE010A0EBE30512F8BD
:10267000010B03F00704A040C4B206E045B10833E3
:1026800012F8014B23F007036D1E002CF6D004E076
:10269000002070BD6006040E5B1C2006FAD5FF2CDE
:1026A00007D0184602E06406240E401C6606FAD4E1
:1026B00000E0D81DC443640705D006E012F8014BC2
:1026C000FF2C09D108306D1EF8D5C01A401C0B60D4
:1026D00070BD6206140E401C2206FAD4F5E738B528
:1026E0000546FEF715FE2846FEF77CFB0090818923
:1026F000491E0CB284816846FEF7B2FB14B9284625
:10270000FEF7CCFA00F002F838BD00000348C168BB
:10271000491EC16001D100F06FB87047BC010020B4
:1027200010B54FF4C8310348FEF7B0FA5020FEF759
:1027300081FB10BD0403002010B5044620460EF0B6
:10274000FFFD10BD704710B50FF03AFB10BD10B57E
:102750000FF04CFB10BD704710B501200FF020F8B2
:102760001B4908600846006808B1012000E000200D
:1027700050B900BF502080F31188BFF34F8FBFF3D3
:102780006F8F00BF00BFFEE70322002101200FF082
:1027900018F8104908600846006830B100231A464E
:1027A00019460C4800680FF087F80A48006808B11D
:1027B000012000E0002050B900BF502080F31188B4
:1027C000BFF34F8FBFF36F8F00BF00BFFEE710BD99
:1027D000000000200400002010B50648006808B979
:1027E000FFF7BAFF4FF0FF31024800680FF038F9E9
:1027F00010BD00000000002010B500231A46194645
:10280000024800680FF058F810BD000000000020DA
:102810000EB508B102AA00E00022002301A9684613
:1028200000F008FB0EBD0000074910B50C7818B188
:1028300001200870801E03E0002008706FF07F40C8
:1028400001F058FD204610BDD100002010B5082A27
:102850000EDC0346012A18D0022A56D0042A76D06C
:1028600010F8042B03F8012B491EF9D1012010BDEB
:10287000102A08DC4FEA000230F8043B22F8023B41
:10288000491EF9D1F2E7002010BD10F8042BD20741
:10289000120E491E34D010F8044B491E04F00104F6
:1028A00042EA84122CD010F8044B491E04F00104B3
:1028B00042EA441224D010F8044B491E04F00104EB
:1028C00042EA04121CD010F8044B491E04F0010423
:1028D00042EAC40214D010F8044B491E04F001046B
:1028E00042EA84020CD010F8044B491E04F00104A3
:1028F00042EA440204D010F8044B04F001042243DD
:1029000003F8012B0029C0D1B0E710F8042B92077F
:10291000120E491E15D010F8044B491E04F0030492
:1029200042EA04120DD010F8044B491E04F00304CF
:1029300042EA840205D010F8044B04F00304224359
:10294000491E03F8012B0029DFD18FE7FFE710F8BC
:10295000042B1207120E491E05D010F8044B04F088
:102960000F042243491E03F8012B0029EFD17DE714
:1029700038B50024009400F01DF838BD0B4810B5A0
:10298000416B002910D101214163FFF7C9FEFEF719
:102990002DF906F07FFA0549054838310860BDE891
:1029A0001040084600F0B8BB10BD0000D000002069
:1029B000D9E000082DE9F0410D460699044601B919
:1029C00001461F68082A09DC0E46012A1AD0022A8D
:1029D0005BD0042A7DD0082A13D18DE0102A07DCB1
:1029E000D3F810C00E46BCF1000F04D0022389E0DA
:1029F0000020BDE8F08101CCB84726F8020B6D1E1F
:102A0000F9D189E001CCB847C0074FEA10686D1EC4
:102A100036D001CCB84748EA801000F0FF086D1EA0
:102A20002ED001CCB84748EA401000F0FF086D1ED8
:102A300026D001CCB84748EA001000F0FF086D1E10
:102A40001ED001CCB84748EAC00000F0FF086D1E58
:102A500016D001CCB84748EA800000F0FF086D1E90
:102A60000ED001CCB84748EA400000F0FF086D1EC8
:102A700006D001CCB84740EA080000F0FF086D1E00
:102A800006F8018B002DBDD146E001CCB847800788
:102A90004FEA10686D1E16D001CCB84748EA001006
:102AA00000F0FF086D1E0ED001CCB84748EA800048
:102AB00000F0FF086D1E06D001CCB84740EA0800C0
:102AC00000F0FF086D1E06F8018B002DDDD123E01C
:102AD000FFE701CCB84700074FEA10686D1E06D02B
:102AE00001CCB84740EA080000F0FF086D1E06F868
:102AF000018B002DEDD10FE0D3F810C0BCF1000F19
:102B000004D001232A462046E04705E001CCB8471F
:102B100006F8010B6D1EF9D101206AE72DE9FF4F80
:102B20008DB00020DDF86CA0164600901D460446CE
:102B30000246CAF8000008AB03A902A800F07AF91F
:102B400018B1002011B0BDE8F08F0898854200DD73
:102B50000546624F0B9562493868407C51F8201059
:102B6000049109690691FEF751FB05903868407C95
:102B7000FEF76CFB5B498146884204D05A4989457F
:102B800001D0012000E000200A9001CE1A99884768
:102B90008346000E079077D0009870BB0D9800EB2D
:102BA00004084E480068B0F90800404503DDA0EB7A
:102BB0000807804600E000270299049801EB840191
:102BC00001EB8701CDE900100B990D98421809928D
:102BD0000E9B40461946521EFFF762F801200090F6
:102BE000059818280ADA0298DDE9052300EB84002D
:102BF00000EB8700E91B00F07BF812E00A9880B137
:102C0000029800EB840000EB87070998A0EB080806
:102C100049463868884701C7A8F101005FEA000803
:102C2000F6D1324BD86980B3DDE9020700EB8400AE
:102C300007EB8402CDE902022C4C361F3046E469D2
:102C40002B460299A047FF203168B0EB116F02D1EB
:102C50000299096804E0029A1268B0EB126F01D180
:102C6000039A1160029906F10406091D0291039965
:102C7000091D03916D1EE7D10397DAF8000040F0BB
:102C80000100CAF8000022E023E0FFE70798FF28D0
:102C900013D0C0F1FF0202981B6850F824102BF0EB
:102CA0007F409847039941F8240000BFDAF80000FC
:102CB00040F00101CAF8001005E00298039950F8AD
:102CC000240041F82400641C6D1E7FF45EAF03985D
:102CD00038E7039941F824B0E8E70000E400002059
:102CE00010010020EB830008E98300088002002027
:102CF0002DE9F05F0C1E16DD5E68014600EB8405D1
:102D0000082A12DC611E012A26D0022A47D0042A92
:102D10006AD0082A07D1071917F8010DB04745F8FE
:102D2000040D641EF8D1BDE8F09F102AFBDC5F693A
:102D30003FB12246BC46BDE8F04F02235DF804EBEC
:102D4000604701EB440700BF37F8020DB04745F874
:102D5000040D641EF8D1E6E700EBE10001F007077F
:102D600010F801A98146802020FA07F8B5F1040582
:102D70000AEA0800C7F10701C840B04745F804094E
:102D80003FB14FEA48604FEA10687F1E641EEFD1E2
:102D9000C9E719F801A907274FF00108F6E700EB8A
:102DA000A10001F0030710F801A981467900C020B5
:102DB00020FA01F84FF0060BB5F104050AEA080005
:102DC000ABEB4701C840B04745F804093FB14FEAB3
:102DD00088604FEA10687F1E641EEFD1A3E70327C7
:102DE00019F801A9B846F7E700EB6100012710F8D0
:102DF00001A9A7438146B900F02020FA01F84FF05D
:102E0000040B2D1F0AEA0800ABEB8701C840B0474E
:102E100045F804093FB14FEA08704FEA10687F1E79
:102E2000641EEFD17FE719F801A901274FF00F08C1
:102E3000F6E700002DE9F047224C06461F46A06940
:102E400090468946002540B90120A06104F128017F
:102E50001D480860084600F05FF9606930B91B48FA
:102E60000068606110B905F03CFA606107B1386034
:102E70004EB1A06830B960698000FDF733FFA060F3
:102E800000B901253060B9F1000F0AD0E06830B90F
:102E900060698000FDF726FFE06000B90125C9F8F0
:102EA0000000B8F1000F0AD0206930B960698000D5
:102EB000FDF718FF206100B90125C8F80000284679
:102EC000BDE8F08780020020C5E100082401002051
:102ED000044AB2F9002002600348B0F9000008601B
:102EE000704700003401002036010020B0F90030A6
:102EF000B1F90020934200DA0280B0F90230B1F952
:102F00000220934200DA4280B0F90430B1F9042083
:102F1000934200DD8280B0F90620B1F906108A42A2
:102F200000DDC180704770B5B1F90040B2F90030E2
:102F30009C4200DD23460380B1F90250B2F9024001
:102F4000A54200DD2C464480B1F90460B2F904507A
:102F5000AE4200DA35468580B1F90610B2F9062096
:102F6000914200DB1146C1809D4201DBA14201DAA2
:102F7000002070BD012070BD014602480068407C01
:102F800000F002B8E40000202DE9F843012689464C
:102F9000044602285DDA304F7A6802B190472E4D20
:102FA0005FEA090005F1100532D0012803D0B9F11C
:102FB000020F4ED118E055F8240088B92046FEF7DC
:102FC00087F8009018B3C0680D21426A68469047A0
:102FD00002003ED049460098904755F8240000264C
:102FE000401C45F8240034E02046FEF771F80090BC
:102FF00068B1C0680D21426A68469047040028D035
:10300000386800B1804749460098A047002620E074
:1030100055F82400A846012812D12046FEF758F89A
:10302000009068B1C0680D21426A6846904705006B
:1030300006D0386800B1804749460098A847002666
:1030400058F8241009B1012200E00022891A48F83A
:1030500024103046BDE8F883B002002030B581F07E
:103060007F43FF2480F07F4094EA116101D120F07A
:103070007F43010E11FB02F1B1FBF4F100F0FF15EB
:10308000C1F1FF0203F0FF14544301FB05444FF06C
:10309000FF15240A05EA1323C0F30720534340F029
:1030A000807001FB003104F0FF1001F0FF210843A4
:1030B00080F07F4030BD00002DE9F05F0646DDF86E
:1030C000389015460C4600200D99804688421ED245
:1030D000DFF840B00C9F4FF0FF0A02CE08CCAAEBFD
:1030E000116202FB09F2B2FBFAF0C2B221F07F409A
:1030F0001946DBF80030984720F07F4001C57F1E5D
:10310000EBD10A9804EB800408F10100DCE7BDE88C
:10311000F09F00008002002002490A6B42600863B1
:1031200070470000D000002010B5830702D520F8BA
:10313000021B521E530811D001EB0144042B09DB82
:1031400010C01B1F10C0042B40F8084B40F8044C63
:10315000F6DA01E010C05B1E002BFBD1D20700D0D5
:10316000018010BD10B504460CB9012010BD607976
:1031700020B900202071204600F006F8022060717E
:10318000012060710020F1E708B50A4A0168914208
:103190000FD100BF002100910749096841F4805117
:1031A000054A11601146096801F48051009100BF81
:1031B00000BF08BD003002403038024070B5044600
:1031C00000F07EF906462546681C10B104480078D8
:1031D000054400BF00F074F9801BA842FAD370BD0B
:1031E0006C00002000B587B0142102A8FDF7A1F8FB
:1031F0002A48006808B107B000BD012027490860CF
:1032000000BF002001902648006840F001002449DA
:1032100008600846006800F00100019000BF00BF90
:103220008814029002200390002004900220059050
:103230000C20069002A91B4800F03CF84FF6807065
:1032400002900220039000200490032005900C209F
:10325000069002A9144800F02DF84CF23370029049
:103260000220039000200490032005900C2006907B
:1032700002A90E4800F01EF84FF480500290022080
:10328000039000200490032005900C20069002A9D2
:10329000074800F00FF800BFADE70000580000201D
:1032A000383802400014024000100240000C024076
:1032B00000180240F8B502460B4600250024002005
:1032C0000021DCE0012606FA01F51E6806EA050485
:1032D000AC4273D15E68022E02D05E68122E13D10A
:1032E000CF0802F1200656F827004E07F70E0F26EA
:1032F000BE40B0434F07FF0E1E69BE403043CF08AB
:1033000002F1200646F8270010684F000326BE4051
:10331000B0431E7906F003064F00BE4030431060F4
:103320005E68012E08D05E68022E05D05E68112E00
:1033300002D05E68122E13D190684F000326BE4063
:10334000B0434F00DE68BE403043906050680126B5
:103350008E40B0431E79C6F300168E403043506055
:10336000D0684F000326BE40B0434F009E68BE4069
:103370003043D0605E6806F08056B6F1805F7DD144
:1033800000BF00260096404E366846F480463E4F09
:103390003E603E46366806F48046009600BF00BF99
:1033A0003A4E8F0856F827008E07370F0F26BE407B
:1033B000B043374EB24202D1002624E05EE0354EE3
:1033C000B24201D101261EE0334EB24201D10226A3
:1033D00019E0324EB24201D1032614E0304EB2421F
:1033E00001D104260FE02F4EB24201D105260AE09A
:1033F0002D4EB24201D1062605E02C4EB24201D13B
:10340000072600E008268F073F0FBE4030431F4EBF
:103410008F0846F82700264E3068A0435E6806F401
:103420008036B6F5803F00D12043214E3060361DF6
:103430003068A0435E6806F40036B6F5003F00D160
:1034400020431B4E361D3060361D3068A0435E6839
:1034500006F48016B6F5801F00D12043144E0836BE
:103460003060361D3068A0435E6806F40016B6F57D
:10347000001F00D120430E4E0C363060491C10292D
:10348000FFF420AFF8BD0000443802400838014086
:10349000000002400004024000080240000C02400C
:1034A000001002400014024000180240001C0240BC
:1034B000003C01400AB1816101E00B048361704767
:1034C000014800687047000064000020034800685D
:1034D00003490978084401490860704764000020E6
:1034E0006C00002010B50D48006840F400700B49D6
:1034F00008600846006840F480600860084600687C
:1035000040F480700860032000F0C6F8002000F04E
:1035100007F800F049F8002010BD0000003C024010
:1035200070B588B0044600250026002221461C20E4
:1035300000F074F81C2000F061F800BF002001903A
:103540001648006840F00100144908600846006809
:1035500000F00100019000BF00BF02A903A800F025
:103560006FF900F095F945000D48B5FBF0F0461EE7
:103570004FF080400B49086040F2E7310948C160D4
:10358000466000210161816000F041FC20B90548DE
:1035900000F058FC08B070BD0120FBE74038024045
:1035A00040420F00B895012008B500BF00200090F0
:1035B0001148006840F480400F49086008460068E0
:1035C00000F48040009000BF00BF00BF00200090CA
:1035D000081F006840F08050091F08600846006816
:1035E00000F08050009000BF00BF00220F21901E0D
:1035F00000F014F808BD00004438024001460846B7
:10360000002809DB00F01F0301229A4043099B00B8
:1036100003F1E023C3F8002100BF70472DE9F05FFC
:1036200080460D46164600270DF05AF807463946E3
:103630002A46334601F00700C0F1070ABAF1040F29
:1036400002D94FF0040A01E0C0F1070AD14600F1A7
:10365000040ABAF1070F02D24FF0000A01E0A0F10C
:10366000030AD4464FF0010A0AFA09FAAAF1010A3C
:103670000AEA020A0AFA0CFA4FF0010B0BFA0CFBE9
:10368000ABF1010B0BEA030B4AEA0B04214640465F
:103690000DF02EF8BDE8F09F00BF00F00702064BCA
:1036A00019684FF6FF031940044B0B4343EA02210C
:1036B000014B196000BF70470CED00E00000FA05F7
:1036C00070B504460D460CB9012070BD584800681D
:1036D00000F00F00A84209D255490D700846006855
:1036E00000F00F00A84201D00120EEE7207800F0A2
:1036F000020002281DD1207800F00400042805D122
:103700004C48006840F4E0504A490860207800F0D6
:103710000800082805D14748006840F46040454942
:1037200008604448006820F0F000A168084341495F
:103730000860207800F00100A8B36068012807D174
:103740003C4808380068C0F34040B8B90120BCE7E5
:103750006068022802D06068032807D1354808381D
:103760000068C0F3406048B90120AEE7314808382E
:103770000068C0F3400008B90120A6E72D480068A2
:1037800020F00300616808432A490860FFF798FEAB
:10379000064609E0FFF794FE801B41F2883188421B
:1037A00002D9032091E707E02248006800F00C00EE
:1037B0006168B0EB810FEDD11D48006800F00F008B
:1037C000A84209D91A490D700846006800F00F0098
:1037D000A84201D0012078E7207800F004000428F6
:1037E00007D11448006820F4E050E168084311490B
:1037F0000860207800F00800082808D10D4800680B
:1038000020F46040216940EAC1000A49086000F0E4
:103810004FF808490968C1F30311074A515CC840D1
:10382000064908600020FFF77BFE00204DE70000FE
:10383000003C024008380240D82201086000002005
:103840000F2202600D4A126802F0030242600B4A26
:10385000126802F0F0028260084A126802F4E05234
:10386000C260064A126802F46042D2080261044A49
:10387000126802F00F020A60704700000838024028
:10388000003C0240014800687047000060000020D2
:1038900000B5FFF7F7FF04490968C1F38221034A25
:1038A000515CC84000BD000008380240E822010811
:1038B0002DE9F047002400250026A1462548006890
:1038C00000F00C0020B1042805D008283AD105E00A
:1038D000DFF8849039E0DFF8849036E01D48001F5F
:1038E000006800F03F041B48001F006800F48000DF
:1038F00078B11A481749091F0968C1F38811A0FB5C
:1039000001700146224600233846FCF7B9FC054603
:103910000EE011480F49091F0968C1F38811A0FB87
:1039200001700146224600233846FCF7A9FC0546F3
:103930000848001F0068C0F30140401C4600B5FB6A
:10394000F6F902E0DFF8109000BF00BF4846BDE87E
:10395000F0870000083802400024F40000127A00CA
:10396000F8B504460CB90120F8BD207800F001003C
:10397000002874D0F948006800F00C0004280DD02D
:10398000F648006800F00C00082813D1F348001F27
:10399000006800F48000B0F5800F0BD1EF480838C4
:1039A0000068C0F34040002859D06068002856D114
:1039B0000120D9E700BF6068B0F5803F08D1E74833
:1039C0000838006840F48030E449083908601EE097
:1039D0006068B0F5A02F0DD1E0480838006840F4C9
:1039E0008020DE49083908600846006840F48030CD
:1039F00008600CE0D9480838006820F48030D749C6
:103A0000083908600846006820F48020086000BF7C
:103A1000606890B1FFF754FD054606E0FFF750FDE2
:103A2000401B642801D903209EE7CC480838006871
:103A3000C0F340400028F1D011E0FFF741FD0546FA
:103A400006E0FFF73DFD401B642801D903208BE70A
:103A5000C24808380068C0F340400028F1D12078FF
:103A600000F0020002285FD1BC48006800F00C00A2
:103A700058B1BA48006800F00C0008281CD1B748BB
:103A8000001F006800F48000B0B9B448083800682E
:103A9000C0F3400020B1E068012801D0012063E7B5
:103AA000AE480838006820F0F800216940EAC100FB
:103AB000AA490839086037E0E06800B30120A84946
:103AC0000860FFF7FDFC054606E0FFF7F9FC401B28
:103AD000022801D9032047E7A04808380068C0F34E
:103AE00040000028F1D09D480838006820F0F80018
:103AF000216940EAC10099490839086014E00020B2
:103B000097490860FFF7DCFC054606E0FFF7D8FCA4
:103B1000401B022801D9032026E790480838006896
:103B2000C0F340000028F1D1207800F008000828F8
:103B30002CD16069A8B101208A490860FFF7C0FC58
:103B4000054606E0FFF7BCFC401B022801D9032014
:103B50000AE782486C300068C0F340000028F1D0CA
:103B600014E000207F490860FFF7AAFC054606E044
:103B7000FFF7A6FC401B022801D90320F4E6774892
:103B80006C300068C0F340000028F1D1207800F0CC
:103B90000400042870D1002670483830006800F016
:103BA000805090B900BF002000906C483830006809
:103BB00040F080506949383108600846006800F0DC
:103BC0008050009000BF00BF01266748006800F4E5
:103BD0008070B0B96448006840F480706249086041
:103BE000FFF76EFC054606E0FFF76AFC401B022863
:103BF00001D90320B8E65C48006800F48070002812
:103C0000F2D000BFA068012808D15448683000688D
:103C100040F001005149683108601DE0A0680528A6
:103C20000DD14E486830006840F004004B496831BF
:103C300008600846006840F0010008600CE0474852
:103C40006830006820F00100444968310860084687
:103C5000006820F00400086000BFA068A8B1FFF76A
:103C60002FFC054609E0FFF72BFC401B41F2883191
:103C7000884202D9032077E626E038486830006899
:103C8000C0F340000028EED013E0FFF719FC054612
:103C900008E0FFF715FC401B41F28831884201D94A
:103CA000032061E62D4868300068C0F3400000281A
:103CB000EFD1012E07D129483830006820F080501C
:103CC00026493831086000BFA069B8B323480068AE
:103CD00000F00C0008285ED0A069022846D1002020
:103CE0001F490866FFF7ECFB054606E0FFF7E8FB17
:103CF000401B022801D9032036E61848083800681E
:103D0000C0F340600028F1D1D4E907010843616A9B
:103D100040EA81110122A06AC2EB500041EA004151
:103D20002C20005D41EA00600C49091F0860012059
:103D30000B490866FFF7C4FB054607E02DE0FFF7D7
:103D4000BFFB401B022801D903200DE603480838B9
:103D50000068C0F340600028F1D01EE0083802403F
:103D600000004742800E47420070004000200C498E
:103D70000866FFF7A5FB054606E0FFF7A1FB401B21
:103D8000022801D90320EFE506480068C0F340602F
:103D90000028F2D101E00120E6E50020E4E5000082
:103DA000000047420038024070B504460E461546F2
:103DB0000CB9012070BD94F8490028B9002084F89E
:103DC0004800204600F01CF804F108012068FCF7C8
:103DD00053FD3146A2682068FCF77CFD2946236B21
:103DE000D4E90102FCF724FDA168206850F8210005
:103DF00040F00100A268216841F822000020D9E7C4
:103E000010B50446FFF7EEF910BD7047704710B5C6
:103E100004460CB9012010BD94F83D0028B90020DB
:103E200084F83C00204600F00CF8022084F83D00A5
:103E3000211D206805F0F0FB012084F83D000020E2
:103E4000E9E7704701460868C06840F001000B6868
:103E5000D8600868806800F00702062A05D0086864
:103E6000006840F001000B68186000207047704740
:103E700010B5044620680069C0F34000D8B120683E
:103E8000C068C0F34000B0B16FF002002168086163
:103E9000012020772068806900F0030018B12046D7
:103EA000FFF7E5FF05E0204600F0ADF8204600F002
:103EB000ABF80020207720680069C0F38000D8B1FB
:103EC0002068C068C0F38000B0B16FF004002168C2
:103ED0000861022020772068806900F4407018B1E2
:103EE0002046FFF7C4FF05E0204600F08CF820468E
:103EF00000F08AF80020207720680069C0F3C00035
:103F0000D8B12068C068C0F3C000B0B16FF008003D
:103F100021680861042020772068C06900F0030050
:103F200018B12046FFF7A3FF05E0204600F06BF82C
:103F3000204600F069F80020207720680069C0F36F
:103F40000010D8B12068C068C0F30010B0B16FF0A5
:103F5000100021680861082020772068C06900F4FB
:103F6000407018B12046FFF782FF05E0204600F0C0
:103F70004AF8204600F048F80020207720680069C1
:103F800000F0010058B12068C06800F0010030B1B5
:103F90006FF0010021680861204600F036F82068C3
:103FA0000069C0F3C01058B12068C068C0F3C010E9
:103FB00030B16FF08000216808612046FFF725FFCF
:103FC00020680069C0F3801058B12068C068C0F351
:103FD000801030B16FF0400021680861204600F089
:103FE0001DF820680069C0F3401058B12068C0680F
:103FF000C0F3401030B16FF0200021680861204606
:10400000FFF704FF10BD7047704710B504462068E5
:10401000B0F1804F01D1FFF759FA10BD704700BFD2
:10402000FEE7000010B500200F4908600F48006847
:1040300020F440200D4908600846006840F48020C4
:10404000086000200A49C1F8A40202200CF000FC1C
:1040500001200549086002200CF0FAFB0020044909
:10406000C1F8A00210BD0000A0824042000402403E
:10407000008040420120034908600349C1F8A402BE
:1040800070470000A08240420080404210B50020EE
:104090000F4908600F48006820F440200D4908606F
:1040A0000846006840F48020086001200A49C1F8F1
:1040B000A40202200CF0CCFB01200549086002207C
:1040C0000CF0C6FB00200449C1F8A00210BD00009E
:1040D000A0824042000402400080404270B5054684
:1040E00000241648006820F440201449086008465F
:1040F00000680860002616E00020114908600220D0
:104100000CF0A6FB01200F49C1F8A0026006040EC6
:104110000B487C38006808B1601CC4B201200CF068
:1041200097FB701CC6B2082EE6DB15B9FFF7AEFF91
:1041300001E0FFF777FF204670BD00000004024059
:10414000A08240420080404270B504461548006895
:1041500020F44020134908600846006840F480209D
:104160000860002010490860002517E0E0090E49AA
:10417000091D08606006040E02200CF069FB012096
:104180000A49C1F8A00202200CF062FB0020064997
:10419000086002200CF05CFB681CC5B2082DE5DB52
:1041A00070BD000000040240A082404200804042F6
:1041B00010B50F48006820F440200D4908600846FB
:1041C000006840F48020086001200A4908600A491C
:1041D000C1F8A0020CF03CFB002006490860012059
:1041E0000CF036FB00200449C1F8A00210BD00000D
:1041F00000040240A48240420080404210B50E48B4
:10420000006820F440200C4908600846006840F42B
:10421000802008600020094908600949C1F8A4020B
:1042200001200CF015FB0120044908600449C1F885
:10423000A4020CF00DFB10BD00040240A08240421D
:104240000080404210B500241348006820F440204C
:104250001149086008460068086001200F4908609D
:104260000CF0F6FA01200E49C1F8A0020CF0F0FAA9
:1042700007E0601CC4B2FA2C03DDFFF7BFFF01208A
:1042800010BD0648803800680028F2D10349091F94
:10429000086000BFF4E7000000040240A48240422E
:1042A0000080404270B5FF23104CB3EB116F05D175
:1042B0002346050E1B680AD0FF2D14D00C4B02EBD1
:1042C0000212D2B21B6898472168084070BD514263
:1042D00001EB01114FF07F4220F07F4002EB0161C2
:1042E0000843184070BD01EA030070BDDC020020E5
:1042F0008002002002490A680860104670470000EA
:10430000DC02002030B5014601F01F04C1F3451363
:10431000CA0AE50205EB43151544A8B230BD0000FA
:1043200070B504460026174805884088454315485F
:10433000808846F60401884216D112488079012807
:1043400012D100200F4988712A2048812B208881B2
:104350000021084604F04AFC01200A4988712B20FC
:1043600048812A20888103E00021084604F03EFCB1
:1043700004F07CFD002602E003480480761CAE4277
:10438000FAD370BD049301208000006C0449054AF3
:104390000968497C52F8211009690968084700003A
:1043A000E40000201001002010B53220FEF706FFC7
:1043B000002004F0FFF9FB49888008468088FF2828
:1043C0000ADB084680884FF6FF71884204D0F54822
:1043D0008088B0F5134F7CD1D32004F041FD04F068
:1043E0005DF8F049888004F059F8EE49888004F0BF
:1043F00055F8EC498880084680884FF6FF7101EA3D
:104400000020E849888004F049F8E6498988084393
:10441000E44988800846808849F24131884258D072
:10442000BF2004F01DFD04F039F8DE49888004F057
:1044300035F8DC49888004F031F8DA49888004F0E6
:104440002DF8D8498880084680884FF6FF7101EA28
:104450000020D449888004F021F8D2498988084393
:10446000D04988800846808846F6040188427AD080
:10447000D42004F0F5FC04F011F8CA49888004F057
:104480000DF8C849888004F009F8C64988800846B4
:1044900080884FF6FF7101EA0020C249888003F04E
:1044A000FDFFC04989880843BE4988800846808846
:1044B00045F21031884256D04FF45A4004F0D0FCF7
:1044C00003F0ECFFB74988804FF45B4004F0C8FC70
:1044D00000E048E003F0E2FFB249888008468088A7
:1044E0004FF6FF7101EA0020AE4988804FF45C402E
:1044F00004F0B6FC03F0D2FFAA4989880843A94911
:10450000888008468088B0F5004F02D145F21050EF
:104510008880A448808845F21051884223D0A12089
:1045200004F09EFC03F0BAFF9E49888003F0B6FFBA
:104530009C498880084680884FF6FF7101EA002078
:104540009849888003F0AAFF9649898808439549CD
:1045500088800846808845F26171884203D141F61F
:104560006310904988808F48808849F241318842A1
:104570007ED1CF2004F074FC002004F06BFCC1203D
:1045800004F068FC302004F065FCED2004F068FCC9
:10459000642004F05FFC032004F05CFC122004F0B3
:1045A00059FC812004F056FCE82004F059FC8520D9
:1045B00004F050FC102004F04DFC7A2004F04AFC7A
:1045C000CB2004F04DFC392004F044FC2C2004F0F6
:1045D00041FC002004F03EFC342004F03BFC0220AF
:1045E00004F038FCF72004F03BFC202004F032FCFF
:1045F000EA2004F035FC002004F02CFC002004F03C
:1046000029FCC02004F02CFC1B2004F023FCC1205A
:1046100004F026FC012004F01DFCC52004F020FC61
:10462000302004F017FC302004F014FCC72004F004
:1046300017FCB72004F00EFC362004F011FC4820D3
:1046400004F008FC3A2004F00BFC552004F002FCB6
:10465000B12004F005FC002004F0FCFB1A2004F05B
:10466000F9FBB62004F0FCFB0A2004F0F3FB00E0A9
:104670009AE0A22004F0EEFBF22004F0F1FB00200F
:1046800004F0E8FB262004F0EBFB012004F0E2FB41
:10469000E02004F0E5FB0F2004F0DCFB2A2004F00E
:1046A000D9FB282004F0D6FB082004F0D3FB0E2011
:1046B00004F0D0FB082004F0CDFB542004F0CAFB2A
:1046C000A92004F0C7FB432004F0C4FB0A2004F037
:1046D000C1FB0F2004F0BEFB002004F0BBFB002058
:1046E00004F0B8FB002004F0B5FB002004F0B2FB9E
:1046F000E12004F0B5FB002004F0ACFB152004F031
:10470000A9FB172004F0A6FB072004F0A3FB11204F
:1047100004F0A0FB062004F09DFB2B2004F09AFB84
:10472000562004F097FB3C2004F094FB052004F095
:1047300091FB102004F08EFB0F2004F08BFB3F2038
:1047400004F088FB3F2004F085FB0F2004F082FB7F
:104750002B2004F085FB002004F07CFB002004F0FB
:1047600079FB012004F076FB3F2004F073FB2A2044
:1047700004F076FB002004F06DFB002004F06AFBDF
:10478000002004F067FBEF2004F064FB112004F02C
:1047900067FB7820FEF712FD292004F061FB03F08F
:1047A0001DB9000004930120FE48808846F60401EC
:1047B00088427CD1112004F053FB1420FEF7FEFC4C
:1047C000D02004F04DFB072004F044FB422004F00D
:1047D00041FB1D2004F03EFBD12004F041FB0020F2
:1047E00004F038FB1A2004F035FB092004F032FBFA
:1047F000D22004F035FB012004F02CFB222004F031
:1048000029FBC02004F02CFB102004F023FB3B20EC
:1048100004F020FB002004F01DFB022004F01AFB32
:10482000112004F017FBC52004F01AFB032004F04C
:1048300011FBC82004F014FB002004F00BFB252022
:1048400004F008FB212004F005FB052004F002FB26
:10485000002004F0FFFA0A2004F0FCFA652004F0BE
:10486000F9FA252004F0F6FA772004F0F3FA502044
:1048700004F0F0FA0F2004F0EDFA002004F0EAFA58
:10488000F82004F0EDFA012004F0E4FAFE2004F030
:10489000E7FA002004F0DEFA022004F0DBFA202020
:1048A00004F0DEFA362004F0DBFA082000E02CE009
:1048B00004F0D0FA3A2004F0D3FA552004F0CAFAF2
:1048C0002B2004F0CDFA002004F0C4FA002004F0FC
:1048D000C1FA012004F0BEFA3F2004F0BBFA2A20FE
:1048E00004F0BEFA002004F0B5FA002004F0B2FA99
:1048F000012004F0AFFADF2004F0ACFA7820FEF7D4
:104900005DFC292004F0ACFA49E7A648808845F20E
:104910001031884240F07C87ED2004F0A1FA01209C
:1049200004F098FAFE2004F095FAEE2004F098FACC
:10493000DE2004F08FFA212004F08CFAF12004F03C
:104940008FFA012004F086FADF2004F089FA1020A3
:1049500004F080FAC42004F083FA8F2004F07AFA7D
:10496000C62004F07DFA002004F074FAE22004F07E
:1049700071FAE22004F06EFAE22004F06BFABF2034
:1049800004F06EFAAA2004F065FAB02004F068FA88
:104990000D2004F05FFA002004F05CFA0D2004F012
:1049A00059FA002004F056FA112004F053FA0020BE
:1049B00004F050FA192004F04DFA002004F04AFAED
:1049C000212004F047FA002004F044FA2D2004F0DE
:1049D00041FA002004F03EFA3D2004F03BFA0020AA
:1049E00004F038FA5D2004F035FA002004F032FAC1
:1049F0005D2004F02FFA002004F02CFAB12004F01E
:104A00002FFA802004F026FA002004F023FA8B20ED
:104A100004F020FA002004F01DFA962004F01AFA9F
:104A2000002004F017FAB22004F01AFA002004F073
:104A300011FA002004F00EFA022004F00BFA002014
:104A400004F008FA032004F005FA002004F002FA4A
:104A5000B32004F005FA002004F0FCF9002004F073
:104A6000F9F9002004F0F6F9002004F0F3F9002031
:104A700004F0F0F9002004F0EDF9002004F0EAF968
:104A8000002004F0E7F9002004F0E4F9002004F02D
:104A9000E1F9002004F0DEF9002004F0DBF9002049
:104AA00004F0D8F9002004F0D5F9002004F0D2F980
:104AB000002004F0CFF9002004F0CCF9002004F02D
:104AC000C9F9002004F0C6F9002004F0C3F9002061
:104AD00004F0C0F9002004F0BDF9002004F0BAF998
:104AE000002004F0B7F9B42004F0BAF98B2004F0E8
:104AF000B1F9002004F0AEF9962004F0ABF90020E3
:104B000004F0A8F9A12004F0A5F9002004F0A2F90E
:104B1000B52004F0A5F9022004F09CF9002004F06F
:104B200099F9032004F096F9002004F093F9042089
:104B300004F090F9002004F08DF9B62004F090F90B
:104B4000002004F087F9002004F084F9B72004F075
:104B500087F9002004F07EF9002004F07BF93F2063
:104B600004F078F9002004F075F95E2004F072F981
:104B7000002004F06FF9642004F06CF9002004F0C8
:104B800069F98C2004F066F9002004F063F9AC2088
:104B900004F060F9002004F05DF9DC2004F05AF91B
:104BA000002001E00493012004F054F9702004F087
:104BB00051F9002004F04EF9902004F04BF9002048
:104BC00004F048F9EB2004F045F9002004F042F924
:104BD000DC2004F03FF9002004F03CF9B82004F098
:104BE0003FF9002004F036F9002004F033F90020EA
:104BF00004F030F9002004F02DF9002004F02AF927
:104C0000002004F027F9002004F024F9002004F02B
:104C100021F9BA2004F024F9242004F01BF9002023
:104C200004F018F9002004F015F9002004F012F93E
:104C3000C12004F015F9202004F00CF9002004F044
:104C400009F9542004F006F9002004F003F9FF20CC
:104C500004F000F9002004F0FDF8C22004F000F98F
:104C60000A2004F0F7F8002004F0F4F8042004F01F
:104C7000F1F8002004F0EEF8C32004F0F1F83C2035
:104C800004F0E8F8002004F0E5F83A2004F0E2F837
:104C9000002004F0DFF8392004F0DCF8002004F0F4
:104CA000D9F8372004F0D6F8002004F0D3F83C20DF
:104CB00004F0D0F8002004F0CDF8362004F0CAF853
:104CC000002004F0C7F8322004F0C4F8002004F0FB
:104CD000C1F82F2004F0BEF8002004F0BBF82C200F
:104CE00004F0B8F8002004F0B5F8292004F0B2F878
:104CF000002004F0AFF8262004F0ACF8002004F007
:104D0000A9F8242004F0A6F8002004F0A3F8242039
:104D100004F0A0F8002004F09DF8232004F09AF895
:104D2000002004F097F83C2004F094F8002004F0F0
:104D300091F8362004F08EF8002004F08BF8322031
:104D400004F088F8002004F085F82F2004F082F8A1
:104D5000002004F07FF82C2004F07CF8002004F000
:104D600079F8292004F076F8002004F073F8262062
:104D700004F070F8002004F06DF8242004F06AF8C4
:104D8000002004F067F8242004F064F8002004F008
:104D900061F8232004F05EF8002004F05BF8C420E2
:104DA00004F05EF8622004F055F8002004F052F898
:104DB000052004F04FF8002004F04CF8842004F0A3
:104DC00049F8002004F046F8F02004F043F80020F1
:104DD00004F040F8182004F03DF8002004F03AF800
:104DE000A42004F037F8002004F034F8182004F070
:104DF00031F8002004F02EF8502004F02BF80020A9
:104E000004F028F80C2004F025F8002004F022F823
:104E1000172004F01FF8002004F01CF8952004F07F
:104E200019F8002004F016F8F32004F013F800201D
:104E300004F010F8E62004F00DF8002004F00AF861
:104E4000C52004F00DF8322004F004F8002004F02E
:104E500001F8442003F0FEFF002003F0FBFF652073
:104E600003F0F8FF002003F0F5FF762003F0F2FFD7
:104E7000002003F0EFFF882003F0ECFF002003F098
:104E8000E9FFC62003F0ECFF202003F0E3FF002041
:104E900003F0E0FF172003F0DDFF002003F0DAFF4E
:104EA000012003F0D7FF002003F0D4FFC72003F058
:104EB000D7FF002003F0CEFF002003F0CBFF00203F
:104EC00003F0C8FF002003F0C5FFC82003F0C8FFAF
:104ED000002003F0BFFF002003F0BCFF002003F020
:104EE000B9FF002003F0B6FFC92003F0B9FF00208E
:104EF00003F0B0FF002003F0ADFF002003F0AAFF95
:104F0000002003F0A7FF002003F0A4FF002003F01F
:104F1000A1FF002003F09EFF002003F09BFF002074
:104F200003F098FF002003F095FF002003F092FFAC
:104F3000002003F08FFF002003F08CFF002003F01F
:104F400089FF002003F086FF002003F083FFE020AC
:104F500003F086FF162003F07DFF002003F07AFFA8
:104F60001C2003F077FF002003F074FF212003F0E2
:104F700071FF002003F06EFF362003F06BFF00206E
:104F800003F068FF462003F065FF002003F062FF96
:104F9000522003F05FFF002003F05CFF642003F069
:104FA00059FF002003F056FF7A2003F053FF002042
:104FB00003F050FF8B2003F04DFF002003F04AFF69
:104FC000992003F047FF002003F044FFA82003F0DE
:104FD00041FF002003F03EFFB92003F03BFF00201B
:104FE00003F038FFC42003F035FF002003F032FF48
:104FF000CA2003F02FFF002003F02CFFD22003F083
:1050000029FF002003F026FFD92003F023FF002012
:1050100003F020FFE02003F01DFF002003F01AFF43
:10502000F32003F017FF002003F014FFE12003F04A
:1050300017FF162003F00EFF002003F00BFF1C20CB
:1050400003F008FF002003F005FF222003F002FF19
:10505000002003F0FFFE362003F0FCFE002003F0EA
:10506000F9FE452003F0F6FE002003F0F3FE522087
:1050700003F0F0FE002003F0EDFE642003F0EAFEF2
:10508000002003F0E7FE7A2003F0E4FE002003F0A6
:10509000E1FE8B2003F0DEFE002003F0DBFE992012
:1050A00003F0D8FE002003F0D5FEA82003F0D2FEC6
:1050B000002003F0CFFEB92003F0CCFE002003F067
:1050C000C9FEC42003F0C6FE002003F0C3FECA20C0
:1050D00003F0C0FE002003F0BDFED22003F0BAFEB4
:1050E000002003F0B7FED82003F0B4FE002003F048
:1050F000B1FEE02003F0AEFE002003F0ABFEF32093
:1051000003F0A8FE002003F0A5FEE22003F0A8FEB5
:10511000052003F09FFE002003F09CFE0B2003F00F
:1051200099FE002003F096FE1B2003F093FE002062
:1051300003F090FE342003F08DFE002003F08AFE81
:10514000442003F087FE002003F084FE4F2003F08C
:1051500081FE002003F07EFE612003F07BFE002034
:1051600003F078FE792003F075FE002003F072FE54
:10517000882003F06FFE002003F06CFE972003F000
:1051800069FE002003F066FEA62003F063FE002007
:1051900003F060FEB72003F05DFE002003F05AFE2E
:1051A000C22003F057FE002003F054FEC72003F096
:1051B00051FE002003F04EFED12003F04BFE0020F4
:1051C00003F048FED62003F045FE002003F042FE27
:1051D000DD2003F03FFE002003F03CFEF32003F04F
:1051E00039FE002003F036FEE32003F039FE0520EF
:1051F00003F030FE002003F02DFE0A2003F02AFE0B
:10520000002003F027FE1C2003F024FE002003F002
:1052100021FE332003F01EFE002003F01BFE44207D
:1052200003F018FE002003F015FE502003F012FEDC
:10523000002003F00FFE622003F00CFE002003F0BC
:1052400009FE782003F006FE002003F003FE88200C
:1052500003F000FE002003F0FDFD972003F0FAFDAF
:10526000002003F0F7FDA62003F0F4FD002003F07A
:10527000F1FDB72003F0EEFD002003F0EBFDC220AE
:1052800003F0E8FD002003F0E5FDC72003F0E2FD98
:10529000002003F0DFFDD12003F0DCFD002003F04F
:1052A000D9FDD52003F0D6FD002003F0D3FDDD208D
:1052B00003F0D0FD002003F0CDFDF32003F0CAFD84
:1052C000002003F0C7FDE42003F0CAFD012003F035
:1052D000C1FD002003F0BEFD012003F0BBFD002056
:1052E00003F0B8FD022003F0B5FD002003F0B2FD8D
:1052F0002A2003F0AFFD002003F0ACFD3C2003F0BA
:10530000A9FD002003F0A6FD4B2003F0A3FD002023
:1053100003F0A0FD5D2003F09DFD002003F09AFD49
:10532000742003F097FD002003F094FD842003F027
:1053300091FD002003F08EFD932003F08BFD0020F3
:1053400003F088FDA22003F085FD002003F082FD1C
:10535000B32003F07FFD002003F07CFDBE2003F0AE
:1053600079FD002003F076FDC42003F073FD0020DA
:1053700003F070FDCD2003F06DFD002003F06AFD09
:10538000D32003F067FD002003F064FDDD2003F06F
:1053900061FD002003F05EFDF32003F05BFD0020C3
:1053A00003F058FDE52003F05BFD002003F052FD03
:1053B000002003F04FFD002003F04CFD002003F01F
:1053C00049FD022003F046FD002003F043FD2920A3
:1053D00003F040FD002003F03DFD3C2003F03AFDCA
:1053E000002003F037FD4B2003F034FD002003F0D4
:1053F00031FD5D2003F02EFD002003F02BFD742015
:1054000003F028FD002003F025FD842003F022FD99
:10541000002003F01FFD932003F01CFD002003F08B
:1054200019FDA22003F016FD002003F013FDB320A8
:1054300003F010FD002003F00DFDBE2003F00AFD77
:10544000002003F007FDC42003F004FD002003F05A
:1054500001FDCD2003F0FEFC002003F0FBFCD32077
:1054600003F0F8FC002003F0F5FCDC2003F0F2FC74
:10547000002003F0EFFCF32003F0ECFC002003F02D
:10548000E9FCE62003F0ECFC112003F0E3FC002033
:1054900003F0E0FC342003F0DDFC002003F0DAFC34
:1054A000562003F0D7FC002003F0D4FC762003F054
:1054B000D1FC002003F0CEFC772003F0CBFC0020D1
:1054C00003F0C8FC662003F0C5FC002003F0C2FC1A
:1054D000882003F0BFFC002003F0BCFC992003F0FF
:1054E000B9FC002003F0B6FCBB2003F0B3FC0020A5
:1054F00003F0B0FC992003F0ADFC002003F0AAFCFF
:10550000662003F0A7FC002003F0A4FC552003F064
:10551000A1FC002003F09EFC552003F09BFC002022
:1055200003F098FC452003F095FC002003F092FC6A
:10553000432003F08FFC002003F08CFC442003F098
:1055400089FC002003F086FCE72003F089FC322070
:1055500003F080FC002003F07DFC552003F07AFC72
:10556000002003F077FC762003F074FC002003F0A9
:1055700071FC662003F06EFC002003F06BFC6720DA
:1055800003F068FC002003F065FC672003F062FC78
:10559000002003F05FFC872003F05CFC002003F098
:1055A00059FC992003F056FC002003F053FCBB206B
:1055B00003F050FC002003F04DFC992003F04AFC5E
:1055C000002003F047FC772003F044FC002003F0A8
:1055D00041FC442003F03EFC002003F03BFC56203D
:1055E00003F038FC002003F035FC232003F032FCEC
:1055F000002003F02FFC332003F02CFC002003F0EC
:1056000029FC452003F026FC002003F023FCE820C1
:1056100003F026FC002003F01DFC002003F01AFC20
:10562000992003F017FC002003F014FC872003F0FE
:1056300011FC002003F00EFC882003F00BFC00207E
:1056400003F008FC772003F005FC002003F002FCC7
:10565000662003F0FFFB002003F0FCFB882003F032
:10566000F9FB002003F0F6FBAA2003F0F3FB002077
:1056700003F0F0FBBB2003F0EDFB002003F0EAFB9E
:10568000992003F0E7FB002003F0E4FB662003F021
:10569000E1FB002003F0DEFB552003F0DBFB0020E4
:1056A00003F0D8FB552003F0D5FB002003F0D2FB1C
:1056B000442003F0CFFB002003F0CCFB442003F098
:1056C000C9FB002003F0C6FB552003F0C3FB0020FC
:1056D00003F0C0FBE92003F0C3FBAA2003F0BAFBF0
:1056E000002003F0B7FB002003F0B4FB002003F020
:1056F000B1FB002003F0B4FBAA2003F0ABFBCF20EA
:1057000003F0AEFB002003F0A5FB002003F0A2FB9A
:10571000002003F09FFB002003F09CFB002003F01F
:1057200099FB002003F096FB002003F093FB002080
:1057300003F090FB002003F08DFB002003F08AFBB8
:10574000002003F087FB002003F084FB002003F01F
:1057500081FB002003F07EFB002003F07BFB002098
:1057600003F078FB002003F075FBF02003F078FBDA
:10577000002003F06FFB502003F06CFB002003F0CF
:1057800069FB002003F066FB002003F063FBF320BD
:1057900003F066FB002003F05DFBF92003F060FBE3
:1057A000062003F057FB102003F054FB292003F0E0
:1057B00051FB002003F04EFB3A2003F051FB552033
:1057C00003F048FB112003F04BFB6420FDF7F6FCCF
:1057D000292003F045FB352003F042FB002003F0B5
:1057E00039FB512003F03CFBFF2003F033FB532037
:1057F00003F036FB2C2003F02DFB552003F030FB8B
:10580000822003F027FB2C2003F02AFB02F0E6B8ED
:10581000FE48808845F2105188427DD155214FF4D1
:10582000704003F02DFBAA214FF2010003F028FB8A
:1058300052214FF2020003F023FB08214FF2030034
:1058400003F01EFB01214FF2040003F019FB0D21B0
:105850004FF4304003F014FB0D214BF2010003F034
:105860000FFB0D214BF2020003F00AFB34214FF431
:10587000364003F005FB34214BF2016003F000FBDE
:1058800034214BF2026003F0FBFA0D214FF431405A
:1058900003F0F6FA0D214BF2011003F0F1FA0D219D
:1058A0004BF2021003F0ECFA34214FF4374003F0CE
:1058B000E7FA34214BF2017003F0E2FA34214BF2A3
:1058C000027003F0DDFA00214FF4324003F0D8FA01
:1058D00000214BF2012003F0D3FA00214BF2022009
:1058E00003F0CEFA24214FF4384003F0C9FA242102
:1058F0004BF6010003F0C4FA24214BF6020003F03A
:10590000BFFA01214FF43F4003F0BAFA0F214FF4E0
:10591000334003F0B5FA00E0FDE30F214BF2013014
:1059200003F0AEFA0F214BF2023003F0A9FA342152
:105930004FF4394003F0A4FA34214BF6011003F080
:105940009FFA34214BF6021003F09AFA08214FF423
:10595000354003F095FA08214BF2015003F090FA1C
:1059600008214BF2025003F08BFA03214FF442401E
:1059700003F086FA24214FF43A4003F081FA2421FF
:105980004BF6012003F07CFA24214BF6022003F0B1
:1059900077FA00214FF43C4003F072FA78214BF67D
:1059A000014003F06DFA00214BF6024003F068FA63
:1059B00000214FF43D4003F063FA78214BF601508B
:1059C00003F05EFA00214BF6025003F059FA002171
:1059D0004FF43E4003F054FA64214BF6016003F0AB
:1059E0004FFA00214FF4514003F04AFA33214DF2AF
:1059F000011003F045FA00214DF2021003F040FAC5
:105A000034214DF2031003F03BFA00214DF2041053
:105A100003F036FA3A214DF2051003F031FA002175
:105A20004DF2061003F02CFA4A214DF2071003F054
:105A300027FA00214DF2081003F022FA5C214DF202
:105A4000091003F01DFA00214DF20A1003F018FAB4
:105A500081214DF20B1003F013FA00214DF20C10CE
:105A600003F00EFAA6214DF20D1003F009FA002101
:105A70004DF20E1003F004FAE5214DF20F1003F081
:105A8000FFF901214DF2101003F0FAF913214DF244
:105A9000111003F0F5F901214DF2121003F0F0F9A5
:105AA00054214DF2131003F0EBF901214DF21410C3
:105AB00003F0E6F982214DF2151003F0E1F901211E
:105AC0004DF2161003F0DCF9CA214DF2171003F065
:105AD000D7F902214DF2181003F0D2F900214DF24E
:105AE000191003F0CDF902214DF21A1003F0C8F994
:105AF00001214DF21B1003F0C3F902214DF21C10DD
:105B000003F0BEF934214DF21D1003F0B9F9022162
:105B10004DF21E1003F0B4F967214DF21F1003F08F
:105B2000AFF902214DF2201003F0AAF984214DF2C1
:105B3000211003F0A5F902214DF2221003F0A0F983
:105B4000A4214DF2231003F09BF902214DF2241001
:105B500003F096F9B7214DF2251003F091F90221D7
:105B60004DF2261003F08CF9CF214DF2271003F0EF
:105B700087F902214DF2281003F082F9DE214DF25F
:105B8000291003F07DF902214DF22A1003F078F973
:105B9000F2214DF22B1003F073F902214DF22C107B
:105BA00003F06EF9FE214DF22D1003F069F9032187
:105BB0004DF22E1003F064F910214DF22F1003F076
:105BC0005FF903214DF2301003F05AF933214DF201
:105BD000311003F055F903214DF2321003F050F962
:105BE0006D214DF2331003F04BF900214FF4524078
:105BF00003F046F933214DF2012003F041F9002171
:105C00004DF2022003F03CF9342101E0049301201D
:105C10004DF2032003F034F900214DF2042003F08B
:105C20002FF93A214DF2052003F02AF900214DF217
:105C3000062003F025F94A214DF2072003F020F950
:105C400000214DF2082003F01BF95C214DF20920E0
:105C500003F016F900214DF20A2003F011F9812119
:105C60004DF20B2003F00CF900214DF20C2003F053
:105C700007F9A6214DF20D2003F002F900214DF2A3
:105C80000E2003F0FDF8E5214DF20F2003F0F8F8A7
:105C900001214DF2102003F0F3F813214DF21120F1
:105CA00003F0EEF801214DF2122003F0E9F854213F
:105CB0004DF2132003F0E4F801214DF2142003F01B
:105CC000DFF882214DF2152003F0DAF801214DF2C0
:105CD000162003F0D5F8CA214DF2172003F0D0F8B2
:105CE00002214DF2182003F0CBF800214DF21920CB
:105CF00003F0C6F802214DF21A2003F0C1F8012189
:105D00004DF21B2003F0BCF802214DF21C2003F0E1
:105D1000B7F834214DF21D2003F0B2F802214DF204
:105D20001E2003F0ADF867214DF21F2003F0A8F804
:105D300002214DF2202003F0A3F884214DF221200E
:105D400003F09EF802214DF2222003F099F8A421DD
:105D50004DF2232003F094F802214DF2242003F0A9
:105D60008FF8B7214DF2252003F08AF802214DF279
:105D7000262003F085F8CF214DF2272003F080F88C
:105D800002214DF2282003F07BF8DE214DF229207C
:105D900003F076F802214DF22A2003F071F8F22187
:105DA0004DF22B2003F06CF802214DF22C2003F071
:105DB00067F8FE214DF22D2003F062F803214DF229
:105DC0002E2003F05DF810214DF22F2003F058F83B
:105DD00003214DF2302003F053F833214DF23120EE
:105DE00003F04EF803214DF2322003F049F86D2103
:105DF0004DF2332003F044F800214FF4534003F0F8
:105E00003FF833214DF2013003F03AF800214DF212
:105E1000023003F035F834214DF2033003F030F84E
:105E200000214DF2043003F02BF83A214DF20530F9
:105E300003F026F800214DF2063003F021F84A2144
:105E40004DF2073003F01CF800214DF2083003F04A
:105E500017F85C214DF2093003F012F800214DF2E1
:105E60000A3003F00DF881214DF20B3003F008F8F1
:105E700000214DF20C3003F003F8A6214DF20D3055
:105E800002F0FEFF00214DF20E3002F0F9FFE52195
:105E90004DF20F3002F0F4FF01214DF2103002F00C
:105EA000EFFF13214DF2113002F0EAFF01214DF214
:105EB000123002F0E5FF54214DF2133002F0E0FF02
:105EC00001214DF2143002F0DBFF82214DF215303A
:105ED00002F0D6FF01214DF2163002F0D1FFCA21A7
:105EE0004DF2173002F0CCFF02214DF2183002F0D3
:105EF000C7FF00214DF2193002F0C2FF02214DF21E
:105F00001A3002F0BDFF01214DF21B3002F0B8FF44
:105F100002214DF21C3002F0B3FF34214DF21D304E
:105F200002F0AEFF02214DF21E3002F0A9FF672100
:105F30004DF21F3002F0A4FF02214DF2203002F09A
:105F40009FFF84214DF2213002F09AFF02214DF291
:105F5000223002F095FFA4214DF2233002F090FF91
:105F600002214DF2243002F08BFFB7214DF2253093
:105F700002F086FF02214DF2263002F081FFCF2190
:105F80004DF2273002F07CFF02214DF2283002F062
:105F900077FFDE214DF2293002F072FF02214DF22F
:105FA0002A3002F06DFFF2214DF22B3002F068FF33
:105FB00002214DF22C3002F063FFFE214DF22D3014
:105FC00002F05EFF03214DF22E3002F059FF102146
:105FD0004DF22F3002F054FF03214DF2303002F029
:105FE0004FFF33214DF2313002F04AFF03214DF2D1
:105FF000323002F045FF6D214DF2333002F040FFA8
:1060000000214FF4544002F03BFF33214DF2014098
:1060100002F036FF00214DF2024002F031FF342140
:106020004DF2034002F02CFF00214DF2044002F03B
:1060300027FF3A214DF2054002F022FF00214DF2E8
:10604000064002F01DFF4A214DF2074002F018FF02
:1060500000214DF2084002F013FF5C214DF209408F
:1060600002F00EFF00214DF20A4002F009FF8121EB
:106070004DF20B4002F004FF00214DF20C4002F003
:10608000FFFEA6214DF20D4002F0FAFE00214DF276
:106090000E4002F0F5FEE5214DF20F4002F0F0FE59
:1060A00001214DF2104002F0EBFE13214DF21140A0
:1060B00002F0E6FE01214DF2124002F0E1FE542111
:1060C0004DF2134002F0DCFE01214DF2144002F0CB
:1060D000D7FE82214DF2154002F0D2FE01214DF291
:1060E000164002F0CDFECA214DF2174002F0C8FE64
:1060F00002214DF2184002F0C3FE00214DF219407A
:1061000002F0BEFE02214DF21A4002F0B9FE01215A
:106110004DF21B4000E006E302F0B2FE02214DF218
:106120001C4002F0ADFE34214DF21D4002F0A8FEED
:1061300002214DF21E4002F0A3FE67214DF21F40E6
:1061400002F09EFE02214DF2204002F099FE8421D1
:106150004DF2214002F094FE02214DF2224002F065
:106160008FFEA4214DF2234002F08AFE02214DF25F
:10617000244002F085FEB7214DF2254002F080FE5A
:1061800002214DF2264002F07BFECF214DF2274046
:1061900002F076FE02214DF2284002F071FEDE216F
:1061A0004DF2294002F06CFE02214DF22A4002F02D
:1061B00067FEF2214DF22B4002F062FE02214DF209
:1061C0002C4002F05DFEFE214DF22D4002F058FE03
:1061D00003214DF22E4002F053FE10214DF22F40CC
:1061E00002F04EFE03214DF2304002F049FE332111
:1061F0004DF2314002F044FE03214DF2324002F0F4
:106200003FFE6D214DF2334002F03AFE00214FF483
:10621000554002F035FE33214DF2015002F030FEC0
:1062200000214DF2025002F02BFE34214DF20350BA
:1062300002F026FE00214DF2045002F021FE3A2128
:106240004DF2055002F01CFE00214DF2065002F006
:1062500017FE4A214DF2075002F012FE00214DF2C6
:10626000085002F00DFE5C214DF2095002F008FECC
:1062700000214DF20A5002F003FE81214DF20B5035
:1062800002F0FEFD00214DF20C5002F0F9FDA621B6
:106290004DF20D5002F0F4FD00214DF20E5002F0CF
:1062A000EFFDE5214DF20F5002F0EAFD01214DF224
:1062B000105002F0E5FD13214DF2115002F0E0FD07
:1062C00001214DF2125002F0DBFD54214DF213502A
:1062D00002F0D6FD01214DF2145002F0D1FD8221D1
:1062E0004DF2155002F0CCFD01214DF2165002F096
:1062F000C7FDCA214DF2175002F0C2FD02214DF236
:10630000185002F0BDFD00214DF2195002F0B8FD09
:1063100002214DF21A5002F0B3FD01214DF21B5043
:1063200002F0AEFD02214DF21C5002F0A9FD342115
:106330004DF21D5002F0A4FD02214DF21E5002F05C
:106340009FFD67214DF21F5002F09AFD02214DF290
:10635000205002F095FD84214DF2215002F090FD75
:1063600002214DF2225002F08BFDA4214DF2235068
:1063700002F086FD02214DF2245002F081FDB7218A
:106380004DF2255002F07CFD02214DF2265002F024
:1063900077FDCF214DF2275002F072FD02214DF220
:1063A000285002F06DFDDE214DF2295002F068FD0B
:1063B00002214DF22A5002F063FDF2214DF22B50E2
:1063C00002F05EFD02214DF22C5002F059FDFE213B
:1063D0004DF22D5002F054FD03214DF22E5002F0EB
:1063E0004FFD10214DF22F5002F04AFD03214DF2D6
:1063F000305002F045FD33214DF2315002F040FDA6
:1064000003214DF2325002F03BFD6D214DF233502D
:1064100002F036FD00214FF4564002F031FD3321E9
:106420004DF2016002F02CFD00214DF2026002F0FD
:1064300027FD34214DF2036002F022FD00214DF2D0
:10644000046002F01DFD3A214DF2056002F018FDD6
:1064500000214DF2066002F013FD4A214DF2076063
:1064600002F00EFD00214DF2086002F009FD5C21F2
:106470004DF2096002F004FD00214DF20A6002F0C5
:10648000FFFC81214DF20B6002F0FAFC00214DF27D
:106490000C6002F0F5FCA6214DF20D6002F0F0FC5C
:1064A00000214DF20E6002F0EBFCE5214DF20F6091
:1064B00002F0E6FC01214DF2106002F0E1FC132134
:1064C0004DF2116002F0DCFC01214DF2126002F08D
:1064D000D7FC54214DF2136002F0D2FC01214DF2A1
:1064E000146002F0CDFC82214DF2156002F0C8FC70
:1064F00001214DF2166002F0C3FCCA214DF2176073
:1065000002F0BEFC02214DF2186002F0B9FC00213D
:106510004DF2196002F0B4FC02214DF21A6002F053
:10652000AFFC01214DF21B6002F0AAFC02214DF2EA
:106530001C6002F0A5FC34214DF21D6002F0A0FCAD
:1065400002214DF21E6002F09BFC67214DF21F609C
:1065500002F096FC02214DF2206002F091FC8421B1
:106560004DF2216002F08CFC02214DF2226002F01B
:1065700087FCA4214DF2236002F082FC02214DF23F
:10658000246002F07DFCB7214DF2256002F078FC1A
:1065900002214DF2266002F073FCCF214DF22760FC
:1065A00002F06EFC02214DF2286002F069FCDE214F
:1065B0004DF2296002F064FC02214DF22A6002F0E3
:1065C0005FFCF2214DF22B6002F05AFC02214DF2E9
:1065D0002C6002F055FCFE214DF22D6002F050FCC3
:1065E00003214DF22E6002F04BFC10214DF22F6082
:1065F00002F046FC03214DF2306002F041FC3321F1
:106600004DF2316002F03CFC03214DF2326002F0A9
:1066100037FC6D214DF2336002F032FC55214FF40E
:10662000704002F02DFCAA214FF2010002F028FC7C
:1066300052214FF2020002F023FC08214FF2030026
:1066400002F01EFC00214FF2040002F019FCCC21E4
:106650004FF4314002F014FC00214BF2011002F023
:106660000FFC05214FF4364002F00AFC70214FF474
:10667000374002F005FC70214BF2017002F000FC83
:1066800001214FF4384002F0FBFB03214BF60100DF
:1066900002F0F6FB03214BF6020002F0F1FB0321AE
:1066A0004BF6030002F0ECFB02214FF43C4002F0F9
:1066B000E7FB00214BF6014002F0E2FB00214BF624
:1066C000024002F0DDFBD0214FF4494002F0D8FB3C
:1066D00002214CF6011002F0D3FB50214CF60210BF
:1066E00002F0CEFB50214CF6031002F0C9FB502102
:1066F0004CF6041002F0C4FB00214FF4545002F099
:10670000BFFB55214FF4685002F0BAFB4FF488509C
:1067100002F0A6FB78200AF09BF84FF4245002F018
:106720009FFB01F05BB9FE48808849F22531884221
:106730007ED147F6F001E52002F0A2FB4FF4807114
:10674000012002F09DFB4FF4E061022002F098FB73
:1067500041F23001032002F093FB0021042002F0FB
:106760008FFB40F20221082002F08AFB0021092061
:1067700002F086FB00210A2002F082FB00210C209F
:1067800002F07EFB00210D2002F07AFB00210F2099
:1067900002F076FB0021102002F072FB072111208D
:1067A00002F06EFB0021122002F06AFB0021132090
:1067B00002F066FB0021072002F062FB41F29061CB
:1067C000102002F05DFB40F22721112002F058FB5F
:1067D0009D21122002F054FB4FF4C851132002F007
:1067E0004FFB2521292002F04BFB0D212B2002F02D
:1067F00047FB0721302002F043FB40F203313120F8
:1068000002F03EFB0321322002F03AFB40F2062167
:10681000352002F035FB0821362002F031FB40F232
:106820000641372002F02CFB4FF44171382000E084
:1068300057E002F025FB0721392002F021FB40F24E
:1068400002613C2002F01CFB08213D2002F018FBF5
:106850000021502002F014FBEF21512002F010FB28
:106860000021522002F00CFB40F23F11532002F0B5
:1068700007FB4FF42741602002F002FB0121612059
:1068800002F0FEFA00216A2002F0FAFA00218020CC
:1068900002F0F6FA0021812002F0F2FA00218220B3
:1068A00002F0EEFA0021832002F0EAFA00218420AF
:1068B00002F0E6FA0021852002F0E2FA1021902091
:1068C00002F0DEFA4FF4C061922002F0D9FA40F2F1
:1068D0003311072002F0D4FA2221002002F0D0FA6E
:1068E0001FE78F48808849F2283188427ED141F2E3
:1068F0008F01EC2002F0C4FA41F23421EF2002F0C3
:10690000BFFA4FF48071012002F0BAFA4FF4E0614F
:10691000022002F0B5FA41F23001032002F0B0FA91
:106920000021042002F0ACFA40F20221082002F01B
:10693000A7FA0021092002F0A3FA00210A2002F0A0
:106940009FFA01210C2002F09BFA00210D2002F099
:1069500097FA00210F2002F093FA0021102002F094
:106960008FFA0721112002F08BFA0021122002F089
:1069700087FA0021132002F083FA0121072002F098
:106980007FFA3220FCF71AFC41F29041102002F00D
:1069900077FA40F22721112002F072FA3220FCF738
:1069A0000DFC8A21122002F06BFA3220FCF706FC63
:1069B0004FF4D051132002F063FA0621292002F08F
:1069C0005FFA0D212B2002F05BFA3220FCF7F6FB78
:1069D0000021202002F054FA0021212002F050FA78
:1069E0003220FCF7EBFB0021302000E074E002F0E5
:1069F00047FA40F20461312002F042FA40F20531D8
:106A0000322002F03DFA0021352002F039FA40F63A
:106A10000941362002F034FA4FF40171372002F0B8
:106A20002FFA40F20131382002F02AFA40F20771C1
:106A3000392002F025FA00213C2002F021FA40F62C
:106A40000A213D2002F01CFA3220FCF7B7FB00219E
:106A5000502002F015FAEF21512002F011FA002126
:106A6000522002F00DFA40F23F11532002F008FAD2
:106A70004FF42741602002F003FA0121612002F067
:106A8000FFF900216A2002F0FBF90021802002F0CA
:106A9000F7F90021812002F0F3F90021822002F0B1
:106AA000EFF90021832002F0EBF90021842002F0AD
:106AB000E7F90021852002F0E3F91021902002F08F
:106AC000DFF94FF4C061922002F0DAF940F233119D
:106AD000072002F0D5F924E61148808849F22031D8
:106AE00088427DD10021084602F0CAF94FF4807136
:106AF000012002F0C5F94FF4E061022002F0C0F974
:106B000041F23001032002F0BBF90021042002F021
:106B1000B7F940F20221082002F0B2F9002101E0A9
:106B200004930120092002F0ABF900210A2002F0B1
:106B3000A7F901210C2002F0A3F900210D2002F099
:106B40009FF900210F2002F09BF93220FCF736FB61
:106B500040F20111072002F093F93220FCF72EFBDE
:106B60004FF48651102002F08BF90721112002F01A
:106B700087F94FF48871122002F082F94FF43061E6
:106B8000132002F07DF90021292002F079F944F266
:106B900010012B2002F074F90021502002F070F94E
:106BA000EF21512002F06CF90021522002F068F927
:106BB00040F23F11532002F063F94FF41C51602062
:106BC00002F05EF90121612002F05AF900216A20E9
:106BD00002F056F90021802002F052F9002100E075
:106BE00031E0812002F04CF90021822002F048F9C6
:106BF0000021832002F044F90021842002F040F9B2
:106C00000021852002F03CF91021902002F038F993
:106C10000021922002F034F90121932002F030F992
:106C20004FF48871952002F02BF90021972002F093
:106C300027F90021982002F023F940F27311072070
:106C400002F01EF96DE5FE48808849F23131884234
:106C50007DD141F21401E72002F012F94FF4807166
:106C6000012002F00DF94FF40071022002F008F942
:106C700041F23801032002F003F940F2022108201A
:106C800002F0FEF80021092002F0FAF800210A20A3
:106C900002F0F6F800210C2002F0F2F800210D209D
:106CA00002F0EEF800210F2002F0EAF80021102097
:106CB00002F0E6F80721112002F0E2F8002112208C
:106CC00002F0DEF80021132002F0DAF8C820FCF709
:106CD00075FA41F29061102002F0D2F840F22721BB
:106CE000112002F0CDF83220FCF768FA0C211220B6
:106CF00002F0C6F83220FCF761FA4FF4006113206D
:106D000002F0BEF81121292002F0BAF80B212B2045
:106D100002F0B6F83220FCF751FA0021202002F0F0
:106D2000AFF840F23F11212002F0AAF800213020F4
:106D300002F0A6F84FF48371312002F0A1F800218F
:106D4000322002F09DF84FF40171352000E064E03C
:106D500002F096F841F20A61362002F091F840F212
:106D60000771372002F08CF84FF48371382002F05D
:106D700087F840F20771392002F082F840F20241B0
:106D80003C2002F07DF840F60F413D2002F078F8FB
:106D90000021502002F074F8EF21512002F070F829
:106DA0000021522002F06CF840F23F11532002F013
:106DB00067F84FF41C51602002F062F80121612055
:106DC00002F05EF800216A2002F05AF800218020CB
:106DD00002F056F80021812002F052F800218220B2
:106DE00002F04EF80021832002F04AF800218420AE
:106DF00002F046F80021852002F042F81021902090
:106E000002F03EF84FF4C061922002F039F840F2EF
:106E10003311072002F034F883E48948808845F272
:106E2000084188427ED14FF48071012002F028F899
:106E30004FF4E061022002F023F841F23001032018
:106E400002F01EF80021042002F01AF840F2072197
:106E5000082002F015F80021092002F011F80021A5
:106E60000A2002F00DF800210C2002F009F80021A0
:106E70000D2002F005F800210F2002F001F8142087
:106E8000FCF79CF941F2B061102001F0F9FF0121FB
:106E9000112001F0F5FF0121172001F0F1FF4FF45F
:106EA0009C71122001F0ECFF4FF40061132001F0FF
:106EB000E7FF0921292001F0E3FF09212A2001F041
:106EC000DFFF0021A42001F0DBFF0021502001F0B2
:106ED000D7FFEF21512001F0D3FF0021522001F014
:106EE000CFFF40F23F11532001F0CAFF4FF41C5175
:106EF000602001F0C5FF0121612001F0C1FF0021E8
:106F00006A2001F0BDFF0021802001F0B9FF0021BF
:106F1000812001F0B5FF0021822001F0B1FF0021A6
:106F2000832000E023E001F0ABFF0021842001F08A
:106F3000A7FF0021852001F0A3FF1321902001F07D
:106F40009FFF0021922001F09BFF0321932001F07D
:106F500097FF4FF48871952001F092FF40F2731172
:106F6000072001F08DFF3220FCF728F9B8E43448FF
:106F7000808841F2055188427ED10021072001F02E
:106F80007FFF3220FCF71AF94FF48E71122001F0C6
:106F900077FF0121A42001F073FF0F21082001F0E9
:106FA0006FFF08210A2001F06BFF08210D2001F07E
:106FB00067FF40F20771302001F062FF07213120A6
:106FC00001F05EFF40F20361322001F059FF4FF4FF
:106FD000E061332001F054FF40F20221342001F03F
:106FE0004FFF0221352001F04BFF41F60F71362093
:106FF00001F046FF40F20771372001F041FF002108
:10700000382001F03DFF0021392001F039FF40F226
:1070100007713A2001F034FF00213B2001F030FFDE
:1070200007213C2001F02CFF00213D2001F028FF2A
:107030003220FCF7C3F80121072001F021FF01E015
:10704000049301200121172001F01AFF3220FCF7E0
:10705000B5F84FF4BD51102001F012FF40F2172196
:10706000112001F00DFF4FF48F71122001F008FF85
:107070004FF47061132000E097E001F001FF002160
:107080002A2001F0FDFE0A21292001F0F9FE4FF42B
:107090009F71122001F0F4FE0021502001F0F0FE5B
:1070A000EF21512001F0ECFE0021522001F0E8FE1A
:1070B00040F23F11532001F0E3FE4FF41C516020D9
:1070C00001F0DEFE0121612001F0DAFE00216A20DC
:1070D00001F0D6FE0021802001F0D2FE00218120A7
:1070E00001F0CEFE0021822001F0CAFE00218320A3
:1070F00001F0C6FE0021842001F0C2FE002185209F
:1071000001F0BEFE1321902001F0BAFE4FF4407151
:10711000922001F0B5FE0521932001F0B1FE00217F
:10712000952001F0ADFE0021972001F0A9FE00217D
:10713000982001F0A5FE4FF48071012001F0A0FE1F
:107140004FF4E061022001F09BFE41F23801032080
:1071500001F096FE0021042001F092FE00210C2097
:1071600001F08EFE00210F2001F08AFE0021202078
:1071700001F086FE0021212001F082FE212107205E
:1071800001F07EFE1420FCF719F86121072001F0C0
:1071900077FE1420FCF712F840F27311072001F07B
:1071A0006FFE1420FCF70AF895E4FE4880884BF245
:1071B000055188427ED10021084601F061FE002180
:1071C000084601F05DFE0021084601F059FE00214D
:1071D000084601F055FE0121A42001F051FE1420C3
:1071E000FBF7ECFF4FF41C51602001F049FE40F228
:1071F0000221082001F044FE4FF40571302001F017
:107200003FFE43F21571312001F03AFE40F2046175
:10721000322001F035FE40F61661332001F030FED9
:1072200042F21121342001F02BFE4FF4A8513520F9
:1072300001F026FE48F20751362001F021FE41F20E
:107240000741372001F01CFE41F20341382001F0D4
:1072500017FE2021392001F013FE1A21902001F0A1
:107260000FFE0021102001F00BFE0721112001F07C
:1072700007FE0021122001F003FE0021132001F07F
:10728000FFFD1420FBF79AFF4FF4E661102001F098
:10729000F7FD40F23711112001F0F2FD1420FBF749
:1072A0008DFF4FF4DC71122001F0EAFD1420FBF792
:1072B00085FF00E083E04FF47061132001F0E0FDF2
:1072C00080212A2001F0DCFD4821292001F0D8FD91
:1072D0001420FBF773FF4FF48071012001F0D0FD03
:1072E0004FF4E061022001F0CBFD41F238010320B0
:1072F00001F0C6FD40F20221082001F0C1FD00218D
:107300000A2001F0BDFD00210C2001F0B9FD002193
:107310000D2001F0B5FD30210E2001F0B1FD00215E
:10732000502001F0ADFDEF21512001F0A9FD002119
:10733000522001F0A5FD40F23F11532001F0A0FDC5
:107340004FF41C51602001F09BFD0121612001F0F0
:1073500097FD00216A2001F093FD1121902001F09A
:107360008FFD4FF4C061922001F08AFD40F202418E
:10737000932001F085FD0221942001F081FD14206D
:10738000FBF71CFF0121072001F07AFD1420FBF719
:1073900015FF6121072001F073FD40F273110720F2
:1073A00001F06EFD0021202001F06AFD0021212066
:1073B00001F066FD2221002001F062FD0EE3794814
:1073C00080884CF2055188427ED10021084601F0A8
:1073D00057FD0021084601F053FD1420FBF7EEFE97
:1073E0000021084601F04CFD0021084601F048FD4F
:1073F0000021084601F044FD0021084601F040FD4F
:107400000121A42001F03CFD1420FBF7D7FE4FF42E
:107410001C51602001F034FD40F60601082001F007
:107420002FFD40F20371302001F02AFD01213120AF
:1074300001F026FD0421322001F022FD4FF481717C
:10744000332001F01DFD4FF44071342001F018FD90
:1074500040F20311352001F013FD1F21362001F009
:107460000FFD40F20371372001F00AFD01213820A1
:1074700001F006FD0421392001F002FD15219020C4
:1074800001F0FEFC4FF48261102001F0F9FC40F2A3
:107490004721112001F0F4FC4FF4DE71122001F0BD
:1074A000EFFC4FF46061132001F0EAFC7820FBF759
:1074B00085FE4FF48071012001F0E2FC4FF4007171
:1074C000022001F0DDFC00E050E041F23001032039
:1074D00001F0D6FC08210A2001F0D2FC00210C208A
:1074E00001F0CEFC20210E2001F0CAFC00210F206B
:1074F00001F0C6FC0021202001F0C2FC0021212067
:1075000001F0BEFC3D212A2001F0BAFC1420FBF75B
:1075100055FE2D21292001F0B3FC0021502001F05F
:10752000AFFC4DF2EF01512001F0AAFC00215220E6
:1075300001F0A6FC40F23F11532001F0A1FC002114
:10754000612001F09DFC00216A2001F099FC4FF4BC
:107550004071922001F094FC0521932001F090FCF1
:107560004FF48071072001F08BFC37E20D488088D2
:1075700044F2315188427CD10121002001F080FC8D
:107580000A20FBF71BFE41F22861102001F078FC75
:107590000E21122001F074FC40F63921132001F075
:1075A0006FFC01E0049301200A20FBF707FE402155
:1075B000112001F065FC5021152001F061FC0A202A
:1075C000FBF7FCFD1E21122001F05AFC0A20FBF7FC
:1075D000F5FD4FF4B151102001F052FC42F6392173
:1075E000132001F04DFC0A20FBF7E8FD4FF48071F9
:1075F000012001F045FC4FF44071022001F040FCF5
:1076000041F23801032001F03BFC40F20221082046
:1076100001F036FC08210A2001F032FC0021302064
:1076200001F02EFC40F20241312001F029FC4FF420
:107630008371322001F024FC40F20351332001F029
:107640001FFC4FF48271342001F01AFC40F201312A
:10765000352001F015FC40F20771362001F010FCD6
:1076600040F20531372001F00BFC4FF40271382055
:1076700000E040E001F004FC40F60B71392001F01D
:10768000FFFB0221412001F0FBFB4FF41C51602065
:1076900001F0F6FB0121612001F0F2FB4FF40471CF
:1076A000902001F0EDFB4FF48571922001F0E8FB92
:1076B0000421932001F0E4FB4FF48071A02001F03D
:1076C000DFFB0121072001F0DBFB2121072001F076
:1076D000D7FB2321072001F0D3FB3321072001F042
:1076E000CFFB40F23311072001F0CAFB0021A0209C
:1076F00001F0C6FB72E1BF48808844F235518842F0
:107700007ED13021152001F0BBFB10219A2001F021
:10771000B7FB2021112001F0B3FB43F228411020D8
:1077200001F0AEFB0221122001F0AAFB41F2380168
:10773000132001F0A5FB2820FBF740FD122108468D
:1077400001F09EFB2820FBF739FD43F22041102079
:1077500001F096FB43F23801132001F091FB462023
:10776000FBF72CFD0021302001F08AFB40F20241A2
:10777000312001F085FB40F20731322001F080FB1F
:107780004FF44171332001F07BFB0421342001F0E0
:1077900077FB40F20141352001F072FB40F20771A6
:1077A000362001F06DFB40F20531372001F068FB17
:1077B0004FF4C261382001F063FB4FF4C2613920FD
:1077C00001F05EFB4FF48071012001F059FB4FF492
:1077D0004071022001F054FB41F23001032001F01E
:1077E0004FFB40F60801082001F04AFB08210A205F
:1077F00001F046FB4FF41C51602001F041FB00E01A
:1078000031E00121612001F03BFB4FF49F7190209A
:1078100001F036FB4FF48071922001F031FB4FF400
:107820008071932001F02CFB4FF44051A02001F017
:1078300027FB1021A32001F023FB0121072001F0E9
:107840001FFB2121072001F01BFB2321072001F052
:1078500017FB3321072001F013FB40F233110720FF
:1078600001F00EFBBAE06348808841F6631188425C
:10787000F8D1E22001F0F4FA232001F0EBFA022023
:1078800001F0E8FA042001F0E5FA642008F0E0FFD6
:10789000E02001F0E5FA012001F0DCFA0A20FBF714
:1078A0008DFCE02001F0DCFA032001F0D3FA0C207B
:1078B000FBF784FC012001F0D3FA0A20FBF77EFCE1
:1078C000E62001F0CDFA032001F0C4FAFF2001F018
:1078D000C1FAFF2001F0BEFAB02001F0C1FA202069
:1078E00001F0B8FA002001F0B5FA032001F0B2FA75
:1078F00040F21F3001F0AEFA012001F0ABFA40F285
:10790000DF1001F0A7FA002001F0A4FAB42001F082
:10791000A7FA042001F09EFA40F21F4001F09AFA03
:10792000002001F097FAD22001F094FA002001F033
:1079300091FA002001F08EFA002001F08BFA00206D
:1079400001F088FAB62001F08BFA022001F082FAE9
:107950004FF4037001F07EFA002001F07BFA222040
:1079600001F078FA092001F075FA002001F072FAAE
:10797000002001F06FFAF02001F072FA032001F00C
:1079800069FA292001F06CFAD02001F069FA002090
:1079900001F060FABE2001F063FA052001F05AFA06
:1079A000FE2001F057FA012001F054FAFF2001F007
:1079B00051FA002001F04EFAB82001F051FA0F20E0
:1079C00001F048FA012001F045FABA2001F048FA26
:1079D000012001F03FFA642000F0F8FE012000F0E1
:1079E0000DF80120044908604FF6FF70FCF798FC81
:1079F00010BD000004930120BC82404210B5044633
:107A0000002C66D16C498871F02008804FF4A0707A
:107A100048800846808849F2413188420BD0664848
:107A2000808846F60401884205D06348808845F284
:107A3000103188421AD12C205F4908812A204881C0
:107A40002B2088810846808846F60401884205D0AC
:107A50005948808845F21031884206D14FF4A07011
:107A6000554908804FF4F0704880A1E05248808862
:107A700045F21051884210D14FF430504E490881E0
:107A80004FF4285048814FF42C5088814FF4F07007
:107A900008804FF4487048808AE04748808841F663
:107AA000631188420DD12C20434908812B20488145
:107AB0002A2088814FF4F07008804FF44870488085
:107AC00076E022203C4908812020488121208881BD
:107AD0006EE00120384988714FF4A0700880F020D2
:107AE00048800846808849F24131884205D03248B2
:107AF000808845F21031884207D12C202E49088118
:107B00002A2048812B2088813FE02B48808846F638
:107B10000401884207D12C20274908812B20488165
:107B20002A20888131E02448808845F2105188421B
:107B300010D14FF43050204908814FF4285048812B
:107B40004FF42C5088814FF4487008804FF4F07047
:107B500048801AE01848808841F6631188420DD1A8
:107B60002C20154908812A2048812B2088814FF438
:107B7000487008804FF4F070488006E022200E49DB
:107B8000088121204881202088810B48808846F682
:107B90000401884205D00848808845F210318842A7
:107BA00006D14FF4F070044908804FF4A07048806B
:107BB000002000F03BFE10BD049301202DE9F04FA2
:107BC00005468DB07B48DDF860901A9C00681E4623
:107BD00017464FF0000A78B11B9B199ACDF8089010
:107BE0000593CDE90324DDE91623CDE900230468DC
:107BF00033463A46284680E0DDE9160201EB0608E6
:107C000005EB070C1043A8F10108ACF1010C0128A9
:107C100006D0C9F108000590002002910990C6E045
:107C200065480268B2F90A30581A002806DD361A8B
:107C3000002E63DD1946199B00FB0344B2F90E00C8
:107C4000A8EB0000002802DD361A002E56DDB2F93E
:107C50000C00ACEB0000002800DD3F1AB2F9083040
:107C60000020AB4235DD581B3F1A4B46B9F1080FD7
:107C700026D006DC012B0BD0022B11D0042B28D1EF
:107C800016E0102B1ED0182B1FD0202B21D11CE06A
:107C900020F0070304EBE0041D4400F0070018E0A7
:107CA00020F0030304EBA0041D4400F0030010E0E7
:107CB00020F0010304EB60041D4400F0010008E023
:107CC000044404E004EB400401E004EB80040544B8
:107CD0000020002F12DD1B9BDDF864C0CDE90403FA
:107CE000CDE90069CDE902C4527C34483B4650F8E6
:107CF0002200C26854680A462946A0470DB0BDE874
:107D0000F08F1799029808440C902B49401E009060
:107D10000A68B2F90A30834241DCB2F90E100298C7
:107D200081423CDB4FF0000BD84603950A9434E0C7
:107D3000BBF1000F05D10A984FF0080B10F801AB0A
:107D40000A900599ABEB090B3AFA01F00AFA09F12E
:107D500001F0FF0A04D118490968097C890716D483
:107D600015490968C96B0A680B921B9A0AB152F847
:107D70002000086016990398009B4218521E029931
:107D800000F050FA0C490B980968C96B0860039918
:107D9000169808F1010808440390B845C8DB099813
:107DA000401C09900C980290199804440998B0421C
:107DB000A7DBA3E730010020E40000201001002031
:107DC000F0B40C4612490968B1F90A30A3421CDC30
:107DD000B1F90E30A34218DBB1F90830834200DD5F
:107DE0001846B1F90C30934200DA1A4682420CDB95
:107DF0004B7C084951F8235013462246E9688E68A7
:107E000001462846B446F0BC6047F0BC704700000D
:107E1000E4000020100100202DE9FF4F84B08146CE
:107E20008A460020039002900698A0EB0905079867
:107E3000A0EB0A06CDF80490CDF800A0002D01DDDE
:107E4000012705E00DB9002702E04FF0FF376D4232
:107E5000002E02DD4FF0010806E016B94FF00008D1
:107E600002E04FF0FF387642B54201DD2C4600E0DB
:107E700034464FF0000B21E0009A91B2019A90B283
:107E800000F056F80398284403900298304402907A
:107E90000398A04205DD0398001B03900198384425
:107EA00001900298A04205DD0298001B0290009804
:107EB000404400900BF101001FFA80FB601C8345D9
:107EC000DADD08B0BDE8F08F0A46174930B409681A
:107ED000B1F90A30934225DCB1F90E30934221DB2F
:107EE000B1F9083083421DDCB1F90C30834219DB53
:107EF0000B7C0E4CDB0709D0497C54F82130D96843
:107F0000CC690146A44630BC18466047CB6B497C1F
:107F10001B6854F82140E1688D6901462046AC4653
:107F200030BC604730BC7047E400002010010020E6
:107F300030B504460D462946204600F057FE00F0B5
:107F400095FF024800880249088030BD44000020A7
:107F50008000006C2DE9F04306460F469046002451
:107F600045460320A0EB48093CE07A1B91B2321948
:107F700090B2FFF7DDFF3A1B91B2721990B2FFF792
:107F8000D7FF3A1991B2721990B2FFF7D1FF7A195F
:107F900091B2321990B2FFF7CBFF7A1991B2321B2E
:107FA00090B2FFF7C5FF3A1991B2721B90B2FFF77A
:107FB000BFFF7A1B91B2321B90B2FFF7B9FF3A1B99
:107FC00091B2721B90B2FFF7B3FF641CB9F1000FBE
:107FD00003DAA000801D814404E0601B80000A30A9
:107FE00081446D1EAC42C0DDBDE8F08330B5034670
:107FF0000C4615465B48808849F24131884205D0DD
:108000005848808845F21031884214D15549488932
:1080100000F026FF181200F01DFFD8B200F01AFF82
:108020005049888900F01CFF201200F013FFE0B2D5
:1080300000F010FF8CE04B48808845F210518842D8
:1080400020D14849488900F00BFF181200F002FFC8
:1080500044494989491C88B200F002FFD8B200F0B7
:10806000F9FE4049888900F0FBFE201200F0F2FE84
:108070003C498989491C88B200F0F2FEE0B200F068
:10808000E9FE65E03748808841F66311884228D1CF
:108090003448807920B933480088401EC01A83B222
:1080A0003049488900F0DCFE181200F0D3FED8B247
:1080B00000F0D0FE181200F0CDFED8B200F0CAFEDB
:1080C0002849888900F0CCFE201200F0C3FEE0B2FF
:1080D00000F0C0FE201200F0BDFEE0B200F0BAFEDB
:1080E00036E02048808846F6040188421DD11D48AC
:1080F0008079012804D11B480088401EC01A83B231
:108100001849488900F0ACFE181200F0A3FED8B25E
:1081100000F0A0FE1349888900F0A2FE201200F0B2
:1081200099FEE0B200F096FE12E00E488079012838
:1081300004D10C480088401EC01A83B209494889FE
:10814000194600F09DFE07498889214600F098FEF7
:1081500004480089044908804FF0D840A0F88050B6
:1081600030BD0000049301207E00006C2DE9FC4F1F
:1081700005460E4617469846DDF82C9000200190E3
:108180002748808846F60401884229D1244880790E
:10819000012825D1AB46354621480088C01B401E2A
:1081A00086B247461E480088A0EB0B00401E1FFA0F
:1081B00080F800201A4988712A2048812B20888164
:1081C00043463A4631462846CDF80090FFF7CEFFA9
:1081D0000120134988712B2048812A2088811DE0C5
:1081E000781B401C80B20190344615E02146284699
:1081F00000F0FCFC00F03AFE4FF0000A07E04FF000
:10820000D840A0F880900AF101001FFA80FA019886
:108210008245F4DB601C84B24445E7DDBDE8FC8F99
:108220000493012038B5134C2468B4F908508542F2
:1082300000DD2846B4F90C50954200DA2A46824205
:1082400017DBB4F90A508D4200DD2946B4F90E500F
:108250009D4200DA2B468B420BDB0093647C064B7D
:1082600053F82440E3681D6913460A460146204638
:10827000A84738BDE400002010010020082105F0C7
:1082800041BB0000024809210068407C05F03ABB70
:10829000E4000020092105F035BB70B500252C460F
:1082A0002046F8F715FF00B16D1C641C022CF7DBAB
:1082B000284670BD02480068407C00F003B800000A
:1082C000E400002010B5F8F703FF002805D0C168CE
:1082D000CA6ABDE810400221104710BD032105F015
:1082E00011BB032005F05EBB042105F00BBB0000B1
:1082F000024801210068407C05F004BBE400002036
:10830000014800687047000098010020012105F035
:10831000F9BA012005F046BB024802210068407C02
:1083200005F0F0BAE4000020014840687047000002
:1083300098010020022105F0E5BA022005F032BBC9
:10834000AFF300802DE9F041060008D0B76837B1DF
:108350001248816819B13468B4F5807F02DD0020CD
:10836000BDE8F08101688C4200DD0C4600258046A6
:1083700009E000BF57F82500FCF708F8D8F8081006
:1083800041F825006D1CA542F4DBD8F804104446E2
:1083900009B130468847A068E2E7000004020020E7
:1083A0000449054A0968497C52F82110096949685D
:1083B00008470000E40000201001002010B5084A22
:1083C000084B00F01F01C0F34514C0F3C420515CFA
:1083D0001B5D105C01EB032101EB004010BD0000B0
:1083E00070300108903001087047704710B50A4C92
:1083F000A06860B920688000F8F774FCA06040B104
:1084000004F10C01054808600846FAF785FE0020D3
:1084100010BD012010BD00000402002025E100086D
:108420002DE9F047FFF739FF07460024DFF86080A9
:108430002AE02046F8F74CFE28B3D8F8000090F860
:10844000119044742046FFF719FF082817DC1148E3
:10845000114950F824000069884210D02046FFF7E7
:1084600019FF0646002508E0E8B2FFF799FF02462B
:10847000E9B2204600F09AFC6D1CB542F4DBD8F856
:10848000001081F81190641CBC42D2DBBDE8F0877B
:10849000E4000020100100200C3B010808B503484F
:1084A00000880090BDF8000008BD00008000006C4E
:1084B0002DE9F04105460E4600240027A046564807
:1084C0000088A84203DD54484088B04202DC002006
:1084D000BDE8F0813146284600F088FB4E48808890
:1084E00049F24131884211D04B48808846F6040158
:1084F00088420BD04848808845F21031884205D028
:108500004548808841F66311884203D12E2000F04F
:10851000A7FC0DE04048808845F21051884204D104
:108520004FF4385000F09CFC02E0222000F098FC50
:108530003948808849F22031884202D1022008F06F
:10854000F8F9FFF7ABFF04463348808841F6631122
:10855000884201D12046BBE7022008F0EAF9FFF784
:108560009DFF04462C48808849F2413188420BD057
:108570002948808845F21031884205D026488088F5
:1085800045F2105188420AD1022008F0D2F9FFF7D3
:1085900085FF8046E7B24FF6FF7000EA07271E48C6
:1085A000808849F22531884216D01B48808844F2E1
:1085B0003551884210D018488088091F88420BD056
:1085C000154880884BF20551884205D012488088B2
:1085D0004CF20551884201D1204679E70E48808847
:1085E00049F2413188420BD00B48808845F2103166
:1085F000884205D00848808845F21051884207D14A
:10860000E012C002B91240EA411040EAE8205FE7F8
:108610002046FBF777FE5BE7049301202DE9FF4F2F
:1086200083B01646DDE910408B46C0684769426A50
:108630007AB1012111A8904705000AD00698CDE92A
:10864000000433465A4603991198A84707B0BDE87D
:10865000F08F57480068407CF8F7D8FD824608281C
:1086600001DC012005E0BAF1100F01DC022000E07E
:1086700004208046002596E04046B8F1010F05D061
:10868000022871D0B8F1040F25D17CE0BAF1090FAE
:1086900021D2DFE80AF08605213F3F595959590098
:1086A000039815E001465A461198B847C5F10701ED
:1086B00088404FF67F722178EA40114001436D1CDB
:1086C000217004EBE50425F00700054109F10100E4
:1086D0008146B042E6DD64E0039817E001465A4661
:1086E0001198B8470621A1EB450188406B004FF671
:1086F0003F722178DA40114001436D1C217004EB78
:10870000A50425F00300054109F101008146B042AE
:10871000E4DD46E0039813E001465A461198B84755
:108720000421A1EB850188402178AB000F229A40FB
:108730001140014321702C4485F0010509F101002D
:108740008146B042E8DD2CE0DDF80C9007E0014600
:108750005A461198B847207009F101094444484627
:10876000B145F4DD1DE0FFE7DDF80C9007E00146C0
:108770005A461198B847208009F1010944444846F7
:10878000B145F4DD0DE0DDF80C9007E001465A46F6
:108790001198B847206009F1010944444846B145A1
:1087A000F4DD0BF1010B06998B457FF765AF4DE7C3
:1087B000E400002010B50446204600F051FB0520DF
:1087C00008F046F8FFF76AFE10BD000070B52DED09
:1087D000048B0446BE2000F043FB052000F03AFB6A
:1087E0002046F7F72AFE41EC190B9FED0E0B53ECD8
:1087F000102BF7F7B0FD41EC180BF7F72BFE85B205
:10880000284600F027FB012000F024FBFF2000F0A9
:1088100021FB002000F01EFB002000F01BFBBDEC44
:10882000048B70BD666666666666044070B5044675
:1088300000230026B748807901280BD1B5488088ED
:1088400046F60401884205D0B248808841F663119B
:10885000884208D1AF488079F0B9AE48808841F6A7
:108860006311884218D1082C15D2DFE804F0040601
:10887000080A0C0E101206240DE007240BE0042455
:1088800009E0052407E0012405E0002403E00324B7
:1088900001E0022400BF00BF9E48808849F24131B8
:1088A000884217D09B48808846F60401884211D040
:1088B0009848808845F2103188420BD095488088CE
:1088C00045F21051884205D09248808841F66311E4
:1088D00088427DD1082C1CD2DFE804F00406090C84
:1088E0000F12151800BF14E043F0800311E043F0AD
:1088F00040030EE043F0C0030BE043F0200308E028
:1089000043F0600305E043F0A00302E043F0E0031E
:1089100000BF00BF7F48808845F21051884202D1D5
:108920004FF4585600E036267A48808845F21031D8
:1089300088420DD07748808845F21051884207D090
:108940007448808841F66311884201D043F00803DF
:108950007048808846F60401884201D143F0020342
:108960001946304600F08CFA6A48808841F6631157
:1089700088421DD003F0200068B166480088654930
:108980004988884214DA634805884088614908802C
:10899000084645800CE05F4800885E494988884267
:1089A00006DD5C48058840885A49088008464580AD
:1089B0005848808845F21051884254D15549488919
:1089C00000F04EFA002000F045FA5249498900E0D3
:1089D00078E0491C88B200F043FA002000F03AFA2F
:1089E0004C494989891C88B200F03AFA49490988FA
:1089F000491EC1F30F2000F02DFA46494989C91CD0
:108A000088B200F02DFA43490978491EC8B200F037
:108A100021FA4049888900F023FA002000F01AFA70
:108A20003C498989491C88B200F01AFA002000F0FC
:108A300011FA38498989891C88B200F011FA354940
:108A40004988491EC1F30F2000F004FA3149898991
:108A5000C91C88B200F004FA2E498978491EC8B2B0
:108A600000F0F8F955E02B49488900F0F9F90020A9
:108A700000F0F0F9002000F0EDF926490988491EC0
:108A8000C1F30F2000F0E6F922490978491EC8B267
:108A900000F0E0F91F49888900F0E2F9002000F0B9
:108AA000D9F9002000F0D6F91A494988491EC1F3C6
:108AB0000F2000F0CFF917498978491EC8B200F09D
:108AC000C9F926E0082C1CD2DFE804F004070A0DDF
:108AD0000F12151843F0300313E043F0100310E0B9
:108AE00043F020030DE000BF0BE043F0380308E043
:108AF00043F0280305E043F0180302E043F00803C5
:108B000000BF00BF032643F480531946304600F0EF
:108B1000B7F970BD0493012010B50D4C0D492068C4
:108B2000407C51F8200048B1C16811B1096804299E
:108B300001D00068F7E708B1F8F7ACFA2068002127
:108B4000016600F108014161BDE8104000F02EB857
:108B5000E400002010010020014909684968084725
:108B600000020020044909680A7C520701D5C96B3C
:108B700000E0896B08607047E40000207CB5094C78
:108B800005462068417C084850F82100C1680A6BFE
:108B90006946904720686A4629460830FAF7C3F9C3
:108BA0007CBD0000E40000201001002004480168A2
:108BB00004484A7C083150F82200C268126B104702
:108BC000E4000020100100200149096809680847F5
:108BD00000020020044909680A7C520701D5896B0C
:108BE00000E0C96B08607047E400002010B5034640
:108BF0000C466748808849F24131884205D0644874
:108C0000808845F21031884214D16149488900F0CA
:108C100027F9181200F01EF9D8B200F01BF95C49D0
:108C2000888900F01DF9201200F014F9E0B200F07C
:108C300011F9ABE05648808846F6040188421DD100
:108C400053488079012804D151480088401EC01A39
:108C500083B24F49488900F003F9181200F0FAF87E
:108C6000D8B200F0F7F84A49888900F0F9F82012E4
:108C700000F0F0F8E0B200F0EDF887E044488088BA
:108C800041F66311884247D141488079A8B94048EC
:108C90000088401EC01A83B23D49488900F0E0F8C0
:108CA000002000F0D7F8002000F0D4F8181200F0EF
:108CB000D1F8D8B200F0CEF816E03549488900F076
:108CC000CFF8181200F0C6F8D8B200F0C3F8304957
:108CD0000988491EC1F30F2000F0BCF82C4909781F
:108CE000491EC8B200F0B6F82949888900F0B8F8E2
:108CF000201200F0AFF8E0B200F0ACF82449498847
:108D0000491EC1F30F2000F0A5F821498978491EBA
:108D1000C8B200F09FF839E01D48808845F2105134
:108D2000884220D11A49488900F09AF8181200F0B8
:108D300091F817494989491C88B200F091F8D8B2D6
:108D400000F088F81249888900F08AF8201200F0B3
:108D500081F80F498989491C88B200F081F8E0B296
:108D600000F078F812E00A488079012804D1084818
:108D70000088401EC01A83B205494889194600F090
:108D80007FF803498889214600F07AF810BD000079
:108D900004930120014AC2E90001704798010020B4
:108DA000014909688968084700020020F8B515469E
:108DB0000E460124F8F78CF9009058B1C0681021D4
:108DC000426A68469047030004D02A46314600981C
:108DD000984700242046F8BDF8B515460E460124F4
:108DE000F8F776F9009058B1C0680B21426A6846DE
:108DF0009047030004D02A46314600989847002443
:108E00002046F8BDF8B515460E460124F8F760F97E
:108E1000009058B1C0680A21426A68469047030032
:108E200004D02A4631460098984700242046F8BDD1
:108E300010B5074C2068006BFBF7A8FAFFF7CAFED5
:108E40002068406BFBF7A2FABDE81040FFF78ABE2E
:108E5000E400002001490880704700008000006C99
:108E600001490880704700007E00006C02480089BC
:108E70000249088070470000049301207E00006CC6
:108E8000034A10804FF0D842A2F8801070470000CB
:108E90007E00006C08B500231A4613491348F8F702
:108EA0008DF81348428801880020FFF795FF10488D
:108EB000428801880020FFF7A5FF0620F9F722FB72
:108EC000BC2040F65F734FF4A0720021009008466A
:108ED000F9F7B4FA40F63F709B23F022002100908E
:108EE0000120F9F7ABFA08BDE42F01086C22010854
:108EF0000493012010B503461446012901D1002036
:108F000010BD4FF0FF3200BF00BF1046F8E7000071
:108F10002DE9FF4F8DB01746674ADDF870901E9E11
:108F2000209812681D4600248AB11D9B1F98CDE928
:108F30000293CDE90460DDE91A03CDE9000314686A
:108F40002B463A460D98A04711B0BDE8F08F0D9A18
:108F500001EB050802EB070CDDE91A231A43A8F11F
:108F60000108ACF1010C012A06D0C9F108004FF04C
:108F7000000B029105909CE0504A1268B2F90A4039
:108F8000631A002B06DDED1A002DDDDD21461D9C48
:108F900003FB0466B2F90E30A8EB0303002B02DDDD
:108FA000ED1A002DD0DDB2F90C30ACEB0303002B31
:108FB00000DDFF1A0D9B1C1AB2F90830A3420DDD2B
:108FC000A3EB040C0CEB0003181A20F00700044478
:108FD000A7EB0C0706EBE30603F00700002FB3DD59
:108FE000DDF874C01F9BCDE902C6CDE90403CDE9CD
:108FF0000059527C32483B4650F82200C2685568FE
:109000000A462146A8479FE71B99029808440C90FE
:109010002A49401E00900A68B2F90A30834242DCB5
:10902000B2F90E10029881423DDB4FF0000A0D9814
:109030000A96D046039034E0BAF1000F05D10A98A1
:109040004FF0080A10F8014B0A900599AAEB090A9B
:1090500034FA01F004FA09F4E4B204D117490968BA
:10906000097C890717D415490968C96B0A680B92EE
:109070001F9A0AB152F82000086003991A98009BC1
:109080000A18DDE90210521EFFF7CCF80B490B98C5
:109090000968C96B086003991A9808F10108084427
:1090A0000390B845C8DB0C9802901D980BF1010B9A
:1090B0000644AB45A8DB47E730010020E400002070
:1090C00010010020002818D0410817D0810817D0BF
:1090D000C10817D0010917D0410917D0010A17D0CC
:1090E000410A17D0010B15D0C10B13D0010C11D0C0
:1090F000810C11D0000E11D0202070470120704744
:1091000002207047032070470420704705207047F5
:1091100008207047102070471220704718207047B1
:1091200000B50022FFF7CEFF012804D0811E0629DA
:1091300003D808220BE0012209E0A0F10901072968
:1091400001D8102203E011380F2800D82022104641
:1091500000BD000010B50548054908600846FAF74B
:1091600001F808B1F7F763FB10BD000000300240C2
:109170004800002000B58FB01C220C4908A8F7F762
:10918000B0F8002108A807F0ECFB094908601C2290
:1091900006491C3101A8F7F7A4F8002101A807F03F
:1091A000E0FB044908600FB000BD0000A0220108E8
:1091B000500000205400002000B587B01C216846F4
:1091C000F7F7B7F84FF02040184908601848486092
:1091D0000620886000211548C160016110214161AD
:1091E00000218161C161016241624FF4805181625D
:1091F0000021C162016341638163416405200090E5
:109200000F2001903C200290052003901020049034
:109210001120059000200690002269460348FAF7C5
:10922000C3FD08B1F7F703FB07B000BD6895012047
:10923000040100A000B587B0142102A8F7F779F85F
:1092400000BF002001907A48006840F0040078498F
:1092500008600846006800F00400019000BF00BFED
:1092600000BF002001900846006840F02000086020
:109270000846006800F02000019000BF00BF00BF5A
:10928000002001900846006840F080000860084611
:10929000006800F08000019000BF00BF00BF002008
:1092A00001900846006840F0020008600846006827
:1092B00000F00200019000BF00BF00BF002001903D
:1092C0000846006840F0100008600846006800F09A
:1092D0001000019000BF00BF00BF002001900846B1
:1092E000006840F0080008600846006800F00800C8
:1092F000019000BF00BF00BF002001900846006839
:1093000040F0010008600846006800F0010001908C
:1093100000BF00BF00BF002001900846006840F079
:10932000400008600846006800F04000019000BF5F
:1093300000BF012251033F48FAF7BCF800224FF466
:10934000C0613D48FAF7B6F8012240F201313B48CE
:10935000FAF7B0F80122D1023748FAF7ABF8002249
:109360004FF400413548FAF7A5F800224FF4007198
:109370003348FAF79FF84FF4005002900120039011
:1093800004900020059002A92A48F9F793FF4FF4B2
:10939000C06002900120039000200490059002A973
:1093A0002548F9F787FF01200290039004900220DE
:1093B000059002A92148F9F77DFF062002900020C0
:1093C00003900120049002A91C48F9F773FF4FF4A1
:1093D000006002900120039004900220059002A9F1
:1093E0001548F9F767FF4FF4004002900120039001
:1093F00000200490059002A91048F9F75BFF4FF494
:1094000000700290012003900490059002A90C487E
:10941000F9F750FF4FF44070029001200390049040
:10942000059002A90548F9F745FF07B000BD000007
:10943000303802400008024000140240000402409C
:109440000018024086B014220FA101A8F6F749FFC8
:10945000F7F714FF6FF0FF00F8F7A8FCF7F743FDEC
:1094600000230322052101A8F8F734FB04460A2251
:1094700011462046F8F7F5FB2046F8F7EDFB02E031
:109480006420F7F737FEFBE7687474703A2F2F6E8D
:10949000616D657974672E746F70000000BFFEE720
:1094A000704700BFFFF7CEFF052007F049FAF9E744
:1094B00000BF052007F044FAFBE7000010B500BF2D
:1094C000502080F31188BFF34F8FBFF36F8F00BF21
:1094D00008F092FC18B14FF080500449086000BFBA
:1094E000002080F3118800BF10BD000004ED00E0F3
:1094F00000B593B0302107A8F6F71BFF142102A88E
:10950000F6F717FF00BF002001902448006840F0E4
:109510008050224908600846006800F080500190A1
:1095200000BF00BF00BF002001901D48006840F44C
:1095300080401B4908600846006800F480400190A4
:1095400000BF00BF012007900004089002200D908A
:1095500041050E9108210F914FF4A871109102213D
:1095600011910421129107A8FAF7FAF908B1F7F757
:109570005EF90F20029002200390002004904FF427
:10958000A05005904FF480500690052102A8FAF7EC
:1095900097F808B1F7F74BF913B000BD4038024017
:1095A000007000401448006840F4700012490860E0
:1095B0001248006840F001001049086000200F497F
:1095C000083108600D4800680D4908400B490860E3
:1095D0000C48091D0860081F006820F48020091F3E
:1095E0000860002005490C3108604FF00060024916
:1095F000803908607047000088ED00E000380240C4
:10960000FFFFF6FE1030002410B50248FAF730FCD8
:1096100010BD0000B895012010B50268294B984292
:109620000ED0B0F1804F0BD0274B984208D0274B7B
:10963000984205D0264B984202D0264B984203D13F
:1096400022F070024B681A431E4B984220D0B0F1B2
:10965000804F1DD01C4B98421AD01C4B984217D0FB
:109660001B4B984214D01B4B984211D01A4B984276
:109670000ED01A4B98420BD0194B984208D0194B78
:10968000984205D0184B984202D0184B984203D10B
:1096900022F44072CB681A4322F080034C6943EAFB
:1096A000040202608B68C3620B688362054B9842B8
:1096B00002D0084B984201D10B6903630123436137
:1096C00010BD000000000140000400400008004000
:1096D000000C0040000401400040014000440140F3
:1096E0000048014000180040001C004000200040DD
:1096F0002DE9F0472DED068B84B04FF00008C146F0
:1097000000BF1F20FE4908804FF6FF70FAF708FEE1
:109710004FF47840FA4908804FF6FF70FAF700FEE0
:109720000020F74908804FF478421421084600F0E1
:109730001FFB0020F34981F820009FEDF30A084643
:1097400080ED090A06E3EF48416801208847ED48AB
:1097500090F8200000F0C000402871D14FF00009BF
:10976000E84890F8200020F04000E64981F8200009
:10977000084680892DF828000846C08A694601EB12
:109780008801488008F1010000F0FF08B8F1010FDE
:1097900009D0B8F1020F16D0B8F1030F26D0B8F1F6
:1097A000040F0FD138E04FF6FF721421084600F085
:1097B000DFFAD6490988143988B24FF47842142167
:1097C00000F0D6FAB7E2D1490988143988B24FF6C9
:1097D000FF72142100F0CCFACC484088143881B2D2
:1097E0004FF47842142000F0C3FAA4E2C74840883E
:1097F000143881B24FF6FF72142000F0B9FAC34A50
:109800005288143A91B2C14A1288143A90B24FF475
:10981000784200F0ADFA8EE2BDF80010BDF80420E9
:10982000881A002801DB014600E041420C46BDF8E1
:109830000220BDF80610501A002802DB014601E0A4
:109840007AE241420D4664436D436019F6F7F5FD37
:1098500041EC1A0BB0EE4A0AF0EE6A0A06F05CFF21
:10986000B0EE409AF0EE609A51EC190BF6F7F2FD6B
:1098700086B2BDF80810BDF80C20881A002801DB5C
:10988000014600E041420C46BDF80A20BDF80E102A
:10989000501A002801DB014600E041420D466443B6
:1098A0006D436019F6F7C9FD41EC1A0BB0EE4A0A98
:1098B000F0EE6A0A06F030FFB0EE409AF0EE609AE1
:1098C00051EC190BF6F7C6FD87B200EE106AF8EE00
:1098D000400A00EE107AB8EE400A80EE801A11EECF
:1098E00010AA5046F6F7CFFD41EC180B9FED880B00
:1098F00053EC102B51EC180BF6F7D8FD0AD39FED63
:10990000860B53EC102B51EC180BF6F7E7FD01D347
:1099100006B1A7B94FF000087C4A5288143A91B2B8
:109920007A4A1288143A90B24FF6FF7200F020FA89
:109930004FF478421421084600F01AFA0AE2BDF802
:109940000010BDF80820881A002801DB014600E05D
:1099500041420C46BDF80220BDF80A10501A0028FA
:1099600001DB014600E041420D4664436D4360194E
:10997000F6F763FD41EC1A0BB0EE4A0AF0EE6A0A04
:1099800006F0CAFEB0EE409AF0EE609A51EC190B68
:10999000F6F760FD86B2BDF80410BDF80C20881AF9
:1099A000002801DB014600E041420C46BDF80620DC
:1099B000BDF80E10501A002801DB014600E04142BC
:1099C0000D4664436D436019F6F737FD41EC1A0B01
:1099D000B0EE4A0AF0EE6A0A06F09EFEB0EE409A39
:1099E000F0EE609A51EC190BF6F734FD87B200EEF9
:1099F000106AF8EE400A00EE107AB8EE400A80EEE7
:109A0000801A11EE10AA5046F6F73DFD41EC180BF6
:109A10009FED3F0B53EC102B51EC180BF6F746FD66
:109A200008D39FED3D0B53EC102B51EC180BF6F7C0
:109A300055FD14D24FF00008344A5288143A91B2BE
:109A4000324A1288143A90B24FF6FF7200F090F941
:109A50004FF478421421084600F08AF97AE1BDF803
:109A60000410BDF80820881A002801DB014600E038
:109A700041420C46BDF80620BDF80A10501A0028D5
:109A800001DB014600E041420D4664436D4360192D
:109A9000F6F7D3FC41EC1A0BB0EE4A0AF0EE6A0A74
:109AA00006F03AFEB0EE409AF0EE609A51EC190BD7
:109AB000F6F7D0FC86B2BDF80010BDF80C20881A6D
:109AC000002801DB014600E041420C46BDF80220BF
:109AD000BDF80E10501A002801DB014600E041429B
:109AE0000D4664436D436019F6F7A7FC41EC1A0B71
:109AF000B0EE4A0AF0EE6A0A06F00EFE10E0000030
:109B00004400002008000020000000000493012011
:109B1000666666666666EE3FCDCCCCCCCCCCF03FBC
:109B2000B0EE409AF0EE609A51EC190BF6F792FC09
:109B300087B200EE106AF8EE400A00EE107AB8EE36
:109B4000400A80EE801A11EE10AA5046F6F79BFCF0
:109B500041EC180B1FED120B53EC102B51EC180BB2
:109B6000F6F7A4FC08D31FED140B53EC102B51ECAB
:109B7000180BF6F7B3FC14D24FF00008774A52885E
:109B8000143A91B2754A1288143A90B24FF6FF72A5
:109B900000F0EEF84FF478421421084600F0E8F89F
:109BA000D8E0BDF80400BDF80010401A00EE100A1D
:109BB000F8EEC00A69480088283800EE100AB8EEAE
:109BC000C00A80EE201A664880ED091ABDF804002C
:109BD000BDF80010084400EE100AF8EEC00A5F4815
:109BE000008800EE100AB8EE400A5D4890ED091AB0
:109BF00001EE600AF0EE000A80EE201ABDEEC10A06
:109C000010EE100A00B256498885BDF80A00BDF86A
:109C10000210401A00EE100AF8EEC00A4F484088C1
:109C2000283800EE100AB8EEC00A80EE201A4C4820
:109C300080ED0A1ABDF80A00BDF80210084400EED3
:109C4000100AF8EEC00A4548408800EE100AB8EE47
:109C5000400A434890ED0A1A01EE600AF0EE000A4D
:109C600080EE201ABDEEC10A10EE100A00B23C4987
:109C7000C8850A4692ED090ABDEEC00A10EE101A18
:109C8000002901DB0A4600E04A42022A0DDC344A80
:109C900092ED0A0ABDEEC00A10EE100A002801DBA0
:109CA000024600E04242022A2FDD4FF000082B4A14
:109CB0005288143A91B2294A1288143A90B24FF657
:109CC000FF7200F055F84FF478421421084600F076
:109CD0004FF8234890F8300008B9012000E0002038
:109CE0001F4981F83000084690F8300030B19020CC
:109CF0001C490870D0201C49087005E0D020194983
:109D0000087090201849087024E01F201749088027
:109D10004FF6FF70FAF704FB4FF47A70F9F74EFA3A
:109D200000F0D4F94FF6FF70FAF7FAFA04B0BDEC80
:109D3000068BBDE8F08700BF0A20F9F73FFA09F16A
:109D400001001FFA80F9B9F57A7F02DD00F048F8CA
:109D500001E000BFF7E400BF00BFE7E70493012084
:109D6000080000203C0000203D00002044000020AE
:109D700070B504460D4616461848068004F10D01DC
:109D80008AB2193988B22B462946FEF745F805F103
:109D90000D0083B2193881B222462046FEF73CF806
:109DA0006A1C91B2621C90B2FEF7C2F86A1C91B2B2
:109DB000621E90B2FEF7BCF86A1E91B2621C90B2AD
:109DC000FEF7B6F86A1E91B2621E90B2FEF7B0F8C6
:109DD000062229462046FEF7BDF870BD440000204B
:109DE00010B53520F6F7B7FC04460A2C32D1042111
:109DF0002820F6F79AFC1849486204212C20F6F72F
:109E000094FC1549886202213020F6F78EFC00B2DE
:109E10001149888502213220F6F787FC00B20E49ED
:109E2000C8853420F6F797FC0B4981F830000846C6
:109E300090F8300030B1902008490870D0200849CF
:109E4000087005E0D020054908709020044908708A
:109E5000012010BD0020FCE7080000203C0000208D
:109E60003D00002010B51A48808845F21051884204
:109E700014D1184890F8300040F08000154981F85E
:109E80003000084690F830001149897901F001014D
:109E90000843104981F83000002010BD0D491631EB
:109EA000A1F10A0000F09AF8F6F73BFCFFF798FFE3
:109EB00008B10020F1E74FF4FC60FAF731FAFFF740
:109EC00017FC00F003F9FFF78BFF0120E5E7000026
:109ED000049301200800002070B5064600250024E8
:109EE00000201C4908601C49C1F8AC021B490860ED
:109EF000304600F091F9062006F0AAFC002018492F
:109F0000C1F88002012006F0A3FC0120114908607D
:109F100000201349C1F8800200BF12E04FF6FF7025
:109F200000EA440400200B49086001200C49C1F8F4
:109F3000800208487838006808B1601C84B2681C48
:109F4000C5B2102DEADB2411012004490860204627
:109F500070BD00008082404200804242B402414213
:109F6000008040422DE9FE4380460027002406E0A1
:109F70004046FFF7B1FF2DF81400601C84B2052C99
:109F8000F6DB002416E0601C85B20FE03DF81400FB
:109F90003DF81510884207DD3DF814603DF81500C6
:109FA0002DF814002DF81560681C85B2052DEDDB29
:109FB000601C84B2042CE6DB0027012405E03DF898
:109FC0001400384487B2601C84B2042CF7DB0320F1
:109FD00097FBF0F086B23046BDE8FE832DE9F041F4
:109FE00004460D4607480078FFF7BCFF06460648C2
:109FF0000078FFF7B7FF074626802F800120BDE8D5
:10A00000F08100003C0000203D0000207FB50446A8
:10A010000D4603A902A8FFF7E1FF064616B9002086
:10A0200004B070BD01A96846FFF7D8FF06460EB917
:10A030000020F5E7BDF80400BDF80C10884206DCEE
:10A04000BDF80C10BDF80400323081420CDBBDF8C5
:10A050000C00BDF80410884236DCBDF80410BDF8D1
:10A060000C00323081422FDABDF80000BDF8081034
:10A07000884206DCBDF80810BDF80000323081428D
:10A080000CDBBDF80800BDF8001088421CDCBDF8F0
:10A090000010BDF808003230814215DABDF80C100E
:10A0A000BDF80420881800EBD071C1F34F01218066
:10A0B000BDF80810BDF80020881800EBD071C1F37E
:10A0C0004F0129800120ABE70020A9E710B5124815
:10A0D0000422416A2820F6F76AFB0F480422816AAD
:10A0E0002C20F6F764FB0C48808D81B202223020D0
:10A0F000F6F75DFB0848C08D81B202223220F6F7E8
:10A1000056FB054890F830103420F6F765FB0A211D
:10A110003520F6F761FB10BD0800002010B504469D
:10A120003B48006800284ED12CB13A49A1F10A0001
:10A13000FFF76CFF35E03749A1F10A00FFF766FF32
:10A1400078B334481638B0F92C0000EE100AB8EE97
:10A15000C00A3048163890ED091A808900EE900A3E
:10A16000F8EE600A01EE200ABCEEC00A10EE100AFA
:10A170002849163988810846B0F92E0000EE100AE9
:10A18000B8EEC00A084690ED0A1AC08A00EE900A9E
:10A19000F8EE600A01EE200ABCEEC00A10EE100ACA
:10A1A000C8821C48163890F8200000F0800038BBA8
:10A1B000C0201849163981F820000846818981821B
:10A1C000C18AC1831CE01348163890F8200000F0C3
:10A1D000800050B10F48163890F8200020F0800021
:10A1E0000C49163981F820000AE000210948163888
:10A1F0008182C1834FF6FF70064916398881C88273
:10A200000448163890F8200000F0800010BD0000CF
:10A21000048240421E000020002100BF14E000F034
:10A2200080021AB101220A4B1A6002E00022084B98
:10A230001A604206100E0022064B1A600122064BDD
:10A24000C3F880224A1CD1B20829E8DB704700001D
:10A25000AC824242808240420080404200BFFEE722
:10A2600002490120096881F854007047E400002089
:10A270002DE9F0418AB00446F7F74AF8BCB320460E
:10A28000F6F7B0FD0190D0E90012CDE90412876A1B
:10A29000056A01A8F6F7E4FD204600F0E5FC06009B
:10A2A00025D0204600F0E7F98046B80704D52A46B5
:10A2B000414604A800F03EFE2046F6F793FD0190CB
:10A2C0004046F6F78FFD06903046F6F78BFD03907B
:10A2D00005620698019AC1691162C46101A8F6F786
:10A2E000BFFD06A8F6F7BCFD03A8F6F7B9FDF8F721
:10A2F0000DFA0AB0BDE8F0812DE9FC5F9846DDE972
:10A300000C5491460E460746DDF83CB0F7F700F8CE
:10A31000DFF828A1DAF81C0004434DB9BAF80200AE
:10A3200048B347480AF148010068407C51F8205082
:10A33000681C0ED0FDB12846F6F754FD0190B0F927
:10A340000010B0F902200F441644B9F1000F02D0FA
:10A3500006E000250FE0B0F90430591A01F10109B7
:10A36000B8F1000F04D1B0F90600801A00F101081D
:10A3700001A8F6F775FD0BF12C00F6F76DFC5FEA0E
:10A38000000B56D0BAF80200401CAAF8020058464A
:10A39000F6F728FD0090078007EB09014680491E6B
:10A3A000818006EB0801491EC1800E990161254A92
:10A3B000816A2240114381626846F6F751FDDAF85E
:10A3C00014005E4650B1F6F763FD07463046F6F7D7
:10A3D0005FFD0146786948617E6101E0CAF814B00A
:10A3E0002946584600F0D6FCA00602D5584600F093
:10A3F000EDFAE00704D0DAF82810491CCAF8281052
:10A40000600602D55846FFF733FFA0070DD5584622
:10A41000F6F7E8FC0090816A41F00201816268462B
:10A42000F6F71EFD584600F0EDF90121584600F000
:10A4300020FFF8F76BF95846BDE8FC9F1802002092
:10A44000E40000209F3F3F00064910B50968002046
:10A4500081F85400F6F75CFFFEF7A8FBBDE810405A
:10A46000F8F754B9E400002010B50446C168D4E9F7
:10A470000020172A0DD004DC0E2A0CD0142A07D194
:10A4800004E0222A0CD0282A02D10CE000F0A6FB1E
:10A490000020E06010BD2146BDE8104000F0C5BAC4
:10A4A0006FF07040F5E7BDE8104000F0ABB938B58B
:10A4B000040010D0F6F72CFF2046F6F793FC00902E
:10A4C0000068F7F711FD6846F6F7CAFC2046F6F774
:10A4D000E5FBF8F71BF938BDF8B5050070D0F6F7C5
:10A4E00017FF284600F02AFD002867D0284600F014
:10A4F000CDFB07460B21284600F0BBFE284600F0A6
:10A5000030FB2846F6F76EFC0090406A08B1F6F77B
:10A51000F3FF2C4C002104F16002A163206952F882
:10A520002030AB4201D142F82010264A583252F86E
:10A530002030AB4201D142F82010A06904E043680A
:10A54000AB4200D1416000680028F8D107212846BD
:10A5500000F099F9009801F007FA284600F02AFB6C
:10A5600060690CE0F6F794FC064640692946A8426B
:10A5700005D10846F6F78CFC4069706101E00028BF
:10A58000F0D10098806AC10702D0A16A491EA16279
:10A59000800602D5A088401EA0806846F6F760FCC1
:10A5A0006088401E60802846F6F778FB002F05DBA8
:10A5B0000448483050F8270000F008FAF8F7A6F8E9
:10A5C000F8BD00001802002070B50025F6F7A0FEC7
:10A5D0001A4C606B10B1804700E0012502F052FE7A
:10A5E0000028FAD11648006890F8540038B1A088C5
:10A5F00028B1606A012620B10068804704E0002687
:10A6000002E00120F8F7B8FCF8F780F800E0012537
:10A6100002F020FE0028FAD1F6F77AFE4EB1606A09
:10A6200020B1406880470020E06002E00020F8F799
:10A63000A3FCF8F76BF8284670BD00001802002054
:10A64000E4000020034804490068407C51F82000E1
:10A6500070470000E40000206002002010B50400F4
:10A6600007D0F6F755FE2046F6F712FCC469F8F756
:10A670004DF8204610BD10B5040007D0F6F748FE8F
:10A680002046F6F705FC8469F8F740F8204610BD2F
:10A6900070B505004FF0000408D0F6F739FE2846E3
:10A6A000F6F7F6FBB0F90040F8F730F8204670BD39
:10A6B0002DE9FF5F2C4D6878002853D100272B48E7
:10A6C0006F61AF630068DFF8A8903C464764AF80D5
:10A6D0006F804FF0020A4FF0FF3B43F6FF7805F121
:10A6E00048062046F6F7F4FC98B1CDE90297CDE98B
:10A6F00000BA0021424643460846FFF7FDFD1A4ACC
:10A7000046F8240050326FF0704142F8241000F0F7
:10A7100079F8641C022CE4DB164FDFF85C80DFF86C
:10A720005C90002407EBC40000F0E4F908EBC400DF
:10A7300000F0E0F909EBC40000F0DCF9641C022C25
:10A74000F0DB306800F042F9FFF78AFD012006498E
:10A75000687040310A48086004B00846BDE8F05F00
:10A76000F8F7DABCBDE8FF9F18020020E4000020E3
:10A77000BD07010868D5012078D5012088D50120C2
:10A780003DE1000870B586B00D46060031D0F6F701
:10A79000BFFD3046F6F726FB0090846AA10723D55B
:10A7A000D0E90010CDE90110E00302D5304600F0F9
:10A7B00047FB5DB1286803906868049003A900987E
:10A7C00000F0A0F903A901A8F8F790FB314601A811
:10A7D00000F0A0F940B140F601000440012C0AD07D
:10A7E00001A9304600F028FB6846F6F739FBF7F779
:10A7F0008DFF06B070BD0098026A816901A800F063
:10A8000099FBF1E70021FFF7BDBFFEB515460E46E7
:10A8100004001CD0F6F7E6FA0246009090F82800F3
:10A82000800711D5314601A8F8F77DFB60B1684675
:10A83000F6F716FB2A4601A9204603F055FB2046F1
:10A84000FFF70CFF04460CE06846F6F709FBFEBD77
:10A850002A4601A92046FFF7D8FF2046F6F718FB45
:10A86000046A002CF4D1FEBD70B514460D460646B0
:10A87000F6F74EFD22462946304600F06FFBBDE854
:10A880007040F7F743BF1FB5262203910092694637
:10A8900000F0CBF81FBD000070B586B00D4606462F
:10A8A0000024F6F735FD0B490948096850F82100E6
:10A8B00048B10E210595009104A9CDE9031669461A
:10A8C00000F0A6FC0124F7F721FF06B0204670BD7A
:10A8D000780200202802002070B5154606468AB08E
:10A8E0000C4651EA05006FD0002E6DD0F6F710FD32
:10A8F0003046F6F777FA0590D0E90012CDE902125A
:10A90000CDE906127CB1816A0A0607D5890505D40E
:10A91000BDF81810091BADF8181004E0BDF81C10A4
:10A920002144ADF81C107DB1816ACA0507D54905DF
:10A9300005D4BDF81A10491BADF81A1004E0BDF893
:10A940001E102944ADF81E10806AC00302D530469F
:10A9500000F076FA05AB93E80700C0E9001290F822
:10A96000280080070AD506AA02A908A8F7F75DF80B
:10A970000598026A816908A800F0DCFABDF91E009A
:10A98000BDF90E10401A0090BDF91C00BDF90C1065
:10A99000431ABDF91A00BDF90A10421ABDF9180090
:10A9A000BDF90810411A059800F06AFC059901F1FB
:10A9B0000800F8F79BFA0521304600F05AFC05A87C
:10A9C000F6F74EFAF7F7A2FE0AB070BD70B504466E
:10A9D000F6F79EFC0C4D2868866C0CB90B494C6947
:10A9E0008464204600F00AFCFEF7E0F82046F6F703
:10A9F0004FFA2968B0F90020CA64B0F9020008656E
:10AA0000F7F784FE304670BDE400002018020020F5
:10AA100070B50C460546F6F77BFC2146284600F04B
:10AA200015FCBDE87040F7F771BE70B50C00054627
:10AA30000DD0F6F76DFC2846FFF71DFE18B1214634
:10AA4000A56000F0E5FBBDE87040F7F75FBE70BDA4
:10AA500010B5F5F7AFFF024900200968486410BD42
:10AA6000E4000020F8B516460C4605001DD0F6F7A8
:10AA70004FFC2846F6F7B6F90090B0F90410B0F98B
:10AA80000020891A641AB0F90610B0F90200641E99
:10AA9000081A361A6846761EF6F7E2F9324621465B
:10AAA0002846FFF719FFF7F731FEF8BD0EB50E483F
:10AAB000006890F8541009B10C4811E0806CF6F76A
:10AAC00091F90090D0E90010CDE901106846F6F741
:10AAD000C7F90748C16A11B101A800F01BF801A825
:10AAE00004F08AFF0EBD0000E400002040D50120E4
:10AAF0001802002002490A680260086070470000DE
:10AB0000300200200B46B0F90220B0F900101846C0
:10AB1000F6F7B7BF38B50C4605462046F6F762F99A
:10AB20000146009090F82800800703D46846F6F7A5
:10AB300097F912E02846F8F7D9F90098806920B112
:10AB400004466846F6F78CF9E7E76846F6F788F9B1
:10AB5000204600F013FF002801DA002038BD012054
:10AB600038BDF8B50546F6F7D3FB6846F7F7E8F9C0
:10AB70001AE001212046F7F7CAF9009981B178B1AE
:10AB80000846F6F785F94068A84209D1694620468B
:10AB9000009EF7F7E9F904463046FFF788FC04E029
:10ABA00069462046F7F7E0F90446002CE1D1F7F7B3
:10ABB000ADFDF8BD38B50446F6F714F9009081698B
:10ABC00041B1026A00F0B6F9204600F0F7FA0099A8
:10ABD000002088616846F6F743F938BD38B50C4661
:10ABE00000280AD0002C08D0F6F7FCF82146009087
:10ABF00000F004F86846F6F733F938BD00224A80C1
:10AC00000A8082880388D21A8A80C2884088101AF3
:10AC1000C880704710B5FFF72EFD002802D0F6F768
:10AC200037F9C06910BD00000D4810B5006890F8F4
:10AC30005400002806D00B4C6069012803DD401E3B
:10AC40006061002010BD2069401C206102F05CFCA6
:10AC500018B1FFF72BFF012010BD6069EFE700007E
:10AC6000E400002038D5012070B50546FFF7D2FF7B
:10AC700008E0AC4201D1002406E0F6F709F9006AC9
:10AC8000A84201D00400F4D1204670BD10B504469E
:10AC9000F6F7FEF880690028F9D12046BDE810409B
:10ACA00000F06CBEF0B5384E074687B0306890F8BB
:10ACB000541041B1354C6169491C6161012905DDC0
:10ACC000012007B0F0BDFFF7F1FEF9E7806CF6F761
:10ACD00089F82F4D4FF0FF3100902161297821B183
:10ACE00081680291C068039007E090F828108907F6
:10ACF0003CD5D0E90010CDE902101FB1394602A8B9
:10AD0000F8F7F4F83068406C78B300980490306835
:10AD1000406C0168059140680690E86A30B104A86B
:10AD2000F6F79EF8E86AF6F75DF8049005A904982E
:10AD3000FFF7E8FE05A902A8F8F7D8F80DF1100012
:10AD4000F6F78EF8E96A19B102A8FFF7E3FEB0B191
:10AD50003068816C02A8FFF7DDFE80B1DDE90201F9
:10AD6000C4E90001FFF760FFABE706E06069401E41
:10AD700060616846F6F774F804E06846E0E76069E9
:10AD8000401E606100209CE7E400002038D50120CF
:10AD900018020020FEB50D00044647D0F6F722F851
:10ADA00000900021856101622846F6F71BF80099A2
:10ADB0000290C56991F8281001F008062DB12846C7
:10ADC000F6F710F8019036B115E0C4616846F6F761
:10ADD00047F802A828E090F8280000070BD5009853
:10ADE00005620298C4616846F6F73AF802A8F6F7D9
:10ADF00037F801A818E002A8F6F732F801A8F6F72C
:10AE00002FF82846F6F744F811E004620BE02846D4
:10AE1000F6F73EF85EB990F82810090707D50198B3
:10AE20000462009805626846F6F71AF8FEBD0190C4
:10AE3000056A002DEBD1E8E7202203F055B80000A9
:10AE400038B5040022D0F5F7CDFF009090F8281017
:10AE5000890718D5406A40B10D49096BA14204D059
:10AE6000F6F74AFB0099002048622046FFF7F6FB00
:10AE7000044606E02046FFF7E3FF2046F6F708F811
:10AE8000046A002CF6D16846F5F7EAFF38BD0000E9
:10AE90001802002070B5064615460C460846F5F720
:10AEA000F7FF806AC00302D54FF4804300E02023FF
:10AEB0002A4621463046BDE87040AFF300802DE9B8
:10AEC000FF419846164607460D0031D00846F5F773
:10AED00089FF0090846A0246A00726D5394601A85A
:10AEE000F8F721F808B340F601000440012C07D020
:10AEF000424601A9284602F0F7FF0098C46912E013
:10AF000000984346026A816901A8FFF7D8FFF4E779
:10AF1000B4420AD0424601A92046FFF776FC2046FB
:10AF2000F5F7B6FF046A002CF2D16846F5F798FFF2
:10AF3000BDE8FF812023FFF7C2BF000010B5044623
:10AF400005484069002802D0A04201D1012010BD6F
:10AF5000F5F79EFFF5E7000018020020F0B58BB072
:10AF600006004FF0000015460C4604900590069030
:10AF700007903ED054EA05003BD03046F5F732FF4B
:10AF80000090D0E90012CDE902122A462146F6F7D8
:10AF900078FD00982A4621460830F6F772FD0098A1
:10AFA000C7696846F5F75CFF2A462146384603F034
:10AFB0004BF83046F5F716FF009090F828108907F7
:10AFC0000AD5816941B1026AFFF764FF0098026AFD
:10AFD000816902A8FFF75EFF6846F5F741FF03208D
:10AFE000049007AA08A882E8310004A9304600F0BE
:10AFF0000FF90BB0F0BD00002DE9F14187B000253D
:10B000000798F5F7EFFE0190D0E90212CDE903129F
:10B0100007698669846A01A8F5F722FF44F22008CF
:10B0200014EA080F30D0DFB103A80799FFF772FDCB
:10B03000B0B10798FFF7CAFC60070DD556B144F3CD
:10B040000000401C0090002307AA114903A8F6F74E
:10B0500077FA05E00120F5E7079800F063F801258D
:10B060000798F5F7BFFE0190816A21EA0801816225
:10B070008A0402D541F00401816201A8F5F7F0FECF
:10B0800004498888401E888008B02846BDE8F081C1
:10B090000D08010818020020F0B589B00546F5F743
:10B0A000A1FE0290866A0469D0E90210CDE9001081
:10B0B00002A8F5F7D5FE002C30D0B0072ED52E21F2
:10B0C0002846FFF7A5FC164C6F462078401C2070E0
:10B0D000F0044FF00F0609D5CDE904650797FFF797
:10B0E000B7FC04A9284600F093F810E03846FFF7B3
:10B0F000D9FD0AE0CDE904650797FFF7A9FC04A98B
:10B10000284600F085F8FFF78FFD0028F2D120785F
:10B110002F21401E20702846FFF77AFC09B0F0BDB1
:10B120001802002038B50446F5F75CFE0090806AEE
:10B1300040F601010840012805D06846F5F790FE69
:10B14000204603F053F81448806A002823D0204694
:10B1500003F0A4F82046F5F79BFE8569046A18E021
:10B160002046F5F795FE90F82800C043800702D1ED
:10B17000204603F04DF8204603F090F82046F5F7FE
:10B1800087FE046A002CEBD12846F5F781FE85691D
:10B19000046A002DF6D138BD18020020B0F9001065
:10B1A000B0F90420914205DCB0F90210B0F90600B4
:10B1B000814201DD002070470120704770B50646CE
:10B1C000F5F766FE05468069002809D0F5F760FEB0
:10B1D0000446C069B0420ED1F5F75AFE006AE0613C
:10B1E00070BD00BFF5F754FE0146006AB04202D1BF
:10B1F000286A086270BD0028F4D170BD10B5FFF751
:10B2000045FD002803DBBDE81040F6F7B3BD10BDD7
:10B2100070B50D4C06460D46206814280DDA3046F0
:10B22000F5F736FE01696E6041B12068401C206070
:10B23000284688472068401E206070BD2846BDE82B
:10B240007040FFF711B90000FC0200207FB50546F1
:10B25000002000900190029003900C462846F5F7DC
:10B2600017FE0269002A03D06846CDE900459047E1
:10B270007FBD1FB5CDE900106946FFF7C9FF1FBDAF
:10B280002DE9FF4F81B09B46C66962E03046F5F775
:10B29000A9FD01460090D1E90004896A254601F420
:10B2A00020730246802B09D0B3F5207F029B134404
:10B2B00006D063F30F02029B234405E002EB0B036D
:10B2C00063F30F0204EB0B0301F4A06163F30F04BB
:10B2D000B1F5807F0BD0B1F5A06F03994FEA2243FF
:10B2E00007D0194461F31F422314039906E00E9915
:10B2F0001314194461F31F420E99231419440FFAD1
:10B3000082FA61F31F440FFA80F917144FEA2048BC
:10B31000AAEB0901A7EB080251EA020002D030466D
:10B32000FFF7A2FA2AB221B2A2EB0900A1EB0A01AF
:10B33000091AC7EB2440C8EB2542821A51EA0200E1
:10B3400002D03046FFF7C8FA0098066A6846F5F75B
:10B3500087FD002E9AD105B0BDE8F08F2DE9F041B0
:10B36000214D0C460646E968A86B0844A119401E09
:10B37000814206D80846096819B941680E4404F0AC
:10B3800093FAA86BA0420AD254F8040C271A386822
:10B3900028B978680644384604F086FA3C463046B8
:10B3A00002F010FB10281CD205EBC007324600212A
:10B3B00020467B6C04F0E0FC57F8440F083400B1E1
:10B3C00044602060002060603C6028683044286051
:10B3D00095F8291029B9E968081AA968814200D2AC
:10B3E000A8603046BDE8F081E8D201202DE9F041A7
:10B3F000054602F045FC2A48046CAC4202D8ED1C1C
:10B4000025F00304804600680C34A04202D20020DC
:10B41000BDE8F08102F090FF071EF9D0204602F04F
:10B42000D1FA414630E000BF01EBC002526C52B38A
:10B43000956845B36B68A34206D2AA681AB39568AB
:10B440000DB36B68A342F8D3D8F84000191B0C3039
:10B450001E46814200D23446284604F025FA0421D3
:10B46000D8F8340001EBC701002345502246394685
:10B47000284604F081FCA64203DD2919301BFFF7A2
:10B480006DFF3846C4E7401C1028CDD3204604F099
:10B4900053FA0028C2D0384602F06EFFB7E700002A
:10B4A000E8D201202DE9F04104000E464FF0FF37AD
:10B4B0000DD0084602F0B0FD050008D0606808B164
:10B4C00002F090F9C4E900650020BDE8F08138463B
:10B4D000FBE700002DE9F0410D0004464FF0FF3876
:10B4E00022D02968C9B1144F2068C8B1084402F0BD
:10B4F00093FD060018D0D4E900213B689847D5E9B0
:10B50000002120683B6830449847606802F06AF97F
:10B51000206829680844C4E900060020BDE8F081DD
:10B520002046FFF7BFFF08B14046F7E7D5E9002105
:10B530003B6860689847F0E7A80100202DE9F047D4
:10B54000814679B10D46164600F06BF804004FF0C5
:10B5500000072DD0E900FFF7A5FF30B1204600F02D
:10B560006AF825E00020BDE8F08700214FF0010CCB
:10B57000606810E08023002216F8018018EA030FAB
:10B5800002D080F800C000E007705B08401C521C2D
:10B59000082AF1DB491CA942ECDB4CB121464846A4
:10B5A000FFF798FF0546204600F045F82846DAE701
:10B5B0004FF0FF30D7E72DE9F041804679B10D46D5
:10B5C000164600F02EF804004FF0000726D029465A
:10B5D000FFF768FF30B1204600F02DF81EE0002094
:10B5E000BDE8F081681E012202FA00F000236168C4
:10B5F00007E0064201D00A7000E00F704008491CC5
:10B600005B1CAB42F5DB4CB121464046FFF762FFC5
:10B610000546204600F00FF82846E1E74FF0FF30DE
:10B62000DEE710B5082002F0F7FC002802D0002168
:10B630000160416010BD10B5040007D0606802F0E1
:10B64000D1F82046BDE8104002F0CCB810BD2DE97D
:10B65000F041046805467CB1E01DC11700EB517054
:10B66000C01002F0D9FC002807D0E11704EB51719B
:10B67000CE10002369680EE00020BDE8F0810022B2
:10B6800015465206170E11F8012B6D1C3A43082D72
:10B69000F7DBC2545B1CB342F1DB6207EDD0002242
:10B6A000134604F0070405E05206150E11F8012BAD
:10B6B0002A435B1C9C42F7DC8255DEE70120704781
:10B6C00010B54843F5F7C8FABDE81040F5F78ABB56
:10B6D000F0B50B4DDFF82CC010C855FA84F6C4F352
:10B6E0000727C4F3074436781CF807702C5D06EB77
:10B6F000471606EBC4240C801944521EECD1F0BD51
:10B70000D0300108D031010810B510C80C601944C0
:10B71000521EFAD110BD00002DE9F0478146FCF71A
:10B72000B1FD4FF0000807466FF07F444546FCF737
:10B73000C1FD060018D000BF56F82510494502D1BA
:10B740002846BDE8F0876D1CBD42F5DB5FF00005C3
:10B75000484656F82510F5F7A8FBA04201D204464A
:10B76000A8466D1CBD42F3DB4046EAE710B5084A27
:10B7700052FA80F1074BC0F30724C0F30740097861
:10B780001B5D105C01EB431101EBC02010BD0000FC
:10B79000D0300108D031010870472DE9F05F9A469A
:10B7A000DDE90A8791460C4605468B46164635F874
:10B7B000020B41468847B84701C4761EF7D1504670
:10B7C000BAF1200F06D2024649465846BDE8F05F5E
:10B7D000F7F73CB8BDE8F09F2DE9F05F9A46DDE948
:10B7E0000A8791460C4605468B46164615F8010B0E
:10B7F00041468847B84701C4761EF7D15046BAF192
:10B80000200F06D2024649465846BDE8F05FF7F7DA
:10B810001DB8BDE8F09F00002DE9F04786B08246D4
:10B82000F5F7E0FA0390D0E90075D0F8249003A86A
:10B83000F5F716FB29B20FFA87F83E14A1EB0804BE
:10B84000C6EB2545641C6D1C002C01DD002D03DCBE
:10B85000002006B0BDE8F087B9F1000014D0F5F77C
:10B86000C1FA0490B0F90440B0F9065004A8F5F705
:10B87000F7FA38B2A04201D1AE425BD0324641461F
:10B880004846F5F7A5FF55E0FEF7DCFE824513D1EB
:10B89000FCF72EFD0746FCF73FFDBC4201DC85426C
:10B8A0000ADDBC4200DD3C46854200DD05462A46F5
:10B8B00021465046FFF7D6F8254A264901208DE853
:10B8C0000700314640462B462246F5F7EDFF064677
:10B8D0005046F5F787FA0390466286B3816A41F4D1
:10B8E0008031816203A8F5F7BBFA3046F5F748FFCF
:10B8F00007460120F6F798FF3046F5F7E6FE174BAE
:10B9000015496C431B68A20009789847144E154CE2
:10B910005046C6F800A02568FEF7BAFE20605046E3
:10B92000FFF7BAFB002025603060F6F77DFF384650
:10B93000F5F726FF5046F5F7ABFA406A89E7FFE7CF
:10B9400003A8F5F78DFA5046FFF7A6FB80E7000045
:10B95000243B01087C3B0108F8020020A4010020E0
:10B96000480200202801002010B50446E069FEF7D7
:10B97000B3FDE0690028F9D110BD00000146064A78
:10B98000002000BF52F820308B4204D0401C022817
:10B99000F8DB4FF0FF307047600200202DE9F041E6
:10B9A00007460D4690461C46069E08E02388424600
:10B9B0002946384604F096F8761E6D1CA41C002E0D
:10B9C000F4DCBDE8F08100002DE9FF4F83B0814633
:10B9D0000E461C46DDE9117A109DDAF8000002904F
:10B9E000DAF8040001902E4432480068007C00F030
:10B9F000030030B1012836D002281CD0032855D1CD
:10BA000030E000BF207880222A41104008B1019820
:10BA100000E0029803463146761C4846059A04F039
:10BA200061F8681C0546082801D10025641C781EB1
:10BA3000071EE7D13AE000BF207880212941084065
:10BA400028B131464846019B059A04F04BF8761C14
:10BA5000681C0546082801D10025641C781E071EB5
:10BA6000EAD123E000BFD9F81010886880478046EB
:10BA700000BF207880212941084060B13146484606
:10BA8000059A01F0ADFF83468BEA0803314648462C
:10BA9000059A04F027F8761C681C0546082801D191
:10BAA0000025641C781E071EE3D100BF00BF07B04D
:10BAB000BDE8F08FE40000202DE9FF5F9046DDE94E
:10BAC0000E924D4B99F80050C2F108048A465D5D14
:10BAD000DDE91071D540494A139E1268127C12F0BC
:10BAE000030226D0012A03D0022A37D0032A72D1BA
:10BAF0000069806880471FFA80FBBC4200D93C4641
:10BB00003F1BBAF1000F68D0E8070AD0DAF8080046
:10BB10004146039A036850469847318881EA0B01F1
:10BB200031806D0808F10108641E06F10206EBD1B0
:10BB30005EE0314ABC4200D93C463F1B05F00100A3
:10BB40006D0831F8200026F8020B641EF6D1002F94
:10BB500050D019F8010F0824155CEBE788881FFA0C
:10BB600080FBBC4200D93C463F1BBAF1000F17D006
:10BB700095B1E80708D0DAF808004146039A03684F
:10BB800050469847A6F800B008F10108641E06F177
:10BB9000020612D06D08EBE706EB4406A0440CE069
:10BBA0004DB1E80701D0A6F800B0641E06F1020608
:10BBB00003D06D08F4E706EB4406002F1AD019F8FD
:10BBC000011F0D480824455CCBE719F8011F0A48FE
:10BBD0000824455C91E70DE0FFE7E80703D03088D3
:10BBE00080EA0B0030806D08641E06F10206F4D175
:10BBF000002FEAD1BDE8FF9FEC320108E4000020ED
:10BC00002DE9FF4F81B08A46DDF8388011ACDFF8AE
:10BC100004B198F800509146DDE90F1794E845000B
:10BC20001BF80550C1F10804CD403B495B4609684B
:10BC3000097C11F003011FD0012903D0022930D063
:10BC4000032964D110680069806880475946BC4266
:10BC500000D93C463F1BEA0702D0326842403260BE
:10BC60006D08641E06F10406F5D1002F4FD018F8B8
:10BC7000012F08248D5CEAE71946BC4200D93C46F6
:10BC8000B7EB040705F001026D0850F82220641E8E
:10BC900004C6F7D1002F3AD018F8012F08248D5C84
:10BCA000EBE740680090BC4200D93C463F1BBAF12C
:10BCB000000F17D095B1E80708D0DAF80800494618
:10BCC000049A0368504698470098306009F10109CA
:10BCD000641E06F1040612D06D08EBE706EB84063D
:10BCE000A1440CE04DB1E80701D000983060641E1B
:10BCF00006F1040603D06D08F4E706EB8406002F76
:10BD000005D018F8011F08241BF80150CBE705B037
:10BD1000BDE8F08FEC320108E40000202DE9FF4F70
:10BD200081B00F469846DDE90F9A98F800B00E9D55
:10BD30000E9D2F4453480068007C00F0030010B1B2
:10BD400002284BD14BE0BAF1000F25D000BFC5F15E
:10BD500003004400C4F10601C020084100EA0B00C2
:10BD600020FA04F65AF82600009039467F1CDDE9D7
:10BD70000030039A03F0B6FE681C0546042805D17E
:10BD8000002508F10100804690F800B0A9F10100FB
:10BD9000B0F10009DBD121E000BFC5F10300440090
:10BDA000C4F10601C020084100EA0B0020FA04F6A5
:10BDB00039467F1C3346039A019803F093FE681CB2
:10BDC0000546042805D1002508F10100804690F8B9
:10BDD00000B0A9F10100B0F10009DED14DE0BAF1E7
:10BDE000000F26D000BFC5F103004400C4F10601D6
:10BDF000C020084100EA0B0020FA04F646B15AF8C8
:10BE0000260000903946DDE90030039A03F06AFE0F
:10BE10007F1C681C0546042805D1002508F1010097
:10BE2000804690F800B0A9F10100B0F10009DAD124
:10BE300022E000BFC5F103004400C4F10601C020A8
:10BE4000084100EA0B0020FA04F62EB133463946C9
:10BE5000039A019803F046FE7F1C681C05460428DF
:10BE600005D1002508F10100804690F800B0A9F145
:10BE70000100B0F10009DDD100BF00BF05B0BDE891
:10BE8000F08F0000E40000202DE9FF5F8B460FA932
:10BE9000DDF8388091E82104C0F10401CCB298F8B3
:10BEA0000010400081402F48129F91460068CEB29A
:10BEB000007C10F0030004D001283AD002284FD1B2
:10BEC00014E0AC4200DDECB22D1BB1093AF82100C0
:10BED00027F8020BB006060E641E14F0FF04F4D11E
:10BEE000002D3DD0042418F8016FEAE7AC4200DDD4
:10BEF000ECB22D1BB0090DD0B109BBF1000F3AF81F
:10BF00002100388006D0DBF808004946039A036810
:10BF100058469847B006060E641EBF1C09F1010979
:10BF200014F0FF04E6D1002D1AD0042418F8016F94
:10BF3000DCE7AC4200DDECB22D1BB00903D0388841
:10BF400080F0FF003880B006060E641EBF1C14F09F
:10BF5000FF04F2D1002D03D0042418F8016FE8E7A4
:10BF6000BDE8FF9FE40000202DE9FF5F8B460FA98D
:10BF7000DDF8388091E82104C0F10401CCB298F8D2
:10BF80000010400081402F48129F91460068CEB2B9
:10BF9000007C10F0030004D0012839D002284ED1D3
:10BFA00013E0AC4200DDECB22D1BB1095AF82100C0
:10BFB00001C7B006060E641E14F0FF04F5D1002D73
:10BFC0003DD0042418F8016FEBE7AC4200DDECB281
:10BFD0002D1BB0090DD0B109BBF1000F5AF821009B
:10BFE000386006D0DBF808004946039A03685846D3
:10BFF0009847B006060E641E3F1D09F1010914F0B2
:10C00000FF04E6D1002D1AD0042418F8016FDCE7F4
:10C01000AC4200DDECB22D1BB00903D0386880F0D3
:10C02000FF003860B006060E641E3F1D14F0FF04CA
:10C03000F2D1002D03D0042418F8016FE8E7BDE821
:10C04000FF9F0000E40000202DE9F04107460D4667
:10C0500090461C46069E08E042462946384623681C
:10C0600003F040FD761E6D1C241D002EF4DCBDE89F
:10C07000F08100002DE9F0479946DDE908540A9F58
:10C0800092465FEA0108064608D0D8F80800234621
:10C090004A46D0F804C051464046E0473069DFF8D0
:10C0A0008090C16839B1A20029463846D9F80030DD
:10C0B000BDE8F04718474168002088474FEA1068FC
:10C0C000284621464246002608C81B0E934201D14D
:10C0D00006F10106A1F1010101D10029F4D166B1F7
:10C0E000D9F800304FEA860229463846984707EBD0
:10C0F000860705EB8605A41B0DE02868010EFF29C5
:10C1000006D2084BC1F1FF0239681B6898473860B6
:10C11000641E2D1D3F1D002CD2D1BDE8F08700000C
:10C12000A8010020800200202DE9FF4F81B00F46BA
:10C130009846DDE90F9A98F800B00E9D0E9D2F44A9
:10C1400053480068007C00F0030010B102284BD176
:10C150004BE0BAF1000F25D000BFC5F1010084000B
:10C16000C4F10401F020084100EA0B0020FA04F6B3
:10C170005AF82600009039467F1CDDE90030039A0A
:10C1800003F0B0FC681C0546022805D1002508F123
:10C190000100804690F800B0A9F10100B0F100095B
:10C1A000DBD121E000BFC5F101008400C4F104012E
:10C1B000F020084100EA0B0020FA04F639467F1C03
:10C1C0003346039A019803F08DFC681C054602284B
:10C1D00005D1002508F10100804690F800B0A9F1D2
:10C1E0000100B0F10009DED14DE0BAF1000F26D018
:10C1F00000BFC5F101008400C4F10401F020084132
:10C2000000EA0B0020FA04F646B15AF82600009026
:10C210003946DDE90030039A03F064FC7F1C681C9A
:10C220000546022805D1002508F10100804690F856
:10C2300000B0A9F10100B0F10009DAD122E000BF9D
:10C24000C5F101008400C4F10401F020084100EAB6
:10C250000B0020FA04F62EB133463946039A0198B2
:10C2600003F040FC7F1C681C0546022805D1002510
:10C2700008F10100804690F800B0A9F10100B0F18A
:10C280000009DDD100BF00BF05B0BDE8F08F0000A0
:10C29000E40000202DE9F05F92460BAA894692E85F
:10C2A00042010A9F9B468B003A78C1F102009A40F6
:10C2B000D5B24F4A0E9CC0B21268127C12F0030233
:10C2C0001BD0012A7CD0022A3AD1D9B328090DD03B
:10C2D0002909B9F1000F38F82100208006D0D9F8DB
:10C2E00008005A465146036848469847A41C0AF17C
:10C2F000010A17F8015F761E4CE039B12909761E54
:10C3000038F8210024F8020B17F8015F022E11DB28
:10C31000701006F001062A09401E38F8221005F0B8
:10C320000F0224F8021B38F8221024F8021B17F819
:10C33000015FF0D1002E03D0290938F821002080B8
:10C34000BDE8F09F26E028090DD02909B9F1000FBA
:10C3500038F82100208006D0D9F808005A46514606
:10C3600003684846984715F00F000DD038F82000B4
:10C370006080B9F1000F07D0D9F808005A460AF1D9
:10C38000010103684846984717F8015F241D0AF128
:10C39000020AB61E022ED6DA002ED1D02809CFD03E
:10C3A00038F820002080B9F1000FC9D0D9F8080072
:10C3B0005A46514603684846BDE8F05F1847FFE714
:10C3C000B04200DDF0B2361AA90903D0218881F00D
:10C3D000FF01218029070D0E401EA41C10F0FF0054
:10C3E000F2D1002EACD0022017F8015FE8E7000080
:10C3F000E40000202DE9F05F92460BAA894692E8FE
:10C4000042010A9F9B468B003A78C1F102009A4094
:10C41000D5B24D4A0E9CC0B21268127C12F00302D3
:10C420001BD0012A79D0022A37D1C1B328090DD0F7
:10C430002909B9F1000F58F82100206006D0D9F879
:10C4400008005A465146036848469847241D0AF199
:10C45000010A17F8015F761E49E031B12909761EFD
:10C4600058F8210001C417F8015F022E0FDB70108D
:10C4700006F001062A09401E58F8221005F00F02A6
:10C4800002C458F8221002C417F8015FF2D1002E3E
:10C4900003D0290958F821002060BDE8F09F26E06C
:10C4A00028090DD02909B9F1000F58F821002060A2
:10C4B00006D0D9F808005A465146036848469847BE
:10C4C00015F00F000DD058F820006060B9F1000F92
:10C4D00007D0D9F808005A460AF101010368484616
:10C4E000984717F8015F08340AF1020AB61E022EB7
:10C4F000D6DA002ED1D02809CFD058F820002060FD
:10C50000B9F1000FC9D0D9F808005A46514603685E
:10C510004846BDE8F05F1847FFE7B04200DDF0B2E3
:10C52000361AA90903D0216881F0FF01216029078B
:10C530000D0E401E241D10F0FF00F2D1002EACD0D5
:10C54000022017F8015FE8E7E40000202DE9F0473A
:10C5500081460F4692461C46DDE908582648006889
:10C56000007C00F0030010B1022841D11EE0B8F1B8
:10C57000000F0ED00AE0267858F826305246394689
:10C58000484603F0AFFA6D1E7F1C641C002DF2DCE0
:10C590000BE008E0237852463946484603F0A2FAF9
:10C5A0006D1E7F1C641C002DF4DC21E0B8F1000F2F
:10C5B0000FD00BE0267836B158F82630524639466F
:10C5C000484603F08FFA6D1E7F1C641C002DF1DCC1
:10C5D0000DE00AE026782EB13346524639464846E9
:10C5E00003F080FA6D1E7F1C641C002DF2DC00BF7E
:10C5F00000BFBDE8F0870000E40000202DE9FF4FF8
:10C6000083B015461E46DDE914BADDE91297DDF860
:10C610004080119808283FD006DC012809D0022864
:10C6200018D0042863D126E0102844D020285ED1F9
:10C630004FE000240BE062193B46CDE900B6CDF88F
:10C6400008A0DDE90301FFF7BFF94F44641C44452E
:10C65000F1DB4CE000240BE062193B46CDE900B66B
:10C66000CDF808A0DDE90301FFF758FB4F44641C37
:10C670004445F1DB3BE000240BE062193B46CDE989
:10C6800000B6CDF808A0DDE90301FFF74DFD4F44EA
:10C69000641C4445F1DB2AE0002409E062193B46B2
:10C6A000CDE9006ADDE90301FFF750FF4F44641C48
:10C6B0004445F3DB1BE0002408E062193B4600968A
:10C6C000DDE90301FFF76AF94F44641C4445F4DBDC
:10C6D0000DE0002408E062193B460096DDE9030105
:10C6E000FFF7B2FC4F44641C4445F4DB00BF00BFBD
:10C6F00007B0BDE8F08F00002DE9FF4F8FB0B148C3
:10C70000DDE91C960068DDE91F870C46006EF4F732
:10C7100069FB0990406908B1F4F764FB0B90099834
:10C72000C068079009A8F4F79BFBE01910900B98DC
:10C7300058B1A4490968097C890706D110ACCDF825
:10C74000009094E80E00F5F7E3FEDDE9100103F038
:10C750001DFF0446102E03D0182E71DB00206AE066
:10C760000B9870B9984805685DB11E990798CDE996
:10C7700000014B4641462046129AA84713B0BDE837
:10C78000F08F002520E000BFDDE910B02844DDF87F
:10C790002CA00190129E5FEA080120460FD070B1D4
:10C7A0008A4B72001B689847BAF1000F07D0DAF87D
:10C7B00008003346594647685046019AB8471E99C3
:10C7C0000798884404446D1C4D45DDDBF2E00B986E
:10C7D0000390DDE910B00899DDF848A00844019005
:10C7E0005FEA0805264620D0FEB1039830B1806884
:10C7F000534659464768019A0398B8470F992868E5
:10C800000969096888473080039828B180685946CB
:10C81000019A0368039898472D1DAAF10100B61CE0
:10C820000BF1010B5FEA000AE8D107981E99044456
:10C8300008988844401C08904845C8DBBAE0FFE7E8
:10C84000082E02D02198C0B36DE0002065E0219849
:10C8500000280B9832D00090DDE910A058440190D8
:10C86000129F219803905748454626460068007C51
:10C8700010F0030002D0022849D109E015F8011B8D
:10C8800003987F1E30F8210026F8020BF6D13EE017
:10C89000287858B1039931F820003080009828B1E9
:10C8A000806851460368DDE9000298476D1CB61C9C
:10C8B0000AF1010A7F1EEBD129E032E00290DDE9A6
:10C8C00010A0584400903F48129F454600682646F5
:10C8D000007C10F0030002D0022818D106E03B4B88
:10C8E0003A4641461B682046984710E0287840B1F8
:10C8F0003080029828B180685146009A03680298F7
:10C9000098476D1CB61C0AF1010A7F1EEED10798EC
:10C910001E99044488440BF101008346484596DB88
:10C9200048E02B482190002542E0012E04D0022E41
:10C930001CD0042E37D128E022480068006EF4F79E
:10C9400051FACDF800800990129A21990594CDE909
:10C950000310CDE9017211980B992B18DDE90F0234
:10C96000FFF7AAF809A8F4F77BFA1CE021981299BE
:10C97000CDE90210CDE90087119804942B18DDE968
:10C980000F020B99FFF780FA0DE021981299CDE97B
:10C990000210CDE90087119804942B18DDE90F02ED
:10C9A0000B99FFF777FC1E986D1C80440798044490
:10C9B0004D45BADB0B9800283FF4E0AE0BA8F4F726
:10C9C0004FFADBE6E4000020A0010020A8010020CF
:10C9D000FC2F01082DE9FF4F0C46A5498DB00868D2
:10C9E000DDE91A96DDE91D87006E00287ED0F4F798
:10C9F000F9F90690406908B1F4F7F4F90A9006983D
:10CA0000C068089006A8F4F72BFAE0190E900A986F
:10CA100058B197490968097C890706D40EACCDF84E
:10CA2000009094E80E00F5F773FDDDE90E0103F0C8
:10CA3000CBFD0446182E15DB002510E01098CDF82C
:10CA40000080CDE901040F980A992B18DDE90D0249
:10CA5000FFF710FB1C986D1C8044089804444D455A
:10CA6000ECDBFBE0102E05D0082E42D01F980028EA
:10CA700077D0ACE0002036E00E98029009990F982C
:10CA8000DDF828A008440190DDF840B04646254670
:10CA90005FEA0A0007D0DAF80800DDE901214768FB
:10CAA0005B465046B8470D99308809694968884700
:10CAB0002860BAF1000F06D0DAF80800DDE901219C
:10CAC00003685046984702982D1D401C0290ABF118
:10CAD0000100B61C5FEA000BE5D108981C990444DC
:10CAE00009988844401C0990484500E0BCE0C3DB3D
:10CAF000B4E0002065E01F9800280A9832D000902A
:10CB0000DDE90EA10BEB010001901F98039058483E
:10CB1000109F454600682646007C10F0030002D0B6
:10CB2000022848D108E015F8011B03987F1E50F831
:10CB3000210001C6F7D13EE0287858B1039951F899
:10CB400020003060009828B1806851460368DDE914
:10CB5000000298476D1C361D0AF1010A7F1EEBD1B9
:10CB600029E032E00490DDE90EA058440B904048E3
:10CB7000109F454600682646007C10F0030002D056
:10CB8000022818D106E03B4B3A4641461B68204636
:10CB9000984710E0287840B13060049828B1806848
:10CBA00051460B9A0368049898476D1C361D0AF18C
:10CBB000010A7F1EEED108981C99044488440BF1A9
:10CBC00001008346484596DB48E02B481F9000252E
:10CBD00042E0012E04D0022E1CD0042E37D128E0D2
:10CBE00023480068006EF4F7FDF80690CDF8008049
:10CBF0001F9A10990594CDE90320CDE901710F9892
:10CC00000A992B18DDE90D02FEF7FAFF06A8F4F7E2
:10CC100027F91CE010991F98CDE90087CDE9021093
:10CC20000F9804942B18DDE90D020A99FFF79CF97F
:10CC30000DE010991F98CDE90087CDE902100F98FB
:10CC400004942B18DDE90D020A99FFF7D3FB1C9918
:10CC50000898884404446D1C4D45BADB0A980028A6
:10CC600002D00AA8F4F7FCF811B0BDE8F08F00007C
:10CC7000E4000020A80100203C3B0108F8B505466F
:10CC80000E4614461F463B4622463146284600942F
:10CC900000F07AFBF8BD08B5009200F08DFB08BDEE
:10CCA00008B5009200F0DEFB08BD00002DE9F04160
:10CCB000134E9CB00125B46B04B974696846F5F74E
:10CCC00043F810480068D0E90C875CB12046FEF7B5
:10CCD00093F900B16D1E2046F4F7DAF844690CB1FF
:10CCE000002DF3D14046B463F5F76BF83846F5F7FD
:10CCF0005DF86846F5F720F81CB0BDE8F08100004B
:10CD000018020020E4000020F8B506460C4617463D
:10CD10001D4623463A4621463046009500F034FB36
:10CD2000F8BD00002DE9FC47DFF8AC8081461E46C7
:10CD3000D8F8000015468A46006EF4F753F80190C3
:10CD4000406908B1F4F74EF800902946504603F0C8
:10CD50001DFC04460198C768D8F80000017CC9078B
:10CD600015D0D9F810008068804787B2009820B1AC
:10CD700081682A460B685146984720886D1C784088
:10CD800020800198B542C0680444EFDD19E0C06B13
:10CD90000168009870B11FFA81F800982A468168EE
:10CDA0000B6851469847A4F800806D1C3C44B5427E
:10CDB000F3DD06E0701B89B2401C21803C44401E1C
:10CDC000FBD101A8F4F74CF80098002802D068467F
:10CDD000F4F746F8BDE8FC87E40000202DE9FC47A5
:10CDE000284F1E46154638688946006EF3F7FAFF4D
:10CDF0000190406908B1F3F7F5FF009029464846D5
:10CE000003F0E2FB396804460198CA6B097CD0F84C
:10CE10000C801768C90715D00068006980688047D2
:10CE20000746009820B181682A460B684946984712
:10CE300020686D1C784020600198B542C0680444A9
:10CE4000EFDD13E0009858B100982A4681680B681E
:10CE50004946984727606D1C4444B542F4DD05E01F
:10CE6000701B401C27604444401EFBD101A8F3F70F
:10CE7000F7FF0098002802D06846F3F7F1FFBDE8FD
:10CE8000FC870000E40000202DE9F05F884605469D
:10CE900093460968012001F0C5FC82460020D8F8BD
:10CEA000001001F0BFFC81466C1C09E05946204689
:10CEB00000F010FE032806D090B1012820D0641C99
:10CEC00020780028F2D1641B2B46224602214046DE
:10CED00001F0D8FC00282BDA4FF0FF30BDE8F09FBE
:10CEE000264600E0761C30783038C0B20A28F9D3E4
:10CEF000601BC700301B02F0A1F83918494410E04C
:10CF000026460C4900E0761C3078020602D408560A
:10CF10000028F8DA601BC700301B02F083F83918CC
:10CF20005144701BA1EBC000001DCCD43446C7E7B0
:10CF30002046D3E7A42701082DE9F74F8846064687
:10CF40000968012001F06EFC83460020D8F800102B
:10CF500001F068FC82463446DFF8A8901FE0207894
:10CF60003038C0B20A2819D2254600E06D1C287856
:10CF70003038C0B20A28F9D3A01B02F053F8074694
:10CF8000281B02F05BF8391801EB0A07A81B02F016
:10CF900049F8381A001D09D42C4600E0641C20789A
:10CFA000010603D419F900000028D8DA2078A51B5F
:10CFB000C8B1010603D419F90000002813DA284685
:10CFC00002F030F800EB0B01681C0831A1EBC00047
:10CFD000001D002807DD029A03B041463046BDE837
:10CFE000F04FFFF751BF33462A460121404601F07A
:10CFF00049FC002803DA4FF0FF30BDE8FE8F2846D9
:10D00000FBE70000A42701082DE9F0410F46044684
:10D0100090460968002001F005FC0646204600E025
:10D02000401C01783039C9B20A29F9D3051B4146A1
:10D0300000F050FD022802D0012812D027E0284637
:10D0400001F0FCFF8119681C0831A1EBC000001D34
:10D0500000281CDD424639462046BDE8F041FFF776
:10D0600013BF284601F0EAFF0644012001F0DAFF71
:10D070000644681C01F0D6FF301A001D002806DDAA
:10D08000424639462046BDE8F041FFF755BF2346EA
:10D090002A460021384601F0F5FB002803DA4FF05C
:10D0A000FF30BDE8F0812846FBE7017001207047A2
:10D0B0002DE9F047244B15468A46044642691B6811
:10D0C0000021284698470027A5F1010932E000BF5A
:10D0D0001AF807102A785140E26812F8018040459A
:10D0E00011D001260CE02169801B095C20464144D7
:10D0F00000F09DFFA168085CA95D4840A855761C1A
:10D100006069B042EFDC6269691C2846521EF3F781
:10D11000E8F86168414508D020690178204641441B
:10D1200000F085FFA168095C00E0002162697F1CB6
:10D1300002F8091061696068421A616A511AB942BD
:10D14000C6DCBDE8F0870000A40100202DE9F0470F
:10D150001E46DDF82090B0F1000820D0022E01D04C
:10D16000032E1BD100270D461446292916D2032C65
:10D1700014DC182000F050FF80B18760C7600761A1
:10D18000C0E90054044601464B463246404602F090
:10D1900087FD0028204604DA01F08EFC0020BDE85F
:10D1A000F0874FF0FF3101F0FBF80546204601F013
:10D1B00083FC2846F3E700002DE9F047234C0427C1
:10D1C000E06AE0B1206907EBD0014518E800FEF7FE
:10D1D0000DF9060038D0616B07EBC600B9460F5851
:10D1E00020691B4BC20008371B683846D4F82C80D6
:10D1F00098476763E6624A46691E20690EE0134855
:10D20000C030D0E901100830B1FBF0F5AD1CDDE70E
:10D21000666B431C02EBC007401CF3518842F7D3F6
:10D22000636B09EBC00000211950206960626168DE
:10D23000281A084425616060B8F1000001D0F3F7B6
:10D240002DFD0020BDE8F0870120FBE7E8D201209A
:10D25000A8010020094810B5006890F8540058B1A2
:10D260000748808840B10124F4F752F8FFF71EFD0B
:10D27000F5F74CFA204610BD002010BDE400002058
:10D2800018020020F8B51A4DE86BE8B1F4F740F841
:10D290006C6913E02046F3F7A5FD0090018D0904A9
:10D2A00008D5264644696846F3F7DAFD3046FDF7AF
:10D2B00013F903E044696846F3F7D2FD002CE9D185
:10D2C0000020E863F5F722FA286A00B18047094890
:10D2D000006808B1804738B90748006890F85400E2
:10D2E00020B1F4F7DDFB08B10120F8BD0020F8BD46
:10D2F0001802002020010020E4000020F0B444695E
:10D30000D0E90221D0E90035661C11D00126B4B164
:10D310000769641E3944521C44610469002C14DA04
:10D3200000291BDA0021921E0661062A0AD015E0A8
:10D330000024446101FB03501044F0BC7047521EAE
:10D340004661EAE70522092111E0994206D14FF032
:10D35000FF34591E921E0461062A05D0002A01DB03
:10D36000002904DA0020E8E705220839F8E7C0E9D7
:10D37000022101FB03F42A44A45C240601D5F0BC7D
:10D38000BCE701FB0320D8E72DE9F84380460C46B3
:10D3900015461E46089F07480068C06B008880B28B
:10D3A000BBB2B2B2A9B20090A0B2FAF7DFFEBDE8FC
:10D3B000F8830000E40000202DE9FF4FDFF8A0A073
:10D3C0000C4685B0DAF80000DDF848801F46C16BD6
:10D3D000154609680391006EF3F704FD0190294694
:10D3E000204603F0D3F806460198391B01F1010BE2
:10D3F000D0F80C90406950B3F3F7F4FCA8EB0501AA
:10D40000491C00915B462A4602902146F5F780F8B8
:10D4100002A8F3F725FD1AE0DAF80000007CC00747
:10D420000DD005985F46344600698068804780B219
:10D430002188414024F8021B7F1EF9D105E00398A2
:10D440005A4681B23046F5F76FFE4E446D1C454595
:10D45000E2DD01A8F3F704FD09B0BDE8F08F00009C
:10D46000E40000202DE9FE4F264E1F46144630688A
:10D470000D46DDF83090006EF3F7B4FC01902146C4
:10D48000284603F0A1F8791B01F1010A31688046B2
:10D490000198C96BD0F80CB00E68406958B3F3F727
:10D4A000A1FCA9EB0401491C0091534622460290BD
:10D4B0002946F5F72DF802A8F3F7D2FC1BE0114836
:10D4C0000068007CC0070CD00198574645460068AC
:10D4D0000069806880472968414002C57F1EFAD1F3
:10D4E00007E0BAF1000004DD01464046491E40C095
:10D4F000FCD1D844641C4C45E1DD01A8F3F7B0FC35
:10D50000BDE8FE8FE4000020FEB54F4CD4E90201D7
:10D51000CDE90001206970B3A089401C00B2ADF8CC
:10D5200000006189ADF80210B4F90410884207DDEB
:10D530002088ADF80000E08910F10100ADF802008C
:10D54000BDF90200B4F90610884274DC3F4D28682A
:10D55000806CF3F747FC0290BDF90000B4F90010AD
:10D56000884220D1E088ADF80600A088ADF804001C
:10D570002868806C0FE0FFE72088ADF80000608825
:10D58000DCE700BFF3F784FC0646006A0022694628
:10D5900000F0D5F8B0690028F4D10298002269465D
:10D5A000C06900F0CCF8BDF80000ADF804002868B0
:10D5B000806C0AE0F3F76CFC0646006A00226946BC
:10D5C00000F046F80028EED1B0690028F2D10298A8
:10D5D00000226946C06900F03BF80028E3D1B4F9A5
:10D5E0000400BDF90010ADF80400884207DADDE957
:10D5F0000001C4E9020102A8F3F732FC98E72868A9
:10D60000806C08E0F3F744FC0546006A0022694696
:10D6100000F05CF8A8690028F4D10298002269465D
:10D62000C06900F053F802A8F3F71AFC206944F629
:10D630002061884201DD0020FEBDDDE90001C4E972
:10D6400002010120FEBD000038D50120E4000020C9
:10D65000FEB517460E460546002433E02846F3F78C
:10D66000C1FB0090856A0146A80726D527B13A4636
:10D6700001A8F5F758FC03E0D1E90001CDE901016B
:10D6800001A93046F4F73CFBB8B1E80702D0009896
:10D69000C56910E0BDF80800401C308001240CE092
:10D6A00001AA31462846FFF7D3FF00B101242846DE
:10D6B000F3F7EEFB056A002DF2D10098056A684683
:10D6C000F3F7CEFB002DC9D12046FEBDFEB51646B0
:10D6D0000D46044630E02046F3F784FB0090846A50
:10D6E0000146A00723D526B1324601A8F5F71BFC59
:10D6F00003E0D1E90001CDE9010101A92846F4F7D1
:10D70000FFFAA0B1E00702D00098C4690DE0BDF8AF
:10D710000400401EA8800AE001AA29462046FFF71F
:10D72000D5FF2046F3F7B4FB046A002CF4D100982F
:10D73000046A6846F3F794FB002CCCD1FEBDFEB51D
:10D7400016460D4604464AE02046F3F74BFB009090
:10D75000846A0146A0073DD526B1324601A8F5F7F7
:10D76000E2FB03E0D1E90001CDE9010101A928466E
:10D77000F4F7C6FA10B3E00702D00098C46927E0B6
:10D7800000983EB1B0F90210B6F90200814203DD03
:10D79000084601E0B0F90200B5F90210814207DA4B
:10D7A000BDF90600B5F90610401E05E0E88011E05D
:10D7B000BDF90A00B5F906108842F7DB0AE001AAB4
:10D7C00029462046FFF7BBFF2046F3F761FB046ABA
:10D7D000002CF4D10098046A6846F3F741FB002C52
:10D7E000B2D1FEBD31B50098002808D0F3F75AFB3E
:10D7F00004466846F3F734FB2046F3F74FFA38BD8A
:10D80000F3F74CBA007870470120704702460129AF
:10D8100001D1024870470020FCE700003C300108BD
:10D82000012901D000207047004870473C300108B2
:10D83000012901D000207047004870477C3B010857
:10D840000246A1F10900082813D2DFE800F004061F
:10D85000080A120C0E10084870470848FCE70848F0
:10D86000FAE70848F8E70848F6E70848F4E7084800
:10D87000F2E70020F0E70000CFFB0008F5FB00080E
:10D8800091FB0008CBDB0008C7E00008B7E0000808
:10D8900091FA0008162901D000207047004870470F
:10D8A000ED190008162901D0002070470048704784
:10D8B0009D19000803460A4699680F2A1FD2DFE81F
:10D8C00002F01E080A0C0E1E1E1E10121416181A44
:10D8D0001C00486870478868FCE7C868FAE7086970
:10D8E000F8E78869F6E70020F4E70120F2E7012075
:10D8F000F0E70020EEE70020ECE70020EAE74FF039
:10D90000FF30E7E770B500240D46022807DAF3F789
:10D91000DFFB20B1C1688A6A294690470446204649
:10D9200070BD082904D0006820B1C268926A10470F
:10D93000102070474FF0FF307047082901D00020B9
:10D9400070472020704710B5FAF79CFCB0F5807F37
:10D9500003D0802803D307211AE0082118E04028CB
:10D9600001D3062114E0202801D3052110E010285E
:10D9700001D304210CE0082801D3032108E0042886
:10D9800001D3022104E0022801D3012100E000219B
:10D9900001208840401E10BD4FF6FF7070474FF0C9
:10D9A000FF30704770B500240646012531462846F1
:10D9B000FFF7A8FF844200DA04466D1EF6D5204624
:10D9C00070BD00000146054A0F2000BF02EBC003F6
:10D9D0001B6C8B4201D9401EF8D57047E8D201205C
:10D9E0002DE9F04107460C461546A9B2A0B2FAF758
:10D9F0005FFD06463046BDE8F08110B50846114689
:10DA000002F0C4FD008810BD10B50846114602F0B2
:10DA1000DBFD006810BD826800230B804B8093897A
:10DA20005B1E1BB28B80138A5B1E1BB2CB807047C0
:10DA300038B50C468068F3F7D5F9009080882080CF
:10DA40000098C08860800098818802891144491E2E
:10DA5000A180C18840890844401EE0806846F3F7F1
:10DA6000FFF938BD38B50C468068F3F7BBF9009074
:10DA7000808820800098C088608000988188028912
:10DA80001144491EA180C18840890844401EE0809D
:10DA90006846F3F7E5F938BD70B500240C4D0CE08D
:10DAA000F4F751FE2A69C4EB041152F83110814297
:10DAB00001D1204670BD29B1641CA8688442EFDB07
:10DAC000002070BDC4EB041142F83100F1E7000002
:10DAD000BC010020027842B16FF02F0343FA82F3B9
:10DAE000DBB20A2B04D2002070474FF0FF307047A2
:10DAF000130605D40D4B9B56002B01DB012070470C
:10DB0000032911D1407878B140EA0220A0F5014103
:10DB1000403941F6BC62914204D9A1F5BE40B0F54E
:10DB2000386F01D20320704702207047A4270108F4
:10DB3000054A904201D1503A01E000F1080209B1D2
:10DB40008A4200D01046704718D501200021FFF707
:10DB5000EFBF0000F0B5541E04FB030401EB82008C
:10DB60000C4DDFF834C0001F2188E41A01F01F06B5
:10DB7000C1F3451705EBD121AE5D1CF8077009789C
:10DB800006EB072606EB014140F80419521EEBD1C3
:10DB9000F0BD0000703001089030010810B5046835
:10DBA000184410C1521EFAD110BD70B50446FAF7E0
:10DBB00069FB0546FAF77EFBAC4201D3002070BD3D
:10DBC0000028FCD050F8240070BD70B504462046F3
:10DBD00000F040F8054600220121A069FBF78AF910
:10DBE0000543284670BD000070B5174D04466869AE
:10DBF000011DC0E90E010064091D6161417C05F150
:10DC0000400050F82100C1680A6B04F108019047F8
:10DC10000E486066A868E0616869083060610120AC
:10DC20002076FCF70FFDA064032084F868006FF0F5
:10DC30007040206360632869FAF78EFFE868FAF79E
:10DC4000C3FF0348E86170BDD0000020F022010846
:10DC5000D032010870B50446A06858B91C20F3F70B
:10DC600041F8A060A5682169886880470646FBF7EF
:10DC700029FAA861A06808B9012070BD0020FCE75E
:10DC80002DE9F0411E4C94F82800002836D10125DA
:10DC900004F1C00284F8285011469068496808B918
:10DCA000880890605A2020620020102303FA00F6B2
:10DCB00004EBC007401C3E641028F7D3126802230F
:10DCC00050181438C4E90D02C4E9031300200421DC
:10DCD00005E0636B421C01EBC006401C9A512269AF
:10DCE000521E8242F5D865622069401E6060A16BB9
:10DCF000E068FDF733FBFFF75FFA2563BDE8F081CD
:10DD0000E8D201202DE9FC41164CDDE908760546F4
:10DD1000206818E0D0F824C0B44513D1D0F814C05E
:10DD2000BC450FD1D0F800C0AC450BD1D0F828C00D
:10DD30008C4507D1D0F818C0944503D1D0F81CC049
:10DD40009C450CD0C06A0028E4D1CDE90076284675
:10DD500000F00AF8002802D02168C1622060BDE806
:10DD6000FC810000380100202DE9F05F1F46DDE94D
:10DD70000A6A91468B468046092816D2B9F1000FEF
:10DD800013DB012000FA08F54D450EDD002F0CDDF8
:10DD9000BD420ADD002E08DBB54206DD5FEA0A015E
:10DDA00003D4A91B491E514502DC0020BDE8F09FA9
:10DDB00030210120FDF784FC041EF7D0C4F8008058
:10DDC000681EC4F824A060604FF00108284600F0E7
:10DDD00023F9A06070B16068401C00F01DF9E0609C
:10DDE00060B121790170D4E9011200205054012062
:10DDF000002111E02046FFF7F5FCD6E7A06821E0FE
:10DE0000E2681154A26850544200154201D082EADF
:10DE10000B0260681040491C62688A42F0DC0128ED
:10DE20000CD1701C00F0F8F82061011E06D0C4F877
:10DE300028B0E761C4E90569012008E0A068FFF7A0
:10DE4000D1FCE068FFF7CEFCD4E76268104490FB99
:10DE5000F7F207FB1202002AF7D190FBF7F02062DD
:10DE6000C24681F80080904609FB07F02DE000BF14
:10DE7000226908F10100454602F800A013E020697C
:10DE8000415D61B1E068415C2046494400F0CFF853
:10DE9000A1686A1E095C2069825C514001E0691E2C
:10DEA000415C41556D1E002DE9DCD4E90301097880
:10DEB000415C2046494400F0BAF8A16808F1010825
:10DEC000085C2169087009EB07008146B045CFDB8B
:10DED000002005E0D4E903210B5CD25C0A54401C0D
:10DEE000B042F7DD204661E7FEB514460E46054612
:10DEF000F2F7CEFF0090836A980739D53046FDF7D8
:10DF00004DF9002834D040F601000340012B2FD0FA
:10DF10002846F2F767FF02460090314601A8F5F760
:10DF200002F801A8FDF73AF9F8B1009944F220028D
:10DF3000886A104205D0083101AA0846F3F775FD3A
:10DF400013E0DDE9012320430A4C8862C1E9022382
:10DF5000A088401CA0802846FCF798FE0121814043
:10DF6000E0680143E160F3F7AFFF6846F2F778FF3E
:10DF7000FEBD000018020020124A92ED000AB5EE24
:10DF8000C00AF1EE10FA1AD000EE900AD2ED011A92
:10DF9000B8EEE01A00EE901AF8EEE00A00EEE11A90
:10DFA000D2ED020A71EE600AB6EE001A70EEC10AF6
:10DFB00080EE801ABDEEC10A10EE100A70474FF0D5
:10DFC000FF30704720D50120124A92ED040AB5EEC9
:10DFD000C00AF1EE10FA1AD000EE901AD2ED031A30
:10DFE000B8EEE01A00EE900AF8EEE00A00EEE11A50
:10DFF000D2ED050A71EE600AB6EE001A70EEC10AA3
:10E0000080EE801ABDEEC10A10EE100A70474FF084
:10E01000FF30704720D5012010B5F2F70DFEBDE8A6
:10E020001040F2F7DFBE884200DD08467047024626
:10E03000406805E01378091A21FA03F301401944F6
:10E040008842F7DD084670472DE9F0478AB004465C
:10E05000002091468A4601900290039006AE4FF050
:10E060000308049022E02046F2F7BCFE4A465146DF
:10E070000090F3F706FD00984A4651460830F3F742
:10E0800000FD0098D0E907576846F2F7E9FE4A46D6
:10E0900051462846FFF7D8FFCDF80480CDE906A900
:10E0A00001A920460496FDF7B3F83C46002CDAD1CE
:10E0B0000AB0BDE8F08710B5044600220621A06929
:10E0C000FAF718FF10BD10B5044600220521A0691B
:10E0D000FAF710FF10BD000070B50A4C00250B4E7A
:10E0E00065637022336829460748984708223368D9
:10E0F000002104F140009847034860616570656243
:10E1000070BD0000D0000020B4D30120A401002085
:10E1100010B5034C2069F2F7D9FD0020206110BD35
:10E12000BC01002010B5044CA068F2F7CFFD002020
:10E13000A060606010BD00000402002070B51B4D9F
:10E14000002405F160026C70EC632046A2F1080126
:10E15000C5F8184042F8204041F82040401C0228F1
:10E16000F8D3AC62EC62EC61124E6C62AC631822C4
:10E17000336800210E4898470C49002048316C63F1
:10E1800041F82040401C0228FAD3102233680021B5
:10E190000948984710223368002108489847336897
:10E1A000BDE87040102200210548184718020020E1
:10E1B00038D50120A401002068D5012078D50120A0
:10E1C00088D5012010B5084CA068F2F77FFDE06803
:10E1D000F2F77CFD2069F2F779FD00202061E06014
:10E1E000A0606061A06110BD8002002010B50446EF
:10E1F000F2F74EFE806AC00301D5034900E00349EF
:10E200002046BDE8104008472917000899B00008CB
:10E210002DE9FC411F4C80462068806CF2F7E2FD3E
:10E2200000904046F2F7DEFD01460190009808306C
:10E23000F3F766FD28B32068DDE90021D0E9135625
:10E2400001F108000832F4F76EFE6846F2F708FEA6
:10E25000114FC7F82C8001992068B1F90020C264E1
:10E26000B1F90210016501A8F2F7FAFD4046FFF787
:10E27000BDFF0020F8622068C0E913560120BDE808
:10E28000FC816846F2F7ECFD01A8F2F7E9FD0020F9
:10E29000F5E70000E4000020180200202DE9FC4111
:10E2A0000546F2F79FFD009090F8281089073DD5AC
:10E2B000C46939E02046F2F795FD019090F82810E6
:10E2C000C94389072BD100990831F3F719FD30B301
:10E2D0000098D0E902676846F2F7C2FD01A8F2F79C
:10E2E000BFFD2046FFF794FF70B12046F2F7D0FD46
:10E2F00001902046FFF7D2FF2046F2F7C9FD0190BA
:10E300002846F2F7C5FD00902846F2F76BFD009015
:10E310002046F2F767FD01900098C0E90267019876
:10E32000046A01A8F2F79CFD002CC3D16846F2F7FD
:10E3300097FDBDE8FC81000010B50E4C6168206BB4
:10E34000814209D8401E2063FEF736FF216B491C2D
:10E35000216308B1002010BD60680422401E606087
:10E36000606A616B02EBC0028A586262012201F8A6
:10E37000302010BDE8D20120084910B54A680424B5
:10E38000521C4A604B6B04EBC0044A6A1A514B6B37
:10E39000002203F83020486210BD0000E8D20120BE
:10E3A0002DE9F34F85B0814600200190D9F8000097
:10E3B000292831D2D9F8040003282DDC484601F081
:10E3C00035F9050028D0D5F800B05A49CBEBCB0081
:10E3D000039051F82040584600F01AF95FEA00080F
:10E3E00010D006461820FFF717FE78B1611E0460B2
:10E3F000C0E90161C1604FF0FF31016141610090EE
:10E40000002023E0284601F0A5F905E0284601F0A8
:10E41000A1F94046FFF7E6F9002007B0BDE8F08F0C
:10E4200001F0AAF98026002702900098FEF766FF07
:10E43000F8B10299314000D0012141F00201760883
:10E440007F1C0170082FF0DB0AF101008246D5E93C
:10E450000101014451452846E2DC01F07BF93549D0
:10E4600003984FF0000A01EB8000554602278668AA
:10E4700007E0284652E00098FEF740FFF0B307702F
:10E480006D1CB542F7DB0698801C0AD00698002860
:10E4900014DA41462046D9F8042000F0E3FE054690
:10E4A0000AE004FB04F00646FFF7B6FD224B0546E2
:10E4B00032461B684146984705B318E0069ED9F8D6
:10E4C0000470082E29D204FB04F0FFF7A5FD050017
:10E4D00023D01A4850F826301BB12A464146204620
:10E4E00098473B4632462946204600F079FE5E4674
:10E4F0000C20FFF791FDD8B1056000E00DE0C0E908
:10E5000001640446504601F025F90098FFF76AF9C6
:10E510004046FFF767F920467FE7504601F01AF9B9
:10E520000098FFF75FF94046FFF75CF9019874E740
:10E530000024E7E7F8220108A80100203C010020A0
:10E54000F0B5034600200246032533E051F822408F
:10E55000052C01DB801E2044D6072AD0032A28DBA5
:10E560009E1EB24225DA94FBF5F605FB164606BB65
:10E5700094FBF5F401EB820656F8087CA74218D10B
:10E5800056F8047CA74214D17768A74211D1B76826
:10E59000A7420ED1032A0BD056F80C7CB7EB840FA0
:10E5A00006DA171D9F4203DAF668B6EB840F00DB2C
:10E5B0002830521C9A42C9DBF0BDF0B505466AB15D
:10E5C00002460878C00703D04FF0FF3018600120E2
:10E5D000012643F820601144344615E00122F0E79B
:10E5E000A1EB020C0F789CF800C087EA0C07FF072C
:10E5F00003D0401C43F8206004E053F820707F1CD7
:10E6000043F820701144641CAC42E9DB401CF0BDAF
:10E610002DE9F0410446401E28281ED2104D55F821
:10E62000240030B9204600F021F845F824000028E5
:10E6300011D00C49C4EBC40051F820607643304639
:10E64000FFF7EAFC070008D0074B55F824103246C4
:10E650001B6898473846BDE8F0810020FBE70000C2
:10E6600024D40120F8220108A80100202DE9F04758
:10E6700007466249C0EBC70051F8204004FB04F094
:10E680000646FFF7C9FC051E7ED032465C4E0021CF
:10E690003368984700231A462146284600F0B2FF07
:10E6A0000023E21F2146284600F0ACFFE31F0022B2
:10E6B0002146284600F0A6FFE11F894604FB0151D0
:10E6C00000222846C023C3712044521C00F8083C95
:10E6D000CB712144072AF6DBC4EBC400082233685F
:10E6E0002844C021984705EBC40808223368A8F1E4
:10E6F0000800C0219847A4F10800824604FB00509E
:10E7000008223368C0219847092233684046842193
:10E71000984704EBC4002844082284213368083851
:10E72000984705F108000022064684210170521C1A
:10E730002044082AFADB04FB096000220170521C05
:10E740002044072AFADB04EB440005EB40020121D8
:10E7500008F10600A4F10F0C083208E001F00103F3
:10E7600043F0900302F8013B03702044491C6145CB
:10E77000F4DB22462946384600F0EEFE072F36DB52
:10E78000F81F222803D300E036E0002004E01D48F3
:10E7900000EB870050F81C0CA4F10B0104FB01599D
:10E7A00001460023002209EB030700BF01F0010C22
:10E7B00004FB02F84CF0880C4908521C08F807C00A
:10E7C000032AF3DB5B1C062BECDB2A1900230B3A34
:10E7D0005FF0000100F0010747F088075754400838
:10E7E000491C0329F6DB5B1C2244062BF0DB04FBEF
:10E7F0000AF48121A1552846BDE8F087F8220108D6
:10E80000A4010020A82E0108C0EBC002044800EBC0
:10E81000820000EB81014068C968401A704700001F
:10E82000F8220108042801D300207047092901DCDF
:10E83000002104E01A2901DC012100E00221044A40
:10E8400000EB400002EB800050F821007047000010
:10E850007427010830B50246094C0120C0EBC00303
:10E8600004EB830303EB81055B68ED685B1B93425C
:10E8700004DA401C2828F1DD4FF0FF3030BD0000E5
:10E88000F822010870B515460E4604461A46294678
:10E89000304600F0E5FB38B1E16841B10861002184
:10E8A000E0600161084670BD4FF0FF3070BDA060B0
:10E8B000F5E72DE9F04781460468D1E900200146DB
:10E8C00000251046FFF7A0FF0646C0004FF0FF38B6
:10E8D000A04228DB03D14FF00000BDE8F087A0EB99
:10E8E0000401042904DC00224846FCF764FE3FE0F2
:10E8F00004F10B00C11700EB5170C710FCF791FE3B
:10E90000050010D0C4EBC7010022FCF754FE040040
:10E910000CD4F61B002E27DD3046FFF77DFB0400EC
:10E9200003D000200EE04046D7E744462846FCF7D7
:10E9300082FE2046D1E7C10701D0112100E0EC2181
:10E940002154401CB042F6DB224631462846FCF7F3
:10E95000F5FD06462046FEF745FF002E04DA284660
:10E96000FCF769FE3046B8E729464846FCF7B2FD99
:10E970000446DBE7F0B503464FF0FF30062B01D12C
:10E9800000293EDB00293CDD00245B1C092B38D22A
:10E99000DFE803F037050F3A1C3A3A3A3800002313
:10E9A00004E0D55C303D0A2D2BD25B1C8B42F8DB9A
:10E9B00026E00023154E06E0D55C2F0621D47557BE
:10E9C000002D1EDB5B1C8B42F6DB19E0CB0718D158
:10E9D000002548F2401644F243074EF6BF3C0DE0D6
:10E9E00053191B885BBAB3420BD3A3F51F4EAEF18C
:10E9F000FD0EBE4505D3634503D8AD1C8D42EFDB4C
:10EA00002046F0BD0129FCD10020F0BDA42701085B
:10EA10002DE9F041054600204FF0FF38064600245E
:10EA2000AF6805E03146384600F0B4FA3F69044467
:10EA3000002FF7D1E41DE01704EB5070C010696897
:10EA4000FFF708FF002801DA404601E0B042E5DCAC
:10EA5000296881421EDB0024AE6807E03046296841
:10EA600000F03CF800280FDB36690444002EF5D195
:10EA7000002C09DBE41DE01704EB5070C01069683E
:10EA8000FFF7E8FE002802DA4046BDE8F081296879
:10EA9000814203DA2928DED22860DCE70020F4E78F
:10EAA0000246002001460302C1F10300491C105C2C
:10EAB00018430429F7DB704770B504000CD0A06838
:10EAC00003E0056900F0F6FA28460028F9D120464F
:10EAD000BDE87040FEF786BE70BD00002DE9F0472E
:10EAE000884604004FF0FF365BD04FF00009E06825
:10EAF0004F4610B1FCF79FFDE760206841460428AF
:10EB000057D2092901DC002105E0B8F11A0F01DC18
:10EB1000012100E00221484B00EB400203EB82029E
:10EB2000012512F821108D406D1E032800D16D00C3
:10EB30008DB36168A9423CDD2946A26800F090FAD5
:10EB4000070029D0A06842196068411B206800F0C6
:10EB500087FA05001AD041463846FFF7BFFF002864
:10EB600014DB41462846FFF7B9FF00280EDBFCF70F
:10EB700058FDE06050B1F968FCF7ACFC002805DBFB
:10EB8000E968E068FCF7A6FC00280BDA384600F0DC
:10EB900091FA284603E00CE000F08CFA484600F0B9
:10EBA00089FA2CE0384600F085FA284600F082FA0F
:10EBB0003FE008283DD2DFE800F004090E13181CDE
:10EBC0003C254146204600F047F916E041462046E4
:10EBD00000F060F811E04146204600F02FF80CE00C
:10EBE0004146204600F0EEF807E0204600F0A1F98B
:10EBF00003E04146204600F0B1F8002819DA30461B
:10EC0000BDE8F087FCF70DFDE0600028F7D0092291
:10EC10000421FCF7D0FC002806DBD4E90220012106
:10EC2000FCF78CFC002804DAE068FCF704FDE760E0
:10EC3000E5E7E0680068E3E7742701082DE9F041A3
:10EC40000E460446FCF7EDFC4FF0FF35E060E0B106
:10EC500004221146FCF7AFFC0027002811DB3146E7
:10EC60000220FFF7DFFD01466268E068FCF7A3FCC5
:10EC7000002806DBD4E902206168FCF75FFC00286D
:10EC800006DAE068FCF7D7FCE7602846BDE8F081CB
:10EC90000020FBE72DE9F0470D460446FCF7C1FCD8
:10ECA0004FF0FF38E060D8B102220421FCF783FC6A
:10ECB0000026002849DB29460120FFF7B3FD014665
:10ECC0006268E068FCF777FC00283EDB60684FF084
:10ECD000010A00EBD07047100025DFF87C9020E09F
:10ECE0004046BDE8F087A16811F81500020601D57D
:10ECF000404601E019F900000AEB4502C0EB0010A4
:10ED0000895C00EB40000A0601D5414601E019F993
:10ED100001100A180B21E068FCF74DFC002814DBF9
:10ED20006D1CBD42DFDB2079C00713D0A06810F84E
:10ED30001700010601D5424601E019F9002006211D
:10ED4000E068FCF738FC002804DAE068FCF773FCA4
:10ED5000E660C5E70020C4E7A42701082DE9F041DB
:10ED60000446FCF75EFC4FF0FF38E06030B1A0686D
:10ED7000FFF796FE802804D201260CE04046BDE84D
:10ED8000F081B0F5804F03D2022600F5004002E08A
:10ED9000032600F54020054607220421E068FCF721
:10EDA0000AFC0027002806DBF1002A46E068FCF791
:10EDB00002FC002804DAE068FCF73DFCE760DDE7D0
:10EDC0000020DCE72DE9F0410D460446FCF729FC64
:10EDD0004FF0FF38E060C0B108220421FCF7EBFBE4
:10EDE000002600282DDB29460320FFF71BFD0146E6
:10EDF000606800EBD0704210E068FCF7DCFB002894
:10EE00001FDB002549F6FC7721E04046BDE8F08194
:10EE1000A0682844008840BAB84203D8A0F5014051
:10EE2000403802E0A0F541404038010A01EB4101C1
:10EE3000C0B200EB81120D21E068FCF7BCFB00289A
:10EE400004DAE068FCF7F7FBE660DEE7AD1C60681B
:10EE5000A842DDDC0020D9E72DE9F0410D4604464B
:10EE6000FCF7DFFB4FF0FF38E060B8B1012204216E
:10EE7000FCF7A1FB0027002844DB29460020FFF710
:10EE8000D1FC01466268E068FCF795FB002839DB9D
:10EE900003216068002690FBF1F51DE04046BDE8C7
:10EEA000F08100BFA26806EB46006423115C303994
:10EEB00011FB03F1431C801CD35C105C03EB830348
:10EEC00001EB4301A1F5047142180A21E068FCF747
:10EED00072FB002816DB761CAE42E3DB6068A5EB14
:10EEE00085010844012802D0022810D01FE0A06844
:10EEF00005EB4501425C0421303AE068FCF75BFB1E
:10EF0000002814DAE068FCF796FBE760C6E7A26821
:10EF100005EB4500115C401C303901EB81014900D3
:10EF2000105C303942180721E068FCF744FB0020F0
:10EF3000B5E770B50446FCF774FB4FF0FF36E060B0
:10EF400020B303220421FCF736FB0025002819DB3F
:10EF5000A06804214278E068521EFCF72CFB0028D0
:10EF600010DBA06804210278E068521EFCF723FB46
:10EF7000002807DBA06808218278E068FCF71BFB0B
:10EF8000002805DAE068FCF756FBE560304670BD06
:10EF9000002070BD70B50E00044600D10126206827
:10EFA00008283DD2DFE800F004080D10191B383A9C
:10EFB000606800F043F802E0606800F033F805464E
:10EFC0001AE06068C50017E0606800EBD070401080
:10EFD00000EB800101EBC0050EE0142070BDA068BD
:10EFE000FFF75EFD802801D20C2505E0B0F5804FCB
:10EFF00001D2142500E01C2531462068FFF712FCE1
:10F00000014601208840421E6368091D1A4492FB94
:10F01000F0F000FB015070BD042070BD0C2070BDED
:10F02000002070BD00EBD071491001EB410202EBF2
:10F03000C101C00700D0891D084670470146032062
:10F0400091FBF0F202EB8200A2EB8202400011443D
:10F05000012903D0022900D1C01D7047001D70474F
:10F060002DE9F04116460D460746FFF783FC10B127
:10F070000020BDE8F0811420FEF7CEFF041EF8D07A
:10F08000C4E90075002D09DD2846FEF7C5FFA06024
:10F0900048B1074B2A4631461B6898470020E0607C
:10F0A00020612046E5E72046FEF79CFBE0E70000F4
:10F0B000A801002010B504000AD0A068FEF792FB5A
:10F0C000E068FCF7B8FA2046BDE81040FEF78ABBBE
:10F0D00010BD70B50446006990B1012802D0022825
:10F0E00004D012E000221146062003E004F11402CD
:10F0F00001210720FFF7B4FF38B1A1680161A060CA
:10F100002046FFF785FC002801DA002070BDFCF7DF
:10F1100088FA051EFAD0A4680AE02846E168FCF7E0
:10F12000D9F9002803DA2846FCF785FAEDE72469C7
:10F13000002CF2D1284670BD2DE9F04F0E46044652
:10F14000002521440127ADF5337D491C22E0012231
:10F150001CE0A1EB040C08789CF8003011F8018C3D
:10F160001CF801CC83469A4600EA080003EA0C0327
:10F1700000EA03094BEA08004AEA0C03184369EA6B
:10F180000003D80700D0ED1C491C521CA242E0DB52
:10F19000491C7F1CA742DADB00270BE007FB046158
:10F1A0006B4600222046FFF708FA6946FFF7C8F9C8
:10F1B00005447F1CA742F1DB00270AE0F1196B46EA
:10F1C00001222046FFF7F9F96946FFF7B9F905442E
:10F1D0007F1CA742F2DB0DF5337D2846BDE8F08F9A
:10F1E000F0B50024082A01D3002304E01C4D05EBF0
:10F1F000431353F8223001EBC006002237180831C0
:10F20000DD0702D08525A41C00E08425A7EB020CB5
:10F21000062A0CF8015C02DA00FB02FC03E002F1B2
:10F22000010C00FB0CFC5B08521C0CF80150082A76
:10F23000E6DB0022DD0702D08525A41C00E0842542
:10F240008718FF1F47437D543AB1B71ABD715B0859
:10F25000521C072AEEDB2046F0BDF571F7E70000EF
:10F26000302F01082DE9F74F6FF00047009E7643DD
:10F270003046FEF7D1FE041E40D04FF00009DFF803
:10F2800080A04D464FF0050B5AF82530DDE900010E
:10F290002246984780462A462146029B0098FFF75F
:10F2A0009FFF404400EBC00101EB001006EBC000E3
:10F2B00090FBF6F000EBD0704010323800D54042A1
:10F2C00090FBFBF000EB80004FEA400821460098DD
:10F2D000FFF732FF4044B84209DA07464846FEF7D6
:10F2E00081FAA1463046FEF797FE040002D06D1C5D
:10F2F000082DC9DB2046FEF775FA4846BDE8FE8FAB
:10F300003C010020F0B506460020044613E000232F
:10F310000EE00D782F0604D483EA040707F00107F6
:10F320007D4002F8015B05F00105491C28445B1C87
:10F33000B342EEDB641CB442E9DBF0BDF0B5074636
:10F340000020034612E0002503F001060BE00C78D4
:10F350005FEA046C00D4744002F8014B04F001042D
:10F36000491C20446D1CBD42F1DB5B1CBB42EADB47
:10F37000F0BDF0B50546002004464FF0030C0EE04A
:10F38000002309E00E7837060CD502F8016B06F071
:10F390000106491C30445B1CAB42F3DB641CAC42ED
:10F3A000EEDBF0BD93FBFCF70CFB173707B1012731
:10F3B0007E40EAE7F0B506460020044610E0002350
:10F3C0004FF0030C09E00D782F060CD502F8015B15
:10F3D00005F00105491C28445B1CB342F3DB641CA7
:10F3E000B442ECDBF0BD1F1997FBFCFE0CFB1E7753
:10F3F00007B101277D40E9E7F0B506460020034646
:10F400001BE000244FF0030E03EBD37712E00D78DE
:10F410005FEA056C07D494FBFEFC8CEA670C0CF0E9
:10F42000010C85EA0C0502F8015B05F00105491C99
:10F430002844641CB442EADB5B1CB342E1DBF0BD50
:10F44000F0B506460020044610E000234FF0030C00
:10F4500009E00D782F060CD502F8015B05F00105D7
:10F46000491C28445B1CB342F3DB641CB442ECDB54
:10F47000F0BD03FB04F797FBFCFE0CFB1E7703EAD1
:10F48000040E0EF0010E17EB0E0700D001277D4091
:10F49000E2E7F0B50546002004461DE000234FF0EA
:10F4A000030C16E00E7837060CD403FB04F797FB29
:10F4B000FCFE0CFB1E7703EA040E87EA0E0707F03A
:10F4C00001077E4002F8016B06F00106491C30443A
:10F4D0005B1CAB42E6DB641CAC42DFDBF0BDF0B58D
:10F4E0000546002004461DE000234FF0030C16E003
:10F4F0000E7837060CD403FB04F797FBFCFE0CFBDD
:10F500001E7783EA040E87EA0E0707F001077E40A4
:10F5100002F8016B06F00106491C30445B1CAB424B
:10F52000E6DB641CAC42DFDBF0BD000030B59B1EA7
:10F5300003FB0100921E8418064A00230020155C7C
:10F540002554401C0528FADB521D5B1C0C44052B7E
:10F55000F4DB30BD442D01082DE9F74F06460228A3
:10F560004CDB274800EBC60150F8362049688D1A5D
:10F5700001D5022404E00299891A91FBF5F4A41C38
:10F5800004FB04F1042904D0012781469046641E3F
:10F5900015E0DDE9010103B01346BDE8F04FFFF7C8
:10F5A000C5BFDDE9010143460622FFF7BFFFDDE9E4
:10F5B000010106234246FFF7B9FFA8447F1CA7427A
:10F5C000EFDBCB4659F836A04FF0000914E000BF3E
:10F5D0005BF836000027804609E00246DDE90101BC
:10F5E0005346FFF7A3FF08EB050080467F1CA742A8
:10F5F000F3DBAA4409F10109A145E9DBBDE8FE8F6F
:10F60000602D010830B5104403FB0103064A0024B5
:10F610000020155C1D54401C0728FADBD21D641C19
:10F620000B44072CF4DB30BDB02F01082DE9F04767
:10F63000054686B02420FEF7EFFC040062D0284681
:10F64000FFF747FD06004FF0000A07D02946FFF7F5
:10F6500030F900285ADA3046FBF7EDFF5646E660EF
:10F66000002E5CD0D5E90096384901EB49103146AF
:10F6700050F8367000EBC600D0F804804846FFF71B
:10F68000C3F80146324AC9EBC90002EB800000EB27
:10F690008600B8F1000FC068009744D007EB08025D
:10F6A00090FBF2F091FBF2F1CDE90208481C0191C8
:10F6B00004902868206000986061DDE900014843FB
:10F6C000DDE9031201FB0200606003990098084421
:10F6D00002994843A060FEF79FFC206168B303993C
:10F6E000009808441021A061FBF7EAFFE06130B107
:10F6F000D4E90323694600F06FF8002821DA204698
:10F7000000F028F8002006B0BDE8F0873746304604
:10F71000FBF79DFF06463846FBF78DFF9FE7204627
:10F72000FEF760F8EEE790FBF7F091FBF7F1CDE91B
:10F73000020ACDF810A00191BBE7E068FEF752F88D
:10F74000EDE72046C4F820A0DDE7000024280108EA
:10F75000F822010810B504000DD0E068FEF742F869
:10F760002069FEF73FF8E069FEF73CF82046BDE867
:10F770001040FEF737B810BD30B54268016A9142BB
:10F7800012DA8369C46991FBF3F203FB121291FB55
:10F79000F3F325689D4201DC45692A44042505EB05
:10F7A0000212A258D25C11E0836813448B4211DD2F
:10F7B0008C1A82690C2594FBF2F302FB134394FB31
:10F7C000F2F2C46905EB0313E3589A5C491C016229
:10F7D000104630BD002030BD2DE9FC5FD1E901A904
:10F7E0000D46CAF1FF01A1EB0901CDE900911C46CC
:10F7F000164607460123002240F21D110820FEF79D
:10F8000081FA5FEA000B2CD04FF000080CE0CDE944
:10F81000004B4B4632465146384600F038F85644C5
:10F820004C4408F10108103729684145EFDCE868CD
:10F83000002818D0D5F810A0D5F80890CAF1FF011B
:10F84000A1EB0901CDE900910123002240F21D1135
:10F850000820FEF757FA5FEA000B02D04FF00008CD
:10F8600010E04FF0FF30BDE8FC9FCDE9004B4B4668
:10F8700032465146384600F00AF856444C4408F1E6
:10F8800001081037E9684145EFDC0020EBE730B4B0
:10F890001446DDE90225C0E90014C0E90232214620
:10F8A000284630BCFDF704BC10B504464068FEF79E
:10F8B00089F810280DD2084963680A68D21A0A60CC
:10F8C00001EBC002D4E90201443200B1416009B148
:10F8D000086010BD106010BDE8D201207CB50500A5
:10F8E00026D0144C2068A84206D1F1F77BFA00908C
:10F8F00080682060684612E0044694B12046F1F723
:10F9000071FA01908068A8420DD1F1F76BFA019964
:10F910000090806888606846F1F7A2FA01A8F1F7C4
:10F920009FFA00207CBD044601A8F1F799FAE4E7AC
:10F9300001207CBDC80200202DE9F05FDFF8948033
:10F940008346D8F83840D8F80C10601E0F182046AF
:10F95000D0E90015B9BB6619BE4236D2D6E9001906
:10F9600089B3D8F8343013F83130012B2DD1D8F8C1
:10F970002C20914201D1012100E000218A46FFF7AD
:10F9800093FF3068D8F83410042202EBC0004A46D6
:10F990000C5031462046F0F7A4FCBAF1000F05D018
:10F9A000D8F83410321B891AC8F8341004EB090156
:10F9B0002846FBF7D3FCBBF1000F05D0834503D8E5
:10F9C0000020BDE8F09F00E04D462C44BC42BED371
:10F9D0000120F6E7E8D20120064910B509684A6B14
:10F9E000824206D04863F4F7D1FCBDE81040F9F735
:10F9F000B9B810BDE40000201FB504460F480168E7
:10FA0000486C38B102680292406803900C48C06AA2
:10FA100018B901E020460EE0886CF1F7E3F902A97D
:10FA20000090FBF76FF86846F1F71AFA214602A832
:10FA3000F3F75CFA02A8F9F7A1F81FBDE400002073
:10FA400018020020064910B509680A6B824206D0E8
:10FA50000863F4F79BFCBDE81040F9F7BBB810BD94
:10FA6000E400002030B509490B681A7C82EA0004E2
:10FA7000640707D59C6BDB6B25681B6823600B68EC
:10FA8000DB6B1D6009680874104630BDE40000207F
:10FA90007CB504460D4616460020009001908DF876
:10FAA000045000966A460421A069F9F723FA7CBD48
:10FAB0007CB504460D461646002000900190009546
:10FAC00001966A460321A069F9F714FA7CBD006823
:10FAD000002802D0C3681B6A184770470068C368D3
:10FAE0001B6A18472DE9F04107460C4615461E468D
:10FAF000B2B2A9B2A0B2F8F779FABDE8F08100007D
:10FB00007CB510481C46154600680E46006EF1F79D
:10FB100069F901902946304600F038FD04800198CB
:10FB2000406950B1F1F75EF9009081682A460B6890
:10FB3000314698476846F1F793F901A8F1F790F933
:10FB40007CBD0000E40000207CB510481E46144631
:10FB500000680D46006EF1F745F9019021462846F0
:10FB600000F032FD06600198406950B1F1F73AF9B2
:10FB70000090816822460B68294698476846F1F74D
:10FB80006FF901A8F1F76CF97CBD0000E4000020DA
:10FB90002DE9FC4105460E461746002000900190D5
:10FBA0002846FEF757F8A86878B1AC68606908B9CC
:10FBB000304600E0606960616660A760009601976A
:10FBC0006A460721A869F9F795F9BDE8FC81F8B5FF
:10FBD00004460D46002000902046FEF73BF8A06842
:10FBE00038B1A668356000956A460221A069F9F728
:10FBF00081F9F8BD2DE9F04105460E461746284625
:10FC0000FEF728F8A86818B1AC68E660276166615D
:10FC1000BDE8F0812DE9F0410F46054616462878EB
:10FC2000002822D011462846FDF754FF4FF0FF3838
:10FC300020B1012808D003280CD00DE03246394607
:10FC40002846FDF7E1F90CE0324639462846FDF733
:10FC500073F906E0032E0AD0324639462846FDF7EE
:10FC600013F9002801D018DA4046BDE8F0812C468F
:10FC700002E000BF04F1020431462046FDF72AFFEE
:10FC80000328F7D0641B2B46224603213846FEF793
:10FC9000F9FD0028E8DB2046E3E705443246BDE7EE
:10FCA0002DE9F047904689464FF0FF36A8B301781A
:10FCB00099B333B14946FFF7ADFF04462046BDE88E
:10FCC000F0870546F0F740FB401C0746FEF7A4F915
:10FCD000040025D0134B3A4629461B689847254611
:10FCE0000DE041462046FDF7F5FE032816D02078AA
:10FCF000A0F16101192901D820382070641C2078F6
:10FD00000028EED14DB1424649462846FFF782FF12
:10FD100004462846FDF766FDD0E701E0A41CEEE7A7
:10FD20003046CCE7A80100207CB5050020D0F1F7D3
:10FD300059F8104900904C68AC4214D140684860B2
:10FD400013E02046F1F74EF801904468AC4207D129
:10FD5000009801994068486001A8F1F781F804E033
:10FD600001A8F1F77DF8002CEBD16846F1F778F89F
:10FD70007CBD0000C8020020006180E80E00104435
:10FD800040F8042C704700002DE9FF4F95B0154650
:10FD900089461598F1F726F80C90B0F908100E91E5
:10FDA000B0F90A600068006940680F900CA8F1F78C
:10FDB00057F8524F52493868407C51F82000C168CA
:10FDC0008A6A082190470A90182801D320200A90B7
:10FDD00018981899406809680D914A49884201D0DD
:10FDE000012000E0002011900020F2F711FD002812
:10FDF0007DD138680E9CB0F90C2009EB0401891AFA
:10FE0000491E002900DD641AB0F90810494505DDD6
:10FE1000A1EB090BD944A4EB0B0401E04FF0000B5C
:10FE2000002C68DDB0F90E20A919891A491E002995
:10FE300002DDA6EB010800E0B046B0F90A008542F9
:10FE400004DA461B3544A8EB060800E00026B8F1AA
:10FE5000000F50DDDDE90E7110AA15988A46019257
:10FE6000F1F733FC774300EB870101EB8B0223466C
:10FE700029464846CDF800A0F2F750FE029000282F
:10FE800039D01198F0B12146189B0A9A0298F2F7DE
:10FE90006FFDB8B91898DDF838A0029FD0F810C0EF
:10FEA000BCF1000F05D00423524639463846E047DE
:10FEB00008E00D993868884701C7AAF101005FEA98
:10FEC000000AF6D1029900200A9ACDE903010590B3
:10FED00001200090CDE90102294603466D1C22460F
:10FEE0004846F7F76BFEA8F10100761C00E002E03F
:10FEF0005FEA0008AED119B0BDE8F08FE400002041
:10FF000010010020EB8300082DE9F74FCC489EB08C
:10FF10009246D0E90010CDE91B101E98F0F762FF61
:10FF20001390D0E90445B0F90810D0F80C800E9178
:10FF3000B0F90A1015910068C24E00694068179028
:10FF40003068407CF1F762F911903068407CF1F73D
:10FF50007DF9814613A8F0F783FF082C01D8012012
:10FF600004E0102C01D8022000E004208346012C7C
:10FF70001BD000271798484575D03068407CF1F7B2
:10FF80005DF918900E988000F0F756FE1990002841
:10FF90006AD01E98F1F799FB8146002D79D028464A
:10FFA000F0F720FF00261A909AE01BAFE2E700204E
:10FFB00009901A98324681684B6909A998470E99A9
:10FFC0000546884227D11998F0F70CFF1690DDE915
:10FFD0001712CDE900120146119B082C2A4648460B
:10FFE00002D9FBF7DAFB01E0FBF7F6FB03AB0020DD
:10FFF000169A119983E8850001200090CDE901014E
:020000040801F1
:1000000003460AEB06010E9A1F98F7F7D7FD16A8CC
:10001000F0F726FF62E0012C22D05DE00998C217BC
:1000200000EB527309EBE30200F007010492CDE903
:100030000571012101AB009183E812011F9A0AEBBF
:100040000601104401232A46F8F762FF0998324658
:10005000284409901A9881684B6909A99847054670
:10006000002DDBD13AE055E051E01998F0F7BAFEE7
:100070001690099A844602FB0B90DDE91712CDE930
:100080000012119B082C2A46614603D9FBF785FB19
:1000900002E02DE0FBF7A0FB03AB0020169A1199BC
:1000A00083E8850001200090CDE90101099A1F989D
:1000B0000AEB0601104401232A46F7F77FFD16A834
:1000C000F0F7CEFE09983246284409901A988168C4
:1000D0004B6909A998470546002DC6D1C144761C35
:1000E00015988642FFF663AF1AA8F0F7B9FE0BE049
:1000F000012001A90597009081E811035146159B45
:100100000E9A1F98F7F75AFD1998F0F7C7FD21B01E
:10011000BDE8F08F1E98F1F7D8FA8146002D7DD00A
:100120002846F0F75FFE00251A9073E00020099042
:100130001A982A4681684B6909A998470E9906467C
:1001400088421DD1119500E06D1C1A986A1C8168C7
:100150004B6909A99847B042F6D0012001A905973B
:10016000009081E8110311980E9A2E1A0AEB0001F3
:10017000731C1F98F7F722FD761C06FB089047E0DA
:10018000012C22D040E00998C11700EB517309EB14
:10019000E301CDE9041700F00702012101AB06924B
:1001A000009183E812011F9A0AEB05011044012314
:1001B0003246F8F7ADFE09982A46304409901A985D
:1001C00081684B6909A998470646002EDBD11DE0DE
:1001D000099A01AB02FB0B90CDE9040701200090C6
:1001E00083E811011F980AEB0501104401233246F0
:1001F000F7F7E4FC09982A46304409901A98816878
:100200004B6909A998470646002EE1D109EB080081
:1002100081466D1C1598854288DB00E003E01AA832
:10022000F0F71EFE73E7012001A90597009081E811
:1002300011035146159B0E9A1F98F7F7BFFC66E70E
:10024000043B0108E40000202DE9FF4F97B01C4655
:1002500015461798F0F7C6FD0F90B0F908A0B0F951
:100260000A90C168019100F1180100910068D0F86E
:1002700010B00FA8F0F7F4FDDBF804001190C148AE
:10028000C1490068407C51F820100F69D7F8008000
:10029000F0F7BCFF082801D8012604E0102801D897
:1002A000022600E00426BB4512D1DDE90002002150
:1002B000CDE904010120CDE90242009001904B46B6
:1002C000524629461898F7F779FC1BB0BDE8F08F25
:1002D000202C2ED0102CF8D116FB0AF0F0F7ACFC35
:1002E00014900028F1D0F0F77DFD13901798F0F7E7
:1002F00079FD0F90396900F11804002972D0DBF8FC
:1003000014100029FAD0B0F908008000F0F794FC2E
:100310000C90002867D0F0F765FD0A90002848D0BF
:100320004FEAC608012E7DD0022E7CD0042E7BD150
:10033000D0E016FB0AF0F0F77FFC14900028C4D040
:10034000F0F750FD13901798F0F74CFD00F11804EA
:100350000F90386998B34FF0010B4FEAC608012E91
:1003600004D0022E07D0042E0ED123E013990123CE
:10037000D7F810C003E01399D7F810C002235246F3
:100380002046E04704EB8A04139A0020CDE90302DB
:10039000CDF800B00590CDE901B829466D1C0123C8
:1003A00052461898F7F70AFCA9F101005FEA000924
:1003B000D5D146E013990423D7F810C0DFE7FFE753
:1003C0005746012E04D0022E0ED0042E1FD115E068
:1003D000DDF84CB001CC414688470BF8010B7F1E7D
:1003E000F8D114E086E036E0DDF84CB001CC4146AF
:1003F00088472BF8020B7F1EF8D108E0DDF84CB0DF
:1004000001CC414688474BF8040B7F1EF8D10020F1
:10041000F100139ACDE90210CDE9042001200090EB
:10042000294602E01AE026E037E0034601906D1C01
:1004300052461898F7F7C2FBA9F101005FEA0009DC
:10044000BED10FA8F0F70CFD13A8F0F709FD149822
:10045000F0F724FC39E700200A90F2E713980190A6
:10046000DBF814C00223524620460A99E0470123D4
:10047000D7F810C00BE013980190DBF814C00223EA
:10048000524620460A99E047D7F810C00223524648
:1004900001990A98E04704EB4A04139A0020CDE939
:1004A0000302059001200090CDE90108294603468A
:1004B0006D1C52461898F7F781FBA9F101005FEA1D
:1004C00000097FF42FAF0AA8F0F7CAFC0C98F0F7E8
:1004D000E5FBB6E713980990DBF814C002235246F7
:1004E00020460A99E047DDE9091004235246D7F86F
:1004F00010C0CFE75746012E04D0022E0FD0042E95
:1005000028D11AE0DDF84CB0119934F8020B884775
:10051000414688470BF8010B7F1EF5D11AE0DDF844
:100520004CB000BF119934F8020B88474146884708
:100530002BF8020B7F1EF5D10CE0DDF84CB000BFAC
:10054000119934F8020B8847414688474BF8040B51
:100550007F1EF5D10020F100139ACDE90210CDE9FC
:100560000420012000902946034601906D1C52464C
:100570001898F7F723FBA9F101005FEA0009B9D148
:100580005FE70000E40000201001002038B50546B8
:100590000C480C460068006EF0F724FC0090B0F99F
:1005A0000620C36800F11801A21A02FB0311B0F97A
:1005B000040001EB4501A1EB40046846F0F750FC54
:1005C000204638BDE400002038B505460C480C46EE
:1005D0000068006EF0F706FC0090B0F90620C368D2
:1005E00000F11801A21A02FB0311B0F9040001EB9B
:1005F0008501A1EB80046846F0F732FC204638BD47
:10060000E40000202DE9F04104460D46164632462E
:1006100029462046FDF7E4F90746216988688047A6
:10062000804687EA0803324629462046FFF75AFAF1
:10063000BDE8F081FEB50746124815460E46006833
:10064000006EF0F7CFFB019029463046FFF79EFF82
:10065000044638698068804721884140218001989C
:10066000406950B1F0F7BEFB009081682A460B68E4
:10067000314698476846F0F7F3FB01A8F0F7F0FB26
:10068000FEBD0000E4000020FEB5144815460E46ED
:100690000068006EF0F7A6FB019029463046FFF790
:1006A00093FF04460198006800698068804701460E
:1006B0002068484020600198406950B1F0F792FBF3
:1006C000009081682A460B68314698476846F0F7E3
:1006D000C7FB01A8F0F7C4FBFEBD0000E40000204A
:1006E00002480068C0F30220704700000CED00E0F3
:1006F00010B5002804DB0A07130E054A135406E060
:100700000A07140E034A00F00F031B1FD45410BD38
:1007100000E400E018ED00E000B52DED048BB0EE34
:10072000409AF0EE609A83B051EC190BEFF76AFF34
:1007300041EC180B18EE100A18EE901A8DED008B94
:10074000002818BF0120084320F00040C0F17F605E
:1007500000F1E040C00F14D019EE101A19EE900A03
:100760008DED009B002918BF0121084320F00040B7
:10077000C0F17F6000F1E040C00F04BF012000F035
:1007800017F8B0EE480A03B0F0EE680ABDEC048B2F
:1007900000BD02E008C8121F08C1002AFAD1704744
:1007A0007047002001E001C1121F002AFBD17047F1
:1007B00001490860704700000003002010B504469E
:1007C00000680E2802D00F2817D108E0E0684168C1
:1007D000012917D10068BDE81040F1F77DBB6068C2
:1007E000FBF7CCF8084951F820006FF070418842BF
:1007F00003D0F1F7DBFAF0F776FB2046BDE81040B6
:10080000F9F732BE10BD000068020020F8B50F4CA9
:1008100007462068806CF0F7E5FA00902268D0E97E
:100820000256D2E90212C0E902126846F0F718FB3C
:100830003868FAF777FC2068806CF0F7D3FA0090FC
:10084000C0E902566846F0F70BFBF8BDE400002053
:1008500000EB8001880000BF011EA0F10100FBD168
:1008600070470000F8B5F8F7A1F9F7F7BFFD0400ED
:1008700040D100252846F0F72BFC009048B1C06815
:100880000C21426A68469047010007D000988847CB
:1008900004436D1C022DEDDB14B12BE00120F8BDEB
:1008A000F7F7BEFD14486FF070410068884221D010
:1008B00001258E132846F0F70BFC0090C0B12846A6
:1008C000F1F758FA0420F8F76BFA00213246334664
:1008D0000846F7F7A7FC0020F8F762FA00980E2107
:1008E000C068426A68469047010001D00098884776
:1008F0006D1EDFD52046F8BDE0000020F2F7F2FDC6
:10090000F8F7F6FDF8F796FCF8F756FCF8F722FC36
:10091000F3F74AFDF9F7A6FAF8F72CFC00F01CF8FB
:1009200000BFFEE701460020842901D0CA1C104404
:10093000704700BF011EA0F10102D0B2FAD170478A
:1009400070B5044625460DB1294600E00121084650
:1009500000F0F6FC002070BD10B500F0C7FD0020CF
:1009600010BD7FB504460D46606998B1A06988B195
:10097000B4F90800FFF7D6FF0646D4E90510CDE923
:10098000006102902B462269D4E9001001F0BCF905
:10099000039013E0B4F90800FFF7C4FF064603A86C
:1009A000CDE90060238A9AB22B46D4E9001001F009
:1009B00079F9012802D0002004B070BD0398FBE74C
:1009C0002DE9F04105460E461C4807681C480068A2
:1009D000001D00F0B9FB50B91948006890F82C10C0
:1009E0000120884017490968814316480160681C46
:1009F00038B936B112480168091D134800F0EEFB02
:100A00001AE07C190E4800684460BC4207D20C48CA
:100A10000168091D0D48006800F0C6FB0CE008489D
:100A20000168091D0A48006800F0BEFB094800681B
:100A3000844201D207480460BDE8F08184000020B0
:100A40007000002088000020D4960120780000204B
:100A500074000020A000002010B5044600F0CAFB7E
:100A600023480068401C224908602248006840B9B9
:100A7000204804600846006801280DD100F0A2F962
:100A80000AE01D48006838B91A480068C06AE16A7F
:100A9000884201D81748046018480068401C17496C
:100AA000086094F82C100120884015490968084313
:100AB00013490860E16A01EB8101124A02EB8100EF
:100AC000211D00F08BFB00F0BFFB0B48006868B1F4
:100AD00008480068C06AE16A884207D24FF0805037
:100AE00009490860BFF34F8FBFF36F8F10BD00003F
:100AF00080000020700000208C0000209C0000205E
:100B000088000020F895012004ED00E010B516E003
:100B100000F070FB0C48C068C468201D00F014FB96
:100B20000A480068401E0949086009480068401EDC
:100B30000749086000F088FB204600F049F80448A7
:100B400000680028E4D110BDC0960120800000207C
:100B50007C0000202DE9F04104460F4615464FF079
:100B60000008A66B206C40B9206860BB606801F08B
:100B7000E7F980460020606025E07DB93946226CA7
:100B8000A068EFF7AEFB216CA0680844A060D4E930
:100B90000110884217D32068A06014E03946226C07
:100BA000E068EFF79EFB216CE068401AE060216886
:100BB000E068884203D2216C6068401AE060022D30
:100BC00001D106B1761E701CA0634046BDE8F081DD
:100BD00010B5044694F8510030B9206B00F052FB78
:100BE000204600F04FFB1AE094F85100012803D191
:100BF000204600F047FB12E094F85100022801D192
:100C0000012000E0002050B900BF502080F311887F
:100C1000BFF34F8FBFF36F8F00BF00BFFEE710BD64
:100C200001464A6A22B10A6B1268C2F1070000E06D
:100C30000020704730B54FF47053174800F0070498
:100C40002CB1C01D20F00700134C041B1B1B0246D7
:100C5000124C22600024114D6C60D018083820F02E
:100C600007000F4C206000240D4D2D686C600C4D6A
:100C70002D682C601146441A4C60094C24680C60A5
:100C8000084D4C682C60084D4C682C604FF00044B7
:100C9000064D2C6030BD0000E8960120AC0000201D
:100CA000B4000020BC000020B8000020C0000020DC
:100CB00000BFFFF72BFF064800680128F9D94FF065
:100CC000805004490860BFF34F8FBFF36F8FF0E788
:100CD000F895012004ED00E010B504464CB1002069
:100CE00060602060E06000231A461946204600F04C
:100CF000E3FD10BD2DE9F04106460D461746984626
:100D0000069C0DB9246000E02760E663256401219C
:100D1000204600F085FDBDE8F0812DE9FF5F8146AA
:100D20000F469246DDE90E6B109CAAF10100216B83
:100D300001EB800828F0070808F0070008B9012037
:100D400000E0002050B900BF502080F31188BFF3AD
:100D50004F8FBFF36F8F00BF00BFFEE7002507E096
:100D6000795D04F134004155785D00B902E06D1CF5
:100D7000102DF5D300BF002143200155072E00D3CD
:100D80000626E66266640020A064201D00F009FAD1
:100D900004F1180000F005FA2461C6F10700A06113
:100DA00064620020E06484F8500049464046039A9B
:100DB00000F0B4F92060BBF1000F01D0CBF8004087
:100DC000BDE8FF9F10B5002407E004EB84010F4A43
:100DD00002EB810000F0D8F9641C072CF5D30C4815
:100DE00000F0D2F90B4800F0CFF90B4800F0CCF935
:100DF0000A4800F0C9F90A4800F0C6F90448094950
:100E0000086004480849086010BD0000F8950120FA
:100E10008496012098960120AC960120C09601206E
:100E2000D4960120740000207800002010B50146FF
:100E3000164800E0006803688B42FBD30246436813
:100E400013448B4204D143684C68234443600146F9
:100E50000A464B6813440468A34211D10C4C036842
:100E60002468A34208D04B680468646823444B603C
:100E700003681B680B6005E0054B1B680B6001E015
:100E800003680B60884200D0016010BDAC000020F8
:100E9000B400002070B5054600F0ACF9A86B08B9A5
:100EA000012400E0002400F0CFF9204670BD70B5A9
:100EB000054600F09FF9A86BE96B884201D1012437
:100EC00000E0002400F0C0F9204670BD0A4909681E
:100ED000096809B9012100E0002121B14FF0FF317B
:100EE000064A116006E004490968C968C868034AEF
:100EF000416811607047000074000020A0000020CD
:100F00000E480068401C08B9012000E0002050B9DC
:100F100000BF502080F31188BFF34F8FBFF36F8F56
:100F200000BF00BFFEE700BF502080F31188BFF371
:100F30004F8FBFF36F8F00BF00BFFEE7C4000020DC
:100F400070B5044600F056F994F9455010E0606A17
:100F500008B9012000E0002038B904F1240001F0B4
:100F6000B7F818B100F026FA00E003E0681E45B2B9
:100F7000002DECDC00BFFF2084F8450000F064F990
:100F800000F038F994F9445010E0206908B90120C4
:100F900000E0002048B904F1100001F099F808B110
:100FA00000F008FA681E45B200E001E0002DECDC1C
:100FB00000BFFF2084F8440000F046F970BD000037
:100FC0002DE9F04104464FF0000800F0E7FA4648EA
:100FD000006808B9FFF72EFE44480068204000284A
:100FE0006BD1D4B1083404F00700B0B104F00700AD
:100FF000C0F10800044404F0070008B9012000E033
:10100000002050B900BF502080F31188BFF34F8FEC
:10101000BFF36F8F00BF00BFFEE7002C4DD03448F8
:101020000068844249D8334E3046056801E02E46B8
:101030002D686868A04202D228680028F7D12A48A3
:101040000068854239D0306800F1080828683060AF
:101050006868001B102819D92F1907F0070008B974
:10106000012000E0002050B900BF502080F311881B
:10107000BFF34F8FBFF36F8F00BF00BFFEE76868FD
:10108000001B78606C603846FFF7D0FE184968682E
:101090000968081A16490860084600681649096870
:1010A000884203D212480068134908600F496868F3
:1010B0000968084368600020286001F055F808F0CE
:1010C000070008B9012000E0002050B900BF5020FF
:1010D00080F31188BFF34F8FBFF36F8F00BF00BF46
:1010E000FEE74046BDE8F081B4000020C0000020CB
:1010F000B8000020AC000020BC00002006480068BA
:1011000030B10549096801F14800896C491C01604A
:10111000014800687047000070000020001F4FF079
:1011200080730360001F21F001030360001F054B63
:10113000036014380260001F6FF002030360203860
:1011400070470000010F010801460A69D1E901302A
:101150009860D1E9010358605068884201D18868DD
:101160005060002008611068401E106010687047D1
:10117000034B0360034B0B60802313607047000038
:10118000149301206893012000F1080141604FF0A1
:10119000FF31816000F10801C1600161002101603F
:1011A000704700210161704710B502460B685C1C56
:1011B0000CB9106907E002F1080000E040684468DB
:1011C00024689C42FAD944684C604C68A1608860ED
:1011D00041600A611468641C146010BD42684A6072
:1011E00093688B60936859609160086103685B1C29
:1011F0000360704700BF502080F31188BFF34F8F0A
:10120000BFF36F8F00BF0E480068401C0C49086098
:1012100008460068012812D10A480068C0B208B91F
:10122000012000E0002050B900BF502080F3118859
:10123000BFF34F8FBFF36F8F00BF00BFFEE7704754
:10124000C400002004ED00E00D48006850B900BF64
:10125000502080F31188BFF34F8FBFF36F8F00BF13
:1012600000BFFEE706480068401E054908600846C2
:10127000006820B9002080F3118800BF00BF7047CC
:10128000C400002070B506463546002E3FD0083D0C
:101290002C461F4960680968084008B1012000E039
:1012A000002050B900BF502080F31188BFF34F8F4A
:1012B000BFF36F8F00BF00BFFEE7206808B90120B1
:1012C00000E0002050B900BF502080F31188BFF328
:1012D0004F8FBFF36F8F00BF00BFFEE70C49606800
:1012E0000968084098B1206888B9094960680968A8
:1012F0008843606000F052F9064960680968084454
:10130000044908602046FFF791FD00F02DFF70BDF5
:10131000C0000020B800002000204FF0E02108614C
:101320008861064800684FF47A71B0FBF1F0401E06
:101330004FF0E021486107200861704760000020FD
:1013400070B504460025D4B11248006808B90120E0
:1013500000E0002050B900BF502080F31188BFF397
:101360004F8FBFF36F8F00BF00BFFEE700F016F98D
:1013700000212046FFF724FB00F0F6FE05463DB9AC
:101380004FF0805004490860BFF34F8FBFF36F8F59
:1013900070BD0000A800002004ED00E003490968CA
:1013A000016003490968416070470000980000200F
:1013B000840000200120014908607047940000204B
:1013C00070B504460D4654B900BF502080F3118813
:1013D000BFF34F8FBFF36F8F00BF00BFFEE705481D
:1013E000016818312046FFF7DFFE01212846FFF78C
:1013F000E7FA70BD700000202DE9F04706460F4661
:1014000034464FF00109002E67D0A06C50B900BFE0
:10141000502080F31188BFF34F8FBFF36F8F00BF51
:1014200000BFFEE7606CB84201D23D4600E0656C4B
:10143000E06AA84251D0A06C01284ED1284800682B
:10144000844201D0012000E0002050B900BF5020AC
:1014500080F31188BFF34F8FBFF36F8F00BF00BFC2
:10146000FEE7D4F82C80E562A06900F0004010B9D6
:10147000C5F10700A06108EB88011A4A02EB81015F
:101480006069884201D1012000E0002028B3201DBE
:10149000FFF75AFE78B9E06A00EB8000114951F875
:1014A000200040B994F82C10012088400E490968AA
:1014B00081430D48016094F82C10012088400A49AE
:1014C0000968084308490860E16A01EB8101054A9F
:1014D00002EB8100211DFFF781FEBDE8F0870000CF
:1014E00070000020F89501208800002010B586B01B
:1014F00000200590049003AA04A905A8FFF738FE70
:101500000022DDE904101346CDE9002102901CA160
:101510001D48039A00F0F8FB1C4908600846006863
:1015200008B1012400E00024012C15D100BF502097
:1015300080F31188BFF34F8FBFF36F8F00BF4FF061
:10154000FF30134908600120124908600020124949
:10155000086000F071F810E0601C08B1012000E0A4
:10156000002050B900BF502080F31188BFF34F8F87
:10157000BFF36F8F00BF00BFFEE706B010BD0000D5
:1015800049444C4500000000B10C0108A4000020B3
:10159000A00000208C000020840000200248006889
:1015A000401C014908607047A80000201D480068E1
:1015B00018B101201C49086032E000201A49086077
:1015C0001A480068B0FA80F0C0F11F0101EB8100F9
:1015D000174A52F8200008B1012000E0002050B95D
:1015E00000BF502080F31188BFF34F8FBFF36F8F80
:1015F00000BF00BFFEE701EB81020D4B03EB820051
:1016000042685268426000F108024368934202D186
:101610004268526842604268D268064B1A6000BF56
:1016200070470000A80000209400002088000020DF
:10163000F8950120700000201CB5524800685249FE
:10164000884201D0012000E0002050B900BF5020A6
:1016500080F31188BFF34F8FBFF36F8F00BF00BFC0
:10166000FEE7484800684849491E884201D00120E9
:1016700000E0002050B900BF502080F31188BFF374
:101680004F8FBFF36F8F00BF00BFFEE73F49084693
:1016900000780190FF200A461070084600780090FC
:1016A0009DF8000000F0F0009DF80020904201D16C
:1016B000012000E0002050B900BF502080F31188C5
:1016C000BFF34F8FBFF36F8F00BF00BFFEE79DF8E2
:1016D000000000F050002E4A107007202D4A1060C4
:1016E00009E02C480068401E2A4A10609DF800005E
:1016F0004006000E00909DF8000000F08000802859
:10170000EFD024480068C0F10700042801D101206F
:1017100000E0002050B900BF502080F31188BFF3D3
:101720004F8FBFF36F8F00BF00BFFEE719480068FF
:101730000002184A10601046008800F4E060106053
:10174000124A019810700F482030006840F4700071
:101750000C49203108600846006840F0704008607D
:10176000FFF7DAFD00200C490860EEF73BFD0B485F
:10177000006840F0404009490860EEF71FFD002076
:101780001CBD000000ED00E071C20F4100E400E06C
:10179000C8000020CC000020C400002034EF00E08E
:1017A0002DE9F041044601260027224600210120B0
:1017B00000F007F805462846FFF78EFA2846BDE8F0
:1017C000F0812DE9F84305460E4690460DB1012003
:1017D00000E0002050B900BF502080F31188BFF313
:1017E0004F8FBFF36F8F00BF00BFFEE70EB900271A
:1017F00001E005FB06F707F14800FFF7E1FB0446AF
:101800005CB104F14809002084F8460043464A468A
:10181000314628460094FFF76DFA2046BDE8F8836C
:1018200070B505460E462C4654B900BF502080F3D3
:101830001188BFF34F8FBFF36F8F00BF00BFFEE76C
:10184000FFF7D8FCD4E90F12206801FB02006060AA
:101850000020A0632068A060E06B401E226C21681D
:1018600000FB0210E060FF2084F8440084F845008B
:101870009EB9206908B9012000E00020A8B904F150
:10188000100000F025FC80B14FF08050094908603D
:10189000BFF34F8FBFF36F8F07E004F11000FFF726
:1018A00073FC04F12400FFF76FFCFFF7CDFC01206F
:1018B00070BD000004ED00E02DE9FF4383B0064653
:1018C00088461D464FF00009344654B900BF5020E9
:1018D00080F31188BFF34F8FBFF36F8F00BF00BF3E
:1018E000FEE7B8F1000F01D1206C08B9012000E03B
:1018F000002050B900BF502080F31188BFF34F8FF4
:10190000BFF36F8F00BF00BFFEE7022D02D1E06B77
:10191000012801D1012000E0002050B900BF502073
:1019200080F31188BFF34F8FBFF36F8F00BF00BFED
:10193000FEE700F04BFA08B9059808B9012000E06D
:10194000002050B900BF502080F31188BFF34F8FA3
:10195000BFF36F8F00BF00BFFEE700BFFFF74AFC79
:10196000A06BE16B884201D3022D28D12A46414663
:101970002046FFF7EFF80746606A08B9012000E04B
:10198000002068B904F1240000F0A2FB88B14FF0F8
:10199000805032490860BFF34F8FBFF36F8F08E06C
:1019A0003FB14FF080502D490860BFF34F8FBFF318
:1019B0006F8FFFF749FC012007B0BDE8F083059861
:1019C00018B9FFF741FC0020F6E7B9F1000F04D188
:1019D00001A8FFF7E3FC4FF00109FFF735FCFFF723
:1019E000DDFDFFF707FC94F94400401C10B900200E
:1019F00084F8440094F94500401C10B9002084F894
:101A00004500FFF721FC05A901A800F005F9F0B990
:101A10002046FFF74CFAA0B104F110000599FFF73A
:101A2000CFFC2046FFF78CFA00F09EFB002895D1F2
:101A30004FF0805009490860BFF34F8FBFF36F8F9D
:101A40008CE72046FFF77CFA00F08EFB86E7204605
:101A5000FFF776FA00F088FB0020ADE704ED00E028
:101A60002DE9F34182B005464FF000082C460026D0
:101A700054B900BF502080F31188BFF34F8FBFF3DC
:101A80006F8F00BF00BFFEE7206C08B9012000E0A7
:101A9000002050B900BF502080F31188BFF34F8F52
:101AA000BFF36F8F00BF00BFFEE700F08FF908B9EA
:101AB000039808B9012000E0002050B900BF502071
:101AC00080F31188BFF34F8FBFF36F8F00BF00BF4C
:101AD000FEE700BFFFF78EFBA76BFFB1781EA06388
:101AE000206810B9FFF70AFB6060206908B901207F
:101AF00000E0002060B904F1100000F0E9FA38B10C
:101B00004FF0805043490860BFF34F8FBFF36F8F92
:101B1000FFF79AFB012004B0BDE8F081039898B963
:101B20000EB9012000E0002050B900BF502080F322
:101B30001188BFF34F8FBFF36F8F00BF00BFFEE769
:101B4000FFF782FB0020E6E7B8F1000F04D16846FA
:101B5000FFF724FC4FF00108FFF776FBFFF71EFDAF
:101B6000FFF748FB94F94400401C10B9002084F8AA
:101B7000440094F94500401C10B9002084F8450049
:101B8000FFF762FB03A9684600F046F840BB204619
:101B9000FFF780F9F0B1206838B9FFF72BFB6068D8
:101BA00000F032FA0646FFF74FFB04F124000399D8
:101BB000FFF706FC2046FFF7C3F900F0D5FA00282E
:101BC00088D14FF0805013490860BFF34F8FBFF3A7
:101BD0006F8F7FE72046FFF7B3F900F0C5FA79E78A
:101BE0002046FFF7ADF900F0BFFA2046FFF752F9A3
:101BF0000028EED05EB1FFF7FDFA2046FFF710F89F
