:020000040800F2
:1000000020FB01205D02000867050108D99F000858
:1000100063050108BB100008172901080000000053
:100020000000000000000000000000009D0100082A
:100030008511000800000000F9010008ED12010818
:1000400077020008770200087702000877020008AC
:10005000770200087702000877020008770200089C
:10006000770200087702000877020008770200088C
:10007000770200087702000877020008770200087C
:10008000770200087702000877020008770200086C
:10009000770200087702000877020008770200085C
:1000A000770200087702000877020008770200084C
:1000B0002516010877020008770200087702000879
:1000C000770200087702000877020008770200082C
:1000D000770200087702000877020008770200081C
:1000E000770200087702000877020008770200080C
:1000F00077020008770200087702000877020008FC
:1001000077020008770200087702000877020008EB
:1001100077020008770200087702000877020008DB
:1001200077020008770200087702000877020008CB
:1001300077020008770200087702000877020008BB
:1001400077020008770200087702000877020008AB
:10015000770200087702000877020008770200089B
:10016000770200087702000877020008770200088B
:1001700077020008770200087702000800000000FC
:100180007702000877020008DFF80CD000F08EFC40
:1001900000480047B958020820FB01202C4B196881
:1001A0000868B0E8F04F80F30988BFF36F8F4FF015
:1001B000000080F3118870470000000008480068C4
:1001C000006880F308884FF0000080F3148862B65E
:1001D00061B6BFF34F8FBFF36F8F00DF00BF00BF6B
:1001E00008ED00E0DFF80C00016841F470010160E7
:1001F000704700BF88ED00E0EFF30980BFF36F8F19
:10020000134B1A681EF0100F08BF20ED108A20E96A
:10021000F04F106009B44FF0500080F31188BFF325
:100220004F8FBFF36F8F26F09FF94FF0000080F3E0
:10023000118809BC19680868B0E8F04F1EF0100F6B
:1002400008BFB0EC108A80F30988BFF36F8F704746
:1002500004070020EFF30580704700000648804740
:1002600006480047FEE7FEE7FEE7FEE7FEE7FEE79B
:10027000FEE7FEE7FEE7FEE7D51301088901000867
:100280002DE9F05F0546002092469B4688460646CB
:10029000814640241BE0284641464746224600F05E
:1002A000FEFA53465A46C01A914110D311461846D9
:1002B000224600F0E5FA2D1A67EB01084F46224668
:1002C0000120002100F0DCFA17EB00094E41201E4E
:1002D000A4F10104DFDC484631462A464346BDE826
:1002E000F09F00000649074A0868504343F239026C
:1002F00010440860400870470149086070470000DA
:100300002C0E00206D4EC64110B5431A934209D2FF
:100310008318881803E010F8011D03F8011D521E10
:10032000F9D210BD40EA01039B0703D009E008C9D8
:10033000121F08C0042AFAD203E011F8013B00F8AA
:10034000013B521EF9D210BDD2B201E000F8012BE0
:10035000491EFBD270470022F6E710B513460A4645
:1003600004461946FFF7F0FF204610BD421E12F862
:10037000013F002BFBD111F8013B02F8013B002BA0
:10038000F9D17047421C10F8011B0029FBD1801ADB
:10039000704710B5002200E0521C835C8C5CA342C5
:1003A00001D1002BF8D1D8B2E1B2401A10BD30B55E
:1003B00004460020034600E05B1C934203D2E05C4D
:1003C000CD5C401BF8D030BD034611F8012B00F87E
:1003D000012B002AF9D1184670472DE9FE4F8046BF
:1003E00081EA0300C00F0C46009021F0004123F089
:1003F0000045B8EB0200A94105D24046214690468F
:100400001C460B46024623F00040104347D0270D00
:10041000C7F30A00C3F30A510290401A0190402822
:100420006BDAC3F3130040F4801B0098924620B1AE
:100430000023D2EB030A63EB0B0B01985946C0F182
:100440004002504600F01CFA06460D4650465946FA
:10045000019A00F034FA10EB08006141002487EAA9
:10046000115284EAE7731A4340D0009A62B3019AAA
:10047000012A4FEA075215DC001B61EB02014FF025
:10048000004202EA0752CDE90042001C41F580110A
:1004900032462B4600F06BFA03B0BDE8F08F4046C1
:1004A0002146F9E7001B61EB0201001C41F58013B6
:1004B00000185B412018A2F5001747EB030140EA42
:1004C000D570B6196D4111E06D084FEA360645EA60
:1004D000C0754FEA0752001B61EB0201001C41F599
:1004E000801149084FEA30000019514132462B462D
:1004F00003B0BDE8F04F00F02BBA00980122400095
:100500000023D0EB020263EBE073009821464FEA30
:10051000E074B8EB000061EB0401E9E783F000430D
:100520005BE781F0004158E72DE9FE4F81EA0304C3
:1005300004F0004421F0004100944FF0000B23F040
:10054000004350EA01045ED052EA03045BD0C3F3D7
:100550000A54C1F30A552C44A4F2F3340194A0FBCD
:100560000254C1F3130141F48011C3F3130343F4A4
:10057000801301FB024400FB034E840A970A44EAFD
:10058000815447EA8357A4FB076802958D0A05FB4F
:1005900007854FEA932C04FB0C542705029D4FEA74
:1005A000065847EA1637B5EB08056EEB070C870EC1
:1005B000920E47EA811742EA8312A7FB0201B6EBCB
:1005C0000B0164EB00042B0D43EA0C335E1844EB83
:1005D0001C50DA465146E7FB0201C5F313044FEA0B
:1005E0000B3343EA14534FEA0432019C43EA0603F7
:1005F000A4F10C040294009CCDE900B400F0B7F91A
:1006000003B0BDE8F08F00200146F9E72DE9F04D79
:1006100081EA030404F0004B21F0004514464FF03A
:10062000000A23F0004150EA050220D054EA0102FA
:100630001DD0C5F30A570246C5F31303C1F31300D7
:10064000C1F30A5640F4801543F48013A7EB060863
:10065000101BD64608F2FD3873EB050002D308F1F3
:10066000010801E092185B41B8F1000F03DA0020A5
:100670000146BDE8F08D00204FF480110646844607
:100680000EE0171B73EB050705D3121B63EB050385
:1006900006434CEA010C49084FEA300092185B41CE
:1006A00050EA0107EDD152EA030012D082EA0400B9
:1006B00083EA0501084305D0101BAB4106D2012295
:1006C000002306E000224FF0004302E06FF0010239
:1006D00053101AEB06004CEB085110EB0A0041EBEB
:1006E0000B01BDE8F04D00F033B90EB5C10F80EA43
:1006F000E0700844CA07002140F233438DE80E0041
:100700000A460B4600F033F903B000BD0EB540F2C7
:10071000334102910021CDE900110A460B4600F059
:1007200026F903B000BD70B5C1F30A5201F00045CF
:100730000024C1F3130140F2FF3341F480119A42C7
:1007400001DA002070BD40F233439A42A2F23342F4
:1007500003DC524200F0A3F800E090402C43F1D0BB
:10076000404270BDC1F30A5210B5C1F3130140F20B
:10077000FF3341F480119A4201DA002010BD40F2AB
:1007800033439A42A2F2334203DC524200F087F82C
:1007900010BD904010BD00F0004230F000400AD083
:1007A000C10D01F56071C0F3160042EA0151C208A3
:1007B00040071143704700200146704730B5041EC2
:1007C00071F1000404DB4FF00044404264EB01018E
:1007D000141E73F1000405DB1C464FF00043524227
:1007E00063EB04038B4208BF824230BD30B5041E68
:1007F00071F1000404DB4FF00044404264EB01015E
:10080000141E73F1000405DB1C464FF000435242F6
:1008100063EB0403994208BF904230BD01F00043EE
:1008200030B421F0004150EA010206D00A0DA2F5D1
:100830006072C1F31301002A02DC30BC0020704753
:10084000440F44EAC104C100E01830BC00EBC250C0
:1008500000F047B830B50B460146002020220124A5
:1008600009E021FA02F59D4205D303FA02F5491B7E
:1008700004FA02F52844151EA2F10102F1DC30BD94
:10088000202A04DB203A00FA02F100207047914050
:10089000C2F1200320FA03F3194390407047202A45
:1008A00004DB203A21FA02F00021704721FA02F31A
:1008B000D040C2F120029140084319467047202AD7
:1008C00006DBCB17203A41FA02F043EAE07306E078
:1008D00041FA02F3D040C2F1200291400843194688
:1008E00070470029A8BF7047401C490008BF20F08E
:1008F0000100704710B4B0FA80FC00FA0CF050EA26
:10090000010404BF10BC704749B1CCF1200421FAA6
:1009100004F411FA0CF118BF012121430843A3EBA1
:100920000C01CB1D4FEA00614FEA102042BF0020AE
:1009300010BC704700EBC35010440029A4BF10BC8A
:100940007047401C490008BF20F0010010BC7047F0
:1009500010B5141E73F1000408DA401C41F10001C7
:1009600092185B411A4301D120F0010010BD2DE91E
:10097000F04D92469B4611B1B1FA81F202E0B0FA15
:1009800080F220329046FFF77BFF04460F4640EA94
:100990000A0041EA0B0153465A46084313D0114658
:1009A00053EA010019D0C8F140025046FFF777FF23
:1009B00005460E46504659464246FFF761FF08433A
:1009C00005D0012004E020463946BDE8F08D002026
:1009D000054346EAE0762C4337430A986305E40A68
:1009E000A0EB08000022FD0A44EA47540A3002D571
:1009F00000200146E9E7010510196941DDE90845D4
:100A000000196941BDE8F04DA2E72DE9F04D002342
:100A10001A461B1A8A4103DB00200146BDE8F08D0F
:100A2000C1F30A52C1F3130141F480154FF0000BDA
:100A3000D10702D100186D41521E0027044640F232
:100A4000FF11384601EB620A3E468046024600200E
:100A50004FF48011FFF723FFC2197141BB1846EB19
:100A60000100B4EB030C75EB000C04D3E41A65EB46
:100A7000000517460E46241908F101006D41804615
:100A80003428E3DDF91946EB0600091BA84103D21F
:100A90004FF0FF32134601E0002213461BEB070024
:100AA00046EB0A51BDE8F04DFFF752BF064C074D2B
:100AB00006E0E06840F0010394E80700984710342E
:100AC000AC42F6D3FFF764FB242907084429070842
:100AD00070B58C1810F8015B15F0070301D110F800
:100AE000013B2A1106D110F8012B03E010F8016B2D
:100AF00001F8016B5B1EF9D12B0705D40023521EB0
:100B00000DD401F8013BFAE710F8013BCB1A921C17
:100B100003E013F8015B01F8015B521EF9D5A14215
:100B2000D8D3002070BD10B509F080FA10BD2DE9B2
:100B3000F04107460C460026002509E03602391927
:100B4000491B491E88B200F008F80644681CC5B26B
:100B5000A542F3DB3046BDE8F08170B504460026BF
:100B600009F002FB2546E11704EB11610912A022EE
:100B700002EB4101C8B209F0C3FA09F03FFBE117EB
:100B800004EB11610912A4EB0121C8B209F0B8FA13
:100B900009F034FB09F0E8FAA12009F0B1FA09F0F4
:100BA0002DFB002009F076FA064609F003FB3046DB
:100BB00070BD2DE9F04105460E461746002409E0B8
:100BC000E20026FA02F2D1B22A1990B200F006F839
:100BD000601CC4B2BC42F3DBBDE8F08170B50446D2
:100BE0000E4609F0C1FA2546E11704EB116109121E
:100BF000A02202EB4101C8B209F082FA09F0FEFA24
:100C0000E11704EB11610912A4EB0121C8B209F04C
:100C100077FA09F0F3FA304609F072FA09F0EEFAC1
:100C200009F0C8FA0A2008F00FF870BD002800DCAF
:100C30004042704738B5456804460146284611F0E1
:100C400093FE00282AD02068304A0F2819D006DCED
:100C50000B2824D00C2810D00E2851D12FE01128B9
:100C600002D028284CD145E09268002A16D02146AF
:100C7000284601B0BDE8304010472146284652685A
:100C8000F7E7284603F06EFD0090406E0468684662
:100C900003F0D2FD002C01D02846A04738BD2846DD
:100CA00003F060FD0090683003F0ACFC0098032175
:100CB0006C3003F0B5FC684603F0BEFD20E0E1684F
:100CC000486809680D2902D0202913D105E00028C1
:100CD00010DD28461EF02FFF06E0002804DD284620
:100CE000BDE838401EF027BF2846BDE83840022145
:100CF0001EF037BFE06818B90021284600F09AF9C5
:100D00002046BDE8384012F00DBA0000C0080020AF
:100D1000F0B5044685B08069B4F90850668A0027AA
:100D2000CDE90265CDE900170490B4F90C00B4F9DF
:100D30001060C118B4F90A00B4F90E5010443346DB
:100D40002A4600F007F80546616800F089F905B009
:100D50002846F0BD2DE9F04F85B01F46DDE911B4FE
:100D6000DDE90E5690468946824605F001F94C347D
:100D70001548CDE90204CDE900563B4642464946B6
:100D8000504612F015F9040018D003F0EBFC1022C5
:100D90005946049012F036F8049830220B4934304A
:100DA000FFF7B2FA094D04990C3D2868486604A87B
:100DB00003F042FD286841682046884706F0D2FDCE
:100DC00005B02046BDE8F08F350C0008CC080020A7
:100DD000F0B5044680688B4989B051F820506068AE
:100DE00000287DD0052804D006287AD0122879D191
:100DF000AEE0E86900284FD095E80E008DE80F00BE
:100E000004F110010FC907F041FA002655F8260039
:100E100006F033F9A169E8690A1A21690144606999
:100E2000304404F0B3FDA169E8690A1A216901445C
:100E3000E069801B04F0AAFDE169E8690A1A6169AA
:100E400001442069304404F057FEE169E8690A1A58
:100E500061690144A069801B04F04EFE761C022EDD
:100E6000D4DBA86806F009F9E069E9696669431A04
:100E700020694218521E3144801C04F0BFFEE16913
:100E8000E869A2690B1A61690144101A401C921E9C
:100E900004F0B4FEEE6913E05FF0000655F826009A
:100EA00006F0EBF8E069831BA069821B6069811979
:100EB0002069304404F0E0FD761C022EEEDB0226B1
:100EC000D5E90301CDE900016169E06908444310F7
:100ED000A069891C821B2069304404F0F1FC02E007
:100EE00089E012E08AE0D5E90501CDE90001E36976
:100EF00060690121184401EB6001A0699B1E821BFF
:100F00002069304404F0DCFC78E0206803F02AFC1F
:100F10000490206813F0DCFD40B1A06808B1002007
:100F200008E00498006F28B1012003E00498406FA6
:100F300000B10220049901EB8000C56E04A803F003
:100F40007BFC00231A462846216804F037F955E057
:100F5000206803F007FC0490866EEEB3B0F95C7075
:100F6000A168D1B3032942D05FF0000100EB8101F9
:100F7000406D0C6C06F0AAF8204606F07EF805A835
:100F800004F0FEFEBDF81410A88B0144ADF8141057
:100F9000BDF81810081AADF81800BDF81600801C2E
:100FA000ADF81600BDF81A00801EADF81A000498BE
:100FB0005E30B0F90220B0F9001005A805F0D2FDAE
:100FC00004A803F039FC022006F00AF9304603F0C9
:100FD000C9FB3A4605A901E00BE006E0079004F0E2
:100FE00065FA07A803F028FC08E00121BEE702210A
:100FF000BCE704A8F6E7206813F0A6F909B00020C2
:10100000F0BD000048030708044A03491160044981
:101010004A6A486210467047FC080020C008002059
:10102000CC08002000294FF0100101D011F02BBD99
:1010300011F073BC4FF480720029114601D011F0F9
:1010400022BD11F06ABC0000034802494160034917
:1010500081607047D7110208C0080020C90B020840
:101060002DE9FF410E4605004FF0010421D004F0A8
:101070007FFF284603F076FB0190876E01A800975A
:1010800003F0DAFB3146684607F05CFC78B1009863
:101090000024B84208D0284603F064FB0190009970
:1010A000816601A803F0C8FB284612F0BBFD06F0DC
:1010B00059FC04B02046BDE8F08100BFFEE7000007
:1010C0007CB5214C0546216831F8220F4A8D104429
:1010D00008804888CA8D10444880284604F02AFEBB
:1010E0002168498CADF800104618284607F0C6FA6A
:1010F0003044401EADF8040004F06CFE2168898C79
:10110000ADF802100844401EADF80600684613F022
:1011100073FB04E0284600F047FF13F0E7FA0028CD
:10112000F8D10A2D04D0BDF804002168401C488481
:10113000206830F8221F428D891A01804188C28DB3
:10114000891A41807CBD0000BC0700200B48006864
:10115000018990F8702011FB02F309490B80438943
:1011600013FB02F34B8083895B1C53435B1E8B8014
:10117000C089401C5043401EC8807047BC070020F7
:1011800090070020704700002DE9FC5F15460746D8
:10119000DFF89C8028440190D8F800001C460E46D9
:1011A000C06E01EB04094946426801989047781BDC
:1011B0000090D8F800004946C06E426800989047F9
:1011C000D8F8000006EB050B07EB0409C06E594682
:1011D000426848469047D8F80000A6EB050A5146F9
:1011E000C06E426848469047002C1ED0D8F80000D8
:1011F000361B4546C06E31464268019890472868C4
:101200003146C06E42680098904728683C1B59469A
:10121000C06E42682046904728685146C06E4268BA
:1012200002B02046BDE8F05F1047BDE8FC9F00001B
:10123000BC07002070472DE9F047456804468EB092
:101240000026284603F08EFA00905C30B0F820A00B
:10125000D0F80C90D0F82480C76A006800B1066806
:10126000684603F0E9FA05E07968204688470028D7
:101270003DD13F68002FF7D12068142844D009DC05
:10128000A0F10B00072839D2DFE800F0BE3989B49D
:1012900034B4110020287ED004DC17283ED01E284C
:1012A0002CD14BE026283CD02A2827D110E0284614
:1012B000E66803F057FA0190717A39B9317A012959
:1012C00004D130F87C1F41F48071018001A88FE0C7
:1012D000284603F047FA0090E16811B1C0F8841085
:1012E00002E0D0F88400E060684603F0A5FA0EB092
:1012F000BDE8F087002E7DD02846B0477AE0214631
:1013000028461FF0D3FCF2E705A9284600F02BFC85
:10131000E0680699016007994160E8E7C4F80C901D
:10132000E5E7E0680228E2D10C95E0680D902720FF
:101330000A900AA9A06813F0E5FDD8E7E068012843
:1013400004D00021284600F03EFBD0E7404612F0D2
:10135000D6FC58B1404612F071FF404612F08EFBA9
:1013600088B10121404611F08EFB0CE0484612F096
:10137000B9FF8046284603F0F5F90090C0F8808058
:10138000684603F059FA0121284600F01CFBB8F129
:10139000000FACD100E00EE00020E060A7E75FEABC
:1013A0000A7027D4E068C06820B3007A10B32846DA
:1013B00012F044FF1EE0E668E6B12946706813F0BB
:1013C00070FB20B10121284621F068FA12E00021CB
:1013D000284621F063FA2946306813F051FB48B1E2
:1013E000284603F0BFF903903168C0F8801003A8C5
:1013F00003F022FA2146284611F0B6FA00288CD0D4
:10140000204611F08FFE72E7284603F0ABF90090FA
:10141000703003F0F7F86846EAE7F0B587B0B0F946
:1014200008400DF10C0C0C9E87694568ACE8F00093
:10143000448A0025CDE900150294B0F90C10B0F9EA
:101440001050B0F90E40B0F90A00194410442B4670
:10145000224600F003F807B0F0BD00002DE9F04F80
:101460008BB09846DDE9155691468A468346149F0F
:101470001A9C04F07DFD6034314845F48055CDE977
:101480000204CDE9007543464A465146584611F0DC
:101490008FFD04004DD003F065F9302204901799B8
:1014A00011F0B0FC0498282226493430FEF72CFFB6
:1014B000049819995C30234F8160068400264662A7
:1014C0000661083FC6627968016004A803F0B4F9B8
:1014D00005A9204600F047FB1B4841F282710396A4
:1014E0000094CDE90110BDF91E00BDF91A10BDF937
:1014F0001C20431ABDF918005B1C121A521C11F073
:1015000057FD06467868416820468847204603F024
:1015100029F90490866604A803F08EF942F20400CB
:10152000054202D1204611F09DFE2046189900F098
:10153000C3FA06F017FA0BB02046BDE8F08F0000A2
:101540003712000890090020251D00082DE9F04100
:10155000044694B0006800F0B7F908B1D94D01E035
:10156000D84D2C35606815281ED00CDC0B281FD0F8
:1015700004DC00287ED005287DD12EE10E287BD00A
:101580001228F9D141E1162806D0172808D01828CA
:1015900008D01C28F0D109E0E86914B0BDE8F0815A
:1015A000286AFAE7686AF8E7A86AF6E76869F4E77C
:1015B00020680B901C200C90206803F0D3F8039057
:1015C000016D0BA88847064603A803F035F9022EE3
:1015D0000EDB95E807008DE80700D4E904023346E6
:1015E000A16906F019FE20698719A069801B2BE00C
:1015F000286805F042FD2169E8690A18521E6069F1
:1016000004F0C4F9A269E869111A491C606904F080
:10161000BDF9676920697F1C394604F007FA39462D
:10162000A06904F003FA686805F027FD20693946CF
:10163000401C04F0FBF9A0693946401E04F0F6F99D
:101640002769A069BF1C801E8046286805F015FD2B
:1016500042463946606904F099F9686805F00DFD65
:1016600060694246401C394604F090F9686A0228D5
:101670000FDD02E015E1AFE000E1A86805F0FDFC38
:1016800061696A6A881C8B1801465B1E42463846AF
:1016900027E0296AB14226DD6069022E074600F183
:1016A000020801DB374401E007F10207206901DB92
:1016B000304401E000F1020022693B460A44A2F1F5
:1016C0000102414604F09AFA022E02DBA069821B55
:1016D00001E0A269921EA069E9693B46401A401CDC
:1016E000414604F08BFA022E02DB6069064401E0F9
:1016F0006669B61CE76928687F1E05F0BEFC3A469D
:101700003146206904F0F8F93A463146A06904F000
:10171000F3F9E7696868BF1E05F0AFFC20693A4637
:10172000401C314604F0E8F9A0693A46401E3146B3
:1017300004F0E2F9E869022802DC286A022823DDC5
:10174000A86A022802DDE1690F1A01E0E769BF1EFD
:10175000A86805F092FCE969022909DD20693B4689
:10176000421800F1020C521E3146604604F046FA5F
:10177000286A022808DDA269E8693B46101A401C65
:10178000921E314604F03AFA286805F076FCD4E956
:101790000620216904F0FAF8686805F06EFCA26979
:1017A0002169E069521E491C401E04F0EFF8A86A46
:1017B000022811DD2669A169E469B61C271AA1F186
:1017C00002087F1CA41EA86805F057FC2346424669
:1017D0003946304604F012FA72E0208A06B2ADF8BB
:1017E0001460A08A01B2ADF81610208B02B2ADF8D9
:1017F0001820A08B03B2ADF81A30D5E90304CDE967
:101800000004304604F05CF85AE0208A298B084432
:10181000ADF81400A08AADF81600208B298B401A71
:10182000ADF81800A08BADF81A00206802F09AFFFE
:101830000390006FF0B1022005F0D2FC039991F8FB
:101840007C00C0F3C00001EB8000006C05F015FCCB
:101850000398406B05F03AFC0398006F02F082FF9A
:1018600003990A90B1F95A2005A903F01FFE0AA8AE
:1018700002F0E2FF03A802F0DFFF21E0208AADF8CA
:101880001400A08AADF81600208BADF81800A08BCC
:10189000ADF81A00A86805F0F0FB05A804F0DAF925
:1018A0000EE0206802F05EFF039030F85A1F41F00E
:1018B0000C01018003A802F0BFFF206812F044FD74
:1018C00000206AE6CC09002038B505004FF000047E
:1018D0000FD004F04DFB284602F044FF009090F832
:1018E0007C00000700D50124684602F0A5FF06F041
:1018F00039F8204638BD0000022905D2034A52F8C3
:1019000021102C22FEF700BD704700005803070885
:1019100030B504468BB0006802F024FF009090F8C8
:101920007C10246A006FC1F3C00508B102F01AFFF1
:101930000690E068029020690390A088401EADF8F0
:101940001000E089ADF812002089401CADF81400A9
:10195000608AADF81600BDF80800401CADF808001C
:10196000BDF80A00401CADF80A00BDF80C00401E8E
:10197000ADF80C000098406B05F0A8FB009808AA91
:1019800002A9B0F95A30069806F0A2F8009800EBC8
:101990008500806B0DF02AF9009800EB8500006C43
:1019A0000DF05CF908AB02AA04A9069811F048F9F9
:1019B000684602F041FF069810B106A802F03CFF0D
:1019C0000BB0002030BD70B50D46040009D004F006
:1019D000CFFA2946204620F061FFBDE8704005F0AF
:1019E000C1BF70BD022803D2024A02EB80004160F1
:1019F000704700009009002001490860704700000E
:101A000090090020074A0649054B1160064A083B29
:101A1000D16958601B68C2E906300846704700006B
:101A2000C00900208C09002090090020024AB2F968
:101A30002610D084084670479009002038B50C461F
:101A4000054604F095FA55B1284602F08BFE009049
:101A50000466684602F0F0FE284612F0E3F8BDE89E
:101A6000384005F07FBF000070B50D460146022DDD
:101A70001ED2104C2C2254F82500FEF745FC54F8D9
:101A800025100220CA69022A00DAC86154F825101C
:101A90000A6A022A00DA086254F825104A6A022A01
:101AA00000DA486254F825108A6A022A00DA88624D
:101AB00070BD0000580307087CB50D4604001DD01A
:101AC00004F056FA204602F04DFE0090006F01909F
:101AD000684602F0B1FE294601A806F033FF58B16E
:101AE000204602F03FFE009001990167684602F02F
:101AF000A3FE204612F096F805F034FF7CBD38B501
:101B00000C46050013D004F033FA284602F02AFEF2
:101B10000090B0F95A10A14204D0A0F85A402846CB
:101B200012F080F8684602F087FE05F01BFF38BD12
:101B300038B50C46050015D004F01AFA284602F014
:101B400011FE0022CDF8000000EB8201521C0C6453
:101B5000022AF9D3684602F06FFE284612F062F8B6
:101B600005F000FF38BD2DE9F34F85B000270C4686
:101B7000B846059802F0F6FD0090C06D0121856819
:101B800005982A68904782462A680321059890475D
:101B900004902A6802210598904703902A68002142
:101BA000059890470646009812F017FE8346009865
:101BB00012F01AFE8146009890F83210890601D57D
:101BC000B0F9588000F036F805460098C06E10B1A4
:101BD00011F076FD074625806780A4F804A0049ADA
:101BE000ABEB020006EB0802401E2A4420813A4477
:101BF000E280039BA9EB0302521E6281A4F80CA0B1
:101C000020827019E681401E6082684602F014FE50
:101C1000B4F90C000190B4F91000029002AA01A9D5
:101C2000059800F039F80198A0810298208207B049
:101C3000BDE8F08F10B50146002091F832209206E1
:101C400007D5B1F95400002803D1486B04F033F9EB
:101C5000801C10BD70B58AB00C46054602F082FDAE
:101C60000990C06D866809A802F0E6FD009534B1C0
:101C7000012C06D0022C0BD0032C04D10AE0182032
:101C800000E0162001907168684688470AB070BD70
:101C90001520F7E71720F5E72DE9FC479046894620
:101CA000044602F05FFD0090C16D056868468E68CD
:101CB00002F0C2FD326800212046904706462046C9
:101CC00011F0A3FB2F1404462DB227E002F04AFDC9
:101CD0000190B0F90010B0F90420B0F90230491BAE
:101CE000521BDB1BB34212D190F82800000607D527
:101CF000D8F8000088420ADB491EC8F8001006E048
:101D0000D9F80000904202DC521CC9F8002001A85A
:101D100002F092FD204611F01DFC0446002CD5D1A6
:101D2000BDE8FC872DE9F0430446406885B00646CF
:101D300011F02EFC814602F015FD0090D0F8808055
:101D4000876C456E684602F077FD2068172859D0E9
:101D500008DC0E2837D00F280BD0142852D01528B5
:101D60003AD14FE01E2818D01F2827D0222833D17F
:101D700046E06FF07040874204D038460CF036FFE2
:101D800003F09EF8002D12D0D4E902122068CDE9AC
:101D90000106CDE9031201A822E0E068002806D080
:101DA0005FEA080006D0B04504D012F047FA05B04B
:101DB000BDE8F083304612F095FA16E02146484619
:101DC00010F0D2FDF3E7E0684168002904DD006807
:101DD0000928EFD00A2805D0A5B12046C4F8049000
:101DE000A847E4E7304612F08CFA0446484602F071
:101DF000B9FC0090C0F88040684602F01DFDD6E7AF
:101E0000E760D4E7204611F08DF9D0E770B50446BD
:101E10001D460023B5F5804F13D154F822300C48ED
:101E20000340D1E9000640EA06108E6840EA062029
:101E30008E8940EA06408E693043034344F82230DD
:101E400003E06FF0704044F82200002070BD0000F5
:101E50000000F0CF10B503460022086853F8202098
:101E600012480240D1E901042043CC6820430C69A8
:101E700020434C6920438C692043CC6920430C6A81
:101E800020434C6A20438C6A2043CC6A2043CC6BAD
:101E900020430C6B204302438868082801D142F09C
:101EA0004002086843F82020002010BD8000F0FFA9
:101EB00030B503460024501C53F8204004F0404441
:101EC000D1E9000540EA05108D6840EA05208D89BA
:101ED00040EA0545088A401E45EA0055087D801EF7
:101EE00045EA00608D6928430443501C43F82040B4
:101EF000002030BD2DE9F74F14468A4602FB04F05E
:101F000002EBD47100EB61062649AAEB04080AEB48
:101F100004090868406948B1B0F906204A4500DA6A
:101F20009146B0F90200404500DD80460125274674
:101F30008B4616E0AAEB0501414511DB49450FDC54
:101F400005FB05F007FB0702B24201DD7F1EF9E742
:101F5000DBF800300098DB6EC219C01B1B68984785
:101F60006D1CA542E6DB0025274616E00AEB0501BD
:101F7000414511DB49450FDC05FB05F007FB070276
:101F8000B24201DD7F1EF9E7DBF800300098DB6E1E
:101F9000C219C01B1B6898476D1CA542E6DBBDE853
:101FA000FE8F0000BC07002010B504460A2812D09E
:101FB0000D2C14D003F0DCFF09480068C0690168EB
:101FC000204688470748016809B120468847BDE890
:101FD000104005F0C7BCBDE8104003F08DB910BD3E
:101FE000BC070020E40700202DE9F0430446C56843
:101FF00087B090468946002005F05CF8064625B17A
:10200000287910B146F0020001E026F0020005F048
:1020100051F82069012558B1D4E902128DE8260053
:10202000039563882288046841464846A0471EE01D
:10203000124F134B214638681B68427CE068984772
:1020400030B9E088012801D0002001E03868806BB9
:10205000A288E388A1680095CDE90410CDE9023299
:10206000019563882288414648460BF06BFD07B016
:102070003046BDE8F04305F01DB80000BC07002065
:10208000B40700202DE9F0478146884640F2C3207E
:1020900050434FF47A7190FBF1F502FB02F002EB32
:1020A000D27100EB61066D1C17460023414648467D
:1020B000FFF76AF8012413E004FB04F007FB0700B4
:1020C000B04206DD3B46224641464846FFF75CF8F3
:1020D0007F1E3B46224641464846FFF755F8641CA2
:1020E000AC42E9DDBDE8F0871CB50024019401ACE9
:1020F000009400F0E7F81CBD2DE9FF4F83B0814646
:1021000006988A46A0EB0A08109E00200090A2EBD9
:1021100009043568934654EA080018D02046FEF7B3
:1021200085FD07464046FEF781FD87420BDA2046D3
:10213000444680464846D14682465846DDF818B0A7
:10214000069001200090002C07DD204606E007B035
:102150004846BDE8F04F00F03BB96042A0420AD0CB
:102160004846D9466442C8F1000883464FF0FF371D
:10217000DDF818A000E001275148B8F1000F11D098
:1021800004EBD4714FEA610B01DACBF1000B4C4840
:102190000068807E88B3002F02DA30682044306007
:1021A00000257BE000990029016821D0897E11B1CA
:1021B0000027804615E007B05A4649465046BDE81C
:1021C000F04F0BF08DBE28466D1C20F0C3FD38B9D2
:1021D000D8F8000009EB0701C06E426850469047EE
:1021E0007F1CA742EFDD6D1E356007B0BDE8F08FA4
:1021F0008A7E1AB10027804617E019E0C86E5A4659
:102200005146036807B04846BDE8F04F18472846D6
:102210006D1C20F09FFD38B9D8F8001009EB0700BD
:10222000C96E4A68514690477F1CA742EFDDDAE746
:1022300000250FE008FB05B090FBF4F101EB0A006C
:10224000009951B11E4A09EB05011268D26E52681D
:1022500090476D1CA542EDDDC7E7194909EB050361
:102260000968C96E4A6801461846F1E708FB05B0DF
:1022700090FBF4F101EB0A000190306838443060C3
:1022800020F068FD48B9009890B10D4809EB0501B0
:102290000068C06E4268019890476D1CA542E5DD5C
:1022A0003068002F01DA20443060C01B30609CE7AA
:1022B000034909EB05000968C96E4A680199EBE713
:1022C000BC0700202DE9FF470F46404916468046CF
:1022D00009680C981D460A7E012A1CD0A8EB06004E
:1022E000791B50EA01031CD0A2F1010922F0EAFC9B
:1022F00000F58060824606F04DFC00FB09F4504674
:1023000006F04CFC00FB09F1002C0CDAC4F500705F
:10231000801240420AE00090324639464046FFF7BC
:10232000EBFEBDE8FF8704F50074A012002904DA73
:10233000C1F5007189124C4202E001F500718C1266
:10234000002804DD411C01EBD171491003E000EBD2
:10235000D0714910401E00EBD0704210002C04DDFB
:10236000601C00EBD070401003E004EBD470401010
:10237000641E04EBD47308EB0104ADF800403C1874
:10238000ADF80240A8EB02045B10B21AADF80440AD
:10239000ADF808203144FC1AEA1AADF80C102844B4
:1023A000ADF80A20ADF80E000023ADF806401A463D
:1023B0000421684600F08CF83946404618F0C6FC07
:1023C0002946304618F0C2FCABE70000BC070020ED
:1023D000064A13681A7E012A05D0521E02EBD272F9
:1023E000521000F005B8DA6E52681047BC070020A2
:1023F0002DE9F05F0646884640F2C32050434FF473
:102400007A7190FBF1F702FB02F002EBD27100EB64
:10241000610B254914467F1C09683244301BC96E84
:102420000B684146984701253AE000BF05FB05F0DF
:1024300004FB040159451CDDBC4219DD1A4B06EBB7
:10244000050AA6EB05091B68AAF1010208EB0401C5
:10245000DB6E09F101001B689847134BAAF10102DA
:10246000A8EB04011B6809F10100DB6E1B689847AB
:10247000641E0D4806EB040AA6EB0409006808EB8D
:1024800005015246C06E0368484698470648A8EBC7
:10249000050152460068C06E0368484698476D1CA7
:1024A000BD42C3DDBDE8F09FBC07002070B51446F7
:1024B0000E4605460119001B01F0D0FF22463146A9
:1024C0002846FFF717FDBDE8704001F0EDBE0000A3
:1024D0002DE9FF4F40F6FF740F46664283B09B46DE
:1024E000814600210BE000BF09EB8100B0F902003A
:1024F000A04200DA0446B04200DD0646491CB9425B
:10250000F2DB68480068406900280DD0B0F9061079
:102510001A46A1EB0B01B14200DA0E46B0F90200F7
:10252000801AA04200DD0446B5E0DFF87CA100205F
:102530000546CAF8000089E0781E854201DA6B1C66
:1025400000E0002309EB850C09EB8302BCF90200D3
:10255000B2F90210A04245D1A14215D139F9233078
:10256000059A39F9251003EB020C4E4A05981268BA
:10257000084404EB0B01D26E6045136801DA624631
:102580002BE00246604628E02846A4464FF00008AB
:102590007A1E0BE008B1401E00E0781E09EB8003B4
:1025A000B3F90230634504D108F101089045F1DB2D
:1025B0002346A34249D0A3EB040239F92500A1EB3D
:1025C000040C059B92EA0C0209D4364A184404EB29
:1025D0000B011268D26E13680246984735E012F07C
:1025E000DFFE32E0A14230D001DBA04203DDA04299
:1025F0002BDBA14229DCE04688420ADC0346A042EC
:1026000023DC0846A14220DBB8F900C0B2F9001073
:1026100008E00B46A14218DCA04216DBB2F900C06C
:10262000B8F90010E21AA1EB0C0151430029A0EB0C
:10263000030202DD01EB620102E0A1EB6201491C31
:10264000C01A91FBF0F06044C9E76D1CBD42FFF673
:1026500073AF0598009004EB0B00019000208046BA
:10266000054613E01149B8F1000F31F915A009D062
:10267000009901EB0A0208440A490968C96E0B680F
:102680000199984788F0010850466D1C0649096871
:102690008D42E7DB641CB4427FF747AF07B0BDE86B
:1026A000F08F0000BC070020300D002044F2012014
:1026B00010B5002004F0CAFC6FF07F4004F0DDFC90
:1026C000012004F06FFD002004F07AFD002004F0EA
:1026D00087FD002004F0EEFC0448006804F0F6FCDE
:1026E000BDE81040002004F02FBD0000B807002016
:1026F00033B583B004001BD003F03AFC204602F04F
:1027000031F80190456E01A802F096F8049802F0A5
:1027100029F800908460684602F08EF8042204A92B
:10272000284602F0ADF8204611F07CFA05F01AF9BF
:1027300005B030BD33B583B004001BD003F018FCE6
:10274000204602F00FF80090856E684602F074F89B
:10275000049802F007F80190846001A802F06CF878
:10276000042204A9284602F08BF8204611F05AFAF8
:1027700005F0F8F805B030BD2DE9F041044600251C
:10278000D4E90007B0F5407F00D101252146384645
:1027900010F0EAF8064615B138461CF0D9FE002EB6
:1027A0002FD02068052806D00B280ED00F2806D081
:1027B000262821D10EE038461CF0CAFE1CE038461F
:1027C000E168BDE8F0411DF0D2BC3846BDE8F041FB
:1027D0001DF0E4B9E06805280ED1384610F012FF6C
:1027E000A168884205D0384610F0FCFEA1688842F6
:1027F00002D160681EF00AFA2046BDE8F04110F0F0
:1028000091BCBDE8F081F0B585B00DF1280CBCE8B5
:10281000F0004FF0000C8DE8F01000F003F805B068
:10282000F0BD00002DE9F04F85B09846DDE90E5669
:1028300091468A468346109F129C03F099FB6C34A4
:102840001748CDE90204CDE9005643464A465146B1
:10285000584610F0ADFB04001BD002F04EF80546C0
:1028600002F04BF80646204601F07CFF0490C0E9D8
:1028700019560022119910F0C5FA0498302209491E
:102880003430FDF741FD0498A0F8787004A801F0F9
:10289000D3FF05F067F805B02046BDE8F08F0000D3
:1028A00079270008240A002013B582B0044603F0FB
:1028B0005FFB204601F056FF009060B1406A01F0D6
:1028C00051FF01460190022303AA009800F0C8F9C5
:1028D00001A801F0B1FF684601F0AEFF05F042F833
:1028E0001FBD00002DE9F04385B01D4690460F4600
:1028F000814603F03DFB2C2001F03BFE060024D076
:10290000780001F036FE04000ED0B8F1000F0BD0B5
:1029100055B1204601F026FF6A0041460090FDF7C0
:10292000F3FC684601F088FF304601F01BFF0A49BE
:10293000029000F10C024462A2E8A2020749016081
:102940000749416002A801F077FF05F00BF805B0D8
:102950003046BDE8F08300000DEF010819030208BE
:102960002DFC010810B5044603F002FB20461DF0C3
:102970005DF9BDE8104004F0F5BF2DE9FC4789463C
:1029800007002BD003F0F4FA384601F0EBFE01907B
:10299000466E01A801F050FF304602F006F80546E9
:1029A000002414E02146304602F00BF870B101F02B
:1029B000D9FE0090D0F80080684601F03DFFC84580
:1029C00004D12146304601F0C3FF02E0641CAC4252
:1029D000E8DB384611F026F904F0C4FFBDE8FC87B7
:1029E0002DE9FC47894607002BD003F0C1FA384691
:1029F00001F0B8FE0090866E684601F01DFF30467B
:102A000001F0D3FF0546002414E02146304601F0D2
:102A1000D8FF70B101F0A6FE0190D0F8008001A8A7
:102A200001F00AFFC84504D12146304601F090FF6D
:102A300002E0641CAC42E8DB384611F0F3F804F025
:102A400091FFBDE8FC8700002DE9F8439846154644
:102A50000E46074603F08CFA302001F08AFD040090
:102A600015D001F07FFE0090C0E9057685840A4A02
:102A7000B7EE000AC0F81C8080ED0A0AD2E9001205
:102A8000C0E9031205490160684601F0D5FE04F073
:102A900069FF2046BDE8F883540A0020F1030208CC
:102AA00001F086BDF8B50D4606004FF0000411D0C8
:102AB00003F05EFA304601F055FE0090046AAC4225
:102AC00003D00562806811F0ADF8684601F0B4FEED
:102AD00004F048FF2046F8BDF8B50D4606004FF05B
:102AE000000411D003F044FA304601F03BFE0090A0
:102AF0004469AC4203D04561806811F093F86846A0
:102B000001F09AFE04F02EFF2046F8BD2DE9F843AF
:102B10001D46DDF8208016460F46040015D003F050
:102B200027FA204601F01EFE0090C0F8608047653D
:102B3000C0E91665684601F07FFE20461CF008FDDE
:102B4000204611F06FF804F00DFFBDE8F883F8B5EA
:102B500015460E4607004FF0000415D003F008FAA2
:102B6000384601F0FFFD0090042D08D200EB8500EF
:102B7000446BB44203D04663384611F053F86846BC
:102B800001F05AFE04F0EEFE2046F8BDF8B50D4601
:102B900006004FF0000411D003F0EAF9304601F0CE
:102BA000E1FD0090446CAC4203D04564304611F026
:102BB00039F8684601F040FE04F0D4FE2046F8BD26
:102BC000F8B50D4606004FF0000411D003F0D0F91F
:102BD000304601F0C7FD0090846CAC4203D08564A0
:102BE000304611F01FF8684601F026FE04F0BAFEE8
:102BF0002046F8BDF8B50D4606004FF0000411D090
:102C000003F0B6F9304601F0ADFD0090046DAC4222
:102C100003D00565304600F055F8684601F00CFE1B
:102C200004F0A0FE2046F8BDF8B50D4606004FF0B2
:102C3000000413D003F09CF9304601F093FD00909E
:102C400090F86C40AC4204D080F86C50304610F0E4
:102C5000E9FF684601F0F0FD04F084FE2046F8BD6F
:102C60002DE9F041044680681D4617460E460028AF
:102C700026D0D4E9040290420ED1521E6A43711943
:102C80003046FDF741FB20692A46401E05FB0060E7
:102C90003946FDF739FB0EE005FB0013401C2061AF
:102CA0002A4639461846FDF72FFBE16819B1204640
:102CB000BDE8F0410847A068BDE8F04100F002B867
:102CC000BDE8F08110B58AB0044601F04BFD09A9BA
:102CD00004AACDE9002105AB089006AA07A91BF0BC
:102CE000A0F808A801F0A8FD02A9204610F0E0FB1A
:102CF000BDF8080007990844ADF80800BDF80A00BF
:102D000006990844ADF80A00BDF80C000599401A70
:102D1000ADF80C00BDF80E000499401AADF80E0095
:102D200002A9204610F03EFF0AB010BD70B5024661
:102D3000002300E05B1CD55C002DFBD101240120A9
:102D400003E004EB84056C00401CB1FBF4F50A2D94
:102D5000F7D20025D61835540DE00A25B1FBF5F65B
:102D600005FB16153035D618064406F8015C0A2511
:102D7000B1FBF5F1401E0028EFD170BD10B5024641
:102D80000020002300E0401C145C002CFBD103E079
:102D9000CC5C1454401C5B1CCC5C002CF8D114544B
:102DA00010BD000010B50AA116A000F01BFD012007
:102DB00000F0E0FA012002F0C7FE044618F0D8F94E
:102DC0004FF47A6000F020FF204602F0BDFE10BDF7
:102DD0004F757470757420616E7469616C6961738C
:102DE000656420746578740A6F6E20646966666530
:102DF00072656E74206261636B67726F756E647367
:102E00002E000000416E7469616C69617365642015
:102E100054657874000000002DE9F04100262AA1D5
:102E200033A000F0DFFC0BF0C9FA04460BF0D2FA35
:102E30000546A5F1C400032190FBF1F0314908607B
:102E400031480088401D31490988611AB0EB610F93
:102E500006DB2D484088401D2A490968884200DA6F
:102E600001262BA002F0EDFF28490988611AB0EB7A
:102E7000610F07DB2348006862304100A5F128009C
:102E8000814202DA012026490860264804F01EF932
:102E9000074602F091FF401C1A490968884202DA8D
:102EA000012021490860384604F010F9304616F038
:102EB000CBFE01F0F1F9032001F0DCFA12F0A0FCE6
:102EC00001F0E2F9BDE8F0814578616D706C6573E1
:102ED00020666F72207468650A6175746F6D6F7417
:102EE00069766520696E64757374726965000000A7
:102EF0004175746F6D6F746976652073616D706C68
:102F00006573000054000020A0490508B4AC020815
:102F10006D7365632F706963747572653A0A00009A
:102F200058000020D03B04085C00002010B508A128
:102F300015A000F057FC00F04DFC002000F01AFA3C
:102F400012F094FD4FF47A6000F05EFE10BD0000B8
:102F500053686F77696E670A646966666572656E45
:102F600074206269746D61707320776974680A6196
:102F70006E6420776974686F757420636F6D70720A
:102F8000657373696F6E00004269746D61707300E0
:102F900010B502E00A2002F049F90748006801284C
:102FA000F8D006480068012804D1002003490860D1
:102FB000012010BD0020FCE71C00002020000020A4
:102FC0002DE9F04F99B0502105A8FDF7C4F90BF099
:102FD000F5F982460BF0FEF903908E498EA000F0C1
:102FE00001FC012000F0C6F96FF07F4004F045F8C5
:102FF0008C4804F06BF84FEA6A010C228AA002F0B8
:103000003BFA8C4804F062F82B2201218AA002F0DE
:103010001FFA3F22012189A002F01AFA532201214E
:1030200088A002F015FA6222012188A002F010FAAD
:103030007122012187A002F00BFA8522012187A0CD
:1030400002F006FA9922012186A002F001FA8748CF
:1030500004F03CF80BF002F9049005A80499FFF77E
:1030600065FE83A105A8FFF789FE09200BF012F980
:103070008146B9F1000F0BD07FA105A8FFF77EFEB6
:10308000494605A8FFF752FE7CA105A8FFF776FE8A
:103090000398A0F119020C2105A802F0D9F900F05B
:1030A0007FF90746A6E000F07BF9C01B4FF4FA61F8
:1030B00090FBF1F201FB1206481096FBF0F808EBCA
:1030C0004800C0EBC810A6EBC006B6F5FA7F00DDDD
:1030D00090E0C6EB06204FF4FA7190FBF1F0C8EBDC
:1030E000082180EA010B0BEB0B2000EB0B446FF087
:1030F0007F40051BFF20342352462B21CDE90004DD
:103100003C2002F0A1FBFF203E2352463521CDE9B1
:1031100000053C2002F098FB4FF47F4048235246C4
:103120003F21CDE900043C2002F08EFB4FF47F40AC
:10313000522352464921CDE900053C2002F084FB90
:103140004FF47F005C2352465321CDE900043C201C
:1031500002F07AFB4FF47F00662352465D21CDE9F1
:1031600000053C2002F070FB464870235246672160
:10317000CDE900043C2002F067FB4FF6FF707A2394
:1031800052467121CDE900053C2002F05DFB4FF66F
:10319000FF70842352467B21CDE900043C2002F0DD
:1031A00053FB39488E2352468521CDE900053C204A
:1031B00002F04AFB3448982352468F21CDE900049F
:1031C0003C2002F041FB4FF0FF10A2235246992110
:1031D000CDE900053C2002F037FB4FF0FF10AC2397
:1031E0005246A321CDE900043C2002F02DFB02F061
:1031F000EBFC00BF00F0D4F8C01B41F270718842B4
:1032000004DAFFF7C5FE00283FF44DAF19B0BDE862
:10321000F08F00001C1D0708436F6C6F7220626105
:1032200072000000D03B0408436F6C6F7220626133
:103230007273000040DF06085265640047726565DE
:103240006E000000426C75650000000047726579F1
:103250000000000059656C6C6F7700004379616E67
:10326000000000004D6167656E746100E0BC0608F7
:1032700020627070000000002C20000020636F6C42
:103280006F7273008080800000FFFF0003490160BF
:103290000D2141600521018170470000840000205C
:1032A00010B50CA114A000F09DFA012000F062F806
:1032B00001F0D6FC13F0C0FD4FF47A6000F0A4FCDE
:1032C00001F0B6FD0021084601F06EFD0C4801F04A
:1032D000FBFC10BD5354656D57696E20737570709B
:1032E0006F7274730A736F667477617265206375A9
:1032F00072736F7200000000437572736F7200008A
:103300004CAE06082DE9F04104464FF4047118480C
:10331000006810F069F88046642C01DD20F00AFA9C
:10332000002140460DF05DFA2246002140460DF096
:1033300025FA02F090FD064600BF00F031F8871B29
:10334000642C03DD394640460DF04BFA052001F0B0
:103350006DFFFFF71DFE0546A74201D2002DECD000
:10336000642C01DD1BF0EEF902F02EFCBDE8F081CB
:103370000000002010B5044620460249096888472D
:1033800010BD0000080000200146044800890840E4
:1033900008B1012070470020FCE70000340E002037
:1033A00010B50648006810B10548006810BD02F06D
:1033B00052FD04490968401AF8E700001C0000208B
:1033C000180000201400002010B505A111A000F085
:1033D00009FA00F0FFF91BF017F800F0ABF910BD87
:1033E0004F7074696D697A65642064726177696E83
:1033F0006720726F7574696E650A666F72206472F9
:103400006177696E672067726170682064617461BA
:103410000000000044726177696E67206120677266
:103420006170680010B50548006810F037FB0FF0B8
:10343000C5FF044611F03CF810BD00000400002058
:10344000F0B589B020223A4901A8FCF75DFF0AF0E7
:10345000B5FF05460AF0BEFF04466E100020FFF7D8
:1034600089FF022003F0BCFE6FF07F4003F005FEF1
:10347000304803F02BFE44F3191231462EA001F020
:10348000FBFF2F4803F022FE04EB440000EBC400D6
:10349000821131462BA001F0EFFF384803F0EDFD1B
:1034A000162060438211314635A001F0E5FF404807
:1034B00003F00CFE16206043122101EBA0123146EE
:1034C0003CA001F0D9FF6FF07F4003F0D6FD1C480F
:1034D00003F0FCFD02F0C2FC0746394601A8FCF7E8
:1034E00045FFC4EB44108211314601A801F0C4FF2E
:1034F00026206043821137480088281A4110364838
:1035000002F086F86FF07F4003F0B7FD094803F042
:10351000DDFDC4EBC40040F3D90231462FA001F019
:10352000ABFF41F28830FFF7EDFE09B0F0BD0000BF
:1035300074C00208D03B04085354656D57696E008F
:1035400040DF0608556E6976657273616C2067729C
:10355000617068696320736F6674776172650A666B
:103560006F7220656D626564646564206170706C63
:1035700069636174696F6E7300000000FF88220048
:10358000466F722053544D3332204D4355205072B4
:103590006F6475637473202D20436F727465782097
:1035A0004D33202D20436F72746578204D34000018
:1035B000C8C30608436F6D70696C6564204A756EF8
:1035C00020333020323032302031343A32333A3006
:1035D000300000005C7C0408442305087777772ED0
:1035E00073742E636F6D2F73746D3332000000009F
:1035F00010B506A110A000F0F5F80120FFF7BAFE03
:1036000000F0E8F813F088FA10BD000053686F77F7
:103610007320736F6D6520666561747572657320C4
:103620006F660A746865204C495354564557207795
:1036300069646765740000004C6973747669657726
:103640002064656D6F0000008CB02C492C4803F09D
:10365000ADF80FF0B3FE06462A4910F052FDFDF713
:10366000F3FC002101A8FEF747F900200690002195
:1036700001A8FEF7F9F9012101A8FEF73DF90020A4
:103680000690012101A8FEF7EFF91F48FEF7BAF9ED
:103690001E480DF051F81E48FDF7B6FC1D480DF010
:1036A000EFFB1D480DF0BCFD1C4806F0FBFB0220A3
:1036B00003F096FD1A48FFF7E9FD0AF0CFFD054635
:1036C000102D11DB0420FFF75FFE68B101F02AF82E
:1036D0000446B4F5001F03DD12481349086006E0F4
:1036E00012481149086002E011480F4908600120A2
:1036F00000F046F801E01BF0A9FDFCE724000020E3
:1037000039510208514D0208B3C40108B506010839
:10371000D10D0008C10C0108B91001089D9D0008D9
:10372000340E0020F99C0108080000200D9C0108BF
:10373000359E010810B505480068401C0349086023
:1037400012F02AFE00F0EAF910BD0000100000207F
:1037500010B5FFF767FE064906A000F043F8012008
:1037600010F0DAFA1EF026FE002010F0D5FA10BD97
:103770006C26070852616469616C204D656E7500A6
:1037800008B1012100E00021014A117070470000DA
:103790002800002010B50348006810F071FE02F008
:1037A00013FA10BD0000002070B5044608480068F8
:1037B00010F093FA50B14FF4B071054800680FF063
:1037C00013FE0546214628460DF001FF70BD00009E
:1037D0000400002010B50248006810F051FE10BD32
:1037E000040000202DE9F84F07460C460AF0E6FDDC
:1037F00082460AF0EFFD83464FEA6A0000904FEAE6
:103800006B09FFF70FFEFFF7C5FF02F0DDF901209E
:10381000FFF7B0FD6FF07F4003F02FFC022003F0B4
:10382000DFFC124803F052FC3C223846009901F0BC
:1038300023FE0F4803F04AFC02F0BEFA8046A9EBD3
:10384000080000F10A022046009901F015FE00254B
:1038500000E06D1C605D0028FBD105EB85000601D2
:10386000304600F0D1F9BDE8F88F0000D03B0408E5
:1038700040DF06082DE9F04796B028216846FCF79E
:103880006AFD0AF09BFD05460AF0A4FD04460AF015
:1038900089FD804601F0E4F9A0450DDD0020ADF87A
:1038A0002800ADF82A0028B2ADF82C0020B2ADF8FF
:1038B0002E000AA803F0D5FB5EA16AA0FFF792FFD5
:1038C000002608E06A4951F8260001F045FB0EA9E0
:1038D00041F82600761C082EF4DBFFF761FD074651
:1038E000002667E006F007010EAA52F8210003F057
:1038F000CFFBFCF7F7FC90FBF5F105FB1100A946A7
:1039000005EBD971A0EB610000B2ADF83000FCF717
:10391000E9FC90FBF4F104FB1100A14604EBD97122
:10392000A0EB610000B2ADF83200FCF7DBFC90FBCD
:10393000F5F105FB1101BDF830001430084400B268
:10394000ADF83400FCF7CEFC90FBF4F104FB110160
:10395000BDF832001430084400B2ADF83600BDF9AD
:103960003630BDF93420BDF93210BDF9300002F017
:1039700045F9BDF93400A84203DB681E00B2ADF87A
:103980003400BDF93600A04203DB601E00B2ADF882
:103990003600BDF93000002802DA0020ADF8300012
:1039A000BDF93600002802DA0020ADF8360002F03A
:1039B0000BF9761CFFF7F4FCC01B41F288318842FA
:1039C00003DAFFF7E5FA00288CD0FFF7B3FE1AF010
:1039D0008EFA8246002003F044FB0020FFF7CAFC69
:1039E0006FF07F4003F049FB022003F0F9FB214810
:1039F00003F06CFB052211461F4801F009FE1FA1D0
:103A00006846FFF7BBF951466846FFF78FF902F0A9
:103A1000E1F9201A4FEA600969104A46684601F048
:103A20002BFD4FF47A60FFF76DFC01F001FA16B040
:103A3000BDE8F0874D756C7469206C617965722002
:103A4000636C697070696E670A486967686C792091
:103A50006F7074696D697A656420647269766572E5
:103A60007300000048696768207370656564000032
:103A7000B4490508D03B0408A04905085069786599
:103A80006C732F7365633A200000000010B504A129
:103A90000EA0FFF7A7FEFFF7C5FC20F0C9F810BD88
:103AA0005573657320616C70686120626C656E642B
:103AB000696E670A666F72207472616E73706172EC
:103AC000656E637920656666656374005472616E25
:103AD00073706172656E74206469616C6F67000059
:103AE00010B5094909A0FFF77DFEFFF773FE00201E
:103AF000FFF740FC01F0B4F813F048F801F098F932
:103B0000FFF718FE10BD00004028070854726565D5
:103B1000766965772064656D6F00000010B586B02A
:103B2000142101A8FCF717FC4FF4B071134800688A
:103B30000FF05AFC044612A101A8FFF71FF9124822
:103B40000168491C01A8FFF7F1F810A101A8FFF7CF
:103B500015F90F48016801A8FFF7E8F80DA101A8C1
:103B6000FFF70CF90C484068411E01A8FFF7DEF88A
:103B700001A920460DF02BFD06B010BD000000206D
:103B800044656D6F200000000C0000202E00000036
:103B9000100000202F000000340E002070B50AF045
:103BA00019FC04460AF0FEFB0546B5EB440F00DAAB
:103BB00070BD07A110A0FFF715FE0120FFF7DAFB8B
:103BC00013F068F80021084603F0CCFA00BFEFE7D5
:103BD00044656D6F6E7374726174657320686F777E
:103BE00020746F207573650A7669727475616C2034
:103BF00073637265656E73005653637265656E20FC
:103C000064656D6F0000000010B504462046FFF7A4
:103C100079FBFFF78FFD10BD2DE9F04FDFF828B1DC
:103C200091B04FF0FF35DBF80030B3F92210069168
:103C3000DE69B3F92490F469A189814206D8E2894A
:103C4000824203D3471AD4F8008012E0D4E90181FC
:103C500000296FD00A8882426CD84D88854269D38A
:103C6000801A82B2486800EB8200B0F90070B0F9A7
:103C70000250781C5ED0307EA17C10FB01FA217CC2
:103C8000CDE90801B3F92A6030460BF0CDF8C0B297
:103C90000E90DBF8000007FB0A81A37C826B0127F2
:103CA000CDE90412CDE90273C069DDE90832C17EB5
:103CB000807ECDE900014946069809F043FF681C63
:103CC00018D046F002000BF0AFF8DBF80000A37C40
:103CD00005FB0A81826BCDE90273CDE90412C0694C
:103CE000DDE90832C17E807ECDE9000149460698B3
:103CF00009F028FFDBF800005D46C069417E007EC8
:103D0000814214D9022E12D086F004000BF08CF8F8
:103D10002868C069027EC37E12FB0391437E857EC4
:103D2000099A06984B4402FB05020AF06BFA0E98BA
:103D30000BF07AF8DBF80000627C418C114441847E
:103D400011B0BDE8F08F0000BC07002004480068F7
:103D5000C069C06909B1027C0A60407C70470000FC
:103D6000BC070020022008807047C06982898A420F
:103D700002D8C2898A4210D2806880B102888A4201
:103D80000DD843888B420AD3406800EB8100A0EB3A
:103D90008200B0F90000002801DB012070470020FC
:103DA00070470000F0B52B4D044687B028682146C7
:103DB000B0F92A60C069C06900F0E0F9002847D076
:103DC00041680088201A00EB400001EB8004207855
:103DD000C01C870830460BF027F806461E48D0F86E
:103DE00000C0BCF1000F19D00021A068CDE904018A
:103DF0000222012001A9009085C1286894F90320BE
:103E0000DCF80070B0F92410B0F92200114494F9E4
:103E10000220637810442278B84711E0A068CDE909
:103E20000070286894F903206378B0F92410B0F981
:103E30002200114494F902201044227800F022FB61
:103E400030460AF0F1FF28682279418C1144418400
:103E500007B0F0BDBC070020E8070020F0B52B4DEF
:103E6000044687B028682146B0F92A60C069C06955
:103E700000F084F9002847D041680088201A00EB40
:103E8000400001EB80042078401C470830460AF0CF
:103E9000CBFF06461E48D0F800C0BCF1000F19D079
:103EA0000021A068CDE904010422012001A90090AD
:103EB00085C1286894F90320DCF80070B0F924105B
:103EC000B0F92200114494F902206378104422785A
:103ED000B84711E0A068CDE90070286894F9032084
:103EE0006378B0F92410B0F92200114494F902204B
:103EF0001044227800F0EAFA30460AF095FF28686C
:103F00002279418C1144418407B0F0BDBC070020E8
:103F1000E80700202DE9F0432F4C034687B02068C6
:103F20001946B0F92A80C069C06900F060F900281C
:103F30004ED041680088181A01EBC0054046AE78A3
:103F40000AF072FF814620686A680123816BCDE91F
:103F50000236CDE90421C169CB7E8A7ECDE90023FA
:103F60000B7EB0F924102A78B0F9220009F0EAFD9E
:103F70002068C069477E067EB7421DD9C07E474390
:103F80004643B8F1020F17D001F0FFFE804601F062
:103F9000C5FE03F072F821682A78CB69B1F92200D6
:103FA000DB7E12FB0302B1F92410CB1931440AF075
:103FB00029F9404603F061F848460AF035FF2068C9
:103FC0006A78C369B0F922109B7E12FB0311418409
:103FD00007B0BDE8F0830000BC07002030B5104CEE
:103FE00005460B4620682946C069C06900F0C6F83E
:103FF000002813D0416800882468281A00EB40028A
:104000000420E46900EB8200085CA47E10FB04F04D
:10401000002B03D011F822106143196030BD00005D
:10402000BC07002003460D4810B500680C46194631
:10403000C069C06900F0A2F870B141680088181A20
:1040400000EB400001EB8000D0E9001280682160A5
:10405000C4E90120002010BD012010BDBC070020D4
:1040600001200880704700B5C06900F087F800287B
:1040700000D0012000BD00002DE9F35F0E460025B1
:1040800001F083FEDFF8A8808346D8F8000090F89E
:104090002A00400702D501F078FE01E001F03EFE63
:1040A00002F0EBFFD8F800000024C1694A7EC97E07
:1040B00012FB01FAB0F92290B0F924701FE06846B3
:1040C00003F016FB0546D8F800002946C069C06910
:1040D00000F054F898B141680088281A00EB4000BD
:1040E00001EB800090F9021000790144D8F800003B
:1040F000C069807E11FB00F0002800DD0444761EBC
:10410000DDD51DB1284604F0B9FA044407EB0A03D3
:1041100009EB04025B1E4846521E39460AF072F84B
:10412000584602F0AAFF034901200870BDE8FC9F31
:10413000BC070020280800202DE9F3410D4D0E4F4B
:104140000E462868B0F92A40A0070AD17A6800987C
:10415000904706E0684603F0CBFA2968C969096808
:104160008847761EF6D50020387028684485BDE85B
:10417000FC810000BC0700202808002006E002881F
:104180008A4202D842888A4202D280680028F6D148
:104190007047000030B50F4C05460B462068294695
:1041A000C069C06900F023F8002811D04168008878
:1041B00024682A1A0120E46900EBC200085CA47E8E
:1041C00010FB04F0002B03D011F83210614319608A
:1041D00030BD0000BC07002001200880704700B5FA
:1041E000C06900F004F8002800D0012000BD06E0FE
:1041F00002888A4202D842888A4202D28068002815
:10420000F6D1704770B500240E4D16E028690E49AE
:1042100000EBC410001D78220968FCF775F82869C6
:10422000002100EBC410016000F10C018161011D4F
:104230000A1DC0E90F12641C4164A8688442E5DBD2
:1042400070BD0000480D0020BC07002070B50D496E
:104250000B480860084604F035FB0A4C143CA06883
:10426000C501284600F0EAF92A460021206104F041
:1042700015FC4FF0FF302060BDE8704003F0AEBB8E
:1042800091FD01085C0D002002490020096881F8B9
:1042900071007047BC07002002490120096881F8BD
:1042A00071007047BC07002010B518F013FD0448DA
:1042B000016A04480068C16600F10801416110BD4F
:1042C00064070020BC0700207CB514460D46064656
:1042D00001F04EFE10F02AFA064410F035FA0544BB
:1042E0001648006890F8711021B990F870104E438C
:1042F0004D434C43301B00F05DF8ADF80000301921
:1043000000F058F8ADF80400281B00F053F8ADF8A1
:104310000200281900F04EF8ADF80600684610F0CB
:104320006BFA06E0224629463046FEF7BFF810F049
:10433000DDF90028F6D103F015FB7CBDBC07002099
:104340002DE9FC471C4615468846814601F010FEC3
:1043500010F0ECF9054410F0F7F90444002010F0D7
:104360004BFAF8B1114E124F12213068407C57F8C9
:1043700020000190C068426A01A890475FEA000CE3
:1043800006D02B464246494600940198E04705E096
:1043900023462A464146484618F0B6F810F0A6F9DA
:1043A0000028E1D103F0DEFABDE8FC87BC0700205D
:1043B000D40700200449096891F8701009B190FBF6
:1043C000F1F000B270470000BC0700202DE9F04179
:1043D0001E4C05460E462068002768B909F0DFFF2D
:1043E000E06100F02BF9206068B304F12401184863
:1043F0000860084604F066FA002D00DA0025E1693D
:10440000731B4A1E2046934201DD6E18761EAE4293
:1044100001DA2E4601270F4C2268D16E4B68836368
:1044200001620A490C4B34310B60D16602C862C08C
:1044300011F09EFFFCF78AFE044821682C30486189
:104440003846BDE8F0810127D6E700006407002068
:1044500055FC0108BC070020A5AA0108044A1268FF
:1044600092F8702090FBF2F091FBF2F1FFF7AEBFF3
:10447000BC0700200249096881F87000FCF766BE9D
:10448000BC070020FEB50E4EDDE908543668367CC8
:1044900016F003060CD0012E03D0022E0DD0032EF1
:1044A00005D1084ECDE90054029615F0CBFDFEBDB6
:1044B000CDE9005415F074FDFEBD034EF2E7000097
:1044C000BC070020E9EE000861EE0008FEB50E4EC4
:1044D000DDE908543668367C16F003060CD0012E50
:1044E00003D0022E0DD0032E05D1084ECDE9005485
:1044F000029615F055FEFEBDCDE9005415F000FE04
:10450000FEBD034EF2E70000BC070020E9EE000804
:1045100061EE0008F8B50C0005460FD001F028FD4B
:10452000204600F017F8060010D000F01BF92246D4
:1045300000902DB12946FBF7E7FE04E00020F8BD0E
:10454000002104F0ABFA684600F076F903F00AFAAD
:104550003046F8BD10B5040009D001F009FD204631
:1045600011F0F0F8044603F0FDF9204610BD0020DC
:1045700010BD38B5054601F0FBFC2846FFF7EAFF01
:10458000040009D000F0EEF82A460021009004F063
:1045900085FA684600F050F903F0E4F9204638BD8A
:1045A000024A106021F00300506070473CF0012087
:1045B00010B5040016D001F0DBFC0B48006B10F8BE
:1045C000341059B1022909D2042101EBC401415828
:1045D000486810F057FF20461DF0DAFEBDE8104095
:1045E00003F0C0B910BD000080EF0120002805D005
:1045F000034A916B016001B148609063704700000D
:1046000080EF012010B5044601F0B2FC2068FFF7EE
:10461000CFFF00202060BDE8104003F0A3B90000E8
:1046200070B50D460646002405E000BF06EB840089
:10463000FFF7E8FF641CAC42F8DB70BD2DE9F041E8
:1046400004461AF06FFA2648E41C24F00305C16BF7
:104650002D1DA94200D90D46846B13E054F8042C9B
:10466000AA420ED184B1216809B162684A606168CA
:1046700009B122680A60826BA2422ED1216881634F
:104680002BE02468002CE9D18046416B80680F182C
:1046900057F8040C3E1A306838B100201EF01CF8A0
:1046A00057F8040C3E1A3068B8B97068A84214DB99
:1046B0003044441B30461DF0C7FFD8F80810491B92
:1046C000C8F80810D8F810102944C8F810107068FD
:1046D0003146401B10F0D6FE20C42046BDE8F081D4
:1046E00080EF012010B500241AF01CFA0C490F20AD
:1046F00001EBC002126C1AB101EBC000006C08E0C3
:10470000401EF5D508E04168A14200D90C468068FA
:1047100010B180680028F6D1A4F10C0010BD000093
:1047200080EF0120034800680C38002800DC0020DE
:104730007047000080EF0120002138B104490422B5
:1047400002EBC000096B085841680C3908467047F5
:1047500080EF012002484169491C41617047000017
:1047600080EF012005498A69521C8A61096B01EBBF
:10477000C0010A78521C0A7000F076B880EF012060
:104780007CB506460C460846FFF7E4FE050020D03F
:10479000FEB13046FFF7D0FFA04200DA044601F038
:1047A000E7FB2846FFF7DEFF00903046FFF7DAFF11
:1047B0000146019022460098FBF7A6FD684600F0EE
:1047C0003BF801A800F038F83046FFF7F1FE03F09F
:1047D000C9F828467CBD000010B501F0C9FBFFF701
:1047E00081FF64220849B0F5800F04D990FBF2F4F0
:1047F000C869444303E0C9694143B1FBF2F403F0E3
:10480000B1F8204610BD000080EF012005491028B6
:1048100005D94A68B0EB520F02D3500800E01020CF
:10482000886070473CF0012002484169491E41619F
:104830007047000080EF01200A4902680B6B52F8B4
:10484000082C03EBC2021378022B03D38B690BB144
:104850005B1E8B611178491E1170002101600846B2
:104860007047000080EF0120002806D00349042291
:1048700002EBC000096B08580830704780EF012038
:104880002DE9FC414FF000060B465FEA0008344674
:104890002BD032B111461846FFF73CFE060000D17E
:1048A00001244046FFF75EFF009007884568684690
:1048B000FFF7C2FFCCB9B900091D2846FFF760FF1A
:1048C000050015D0FFF74EFF019040F8276001A8C2
:1048D000FFF7B2FF4046FFF745FF009045600188B3
:1048E000491C01806846FFF7A7FF2046BDE8FC8110
:1048F0003046FFF75DFE0124F7E70820FFF739BED9
:104900007CB5050023D0FFF72DFF00904068C0B1B3
:10491000FFF728FF0024019005E0019800EB8400D8
:10492000FFF770FE641C00980088A042F5DC01A827
:10493000FFF782FF0098001DFFF764FE009900203A
:1049400008806846FFF778FF2846FFF731FE7CBDF8
:104950007CB50C46FFF706FF00900188A14220D9E4
:104960004568F5B101F004FB2846FFF7FBFE019016
:1049700000EB8400FFF746FE00990888401E80B2D5
:104980000880401E019905E001EB8402526841F85D
:104990002420641C8442F7DD01A8FFF74DFF02F0DC
:1049A000E1FF6846FFF748FF7CBD38B5002430B111
:1049B000FFF7D8FE009004886846FFF73DFF2046C9
:1049C00038BD38B50D46002448B1FFF7CBFE294667
:1049D000009000F0B4F804466846FFF72DFF20462B
:1049E00038BD38B50D46002448B1FFF7BBFE294657
:1049F000009000F0B6F804466846FFF71DFF204619
:104A000038BD2DE9FE430C465FEA00083DD0FFF7B4
:104A1000A9FE0090068847686846FFF70DFFB4427C
:104A200033D2B000001DFFF7A4FD05002DD0FFF725
:104A300099FE01903846FFF795FE01460290A200CC
:104A40000198FBF761FC301B8200029800EB8401A7
:104A5000019800EB8400001DFBF756FC01A8FFF74E
:104A6000EBFE02A8FFF7E8FE3846FFF7A1FD40463F
:104A7000FFF778FE009045600188491C0180684678
:104A8000FFF7DAFE0120BDE8FE830020FBE72DE9F9
:104A9000F04115460E4607460024FFF7B2FF30B13D
:104AA0002B4600223146384600F004F804462046E2
:104AB000BDE8F0812DE9FE43984691460D4600245D
:104AC000D0B3FFF74FFE01900788466801A8FFF7B3
:104AD000B3FEBD4230D27EB33046FFF743FE0090B6
:104AE00050F825406846FFF7A7FE24B12046FFF79F
:104AF00023FE404511D04046FFF73BFD04000CD09B
:104B00003046FFF72FFE00EB850500902846FFF7A3
:104B100079FD68462C60FFF78FFEB9F1000F0BD0CE
:104B200054B12046FFF71EFE424649460290FBF76D
:104B3000EBFB02A8FFF780FE2046BDE8FE8338B5F8
:104B40000D4601880024A94209D9406838B1FFF711
:104B500009FE009050F825406846FFF76DFE20469C
:104B600038BD10B50024FFF7EAFF10B1FFF7FAFDDA
:104B70000446204610BD70B50C46054601F03CFACF
:104B8000C1B223462846BDE870400022AFF3008042
:104B9000F0B52D271C68B0F1004F08D00025002883
:104BA0000DDA661C1E6027704042012408E0661C76
:104BB00001251E606FF000402770491E01E00024AF
:104BC000091BC9B22AB3491EC9B222E00C46491ECC
:104BD000C9B2944205D1124C27781C68661C1E602D
:104BE0002770104C54F8216090FBF6F4E4B20A2CC4
:104BF00011D804FB160011B90DB1641CE4B20A2CE3
:104C000002D10124491CC9B21E683034771C1F60D0
:104C100034700029DAD1196800200870F0BD000056
:104C2000B0070020E405070810B5002807DD0A6872
:104C30002B24531C0B601470096800220A7010BDED
:104C400010B5044601F094F9044904EB840001EB2B
:104C50008000447902F086FE204610BDC0F001209D
:104C600002480068407C00F003B80000BC07002048
:104C700070B5054601F07CF9124805EB850100EBA3
:104C8000810400266671236953B150F82100E2685F
:104C900081684068521AA168091A184602F0DDF8C6
:104CA000284601F07FF818B1002102F03FFA04E035
:104CB000207918B1206902F07EF82671BDE87040B5
:104CC00002F050BEC0F0012002490968497C00F0A2
:104CD00003B80000BC0700202DE9FC5F89460446AC
:104CE00001F046F9484601F05DF82C4E09EB8907C2
:104CF000824656F82700019029484FF001080168C4
:104D000041B92749C0F80080091D264808600846B7
:104D100003F0D8FD214A09EB89015FEA0A0002EBA2
:104D200081051BD002F03EF983464FF07F4002F030
:104D30008DF900F0C5F800221146206800F068FCEB
:104D4000206842880188504602F0E0F946F8274082
:104D500085F80580584602F025F917E046F8274007
:104D600085F805802869464618B101F0FFFF00204C
:104D7000286174B10096E868A1684B46421AA86899
:104D80006168411A206802F09DF8286148461EF0CB
:104D9000B1FB02F0E7FD0198BDE8FC9FC0F00120E7
:104DA000F0070020C9FC0108024A1268527C00F09A
:104DB00003B80000BC07002070B514460D46064637
:104DC00001F0D6F8204600F0EDFF0300174804EB91
:104DD000840109D050F8210041688068711A2A1AAC
:104DE000184602F083F91CE000EB8104A268B2428D
:104DF00001D0012200E00022E368AB4201D0012390
:104E000000E000231A430CD0236943B150F821007D
:104E1000816840686A1A311A184602F01EF8C4E91F
:104E20000265BDE8704002F09DBD0000C0F00120A9
:104E300002480068407C00F003B80000BC07002076
:104E400010B5044601F094F80A4804EB840100EB25
:104E5000810301225A7150F8210030B120461EF022
:104E600049FBBDE8104002F07DBD21460248FFF736
:104E700033FFF6E7C0F001204CAE060810B5C2B211
:104E8000CBB2D21A02D5C2F1000212B293B2C0F371
:104E90000722C1F3072403FB03F3121B01D552427F
:104EA00012B2000C92B2A0EB114002FB023200B22F
:104EB000002801DA404200B280B200FB002010BDA1
:104EC00010B50021084601F00BF840F6FF72504281
:104ED000BDE8104013460146AFF300802DE9FC41C8
:104EE0001C4615460E46074601F042F8042009F01C
:104EF0009BFF80461248C068C16C006D0F44064499
:104F00000D440444ADF80070ADF80450ADF80260F3
:104F1000ADF8064068460FF06FFC07E023462A46CE
:104F20003146384609F06EF90FF0E0FB0028F5D164
:104F3000404609F079FF02F015FDBDE8FC81000054
:104F4000B0070020B0F90630B0F90420B0F9021023
:104F5000B0F90000FFF7C2BF10B5044601F008F831
:104F6000204605F0D7F9044602F0FCFC204610BDAF
:104F70002DE9F8431C00DDE9089816460F46054662
:104F800002D10EF01BFA044600962E6843464A46AC
:104F900021462846B047060039D00EF004FA814673
:104FA000698A30460DF06FFD30460FF069FA4846C9
:104FB0000FF066FA4FF000080CE000BFCDF800805B
:104FC00055F81CCF00231A4649462846E04700B34F
:104FD0000FF056FA7F1E002FF0DC1D2148460FF01F
:104FE00070F8601C12D000F0C3FF0EF02BFA30B145
:104FF000FFF73AFC8469B44201D02000F8D1B442F2
:1050000002D030460FF06EF902F0ACFC3046BDE83D
:10501000F88330460EF0BEF80020F8E72DE9F041A5
:105020001C4616460D460746022B02DB0020BDE853
:10503000F0811C20FFF702FB0028F8D00DB10561BC
:105040000AE0094A52F8241009B905E011460A6835
:10505000002AFBD109690161846186820021016017
:105060004160C0E90217E2E7D407002070B51D4691
:10507000FFF7D4FF040001D000F00EF8E0680068EC
:1050800020B90348006800EB85008465204670BDA8
:10509000BC070020FFF7AABA70B590B38269022A54
:1050A00030DA1C4C54F8221019B944F822002FE0D1
:1050B00019464B68002BFBD106E0CB68C5681B681E
:1050C0002D68AB4203DD09680029F6D11AE0C1B1B1
:1050D000CB68C6681B683668B3420CD1838A012B43
:1050E00005D008E01946DB681B68AB4203DB0B68A0
:1050F000002BF7D129B14B6833B118604A68426080
:1051000004E0FFE7012070BD44F822004860016020
:10511000002070BDD407002010B503E00468FFF73D
:10512000BBFF20460028F9D110BD1EF005BF0000CE
:105130002DE9F0410026DFF834800D4F354600BFE1
:1051400058F8254009E0E0680068385C20B1204646
:105150001EF0F2FE266026462468002CF3D16D1C5A
:10516000022DEDDB3046BDE8F0810000D4070020C1
:1051700078AF0608022801DB00207047054A52F884
:10518000200004E0C26812688A42F6D00068002855
:10519000F8D17047D4070020022801DB00207047B7
:1051A000054951F8200004E0C16809680029F6D0DB
:1051B00000680028F8D17047D40700202DE9F84393
:1051C0001D461646884604000CD0FFF7CBFA009027
:1051D000006807686846FFF72FFB2B4632464146BA
:1051E0002046B847BDE8F88338B504004FF000000A
:1051F0000AD02046FFF7B6FA009000684568684676
:10520000FFF71AFB2046A84738BD38B504004FF019
:1052100000000AD02046FFF7A5FA009000688568D4
:105220006846FFF709FB2046A84738BD2DE9F04145
:10523000044602F0CEFB06191EE000BF00F0C4FCDD
:10524000052F00DD052700F093FE11480568FFF7E4
:1052500081FA2C0017D000BF02F084FB641EFBD142
:10526000384602F0ABFB1DB100F082FE6D1EFBD193
:10527000FFF7DAFA02F076FB02F0ABFB371A002FE9
:10528000DCDCBDE8F081384602F098FBF0E7000076
:10529000540D002070B514460D46064600F068FE19
:1052A0000548016830464D848C84FBF709FFBDE852
:1052B000704002F057BB0000BC0700207FB51E46BF
:1052C00014460D46CDF80CD003AB00223146FFF753
:1052D0005FFC22462946684600F0BAF87FBD1FB53C
:1052E00003ABCDF80CD0FFF753FC684600F02CF868
:1052F0001FBD002111F014BE10B500F039FE00F002
:105300005BFD054909688A8C10448884088C4884B0
:10531000BDE8104002F026BBBC0700207FB50C465C
:105320001546CDF80CD003A9FFF77EFC002801DD5F
:10533000641EE4B203AB2A462146FFF729FC684607
:1053400000F002F87FBD00002DE9FC4706005FD0A9
:1053500000F00EFE00F030FD3C4C81462068B0F9B4
:10536000228000F085FD216807468A8CD01B888446
:1053700041E000BF47F6FF71304603F047F982462F
:105380000146304603F018F92168054691F82C00D3
:1053900000F00300012841D002283BD000204A8CB5
:1053A000101A4884ADF800006A1E1044ADF80400DD
:1053B000888CADF80200A9F101010844ADF806009F
:1053C0006A465146304602F041FD2168BDF80200B0
:1053D00088845146304602F0A1F9064430780A2804
:1053E0001ED00D281CD0BDF8000021682844488438
:1053F000307818B1761C30780028BBD12068818CB9
:1054000039448184818D21F00301818502F0AAFA5B
:10541000BDE8FC8705EBD5704010C0E72846BEE725
:10542000206890F82C1001F0030101290BD002290B
:1054300009D0018C418431780A29D9D1828C02EBC0
:1054400009018184D4E7A0F82280F4E7BC0700209A
:1054500070B514460D46064600F08AFD0548006802
:10546000458484843046FFF76FFFBDE8704002F04A
:1054700079BA0000BC0700202DE9F04107460A4830
:1054800015460E460068B0F92C0040F0020001F00D
:1054900097FE04462A4631463846FFF7D9FF204694
:1054A000BDE8F04101F08CBEBC07002047F6FF7359
:1054B000AFF300802DE9FC411F4690460D460600E3
:1054C0004FF000041AD000F053FD65B128460EF0ED
:1054D000B5FF040007D002462946684603F003F9E9
:1054E00068460EF0ABFF3B4642462946304602F086
:1054F00005FD20460EF0A2FF02F034FABDE8FC8163
:105500002DE9FF4F85B090468A4607007DD000F018
:105510002FFDDAF80040DAF8046021B230B2401A08
:10552000401C029000F048FC054618F00C0F1ED0FD
:105530003846089A029902F01FFA08F00C01042973
:1055400004D0082902D00C2911D104E0311400FB49
:105550001510401C09E02114C1EB264200FB152068
:10556000401C00EBD07001EB600060F31F4450461C
:1055700001F077FDA5F1010B04903846089A0299D5
:1055800003F05AFA03904FEA244909EB0B0060F349
:105590001F46CDE900463846039903F00DF818F090
:1055A00003010ED001292AD002290ED1BAF9042014
:1055B000BAF90010521A101A00EBD07001EB60001B
:1055C00001E0BAF80000ADF800006A4638460399D9
:1055D00002F03CFC3846089A029903F023FA07448B
:1055E00009EB050060F31F4438780028C5D1049802
:1055F00001F037FD09B0BDE8F04F02F0B3B9BAF8D9
:105600000410081A401CDEE7FFE709B0BDE8F08F80
:105610007CB514460D46064600F0AAFC1148006809
:10562000C16C006D0D4404443188681E0844ADF817
:105630000400ADF800507188601E0844ADF8060003
:10564000ADF8024068460FF0D7F806E0224629463A
:105650003046FCF7C9FC0FF049F80028F6D102F0FB
:1056600081F97CBDBC0700202DE9FF4F89B0984629
:105670000446DDF8589000F07BFC314F314BE66872
:1056800038681B68B4F800B0427CB4F802A0214628
:1056900030469847050005D1E088012800D001E098
:1056A0003868856B1EB1307908B1022000E0002017
:1056B00001F000FD069038680A99C26C5718016D18
:1056C0000B98ADF81C700E18781E0BFB0800ADF897
:1056D0002000701E0AFB0900ADF82200ADF81E6024
:1056E00007A80FF089F820E0206968B1D4E9023CEE
:1056F000CDE9003CCDE90289D0F800C0638822885A
:1057000031463846E0470EE0A188E288A068CDE93E
:105710000221CDE9040553465A4631463846CDE9C3
:10572000008908F00FFA0EF0E1FF0028DCD106989E
:1057300001F0C0FC0DB0BDE8F04F02F013B900005D
:10574000BC070020B40700207CB514460D46064671
:1057500000F00EFC10480068C16C006D0E4405445A
:10576000301BADF800003019ADF80400281BADF86F
:1057700002002819ADF8060068460FF03DF806E073
:10578000224629463046FCF77DFC0EF0AFFF00288C
:10579000F6D102F0E7F87CBDBC0700201CB50A4634
:1057A0000146684603F080F800F0E2FB2548BDF8AA
:1057B0000010006830F84C2F1144ADF80010BDF80F
:1057C000021082881144ADF80210BDF8041002885E
:1057D0001144ADF80410BDF8061080880844ADF8F7
:1057E000060068460FF008F827E000BFBDF900404A
:1057F0000BE000BFBDF90210204608F02BFBBDF9FD
:105800000610204608F026FBA41CBDF90400A042A7
:10581000F0DABDF902400AE0BDF90000214608F0C7
:1058200019FBBDF90400214608F014FBA41CBDF9C6
:105830000600A042F0DA0EF059FF0028D6D102F09F
:1058400091F81CBDBC0700202DE9F04F87B09B46A6
:10585000DDE9109892460C46054600F089FB164893
:105860000168C86C096D47190E1900EB0A0501EBB8
:105870000B04ADF81070ADF81450ADF81260ADF82F
:10588000164004A80EF0B8FF88B1DFF830B04FF032
:10589000000ACDE90098CDE902BA2B4622463946E6
:1058A000304614F055FE0EF021FF0028F1D102F031
:1058B00059F807B0BDE8F08FBC070020E1DE000812
:1058C0002DE9F04F87B09B46DDE9109892460C46D3
:1058D000054600F04DFB16480168C86C096D471974
:1058E0000E1900EB0A0501EB0B04ADF81070ADF8D2
:1058F0001450ADF81260ADF8164004A80EF07CFF0D
:1059000088B1DFF830B04FF0010ACDE90098CDE959
:1059100002BA23462A463146384614F019FE0EF0E4
:10592000E5FE0028F1D102F01DF807B0BDE8F08FC8
:10593000BC0700204DDD00082DE9FE4F9846DDE94B
:105940000D6514468A4683460C9F00F011FB0E48F5
:105950000068C16C01EB0409016D002001EB080433
:105960000EF04AFF0AE00097CDE9016523464A465A
:105970005146584614F0AAFE0EF0B8FE0028F2D1A7
:10598000BDE8FE4F01F0EEBFBC0700202DE9FC4151
:1059900014460D46064600F0EBFA114F3968C86C04
:1059A000096D054404440E44ADF80050ADF80440C0
:1059B000ADF80260ADF8066068460EF01DFF08E025
:1059C000386822463146C06E0368284698470EF074
:1059D0008DFE0028F4D101F0C5FFBDE8FC81000078
:1059E000BC0700202DE9F0411C4615460E4607462F
:1059F00000F0BEFA0C480168C86C096D0744054404
:105A00000E440C4400200EF0F7FE07E023462A4621
:105A100031463846FCF768FB0EF068FE0028F5D1E9
:105A2000BDE8F04101F09EBFBC0700207CB50C46EC
:105A3000064600F09DFA0F4D2868C16C006D0E44BB
:105A40000444ADF80460ADF80060ADF80640ADF870
:105A5000024068460EF0D0FE07E028682146C06E7E
:105A60004268304690470EF041FE0028F5D101F023
:105A700079FF7CBDBC0700202DE9FC411C46164681
:105A80000D46074600F074FA1A480168087ECA6C91
:105A9000096D401E17440D440C44391A1644ADF8E4
:105AA00000103118ADF80410291A2044ADF8060092
:105AB000ADF8021068460EF09FFE15E0324629460A
:105AC000384608F043F932462146384608F03EF998
:105AD000621E691C384608F003FA621E691C3046D3
:105AE00008F0FEF90EF002FE0028E7D101F03AFFBF
:105AF000BDE8FC81BC0700207CB514460D46064677
:105B000000F036FA0F480068C16C006D0E44054481
:105B10000444ADF80060ADF80460ADF80250ADF893
:105B2000064068460EF068FE06E0224629463046EA
:105B300008F0D6F90EF0DAFD0028F6D101F012FFD8
:105B40007CBD0000BC07002070B51B4C0546606999
:105B5000E0B904F1240119480860084602F0B2FED9
:105B6000012001F037FA002001F034FA1449002333
:105B70001A4601F11800FFF751FA606108F00FFCB6
:105B8000C01DC008E061FEF759FD20610D4955B107
:105B9000606808B1012070BD0A686260084A002090
:105BA0004C320A6070BD626822B101200A60002197
:105BB000616070BD002070BDFC070020E1FC0108A1
:105BC0008CAF06088C0D002010B5002400E00124E5
:105BD00000F004F80028FAD1204610BD064810B5A0
:105BE0000068002410B1804700B101240DF05EFB75
:105BF00000B10124204610BDDC0700202DE9FC4146
:105C00001C4615460E46074600F0B2F910480068DB
:105C1000C16C006D0F4406440D440444ADF800709F
:105C2000ADF80450ADF80260ADF8064068460EF0DD
:105C3000E3FD07E023462A463146384608F0E2FAFB
:105C40000EF054FD0028F5D101F08CFEBDE8FC817A
:105C5000BC070020B0F90630B0F90420B0F90210FA
:105C6000B0F90000FFF7CABF08B50B46002805D001
:105C7000009281888268C08800F001F808BD10B5E4
:105C80000828029C30D008DC04FB01F401280AD06B
:105C9000022813D0042804D11CE0102828D0202882
:105CA0002CD0002010BD04EBD30003F00701105CE2
:105CB000C1F10701C84000F0010010BD04EB9300E2
:105CC0000621105C01EA4301C1F10601C84000F061
:105CD000030010BD04EB5300D907105C02D000F0A4
:105CE0000F0010BD000910BD04FB0130105C10BD99
:105CF000481004FB003032F8100010BD881004FB7F
:105D0000003052F8200010BD034951F82000C1684E
:105D10008A6A082110470000D407002010B500F05F
:105D200027F908F0A7FA08F089FB044601F01AFEEB
:105D3000204610BD10B5044600F01AF905480021B0
:105D40000068C069426820469047044601F00AFE98
:105D5000204610BDBC07002070B50C46054600F07B
:105D600007F9064821460068C069426828469047FE
:105D7000044601F0F7FD204670BD0000BC0700207E
:105D8000002801D00DF0ECBA704710B500F0F0F823
:105D900008F078FA08F052FB044601F0E3FD2046D3
:105DA00010BD00000021022802D2024951F8201043
:105DB00008467047400D002010B500F0D9F804489F
:105DC0000068C069447E01F0CDFD204610BD000092
:105DD000BC07002010B500F0CBF802F0E3FB04464E
:105DE00001F0C0FD204610BD70B514460D460646B4
:105DF00000F0BEF822462946304608F0B7FA10B146
:105E0000002028602060BDE8704001F0ABBD0000BC
:105E100010B500F0ADF803480068847E01F0A2FDE3
:105E2000204610BDBC07002070B50C46054600F0AA
:105E30009FF82146284602F013FCBDE8704001F0AF
:105E400091BD10B5044602F0FDFB01462046BDE8B9
:105E5000104002F0B1BB01F0BCBD00000348352189
:105E6000017032218170C17070470000300800203D
:105E700010B5002400F07CF80B48006890F82C1056
:105E800001F00C01042904D0082906D00C2907D1FF
:105E900003E0C069047E641E02E0C069007E44081D
:105EA00001F060FD204610BDBC070020417EC07E91
:105EB00011FB00F07047017EC07E11FB00F07047BF
:105EC000024951F82000006900687047D40700209B
:105ED000024951F82000006940687047D40700204B
:105EE00070B50D46044600F043F8204618F07CFAE1
:105EF0000446284618F080FA044301F033FD20469A
:105F000070BD0000144810B5016821F00101016066
:105F100012480121816012490160006811498842DC
:105F200000D0FEE701F072FF0F492E20087001F04B
:105F300054FD0E4818F06CFDFEF788F91FF077FC51
:105F400004460021084601F00DF90DF0C1FDFEF7F1
:105F500059F9204610BD0000002000E0003002404A
:105F6000C2A507F4CDB5E8B5B007002048F0012080
:105F700070B51F4CE06820B101F027FD61688842D0
:105F800004D001F06BFD01F020FD6060E068401C72
:105F9000E060012825D100250AE000BF01F015FDD1
:105FA000216901EBC5110968814205D0D1B16D1C91
:105FB000A0688542F2DB00252068854211D00028C8
:105FC0000EDBFFF7B5F82268216901EBC212D0673A
:105FD000084A01EBC510011D1160C06FFFF79CF866
:105FE000256070BD216901EBC5110860E4E7000080
:105FF000480D0020BC07002010B5011E01DD02463F
:1060000000E04A42064B012053F82040944202D857
:10601000401C0A28F8DB002900DA401C10BD0000F3
:10602000E405070838B5040011D0FFF7A1FF2046AA
:10603000FEF798FB40F6FF7100908180C1804942D5
:10604000018141816846FEF7F7FB01F08BFC38BD0A
:1060500038B5154800220068437C144850F82300E6
:1060600001691348FEF7DAFF040015D01820FEF787
:1060700080FA050012D0FFF77BFF2846A560FEF7E7
:1060800071FB009004602846FFF7CCFF6846FEF7DE
:10609000D3FB01F067FC04E0002038BD2046FEF78A
:1060A000F9FF284638BD0000BC070020D4070020B7
:1060B000B819070838B504460E480068006EA042BB
:1060C00001D100F061FFFFF753FF2046FEF74AFBC6
:1060D000009005686846FEF7AFFB2046FEF768FAB9
:1060E0002846FFF722F82846FEF7D4FF01F03AFCD5
:1060F00038BD0000BC07002038B50C46050013D0A1
:10610000FFF736FF74B12846FEF72CFB009081881C
:106110002180C18861800189A1804089E080684632
:10612000FEF78AFB01F01EFC38BD000038B5040004
:1061300018D00CF0E7FF0D4D28680466FFF718FF34
:106140002046FEF70FFB00900068FEF7A5FF2968C8
:10615000002048616846FEF76FFB01F003FC08F081
:106160006FFD38BD00F010FF38BD0000BC070020F7
:106170001CB5040004D10E480068046E002C16D033
:10618000FFF7F6FE2046FEF7EDFA009044696846F8
:10619000FEF752FB4CB12046FEF7E4FA019081680D
:1061A0008968884701A8FEF747FB01F0DBFB1CBDAF
:1061B000BC07002001490A4600F002B801F0FFFFC9
:1061C0002DE9F04387B015460C465FEA000846D03B
:1061D000FFF7CEFE002000F06DFF814621480068E9
:1061E000066E4046FEF7BEFA00900068806900F037
:1061F000D9FE074640F6FF70001904D10098B0F9A7
:106200000440B0F906500098611E0289ADF80440C0
:106210001144ADF808104189681E0844ADF80650D5
:10622000ADF80A000CF018FE6846FEF705FB01A861
:106230000EF0E2FA06E02A462146404600F048FC0D
:106240000EF054FA0028F6D1384600F0ABFE304686
:1062500000F07EFA484600F02DFF01F083FB07B006
:10626000BDE8F083BC0700200121017400207047C5
:106270002DE9FE4F984691468A46834600270C9E9C
:10628000FFF776FE174818490068407C51F8204017
:10629000E1680968042903D02468002CF8D100E0E3
:1062A00014B9FEF779FF04460121E068C26A20466E
:1062B0009047050011D02469A0688047401C02D196
:1062C0000A4C46F001060096CDE9015443464A4681
:1062D0005146584600F0DCFA074601F043FB3846C9
:1062E000BDE8FE8FBC070020D407002070B0060870
:1062F0002DE9FE4F9846DDE90D650C9F91468A46D3
:10630000834600246DB1FFF733FE0097CDE90165A8
:1063100043464A465146584600F0BAFA044601F050
:1063200021FB2046BDE8FE8F38B504001CD0FFF7E6
:106330001FFE0E480068006EA04201D100F024FE4E
:106340002046FEF70FFA0090406908B101F0F3FA19
:1063500000980068FEF79EFE6846FEF76DFA20463C
:10636000FEF726F901F0FEFA38BD0000BC07002058
:10637000704700002DE9FF4F83B0454CDDF840B079
:1063800098468A4607002BD002A901A8FFF74CFDCA
:10639000B7F90060002E00DA0026B7F90250002D90
:1063A00000DA00252068A146407C07F0F5FF01993E
:1063B0000144491EB7F9040019F086F90446D9F8DA
:1063C0000000407C07F0F6FF02990144491EB7F92E
:1063D000060019F079F9A71B7F1C441B641C0BE015
:1063E000206800263546407C07F0D6FF0746206827
:1063F000407C07F0DFFF0446B8F1000F01D1C4F183
:106400000008002F01DD002C03DC002007B0BDE8F0
:10641000F08F43463A4629463046CDF800B0FFF7A4
:1064200027FF5FEA000909D000F052F9804648468C
:1064300000F08EF90027DFF85CB01FE051460598A8
:1064400088470120E2E7E11B414502DA484600F0B7
:1064500063F93FB1EA193146484600F0ADF94846C4
:10646000FFF786FE514605988847DBF8001009B112
:10647000002088474846FFF79DFE4744A742E2DBDD
:106480004846FFF751FF002000F062F9BDE7000029
:10649000BC070020A40D00202DE9FF4F83B0164655
:1064A0000D460446FFF7D4FD5FEA000945D0FFF72B
:1064B0003DFE01276F70217C04F1080891B12F7017
:1064C0000698B04721464846FFF716FE4846FFF7B4
:1064D000A9FD002028700698B04741464846FFF7BE
:1064E0000BFE1AE00698B04721464846FFF704FE27
:1064F00020880190A08800902146B4F802B0B4F83A
:1065000006A04246084600F001FB01982081009851
:10651000A081A4F80AB0A4F80EA04846FFF7CAFD6F
:106520004FF0000885F801802F70434600973146F0
:106530002046069AFFF71EFF18B1012007B0BDE8FC
:10654000F08F85F8008084F810800020F6E70000C6
:106550002DE9F04F85B09946DDE90F460E9F924632
:106560000D468346002C35D0FFF702FD1B48002E58
:106570000068C16C01EB0508016D0FFA88F001EBB2
:106580000A05ADF80C0001DA314600E00021621E78
:106590002944104409B2ADF81000ADF80E10484679
:1065A000B94500DC3846401E0844ADF8120003A887
:1065B0000EF022F90AE00097CDE901464B462A4643
:1065C0004146584614F0CCFB0EF090F80028F2D16A
:1065D00001F0C8F905B0BDE8F08F0000BC0700204D
:1065E00038B505004FF0000411D0FFF7C1FC284674
:1065F000FEF7B8F80090006800698068804708F0EE
:10660000B5FE04466846FEF717F901F0ABF92046DF
:1066100038BD38B50446FFF7ABFC2046FEF7A2F8BC
:1066200000F1180400906846FEF706F901F09AF9A7
:10663000204638BD38B504460025FFF799FC1CB943
:1066400008480068046E44B12046FEF78BF80090BD
:10665000B0F904506846FEF7EFF801F083F92846D8
:1066600038BD0000BC07002038B504460025FFF700
:106670007FFC1CB908480068046E44B12046FEF750
:1066800071F80090B0F908506846FEF7D5F801F0AF
:1066900069F9284638BD0000BC07002038B504461B
:1066A0000025FFF765FC1CB908480068046E44B17A
:1066B0002046FEF757F80090B0F906506846FEF7FE
:1066C000BBF801F04FF9284638BD0000BC07002098
:1066D00038B504460025FFF74BFC1CB90848006894
:1066E000046E44B12046FEF73DF80090B0F90A5020
:1066F0006846FEF7A1F801F035F9284638BD0000DC
:10670000BC07002010B510F043F9002803D0BDE805
:10671000104000F083B810BD38B50C46050004D118
:106720000A480068056E002D0FD0FFF721FC2846AF
:10673000FEF718F80090B0F90A10A14200DD44817C
:106740006846FEF779F801F00DF938BDBC07002066
:10675000F8B50546FFF70CFC134E3068046E65B1C2
:106760000CB100F011FC0CF0CDFC2846FDF7FAFF4F
:10677000009031680A6E1AB106E000F005FC0EE0E8
:10678000D1E90223C1E919230D660068FEF784FCF4
:106790006846FEF751F808F071FC08F051FA01F074
:1067A000E1F82046F8BD0000BC070020014AC2E91C
:1067B00000017047B80800207CB515460E4604005D
:1067C00004D115480068046E002C24D0FFF7D0FBDC
:1067D0002046FDF7C7FF2DB20090C58034B28480FB
:1067E00008F02EFA0098406980B1FDF7BBFF009ACF
:1067F0000190B2F908108180B2F90A20C28011B16B
:106800000AB10480458001A8FEF716F86846FEF735
:1068100013F801F0A7F87CBDBC07002001490A4627
:1068200000F002B801F0FFFF7FB515460C460600E8
:106830002DD0FFF79DFB3046FDF794FF40F6FF712A
:106840000190091903D1B0F90440B0F9065002894A
:10685000611E1144ADF80840ADF80C104189681E66
:106860000844ADF80E00ADF80A5001A8FDF7E4FFAA
:1068700002A80DF0C1FF06E02A462146304600F08E
:106880000FF90DF033FF0028F6D101F06BF87FBD52
:106890002DE9FF4FDFF8E0B083B01C46DBF80010B5
:1068A000DDE91060924600274B7C3A461299FEF7CC
:1068B000B5FB05005DD028698068804708F056FD6B
:1068C00081460AFB09F0C01D4FEAD008FDF784FF9E
:1068D000F10705D1C11700EB9170801000EB40006B
:1068E000002C06DC1838B0FBF8F06442A04200DC53
:1068F0000446F00707D10090DDE903012346524624
:1069000000F08CFF0746002C03DC2846FEF7C2FB94
:106910002FE004FB08F01830F10702D0FDF71AFE53
:1069200001E0FDF726FE06001CD0FDF71BFF0190DD
:106930000560039981800499C180A0F808A0448172
:10694000C0F80C80C0E9049701A8FDF775FF129804
:10695000AE602861DBF80000407CA861304607B0DB
:10696000BDE8F08F2846FEF795FB17B13846FDF7D6
:106970001FFE0020F3E70000BC070020014908606B
:1069800070470000A40D00202DE9F74F92B090460B
:106990001298FDF7E7FE0B90B0F908100691B0F9D8
:1069A0000A100D9100680069D0F804B00BA8FDF73B
:1069B00043FF384C384D2068407C55F82000C168B2
:1069C0008A6A082190478146182801D34FF0200990
:1069D0002068407C55F820000069079003C80C909F
:1069E0002E48814201D0012000E0002010900020BC
:1069F00001F050F8002849D10026DDE91207B2461F
:106A00000FAB069C4546761C0193FFF702FE01463C
:106A100004FB0AF001EB8002234629463846CDF8F4
:106A200000B001F01BFB050030D01098D0B1DDE9BB
:106A300006134A46284601F02EF998B9DDE906709A
:106A40002C46D0F810C0BCF1000F05D02946042315
:106A50003A460846E04705E00C992068884701C49B
:106A60007F1EF9D10020CDE903050590012000909B
:106A7000CDE901094146034608F10108069A139839
:106A800007F060F80D98401E0D90B6D115B0BDE826
:106A9000F08F0000BC070020D40700205BE4000852
:106AA000F8B515460E460746FDF75CFE00900068F7
:106AB0001621C068426A0020904704466846FDF7E8
:106AC000BBFE002C03D02A4631463846A047F8BD0D
:106AD000F8B515460E460746FDF744FE009044699A
:106AE0006846FDF7A9FE3846FFF77AFD03460828F9
:106AF00000DD2CB12A46314638461DF035FBF8BD85
:106B00002A46314638461DF0C7FCF8BD10B50028AE
:106B100021D009B30AB3B1F90040B2F900309C4268
:106B200000DA23460380B1F90240B2F902309C42F8
:106B300000DA23464380B1F90440B2F904309C42A4
:106B400000DD23468380B1F90610B2F90620914298
:106B500000DC1146C18010BD11460A680260496818
:106B6000416010BD00280BD003880B44038083884C
:106B700019448180418811444180C1881144C180F9
:106B80007047000070B5104D0446D5E900018842F9
:106B90000ED10E49884203D1D0E90F12406C03E0B8
:106BA0000C38D0E9001280682160C4E9012006E0B9
:106BB00090E80E0084E80E0017F0D2FD2860207ADD
:106BC000002800D0012070BD38080020E8F0012026
:106BD0000448D0E90010814201D101207047002013
:106BE0007047000038080020054A10B503491160BD
:106BF0001CF04EFFBDE8104000F002BBF13601086A
:106C0000E007002070B50025FFF7B2F9094CD4E980
:106C1000002082420AD0D2E90056104617F0B8FD93
:106C20002060314628460DF041F9012500F09AFE1A
:106C3000284670BD340D00202DE9FC41154DDDE9DD
:106C400008742D68B5F90860864200DD3046B5F954
:106C50000C60964200DA3246824219DBB5F90A60CE
:106C60008E4200DD3146B5F90E509D4200DA2B46CA
:106C70008B420DDB00E02C46E5682D6825B1042D24
:106C800002D02568002DF6D1CDE9007407F00EFD85
:106C9000BDE8FC81BC070020B0F90220B1F9063044
:106CA0009A4213DCB1F90220B0F906309A420DDCA9
:106CB000B0F90020B1F904309A4207DCB1F90010B4
:106CC000B0F90400814201DC0120704700207047C8
:106CD0000146024878220068F9F716BBBC0700207D
:106CE000DFED1A0A2DE9F04120EE200ADFED180A47
:106CF0000646904680EE201A0D46BDEEC10A10EE03
:106D0000107A384601F09CF80446384601F050FEEF
:106D10000146002215E000BF05EB820335F9220091
:106D2000B3F9023000FB04F703FB0177634300FB78
:106D300011303F1426F82270001406EB8203521C17
:106D400058804245E8DBBDE8F081000000C82F48CC
:106D5000DA0F494008B502230093034B1B685B7CA4
:106D600000F0B0F808BD0000BC07002038B50400F2
:106D700020D0FFF7FDF820461DF03EF820461DF01C
:106D8000A7F82046FDF7EEFC00900068FDF72EFC0A
:106D90000098C068FDF70CFC0098C069FDF708FC7E
:106DA0006846FDF749FD2046FDF702FCBDE8384086
:106DB00000F0D8BD38BD38B5040018D0FFF7D8F8BA
:106DC0002046FDF7CFFC0090007C80070AD52046C6
:106DD0001DF012F820461DF07BF80098018A21F082
:106DE000020101826846FDF727FD00F0BBFD38BDBA
:106DF0002DE9FF4F81B09A46019893460D46012434
:106E000038B3FFF7B5F80198FDF7ACFC0090416985
:106E1000B0F90460B0F90670B1F80090B1F80280E2
:106E20006846FDF709FD2888484510D16988414525
:106E30000DD12946019810F095F940B9AAEB070346
:106E4000ABEB0602294601981BF094FD002400F0EC
:106E500089FD05B02046BDE8F08F70B515460E4699
:106E600004000AD0FFF784F82A46314620461CF079
:106E7000ABF8BDE8704000F075BD70BD38B50400DA
:106E80001ED0FFF775F82046FDF76CFC0090007CE3
:106E9000800710D4204618F0AEF86846FDF7CCFC09
:106EA00020461CF03DFD2046FDF75CFC0090018A69
:106EB00041F0020101826846FDF7BEFC00F052FD80
:106EC00038BD00002DE9F84304460088089F91462C
:106ED0008846D8B36088C8B3E088082836D8E06808
:106EE0008068002833D007F0010200212148FEF716
:106EF00095F805002AD02088860060884643FFF771
:106F000037F806F12000FDF734FB060021D03046AB
:106F1000AE60FDF727FC009007824461A0F8048072
:106F2000A0F80690238808EB0301491E01816188BF
:106F30004944491E418105606846FDF77DFC2146B4
:106F4000304610F00FF940B100F00CFD0020BDE814
:106F5000F8832846FEF79EF8F6E7B80705D53046D1
:106F600018F049F830461CF0DBFC00F0FBFC304622
:106F7000EDE700003CB00608024978220968F9F7FD
:106F8000C3B90000BC07002010B5FEF7F1FF07F001
:106F90000BFE08F073F80BF05FFFBDE8104000F047
:106FA000E1BC000070B5094D04462868467CFEF738
:106FB000DFFF022C03D228684474FFF7E5FF044882
:106FC000046000F0CFFC304670BD0000BC0700201C
:106FD000480C00202DE9F041194E05001949306890
:106FE000194F407C51F820108C6917F8048003D0A9
:106FF00017F0C2FC60B11FE00521FEF7BBF80600E8
:107000001AD00020FFF7BAFC3046FEF78EF812E0E7
:1070100030680521407CFEF7ADF860B9AFF24B0057
:10702000FFF7ACFC30680849407C183151F820006B
:1070300008B1FEF731F83D554046BDE8F08100004B
:10704000BC070020D40700204008002010B50446EB
:10705000FEF78EFF204607F0C9FDBDE8104000F0A6
:1070600081BC10B50446FEF783FF20460DF0E6F91B
:10707000044600F077FC204610BD10B50446FEF72C
:1070800077FF204607F0EAFDBDE8104000F06ABC3B
:1070900010B50446FEF76CFF05496FF070400968B3
:1070A0000863204607F0E0FDBDE8104000F05ABC40
:1070B000BC07002010B50446FEF75AFF204607F033
:1070C000B3FE044600F04EFC204610BD70B50446E9
:1070D000FEF74EFF04480068C56904B1C46100F0C2
:1070E00041FC284670BD0000BC07002070B5144666
:1070F0000D460646FEF73CFF22462946304607F07D
:1071000067FF044600F02EFC204670BD70B51446A3
:107110000D460646FEF72CFF22462946304607F06C
:107120006DFF044600F01EFC204670BD70B50C4695
:107130000546FEF71DFF2146284607F08BFF044653
:1071400000F010FC204670BD70B50546FEF710FF3C
:1071500003480068847E857600F004FC204670BDFC
:10716000BC07002070B50C460546FEF701FF094834
:10717000224605800848048008480068417C084889
:1071800050F82100C1680B6A29469847BDE8704055
:1071900000F0E8BBEC070020EE070020BC07002051
:1071A000D407002070B50546FEF7E2FE03480068EC
:1071B000047E057600F0D6FB204670BDBC0700209B
:1071C00070B50446FEF7D4FE04480068B0F92C50B0
:1071D000848500F0C7FB284670BD0000BC07002076
:1071E00070B50446FEF7C4FE04480068B0F92A50A2
:1071F000448500F0B7FB284670BD0000BC070020A6
:1072000002480068002800D000477047800D002029
:1072100002498A6802B98860FFF7F2BF340D002086
:107220002DE9FC41984615460E460746FEF7A0FE9E
:107230001C20FDF79EF9040028D01A491848086060
:107240002046FDF78FFA00900760C0E90456A0F8C9
:107250000C806846FDF7F0FA204617F0D7FE124D75
:10726000A86840B90120A86005F10C010F4808602A
:10727000084601F027FB2046FDF774FA01902968C3
:1072800049B181602C6001A8FDF7D6FA00F06AFBD5
:107290002046BDE8FC8100212C608160F3E70000FE
:1072A000D9720008DC070020640D0020A5FD01084C
:1072B00010B504000ED0FEF75BFE20461BF0DEF991
:1072C00020461CF011FE2046FDF772F9BDE8104083
:1072D00000F048BB10BD00002DE9F04188B000254A
:1072E000FEF746FE184C676825E000BFFEF7B3FDC9
:1072F00006466068FDF736FA01904169891B00294E
:1073000015DC616802960491016903914668666024
:10731000D0F8008001A8FDF78FFA02A841468847FF
:1073200066B160680125B84205D1002506E001A8D4
:10733000FDF782FA02E060680028D7D100F012FB66
:1073400008B02846BDE8F081640D002038B50C4631
:10735000050011D0FEF70CFE2846FDF703FA009059
:107360008089204201D0012400E000246846FDF716
:1073700063FA00F0F7FA00E00124204638BD38B582
:10738000040017D0FEF7F4FD2046FDF7EBF900905E
:10739000FEF761FD0146009882691144416168462B
:1073A000FDF74AFA20461CF09FFD204617F02EFEFE
:1073B00000F0D8FA38BD38B50C4605000BD0FEF702
:1073C000D7FD2846FDF7CEF9009084616846FDF7A9
:1073D00033FA00F0C7FA38BD38B5054600202860FA
:1073E0000648046844B12046FDF7BCF900900069E6
:1073F00028606846FDF720FA204638BD640D00205D
:1074000038B504004FF000000D46086011D020464A
:10741000FDF7A8F90090846844B16846FDF70CFABE
:107420002046FDF79FF90090006928606846FDF747
:1074300003FA204638BD00002DE9F84FDFF89C80A4
:107440000546274F98F818008B46410738680A9E72
:107450009946407C924607D406F0B8FF0446386847
:10746000407C06F0BFFF06E006F0BCFF044638682B
:10747000407C06F0ABFF002795B1A0F1010400BFEE
:10748000B9EB060000D54042142806DB5146BBEBA1
:107490000A0000D54042142804DA0120BDE8F88F24
:1074A000641EEDE70A464B4659463846009617F0EB
:1074B000A7FE0C4F4B46524647F83500594620462A
:1074C000009617F09DFE07EBC50148601BF07EFC9F
:1074D00001210020C8F81C10E0E70000600800202F
:1074E000BC0700203CF101202DE9F047524D534EDE
:1074F0000024E86978B96868346000F005017460B8
:1075000010F0060F01D000F00500B460F4601BF02D
:107510005DFC0120E8612878C8B100F0D9F8A846E0
:10752000286100F0D3F82969286A81420BDBD8F87A
:1075300024204046914206DC836A42699A4202DB7B
:10754000C36A9A420DDD4FF0FF3001466FE000F054
:10755000C7F8686100F0BBF82878401C2870BDE8C7
:10756000F087326898F81800354F8D1A40070028C8
:107570003868407C02DB06F029FF01E006F032FFAC
:10758000401E4543D6E90020B146801A95FBF0F62F
:10759000D8F81420D9F8081098F81800551A4007A0
:1075A00000283868407C02DB06F01CFF01E006F092
:1075B0000DFF401E4543D9E90201081A95FBF0F57D
:1075C00098F81800400700283868407C18DB06F05F
:1075D000FDFE81463868407C06F004FFD8F818208C
:1075E0000146D00704D0A9EB0600A0F1010000E09D
:1075F0003046920702D5491B491E18E0294616E07D
:1076000006F0F0FE81463868407C06F0DFFED8F8D0
:107610001820D10704D0A9EB0601A1F1010100E077
:107620003146920702D5401B401E00E028461CF060
:107630005BFA88F8004092E7600800203CF10120E6
:10764000BC070020014988617047000060080020E5
:10765000074A002806DB002904DB01231372C2E974
:10766000000101E000201072014800F003B80000A2
:10767000FCF2012010B504460C220749F8F797FEEA
:10768000002808D0044894E80E000EC02046BDE84B
:107690001040FFF7A9BA10BD30F1012030B40A4CF8
:1076A0002268831A01D5C3F1000362688A1A00D5E3
:1076B00052421A44022A04DDC4E9000130BCFFF73B
:1076C000C7BF30BC70470000780D0020704770477E
:1076D00010B5024800780AF053FC10BDD006002017
:1076E00010B5024800780AF04BFC10BDD10600200E
:1076F0002DE9F041084E04460568306801682846C7
:1077000088470746306841682846884728442060F3
:107710003846BDE8F0810000C00700202DE9F041A7
:107720000C4606460025064F05E03868416830469D
:10773000884706440544641EF7D22846BDE8F08118
:10774000C00700202DE9F0411E46069C17468846DA
:1077500005463A46A8687F1C3346D0F804C0414627
:107760002846E047641EF4D1BDE8F08170B5B0F959
:107770000040091BB0F904408C422CDD00F11404D8
:10778000B0F902500069521B02FB0040CA1800EB1E
:10779000E104521ED010B0EBE10501F007034FF0F9
:1077A000FF0102F0070221FA03F0C2F1070201FA19
:1077B00002F1CEB221780FD001436D1E04F8011BF7
:1077C000002D05DDFF2229462046F8F7BDFD2C449B
:1077D00020783043207070BD30400143217070BD6F
:1077E00010B5B0F90030B0F90240C91A00F1140325
:1077F0000069121B02FB003000EBE10001F00703FF
:1078000002788021D9400A43027010BDB0F90610F9
:10781000026951431430F8F79EBD00002DE9F8438A
:10782000804602F10F000011470003FB07F01C46E1
:10783000154689461430FCF79CFE060018D0FEF76A
:1078400097FB3046FCF78EFF0090A0F80080A0F870
:1078500002908580C4800749816001218181076190
:107860006846FCF7E9FF00F07DF83046BDE8F88394
:107870000020FBE7EC19070870B5B0F90660B0F915
:1078800004400B6800F11405964220DD0069A34214
:1078900002FB005000EBE30219DAA4F101044FEA05
:1078A000E400A0EBE30512F8010B03F0070400FA73
:1078B00004F0C4B208E055B112F8014B03F108031B
:1078C000A5F1010523F00703002CF4D008E0002007
:1078D00070BD00BF4FEA44604FEA106403F101033A
:1078E0002006F7D5FF2C0AD0184605E04FEA44647D
:1078F0004FEA146400F101006606F7D400E0D81DD9
:10790000C443640706D007E012F8014BFF2C0FD1E7
:1079100000F108006D1EF7D5A0EB030000F1010097
:107920000B6070BD4FEA44624FEA126400F101003F
:107930002206F7D4F0E738B50546FEF719FB2846CE
:10794000FCF710FF00908189491E0CB284816846C3
:10795000FCF772FF14B92846FCF72AFE00F002F883
:1079600038BD00000348C168491EC16001D100F064
:1079700085B87047480D00202DE9F04116460F46A6
:1079800005460024FEF7F4FA32463946284601F04F
:1079900049F8054408B1641CF6E7FFF7E3FF204609
:1079A000BDE8F08110B54FF4C8310348FCF7F8FD8D
:1079B0005020FCF72BFF10BDF40E002010B504463C
:1079C00020461EF09BFC10BD704710B51FF0D6F985
:1079D00010BD10B51FF0E8F910BD704710B50120BB
:1079E0001EF0BCFE1B4908600846006808B1012073
:1079F00000E0002050B900BF502080F31188BFF391
:107A00004F8FBFF36F8F00BF00BFFEE7032200213F
:107A100001201EF0B4FE104908600846006830B12D
:107A200000231A4619460C4800681EF023FF0A4836
:107A3000006808B1012000E0002050B900BF5020CC
:107A400080F31188BFF34F8FBFF36F8F00BF00BF6C
:107A5000FEE710BD940600209806002010B50648E9
:107A6000006808B9FFF7BAFF4FF0FF31024800681D
:107A70001EF0D4FF10BD00009406002010B50023B6
:107A80001A461946024800681EF0F4FE10BD0000B8
:107A9000940600200EB508B102AA00E000220023DF
:107AA00001A9684600F036FD0EBD0000074910B57B
:107AB000CC6818B10120C860801E03E00020C860B7
:107AC0006FF07F4002F0DAFB204610BD4008002036
:107AD0002DE9F041984616460C4688B3FEF7B1F9F9
:107AE000074608F00300012825D0022817D0B4F972
:107AF000005000BFFEF760F9014608F00C000428B2
:107B00002BD00C281DD0B4F9020035807080EA1902
:107B1000521E0844B280401EF080BDE8F081B4F9E6
:107B20000400B4F90010401AC01B401C00EBD070D8
:107B300001EB6005DEE7B4F90400C51B6D1CD9E755
:107B400010E0B4F90600B4F90220801A401A401C73
:107B500000EBD07002EB6000D7E7B4F90600401AE2
:107B6000401CD2E72068306060687060D5E710B5CF
:107B7000082A0EDC0346012A1AD0022A58D0042A09
:107B800078D010F8042B03F8012B491EF9D10120FD
:107B900010BD102A0ADC0222022AF8D1024630F86F
:107BA000043B22F8023B491EF9D1F0E7002010BD4A
:107BB00010F8042BD207120E491E34D010F8044BD3
:107BC000491E04F0010442EA84122CD010F8044B40
:107BD000491E04F0010442EA441224D010F8044B78
:107BE000491E04F0010442EA04121CD010F8044BB0
:107BF000491E04F0010442EAC40214D010F8044BF8
:107C0000491E04F0010442EA84020CD010F8044B2F
:107C1000491E04F0010442EA440204D010F8044B67
:107C200004F00104224303F8012B0029C0D1AEE780
:107C300010F8042B9207120E491E15D010F8044BB1
:107C4000491E04F0030442EA04120DD010F8044B5C
:107C5000491E04F0030442EA840205D010F8044BE4
:107C600004F003042243491E03F8012B0029DFD14D
:107C70008DE7FFE710F8042B1207120E491E05D0FE
:107C800010F8044B04F00F042243491E03F8012BA3
:107C90000029EFD17BE72DE9F0411E680D4604462F
:107CA000082A09DC0746012A21D0022A62D0042AC8
:107CB0007CD0082A1AD195E0102A03DC0220022881
:107CC000F8D102E00020BDE8F081D3F810C02746CB
:107CD000BCF1000F04D00A462146022308468AE080
:107CE00001CCB04727F8020B6D1EF9D18BE001CC17
:107CF000B047C0074FEA10686D1E36D001CCB047C0
:107D000048EA801000F0FF086D1E2ED001CCB0476D
:107D100048EA401000F0FF086D1E26D001CCB047A5
:107D200048EA001000F0FF086D1E1ED001CCB047DD
:107D300048EAC00000F0FF086D1E16D001CCB04725
:107D400048EA800000F0FF086D1E0ED001CCB0475D
:107D500048EA400000F0FF086D1E06D001CCB04795
:107D600040EA080000F0FF086D1E07F8018B002DA7
:107D7000BDD148E001CCB04780074FEA10686D1EC6
:107D800018D001CCB04748EA001000F0FF086D1E83
:107D900010D001CCB04748EA800000F0FF086D1E0B
:107DA00008D001CCB04740EA080000E007E000F04E
:107DB000FF086D1E07F8018B002DDBD123E001CCFD
:107DC000B04700074FEA10686D1E06D001CCB047DF
:107DD00040EA080000F0FF086D1E07F8018B002D37
:107DE000EDD110E0D3F810C0BCF1000F05D00A4669
:107DF000014601233846E04705E001CCB04707F8CB
:107E0000010B6D1EF9D101205DE700000A4810B595
:107E1000816900290ED101218161FFF7C3FD07F0BF
:107E20005FF9054905481C310860BDE81040084667
:107E300000F048BD10BD0000B00700209DFC010807
:107E40000149084400F0B4BD905F01007CB50646CE
:107E500028480D46006868B100200CF0CDFC06E013
:107E60006A46294630460FF0EBF80CF03FFC00283C
:107E7000F6D17CBD106800901F4C506801902268BC
:107E8000BDF8000032F84C1F0844ADF80000BDF802
:107E9000020091880844ADF80200BDF80400118882
:107EA0000844ADF80400BDF8060091880844ADF818
:107EB000060068460CF0A0FC0EE000BF2068BDF88C
:107EC00000106A464184BDF802108184294630467C
:107ED0000FF0B6F80CF00AFC0028EFD1206830F85B
:107EE000221F428D891A01804188C28D891A4180E2
:107EF0007CBD0000E8070020BC0700202DE9FF4FF3
:107F000085B09A4690460D46FDF756FF4FF00009A2
:107F1000DDF814B006464C4625B128680090686824
:107F2000019002E06846FDF72BFF18F00C0F02D01D
:107F30005546002713E0BDF902402DE07F1C29467D
:107F4000059800F063FB01466D1A0598FFF7E6FB04
:107F500005990844059005A800F09CFB08B9002D80
:107F6000ECD108F00C00042804D0082802D00C281A
:107F700012D105E0BDF9060007FB1604641C0BE0F6
:107F8000BDF90600BDF90210401A07FB1600401C9F
:107F900000EBD07001EB60045546CDF814B043E01F
:107FA0002946059800F032FB07460146ED1B05986F
:107FB00000F002FB18F003010ED0012939D002298C
:107FC0000DD1BDF90410BDF90020891A091A01EB81
:107FD000D17102EB610101E0BDF900108946174A39
:107FE000401E484412683946A2F822909484ADF8A5
:107FF0000C00A019401EADF80890ADF80E00ADF8C9
:108000000A4002AA0598FFF721FF39460598FFF7B5
:1080100085FB059908440590FDF7CEFE044405A8AC
:1080200000F038FB002801D1002DB9D109B0BDE81E
:10803000F08FBDF90410091A491CCFE7BC070020D6
:1080400049B1002802DAA0EB610001E000EB610019
:1080500090FBF1F070470020704700002DE9FF4FC2
:1080600000208BB004460146009019981D46164624
:10807000016007AB002203A902A800F04BFA18B177
:1080800000200FB0BDE8F08F0798854200DD05465F
:108090005C4F0A955C493868407C51F82010049187
:1080A00009690691FDF730FE05903868407CFDF7C0
:1080B0000FFF56498146884204D05549894501D071
:1080C000012000E00020099001CE189988478246DF
:1080D0005FEA106B71D0009870BB0B9800EB04083E
:1080E00048480068B0F90800404503DDA0EB0807E8
:1080F000804600E000270299049801EB840101EB1F
:108100008701CDE90010DDE90A010A180C9B0892ED
:10811000521E19464046FEF78FFD0120009005983B
:1081200018280ADA0298DDE9052300EB840000EB49
:108130008700E91B00F04EF910E0099870B1029831
:1081400000EB840000EB87070898A0EB080849467D
:108150003868884701C7B8F10108F8D12D48C069CF
:1081600060B3DDE9020700EB840007EB8402CDE990
:108170000202284C361F2B46E46930460299A0477C
:10818000FF203168B0EB116F02D10299096804E059
:10819000029A1268B0EB126F01D1039A1160029932
:1081A000361D091D02910399091D03916D1EE8D129
:1081B00019990120039708601DE01EE0FFE7BBF15D
:1081C000FF0F0ED00298CBF1FF0250F8241050465A
:1081D00000F010FB039941F8240019990120086070
:1081E00005E00298039950F8240041F82400641C2B
:1081F0006D1E7FF469AF039843E7039941F824A00B
:10820000EBE70000BC070020D40700205BE4000877
:1082100059E40008F40C00202DE9F04F85B09B468E
:10822000DDE90F8792460C460546DDF83890FDF7EC
:108230009FFE15480068C16C4E190D19016DABF118
:10824000010001EB0A04ADF810502044ADF80C60B9
:10825000ADF81200ADF80E4003A80CF0CDFA0BE01B
:10826000CDF80090CDE901875B462246294630468D
:1082700013F0D5F90CF03AFA0028F1D1FFF772FBB0
:1082800005B0BDE8F08F0000BC0700202DE9FF4FCE
:1082900087B00C46DDE91698DDE914BA0546FDF70E
:1082A00067FE1448099A0168C86C096D471985185A
:1082B0000E190A98ADF810700C18ADF81450ADF8FE
:1082C0001260ADF8164004A80CF096FA0BE0CDE968
:1082D0000298CDE900BA23462A463146384613F0C3
:1082E00021FA0CF003FA0028F1D1FFF73BFB0BB0A9
:1082F000BDE8F08FBC070020F0B500EB8104082A30
:108300000ADC01264D1E092A14D2DFE802F01314FC
:108310002A42425959595900102A0BDC0222022ADA
:1083200008D100EB410000BF30F8022D44F8042DC5
:10833000491EF9D1F0BD05F00702C2F1070200EBBA
:10834000E50006FA02F503782B40D340521C44F8AE
:10835000043DA0EBE20022F007031A41491EF0D1D0
:10836000F0BD05F00302C2F1030200EBA5000323F8
:108370000578560003FA06F73D40F540521C44F8D4
:10838000045DA0EBA20022F003052A41491EEFD1B3
:10839000F0BD8E43C6F1010200EB65000F230578A6
:1083A000960003FA06F73D40F540521C44F8045D80
:1083B000A0EB620022F001052A41491EEFD1F0BD79
:1083C00000EB0100491E10F8012D44F8042DF9D1ED
:1083D000F0BD00002DE9F05F0C1E16DD5E68014661
:1083E00000EB8405082A12DC611E012A28D0022A2B
:1083F00048D0042A6AD0082A07D1071917F8010DB6
:10840000B04745F8040D641EF8D1BDE8F09F102A6E
:10841000FBDC0222022AF8D15F693FB12246BC464A
:10842000BDE8F04F02235DF804EB604701EB440721
:1084300037F8020DB04745F8040D641EF8D1E4E7A3
:1084400000EBE1002D1F10F801A9814601F007079C
:10845000802020FA07F800BF0AEA0800C7F10701E8
:10846000C840B04745F804093FB17F1E4FEA486055
:10847000000E8046641EEFD1C7E7072719F801A94F
:108480000120F6E700EBA1002D1F01F0030710F813
:1084900001A981467900C02020FA01F84FF0060BAF
:1084A0000AEA0800ABEB4701C840B04745F80409A9
:1084B0003FB17F1E4FEA8860000E8046641EEFD1F8
:1084C000A3E7032719F801A93846F6E700EB610096
:1084D00001272D1FA74310F801A98146B900F020FC
:1084E00020FA01F84FF0040B0AEA0800ABEB870111
:1084F000C840B04745F804093FB17F1E4FEA0870F5
:10850000000E8046641EEFD17FE7012719F801A90C
:108510000F20F6E72DE9F047204C06461F46A069DC
:1085200090468946002540B90120A06104F1200150
:108530001B480860084600F0C5F9606910B905F0ED
:108540002EFF606107B138604EB1A06830B9606934
:108550008000FCF773F8A06000B901253060B9F124
:10856000000F0AD0E06830B960698000FCF766F857
:10857000E06000B90125C9F80000B8F1000F0AD089
:10858000206930B960698000FCF758F8206100B9B3
:108590000125C8F800002846BDE8F087F40C00204B
:1085A00069FD010803480068C069017EC07E11FBB7
:1085B00000F07047BC07002073B5124A01A900986B
:1085C0001268904700240090C8B10F49002509683F
:1085D000C969496959B10A684AB1019990477CBD96
:1085E0006846FFF785F80546FDF7A4FB04440198AB
:1085F000401E0190F4D5284600F040F8044420467F
:108600007CBD00002C0D0020BC07002073B50D467A
:108610000098002490B10A490968C969496959B1AB
:108620004A684AB1294690477CBD6846FFF760F822
:1086300020B10A2802D0641CAC42F6DB20467CBD87
:10864000BC07002031B50024009808B905E0641C7F
:108650006846FFF74DF80028F9D1204638BD0000E4
:10866000044AB2F9002002600348B0F90000086033
:1086700070470000EC070020EE07002038B500240A
:1086800069460094FDF768FB0099814200DD0C1AF1
:10869000204638BD016811F8012B12B10A2A02D018
:1086A00002E001207047016000207047B0F90030FF
:1086B000B1F90020934200DA0280B0F90230B1F93A
:1086C0000220934200DA4280B0F90430B1F904206C
:1086D000934200DD8280B0F90620B1F906108A428B
:1086E00000DDC180704770B5B1F90040B2F90030CB
:1086F0009C4200DD23460380B1F90250B2F90240EA
:10870000A54200DD2C464480B1F90460B2F9045062
:10871000AE4200DA35468580B1F90610B2F906207E
:10872000914200DB1146C1809D4201DBA14201DA8A
:10873000002070BD012070BD014602480068407CE9
:1087400000F002B8BC070020F8B501260F46054628
:1087500002284BDA264C5FB3012F02D0022F45D1FD
:1087600016E054F8250088B92846FCF715FD00905E
:10877000B8B3C0680D21426A68469047020035D000
:1087800039460098904754F825000026401C2BE0FD
:10879000FCF702FD009020B3C0680D21426A6846D4
:1087A0009047020022D039460098904700261DE0ED
:1087B00054F8250001280FD12846FCF7EDFC009065
:1087C00050B1C0680D21426A68469047020003D04C
:1087D000394600989047002654F8250010B1012131
:1087E00001E003E00021401A44F825003046F8BDBE
:1087F0001C0D002070B5FF23B3EB116F2CD0C3B25A
:1088000013FB02F500F47F4400F47F035443534309
:10881000000E10FB02F6C2F1FF00CAB212FB0052BA
:1088200001F47F4505FB004401F47F0505FB00339F
:10883000090E11FB0065C2F307204FF47F024FF4CD
:108840007F4102EA132201EA14214FF07F430843DB
:1088500003EA05431043184370BD2DE9F04F154658
:10886000DDE90CB90C4606464FF0000818E00B9FF6
:108870004FF0FF0A01CE08CCAAEB106202FB09F20E
:10888000B2FBFAF1CAB21946FFF7B4FF20F07F40FD
:1088900001C57F1EEED1099808F1010804EB8004A0
:1088A000D845E4D3BDE8F08F0B88134403808B8850
:1088B0009B1A83804B8813444380C988891AC180DE
:1088C0007047000002494A694260486170470000F1
:1088D000B00700202DE9F041184C06460D462068EF
:1088E00098461746B0F90A10A94224DCB0F90E10D8
:1088F000A94220DBB0F90810B1421CDCB0F90C0031
:10890000B04218DB2946304605F0F8FC01463A46ED
:108910004046FFF76FFF01F0FDFC034620682A4642
:10892000417C074850F82100C1688C693146A44653
:10893000BDE8F0416047BDE8F0810000BC070020C1
:10894000D40700202DE9F84307680646884600252D
:10895000384600F005F940B3404600F011F9441CD8
:108960003846FBF7E9FE84420CD1F4B13846FBF7F8
:10897000F9FE224641460090F7F7C6FC6846FBF731
:108980005BFF11E02046FBF7E5FD04000DD0FBF78F
:10899000E9FE41460090F7F717FD6846FBF74CFFEC
:1089A0003046FBF72FFE346001252846BDE8F883EA
:1089B00030B5002803DA4FF0FF32404200E00122D8
:1089C000154990FBF1F301FB13004910884202DDC9
:1089D00052424B421844114B984200DD081A4FF4A2
:1089E0007A7390FBF3F16FF07C044C4300EBC4000E
:1089F0005A2902DB4FF480300AE0094C04EB810570
:108A000054F821106D686C1A4443B4FBF3F0084429
:108A1000002A00DC404230BD407E0500905F01002E
:108A200084AC060810B5044600F009F8014620465B
:108A3000BDE81040FEF772BE00231BF037BB77B5D0
:108A400081B015460E466B4601981BF02FFB04467D
:108A500001460198FEF762FE01990844019001A8C1
:108A6000FEF746FE0A2802D0012D02D012E0641C57
:108A700010E020280ED1FDF75DF9054607E02844F7
:108A80000090641C01A8FEF733FE202802D1009854
:108A90008642F4DA04B0204670BD000010B502E052
:108AA00000F8011B521E0AB18307F9D1930818D0B0
:108AB00001EB014402F0030204EB042405E004602E
:108AC00044608460C46010301B1F042BF7DA01E09F
:108AD00010C05B1E002BFBD103E000BF00F8011BA0
:108AE000521E002AFAD110BD10B5830702D520F816
:108AF000021B521E530810D001EB0144042B08DB6B
:108B0000046044608460C46010301B1F042BF7DADB
:108B100001E010C05B1E002BFBD1D20700D001800A
:108B200010BD024600204FF080414318934201D807
:108B3000D21A581840088908F7D1704700B907A021
:108B400021B906A102E03AB1401C491C02780B7819
:108B50009A42F8D0012070470020704700000000C2
:108B600038B50D46012448B1FBF7FCFD29460090BD
:108B7000FFF7E4FF04466846FBF75EFE204638BD7B
:108B80004FF0FF3120B110F8012B491C002AFAD117
:108B90000846704700F58060AFF3008010B50022F2
:108BA000C0F30B00B0F5006F02DDA0F500600122FC
:108BB000B0F5806F01DDC0F5006083110B4C00F053
:108BC0003F00C0F1400134F813004843402906D06B
:108BD00004EB4303C1F140015B8803FB010020303B
:108BE0008009002A00D0404210BD0000D4080708C8
:108BF00010B504460CB9012010BD607920B90020E1
:108C00002071204600F006F802206071012060719A
:108C10000020F1E708B50A4A016891420FD100BF70
:108C2000002100910749096841F48051054A11600B
:108C30001146096801F48051009100BF00BF08BDD2
:108C4000003002403038024070B5044600F07EF932
:108C500006462546681C10B104480078054400BF4C
:108C600000F074F9801BA842FAD370BD0007002001
:108C700000B587B0142102A8F7F76DFB2A480068F9
:108C800008B107B000BD01202749086000BF0020DF
:108C900001902648006840F0010024490860084619
:108CA000006800F00100019000BF00BF881402902E
:108CB0000220039000200490022005900C200690D2
:108CC00002A91B4800F03CF84FF680700290022089
:108CD000039000200490032005900C20069002A928
:108CE000144800F02DF84CF23370029002200390EB
:108CF00000200490032005900C20069002A90E4845
:108D000000F01EF84FF480500290022003900020E3
:108D10000490032005900C20069002A9074800F05B
:108D20000FF800BFADE70000EC0600203838024025
:108D30000014024000100240000C024000180240E3
:108D4000F8B502460B460025002400200021DCE097
:108D5000012606FA01F51E6806EA0504AC4273D145
:108D60005E68022E02D05E68122E13D1CF0802F187
:108D7000200656F827004E07F70E0F26BE40B043D8
:108D80004F07FF0E1E69BE403043CF0802F1200698
:108D900046F8270010684F000326BE40B0431E79F6
:108DA00006F003064F00BE40304310605E68012E9F
:108DB00008D05E68022E05D05E68112E02D05E6873
:108DC000122E13D190684F000326BE40B0434F00CF
:108DD000DE68BE4030439060506801268E40B0434C
:108DE0001E79C6F300168E4030435060D0684F00A5
:108DF0000326BE40B0434F009E68BE403043D06063
:108E00005E6806F08056B6F1805F7DD100BF002617
:108E10000096404E366846F480463E4F3E603E46E1
:108E2000366806F48046009600BF00BF3A4E8F08B1
:108E300056F827008E07370F0F26BE40B043374E37
:108E4000B24202D1002624E05EE0354EB24201D1AA
:108E500001261EE0334EB24201D1022619E0324E05
:108E6000B24201D1032614E0304EB24201D10426B1
:108E70000FE02F4EB24201D105260AE02D4EB2423C
:108E800001D1062605E02C4EB24201D1072600E0B2
:108E900008268F073F0FBE4030431F4E8F0846F80D
:108EA0002700264E3068A0435E6806F48036B6F58B
:108EB000803F00D12043214E3060361D3068A043F2
:108EC0005E6806F40036B6F5003F00D120431B4E25
:108ED000361D3060361D3068A0435E6806F480168B
:108EE000B6F5801F00D12043144E08363060361D81
:108EF0003068A0435E6806F40016B6F5001F00D186
:108F000020430E4E0C363060491C1029FFF420AF70
:108F1000F8BD00004438024008380140000002401B
:108F20000004024000080240000C02400010024011
:108F30000014024000180240001C0240003C0140A6
:108F40000AB1816101E00B04836170470148006848
:108F500070470000F80600200348006803490978BC
:108F60000844014908607047F80600200007002007
:108F700010B50D48006840F400700B4908600846C1
:108F8000006840F4806008600846006840F4807023
:108F90000860032000F0C6F8002000F007F800F099
:108FA00049F8002010BD0000003C024070B588B0B8
:108FB000044600250026002221461C2000F074F8FB
:108FC0001C2000F061F800BF0020019016480068E6
:108FD00040F00100144908600846006800F00100F4
:108FE000019000BF00BF02A903A800F06FF900F0D4
:108FF00095F945000D48B5FBF0F0461E4FF0804056
:109000000B49086040F2E7310948C1604660002121
:109010000161816000F041FC20B9054800F058FC76
:1090200008B070BD0120FBE74038024040420F000D
:1090300050B2012008B500BF002000901148006820
:1090400040F480400F4908600846006800F4804002
:10905000009000BF00BF00BF00200090081F006804
:1090600040F08050091F08600846006800F08050FA
:10907000009000BF00BF00220F21901E00F014F8E6
:1090800008BD00004438024001460846002809DBBC
:1090900000F01F0301229A4043099B0003F1E023E3
:1090A000C3F8002100BF70472DE9F05F80460D46F0
:1090B000164600271BF07EFC074639462A463346F3
:1090C00001F00700C0F1070ABAF1040F02D94FF00E
:1090D000040A01E0C0F1070AD14600F1040ABAF11E
:1090E000070F02D24FF0000A01E0A0F1030AD446B4
:1090F0004FF0010A0AFA09FAAAF1010A0AEA020A79
:109100000AFA0CFA4FF0010B0BFA0CFBABF1010B56
:109110000BEA030B4AEA0B04214640461BF052FCC3
:10912000BDE8F09F00BF00F00702064B19684FF63C
:10913000FF031940044B0B4343EA0221014B196022
:1091400000BF70470CED00E00000FA0570B5044662
:109150000D460CB9012070BD5848006800F00F00A2
:10916000A84209D255490D700846006800F00F006A
:10917000A84201D00120EEE7207800F0020002288A
:109180001DD1207800F00400042805D14C48006867
:1091900040F4E0504A490860207800F008000828B0
:1091A00005D14748006840F460404549086044489C
:1091B000006820F0F000A168084341490860207869
:1091C00000F00100A8B36068012807D13C480838C6
:1091D0000068C0F34040B8B90120BCE760680228CD
:1091E00002D06068032807D1354808380068C0F30A
:1091F000406048B90120AEE7314808380068C0F344
:10920000400008B90120A6E72D48006820F00300BF
:10921000616808432A490860FFF798FE064609E09E
:10922000FFF794FE801B41F28831884202D9032067
:1092300091E707E02248006800F00C006168B0EB9D
:10924000810FEDD11D48006800F00F00A84209D938
:109250001A490D700846006800F00F00A84201D0BE
:10926000012078E7207800F00400042807D1144892
:10927000006820F4E050E168084311490860207854
:1092800000F00800082808D10D48006820F460406C
:10929000216940EAC1000A49086000F04FF8084916
:1092A0000968C1F30311074A515CC84006490860C8
:1092B0000020FFF77BFE00204DE70000003C02404D
:1092C0000838024054AC0608F40600200F22026061
:1092D0000D4A126802F0030242600B4A126802F063
:1092E000F0028260084A126802F4E052C260064A44
:1092F000126802F46042D2080261044A126802F065
:109300000F020A607047000008380240003C02402B
:109310000148006870470000F406002000B5FFF720
:10932000F7FF04490968C1F38221034A515CC84030
:1093300000BD00000838024064AC06082DE9F04783
:10934000002400250026A1462548006800F00C00F6
:1093500020B1042805D008283AD105E0DFF8849030
:1093600039E0DFF8849036E01D48001F006800F007
:109370003F041B48001F006800F4800078B11A48C1
:109380001749091F0968C1F38811A0FB0170014644
:10939000224600233846F6F773FF05460EE01148D3
:1093A0000F49091F0968C1F38811A0FB017001462C
:1093B000224600233846F6F763FF05460848001F9B
:1093C0000068C0F30140401C4600B5FBF6F902E01E
:1093D000DFF8109000BF00BF4846BDE8F0870000EE
:1093E000083802400024F40000127A00F8B5044660
:1093F0000CB90120F8BD207800F00100002874D0DD
:10940000F948006800F00C0004280DD0F648006808
:1094100000F00C00082813D1F348001F006800F486
:109420008000B0F5800F0BD1EF4808380068C0F31A
:109430004040002859D06068002856D10120D9E763
:1094400000BF6068B0F5803F08D1E7480838006881
:1094500040F48030E449083908601EE06068B0F5E7
:10946000A02F0DD1E0480838006840F48020DE4984
:10947000083908600846006840F4803008600CE055
:10948000D9480838006820F48030D7490839086086
:109490000846006820F48020086000BF606890B132
:1094A000FFF754FD054606E0FFF750FD401B64281A
:1094B00001D903209EE7CC4808380068C0F340403B
:1094C0000028F1D011E0FFF741FD054606E0FFF767
:1094D0003DFD401B642801D903208BE7C2480838B2
:1094E0000068C0F340400028F1D1207800F002006D
:1094F00002285FD1BC48006800F00C0058B1BA489F
:10950000006800F00C0008281CD1B748001F006854
:1095100000F48000B0B9B44808380068C0F34000D7
:1095200020B1E068012801D0012063E7AE48083887
:10953000006820F0F800216940EAC100AA49083912
:10954000086037E0E06800B30120A8490860FFF731
:10955000FDFC054606E0FFF7F9FC401B022801D997
:10956000032047E7A04808380068C0F340000028FF
:10957000F1D09D480838006820F0F800216940EAE1
:10958000C10099490839086014E000209749086033
:10959000FFF7DCFC054606E0FFF7D8FC401B02287D
:1095A00001D9032026E7904808380068C0F340003E
:1095B0000028F1D1207800F0080008282CD160693B
:1095C000A8B101208A490860FFF7C0FC054606E003
:1095D000FFF7BCFC401B022801D903200AE78248A0
:1095E0006C300068C0F340000028F1D014E0002087
:1095F0007F490860FFF7AAFC054606E0FFF7A6FCD6
:10960000401B022801D90320F4E677486C3000683B
:10961000C0F340000028F1D1207800F004000428B5
:1096200070D1002670483830006800F0805090B942
:1096300000BF002000906C483830006840F0805037
:109640006949383108600846006800F08050009091
:1096500000BF00BF01266748006800F48070B0B901
:109660006448006840F4807062490860FFF76EFC4F
:10967000054606E0FFF76AFC401B022801D90320DB
:10968000B8E65C48006800F480700028F2D000BFA3
:10969000A068012808D154486830006840F00100F3
:1096A0005149683108601DE0A06805280DD14E4879
:1096B0006830006840F004004B4968310860084693
:1096C000006840F0010008600CE04748683000681E
:1096D00020F001004449683108600846006820F025
:1096E0000400086000BFA068A8B1FFF72FFC054682
:1096F00009E0FFF72BFC401B41F28831884202D978
:10970000032077E626E0384868300068C0F3400060
:109710000028EED013E0FFF719FC054608E0FFF73C
:1097200015FC401B41F28831884201D9032061E6D3
:109730002D4868300068C0F340000028EFD1012EAA
:1097400007D129483830006820F080502649383148
:10975000086000BFA069B8B32348006800F00C009F
:1097600008285ED0A069022846D100201F4908665B
:10977000FFF7ECFB054606E0FFF7E8FB401B02287D
:1097800001D9032036E6184808380068C0F3406065
:109790000028F1D1D4E907010843616A40EA811148
:1097A0000122A06AC2EB500041EA00412C20005D7A
:1097B00041EA00600C49091F086001200B49086656
:1097C000FFF7C4FB054607E02DE0FFF7BFFB401B9A
:1097D000022801D903200DE6034808380068C0F3C9
:1097E00040600028F1D01EE00838024000004742E7
:1097F000800E47420070004000200C490866FFF7C9
:10980000A5FB054606E0FFF7A1FB401B022801D996
:109810000320EFE506480068C0F340600028F2D15D
:1098200001E00120E6E50020E4E5000000004742F9
:109830000038024070B504460E4615460CB90120AA
:1098400070BD94F8490028B9002084F848002046EB
:1098500000F01CF804F108012068F8F7FBFA314623
:10986000A2682068F8F724FB2946236BD4E901029B
:10987000F8F7CCFAA168206850F8210040F0010008
:10988000A268216841F822000020D9E710B50446FB
:10989000FFF7EEF910BD7047704710B504460CB9DC
:1098A000012010BD94F83D0028B9002084F83C0048
:1098B000204600F00CF8022084F83D00211D2068AD
:1098C00007F0B8FE012084F83D000020E9E770476A
:1098D00001460868C06840F001000B68D86008685D
:1098E000806800F00702062A05D00868006840F08A
:1098F00001000B68186000207047704710B50446DF
:1099000020680069C0F34000D8B12068C068C0F387
:109910004000B0B16FF0020021680861012020779B
:109920002068806900F0030018B12046FFF7E5FFCA
:1099300005E0204600F0ADF8204600F0ABF800202E
:10994000207720680069C0F38000D8B12068C06823
:10995000C0F38000B0B16FF00400216808610220FC
:1099600020772068806900F4407018B12046FFF726
:10997000C4FF05E0204600F08CF8204600F08AF88D
:109980000020207720680069C0F3C000D8B12068AB
:10999000C068C0F3C000B0B16FF008002168086172
:1099A000042020772068C06900F0030018B1204629
:1099B000FFF7A3FF05E0204600F06BF8204600F01B
:1099C00069F80020207720680069C0F30010D8B142
:1099D0002068C068C0F30010B0B16FF010002168BB
:1099E0000861082020772068C06900F4407018B131
:1099F0002046FFF782FF05E0204600F04AF82046A7
:109A000000F048F8002020772068006900F001008D
:109A100058B12068C06800F0010030B16FF001005B
:109A200021680861204600F036F820680069C0F31C
:109A3000C01058B12068C068C0F3C01030B16FF0DA
:109A40008000216808612046FFF725FF2068006933
:109A5000C0F3801058B12068C068C0F3801030B1E6
:109A60006FF0400021680861204600F01DF8206872
:109A70000069C0F3401058B12068C068C0F34010BE
:109A800030B16FF02000216808612046FFF704FF25
:109A900010BD7047704710B504462068B0F1804F84
:109AA00001D1FFF759FA10BD704700002DE9F047CA
:109AB0008AB01F4616460D465FEA000A51D0FCF7F1
:109AC00057FA5046FAF74EFE0090D0F84C9026B167
:109AD0003046F6F757FC044600E0002455EA04003F
:109AE0003DD095B90098406BFDF7F0FA80463046BE
:109AF000FCF7A7F900991C4AC96A52680968114421
:109B000000EB41054046FDF7E1FA05950025ADF86B
:109B1000187068460795FAF78FFE4846FAF745FF32
:109B2000074604F1110205A94846FAF7A9FEB0B9A3
:109B300039464846FAF755FF029024B131460C30B9
:109B4000F6F742FC00E0057302A8FAF775FE5046EE
:109B50000AF068F8504609F01BFD0AF063F8FDF7BB
:109B600001FF0AB0BDE8F087B40D00202DE9FC41EB
:109B7000446805460146204608F0F6FE00286FD0EE
:109B8000FCF7F6F928680B3807287FD2DFE800F0E9
:109B90005A2B7E7E0448130025462046FAF7E2FD44
:109BA0000090806C04686846FAF746FE002C70D07E
:109BB0002846A0476DE02046FAF7D4FD0146009004
:109BC000E868427A012A0AD1027A42B902688B6DAA
:109BD0001A444368204613F0C2FF0099C8656846DE
:109BE000FAF72AFE55E026462046FAF7BBFD00901C
:109BF000876D6846FAF720FEEC6864B1D4E900028C
:109C0000C119237A304614F027FD207A08B10121CA
:109C100002E0022100E0032130460AF03FF938E07B
:109C20002046FAF79FFD0090866D6846FAF704FE1D
:109C3000E86870B305C881194FF0FF33204614F06F
:109C40000BFD26E02046FAF78DFD0090C76C6846B4
:109C5000FAF7F2FD3846FAF7A8FE064600240EE0B1
:109C60001BE013E021463846FAF7BBFE01908068FE
:109C700008B1FAF79DFC01A8FAF7DEFD641CB442B6
:109C8000F0DB3846FAF73CFE18F076FD284609F07E
:109C900049FABDE8FC41FDF765BEBDE8FC81F0B5C1
:109CA00085B00DF1280CBCE8F0004FF0000C8DE8F9
:109CB000F01000F003F805B0F0BD00002DE9FF5FE3
:109CC0001F46DDE90E9B14460E460546DDF848A00A
:109CD000FCF74EF944EA050030430BD1694648468B
:109CE00009F0DEFBBDF90400BDF90050BDF90260CA
:109CF000441B641CDFF89C8077B908F02FFE0746F0
:109D000008F114000068FCF7D1F8D8F8081000EB4F
:109D10004100396800EB41070AF144011E4B0391F1
:109D20004BF42070CDF80090CDE901033B4622466C
:109D30003146284609F03CF9040025D0FAF7DDFD4C
:109D400005462046FAF70EFD0090C56400221199E1
:109D500009F058F80F490098142214313430F6F7FE
:109D6000D3FA00994FF0FF3000220865C1E91502CF
:109D70000866D8F80C00886445466846FAF75CFD2A
:109D8000E868416820468847FDF7ECFD04B02046AE
:109D9000BDE8F09FB40D00206D9B000810B5416830
:109DA00006290DD004DC022910D0052913D104E0C6
:109DB0000C290ED012290ED105E00DF0F7FA0AE0B9
:109DC0000FF03CFD07E011F0C9FA04E00DF0C0FA15
:109DD00001E011F05BF8002010BD1CB502004FF04F
:109DE000000012D06946104609F0D0FABDF9020011
:109DF0004242BDF9000041426846FCF7B3FEBDF99E
:109E00000600BDF90210401A401C1CBD7CB50D4671
:109E100006004FF0000419D0FCF7AAF83046FAF714
:109E2000A1FC0090C06CFAF7C0FDA84209D90098C7
:109E30002946C06CFAF7D5FD0190046801A8FAF72D
:109E4000FBFC6846FAF7F8FCFDF78CFD20467CBD6C
:109E500038B505004FF000040ED0FCF789F828460D
:109E6000FAF780FC0090C06CFAF79FFD0446684644
:109E7000FAF7E2FCFDF776FD204638BD38B505005F
:109E80004FF000040BD0FCF773F82846FAF76AFC91
:109E90000090C46D6846FAF7CFFCFDF763FD2046DD
:109EA00038BD0000044A0349116004490A69086189
:109EB000104670475C0A0020C00D0020C80D00202D
:109EC000F8B514460D46060015D0FCF751F830469B
:109ED000FAF748FC0090016EA94202D1416EA142FE
:109EE00004D0C0E91854304609F09CFE6846FAF7E1
:109EF000A3FCFDF737FDF8BD38B50C46050010D0C2
:109F0000FCF736F82846FAF72DFC00900CB1012139
:109F100000E0002180F86C106846FAF78DFCFDF730
:109F200021FD38BDF0B587B014460E46050033D08C
:109F3000002C31DBFCF71CF82846FAF713FC0190E3
:109F4000C76C01A8FAF778FC3846FAF72EFDB04244
:109F500020D331463846FAF744FD0090B8B104608A
:109F60006846FAF769FC284609F012FB03902520A1
:109F700002900495284609F055FE02A903980AF0BC
:109F8000C1FF284609F004FB09F04CFE02E06846D8
:109F9000FAF752FCFDF7E6FC07B0F0BD38B50C4609
:109FA000050018D0002C16DBFBF7E2FF2846FAF775
:109FB000D9FB0090816DA14208D08465284609F044
:109FC00031FE284609F0E4FA09F02CFE6846FAF75B
:109FD00033FCFDF7C7FC38BD00BFFEE710B500201D
:109FE0000F4908600F48006820F440200D490860C0
:109FF0000846006840F48020086000200A49C1F843
:10A00000A40202201BF00AFC01200549086002207E
:10A010001BF004FC00200449C1F8A00210BD0000A0
:10A02000A0824042000402400080404201200349D7
:10A0300008600349C1F8A40270470000A0824042B2
:10A040000080404210B500200F4908600F480068AA
:10A0500020F440200D4908600846006840F4802044
:10A06000086001200A49C1F8A40202201BF0D6FBB7
:10A0700001200549086002201BF0D0FB00200449A4
:10A08000C1F8A00210BD0000A082404200040240BE
:10A090000080404270B5054600241648006820F450
:10A0A000402014490860084600680860002616E051
:10A0B00000201149086002201BF0B0FB01200F496D
:10A0C000C1F8A0026006040E0B487C38006808B195
:10A0D000601CC4B201201BF0A1FB701CC6B2082E8C
:10A0E000E6DB15B9FFF7AEFF01E0FFF777FF20468B
:10A0F00070BD000000040240A08240420080404247
:10A1000070B504461548006820F4402013490860E3
:10A110000846006840F4802008600020104908606C
:10A12000002517E0E0090E49091D08606006040ECD
:10A1300002201BF073FB01200A49C1F8A002022093
:10A140001BF06CFB00200649086002201BF066FB38
:10A15000681CC5B2082DE5DB70BD0000000402409C
:10A16000A08240420080404210B50F48006820F4B1
:10A1700040200D4908600846006840F480200860CF
:10A1800001200A4908600A49C1F8A0021BF046FBF9
:10A1900000200649086001201BF040FB0020044914
:10A1A000C1F8A00210BD000000040240A482404299
:10A1B0000080404210B50E48006820F440200C4951
:10A1C00008600846006840F48020086000200949C3
:10A1D00008600949C1F8A40201201BF01FFB0120FF
:10A1E000044908600449C1F8A4021BF017FB10BD24
:10A1F00000040240A08240420080404210B500248A
:10A200001348006820F4402011490860084600689F
:10A21000086001200F4908601BF000FB01200E4977
:10A22000C1F8A0021BF0FAFA07E0601CC4B2FA2CD5
:10A2300003DDFFF7BFFF012010BD0648803800682E
:10A240000028F2D10349091F086000BFF4E70000AD
:10A2500000040240A482404200804042054B10B5F9
:10A2600002EB02121B68D2B2984703490968084002
:10A2700010BD0000F40C0020900D002002490A6877
:10A280000860104670470000900D002030B5014670
:10A2900001F01F04C1F34513CA0AE50205EB43159B
:10A2A0001544A8B230BD000070B50446002617481A
:10A2B0000588408845431548808846F60401884251
:10A2C00016D112488079012812D100200F498871D7
:10A2D0002A2048812B2088810021084604F0D0FCE8
:10A2E00001200A4988712B2048812A20888103E0B7
:10A2F0000021084604F0C4FC04F0DEFE002602E063
:10A3000003480480761CAE42FAD370BDF49E01204F
:10A310008000006C0449054A0968497C52F8211004
:10A320000969096808470000BC070020D40700201D
:10A3300010B53220FEF788FC002004F083FAFB49B8
:10A34000888008468088FF280ADB084680884FF608
:10A35000FF71884204D0F5488088B0F5134F7CD156
:10A36000D32004F0A3FE04F0E1F8F049888004F063
:10A37000DDF8EE49888004F0D9F8EC498880084679
:10A3800080884FF6FF7101EA0020E849888004F0D8
:10A39000CDF8E64989880843E449888008468088E2
:10A3A00049F24131884258D0BF2004F07FFE04F0CA
:10A3B000BDF8DE49888004F0B9F8DC49888004F0F3
:10A3C000B5F8DA49888004F0B1F8D84988800846A1
:10A3D00080884FF6FF7101EA0020D449888004F09C
:10A3E000A5F8D24989880843D049888008468088E2
:10A3F00046F6040188427AD0D42004F057FE04F0D7
:10A4000095F8CA49888004F091F8C849888004F01A
:10A410008DF8C6498880084680884FF6FF7101EAAA
:10A420000020C249888004F081F8C0498988084327
:10A43000BE4988800846808845F21031884256D04F
:10A440004FF45A4004F032FE04F070F8B7498880A7
:10A450004FF45B4004F02AFE00E048E004F066F8A8
:10A46000B2498880084680884FF6FF7101EA0020D3
:10A47000AE4988804FF45C4004F018FE04F056F8B2
:10A48000AA4989880843A949888008468088B0F588
:10A49000004F02D145F210508880A448808845F2D0
:10A4A0001051884223D0A12004F000FE04F03EF8B1
:10A4B0009E49888004F03AF89C4988800846808844
:10A4C0004FF6FF7101EA00209849888004F02EF8C9
:10A4D000964989880843954988800846808845F2CE
:10A4E0006171884203D141F66310904988808F489A
:10A4F000808849F2413188427ED1CF2004F0D6FDD8
:10A50000002004F0CDFDC12004F0CAFD302004F08D
:10A51000C7FDED2004F0CAFD642004F0C1FD032056
:10A5200004F0BEFD122004F0BBFD812004F0B8FD54
:10A53000E82004F0BBFD852004F0B2FD102004F0FB
:10A54000AFFD7A2004F0ACFDCB2004F0AFFD392044
:10A5500004F0A6FD2C2004F0A3FD002004F0A0FDD3
:10A56000342004F09DFD022004F09AFDF72004F051
:10A570009DFD202004F094FDEA2004F097FD0020CA
:10A5800004F08EFD002004F08BFDC02004F08EFD51
:10A590001B2004F085FDC12004F088FD012004F09B
:10A5A0007FFDC52004F082FD302004F079FD3020CD
:10A5B00004F076FDC72004F079FDB72004F070FDAB
:10A5C000362004F073FD482004F06AFD3A2004F0C0
:10A5D0006DFD552004F064FDB12004F067FD0020FE
:10A5E00004F05EFD1A2004F05BFDB62004F05EFD71
:10A5F0000A2004F055FD00E09AE0A22004F050FD8E
:10A60000F22004F053FD002004F04AFD262004F05F
:10A610004DFD012004F044FDE02004F047FD0F2033
:10A6200004F03EFD2A2004F03BFD282004F038FD14
:10A63000082004F035FD0E2004F032FD082004F05F
:10A640002FFD542004F02CFDA92004F029FD432007
:10A6500004F026FD0A2004F023FD0F2004F020FD65
:10A66000002004F01DFD002004F01AFD002004F07D
:10A6700017FD002004F014FDE12004F017FD002078
:10A6800004F00EFD152004F00BFD172004F008FD6A
:10A69000072004F005FD112004F002FD062004F05F
:10A6A000FFFC2B2004F0FCFC562004F0F9FC3C20BD
:10A6B00004F0F6FC052004F0F3FC102004F0F0FC9C
:10A6C0000F2004F0EDFC3F2004F0EAFC3F2004F0F2
:10A6D000E7FC0F2004F0E4FC2B2004F0E7FC002052
:10A6E00004F0DEFC002004F0DBFC012004F0D8FCC8
:10A6F0003F2004F0D5FC2A2004F0D8FC002004F010
:10A70000CFFC002004F0CCFC002004F0C9FCEF20BA
:10A7100004F0C6FC112004F0C9FC7820FEF794FA7E
:10A72000292004F0C3FC03F01DB90000F49E0120B1
:10A73000FE48808846F6040188427CD1112004F04E
:10A74000B5FC1420FEF780FAD02004F0AFFC0720FF
:10A7500004F0A6FC422004F0A3FC1D2004F0A0FCA1
:10A76000D12004F0A3FC002004F09AFC1A2004F08D
:10A7700097FC092004F094FCD22004F097FC0120FF
:10A7800004F08EFC222004F08BFCC02004F08EFC30
:10A79000102004F085FC3B2004F082FC002004F033
:10A7A0007FFC022004F07CFC112004F079FCC52021
:10A7B00004F07CFC032004F073FCC82004F076FC59
:10A7C000002004F06DFC252004F06AFC212004F038
:10A7D00067FC052004F064FC002004F061FC0A2002
:10A7E00004F05EFC652004F05BFC252004F058FCBE
:10A7F000772004F055FC502004F052FC0F2004F0A8
:10A800004FFC002004F04CFCF82004F04FFC012029
:10A8100004F046FCFE2004F049FC002004F040FC5B
:10A82000022004F03DFC202004F040FC362004F01F
:10A830003DFC082000E02CE004F032FC3A2004F05B
:10A8400035FC552004F02CFC2B2004F02FFC0020BC
:10A8500004F026FC002004F023FC012004F020FC7E
:10A860003F2004F01DFC2A2004F020FC002004F00E
:10A8700017FC002004F014FC012004F011FCDF2080
:10A8800004F00EFC7820FEF7DFF9292004F00EFC1E
:10A8900049E7A648808845F21031884240F07C871D
:10A8A000ED2004F003FC012004F0FAFBFE2004F08C
:10A8B000F7FBEE2004F0FAFBDE2004F0F1FB212090
:10A8C00004F0EEFBF12004F0F1FB012004F0E8FBC2
:10A8D000DF2004F0EBFB102004F0E2FBC42004F0C6
:10A8E000E5FB8F2004F0DCFBC62004F0DFFB00203A
:10A8F00004F0D6FBE22004F0D3FBE22004F0D0FB0E
:10A90000E22004F0CDFBBF2004F0D0FBAA2004F02D
:10A91000C7FBB02004F0CAFB0D2004F0C1FB0020EF
:10A9200004F0BEFB0D2004F0BBFB002004F0B8FBDC
:10A93000112004F0B5FB002004F0B2FB192004F054
:10A94000AFFB002004F0ACFB212004F0A9FB0020A9
:10A9500004F0A6FB2D2004F0A3FB002004F0A0FBD4
:10A960003D2004F09DFB002004F09AFB5D2004F0E4
:10A9700097FB002004F094FB5D2004F091FB002085
:10A9800004F08EFBB12004F091FB802004F088FBE2
:10A99000002004F085FB8B2004F082FB002004F0F3
:10A9A0007FFB962004F07CFB002004F079FBB220B2
:10A9B00004F07CFB002004F073FB002004F070FB2B
:10A9C000022004F06DFB002004F06AFB032004F079
:10A9D00067FB002004F064FBB32004F067FB002059
:10A9E00004F05EFB002004F05BFB002004F058FB49
:10A9F000002004F055FB002004F052FB002004F07E
:10AA00004FFB002004F04CFB002004F049FB002029
:10AA100004F046FB002004F043FB002004F040FB60
:10AA2000002004F03DFB002004F03AFB002004F07D
:10AA300037FB002004F034FB002004F031FB002041
:10AA400004F02EFB002004F02BFB002004F028FB78
:10AA5000002004F025FB002004F022FB002004F07D
:10AA60001FFB002004F01CFB002004F019FBB420A5
:10AA700004F01CFB8B2004F013FB002004F010FBFF
:10AA8000962004F00DFB002004F00AFBA12004F046
:10AA900007FB002004F004FBB52004F007FB0220B4
:10AAA00004F0FEFA002004F0FBFA032004F0F8FAA8
:10AAB000002004F0F5FA042004F0F2FA002004F07B
:10AAC000EFFAB62004F0F2FA002004F0E9FA0020D0
:10AAD00004F0E6FAB72004F0E9FA002004F0E0FA06
:10AAE000002004F0DDFA3F2004F0DAFA002004F040
:10AAF000D7FA5E2004F0D4FA002004F0D1FA6420E2
:10AB000004F0CEFA002004F0CBFA8C2004F0C8FA4E
:10AB1000002004F0C5FAAC2004F0C2FA002004F0D2
:10AB2000BFFADC2004F0BCFA002001E0F49E012012
:10AB300004F0B6FA702004F0B3FA002004F0B0FA82
:10AB4000902004F0ADFA002004F0AAFAEB2004F003
:10AB5000A7FA002004F0A4FADC2004F0A1FA0020F7
:10AB600004F09EFAB82004F0A1FA002004F098FA4C
:10AB7000002004F095FA002004F092FA002004F07E
:10AB80008FFA002004F08CFA002004F089FA0020EB
:10AB900004F086FA002004F083FABA2004F086FA62
:10ABA000242004F07DFA002004F07AFA002004F05A
:10ABB00077FA002004F074FAC12004F077FA20201C
:10ABC00004F06EFA002004F06BFA542004F068FAE6
:10ABD000002004F065FAFF2004F062FA002004F07F
:10ABE0005FFAC22004F062FA0A2004F059FA002049
:10ABF00004F056FA042004F053FA002004F050FA4E
:10AC0000C32004F053FA3C2004F04AFA002004F078
:10AC100047FA3A2004F044FA002004F041FA3920BF
:10AC200004F03EFA002004F03BFA372004F038FA32
:10AC3000002004F035FA3C2004F032FA002004F041
:10AC40002FFA362004F02CFA002004F029FA3220E2
:10AC500004F026FA002004F023FA2F2004F020FA52
:10AC6000002004F01DFA2C2004F01AFA002004F051
:10AC700017FA292004F014FA002004F011FA262013
:10AC800004F00EFA002004F00BFA242004F008FA75
:10AC9000002004F005FA242004F002FA002004F059
:10ACA000FFF9232004F0FCF9002004F0F9F93C201E
:10ACB00004F0F6F9002004F0F3F9362004F0F0F97E
:10ACC000002004F0EDF9322004F0EAF9002004F04D
:10ACD000E7F92F2004F0E4F9002004F0E1F92C203A
:10ACE00004F0DEF9002004F0DBF9292004F0D8F9A3
:10ACF000002004F0D5F9262004F0D2F9002004F059
:10AD0000CFF9242004F0CCF9002004F0C9F9242064
:10AD100004F0C6F9002004F0C3F9232004F0C0F9C0
:10AD2000002004F0BDF9C42004F0C0F9622004F052
:10AD3000B7F9002004F0B4F9052004F0B1F90020BF
:10AD400004F0AEF9842004F0ABF9002004F0A8F977
:10AD5000F02004F0A5F9002004F0A2F9182004F076
:10AD60009FF9002004F09CF9A42004F099F9002038
:10AD700004F096F9182004F093F9002004F090F9FB
:10AD8000502004F08DF9002004F08AF90C2004F022
:10AD900087F9002004F084F9172004F081F90020DD
:10ADA00004F07EF9952004F07BF9002004F078F996
:10ADB000F32004F075F9002004F072F9E62004F0A5
:10ADC0006FF9002004F06CF9C52004F06FF932200F
:10ADD00004F066F9002004F063F9442004F060F9FF
:10ADE000002004F05DF9652004F05AF9002004F019
:10ADF00057F9762004F054F9002004F051F9882026
:10AE000004F04EF9002004F04BF9C62004F04EF98E
:10AE1000202004F045F9002004F042F9172004F046
:10AE20003FF9002004F03CF9012004F039F900203A
:10AE300004F036F9C72004F039F9002004F030F9A5
:10AE4000002004F02DF9002004F02AF9002004F07D
:10AE500027F9C82004F02AF9002004F021F9002085
:10AE600004F01EF9002004F01BF9002004F018F98A
:10AE7000C92004F01BF9002004F012F9002004F0AE
:10AE80000FF9002004F00CF9002004F009F900206B
:10AE900004F006F9002004F003F9002004F000F9A2
:10AEA000002004F0FDF8002004F0FAF8002004F07F
:10AEB000F7F8002004F0F4F8002004F0F1F8002086
:10AEC00004F0EEF8002004F0EBF8002004F0E8F8BD
:10AED000002004F0E5F8E02004F0E8F8162004F083
:10AEE000DFF8002004F0DCF81C2004F0D9F8002082
:10AEF00004F0D6F8212004F0D3F8002004F0D0F8B4
:10AF0000362004F0CDF8002004F0CAF8462004F002
:10AF1000C7F8002004F0C4F8522004F0C1F8002063
:10AF200004F0BEF8642004F0BBF8002004F0B8F888
:10AF30007A2004F0B5F8002004F0B2F88B2004F079
:10AF4000AFF8002004F0ACF8992004F0A9F8002034
:10AF500004F0A6F8A82004F0A3F8002004F0A0F85C
:10AF6000B92004F09DF8002004F09AF8C42004F001
:10AF700097F8002004F094F8CA2004F091F800201B
:10AF800004F08EF8D22004F08BF8002004F088F84A
:10AF9000D92004F085F8002004F082F8E02004F0C5
:10AFA0007FF8002004F07CF8F32004F079F800200A
:10AFB00004F076F8E12004F079F8162004F070F837
:10AFC000002004F06DF81C2004F06AF8002004F062
:10AFD00067F8222004F064F8002004F061F83620BD
:10AFE00004F05EF8002004F05BF8452004F058F807
:10AFF000002004F055F8522004F052F8002004F02C
:10B000004FF8642004F04CF8002004F049F87A204E
:10B0100004F046F8002004F043F88B2004F040F8D8
:10B02000002004F03DF8992004F03AF8002004F0E4
:10B0300037F8A82004F034F8002004F031F8B920E3
:10B0400004F02EF8002004F02BF8C42004F028F8B7
:10B05000002004F025F8CA2004F022F8002004F0B3
:10B060001FF8D22004F01CF8002004F019F8D820B2
:10B0700004F016F8002004F013F8E02004F010F8B3
:10B08000002004F00DF8F32004F00AF8002004F08A
:10B0900007F8E22004F00AF8052004F001F8002087
:10B0A00003F0FEFF0B2003F0FBFF002003F0F8FF8E
:10B0B0001B2003F0F5FF002003F0F2FF342003F023
:10B0C000EFFF002003F0ECFF442003F0E9FF002035
:10B0D00003F0E6FF4F2003F0E3FF002003F0E0FF62
:10B0E000612003F0DDFF002003F0DAFF792003F098
:10B0F000D7FF002003F0D4FF882003F0D1FF002009
:10B1000003F0CEFF972003F0CBFF002003F0C8FF31
:10B11000A62003F0C5FF002003F0C2FFB72003F014
:10B12000BFFF002003F0BCFFC22003F0B9FF0020E6
:10B1300003F0B6FFC72003F0B3FF002003F0B0FF19
:10B14000D12003F0ADFF002003F0AAFFD62003F0CA
:10B15000A7FF002003F0A4FFDD2003F0A1FF0020E3
:10B1600003F09EFFF32003F09BFF002003F098FF05
:10B17000E32003F09BFF052003F092FF002003F083
:10B180008FFF0A2003F08CFF002003F089FF1C20B2
:10B1900003F086FF002003F083FF332003F080FFDD
:10B1A000002003F07DFF442003F07AFF002003F02D
:10B1B00077FF502003F074FF002003F071FF62203E
:10B1C00003F06EFF002003F06BFF782003F068FFB0
:10B1D000002003F065FF882003F062FF002003F0E9
:10B1E0005FFF972003F05CFF002003F059FFA620CB
:10B1F00003F056FF002003F053FFB72003F050FF89
:10B20000002003F04DFFC22003F04AFF002003F0AE
:10B2100047FFC72003F044FF002003F041FFD12087
:10B2200003F03EFF002003F03BFFD52003F038FF82
:10B23000002003F035FFDD2003F032FF002003F093
:10B240002FFFF32003F02CFF002003F029FFE42060
:10B2500003F02CFF012003F023FF002003F020FF68
:10B26000012003F01DFF002003F01AFF022003F06D
:10B2700017FF002003F014FF2A2003F011FF002025
:10B2800003F00EFF3C2003F00BFF002003F008FF4B
:10B290004B2003F005FF002003F002FF5D2003F0C8
:10B2A000FFFE002003F0FCFE742003F0F9FE0020F6
:10B2B00003F0F6FE842003F0F3FE002003F0F0FE1E
:10B2C000932003F0EDFE002003F0EAFEA22003F03D
:10B2D000E7FE002003F0E4FEB32003F0E1FE0020CF
:10B2E00003F0DEFEBE2003F0DBFE002003F0D8FEFC
:10B2F000C42003F0D5FE002003F0D2FECD2003F0E1
:10B30000CFFE002003F0CCFED32003F0C9FE0020C6
:10B3100003F0C6FEDD2003F0C3FE002003F0C0FEF4
:10B32000F32003F0BDFE002003F0BAFEE52003F099
:10B33000BDFE002003F0B4FE002003F0B1FE0020AB
:10B3400003F0AEFE002003F0ABFE022003F0A8FEE7
:10B35000002003F0A5FE292003F0A2FE002003F048
:10B360009FFE3C2003F09CFE002003F099FE4B2042
:10B3700003F096FE002003F093FE5D2003F090FEA4
:10B38000002003F08DFE742003F08AFE002003F0FD
:10B3900087FE842003F084FE002003F081FE9320CA
:10B3A00003F07EFE002003F07BFEA22003F078FE77
:10B3B000002003F075FEB32003F072FE002003F0BE
:10B3C0006FFEBE2003F06CFE002003F069FEC42077
:10B3D00003F066FE002003F063FECD2003F060FE64
:10B3E000002003F05DFED32003F05AFE002003F09E
:10B3F00057FEDC2003F054FE002003F051FEF32042
:10B4000003F04EFE002003F04BFEE62003F04EFE5C
:10B41000112003F045FE002003F042FE342003F02B
:10B420003FFE002003F03CFE562003F039FE0020D2
:10B4300003F036FE762003F033FE002003F030FEEA
:10B44000772003F02DFE002003F02AFE662003F093
:10B4500027FE002003F024FE882003F021FE0020B8
:10B4600003F01EFE992003F01BFE002003F018FEDF
:10B47000BB2003F015FE002003F012FE992003F01C
:10B480000FFE002003F00CFE662003F009FE0020F2
:10B4900003F006FE552003F003FE002003F000FE3B
:10B4A000552003F0FDFD002003F0FAFD452003F0D8
:10B4B000F7FD002003F0F4FD432003F0F1FD002030
:10B4C00003F0EEFD442003F0EBFD002003F0E8FD67
:10B4D000E72003F0EBFD322003F0E2FD002003F053
:10B4E000DFFD552003F0DCFD002003F0D9FD7620C0
:10B4F00003F0D6FD002003F0D3FD662003F0D0FD5D
:10B50000002003F0CDFD672003F0CAFD002003F00A
:10B51000C7FD672003F0C4FD002003F0C1FD8720B4
:10B5200003F0BEFD002003F0BBFD992003F0B8FD41
:10B53000002003F0B5FDBB2003F0B2FD002003F0B6
:10B54000AFFD992003F0ACFD002003F0A9FD7720AA
:10B5500003F0A6FD002003F0A3FD442003F0A0FDAE
:10B56000002003F09DFD562003F09AFD002003F01B
:10B5700097FD232003F094FD002003F091FD33207C
:10B5800003F08EFD002003F08BFD452003F088FDC5
:10B59000002003F085FDE82003F088FD002003F083
:10B5A0007FFD002003F07CFD992003F079FD002051
:10B5B00003F076FD872003F073FD002003F070FD9B
:10B5C000882003F06DFD002003F06AFD772003F072
:10B5D00067FD002003F064FD662003F061FD00209C
:10B5E00003F05EFD882003F05BFD002003F058FDB2
:10B5F000AA2003F055FD002003F052FDBB2003F00C
:10B600004FFD002003F04CFD992003F049FD002080
:10B6100003F046FD662003F043FD002003F040FDEB
:10B62000552003F03DFD002003F03AFD552003F0C6
:10B6300037FD002003F034FD442003F031FD0020ED
:10B6400003F02EFD442003F02BFD002003F028FD25
:10B65000552003F025FD002003F022FDE92003F032
:10B6600025FDAA2003F01CFD002003F019FD002099
:10B6700003F016FD002003F013FD002003F016FD7B
:10B68000AA2003F00DFDCF2003F010FD002003F0F1
:10B6900007FD002003F004FD002003F001FD002061
:10B6A00003F0FEFC002003F0FBFC002003F0F8FC9C
:10B6B000002003F0F5FC002003F0F2FC002003F072
:10B6C000EFFC002003F0ECFC002003F0E9FC00207C
:10B6D00003F0E6FC002003F0E3FC002003F0E0FCB4
:10B6E000002003F0DDFC002003F0DAFC002003F072
:10B6F000D7FCF02003F0DAFC002003F0D1FC50204E
:10B7000003F0CEFC002003F0CBFC002003F0C8FCCB
:10B71000002003F0C5FCF32003F0C8FC002003F078
:10B72000BFFCF92003F0C2FC062003F0B9FC102096
:10B7300003F0B6FC292003F0B3FC002003F0B0FCBA
:10B740003A2003F0B3FC552003F0AAFC112003F0CB
:10B75000ADFC6420FDF778FA292003F0A7FC352022
:10B7600003F0A4FC002003F09BFC512003F09EFC9E
:10B77000FF2003F095FC532003F098FC2C2003F0ED
:10B780008FFC552003F092FC822003F089FC2C20D2
:10B7900003F08CFC02F0E6B8FE48808845F21051B8
:10B7A00088427DD155214FF4704003F08FFCAA21CF
:10B7B0004FF2010003F08AFC52214FF2020003F025
:10B7C00085FC08214FF2030003F080FC01214FF2B9
:10B7D000040003F07BFC0D214FF4304003F076FCB5
:10B7E0000D214BF2010003F071FC0D214BF2020020
:10B7F00003F06CFC34214FF4364003F067FC342135
:10B800004BF2016003F062FC34214BF2026003F062
:10B810005DFC0D214FF4314003F058FC0D214BF23B
:10B82000011003F053FC0D214BF2021003F04EFC0B
:10B8300034214FF4374003F049FC34214BF20170BE
:10B8400003F044FC34214BF2027003F03FFC002172
:10B850004FF4324003F03AFC00214BF2012003F098
:10B8600035FC00214BF2022003F030FC24214FF480
:10B87000384003F02BFC24214BF6010003F026FC9A
:10B8800024214BF6020003F021FC01214FF43F403C
:10B8900003F01CFC0F214FF4334003F017FC00E0D1
:10B8A000FDE30F214BF2013003F010FC0F214BF2AE
:10B8B000023003F00BFC34214FF4394003F006FC56
:10B8C00034214BF6011003F001FC34214BF6021039
:10B8D00003F0FCFB08214FF4354003F0F7FB08218F
:10B8E0004BF2015003F0F2FB08214BF2025003F03F
:10B8F000EDFB03214FF4424003F0E8FB24214FF419
:10B900003A4003F0E3FB24214BF6012003F0DEFB79
:10B9100024214BF6022003F0D9FB00214FF43C40D8
:10B9200003F0D4FB78214BF6014003F0CFFB00215C
:10B930004BF6024003F0CAFB00214FF43D4003F0F8
:10B94000C5FB78214BF6015003F0C0FB00214BF6FC
:10B95000025003F0BBFB00214FF43E4003F0B6FB66
:10B9600064214BF6016003F0B1FB00214FF451401C
:10B9700003F0ACFB33214DF2011003F0A7FB0021D3
:10B980004DF2021003F0A2FB34214DF2031003F03C
:10B990009DFB00214DF2041003F098FB3A214DF27B
:10B9A000051003F093FB00214DF2061003F08EFB0F
:10B9B0004A214DF2071003F089FB00214DF20810D7
:10B9C00003F084FB5C214DF2091003F07FFB0021A2
:10B9D0004DF20A1003F07AFB81214DF20B1003F0B7
:10B9E00075FB00214DF20C1003F070FBA6214DF207
:10B9F0000D1003F06BFB00214DF20E1003F066FBFF
:10BA0000E5214DF20F1003F061FB01214DF2101002
:10BA100003F05CFB13214DF2111003F057FB0121E1
:10BA20004DF2121003F052FB54214DF2131003F0AB
:10BA30004DFB01214DF2141003F048FB82214DF221
:10BA4000151003F043FB01214DF2161003F03EFBED
:10BA5000CA214DF2171003F039FB02214DF21810E4
:10BA600003F034FB00214DF2191003F02FFB0221EB
:10BA70004DF21A1003F02AFB01214DF21B1003F0C6
:10BA800025FB02214DF21C1003F020FB34214DF266
:10BA90001D1003F01BFB02214DF21E1003F016FBDC
:10BAA00067214DF21F1003F011FB02214DF220100F
:10BAB00003F00CFB84214DF2211003F007FB02215F
:10BAC0004DF2221003F002FBA4214DF2231003F0EB
:10BAD000FDFA02214DF2241003F0F8FAB7214DF2DD
:10BAE000251003F0F3FA02214DF2261003F0EEFACE
:10BAF000CF214DF2271003F0E9FA02214DF2281070
:10BB000003F0E4FADE214DF2291003F0DFFA0221FE
:10BB10004DF22A1003F0DAFAF2214DF22B1003F065
:10BB2000D5FA02214DF22C1003F0D0FAFE214DF28D
:10BB30002D1003F0CBFA03214DF22E1003F0C6FABC
:10BB400010214DF22F1003F0C1FA03214DF23010F5
:10BB500003F0BCFA33214DF2311003F0B7FA0321A0
:10BB60004DF2321003F0B2FA6D214DF2331003F0B2
:10BB7000ADFA00214FF4524003F0A8FA33214DF200
:10BB8000012003F0A3FA00214DF2022003F09EFAF7
:10BB9000342101E0F49E01204DF2032003F096FAD7
:10BBA00000214DF2042003F091FA3A214DF20520D4
:10BBB00003F08CFA00214DF2062003F087FA4A21A7
:10BBC0004DF2072003F082FA00214DF2082003F025
:10BBD0007DFA5C214DF2092003F078FA00214DF244
:10BBE0000A2003F073FA81214DF20B2003F06EFA64
:10BBF00000214DF20C2003F069FAA6214DF20D2030
:10BC000003F064FA00214DF20E2003F05FFAE52103
:10BC10004DF20F2003F05AFA01214DF2102003F0EB
:10BC200055FA13214DF2112003F050FA01214DF283
:10BC3000122003F04BFA54214DF2132003F046FA80
:10BC400001214DF2142003F041FA82214DF215201A
:10BC500003F03CFA01214DF2162003F037FACA2115
:10BC60004DF2172003F032FA02214DF2182003F0B2
:10BC70002DFA00214DF2192003F028FA02214DF28D
:10BC80001A2003F023FA01214DF21B2003F01EFAC3
:10BC900002214DF21C2003F019FA34214DF21D202F
:10BCA00003F014FA02214DF21E2003F00FFA67216F
:10BCB0004DF21F2003F00AFA02214DF2202003F07A
:10BCC00005FA84214DF2212003F000FA02214DF201
:10BCD000222003F0FBF9A4214DF2232003F0F6F912
:10BCE00002214DF2242003F0F1F9B7214DF2252075
:10BCF00003F0ECF902214DF2262003F0E7F9CF2101
:10BD00004DF2272003F0E2F902214DF2282003F042
:10BD1000DDF9DE214DF2292003F0D8F902214DF2A0
:10BD20002A2003F0D3F9F2214DF22B2003F0CEF9B3
:10BD300002214DF22C2003F0C9F9FE214DF22D20F5
:10BD400003F0C4F903214DF22E2003F0BFF91021B6
:10BD50004DF22F2003F0BAF903214DF2302003F009
:10BD6000B5F933214DF2312003F0B0F903214DF242
:10BD7000322003F0ABF96D214DF2332003F0A6F928
:10BD800000214FF4534003F0A1F933214DF201306B
:10BD900003F09CF900214DF2023003F097F93421B1
:10BDA0004DF2033003F092F900214DF2043003F01C
:10BDB0008DF93A214DF2053003F088F900214DF25A
:10BDC000063003F083F94A214DF2073003F07EF983
:10BDD00000214DF2083003F079F95C214DF2093071
:10BDE00003F074F900214DF20A3003F06FF981215C
:10BDF0004DF20B3003F06AF900214DF20C3003F0E4
:10BE000065F9A6214DF20D3003F060F900214DF2E5
:10BE10000E3003F05BF9E5214DF20F3003F056F9D7
:10BE200001214DF2103003F051F913214DF2113080
:10BE300003F04CF901214DF2123003F047F954217F
:10BE40004DF2133003F042F901214DF2143003F0AA
:10BE50003DF982214DF2153003F038F901214DF200
:10BE6000163003F033F9CA214DF2173003F02EF9E2
:10BE700002214DF2183003F029F900214DF219305A
:10BE800003F024F902214DF21A3003F01FF90121C9
:10BE90004DF21B3003F01AF902214DF21C3003F071
:10BEA00015F934214DF21D3003F010F902214DF245
:10BEB0001E3003F00BF967214DF21F3003F006F935
:10BEC00002214DF2203003F001F984214DF221309E
:10BED00003F0FCF802214DF2223003F0F7F8A42120
:10BEE0004DF2233003F0F2F802214DF2243003F03A
:10BEF000EDF8B7214DF2253003F0E8F802214DF2BC
:10BF0000263003F0E3F8CF214DF2273003F0DEF8BE
:10BF100002214DF2283003F0D9F8DE214DF229300C
:10BF200003F0D4F802214DF22A3003F0CFF8F221C9
:10BF30004DF22B3003F0CAF802214DF22C3003F001
:10BF4000C5F8FE214DF22D3003F0C0F803214DF26B
:10BF50002E3003F0BBF810214DF22F3003F0B6F86D
:10BF600003214DF2303003F0B1F833214DF231307E
:10BF700003F0ACF803214DF2323003F0A7F86D2145
:10BF80004DF2333003F0A2F800214FF4544003F097
:10BF90009DF833214DF2014003F098F800214DF255
:10BFA000024003F093F834214DF2034003F08EF881
:10BFB00000214DF2044003F089F83A214DF205408A
:10BFC00003F084F800214DF2064003F07FF84A2187
:10BFD0004DF2074003F07AF800214DF2084003F0DB
:10BFE00075F85C214DF2094003F070F800214DF224
:10BFF0000A4003F06BF881214DF20B4003F066F824
:10C0000000214DF20C4003F061F8A6214DF20D40E5
:10C0100003F05CF800214DF20E4003F057F8E521E3
:10C020004DF20F4003F052F801214DF2104003F0A1
:10C030004DF813214DF2114003F048F801214DF263
:10C04000124003F043F854214DF2134003F03EF840
:10C0500001214DF2144003F039F882214DF21540D0
:10C0600003F034F801214DF2164003F02FF8CA21F5
:10C070004DF2174003F02AF802214DF2184003F068
:10C0800025F800214DF2194003F020F802214DF26D
:10C090001A4003F01BF801214DF21B4000E006E3BB
:10C0A00003F014F802214DF21C4003F00FF8342184
:10C0B0004DF21D4003F00AF802214DF21E4003F03C
:10C0C00005F867214DF21F4003F000F802214DF200
:10C0D000204002F0FBFF84214DF2214002F0F6FFE8
:10C0E00002214DF2224002F0F1FFA4214DF2234043
:10C0F00002F0ECFF02214DF2244002F0E7FFB721ED
:10C100004DF2254002F0E2FF02214DF2264002F0FE
:10C11000DDFFCF214DF2274002F0D8FF02214DF282
:10C12000284002F0D3FFDE214DF2294002F0CEFF7D
:10C1300002214DF22A4002F0C9FFF2214DF22B40BC
:10C1400002F0C4FF02214DF22C4002F0BFFFFE219D
:10C150004DF22D4002F0BAFF03214DF22E4002F0C5
:10C16000B5FF10214DF22F4002F0B0FF03214DF238
:10C17000304002F0ABFF33214DF2314002F0A6FF18
:10C1800003214DF2324002F0A1FF6D214DF2334008
:10C1900002F09CFF00214FF4554002F097FF33213D
:10C1A0004DF2015002F092FF00214DF2025002F0D8
:10C1B0008DFF34214DF2035002F088FF00214DF233
:10C1C000045002F083FF3A214DF2055002F07EFF49
:10C1D00000214DF2065002F079FF4A214DF207503E
:10C1E00002F074FF00214DF2085002F06FFF5C2155
:10C1F0004DF2095002F06AFF00214DF20A5002F0A0
:10C2000065FF81214DF20B5002F060FF00214DF2DD
:10C210000C5002F05BFFA6214DF20D5002F056FFCC
:10C2200000214DF20E5002F051FFE5214DF20F506A
:10C2300002F04CFF01214DF2105002F047FF132194
:10C240004DF2115002F042FF01214DF2125002F066
:10C250003DFF54214DF2135002F038FF01214DF201
:10C26000145002F033FF82214DF2155002F02EFFE0
:10C2700001214DF2165002F029FFCA214DF217504C
:10C2800002F024FF02214DF2185002F01FFF00219E
:10C290004DF2195002F01AFF02214DF21A5002F02D
:10C2A00015FF01214DF21B5002F010FF02214DF24B
:10C2B0001C5002F00BFF34214DF21D5002F006FF1E
:10C2C00002214DF21E5002F001FF67214DF21F5076
:10C2D00002F0FCFE02214DF2205002F0F7FE842114
:10C2E0004DF2215002F0F2FE02214DF2225002F0F6
:10C2F000EDFEA4214DF2235002F0E8FE02214DF2A2
:10C30000245002F0E3FEB7214DF2255002F0DEFE8C
:10C3100002214DF2265002F0D9FECF214DF22750D6
:10C3200002F0D4FE02214DF2285002F0CFFEDE21B1
:10C330004DF2295002F0CAFE02214DF22A5002F0BD
:10C34000C5FEF2214DF22B5002F0C0FE02214DF24B
:10C350002C5002F0BBFEFE214DF22D5002F0B6FE35
:10C3600003214DF22E5002F0B1FE10214DF22F505C
:10C3700002F0ACFE03214DF2305002F0A7FE332153
:10C380004DF2315002F0A2FE03214DF2325002F084
:10C390009DFE6D214DF2335002F098FE00214FF4C6
:10C3A000564002F093FE33214DF2016002F08EFE02
:10C3B00000214DF2026002F089FE34214DF203604B
:10C3C00002F084FE00214DF2046002F07FFE3A216B
:10C3D0004DF2056002F07AFE00214DF2066002F097
:10C3E00075FE4A214DF2076002F070FE00214DF209
:10C3F000086002F06BFE5C214DF2096002F066FEFF
:10C4000000214DF20A6002F061FE81214DF20B60C5
:10C4100002F05CFE00214DF20C6002F057FEA621F6
:10C420004DF20D6002F052FE00214DF20E6002F05E
:10C430004DFEE5214DF20F6002F048FE01214DF264
:10C44000106002F043FE13214DF2116002F03EFE37
:10C4500001214DF2126002F039FE54214DF21360B9
:10C4600002F034FE01214DF2146002F02FFE822111
:10C470004DF2156002F02AFE01214DF2166002F025
:10C4800025FECA214DF2176002F020FE02214DF276
:10C49000186002F01BFE00214DF2196002F016FE3A
:10C4A00002214DF21A6002F011FE01214DF21B60D3
:10C4B00002F00CFE02214DF21C6002F007FE342156
:10C4C0004DF21D6002F002FE02214DF21E6002F0EC
:10C4D000FDFD67214DF21F6002F0F8FD02214DF2D3
:10C4E000206002F0F3FD84214DF2216002F0EEFDA8
:10C4F00002214DF2226002F0E9FDA4214DF22360F9
:10C5000002F0E4FD02214DF2246002F0DFFDB721CC
:10C510004DF2256002F0DAFD02214DF2266002F0B4
:10C52000D5FDCF214DF2276002F0D0FD02214DF262
:10C53000286002F0CBFDDE214DF2296002F0C6FD3D
:10C5400002214DF22A6002F0C1FDF2214DF22B6072
:10C5500002F0BCFD02214DF22C6002F0B7FDFE217D
:10C560004DF22D6002F0B2FD03214DF22E6002F07B
:10C57000ADFD10214DF22F6002F0A8FD03214DF218
:10C58000306002F0A3FD33214DF2316002F09EFDD8
:10C5900003214DF2326002F099FD6D214DF23360BE
:10C5A00002F094FD55214FF4704002F08FFDAA2156
:10C5B0004FF2010002F08AFD52214FF2020002F018
:10C5C00085FD08214FF2030002F080FD00214FF2AB
:10C5D000040002F07BFDCC214FF4314002F076FDE7
:10C5E00000214BF2011002F071FD05214FF436409D
:10C5F00002F06CFD70214FF4374002F067FD7021AE
:10C600004BF2017002F062FD01214FF4384002F05C
:10C610005DFD03214BF6010002F058FD03214BF6AE
:10C62000020002F053FD03214BF6030002F04EFD21
:10C6300002214FF43C4002F049FD00214BF601403D
:10C6400002F044FD00214BF6024002F03FFDD021F4
:10C650004FF4494002F03AFD02214CF6011002F07D
:10C6600035FD50214CF6021002F030FD50214CF601
:10C67000031002F02BFD50214CF6041002F026FDB1
:10C6800000214FF4545002F021FD55214FF4685021
:10C6900002F01CFD4FF4885002F008FD782019F0DC
:10C6A000BDF84FF4245002F001FD01F05BB9FE48E3
:10C6B000808849F2253188427ED147F6F001E52095
:10C6C00002F004FD4FF48071012002F0FFFC4FF4F2
:10C6D000E061022002F0FAFC41F23001032002F096
:10C6E000F5FC0021042002F0F1FC40F202210820B8
:10C6F00002F0ECFC0021092002F0E8FC00210A20F5
:10C7000002F0E4FC00210C2002F0E0FC00210D20EE
:10C7100002F0DCFC00210F2002F0D8FC00211020E8
:10C7200002F0D4FC0721112002F0D0FC00211220DD
:10C7300002F0CCFC0021132002F0C8FC00210720ED
:10C7400002F0C4FC41F29061102002F0BFFC40F204
:10C750002721112002F0BAFC9D21122002F0B6FC24
:10C760004FF4C851132002F0B1FC2521292002F01A
:10C77000ADFC0D212B2002F0A9FC0721302002F096
:10C78000A5FC40F20331312002F0A0FC032132204D
:10C7900002F09CFC40F20621352002F097FC0821B3
:10C7A000362002F093FC40F20641372002F08EFC66
:10C7B0004FF44171382000E057E002F087FC072178
:10C7C000392002F083FC40F202613C2002F07EFC42
:10C7D00008213D2002F07AFC0021502002F076FC76
:10C7E000EF21512002F072FC0021522002F06EFC79
:10C7F00040F23F11532002F069FC4FF427416020C2
:10C8000002F064FC0121612002F060FC00216A203A
:10C8100002F05CFC0021802002F058FC0021812005
:10C8200002F054FC0021822002F050FC0021832001
:10C8300002F04CFC0021842002F048FC00218520FD
:10C8400002F044FC1021902002F040FC4FF4C06143
:10C85000922002F03BFC40F23311072002F036FC3C
:10C860002221002002F032FC1FE78F48808849F225
:10C87000283188427ED141F28F01EC2002F026FC63
:10C8800041F23421EF2002F021FC4FF480710120AD
:10C8900002F01CFC4FF4E061022002F017FC41F2B0
:10C8A0003001032002F012FC0021042002F00EFCF3
:10C8B00040F20221082002F009FC0021092002F0C8
:10C8C00005FC00210A2002F001FC01210C2002F0ED
:10C8D000FDFB00210D2002F0F9FB00210F2002F0EA
:10C8E000F5FB0021102002F0F1FB0721112002F0DE
:10C8F000EDFB0021122002F0E9FB0021132002F0E1
:10C90000E5FB0121072002F0E1FB3220FCF79CF956
:10C9100041F29041102002F0D9FB40F22721112072
:10C9200002F0D4FB3220FCF78FF98A21122002F0AA
:10C93000CDFB3220FCF788F94FF4D051132002F0E0
:10C94000C5FB0621292002F0C1FB0D212B2002F09E
:10C95000BDFB3220FCF778F90021202002F0B6FB65
:10C960000021212002F0B2FB3220FCF76DF90021FA
:10C97000302000E074E002F0A9FB40F204613120B5
:10C9800002F0A4FB40F20531322002F09FFB0021AF
:10C99000352002F09BFB40F60941362002F096FB61
:10C9A0004FF40171372002F091FB40F20131382041
:10C9B00002F08CFB40F20771392002F087FB002166
:10C9C0003C2002F083FB40F60A213D2002F07EFB72
:10C9D0003220FCF739F90021502002F077FBEF21DB
:10C9E000512002F073FB0021522002F06FFB40F255
:10C9F0003F11532002F06AFB4FF42741602002F000
:10CA000065FB0121612002F061FB00216A2002F038
:10CA10005DFB0021802002F059FB0021812002F003
:10CA200055FB0021822002F051FB0021832002F0FF
:10CA30004DFB0021842002F049FB0021852002F0FB
:10CA400045FB1021902002F041FB4FF4C061922081
:10CA500002F03CFB40F23311072002F037FB24E6E2
:10CA60001148808849F2203188427DD10021084652
:10CA700002F02CFB4FF48071012002F027FB4FF4F1
:10CA8000E061022002F022FB41F23001032002F0BB
:10CA90001DFB0021042002F019FB40F202210820B6
:10CAA00002F014FB002101E0F49E0120092002F0B5
:10CAB0000DFB00210A2002F009FB01210C2002F0ED
:10CAC00005FB00210D2002F001FB00210F2002F0E8
:10CAD000FDFA3220FCF7B8F840F20111072002F00D
:10CAE000F5FA3220FCF7B0F84FF48651102002F02E
:10CAF000EDFA0721112002F0E9FA4FF488711220B3
:10CB000002F0E4FA4FF43061132002F0DFFA002162
:10CB1000292002F0DBFA44F210012B2002F0D6FAB1
:10CB20000021502002F0D2FAEF21512002F0CEFA7B
:10CB30000021522002F0CAFA40F23F11532002F0C5
:10CB4000C5FA4FF41C51602002F0C0FA01216120A7
:10CB500002F0BCFA00216A2002F0B8FA002180201D
:10CB600002F0B4FA002100E031E0812002F0AEFAD8
:10CB70000021822002F0AAFA0021832002F0A6FA06
:10CB80000021842002F0A2FA0021852002F09EFA02
:10CB90001021902002F09AFA0021922002F096FAD9
:10CBA0000121932002F092FA4FF48871952002F04F
:10CBB0008DFA0021972002F089FA0021982002F0D6
:10CBC00085FA40F27311072002F080FA6DE5FE4805
:10CBD000808849F2313188427DD141F21401E72049
:10CBE00002F074FA4FF48071012002F06FFA4FF4F2
:10CBF0000071022002F06AFA41F23801032002F0CB
:10CC000065FA40F20221082002F060FA00210920B2
:10CC100002F05CFA00210A2002F058FA00210C20F0
:10CC200002F054FA00210D2002F050FA00210F20EA
:10CC300002F04CFA0021102002F048FA07211120DE
:10CC400002F044FA0021122002F040FA00211320E1
:10CC500002F03CFAC820FBF7F7FF41F29061102088
:10CC600002F034FA40F22721112002F02FFA32208C
:10CC7000FBF7EAFF0C21122002F028FA3220FBF722
:10CC8000E3FF4FF40061132002F020FA1121292064
:10CC900002F01CFA0B212B2002F018FA3220FBF7CD
:10CCA000D3FF0021202002F011FA40F23F11212091
:10CCB00002F00CFA0021302002F008FA4FF48371E0
:10CCC000312002F003FA0021322002F0FFF94FF484
:10CCD0000171352000E064E002F0F8F941F20A61E8
:10CCE000362002F0F3F940F20771372002F0EEF936
:10CCF0004FF48371382002F0E9F940F207713920CE
:10CD000002F0E4F940F202413C2002F0DFF940F683
:10CD10000F413D2002F0DAF90021502002F0D6F94F
:10CD2000EF21512002F0D2F90021522002F0CEF979
:10CD300040F23F11532002F0C9F94FF41C5160201A
:10CD400002F0C4F90121612002F0C0F900216A203B
:10CD500002F0BCF90021802002F0B8F90021812006
:10CD600002F0B4F90021822002F0B0F90021832002
:10CD700002F0ACF90021842002F0A8F900218520FE
:10CD800002F0A4F91021902002F0A0F94FF4C06144
:10CD9000922002F09BF940F23311072002F096F93D
:10CDA00083E48948808845F2084188427ED14FF467
:10CDB0008071012002F08AF94FF4E061022002F054
:10CDC00085F941F23001032002F080F900210420AE
:10CDD00002F07CF940F20721082002F077F90021E7
:10CDE000092002F073F900210A2002F06FF90021F6
:10CDF0000C2002F06BF900210D2002F067F90021F0
:10CE00000F2002F063F91420FBF71EFF41F2B0611E
:10CE1000102002F05BF90121112002F057F90121E5
:10CE2000172002F053F94FF49C71122002F04EF9D2
:10CE30004FF40061132002F049F90921292002F082
:10CE400045F909212A2002F041F90021A42002F02D
:10CE50003DF90021502002F039F9EF21512002F074
:10CE600035F90021522002F031F940F23F115320F0
:10CE700002F02CF94FF41C51602002F027F9012137
:10CE8000612002F023F900216A2002F01FF900213D
:10CE9000802002F01BF90021812002F017F9002107
:10CEA000822002F013F90021832000E023E002F049
:10CEB0000DF90021842002F009F90021852002F0FB
:10CEC00005F91321902002F001F90021922002F0CF
:10CED000FDF80321932002F0F9F84FF488719520B2
:10CEE00002F0F4F840F27311072002F0EFF832205C
:10CEF000FBF7AAFEB8E43448808841F20551884225
:10CF00007ED10021072002F0E1F83220FBF79CFEE1
:10CF10004FF48E71122002F0D9F80121A42002F002
:10CF2000D5F80F21082002F0D1F808210A2002F0DC
:10CF3000CDF808210D2002F0C9F840F20771302029
:10CF400002F0C4F80721312002F0C0F840F203617A
:10CF5000322002F0BBF84FF4E061332002F0B6F863
:10CF600040F20221342002F0B1F80221352002F013
:10CF7000ADF841F60F71362002F0A8F840F20771C3
:10CF8000372002F0A3F80021382002F09FF800219A
:10CF9000392002F09BF840F207713A2002F096F82F
:10CFA00000213B2002F092F807213C2002F08EF88D
:10CFB00000213D2002F08AF83220FBF745FE0121D6
:10CFC000072002F083F801E0F49E012001211720E0
:10CFD00002F07CF83220FBF737FE4FF4BD511020F1
:10CFE00002F074F840F21721112002F06FF84FF4AC
:10CFF0008F71122002F06AF84FF47061132000E084
:10D0000097E002F063F800212A2002F05FF80A217D
:10D01000292002F05BF84FF49F71122002F056F8BD
:10D020000021502002F052F8EF21512002F04EF87A
:10D030000021522002F04AF840F23F11532002F042
:10D0400045F84FF41C51602002F040F801216120A6
:10D0500002F03CF800216A2002F038F8002180201C
:10D0600002F034F80021812002F030F80021822003
:10D0700002F02CF80021832002F028F800218420FF
:10D0800002F024F80021852002F020F813219020DE
:10D0900002F01CF84FF44071922002F017F80521BD
:10D0A000932002F013F80021952002F00FF80021E0
:10D0B000972002F00BF80021982002F007F84FF4B7
:10D0C0008071012002F002F84FF4E061022001F0CB
:10D0D000FDFF41F23801032001F0F8FF0021042098
:10D0E00001F0F4FF00210C2001F0F0FF00210F20DF
:10D0F00001F0ECFF0021202001F0E8FF00212120B9
:10D1000001F0E4FF2121072001F0E0FF1420FBF7EC
:10D110009BFD6121072001F0D9FF1420FBF794FD4E
:10D1200040F27311072001F0D1FF1420FBF78CFDB2
:10D1300095E4FE4880884BF2055188427ED100215B
:10D14000084601F0C3FF0021084601F0BFFF00219F
:10D15000084601F0BBFF0021084601F0B7FF01219E
:10D16000A42001F0B3FF1420FBF76EFD4FF41C5117
:10D17000602001F0ABFF40F20221082001F0A6FF81
:10D180004FF40571302001F0A1FF43F215713120F9
:10D1900001F09CFF40F20461322001F097FF40F65D
:10D1A0001661332001F092FF42F21121342001F088
:10D1B0008DFF4FF4A851352001F088FF48F2075148
:10D1C000362001F083FF41F20741372001F07EFF56
:10D1D00041F20341382001F079FF2021392001F08C
:10D1E00075FF1A21902001F071FF0021102001F03D
:10D1F0006DFF0721112001F069FF0021122001F0CD
:10D2000065FF0021132001F061FF1420FBF71CFDD6
:10D210004FF4E661102001F059FF40F23711112060
:10D2200001F054FF1420FBF70FFD4FF4DC711220C6
:10D2300001F04CFF1420FBF707FD00E083E04FF402
:10D240007061132001F042FF80212A2001F03EFF8F
:10D250004821292001F03AFF1420FBF7F5FC4FF498
:10D260008071012001F032FF4FF4E061022001F0F3
:10D270002DFF41F23801032001F028FF40F2022186
:10D28000082001F023FF00210A2001F01FFF0021E8
:10D290000C2001F01BFF00210D2001F017FF3021B1
:10D2A0000E2001F013FF0021502001F00FFFEF21AD
:10D2B000512001F00BFF0021522001F007FF40F246
:10D2C0003F11532001F002FF4FF41C51602001F088
:10D2D000FDFE0121612001F0F9FE00216A2001F02C
:10D2E000F5FE1121902001F0F1FE4FF4C061922073
:10D2F00001F0ECFE40F20241932001F0E7FE022132
:10D30000942001F0E3FE1420FBF79EFC012107208E
:10D3100001F0DCFE1420FBF797FC6121072001F0EF
:10D32000D5FE40F27311072001F0D0FE002120202D
:10D3300001F0CCFE0021212001F0C8FE22210020B6
:10D3400001F0C4FE0EE3794880884CF20551884212
:10D350007ED10021084601F0B9FE0021084601F007
:10D36000B5FE1420FBF770FC0021084601F0AEFE6C
:10D370000021084601F0AAFE0021084601F0A6FEA1
:10D380000021084601F0A2FE0121A42001F09EFE2A
:10D390001420FBF759FC4FF41C51602001F096FE5D
:10D3A00040F60601082001F091FE40F203713020A2
:10D3B00001F08CFE0121312001F088FE0421322091
:10D3C00001F084FE4FF48171332001F07FFE4FF4B1
:10D3D0004071342001F07AFE40F20311352001F053
:10D3E00075FE1F21362001F071FE40F203713720D7
:10D3F00001F06CFE0121382001F068FE0421392083
:10D4000001F064FE1521902001F060FE4FF482616E
:10D41000102001F05BFE40F24721112001F056FE82
:10D420004FF4DE71122001F051FE4FF460611320C1
:10D4300001F04CFE7820FBF707FC4FF480710120CF
:10D4400001F044FE4FF40071022001F03FFE00E0C5
:10D4500050E041F23001032001F038FE08210A209B
:10D4600001F034FE00210C2001F030FE20210E20BE
:10D4700001F02CFE00210F2001F028FE00212020C9
:10D4800001F024FE0021212001F020FE3D212A2070
:10D4900001F01CFE1420FBF7D7FB2D21292001F001
:10D4A00015FE0021502001F011FE4DF2EF01512038
:10D4B00001F00CFE0021522001F008FE40F23F1165
:10D4C000532001F003FE0021612001F0FFFD002147
:10D4D0006A2001F0FBFD4FF44071922001F0F6FD4F
:10D4E0000521932001F0F2FD4FF48071072001F037
:10D4F000EDFD37E20D48808844F2315188427CD1FD
:10D500000121002001F0E2FD0A20FBF79DFB41F222
:10D510002861102001F0DAFD0E21122001F0D6FD65
:10D5200040F63921132001F0D1FD01E0F49E0120E5
:10D530000A20FBF789FB4021112001F0C7FD502193
:10D54000152001F0C3FD0A20FBF77EFB1E211220EF
:10D5500001F0BCFD0A20FBF777FB4FF4B15110201E
:10D5600001F0B4FD42F63921132001F0AFFD0A208D
:10D57000FBF76AFB4FF48071012001F0A7FD4FF427
:10D580004071022001F0A2FD41F23801032001F0B8
:10D590009DFD40F20221082001F098FD08210A209B
:10D5A00001F094FD0021302001F090FD40F2024195
:10D5B000312001F08BFD4FF48371322001F086FDA4
:10D5C00040F20351332001F081FD4FF48271342089
:10D5D00001F07CFD40F20131352001F077FD40F291
:10D5E0000771362001F072FD40F20531372001F05D
:10D5F0006DFD4FF40271382000E040E001F066FD5F
:10D6000040F60B71392001F061FD0221412001F04B
:10D610005DFD4FF41C51602001F058FD0121612097
:10D6200001F054FD4FF40471902001F04FFD4FF4D0
:10D630008571922001F04AFD0421932001F046FDFE
:10D640004FF48071A02001F041FD0121072001F07D
:10D650003DFD2121072001F039FD2321072001F0A4
:10D6600035FD3321072001F031FD40F23311072051
:10D6700001F02CFD0021A02001F028FD72E1BF483F
:10D68000808844F2355188427ED13021152001F046
:10D690001DFD10219A2001F019FD2021112001F01B
:10D6A00015FD43F22841102001F010FD0221122047
:10D6B00001F00CFD41F23801132001F007FD282094
:10D6C000FBF7C2FA1221084601F000FD2820FBF703
:10D6D000BBFA43F22041102001F0F8FC43F238017C
:10D6E000132001F0F3FC4620FBF7AEFA00213020B6
:10D6F00001F0ECFC40F20241312001F0E7FC40F285
:10D700000731322001F0E2FC4FF44171332001F087
:10D71000DDFC0421342001F0D9FC40F20141352028
:10D7200001F0D4FC40F20771362001F0CFFC40F24A
:10D730000531372001F0CAFC4FF4C261382001F0F6
:10D74000C5FC4FF4C261392001F0C0FC4FF4807178
:10D75000012001F0BBFC4FF44071022001F0B6FC47
:10D7600041F23001032001F0B1FC40F6080108202D
:10D7700001F0ACFC08210A2001F0A8FC4FF41C5178
:10D78000602001F0A3FC00E031E00121612001F004
:10D790009DFC4FF49F71902001F098FC4FF4807134
:10D7A000922001F093FC4FF48071932001F08EFCE5
:10D7B0004FF44051A02001F089FC1021A32001F07A
:10D7C00085FC0121072001F081FC2121072001F0C7
:10D7D0007DFC2321072001F079FC3321072001F093
:10D7E00075FC40F23311072001F070FCBAE0634889
:10D7F000808841F663118842F8D1E22001F056FC9E
:10D80000232001F04DFC022001F04AFC042001F02D
:10D8100047FC642018F002F8E02001F047FC0120EA
:10D8200001F03EFC0A20FBF70FFAE02001F03EFC7D
:10D83000032001F035FC0C20FBF706FA012001F073
:10D8400035FC0A20FBF700FAE62001F02FFC03204C
:10D8500001F026FCFF2001F023FCFF2001F020FC5A
:10D86000B02001F023FC202001F01AFC002001F080
:10D8700017FC032001F014FC40F21F3001F010FCF3
:10D88000012001F00DFC40F2DF1001F009FC002046
:10D8900001F006FCB42001F009FC042001F000FCBA
:10D8A00040F21F4001F0FCFB002001F0F9FBD22008
:10D8B00001F0F6FB002001F0F3FB002001F0F0FB8B
:10D8C000002001F0EDFB002001F0EAFBB62001F0A2
:10D8D000EDFB022001F0E4FB4FF4037001F0E0FBEC
:10D8E000002001F0DDFB222001F0DAFB092001F02D
:10D8F000D7FB002001F0D4FB002001F0D1FBF02089
:10D9000001F0D4FB032001F0CBFB292001F0CEFB7A
:10D91000D02001F0CBFB002001F0C2FBBE2001F0C3
:10D92000C5FB052001F0BCFBFE2001F0B9FB012086
:10D9300001F0B6FBFF2001F0B3FB002001F0B0FBCB
:10D94000B82001F0B3FB0F2001F0AAFB012001F089
:10D95000A7FBBA2001F0AAFB012001F0A1FB642083
:10D9600000F07CFF012000F00DF801200449086060
:10D970004FF6FF70FCF798FC10BD0000F49E0120EC
:10D98000BC82404210B50446002C66D16C498871B7
:10D99000F02008804FF4A07048800846808849F243
:10D9A000413188420BD06648808846F6040188429F
:10D9B00005D06348808845F2103188421AD12C2066
:10D9C0005F4908812A2048812B2088810846808869
:10D9D00046F60401884205D05948808845F2103146
:10D9E000884206D14FF4A070554908804FF4F0707A
:10D9F0004880A1E05248808845F21051884210D1F9
:10DA00004FF430504E4908814FF4285048814FF46C
:10DA10002C5088814FF4F07008804FF44870488093
:10DA20008AE04748808841F6631188420DD12C2056
:10DA3000434908812B2048812A2088814FF4F070C7
:10DA400008804FF44870488076E022203C490881E5
:10DA500020204881212088816EE00120384988718A
:10DA60004FF4A0700880F02048800846808849F272
:10DA70004131884205D03248808845F210318842D1
:10DA800007D12C202E4908812A2048812B2088810B
:10DA90003FE02B48808846F60401884207D12C20BD
:10DAA000274908812B2048812A20888131E0244899
:10DAB000808845F21051884210D14FF430502049EF
:10DAC00008814FF4285048814FF42C5088814FF43E
:10DAD000487008804FF4F07048801AE01848808839
:10DAE00041F6631188420DD12C20154908812A2066
:10DAF00048812B2088814FF4487008804FF4F070E3
:10DB0000488006E022200E490881212048812020FB
:10DB100088810B48808846F60401884205D0084871
:10DB2000808845F21031884206D14FF4F0700449E4
:10DB300008804FF4A0704880002000F0BFFE10BDA8
:10DB4000F49E01202DE9F04F05468DB07C48DDF8AC
:10DB500060901A9C00681E4617464FF0000A78B184
:10DB60001B9B199ACDF808900593CDE90324DDE9B4
:10DB70001623CDE90023046833463A46284682E05E
:10DB8000DDE9160201EB060805EB070C1043A8F1CE
:10DB90000108ACF1010C012806D0C9F1080005907C
:10DBA000002002910890C8E066480268B2F90A3085
:10DBB000581A002806DD361A002E65DD1946199B15
:10DBC00000FB0344B2F90E00A8EB0000002802DDC0
:10DBD000361A002E58DDB2F90C00ACEB000000281C
:10DBE00000DD3F1AB2F908300020AB4237DD581B88
:10DBF0003F1A4B46B9F1080F28D007DC012B0DD096
:10DC0000022B13D0B9F1040F29D117E0102B1FD02C
:10DC1000182B20D0B9F1200F21D11CE020F00703F0
:10DC200004EBE0041D4400F0070018E020F00303BB
:10DC300004EBA0041D4400F0030010E020F00103F9
:10DC400004EB60041D4400F0010008E0044404E01B
:10DC500004EB400401E004EB800405440020002FA5
:10DC600012DD1B9BDDF864C0CDE90403CDE902C4DD
:10DC7000CDE90069527C34483B4650F82200C26826
:10DC800054680A462946A0470DB0BDE8F08F1799A1
:10DC90000298084409902B49401E00900A68B2F986
:10DCA0000A30834241DCB2F90E10029881423CDB1B
:10DCB0004FF0000BD84603950B9434E0BBF1000FF6
:10DCC00005D10B984FF0080B10F801AB0B9005999C
:10DCD000ABEB090B3AFA01F00AFA09F101F0FF0A7D
:10DCE00004D118490968097C890716D415490968BF
:10DCF000C96B0A680C921B9A0AB152F8200008609E
:10DD000016990398009B4218521E029900F07AFA65
:10DD10000C490C980968C96B08600399169808F1BA
:10DD2000010808440390B845C8DB0898401C0890D7
:10DD300009980290199804440898B042A7DBA3E719
:10DD4000E8070020BC070020D4070020F0B40C46F0
:10DD500012490968B1F90A30A3421CDCB1F90E304E
:10DD6000A34218DBB1F90830834200DD1846B1F94F
:10DD70000C30934200DA1A4682420CDB4B7C084995
:10DD800051F8235013462246E9688E68014628461A
:10DD9000B446F0BC6047F0BC70470000BC070020F0
:10DDA000D40700202DE9FF4F84B081468A46002029
:10DDB000039002900698A0EB09050798A0EB0A06CD
:10DDC000CDF80490CDF800A0002D01DD012705E07D
:10DDD0000DB9002702E04FF0FF376D42002E02DD43
:10DDE0004FF0010806E016B94FF0000802E04FF0CE
:10DDF000FF387642B54201DD2C4600E034464FF054
:10DE0000000B21E0009A91B2019A90B200F056F80E
:10DE10000398284403900298304402900398A0424B
:10DE200005DD0398001B0390019838440190029887
:10DE3000A04205DD0298001B02900098404400902B
:10DE40000BF101001FFA80FB601C8345DADD08B08E
:10DE5000BDE8F08F0A46174930B40968B1F90A30B5
:10DE6000934225DCB1F90E30934221DBB1F9083041
:10DE700083421DDCB1F90C30834219DB0B7C0E4C64
:10DE8000DB0709D0497C54F82130D968CC690146B8
:10DE9000A44630BC18466047CB6B497C1B6854F8DD
:10DEA0002140E1688D6901462046AC4630BC6047A0
:10DEB00030BC7047BC070020D407002030B50446B2
:10DEC0000D462946204600F0DBFE01F0F5F8024839
:10DED00000880249088030BDD80600208000006C10
:10DEE000124B30B41B68B3F9084084421CDCB3F910
:10DEF0000C40844218DBB3F90A408C4200DD214615
:10DF0000B3F90E40944200DA22468A420CDB5C7C74
:10DF1000074B53F82440E368DD6813460A46014680
:10DF20002046AC4630BC604730BC7047BC07002080
:10DF3000D40700202DE9F04306460F469046002402
:10DF400045460320A0EB48093CE07A1B91B2321908
:10DF500090B2FFF7B3FF3A1B91B2721990B2FFF77C
:10DF6000ADFF3A1991B2721990B2FFF7A7FF7A1973
:10DF700091B2321990B2FFF7A1FF7A1991B2321B18
:10DF800090B2FFF79BFF3A1991B2721B90B2FFF764
:10DF900095FF7A1B91B2321B90B2FFF78FFF3A1BAD
:10DFA00091B2721B90B2FFF789FF641CB9F1000FA8
:10DFB00003DAA000801D814404E0601B80000A3069
:10DFC00081446D1EAC42C0DDBDE8F08330B5034630
:10DFD0000C4615465B48808849F24131884205D09D
:10DFE0005848808845F21031884214D155494889F3
:10DFF00001F05CF8181201F053F8D8B201F050F8B3
:10E000005049888901F052F8201201F049F8E0B235
:10E0100001F046F88CE04B48808845F21051884268
:10E0200020D14849488901F041F8181201F038F828
:10E0300044494989491C88B201F038F8D8B201F046
:10E040002FF84049888901F031F8201201F028F8B2
:10E050003C498989491C88B201F028F8E0B201F0F6
:10E060001FF865E03748808841F66311884228D15F
:10E070003448807920B933480088401EC01A83B2E2
:10E080003049488901F012F8181201F009F8D8B2A5
:10E0900001F006F8181201F003F8D8B201F000F808
:10E0A0002849888901F002F8201200F0F9FFE0B257
:10E0B00000F0F6FF201200F0F3FFE0B200F0F0FFF6
:10E0C00036E02048808846F6040188421DD11D486C
:10E0D0008079012804D11B480088401EC01A83B2F1
:10E0E0001849488900F0E2FF181200F0D9FFD8B2B1
:10E0F00000F0D6FF1349888900F0D8FF201200F005
:10E10000CFFFE0B200F0CCFF12E00E48807901288A
:10E1100004D10C480088401EC01A83B209494889BE
:10E12000194600F0D3FF07498889214600F0CEFF49
:10E1300004480089044908804FF0D840A0F8805076
:10E1400030BD0000F49E01207E00006C2DE9FC4FE4
:10E1500005460E4617469846DDF82C9000200190A3
:10E160002748808846F60401884229D124488079CE
:10E17000012825D1AB46354621480088C01B401EEA
:10E1800086B247461E480088A0EB0B00401E1FFACF
:10E1900080F800201A4988712A2048812B20888124
:10E1A00043463A4631462846CDF80090FFF7CEFF69
:10E1B0000120134988712B2048812A2088811DE085
:10E1C000781B401C80B20190344615E02146284659
:10E1D00000F056FD00F070FF4FF0000A07E04FF02E
:10E1E000D840A0F880900AF101001FFA80FA019847
:10E1F0008245F4DB601C84B24445E7DDBDE8FC8F5A
:10E20000F49E012038B5134C2468B4F908508542B7
:10E2100000DD2846B4F90C50954200DA2A468242C5
:10E2200017DBB4F90A508D4200DD2946B4F90E50CF
:10E230009D4200DA2B468B420BDB0093647C064B3D
:10E2400053F82440E3681D6913460A4601462046F8
:10E25000A84738BDBC070020D40700200248082189
:10E260000068407C0FF080BBBC07002008210FF045
:10E270007BBB000002480068806B006870470000AC
:10E28000BC07002002480068C06B006870470000AF
:10E29000BC070020014602480068407C0FF09BBA92
:10E2A000BC070020024809210068407C0FF05CBBDD
:10E2B000BC07002009210FF057BB70B500252C4684
:10E2C0002046F6F769FF00B16D1C641C022CF7DBD9
:10E2D000284670BD02480068407C00F003B800008A
:10E2E000BC07002010B5F6F757FF002805D0C1681D
:10E2F000CA6ABDE810400221104710BD10B500F0F9
:10E3000005F8BDE8104000F099B800002DE9FC4187
:10E31000144E0546144F30680C46407C57F82000D8
:10E32000C1680A6B69469047BDF90000A8420BDC42
:10E33000BDF90400A84207DBBDF90200A04203DCDE
:10E34000BDF90600A04202DA0020BDE8FC81306879
:10E350002246407C57F82000C1684B6929469847FF
:10E36000F3E70000BC070020D4070020F8B51546ED
:10E370000E460124F6F710FF009058B1C068042142
:10E38000426A68469047030004D02A463146009806
:10E39000984700242046F8BD03210FF0E5BA03207A
:10E3A0000FF09CBC024804210068407C0FF0DCBAEE
:10E3B000BC07002004210FF0D7BA00000248012159
:10E3C0000068407C0FF0D0BABC07002001210FF09C
:10E3D000CBBA0000024802210068407C0FF0C4BAAA
:10E3E000BC07002002210FF0BFBA00F003B800F014
:10E3F00001B800002DE9F041002809D0876837B145
:10E400000D4E716819B10468B4F5807F02DD0020FB
:10E41000BDE8F0813068844200DD0446002507E055
:10E4200057F82500FBF776FF716841F825006D1C51
:10E43000A542F5DB7068EBE7940D00200449054A1E
:10E440000968497C52F821100969496808470000A9
:10E45000BC070020D40700207047704710B500F0BB
:10E460001F01074A074BC0F34514C0F3C4201B5DCE
:10E47000105C515C00EB032000EB014010BD00007C
:10E4800084050708A405070810B50A4C606860B940
:10E4900020688000F6F7D2F8606040B104F108010E
:10E4A000054808600846FAF70DFA002010BD012063
:10E4B00010BD0000940D0020B5FD01082DE9F041CC
:10E4C000FFF7FBFE0746002528E02846F6F764FE26
:10E4D00018B32846F8F766FD80462846FFF7C6FEC3
:10E4E000082817DC0F48104950F8250000698842B9
:10E4F00010D02846FFF7DEFE0646002408E0E0B212
:10E50000FFF79CFF0246E1B2284600F093FC641C32
:10E51000B442F4DB4046F8F745FD6D1CBD42D4DB48
:10E52000BDE8F081D4070020681C070808B503483F
:10E5300000880090BDF8000008BD00008000006C5D
:10E540002DE9F04105460E4600240027A046564816
:10E550000088A84203DD54484088B04202DC002015
:10E56000BDE8F0813146284600F08AFB4E4880889D
:10E5700049F24131884211D04B48808846F6040167
:10E5800088420BD04848808845F21031884205D037
:10E590004548808841F66311884203D12E2000F05F
:10E5A00085FD0DE04048808845F21051884204D135
:10E5B0004FF4385000F07AFD02E0222000F076FDA2
:10E5C0003948808849F22031884202D1022017F070
:10E5D0008EF9FFF7ABFF04463348808841F663119C
:10E5E000884201D12046BBE7022017F080F9FFF7EF
:10E5F0009DFF04462C48808849F2413188420BD067
:10E600002948808845F21031884205D02648808804
:10E6100045F2105188420AD1022017F068F9FFF73D
:10E6200085FF8046E7B24FF6FF7000EA07271E48D5
:10E63000808849F22531884216D01B48808844F2F0
:10E640003551884210D018488088091F88420BD065
:10E65000154880884BF20551884205D012488088C1
:10E660004CF20551884201D1204679E70E48808856
:10E6700049F2413188420BD00B48808845F2103175
:10E68000884205D00848808845F21051884207D159
:10E69000E012C002B91240EA411040EAE8205FE708
:10E6A0002046FBF7F3FD5BE7F49E01202DE9FF4FC9
:10E6B00083B01646DDE910408B46C0684769426A60
:10E6C0007AB1012111A8904705000AD00698CDE93A
:10E6D000000433465A4603991198A84707B0BDE88D
:10E6E000F08F57480068407CF7F70EFB82460828F9
:10E6F00001DC012005E0BAF1100F01DC022000E08E
:10E7000004208046002596E04046B8F1010F05D070
:10E71000022871D0B8F1040F25D17CE0BAF1090FBD
:10E7200021D2DFE80AF08605213F3F5959595900A7
:10E73000039815E001465A461198B847C5F10701FC
:10E7400088404FF67F722178EA40114001436D1CEA
:10E75000217004EBE50425F00700054109F10100F3
:10E760008146B042E6DD64E0039817E001465A4670
:10E770001198B8470621A1EB450188406B004FF680
:10E780003F722178DA40114001436D1C217004EB87
:10E79000A50425F00300054109F101008146B042BE
:10E7A000E4DD46E0039813E001465A461198B84765
:10E7B0000421A1EB850188402178AB000F229A400B
:10E7C0001140014321702C4485F0010509F101003D
:10E7D0008146B042E8DD2CE0DDF80C9007E0014610
:10E7E0005A461198B847207009F101094444484637
:10E7F000B145F4DD1DE0FFE7DDF80C9007E00146D0
:10E800005A461198B847208009F101094444484606
:10E81000B145F4DD0DE0DDF80C9007E001465A4605
:10E820001198B847206009F1010944444846B145B0
:10E83000F4DD0BF1010B06998B457FF765AF4DE7D2
:10E84000BC07002010B50446204600F02FFC052030
:10E8500016F0E4FFFFF76AFE10BD000070B52DED65
:10E86000048B0446BE2000F021FC052000F018FCBB
:10E870002046F1F74BFF41EC190B9FED0E0B53ECCB
:10E88000102BF1F751FE41EC180BF1F76BFF85B23D
:10E89000284600F005FC012000F002FCFF2000F0FB
:10E8A000FFFB002000F0FCFB002000F0F9FBBDECBA
:10E8B000048B70BD666666666666044070B5044685
:10E8C00000230026B748807901280BD1B5488088FD
:10E8D00046F60401884205D0B248808841F66311AB
:10E8E000884208D1AF488079F0B9AE48808841F6B7
:10E8F0006311884218D1082C15D2DFE804F0040611
:10E90000080A0C0E101206240DE007240BE0042464
:10E9100009E0052407E0012405E0002403E00324C6
:10E9200001E0022400BF00BF9E48808849F24131C7
:10E93000884217D09B48808846F60401884211D04F
:10E940009848808845F2103188420BD095488088DD
:10E9500045F21051884205D09248808841F66311F3
:10E9600088427DD1082C1CD2DFE804F00406090C93
:10E970000F12151800BF14E043F0800311E043F0BC
:10E9800040030EE043F0C0030BE043F0200308E037
:10E9900043F0600305E043F0A00302E043F0E0032E
:10E9A00000BF00BF7F48808845F21051884202D1E5
:10E9B0004FF4585600E036267A48808845F21031E8
:10E9C00088420DD07748808845F21051884207D0A0
:10E9D0007448808841F66311884201D043F00803EF
:10E9E0007048808846F60401884201D143F0020352
:10E9F0001946304600F06AFB6A48808841F6631188
:10EA000088421DD003F0200068B16648008865493F
:10EA10004988884214DA634805884088614908803B
:10EA2000084645800CE05F4800885E494988884276
:10EA300006DD5C48058840885A49088008464580BC
:10EA40005848808845F21051884254D15549488928
:10EA500000F02CFB002000F023FB5249498900E024
:10EA600078E0491C88B200F021FB002000F018FB80
:10EA70004C494989891C88B200F018FB494909882A
:10EA8000491EC1F30F2000F00BFB46494989C91C00
:10EA900088B200F00BFB43490978491EC8B200F068
:10EAA000FFFA4049888900F001FB002000F0F8FAE5
:10EAB0003C498989491C88B200F0F8FA002000F02E
:10EAC000EFFA38498989891C88B200F0EFFA354994
:10EAD0004988491EC1F30F2000F0E2FA31498989C3
:10EAE000C91C88B200F0E2FA2E498978491EC8B2E2
:10EAF00000F0D6FA55E02B49488900F0D7FA0020FB
:10EB000000F0CEFA002000F0CBFA26490988491E11
:10EB1000C1F30F2000F0C4FA22490978491EC8B297
:10EB200000F0BEFA1F49888900F0C0FA002000F00A
:10EB3000B7FA002000F0B4FA1A494988491EC1F317
:10EB40000F2000F0ADFA17498978491EC8B200F0CD
:10EB5000A7FA26E0082C1CD2DFE804F004070A0D0F
:10EB60000F12151843F0300313E043F0100310E0C8
:10EB700043F020030DE000BF0BE043F0380308E052
:10EB800043F0280305E043F0180302E043F00803D4
:10EB900000BF00BF032643F480531946304600F0FF
:10EBA00095FA70BDF49E012010B50E4C0E492068F8
:10EBB000407C51F8200050B1C1680968042903D095
:10EBC00000680028F8D102E008B1F6F7AEFA206834
:10EBD0000021016600F108014161BDE8104000F02C
:10EBE0002FB80000BC070020D407002001490968A5
:10EBF000496808478C0D0020044909680A7C5207BF
:10EC000001D5C96B00E0896B08607047BC07002024
:10EC10007CB5094C05462068417C084850F8210025
:10EC2000C1680A6B6946904720686A4629460830E1
:10EC3000F9F759FD7CBD0000BC070020D407002077
:10EC40000448016804484A7C083150F82200C26830
:10EC5000126B1047BC070020D40700200149096847
:10EC6000096808478C0D0020044909680A7C52078E
:10EC700001D5896B00E0C96B08607047BC070020B4
:10EC800010B503460C466748808849F241318842F6
:10EC900005D06448808845F21031884214D161491A
:10ECA000488900F003FA181200F0FAF9D8B200F01F
:10ECB000F7F95C49888900F0F9F9201200F0F0F9C1
:10ECC000E0B200F0EDF9ABE05648808846F604016A
:10ECD00088421DD153488079012804D151480088C9
:10ECE000401EC01A83B24F49488900F0DFF918125C
:10ECF00000F0D6F9D8B200F0D3F94A49888900F07B
:10ED0000D5F9201200F0CCF9E0B200F0C9F987E0A3
:10ED10004448808841F66311884247D14148807950
:10ED2000A8B940480088401EC01A83B23D494889AE
:10ED300000F0BCF9002000F0B3F9002000F0B0F9B9
:10ED4000181200F0ADF9D8B200F0AAF916E0354972
:10ED5000488900F0ABF9181200F0A2F9D8B200F01F
:10ED60009FF930490988491EC1F30F2000F098F936
:10ED70002C490978491EC8B200F092F929498889BE
:10ED800000F094F9201200F08BF9E0B200F088F95D
:10ED900024494988491EC1F30F2000F081F9214917
:10EDA0008978491EC8B200F07BF939E01D48808897
:10EDB00045F21051884220D11A49488900F076F96D
:10EDC000181200F06DF917494989491C88B200F002
:10EDD0006DF9D8B200F064F91249888900F066F93B
:10EDE000201200F05DF90F498989491C88B200F0B2
:10EDF0005DF9E0B200F054F912E00A488079012888
:10EE000004D108480088401EC01A83B205494889C9
:10EE1000194600F05BF903498889214600F056F94C
:10EE200010BD0000F49E0120014909688968084767
:10EE30008C0D0020F8B515460E460124F6F7ACF906
:10EE4000009058B1C0681021426A6846904703009C
:10EE500004D02A4631460098984700242046F8BD41
:10EE60002DE9F04717000C46054636D01C490868C6
:10EE7000B0F90A20A24230DCB0F90E20A2422CDB0D
:10EE8000B0F90820AA4228DCB0F90C20AA4224DB01
:10EE9000144E0F2F02D3C16B0B6813E0C06B884672
:10EEA0000068FFF7CBFA814621462846FFF726FA8D
:10EEB00001463A464846FBF7D1F9FBF72BFA0346E1
:10EEC000D8F800002246407C56F82000C1688E69C0
:10EED0002946B446BDE8F0476047BDE8F08700002A
:10EEE000BC070020D40700202DE9F04114000E4695
:10EEF000074640D0214D2868B0F90A10B1423ADCEB
:10EF0000B0F90E10B14236DBB0F90810B94232DC6C
:10EF1000B0F90C00B8422EDB31463846FFF7EEF967
:10EF200080462868C06B0068FFF788FAC2B212FBFF
:10EF300004F24FF00F0CB2FBFCF300F47F4200F43C
:10EF40007F016243B2FBFCF26143B1FBFCF188EA52
:10EF5000030050404840FBF7DDF90346286832467D
:10EF6000417C074850F82100C1688C693946A446A5
:10EF7000BDE8F0416047BDE8F0810000BC0700201B
:10EF8000D407002013460A460F4930B40968B1F986
:10EF90000840844216DCB1F90C40844212DBB1F91E
:10EFA0000A4094420EDCB1F90E4094420ADB4C7CDC
:10EFB000064951F82440E1688D6901462046AC4677
:10EFC00030BC604730BC7047BC070020D40700202D
:10EFD000F8B515460E460124F6F7DEF8009058B154
:10EFE000C0680321426A68469047030004D02A465D
:10EFF00031460098984700242046F8BDF8B51546DC
:10F000000E460124F6F7C8F8009058B1C0680B21ED
:10F01000426A68469047030004D02A463146009869
:10F02000984700242046F8BDF8B515460E46012441
:10F03000F6F7B2F8009058B1C0680A21426A6846F3
:10F040009047030004D02A46314600989847002490
:10F050002046F8BD38B50D460124F6F79DF800901E
:10F0600050B1C0680621426A68469047020003D04A
:10F070002946009890470024204638BD10B5074C1B
:10F080002068006BFBF746F9FFF7EEFD2068406B48
:10F09000FBF740F9BDE81040FFF7AEBDBC0700200C
:10F0A00001490880704700008000006C0149088019
:10F0B000704700007E00006C024800890249088009
:10F0C00070470000F49E01207E00006C034A10800F
:10F0D0004FF0D842A2F88010704700007E00006C0C
:10F0E00008B500231A4613491348F5F7BFFF134824
:10F0F000428801880020FFF781FF1048428801887C
:10F100000020FFF791FF0620F8F79CFA40F63F70C9
:10F110009B23F022002100900846F8F78DF9BC20CF
:10F1200040F65F734FF4A072002100900120F8F7C1
:10F1300083F908BD6CAC0608E8AB0608F49E012014
:10F1400010B503461446012901D1002010BD4FF02F
:10F15000FF3200BF00BF1046F8E700002DE9FF4F67
:10F160008DB01746674ADDF870901E9E2098126891
:10F170001D4600248AB11D9B1F98CDE90293CDE95D
:10F180000460DDE91A03CDE9000314682B463A4612
:10F190000D98A04711B0BDE8F08F0D9A01EB05085E
:10F1A00002EB070CDDE91A231A43A8F10108ACF1C0
:10F1B000010C012A06D0C9F108004FF0000B0291A2
:10F1C00005909CE0504A1268B2F90A40631A002B7D
:10F1D00006DDED1A002DDDDD21461D9C03FB0466D6
:10F1E000B2F90E30A8EB0303002B02DDED1A002D5F
:10F1F000D0DDB2F90C30ACEB0303002B00DDFF1ABD
:10F200000D9B1C1AB2F90830A3420DDDA3EB040CD0
:10F210000CEB0003181A20F007000444A7EB0C07BE
:10F2200006EBE30603F00700002FB3DD1F9BDDF8BC
:10F2300074C0CDE9040303968DE82012527C334854
:10F240003B4650F82200C26855680A462146A84746
:10F25000A0E71B990298084409902B49401E03908F
:10F260000A68B2F90A30834243DCB2F90E10029800
:10F2700081423EDB4FF0000A0D980B96D04600907D
:10F2800035E000BFBAF1000F05D10B984FF0080A26
:10F2900010F8014B0B900599AAEB090A34FA01F01A
:10F2A00004FA09F4E4B204D117490968097C890712
:10F2B00017D415490968C96B0A680C921F9A0AB1DC
:10F2C00052F82000086000991A980A180846DDE9EB
:10F2D0000213521EFEF796FF0B490C980968C96B82
:10F2E000086000991A9808F1010808440090B84590
:10F2F000C8DB099802901D980BF1010B0644AB4541
:10F30000A7DB47E7E8070020BC070020D407002060
:10F31000002818D0410817D0810817D0C10817D08D
:10F32000010917D0410917D0010A17D0410A17D097
:10F33000010B15D0C10B13D0010C11D0810C11D0D1
:10F34000000E11D020207047012070470220704726
:10F35000032070470420704705207047082070473D
:10F3600010207047122070471820704700B5002207
:10F37000FFF7CEFF012804D0811E062903D80822FA
:10F380000BE0012209E0A0F10901072901D81022B0
:10F3900003E011380F2800D82022104600BD2DE9C7
:10F3A000FF5F5FEA00094FF000001C4692468B4663
:10F3B0000090054601903ED0F6F7DAFD4846F5F795
:10F3C000D1F90390B8B3D0F83480066C00F0B9FDE1
:10F3D000074603A8F5F730FA601C00D10E24234637
:10F3E000524659464046FAF761FB8DF80040082224
:10F3F00069463046F5F744FAAFB1002411E02146E2
:10F40000484600F0E4FD0290066802A8F5F714FAF9
:10F41000082200213046F5F733FA08B1012502E051
:10F42000641CBC42EBD3484600F009FE484600F09D
:10F43000ABFEF8F797FA04B02846BDE8F09F2DE937
:10F44000F34F85B00D4605980026D8B1F6F790FD2C
:10F450000598F5F787F9009090B1D0F83CB000F02E
:10F4600070FD0190009800F069FD81466846F5F74F
:10F47000E3F90C2200215846F5F702FA30B10126D3
:10F48000F8F770FA07B03046BDE8F08FF5F735FAB7
:10F49000804600242CE025B101CD5FEA000A02D0AD
:10F4A00002E0002082460025F9F76AFB471C00F1C4
:10F4B000090200214046F5F7E3F940B1012603E0D7
:10F4C00021464046F5F744FA641EF9D212E021467F
:10F4D0004046F5F786FA0290012F05DD5FEA0A0142
:10F4E00002D0001DF0F770FF02A8F5F7A5F9641C23
:10F4F0004C45D0DB58460199F5F773FA0390C0F8F4
:10F50000008003A8F5F798F90598F5F72BF9009016
:10F5100080B1002180F8AC10D0F8A81031B1C06FD4
:10F52000002803DB059800F08AFD03E001990598A7
:10F5300000F09FFD6846F5F77FF9059800F024FE7E
:10F540009EE770B546680446014686B0304603F033
:10F550000BFA002823D020680E2877D006DC052877
:10F560000BD00B2873D00C2872D1BEE00F2870D0BE
:10F57000252802D02628F7D113E03046F5F7F2F817
:10F58000009000280BD0456B6846F5F755F9A06848
:10F59000002804D0A84202D1304600F0F5FD06B0A4
:10F5A00070BDE0680025022854D0052812D0062836
:10F5B000F2D00728F3D13046F5F7D4F800900028B0
:10F5C000EDD0A168426B914200D145636846F5F7E2
:10F5D00033F9E4E7304604F015F80146A0688142AB
:10F5E00011D101A903F0F6FF3046F5F7BBF8009002
:10F5F00028B10299C0F894106846F5F71DF9304615
:10F6000000F01DFD20E0304603F0ECFFA1688842C9
:10F61000C5D13046F5F7A6F80090A8B1456BD0F8F3
:10F62000A000029001A9A06803F0D4FF00990298FD
:10F63000C1F8A0006846F5F7FFF8304600F0A4FDD9
:10F6400028460299FAF7AAFC0A215EE061E06BE025
:10F6500069E040E03046F5F785F8009000289ED03C
:10F66000A168426B9142B1D1D0F8A8000028ADD07A
:10F67000304604F0E3FD0098406BFAF7FFFB041EF0
:10F68000A4DB00982146006CF5F7ABF904904068C4
:10F69000E8B10098D0F8A800F5F764F801460590A5
:10F6A0000098C26FA24208D10A7C82F001020A745B
:10F6B0000121AC308170057003E00D74C46780F8DF
:10F6C000AD50304600F0BBFC05A8F5F7B5F804A82E
:10F6D000F5F7B2F87AE73046F5F744F801460090BE
:10F6E0002246304610F0A2FE70E7E16859B1087A70
:10F6F00038B1304613F00AFE0124304604F09EFD76
:10F7000002E0022400E003242146304610F0F0F924
:10F7100045E7E0684168002910DD0168304605F0E2
:10F72000EDFE0028F4D109E03046F5F71BF8009013
:10F7300020B10DF03AFB6846F5F77EF8204603F05D
:10F74000F1FC2CE73FB50022CDE9020100920192C5
:10F75000104602AA694652F8203000251C782D2C4C
:10F7600011D101255B1C42F820300CE0303B0A2B04
:10F7700011D251F8204004EB8404640041F8204089
:10F78000234441F8203052F8204014F8013B42F85D
:10F790002040002BEAD125B151F820305B4241F8DE
:10F7A0002030401C0228D6DBDDE90001884203DD61
:10F7B0004FF0FF3004B030BD02DA4FF00100F9E73E
:10F7C0004FF00000F6E70A4601461046F0F7E1BDAB
:10F7D000F0B585B00DF1280CBCE8F0004FF0000C3E
:10F7E0008DE8F01000F002F805B0F0BD2DE9F04F03
:10F7F00089B01D46DDE915B6DDE9127A1446884662
:10F800008146F6F7B5FB44EA050040EA090050EAF4
:10F8100008000FD105A9384603F0B8FDBDF918005E
:10F82000BDF91410441ABDF91A00BDF91610641C74
:10F83000451A6D1C84362449CDE90216CDE9007ABB
:10F840002B4622464146484603F0B2FB040034D022
:10F85000F5F753F80646F5F750F805462046F4F755
:10F8600081FF049030B3C0E90F651022594603F0C0
:10F87000C9FA0498302215494430F0F745FD049840
:10F88000134940F8381F00214A1EC0E90F21012208
:10F89000C0E91212026502200094CDE901010B4675
:10F8A0000A4608460391FAF7FAF90499486304A84E
:10F8B000F4F7C2FF204600F067FCF8F753F809B0F0
:10F8C0002046BDE8F08F000043F50008880A0020BC
:10F8D0008DFB000810B504000AD0F6F749FB4FF085
:10F8E000FF3120460FF0E4FFBDE81040F8F73AB8CA
:10F8F00010BD38B5040010D0F6F73AFB2046F4F7F7
:10F9000031FF0090D0F8A8506846F4F795FF15B97C
:10F91000204607F00FF8F8F725F838BD38B5050090
:10F920004FF000040BD0F6F723FB2846F4F71AFF3C
:10F930000090446B6846F4F77FFFF8F713F8204611
:10F9400038BD38B505004FF000040CD0F6F710FBB9
:10F950002846F4F707FF0090D0F884406846F4F793
:10F960006BFFF7F7FFFF204638BD38B505004FF0B5
:10F9700000040DD0F6F7FCFA2846F4F7F3FE0090E9
:10F9800000F0DCFA04466846F4F756FFF7F7EAFFA2
:10F99000204638BD38B505004FF000040DD0F6F70D
:10F9A000E7FA2846F4F7DEFE009000F0CAFA0446B3
:10F9B0006846F4F741FFF7F7D5FF204638BD38B564
:10F9C00005004FF000040CD0F6F7D2FA2846F4F701
:10F9D000C9FE0090D0F888406846F4F72DFFF7F78D
:10F9E000C1FF204638BD38B505004FF0FF340BD0BD
:10F9F000F6F7BEFA2846F4F7B5FE0090446F684665
:10FA0000F4F71AFFF7F7AEFF204638BD38B505000A
:10FA10004FF0FF040CD0F6F7ABFA2846F4F7A2FE3D
:10FA2000009090F86E406846F4F706FFF7F79AFFEB
:10FA3000204638BD10B5040009D0F6F799FA012127
:10FA400020460FF035FFBDE81040F7F78BBF10BD23
:10FA50002DE9F74F84B00026049814468A46002802
:10FA60007DD0F6F785FA0498F4F77CFE0090C06B21
:10FA7000F4F79BFF0546009800F060FA8146009875
:10FA8000D0F83C806846F4F7D7FE5046AA4572D2BB
:10FA900001460C224046F4F7FAFF002869D0F4F73B
:10FAA0002CFF07006CD051464046F4F79AFF0290B5
:10FAB000076002A8F4F7C0FE002527E024B101CCBE
:10FAC0005FEA000B02D002E0002083460024F9F731
:10FAD00057F800F1010800F1090200213846F4F757
:10FAE000CFFE08B1012613E029463846F4F779FF26
:10FAF0000190B8F1010F05DD5FEA0B0102D0001D96
:10FB0000F0F762FC01A8F4F797FE6D1C4D45D5DBBC
:10FB10000498F4F727FE0090C16F002905DA416FC1
:10FB2000514502DD0498FFF785FF0099002081F818
:10FB3000AD006846F4F780FE049800F025FB04460B
:10FB40000498F4F70FFE00902CB9D0F8A81041B13A
:10FB5000C06F002805DB049800F071FA05E011E0A1
:10FB600009E05146049800F0AFFA6846F4F764FEE5
:10FB700006E0012604E021460498FFF760FC0646F3
:10FB8000F7F7F0FE07B03046BDE8F08F2DE9FC41F5
:10FB9000018A046A0FB2ADF80070818A0EB2ADF826
:10FBA0000260018B0BB2ADF80430818B0AB2ADF864
:10FBB0000620D0E901C5C168BCF1010F10D0BCF12D
:10FBC000050F42D0BCF11A0F03D0BCF11B0F59D165
:10FBD00003E0A3EB0700BDE8FC81A2EB0600FAE717
:10FBE000226842B192F82C309B0704D51668006851
:10FBF0006B462A46B047BDF80000A18A0844ADF81C
:10FC00000000BDF80400218B401AADF80400206804
:10FC100050B190F82C10C90706D02169182202EBC8
:10FC200081014058FFF71AF8237994F82820694693
:10FC3000606AF5F765FC206820B390F82C00C007D7
:10FC400020D0A068FFF70AF81CE0002D0CDB20682C
:10FC500050B190F82C10C90706D02169082202EB98
:10FC600081014058FEF7C2FF6846F5F76BF9002D99
:10FC700008DB206830B190F82C00C00702D0E068A3
:10FC8000FEF7B4FF0020A6E738B5002400F09FF986
:10FC9000009018B104796846F4F7CEFD204638BDCF
:10FCA000022212F018BE7CB514460D46060019D08B
:10FCB000F6F75EF93046F4F755FD01903046FFF750
:10FCC00054FE854209DC01982946006CF4F789FE50
:10FCD000009044606846F4F7AFFD01A8F4F7ACFD6E
:10FCE000F7F740FE7CBDF8B50D4606004FF0000466
:10FCF00016D0F6F73DF93046F4F734FD0090846FE6
:10FD0000A54203D08567304600F099F96846F4F7BC
:10FD100093FDA54202D0304600F036FAF7F722FEF6
:10FD20002046F8BD2DE9FC411C46089E1746884632
:10FD3000050041D0F6F71CF93A464146284600F046
:10FD400011F9009030B93A464146284600F0B2F821
:10FD5000009078B3014690F82C00C2071FD140F004
:10FD6000010081F82C002846F4F7FCFC0190009972
:10FD70000020A04206D0019A01EB800302EB800232
:10FD8000526C9A60019A01EB800302EB8002401CE6
:10FD9000526D9A610428ECD301A8F4F74DFD009848
:10FDA000394600EB84008660284600F062F9684618
:10FDB000F4F742FDF7F7D6FDBDE8FC8138B50C46F7
:10FDC000050013D0F6F7D4F82846F4F7CBFC0090E2
:10FDD000D0F88410A14204D0C0F88440284600F036
:10FDE0002EF96846F4F728FDF7F7BCFD38BD38B5A5
:10FDF0000C46050013D0F6F7BBF82846F4F7B2FC22
:10FE00000090D0F88810A14204D0C0F8884028465D
:10FE100000F015F96846F4F70FFDF7F7A3FD38BDBC
:10FE20002DE9F04186B016460D465FEA00084FF016
:10FE3000000403D0FFF799FD854203D3012006B0EB
:10FE4000BDE8F081F6F794F84046F4F78BFC00909B
:10FE5000006C2946F4F7C5FD03906846F4F7ECFC06
:10FE60000398476803A8F4F7E7FCF7B1404606F0AB
:10FE700061FD4046F4F776FC0090D0F8A800F4F756
:10FE800071FC019048B10099CD670674002081F89B
:10FE9000AC00404600F0D3F800E0012401A8F4F7DC
:10FEA000CBFC6846F4F7C8FC00E00124F7F75AFDE4
:10FEB0002046C4E72DE9FE43164689465FEA00085E
:10FEC0004FF0000537D0F4F74DFC019000F036F804
:10FED0000746019800F035F8044601A8F4F7ACFC99
:10FEE000B94528D2A64226D23146404600F06FF8E6
:10FEF0000290066802A8F4F79FFC49463046F4F7E2
:10FF000070FD009020B104686846F4F795FC74B960
:10FF10003020F4F72EFB04000DD049463046F4F7AC
:10FF200060FD009018B104606846F4F785FC204637
:10FF3000F4F718FC05462846BDE8FE83006CF4F78C
:10FF400034BDC06BF4F731BD10B50446D0F8800065
:10FF5000002806D1A06EF5F7A9FFA16F002900D0F7
:10FF6000401C10BD2DE9FE43154689465FEA000896
:10FF70004FF0000428D0F4F7F5FB0090FFF7DEFF08
:10FF800007460098FFF7DDFF06466846F4F754FC85
:10FF9000B94519D2B54217D22946404600F017F8A4
:10FFA0000290056802A8F4F747FC49462846F4F792
:10FFB00018FD019040B1056801A8F4F73DFC1DB1A2
:10FFC0002846F4F7CFFB04462046BDE8FE833EB545
:10FFD0000D460024F4F7C6FB0090D0F8A81021B31A
:10FFE000C26F002A21DB0846F4F7BCFB01900068D1
:10FFF00088B1F4F7B7FB019902908988A94206DD20
:020000040801F1
:1000000030F815100098C06BF4F7EBFC044602A81A
:10001000F4F712FC05E000982946C06BF4F7E1FC08
:10002000044601A8F4F708FC04E0C06B2946F4F785
:10003000D8FC04466846F4F7FFFB20463EBD3EB5BB
:100040000546F4F78FFB0290406BF9F7C6FE0446B5
:1000500002A8F4F7F1FB6946284603F029FABDF837
:10006000020069462044ADF80200284603F09AFDDC
:100070003EBD2DE9FE430C1E804623DBF4F772FBE8
:100080000290406BF9F7A9FE05460298D0F89460FB
:10009000FFF75AFF074602A8F4F7CEFB6946404631
:1000A00003F006FABDF90200A11B01FB070041198C
:1000B0007F1EC819ADF80210ADF80600694640462B
:1000C00003F070FDBDE8FE837FB50C1E054620DB06
:1000D000FFF724FCF9F781FE064601A9284603F044
:1000E000E7F92846F4F73EFB0090FFF72DFF009A52
:1000F000BDF90610D2F89420A21A02FB0010304479
:10010000ADF806006846F4F797FB01A9284603F00E
:1001100049FD7FBDF8B50C460746F4F723FB009078
:10012000FFF70FFF05460098466F6846F4F784FB1B
:10013000AC4200DB6C1E002C01DA4FF0FF34B442FD
:1001400021D021463846FFF79FFD00281BD13846B5
:10015000F4F708FB009044676846F4F76DFB3846F7
:1001600013F002FF18B13846FFF769FF07E0314688
:100170003846FFF77EFF21463846FFF77AFF042115
:10018000384603F08BFEF8BD2DE9FE4F8346334819
:10019000017811B10020BDE8FE8F01218246017077
:1001A0005846F4F7DFFA0146009058460DF01FFE5E
:1001B0008146584601A903F07BF9BDF90800BDF955
:1001C0000410009E401A00F10108F06B0190012418
:1001D000706BF9F73DFE07000AD000252C4605E0BC
:1001E0002946706BF9F712FE04446D1CBD42F7DB23
:1001F000009890F8AF50A8070AD50198F4F7D5FBFE
:10020000484501D9012100E00021584604F0E3F8F7
:10021000E8070CD0444501DD012100E000215846EB
:1002200004F0CBF8584600990DF0E1FD81460098A6
:10023000FFF787FE0099C1F8989000B9012041F8B6
:10024000900F6846C1F81480CC60F4F7F5FA584670
:1002500013F08AFE00228AF800209CE7840A00201E
:1002600010B50548054908600846F8F7C1FC08B113
:10027000F0F7E0FF10BD000000300240DC06002077
:1002800000B58FB01C220C4908A8F0F73DF80021FA
:1002900008A815F044FB094908601C2206491C31D6
:1002A00001A8F0F731F8002101A815F038FB044946
:1002B00008600FB000BD00001CAC0608E40600207A
:1002C000E806002000B587B01C216846F0F743F827
:1002D0004FF02040184908601848486006208860A0
:1002E00000211548C1600161102141610021816137
:1002F000C161016241624FF4805181620021C1629B
:100300000163416381634164052000900F200190E7
:100310003C200290052003901020049011200590AD
:1003200000200690002269460348F9F783FA08B1D5
:10033000F0F780FF07B000BD00B20120040100A06B
:1003400000B587B0142102A8F0F705F800BF00201F
:1003500001907A48006840F0040078490860084637
:10036000006800F00400019000BF00BF00BF002043
:1003700001900846006840F02000086008460068C8
:1003800000F02000019000BF00BF00BF00200190DE
:100390000846006840F0800008600846006800F0E9
:1003A0008000019000BF00BF00BF00200190084600
:1003B000006840F0020008600846006800F0020093
:1003C000019000BF00BF00BF0020019008460068F8
:1003D00040F0100008600846006800F0100001902E
:1003E00000BF00BF00BF002001900846006840F039
:1003F000080008600846006800F00800019000BF8F
:1004000000BF00BF002001900846006840F00100D6
:1004100008600846006800F00100019000BF00BFBE
:1004200000BF002001900846006840F040000860CE
:100430000846006800F04000019000BF00BF0122A4
:1004400051033F48F8F77CFD00224FF4C0613D485E
:10045000F8F776FD012240F201313B48F8F770FDD4
:100460000122D1023748F8F76BFD00224FF400411A
:100470003548F8F765FD00224FF400713348F8F76E
:100480005FFD4FF400500290012003900490002083
:10049000059002A92A48F8F753FC4FF4C060029077
:1004A0000120039000200490059002A92548F8F748
:1004B00047FC01200290039004900220059002A9BD
:1004C0002148F8F73DFC062002900020039001200F
:1004D000049002A91C48F8F733FC4FF40060029026
:1004E0000120039004900220059002A91548F8F716
:1004F00027FC4FF40040029001200390002004905C
:10050000059002A91048F8F71BFC4FF40070029008
:10051000012003900490059002A90C48F8F710FC04
:100520004FF440700290012003900490059002A9BE
:100530000548F8F705FC07B000BD00003038024060
:10054000000802400014024000040240001802406B
:1005500010B5042003F060FEF5F7D4FCF3F774F84F
:1005600010BD00BFFEE7704738B544680546014638
:10057000204602F0F9F9002811D028680B280FD086
:100580000F2817D12046F4F7EDF80090406E05686B
:100590006846F4F751F9002D01D02046A84738BD30
:1005A0002046F4F7DFF800903830F4F72BF868466F
:1005B000F4F742F92846BDE8384002F0B3BDF0B583
:1005C00085B0B0F90850468A84690296CDE9035493
:1005D0000027CDE90017B0F90C10B0F91050B0F9B0
:1005E0000E40B0F90A00194410442B46224600F090
:1005F00003F805B0F0BD00002DE9FF5F9846DDE986
:100600000E5691468A468346109F129CF5F7B0FC21
:1006100040342548CDE90204CDE9005643464A4618
:100620005146584602F0C4FC050037D00520F3F7C8
:10063000A0FF040032D02846F4F794F8002200907E
:10064000119902F0DFFB1949284602F03DFA184ED5
:100650000098182231684166311D4C30EFF754FE86
:1006600000980221A0F840106421816400214164B7
:1006700080F8687084632046F4F774F801460190AE
:100680000022009812F020FF01A8F4F7D5F8684680
:10069000F4F7D2F83068416828468847F7F762F9DE
:1006A00004B02846BDE8F09F690501082C1C070826
:1006B000B80A002070B50446006A62681AB3052AB9
:1006C00022D01C490B2A02D0122A31D121E008681D
:1006D000006AF6F7D2FCD4E90410A269F5F756F9DE
:1006E000D4E906202169F5F751F9E2696169521EE2
:1006F000491C2069F5F700FAE2696169521E491C3C
:10070000A069F5F7F9F913E00168204606F08EFEBE
:100710000EE0026862B985680868406AF6F7ADFCC9
:100720000220F6F75DFDD4E904122846F4F790FEA6
:10073000002070BD64030708044A0349116004499E
:100740004A69486110467047D40A0020B80A002060
:10075000BC0A002038B50D4604000ED0F5F708FCA1
:100760002046F3F7FFFF0090C5646846F4F764F88D
:10077000204603F057FAF7F7F5F838BDF8B51446F8
:100780000D46060017D0F5F7F3FB3046F3F7EAFF06
:100790000090AC420ADD816CA14202D1416CA942B9
:1007A00004D0C0E91154304603F03CFA6846F4F72F
:1007B00043F8F7F7D7F8F8BD38B50C4605000FD069
:1007C000F5F7D6FB2846F3F7CDFF0090A0F84040A0
:1007D0006846F4F731F8284603F024FAF7F7C2F830
:1007E00038BDF0B587B00C4607007ED0F5F7C0FBEA
:1007F0003846F3F7B7FF0090416CA14200DD0C468C
:10080000816CA14200DA0C46416BA1426ED090F897
:10081000681040F6FF76C907416B4FF0000519D00C
:10082000A14207DD214600F0C5F8ADF80E000098A2
:10083000416B05E000F0BEF8ADF80E0021460098CF
:1008400000F0B8F8ADF80A00ADF80850ADF80C604B
:1008500000985FE0A14207DD214600F0ABF8ADF85B
:1008600008000098416B05E000F0A4F8ADF808001E
:100870002146009800F09EF8ADF80C000098ADF805
:100880000A50ADF80E6090F86810890742D40495BC
:100890000595806BF3F750FF05280EDA0098856BFD
:1008A0006846F3F7C9FF05212846F3F769FF0546B7
:1008B0003846F3F757FF00908563009800F036F84C
:1008C000019030B30098C06CF6F700FC0546DDE9F6
:1008D000000204A900F02DF802A904AA0846F6F7C0
:1008E00015F9DDE90001224601E01DE017E012F0F4
:1008F000EBFDDDE9000204A900F01BF802A904AA3F
:100900000846F6F703F92846F6F7E0FB01A8F3F7E7
:1009100093FF00E0446302A9384603F043F96846B8
:10092000F3F78AFFF7F71EF807B0F0BD806BF3F717
:1009300019BF2DE9F04105460C46B0F90400B5F9A0
:100940000010471AB5F90600B5F902107F1C401ACD
:1009500000F101081046F5F774FA0646F5F73AFA81
:10096000E96A95F84020096802F00302012A07D0DD
:10097000022A08D1B91B01EBD17141F34F0102E00A
:10098000BA1B511A491E2180A8EB000101EBD1715D
:1009900041F34F0161802288AB8F761E1A4422807A
:1009A000EB8F324419446180401EA2800844E080ED
:1009B000BDE8F08170B590F8682012F00104C26AB9
:1009C000136804D0B0F90620B0F9025003E0B0F982
:1009D0000420B0F90050551BD0E911206D1C914244
:1009E00000DA1146814200DD01465E4205EB460514
:1009F0000CB1411A00E0891A4D43801A95FBF0F0C2
:100A0000184470BDF8B50D4604000FD0F5F7B0FAE4
:100A10002046F3F7A7FE0090066D6846F3F70CFF3B
:100A20007119204600F03AFAF6F79CFFF8BD7CB544
:100A3000456804460146284601F096FF002824D068
:100A400020680F2814D006DC0B280DD00C281DD0F0
:100A50000E280CD11FE023286DD0242847D0A0F504
:100A6000807013387DD179E0284600F041FA78E0B3
:100A70002846F3F777FE0090002806D0406C046803
:100A80006846F3F7D9FE2846A0477CBD2146284694
:100A900010F07CFA65E02E462846F3F763FE0190DD
:100AA000456D01A8F3F7C8FEE068D0E90010002802
:100AB00057DD132913D006DC102914D0112912D0C8
:100AC00012294ED10BE0212902D0222949D101E07F
:100AD000294600E069423046FFF794FF41E0304686
:100AE00000F0CBF93DE0304600F0E6F839E02E4664
:100AF0003046E568F3F736FE01902968C26C9142F2
:100B000007D1426DAB689A4203D1026D6B689A427D
:100B10000FD0C164A968416569680165304603F07A
:100B200081F801A8F3F788FE0521304603F0B6F9F5
:100B300017E001A80FE02846F3F714FE009080B1FB
:100B4000E168C06C08600098E268416D9160E168FE
:100B5000006D48606846F3F76FFE02E0284610F02B
:100B600071F8204602F0DEFA7CBD1FB50A0703D5F6
:100B7000FE2340F28A5202E0FF2340F28A32CDE99E
:100B80000213CDE9000200231A461946184600F068
:100B900007F80446062103F081F904B0204610BD91
:100BA000F0B585B00DF1280CBCE8F0004FF0000C5A
:100BB0008DE8F01000F002F805B0F0BD2DE9F04F1F
:100BC00087B01F46DDE9126A144688468146DDF883
:100BD00040B0F5F7CDF9364D54EA070022D105A90A
:100BE000584602F05DFC30070ED5B5F90040BDF95E
:100BF0001800BDF91680BDF91A10001BA1EB0807FB
:100C000000F101097F1C0DE0B5F90070BDF91A0073
:100C1000BDF91490BDF91810C01BA1EB090400F137
:100C20000108641C149811993C30224BCDE9023024
:100C3000CDE900B13B4622464146484602F0B8F9AC
:100C400004002ED0F3F78EFD00220490310700D56A
:100C50000822F10601D542F010025146BAF1FF0F09
:100C600004D0BAF1FE0F01D042F0100202F0CAF82F
:100C700005F1080304984ECB00F134074EC76421F8
:100C8000C1640A214165002101656968416404A8C5
:100C9000F3F7D2FD6868416820468847204600F097
:100CA00027F9F6F75FFE07B02046BDE8F08F000099
:100CB000DC0D00202F0A01084FF0FF31FFF7A2BE24
:100CC000F0B504468DB00068F3F74CFD064607907A
:100CD00007A8F3F7B1FD208A256AADF82C00A08A99
:100CE000ADF82E00208BADF83000A08BADF83200AF
:100CF000DDE90B01CDE90901286848B10BAA1146CD
:100D0000304602F087F84C4ADFF830C14C4F03E020
:100D10004C4ADFF834C14D4F606810283AD006DCE9
:100D2000082815D0092861D00C287FD132E011287D
:100D300030D013283DD0192878D1286810B1216906
:100D4000A06901E06169E069401A401C0DB0F0BD86
:100D5000686802281BD03E4C0BA82146904708AB80
:100D600002AA09A829680CF0F4FA606AF6F785F976
:100D70004FF0FF300090BDF92A00BDF92610401A4F
:100D8000401C4210BDF92400089901444AE0304C4F
:100D90002C3CE1E72E48BDF932301C30BDF9302043
:100DA00003C8CDE90001BDF92E10BDF92C00E047C4
:100DB0003CE0686803280AD0254C0BA821469047E0
:100DC000286838B1BDF93200BDF92E1006E0204C7C
:100DD0002C3CF2E7BDF93000BDF92C10401A401C44
:100DE0000F2823DB21460BA8B8471FE068680128BD
:100DF0001ED0174C0BA82146904708AB02AA09A8A1
:100E000029680CF0A6FA606AF6F737F9012000901D
:100E1000BDF92A00BDF92610401A4210BDF928007C
:100E20000899411A3046029B01F07FFE00208DE7B1
:100E3000074C2C3CDEE700008D750108495800087E
:100E400015A9010831750108C1580008B9A80108A1
:100E5000400B002038B505004FF000040BD0F5F72B
:100E600087F82846F3F77EFC0090046D6846F3F798
:100E7000E3FCF6F777FD204638BD0121FFF7C2BD40
:100E8000044A034911600449CA68C86010467047A3
:100E9000080B0020E00D0020E40D002038B50C46C2
:100EA000050024D0F5F764F82846F3F75BFC0090C2
:100EB000426DC16C891A00D50021002C00DA002493
:100EC0008C4200DD0C46016DA1420BD00465284622
:100ED00002F0A8FE6846F3F7AFFC0521284602F0B1
:100EE000DDFF02E06846F3F7A7FCF6F73BFD38BDEF
:100EF00010B5044602F059FB02F094FE204602F0C1
:100F000047FBBDE81040252103F0DBB810B590F891
:100F1000322012070FD5828800880B88101A8A8821
:100F2000401C4C88C31A0C80CC885B1E8C80801AB5
:100F3000CB80401E488010BD38B544680546014648
:100F4000204601F011FD002814D028680C2812D08A
:100F50000E2815D00F2822D125462046F3F702FC93
:100F60000090806C04686846F3F766FC002C01D0A2
:100F70002846A04738BD294620460FF0CFFE0EE098
:100F8000E9682046D1E90021002908DD102A04D0B3
:100F9000122A04D100F023F901E000F06DF8284690
:100FA000BDE8384002F0BEB8F0B585B0B0F90850E1
:100FB000468A84690296CDE903540027CDE90017DB
:100FC000B0F90C10B0F91050B0F90E40B0F90A00A9
:100FD000194410442B46224600F002F805B0F0BD3B
:100FE0002DE9FF5F1F46DDE90F8591468A4683465E
:100FF0000E9E129CF4F7BCFF0DF1040C48F00100AA
:1010000038341B490096ACE813003B464A4651462B
:10101000584601F0CDFF040024D0F3F7A3FB1022C3
:101020000090290700D51822119901F0EBFE0098D5
:10103000142210493430EFF767F90E4D00992D1F37
:10104000286888640820A1F86000642008650020F2
:10105000C864401EC8656846F3F7EEFB286841681F
:1010600020468847F6F77EFC04B02046BDE8F09F96
:10107000390F0108700B002038B504001BD0F4F7BD
:1010800077FF2046F3F76EFB0090C26C416D9142F2
:101090000CDD491E4165204602F0C4FD6846F3F7A9
:1010A000CBFB0521204602F0F9FE02E06846F3F78B
:1010B000C3FBF6F757FC38BD2DE9FC410446006A36
:1010C000002874D0C16809B13A4D01E0394D2C3582
:1010D00061680A2958D00F2904D013290DD014298A
:1010E00065D115E0006929460028204602D00AF0A3
:1010F000E6F85CE00AF0A6F859E000692946002805
:10110000204602D00AF0FBF951E00AF076F94EE0F1
:1011100000690028E8691BD0F5F7AFFF0026276AB1
:1011200012E0BA68401E724392FBF0F03968A2697F
:1011300001EBD17100EB610061690844696A511AE1
:10114000491CF4F723FC761C7868B042E9DC2EE0F9
:10115000F5F793FF0026276A12E0BA68401E724333
:1011600092FBF0F039686A6A01EBD17100EB610023
:101170002169084461690A44521EF4F7BDFC761CDB
:101180007868B042E9DC12E0286AF5F776FF208A39
:10119000ADF80000A08AADF80200208BADF8040085
:1011A000A08BADF8060000216846F4F7F7FA00209E
:1011B000BDE8FC81900B002038B505004FF000041D
:1011C0000BD0F4F7D5FE2846F3F7CCFA0090446D27
:1011D0006846F3F731FBF6F7C5FB204638BD38B556
:1011E00004001BD0F4F7C4FE2046F3F7BBFA0090CE
:1011F000D0E9142191420CDA491C4165204602F0E5
:1012000011FD6846F3F718FB0521204602F046FE63
:1012100002E06846F3F710FBF6F7A4FB38BD0000C8
:10122000044A0349116004490A690861104670477D
:10123000840B00206C0B0020700B0020F8B51446C6
:101240000D4606001AD0F4F793FE3046F3F78AFAFB
:101250000090AC4200DA2C46C0E91354416DA9421B
:1012600000DA4565416DA14200DD44656846F3F74B
:10127000E3FA304602F0D6FCF6F774FBF8BD38B559
:101280000C46050021D0F4F773FE2846F3F76AFAFE
:101290000090C16CA14200DD0C46016DA14200DA54
:1012A0000C46416DA1420BD04465284602F0BAFCC1
:1012B0006846F3F7C1FA0521284602F0EFFD02E087
:1012C0006846F3F7B9FAF6F74DFB38BD00BFF6F7FD
:1012D0000BF9052014F012FBF9E7FFF739F900BF0D
:1012E000F4F772FC012014F009FBF9E710B500BF18
:1012F000502080F31188BFF34F8FBFF36F8F00BF73
:1013000015F058FD18B14FF080500449086000BF37
:10131000002080F3118800BF10BD000004ED00E044
:1013200000B593B0302107A8EFF715F8142102A8F3
:10133000EFF711F800BF002001902448006840F04A
:101340008050224908600846006800F080500190F3
:1013500000BF00BF00BF002001901D48006840F49E
:1013600080401B4908600846006800F480400190F6
:1013700000BF00BF012007900004089002200D90DC
:1013800041050E9108210F914FF4A871109102218F
:1013900011910421129107A8F8F728F808B1EFF786
:1013A00049FF0F20029002200390002004904FF488
:1013B000A05005904FF480500690052102A8F7F741
:1013C000C5FE08B1EFF736FF13B000BD403802404C
:1013D000007000401448006840F470001249086032
:1013E0001248006840F001001049086000200F49D1
:1013F000083108600D4800680D4908400B49086035
:101400000C48091D0860081F006820F48020091F8F
:101410000860002005490C3108604FF00060024967
:10142000803908607047000088ED00E00038024015
:10143000FFFFF6FE1030002438B54468054601462B
:10144000204601F091FA002828D028680B2816D0F1
:101450000C2802D00F281CD10CE0E86828B1007AD3
:1014600008B1012102E0022100E00321204602F040
:1014700015FD0EE02046BDE8384010F053BC204674
:10148000F3F770F900904430F3F7BCF86846F3F7CF
:10149000D3F92846BDE8384001F044BE38BDF0B568
:1014A00087B01446428A0DF1080CB0F908508769DC
:1014B0004668ACE8E4000222CDE90012B0F90C1055
:1014C000B0F91050B0F90E20B0F90A0019442044C8
:1014D0002B4600F003F807B0F0BD00002DE9FF4FE8
:1014E00085B09946DDE91307DDE9166592468B461E
:1014F00040F00104DDF84880F4F73AFD20351D493D
:10150000CDF800800395CDE901414B46524659463E
:10151000059801F04DFD050025D0002486B1304628
:10152000EEF730FF401CF3F724F8040008D0F3F77F
:1015300019F931460190EEF747FF01A8F3F77CF95E
:101540002846F3F70FF900220090159901F05AFC94
:1015500000984464A0F84870074C34301ECC1EC07C
:101560006846F3F769F9F6F7FDF909B02846BDE8D2
:10157000F08F000039140108F80D002001480068C0
:1015800070470000F80D0020014908607047000016
:10159000F80D00200149486070470000F80D002058
:1015A00038B50C46050011D0F4F7E2FC2846F3F7F5
:1015B000D9F80090416BA14203D04463284602F061
:1015C00031FB6846F3F738F9F6F7CCF938BD7CB54E
:1015D0000E4605004FF0010421D0F4F7C9FC28465F
:1015E000F3F7C0F80090406C01906846F3F724F9D7
:1015F000314601A8F7F7A6F978B100242846F3F799
:10160000B1F80090426C01998A4200D0416468466A
:10161000F3F712F9284602F005FBF6F7A3F9204686
:101620007CBD000010B50248F8F768F910BD000055
:1016300050B2012010B50268294B98420ED0B0F18B
:10164000804F0BD0274B984208D0274B984205D0AB
:10165000264B984202D0264B984203D122F07002CA
:101660004B681A431E4B984220D0B0F1804F1DD0DA
:101670001C4B98421AD01C4B984217D01B4B9842D7
:1016800014D01B4B984211D01A4B98420ED01A4BD3
:1016900098420BD0194B984208D0194B984205D06C
:1016A000184B984202D0184B984203D122F4407252
:1016B000CB681A4322F080034C6943EA04020260BB
:1016C0008B68C3620B688362054B984202D0084B5B
:1016D000984201D10B6903630123436110BD0000EF
:1016E000000001400004004000080040000C0040E1
:1016F0000004014000400140004401400048014016
:1017000000180040001C0040002000402DE9F04778
:101710002DED068B84B04FF00008C14600BF1F209E
:10172000FE4908804FF6FF70F8F7BEFD4FF4784091
:10173000FA4908804FF6FF70F8F7B6FD0020F74928
:1017400008804FF478421421084600F01FFB002067
:10175000F34981F820009FEDF30A084680ED090A5D
:1017600006E3EF48416801208847ED4890F82000E3
:1017700000F0C000402871D14FF00009E84890F80F
:10178000200020F04000E64981F8200008468089CA
:101790002DF828000846C08A694601EB8801488078
:1017A00008F1010000F0FF08B8F1010F09D0B8F10D
:1017B000020F16D0B8F1030F26D0B8F1040F0FD1E5
:1017C00038E04FF6FF721421084600F0DFFAD649E0
:1017D0000988143988B24FF47842142100F0D6FAFF
:1017E000B7E2D1490988143988B24FF6FF72142143
:1017F00000F0CCFACC484088143881B24FF47842DB
:10180000142000F0C3FAA4E2C7484088143881B21B
:101810004FF6FF72142000F0B9FAC34A5288143A06
:1018200091B2C14A1288143A90B24FF4784200F053
:10183000ADFA8EE2BDF80010BDF80420881A002829
:1018400001DB014600E041420C46BDF80220BDF834
:101850000610501A002802DB014601E07AE24142FC
:101860000D4664436D436019EEF750FF41EC1A0BCF
:10187000B0EE4A0AF0EE6A0A13F0D2F9B0EE409ADE
:10188000F0EE609A51EC190BEEF76CFF86B2BDF8E2
:101890000810BDF80C20881A002801DB014600E082
:1018A00041420C46BDF80A20BDF80E10501A00281F
:1018B00001DB014600E041420D4664436D4360197F
:1018C000EEF724FF41EC1A0BB0EE4A0AF0EE6A0A7A
:1018D00013F0A6F9B0EE409AF0EE609A51EC190BB5
:1018E000EEF740FF87B200EE106AF8EE400A00EE15
:1018F000107AB8EE400A80EE801A11EE10AA504617
:10190000EEF749FF41EC180B9FED880B53EC102BC1
:1019100051EC180BEEF752FF0AD39FED860B53ECF8
:10192000102B51EC180BEEF761FF01D306B1A7B9EC
:101930004FF000087C4A5288143A91B27A4A1288D1
:10194000143A90B24FF6FF7200F020FA4FF478424A
:101950001421084600F01AFA0AE2BDF80010BDF89A
:101960000820881A002801DB014600E041420C46AD
:10197000BDF80220BDF80A10501A002801DB01460C
:1019800000E041420D4664436D436019EEF7BEFE30
:1019900041EC1A0BB0EE4A0AF0EE6A0A13F040F975
:1019A000B0EE409AF0EE609A51EC190BEEF7DAFEC9
:1019B00086B2BDF80410BDF80C20881A002801DB9F
:1019C000014600E041420C46BDF80620BDF80E106D
:1019D000501A002801DB014600E041420D466443F5
:1019E0006D436019EEF792FE41EC1A0BB0EE4A0A15
:1019F000F0EE6A0A13F014F9B0EE409AF0EE609A35
:101A000051EC190BEEF7AEFE87B200EE106AF8EE5D
:101A1000400A00EE107AB8EE400A80EE801A11EE0D
:101A200010AA5046EEF7B7FE41EC180B9FED3F0BA6
:101A300053EC102B51EC180BEEF7C0FE08D39FEDC2
:101A40003D0B53EC102B51EC180BEEF7CFFE14D2DC
:101A50004FF00008344A5288143A91B2324A128840
:101A6000143A90B24FF6FF7200F090F94FF47842BA
:101A70001421084600F08AF97AE1BDF80410BDF897
:101A80000820881A002801DB014600E041420C468C
:101A9000BDF80620BDF80A10501A002801DB0146E7
:101AA00000E041420D4664436D436019EEF72EFE9F
:101AB00041EC1A0BB0EE4A0AF0EE6A0A13F0B0F8E5
:101AC000B0EE409AF0EE609A51EC190BEEF74AFE38
:101AD00086B2BDF80010BDF80C20881A002801DB82
:101AE000014600E041420C46BDF80220BDF80E1050
:101AF000501A002801DB014600E041420D466443D4
:101B00006D436019EEF702FE41EC1A0BB0EE4A0A83
:101B1000F0EE6A0A13F084F810E00000D806002006
:101B20009C06002000000000F49E012066666666A8
:101B30006666EE3FCDCCCCCCCCCCF03FB0EE409A3C
:101B4000F0EE609A51EC190BEEF70CFE87B200EE46
:101B5000106AF8EE400A00EE107AB8EE400A80EE05
:101B6000801A11EE10AA5046EEF715FE41EC180B44
:101B70001FED120B53EC102B51EC180BEEF71EFE61
:101B800008D31FED140B53EC102B51EC180BEEF790
:101B90002DFE14D24FF00008774A5288143A91B2C1
:101BA000754A1288143A90B24FF6FF7200F0EEF8C0
:101BB0004FF478421421084600F0E8F8D8E0BDF868
:101BC0000400BDF80010401A00EE100AF8EEC00A3A
:101BD00069480088283800EE100AB8EEC00A80EE86
:101BE000201A664880ED091ABDF80400BDF80010FF
:101BF000084400EE100AF8EEC00A5F48008800EEC4
