Component: ARM Compiler 5.06 update 6 (build 750) Tool: armlink [4d35ed]

==============================================================================

Section Cross References

    startup_stm32f407xx.o(RESET) refers to startup_stm32f407xx.o(STACK) for __initial_sp
    startup_stm32f407xx.o(RESET) refers to startup_stm32f407xx.o(.text) for Reset_Handler
    startup_stm32f407xx.o(RESET) refers to stm32f4xx_it.o(i.NMI_Handler) for NMI_Handler
    startup_stm32f407xx.o(RESET) refers to stm32f4xx_it.o(i.HardFault_Handler) for HardFault_Handler
    startup_stm32f407xx.o(RESET) refers to stm32f4xx_it.o(i.MemManage_Handler) for MemManage_Handler
    startup_stm32f407xx.o(RESET) refers to stm32f4xx_it.o(i.BusFault_Handler) for BusFault_Handler
    startup_stm32f407xx.o(RESET) refers to stm32f4xx_it.o(i.UsageFault_Handler) for UsageFault_Handler
    startup_stm32f407xx.o(RESET) refers to port.o(.emb_text) for SVC_Handler
    startup_stm32f407xx.o(RESET) refers to stm32f4xx_it.o(i.DebugMon_Handler) for DebugMon_Handler
    startup_stm32f407xx.o(RESET) refers to port.o(i.SysTick_Handler) for SysTick_Handler
    startup_stm32f407xx.o(RESET) refers to stm32f4xx_it.o(i.TIM2_IRQHandler) for TIM2_IRQHandler
    startup_stm32f407xx.o(.text) refers to system_stm32f4xx.o(i.SystemInit) for SystemInit
    startup_stm32f407xx.o(.text) refers to entry.o(.ARM.Collect$$$$00000000) for __main
    guidemo.o(i.GUIDEMO_CheckCancel) refers to gui_time.o(i.GUI_Delay) for GUI_Delay
    guidemo.o(i.GUIDEMO_CheckCancel) refers to guidemo.o(.data) for _Halt
    guidemo.o(i.GUIDEMO_Delay) refers to wm_getdialogitem.o(i.WM_GetDialogItem) for WM_GetDialogItem
    guidemo.o(i.GUIDEMO_Delay) refers to guidemo.o(i._ShowProgress) for _ShowProgress
    guidemo.o(i.GUIDEMO_Delay) refers to progbar.o(i.PROGBAR_SetValue) for PROGBAR_SetValue
==============================================================================

Removing Unused input sections from the image.

    Removing startup_stm32f407xx.o(HEAP), (1024 bytes).
    Removing guidemo.o(i.GUIDEMO_ClearText), (6 bytes).
    Removing guidemo.o(i.GUIDEMO_HideControlWin), (28 bytes).
    Removing guidemo_bargraph.o(i.GUIDEMO_BarGraph), (2 bytes).
    Removing guidemo_fading.o(i.GUIDEMO_Fading), (2 bytes).
    Removing guidemo_iconview.o(i.GUIDEMO_IconView), (2 bytes).
    Removing guidemo_imageflow.o(i.GUIDEMO_ImageFlow), (2 bytes).
    Removing guidemo_skinning.o(i.GUIDEMO_Skinning), (2 bytes).
    Removing guidemo_speedometer.o(i.GUIDEMO_Speedometer), (2 bytes).
    Removing guidemo_touch.o(i.Touch_MainTask), (268 bytes).
    Removing guidemo_washingmachine.o(i.GUIDEMO_WashingMachine), (2 bytes).
    Removing guidemo_zoomandrotate.o(i.GUIDEMO_ZoomAndRotate), (2 bytes).
    Removing gui_x_touch_analog.o(.rev16_text), (4 bytes).
    Removing gui_x_touch_analog.o(.revsh_text), (4 bytes).
    Removing gui_x_touch_analog.o(.rrx_text), (6 bytes).
    Removing guidrv_template.o(.rev16_text), (4 bytes).
    Removing guidrv_template.o(.revsh_text), (4 bytes).
    Removing guidrv_template.o(.rrx_text), (6 bytes).
==============================================================================

Image Symbol Table

    Local Symbols

    Symbol Name                              Value     Ov Type        Size  Object(Section)

    ../Drivers/STM32F4xx_HAL_Driver/Src/stm32f4xx_hal.c 0x00000000   Number         0  stm32f4xx_hal.o ABSOLUTE
    ../Drivers/STM32F4xx_HAL_Driver/Src/stm32f4xx_hal_cortex.c 0x00000000   Number         0  stm32f4xx_hal_cortex.o ABSOLUTE
    ../Drivers/STM32F4xx_HAL_Driver/Src/stm32f4xx_hal_crc.c 0x00000000   Number         0  stm32f4xx_hal_crc.o ABSOLUTE
    ../Drivers/STM32F4xx_HAL_Driver/Src/stm32f4xx_hal_dma.c 0x00000000   Number         0  stm32f4xx_hal_dma.o ABSOLUTE
    ../Drivers/STM32F4xx_HAL_Driver/Src/stm32f4xx_hal_dma_ex.c 0x00000000   Number         0  stm32f4xx_hal_dma_ex.o ABSOLUTE
    ../Drivers/STM32F4xx_HAL_Driver/Src/stm32f4xx_hal_exti.c 0x00000000   Number         0  stm32f4xx_hal_exti.o ABSOLUTE
    ../Drivers/STM32F4xx_HAL_Driver/Src/stm32f4xx_hal_flash.c 0x00000000   Number         0  stm32f4xx_hal_flash.o ABSOLUTE
    ../Drivers/STM32F4xx_HAL_Driver/Src/stm32f4xx_hal_flash_ex.c 0x00000000   Number         0  stm32f4xx_hal_flash_ex.o ABSOLUTE
    ../Drivers/STM32F4xx_HAL_Driver/Src/stm32f4xx_hal_flash_ramfunc.c 0x00000000   Number         0  stm32f4xx_hal_flash_ramfunc.o ABSOLUTE
    ../Drivers/STM32F4xx_HAL_Driver/Src/stm32f4xx_hal_gpio.c 0x00000000   Number         0  stm32f4xx_hal_gpio.o ABSOLUTE
    ../Drivers/STM32F4xx_HAL_Driver/Src/stm32f4xx_hal_pwr.c 0x00000000   Number         0  stm32f4xx_hal_pwr.o ABSOLUTE
    ../Drivers/STM32F4xx_HAL_Driver/Src/stm32f4xx_hal_pwr_ex.c 0x00000000   Number         0  stm32f4xx_hal_pwr_ex.o ABSOLUTE
    ../Drivers/STM32F4xx_HAL_Driver/Src/stm32f4xx_hal_rcc.c 0x00000000   Number         0  stm32f4xx_hal_rcc.o ABSOLUTE
    ../Drivers/STM32F4xx_HAL_Driver/Src/stm32f4xx_hal_rcc_ex.c 0x00000000   Number         0  stm32f4xx_hal_rcc_ex.o ABSOLUTE
    ../Drivers/STM32F4xx_HAL_Driver/Src/stm32f4xx_hal_sram.c 0x00000000   Number         0  stm32f4xx_hal_sram.o ABSOLUTE
    ../Drivers/STM32F4xx_HAL_Driver/Src/stm32f4xx_hal_tim.c 0x00000000   Number         0  stm32f4xx_hal_tim.o ABSOLUTE
    ../Drivers/STM32F4xx_HAL_Driver/Src/stm32f4xx_hal_tim_ex.c 0x00000000   Number         0  stm32f4xx_hal_tim_ex.o ABSOLUTE
    ../Drivers/STM32F4xx_HAL_Driver/Src/stm32f4xx_ll_fsmc.c 0x00000000   Number         0  stm32f4xx_ll_fsmc.o ABSOLUTE
    ../Middlewares/Third_Party/FreeRTOS/Source/CMSIS_RTOS/cmsis_os.c 0x00000000   Number         0  cmsis_os.o ABSOLUTE
    ../Middlewares/Third_Party/FreeRTOS/Source/croutine.c 0x00000000   Number         0  croutine.o ABSOLUTE
    ../Middlewares/Third_Party/FreeRTOS/Source/event_groups.c 0x00000000   Number         0  event_groups.o ABSOLUTE
    ../Middlewares/Third_Party/FreeRTOS/Source/list.c 0x00000000   Number         0  list.o ABSOLUTE
    ../Middlewares/Third_Party/FreeRTOS/Source/portable/MemMang/heap_4.c 0x00000000   Number         0  heap_4.o ABSOLUTE
    ../Middlewares/Third_Party/FreeRTOS/Source/portable/RVDS/ARM_CM4F/port.c 0x00000000   Number         0  port.o ABSOLUTE
    ../Middlewares/Third_Party/FreeRTOS/Source/queue.c 0x00000000   Number         0  queue.o ABSOLUTE
    ../Middlewares/Third_Party/FreeRTOS/Source/stream_buffer.c 0x00000000   Number         0  stream_buffer.o ABSOLUTE
    ../Middlewares/Third_Party/FreeRTOS/Source/tasks.c 0x00000000   Number         0  tasks.o ABSOLUTE
    ../Middlewares/Third_Party/FreeRTOS/Source/timers.c 0x00000000   Number         0  timers.o ABSOLUTE
    ../Src/crc.c                             0x00000000   Number         0  crc.o ABSOLUTE
    ../Src/freertos.c                        0x00000000   Number         0  freertos.o ABSOLUTE
    ../Src/fsmc.c                            0x00000000   Number         0  fsmc.o ABSOLUTE
    ../Src/gpio.c                            0x00000000   Number         0  gpio.o ABSOLUTE
    ../Src/main.c                            0x00000000   Number         0  main.o ABSOLUTE
    ../Src/stm32f4xx_hal_msp.c               0x00000000   Number         0  stm32f4xx_hal_msp.o ABSOLUTE
    ../Src/stm32f4xx_hal_timebase_tim.c      0x00000000   Number         0  stm32f4xx_hal_timebase_tim.o ABSOLUTE
    ../Src/stm32f4xx_it.c                    0x00000000   Number         0  stm32f4xx_it.o ABSOLUTE
    ../Src/system_stm32f4xx.c                0x00000000   Number         0  system_stm32f4xx.o ABSOLUTE
    ../clib/../cmprslib/zerorunl2.c          0x00000000   Number         0  __dczerorl2.o ABSOLUTE
    ../clib/microlib/division.c              0x00000000   Number         0  uldiv.o ABSOLUTE
    ../clib/microlib/division.c              0x00000000   Number         0  uidiv.o ABSOLUTE
    ../clib/microlib/errno.c                 0x00000000   Number         0  errno.o ABSOLUTE
    ../clib/microlib/init/entry.s            0x00000000   Number         0  entry8b.o ABSOLUTE
    ../clib/microlib/init/entry.s            0x00000000   Number         0  entry2.o ABSOLUTE
    ../clib/microlib/init/entry.s            0x00000000   Number         0  entry9a.o ABSOLUTE
    ../clib/microlib/init/entry.s            0x00000000   Number         0  entry9b.o ABSOLUTE
    ../clib/microlib/init/entry.s            0x00000000   Number         0  entry5.o ABSOLUTE
    ../clib/microlib/init/entry.s            0x00000000   Number         0  entry10a.o ABSOLUTE
    ../clib/microlib/init/entry.s            0x00000000   Number         0  entry10b.o ABSOLUTE
    ../clib/microlib/init/entry.s            0x00000000   Number         0  entry11b.o ABSOLUTE
    ../clib/microlib/init/entry.s            0x00000000   Number         0  entry.o ABSOLUTE
    ../clib/microlib/init/entry.s            0x00000000   Number         0  entry11a.o ABSOLUTE
    ../clib/microlib/init/entry.s            0x00000000   Number         0  entry8a.o ABSOLUTE
    ../clib/microlib/init/entry.s            0x00000000   Number         0  entry7a.o ABSOLUTE
    ../clib/microlib/init/entry.s            0x00000000   Number         0  entry7b.o ABSOLUTE
    ../clib/microlib/longlong.c              0x00000000   Number         0  llshl.o ABSOLUTE
    ../clib/microlib/longlong.c              0x00000000   Number         0  llsshr.o ABSOLUTE
    ../clib/microlib/longlong.c              0x00000000   Number         0  llushr.o ABSOLUTE
    ../clib/microlib/printf/printf.c         0x00000000   Number         0  printf7.o ABSOLUTE
    ../clib/microlib/printf/printf.c         0x00000000   Number         0  printfa.o ABSOLUTE
    ../clib/microlib/printf/printf.c         0x00000000   Number         0  printf0.o ABSOLUTE
    ../clib/microlib/printf/printf.c         0x00000000   Number         0  printf1.o ABSOLUTE
    ../clib/microlib/printf/printf.c         0x00000000   Number         0  printf8.o ABSOLUTE
    ../clib/microlib/printf/printf.c         0x00000000   Number         0  printf2.o ABSOLUTE
    ../clib/microlib/printf/printf.c         0x00000000   Number         0  printfb.o ABSOLUTE
    ../clib/microlib/printf/printf.c         0x00000000   Number         0  printf3.o ABSOLUTE
    ../clib/microlib/printf/printf.c         0x00000000   Number         0  printf4.o ABSOLUTE
    ../clib/microlib/printf/printf.c         0x00000000   Number         0  printf5.o ABSOLUTE
    ../clib/microlib/printf/printf.c         0x00000000   Number         0  printf6.o ABSOLUTE
    ../clib/microlib/printf/stubs.s          0x00000000   Number         0  stubs.o ABSOLUTE
    ../clib/microlib/stdio/fputc.c           0x00000000   Number         0  fputc.o ABSOLUTE
    ../clib/microlib/stdio/semi.s            0x00000000   Number         0  semi.o ABSOLUTE
    ../clib/microlib/stdio/streams.c         0x00000000   Number         0  stdout.o ABSOLUTE
    ../clib/microlib/stdlib/rand.c           0x00000000   Number         0  rand.o ABSOLUTE
    ../clib/microlib/string/memcmp.c         0x00000000   Number         0  memcmp.o ABSOLUTE
    ../clib/microlib/string/memcpy.c         0x00000000   Number         0  memcpya.o ABSOLUTE
    ../clib/microlib/string/memcpy.c         0x00000000   Number         0  memmovea.o ABSOLUTE
    ../clib/microlib/string/memcpy.c         0x00000000   Number         0  memmoveb.o ABSOLUTE
    ../clib/microlib/string/memcpy.c         0x00000000   Number         0  memcpyb.o ABSOLUTE
    ../clib/microlib/string/memset.c         0x00000000   Number         0  memset.o ABSOLUTE
    ../clib/microlib/string/memset.c         0x00000000   Number         0  memseta.o ABSOLUTE
    ../clib/microlib/string/strcat.c         0x00000000   Number         0  strcat.o ABSOLUTE
    ../clib/microlib/string/strcmp.c         0x00000000   Number         0  strcmp.o ABSOLUTE
    ../clib/microlib/string/strcpy.c         0x00000000   Number         0  strcpy.o ABSOLUTE
    ../clib/microlib/string/strlen.c         0x00000000   Number         0  strlen.o ABSOLUTE
    ../clib/microlib/string/strncpy.c        0x00000000   Number         0  strncpy.o ABSOLUTE
    ../clib/microlib/stubs.s                 0x00000000   Number         0  iusefp.o ABSOLUTE
    ../clib/microlib/stubs.s                 0x00000000   Number         0  iusesemip.o ABSOLUTE
    ../fplib/microlib/d2f.c                  0x00000000   Number         0  d2f.o ABSOLUTE
    ../fplib/microlib/f2d.c                  0x00000000   Number         0  f2d.o ABSOLUTE
    ../fplib/microlib/fpadd.c                0x00000000   Number         0  dadd.o ABSOLUTE
    ../fplib/microlib/fpdiv.c                0x00000000   Number         0  ddiv.o ABSOLUTE
    ../fplib/microlib/fpepilogue.c           0x00000000   Number         0  depilogue.o ABSOLUTE
    ../fplib/microlib/fpepilogue.c           0x00000000   Number         0  fepilogue.o ABSOLUTE
    ../fplib/microlib/fpfix.c                0x00000000   Number         0  dfixui.o ABSOLUTE
    ../fplib/microlib/fpfix.c                0x00000000   Number         0  dfixi.o ABSOLUTE
    ../fplib/microlib/fpfix.c                0x00000000   Number         0  dfixul.o ABSOLUTE
    ../fplib/microlib/fpflt.c                0x00000000   Number         0  dfltui.o ABSOLUTE
    ../fplib/microlib/fpflt.c                0x00000000   Number         0  dflti.o ABSOLUTE
    ../fplib/microlib/fpmul.c                0x00000000   Number         0  dmul.o ABSOLUTE
    ../fplib/microlib/fpsqrt.c               0x00000000   Number         0  dsqrt.o ABSOLUTE
    ../mathlib/ceil.c                        0x00000000   Number         0  ceil.o ABSOLUTE
    ../mathlib/floor.c                       0x00000000   Number         0  floor.o ABSOLUTE
    ../mathlib/sqrt.c                        0x00000000   Number         0  sqrt.o ABSOLUTE
    ../mathlib/sqrt.c                        0x00000000   Number         0  sqrt_x.o ABSOLUTE
    ..\..\..\Utilities\Third_Party\STemWin522\GUI\Antialias\GUIAA_Char2.c 0x00000000   Number         0  guiaa_char2.o ABSOLUTE
    ..\..\..\Utilities\Third_Party\STemWin522\GUI\Antialias\GUIAA_Char2Ext.c 0x00000000   Number         0  guiaa_char2ext.o ABSOLUTE
    ..\..\..\Utilities\Third_Party\STemWin522\GUI\Antialias\GUIAA_Char4.c 0x00000000   Number         0  guiaa_char4.o ABSOLUTE
    ..\..\..\Utilities\Third_Party\STemWin522\GUI\Antialias\GUIAA_Char4Ext.c 0x00000000   Number         0  guiaa_char4ext.o ABSOLUTE
    ..\..\..\Utilities\Third_Party\STemWin522\GUI\Antialias\GUIAA_Circle.c 0x00000000   Number         0  guiaa_circle.o ABSOLUTE
    ..\..\..\Utilities\Third_Party\STemWin522\GUI\Antialias\GUIAA_Lib.c 0x00000000   Number         0  guiaa_lib.o ABSOLUTE
    ..\..\..\Utilities\Third_Party\STemWin522\GUI\Antialias\GUIAA_Poly.c 0x00000000   Number         0  guiaa_poly.o ABSOLUTE
    ..\..\..\Utilities\Third_Party\STemWin522\GUI\ConvertColor\GUICC_M565.c 0x00000000   Number         0  guicc_m565.o ABSOLUTE
    ..\..\..\Utilities\Third_Party\STemWin522\GUI\Core\GUICC_0.c 0x00000000   Number         0  guicc_0.o ABSOLUTE
    ..\..\..\Utilities\Third_Party\STemWin522\GUI\Core\GUICC_888.c 0x00000000   Number         0  guicc_888.o ABSOLUTE
    ..\..\..\Utilities\Third_Party\STemWin522\GUI\Core\GUICC_8888.c 0x00000000   Number         0  guicc_8888.o ABSOLUTE
    ..\..\..\Utilities\Third_Party\STemWin522\GUI\Core\GUICC_8888_Index2Color.c 0x00000000   Number         0  guicc_8888_index2color.o ABSOLUTE
    ..\..\..\Utilities\Third_Party\STemWin522\GUI\Core\GUICC_888_Index2Color.c 0x00000000   Number         0  guicc_888_index2color.o ABSOLUTE
    ..\..\..\Utilities\Third_Party\STemWin522\GUI\Core\GUICC_M565_Index2Color.c 0x00000000   Number         0  guicc_m565_index2color.o ABSOLUTE
    ..\..\..\Utilities\Third_Party\STemWin522\GUI\Core\GUI_2DLib.c 0x00000000   Number         0  gui_2dlib.o ABSOLUTE
    ..\..\..\Utilities\Third_Party\STemWin522\GUI\Core\GUI_ALLOC_AllocInit.c 0x00000000   Number         0  gui_alloc_allocinit.o ABSOLUTE
    ..\..\..\Utilities\Third_Party\STemWin522\GUI\Core\GUI_ALLOC_AllocZero.c 0x00000000   Number         0  gui_alloc_alloczero.o ABSOLUTE
    ..\..\..\Utilities\Third_Party\STemWin522\GUI\Core\GUI_AddDecMin.c 0x00000000   Number         0  gui_adddecmin.o ABSOLUTE
    ..\..\..\Utilities\Third_Party\STemWin522\GUI\Core\GUI_AddDecShift.c 0x00000000   Number         0  gui_adddecshift.o ABSOLUTE
    ..\..\..\Utilities\Third_Party\STemWin522\GUI\Core\GUI_Alloc.c 0x00000000   Number         0  gui_alloc.o ABSOLUTE
    ..\..\..\Utilities\Third_Party\STemWin522\GUI\Core\GUI_CalcColorDist.c 0x00000000   Number         0  gui_calccolordist.o ABSOLUTE
    ..\..\..\Utilities\Third_Party\STemWin522\GUI\Core\GUI_Char.c 0x00000000   Number         0  gui_char.o ABSOLUTE
    ..\..\..\Utilities\Third_Party\STemWin522\GUI\Core\GUI_CharLine.c 0x00000000   Number         0  gui_charline.o ABSOLUTE
    ..\..\..\Utilities\Third_Party\STemWin522\GUI\Core\GUI_CharM.c 0x00000000   Number         0  gui_charm.o ABSOLUTE
    ..\..\..\Utilities\Third_Party\STemWin522\GUI\Core\GUI_CharP.c 0x00000000   Number         0  gui_charp.o ABSOLUTE
    ..\..\..\Utilities\Third_Party\STemWin522\GUI\Core\GUI_CharPExt.c 0x00000000   Number         0  gui_charpext.o ABSOLUTE
    ..\..\..\Utilities\Third_Party\STemWin522\GUI\Core\GUI_Circ.c 0x00000000   Number         0  gui_circ.o ABSOLUTE
    ..\..\..\Utilities\Third_Party\STemWin522\GUI\Core\GUI_ClearRectEx.c 0x00000000   Number         0  gui_clearrectex.o ABSOLUTE
    ..\..\..\Utilities\Third_Party\STemWin522\GUI\Core\GUI_Color2Index.c 0x00000000   Number         0  gui_color2index.o ABSOLUTE
    ..\..\..\Utilities\Third_Party\STemWin522\GUI\Core\GUI_Core.c 0x00000000   Number         0  gui_core.o ABSOLUTE
    ..\..\..\Utilities\Third_Party\STemWin522\GUI\Core\GUI_Curs1.c 0x00000000   Number         0  gui_curs1.o ABSOLUTE
    ..\..\..\Utilities\Third_Party\STemWin522\GUI\Core\GUI_CursorArrowL.c 0x00000000   Number         0  gui_cursorarrowl.o ABSOLUTE
    ..\..\..\Utilities\Third_Party\STemWin522\GUI\Core\GUI_CursorArrowLI.c 0x00000000   Number         0  gui_cursorarrowli.o ABSOLUTE
    ..\..\..\Utilities\Third_Party\STemWin522\GUI\Core\GUI_CursorArrowLPx.c 0x00000000   Number         0  gui_cursorarrowlpx.o ABSOLUTE
    ..\..\..\Utilities\Third_Party\STemWin522\GUI\Core\GUI_CursorArrowM.c 0x00000000   Number         0  gui_cursorarrowm.o ABSOLUTE
    ..\..\..\Utilities\Third_Party\STemWin522\GUI\Core\GUI_CursorArrowMI.c 0x00000000   Number         0  gui_cursorarrowmi.o ABSOLUTE
    ..\..\..\Utilities\Third_Party\STemWin522\GUI\Core\GUI_CursorArrowMPx.c 0x00000000   Number         0  gui_cursorarrowmpx.o ABSOLUTE
    ..\..\..\Utilities\Third_Party\STemWin522\GUI\Core\GUI_CursorArrowS.c 0x00000000   Number         0  gui_cursorarrows.o ABSOLUTE
    ..\..\..\Utilities\Third_Party\STemWin522\GUI\Core\GUI_CursorArrowSI.c 0x00000000   Number         0  gui_cursorarrowsi.o ABSOLUTE
    ..\..\..\Utilities\Third_Party\STemWin522\GUI\Core\GUI_CursorArrowSPx.c 0x00000000   Number         0  gui_cursorarrowspx.o ABSOLUTE
    ..\..\..\Utilities\Third_Party\STemWin522\GUI\Core\GUI_CursorCrossL.c 0x00000000   Number         0  gui_cursorcrossl.o ABSOLUTE
    ..\..\..\Utilities\Third_Party\STemWin522\GUI\Core\GUI_CursorCrossLI.c 0x00000000   Number         0  gui_cursorcrossli.o ABSOLUTE
    ..\..\..\Utilities\Third_Party\STemWin522\GUI\Core\GUI_CursorCrossLPx.c 0x00000000   Number         0  gui_cursorcrosslpx.o ABSOLUTE
    ..\..\..\Utilities\Third_Party\STemWin522\GUI\Core\GUI_CursorCrossM.c 0x00000000   Number         0  gui_cursorcrossm.o ABSOLUTE
    ..\..\..\Utilities\Third_Party\STemWin522\GUI\Core\GUI_CursorCrossMI.c 0x00000000   Number         0  gui_cursorcrossmi.o ABSOLUTE
    ..\..\..\Utilities\Third_Party\STemWin522\GUI\Core\GUI_CursorCrossMPx.c 0x00000000   Number         0  gui_cursorcrossmpx.o ABSOLUTE
    ..\..\..\Utilities\Third_Party\STemWin522\GUI\Core\GUI_CursorCrossS.c 0x00000000   Number         0  gui_cursorcrosss.o ABSOLUTE
    ..\..\..\Utilities\Third_Party\STemWin522\GUI\Core\GUI_CursorCrossSI.c 0x00000000   Number         0  gui_cursorcrosssi.o ABSOLUTE
    ..\..\..\Utilities\Third_Party\STemWin522\GUI\Core\GUI_CursorCrossSPx.c 0x00000000   Number         0  gui_cursorcrossspx.o ABSOLUTE
    ..\..\..\Utilities\Third_Party\STemWin522\GUI\Core\GUI_CursorHeaderM.c 0x00000000   Number         0  gui_cursorheaderm.o ABSOLUTE
    ..\..\..\Utilities\Third_Party\STemWin522\GUI\Core\GUI_CursorHeaderMPx.c 0x00000000   Number         0  gui_cursorheadermpx.o ABSOLUTE
    ..\..\..\Utilities\Third_Party\STemWin522\GUI\Core\GUI_CursorPal.c 0x00000000   Number         0  gui_cursorpal.o ABSOLUTE
    ..\..\..\Utilities\Third_Party\STemWin522\GUI\Core\GUI_CursorPalI.c 0x00000000   Number         0  gui_cursorpali.o ABSOLUTE
    ..\..\..\Utilities\Third_Party\STemWin522\GUI\Core\GUI_Device.c 0x00000000   Number         0  gui_device.o ABSOLUTE
    ..\..\..\Utilities\Third_Party\STemWin522\GUI\Core\GUI_DispChar.c 0x00000000   Number         0  gui_dispchar.o ABSOLUTE
    ..\..\..\Utilities\Third_Party\STemWin522\GUI\Core\GUI_DispString.c 0x00000000   Number         0  gui_dispstring.o ABSOLUTE
    ..\..\..\Utilities\Third_Party\STemWin522\GUI\Core\GUI_DispStringAt.c 0x00000000   Number         0  gui_dispstringat.o ABSOLUTE
    ..\..\..\Utilities\Third_Party\STemWin522\GUI\Core\GUI_DispStringHCenter.c 0x00000000   Number         0  gui_dispstringhcenter.o ABSOLUTE
    ..\..\..\Utilities\Third_Party\STemWin522\GUI\Core\GUI_DispStringInRect.c 0x00000000   Number         0  gui_dispstringinrect.o ABSOLUTE
    ..\..\..\Utilities\Third_Party\STemWin522\GUI\Core\GUI_DispStringInRectWrap.c 0x00000000   Number         0  gui_dispstringinrectwrap.o ABSOLUTE
    ..\..\..\Utilities\Third_Party\STemWin522\GUI\Core\GUI_DrawBitmap.c 0x00000000   Number         0  gui_drawbitmap.o ABSOLUTE
    ..\..\..\Utilities\Third_Party\STemWin522\GUI\Core\GUI_DrawBitmapMag.c 0x00000000   Number         0  gui_drawbitmapmag.o ABSOLUTE
    ..\..\..\Utilities\Third_Party\STemWin522\GUI\Core\GUI_DrawBitmap_8888.c 0x00000000   Number         0  gui_drawbitmap_8888.o ABSOLUTE
    ..\..\..\Utilities\Third_Party\STemWin522\GUI\Core\GUI_DrawFocusRect.c 0x00000000   Number         0  gui_drawfocusrect.o ABSOLUTE
    ..\..\..\Utilities\Third_Party\STemWin522\GUI\Core\GUI_DrawGradient.c 0x00000000   Number         0  gui_drawgradient.o ABSOLUTE
    ..\..\..\Utilities\Third_Party\STemWin522\GUI\Core\GUI_DrawGraphEx.c 0x00000000   Number         0  gui_drawgraphex.o ABSOLUTE
    ..\..\..\Utilities\Third_Party\STemWin522\GUI\Core\GUI_DrawHLine.c 0x00000000   Number         0  gui_drawhline.o ABSOLUTE
    ..\..\..\Utilities\Third_Party\STemWin522\GUI\Core\GUI_DrawLine.c 0x00000000   Number         0  gui_drawline.o ABSOLUTE
    ..\..\..\Utilities\Third_Party\STemWin522\GUI\Core\GUI_DrawPixel.c 0x00000000   Number         0  gui_drawpixel.o ABSOLUTE
    ..\..\..\Utilities\Third_Party\STemWin522\GUI\Core\GUI_DrawPoint.c 0x00000000   Number         0  gui_drawpoint.o ABSOLUTE
    ..\..\..\Utilities\Third_Party\STemWin522\GUI\Core\GUI_DrawVLine.c 0x00000000   Number         0  gui_drawvline.o ABSOLUTE
    ..\..\..\Utilities\Third_Party\STemWin522\GUI\Core\GUI_EnableAlpha.c 0x00000000   Number         0  gui_enablealpha.o ABSOLUTE
    ..\..\..\Utilities\Third_Party\STemWin522\GUI\Core\GUI_EncExt.c 0x00000000   Number         0  gui_encext.o ABSOLUTE
    ..\..\..\Utilities\Third_Party\STemWin522\GUI\Core\GUI_Exec.c 0x00000000   Number         0  gui_exec.o ABSOLUTE
    ..\..\..\Utilities\Third_Party\STemWin522\GUI\Core\GUI_FillPolygon.c 0x00000000   Number         0  gui_fillpolygon.o ABSOLUTE
    ..\..\..\Utilities\Third_Party\STemWin522\GUI\Core\GUI_FillRect.c 0x00000000   Number         0  gui_fillrect.o ABSOLUTE
    ..\..\..\Utilities\Third_Party\STemWin522\GUI\Core\GUI_FillRectEx.c 0x00000000   Number         0  gui_fillrectex.o ABSOLUTE
    ..\..\..\Utilities\Third_Party\STemWin522\GUI\Core\GUI_GetBitmapPixelIndex.c 0x00000000   Number         0  gui_getbitmappixelindex.o ABSOLUTE
    ..\..\..\Utilities\Third_Party\STemWin522\GUI\Core\GUI_GetClientRect.c 0x00000000   Number         0  gui_getclientrect.o ABSOLUTE
    ..\..\..\Utilities\Third_Party\STemWin522\GUI\Core\GUI_GetColor.c 0x00000000   Number         0  gui_getcolor.o ABSOLUTE
    ..\..\..\Utilities\Third_Party\STemWin522\GUI\Core\GUI_GetDispPos.c 0x00000000   Number         0  gui_getdisppos.o ABSOLUTE
    ..\..\..\Utilities\Third_Party\STemWin522\GUI\Core\GUI_GetFontSizeY.c 0x00000000   Number         0  gui_getfontsizey.o ABSOLUTE
    ..\..\..\Utilities\Third_Party\STemWin522\GUI\Core\GUI_GetLineStyle.c 0x00000000   Number         0  gui_getlinestyle.o ABSOLUTE
    ..\..\..\Utilities\Third_Party\STemWin522\GUI\Core\GUI_GetOrg.c 0x00000000   Number         0  gui_getorg.o ABSOLUTE
    ..\..\..\Utilities\Third_Party\STemWin522\GUI\Core\GUI_GetStringDistX.c 0x00000000   Number         0  gui_getstringdistx.o ABSOLUTE
    ..\..\..\Utilities\Third_Party\STemWin522\GUI\Core\GUI_GetVersionString.c 0x00000000   Number         0  gui_getversionstring.o ABSOLUTE
    ..\..\..\Utilities\Third_Party\STemWin522\GUI\Core\GUI_GetYSizeOfFont.c 0x00000000   Number         0  gui_getysizeoffont.o ABSOLUTE
    ..\..\..\Utilities\Third_Party\STemWin522\GUI\Core\GUI_Goto.c 0x00000000   Number         0  gui_goto.o ABSOLUTE
    ..\..\..\Utilities\Third_Party\STemWin522\GUI\Core\GUI_MergeRect.c 0x00000000   Number         0  gui_mergerect.o ABSOLUTE
    ..\..\..\Utilities\Third_Party\STemWin522\GUI\Core\GUI_MoveRect.c 0x00000000   Number         0  gui_moverect.o ABSOLUTE
    ..\..\..\Utilities\Third_Party\STemWin522\GUI\Core\GUI_OnKey.c 0x00000000   Number         0  gui_onkey.o ABSOLUTE
    ..\..\..\Utilities\Third_Party\STemWin522\GUI\Core\GUI_PID.c 0x00000000   Number         0  gui_pid.o ABSOLUTE
    ..\..\..\Utilities\Third_Party\STemWin522\GUI\Core\GUI_Pen.c 0x00000000   Number         0  gui_pen.o ABSOLUTE
    ..\..\..\Utilities\Third_Party\STemWin522\GUI\Core\GUI_PolyRotate.c 0x00000000   Number         0  gui_polyrotate.o ABSOLUTE
    ..\..\..\Utilities\Third_Party\STemWin522\GUI\Core\GUI_Realloc.c 0x00000000   Number         0  gui_realloc.o ABSOLUTE
    ..\..\..\Utilities\Third_Party\STemWin522\GUI\Core\GUI_RectsIntersect.c 0x00000000   Number         0  gui_rectsintersect.o ABSOLUTE
    ..\..\..\Utilities\Third_Party\STemWin522\GUI\Core\GUI_SPRITE.c 0x00000000   Number         0  gui_sprite.o ABSOLUTE
    ..\..\..\Utilities\Third_Party\STemWin522\GUI\Core\GUI_SaveContext.c 0x00000000   Number         0  gui_savecontext.o ABSOLUTE
    ..\..\..\Utilities\Third_Party\STemWin522\GUI\Core\GUI_SelectLCD.c 0x00000000   Number         0  gui_selectlcd.o ABSOLUTE
    ..\..\..\Utilities\Third_Party\STemWin522\GUI\Core\GUI_SelectLayer.c 0x00000000   Number         0  gui_selectlayer.o ABSOLUTE
    ..\..\..\Utilities\Third_Party\STemWin522\GUI\Core\GUI_SetAlpha.c 0x00000000   Number         0  gui_setalpha.o ABSOLUTE
    ..\..\..\Utilities\Third_Party\STemWin522\GUI\Core\GUI_SetClipRect.c 0x00000000   Number         0  gui_setcliprect.o ABSOLUTE
    ..\..\..\Utilities\Third_Party\STemWin522\GUI\Core\GUI_SetColor.c 0x00000000   Number         0  gui_setcolor.o ABSOLUTE
    ..\..\..\Utilities\Third_Party\STemWin522\GUI\Core\GUI_SetColorIndex.c 0x00000000   Number         0  gui_setcolorindex.o ABSOLUTE
    ..\..\..\Utilities\Third_Party\STemWin522\GUI\Core\GUI_SetDefault.c 0x00000000   Number         0  gui_setdefault.o ABSOLUTE
    ..\..\..\Utilities\Third_Party\STemWin522\GUI\Core\GUI_SetDrawMode.c 0x00000000   Number         0  gui_setdrawmode.o ABSOLUTE
    ..\..\..\Utilities\Third_Party\STemWin522\GUI\Core\GUI_SetFont.c 0x00000000   Number         0  gui_setfont.o ABSOLUTE
    ..\..\..\Utilities\Third_Party\STemWin522\GUI\Core\GUI_SetLineStyle.c 0x00000000   Number         0  gui_setlinestyle.o ABSOLUTE
    ..\..\..\Utilities\Third_Party\STemWin522\GUI\Core\GUI_SetOrg.c 0x00000000   Number         0  gui_setorg.o ABSOLUTE
    ..\..\..\Utilities\Third_Party\STemWin522\GUI\Core\GUI_SetPixelIndex.c 0x00000000   Number         0  gui_setpixelindex.o ABSOLUTE
    ..\..\..\Utilities\Third_Party\STemWin522\GUI\Core\GUI_SetTextAlign.c 0x00000000   Number         0  gui_settextalign.o ABSOLUTE
    ..\..\..\Utilities\Third_Party\STemWin522\GUI\Core\GUI_SetTextMode.c 0x00000000   Number         0  gui_settextmode.o ABSOLUTE
    ..\..\..\Utilities\Third_Party\STemWin522\GUI\Core\GUI_TOUCH.c 0x00000000   Number         0  gui_touch.o ABSOLUTE
    ..\..\..\Utilities\Third_Party\STemWin522\GUI\Core\GUI_TOUCH_DriverAnalog.c 0x00000000   Number         0  gui_touch_driveranalog.o ABSOLUTE
    ..\..\..\Utilities\Third_Party\STemWin522\GUI\Core\GUI_TOUCH_StoreState.c 0x00000000   Number         0  gui_touch_storestate.o ABSOLUTE
    ..\..\..\Utilities\Third_Party\STemWin522\GUI\Core\GUI_TOUCH_StoreUnstable.c 0x00000000   Number         0  gui_touch_storeunstable.o ABSOLUTE
    ..\..\..\Utilities\Third_Party\STemWin522\GUI\Core\GUI_Task.c 0x00000000   Number         0  gui_task.o ABSOLUTE
    ..\..\..\Utilities\Third_Party\STemWin522\GUI\Core\GUI_Time.c 0x00000000   Number         0  gui_time.o ABSOLUTE
    ..\..\..\Utilities\Third_Party\STemWin522\GUI\Core\GUI_Timer.c 0x00000000   Number         0  gui_timer.o ABSOLUTE
    ..\..\..\Utilities\Third_Party\STemWin522\GUI\Core\GUI_UC.c 0x00000000   Number         0  gui_uc.o ABSOLUTE
    ..\..\..\Utilities\Third_Party\STemWin522\GUI\Core\GUI_UC_EncodeNone.c 0x00000000   Number         0  gui_uc_encodenone.o ABSOLUTE
    ..\..\..\Utilities\Third_Party\STemWin522\GUI\Core\GUI_Val.c 0x00000000   Number         0  gui_val.o ABSOLUTE
    ..\..\..\Utilities\Third_Party\STemWin522\GUI\Core\GUI_Valf.c 0x00000000   Number         0  gui_valf.o ABSOLUTE
    ..\..\..\Utilities\Third_Party\STemWin522\GUI\Core\GUI_WaitEvent.c 0x00000000   Number         0  gui_waitevent.o ABSOLUTE
    ..\..\..\Utilities\Third_Party\STemWin522\GUI\Core\GUI__Alpha.c 0x00000000   Number         0  gui__alpha.o ABSOLUTE
    ..\..\..\Utilities\Third_Party\STemWin522\GUI\Core\GUI__CalcTextRect.c 0x00000000   Number         0  gui__calctextrect.o ABSOLUTE
    ..\..\..\Utilities\Third_Party\STemWin522\GUI\Core\GUI__CompactPixelIndices.c 0x00000000   Number         0  gui__compactpixelindices.o ABSOLUTE
    ..\..\..\Utilities\Third_Party\STemWin522\GUI\Core\GUI__DivTbl_255_31.c 0x00000000   Number         0  gui__divtbl_255_31.o ABSOLUTE
    ..\..\..\Utilities\Third_Party\STemWin522\GUI\Core\GUI__DivTbl_255_63.c 0x00000000   Number         0  gui__divtbl_255_63.o ABSOLUTE
    ..\..\..\Utilities\Third_Party\STemWin522\GUI\Core\GUI__DivTbl_31_255.c 0x00000000   Number         0  gui__divtbl_31_255.o ABSOLUTE
    ..\..\..\Utilities\Third_Party\STemWin522\GUI\Core\GUI__DivTbl_63_255.c 0x00000000   Number         0  gui__divtbl_63_255.o ABSOLUTE
    ..\..\..\Utilities\Third_Party\STemWin522\GUI\Core\GUI__DivideRound32.c 0x00000000   Number         0  gui__divideround32.o ABSOLUTE
    ..\..\..\Utilities\Third_Party\STemWin522\GUI\Core\GUI__DrawTwinArc.c 0x00000000   Number         0  gui__drawtwinarc.o ABSOLUTE
    ..\..\..\Utilities\Third_Party\STemWin522\GUI\Core\GUI__ExpandPixelIndices.c 0x00000000   Number         0  gui__expandpixelindices.o ABSOLUTE
    ..\..\..\Utilities\Third_Party\STemWin522\GUI\Core\GUI__GetFontSizeY.c 0x00000000   Number         0  gui__getfontsizey.o ABSOLUTE
    ..\..\..\Utilities\Third_Party\STemWin522\GUI\Core\GUI__GetNumChars.c 0x00000000   Number         0  gui__getnumchars.o ABSOLUTE
    ..\..\..\Utilities\Third_Party\STemWin522\GUI\Core\GUI__HandleEOLine.c 0x00000000   Number         0  gui__handleeoline.o ABSOLUTE
    ..\..\..\Utilities\Third_Party\STemWin522\GUI\Core\GUI__IntersectRect.c 0x00000000   Number         0  gui__intersectrect.o ABSOLUTE
    ..\..\..\Utilities\Third_Party\STemWin522\GUI\Core\GUI__IntersectRects.c 0x00000000   Number         0  gui__intersectrects.o ABSOLUTE
    ..\..\..\Utilities\Third_Party\STemWin522\GUI\Core\GUI__ManageCache.c 0x00000000   Number         0  gui__managecache.o ABSOLUTE
    ..\..\..\Utilities\Third_Party\STemWin522\GUI\Core\GUI__ReduceRect.c 0x00000000   Number         0  gui__reducerect.o ABSOLUTE
    ..\..\..\Utilities\Third_Party\STemWin522\GUI\Core\GUI__SetPixelAlpha.c 0x00000000   Number         0  gui__setpixelalpha.o ABSOLUTE
    ..\..\..\Utilities\Third_Party\STemWin522\GUI\Core\GUI__SetText.c 0x00000000   Number         0  gui__settext.o ABSOLUTE
    ..\..\..\Utilities\Third_Party\STemWin522\GUI\Core\GUI__SinHQ.c 0x00000000   Number         0  gui__sinhq.o ABSOLUTE
    ..\..\..\Utilities\Third_Party\STemWin522\GUI\Core\GUI__Wrap.c 0x00000000   Number         0  gui__wrap.o ABSOLUTE
    ..\..\..\Utilities\Third_Party\STemWin522\GUI\Core\GUI__memset.c 0x00000000   Number         0  gui__memset.o ABSOLUTE
    ..\..\..\Utilities\Third_Party\STemWin522\GUI\Core\GUI__memset16.c 0x00000000   Number         0  gui__memset16.o ABSOLUTE
    ..\..\..\Utilities\Third_Party\STemWin522\GUI\Core\GUI__sqrt32.c 0x00000000   Number         0  gui__sqrt32.o ABSOLUTE
    ..\..\..\Utilities\Third_Party\STemWin522\GUI\Core\GUI__strcmp.c 0x00000000   Number         0  gui__strcmp.o ABSOLUTE
    ..\..\..\Utilities\Third_Party\STemWin522\GUI\Core\GUI__strlen.c 0x00000000   Number         0  gui__strlen.o ABSOLUTE
    ..\..\..\Utilities\Third_Party\STemWin522\GUI\Core\LCD.c 0x00000000   Number         0  lcd.o ABSOLUTE
    ..\..\..\Utilities\Third_Party\STemWin522\GUI\Core\LCD_AA.c 0x00000000   Number         0  lcd_aa.o ABSOLUTE
    ..\..\..\Utilities\Third_Party\STemWin522\GUI\Core\LCD_Color.c 0x00000000   Number         0  lcd_color.o ABSOLUTE
    ..\..\..\Utilities\Third_Party\STemWin522\GUI\Core\LCD_GetColorIndex.c 0x00000000   Number         0  lcd_getcolorindex.o ABSOLUTE
    ..\..\..\Utilities\Third_Party\STemWin522\GUI\Core\LCD_GetEx.c 0x00000000   Number         0  lcd_getex.o ABSOLUTE
    ..\..\..\Utilities\Third_Party\STemWin522\GUI\Core\LCD_GetNumDisplays.c 0x00000000   Number         0  lcd_getnumdisplays.o ABSOLUTE
    ..\..\..\Utilities\Third_Party\STemWin522\GUI\Core\LCD_GetP.c 0x00000000   Number         0  lcd_getp.o ABSOLUTE
    ..\..\..\Utilities\Third_Party\STemWin522\GUI\Core\LCD_GetPixelColor.c 0x00000000   Number         0  lcd_getpixelcolor.o ABSOLUTE
    ..\..\..\Utilities\Third_Party\STemWin522\GUI\Core\LCD_Info.c 0x00000000   Number         0  lcd_info.o ABSOLUTE
    ..\..\..\Utilities\Third_Party\STemWin522\GUI\Core\LCD_Mirror.c 0x00000000   Number         0  lcd_mirror.o ABSOLUTE
    ..\..\..\Utilities\Third_Party\STemWin522\GUI\Core\LCD_RLE4.c 0x00000000   Number         0  lcd_rle4.o ABSOLUTE
    ..\..\..\Utilities\Third_Party\STemWin522\GUI\Core\LCD_RLE8.c 0x00000000   Number         0  lcd_rle8.o ABSOLUTE
    ..\..\..\Utilities\Third_Party\STemWin522\GUI\Core\LCD_RLEAlpha.c 0x00000000   Number         0  lcd_rlealpha.o ABSOLUTE
    ..\..\..\Utilities\Third_Party\STemWin522\GUI\Core\LCD_ReadRect.c 0x00000000   Number         0  lcd_readrect.o ABSOLUTE
    ..\..\..\Utilities\Third_Party\STemWin522\GUI\Core\LCD_SelectLCD.c 0x00000000   Number         0  lcd_selectlcd.o ABSOLUTE
    ..\..\..\Utilities\Third_Party\STemWin522\GUI\Core\LCD_Set.c 0x00000000   Number         0  lcd_set.o ABSOLUTE
    ..\..\..\Utilities\Third_Party\STemWin522\GUI\Core\LCD_SetClipRectEx.c 0x00000000   Number         0  lcd_setcliprectex.o ABSOLUTE
    ..\..\..\Utilities\Third_Party\STemWin522\GUI\Core\LCD_UpdateColorIndices.c 0x00000000   Number         0  lcd_updatecolorindices.o ABSOLUTE
    ..\..\..\Utilities\Third_Party\STemWin522\GUI\Font\F08_1.c 0x00000000   Number         0  f08_1.o ABSOLUTE
    ..\..\..\Utilities\Third_Party\STemWin522\GUI\Font\F08_ASCII.c 0x00000000   Number         0  f08_ascii.o ABSOLUTE
    ..\..\..\Utilities\Third_Party\STemWin522\GUI\Font\F10S_ASCII.c 0x00000000   Number         0  f10s_ascii.o ABSOLUTE
    ..\..\..\Utilities\Third_Party\STemWin522\GUI\Font\F13B_ASCII.c 0x00000000   Number         0  f13b_ascii.o ABSOLUTE
    ..\..\..\Utilities\Third_Party\STemWin522\GUI\Font\F13_1.c 0x00000000   Number         0  f13_1.o ABSOLUTE
    ..\..\..\Utilities\Third_Party\STemWin522\GUI\Font\F13_ASCII.c 0x00000000   Number         0  f13_ascii.o ABSOLUTE
    ..\..\..\Utilities\Third_Party\STemWin522\GUI\Font\F16_ASCII.c 0x00000000   Number         0  f16_ascii.o ABSOLUTE
    ..\..\..\Utilities\Third_Party\STemWin522\GUI\Font\F6x8.c 0x00000000   Number         0  f6x8.o ABSOLUTE
    ..\..\..\Utilities\Third_Party\STemWin522\GUI\Font\FComic18B_ASCII.c 0x00000000   Number         0  fcomic18b_ascii.o ABSOLUTE
    ..\..\..\Utilities\Third_Party\STemWin522\GUI\Font\FComic24B_ASCII.c 0x00000000   Number         0  fcomic24b_ascii.o ABSOLUTE
    ..\..\..\Utilities\Third_Party\STemWin522\GUI\MemDev\GUIDEV.c 0x00000000   Number         0  guidev.o ABSOLUTE
    ..\..\..\Utilities\Third_Party\STemWin522\GUI\MemDev\GUIDEV_16.c 0x00000000   Number         0  guidev_16.o ABSOLUTE
    ..\..\..\Utilities\Third_Party\STemWin522\GUI\MemDev\GUIDEV_32.c 0x00000000   Number         0  guidev_32.o ABSOLUTE
    ..\..\..\Utilities\Third_Party\STemWin522\GUI\MemDev\GUIDEV_Auto.c 0x00000000   Number         0  guidev_auto.o ABSOLUTE
    ..\..\..\Utilities\Third_Party\STemWin522\GUI\MemDev\GUIDEV_Banding.c 0x00000000   Number         0  guidev_banding.o ABSOLUTE
    ..\..\..\Utilities\Third_Party\STemWin522\GUI\MemDev\GUIDEV_Clear.c 0x00000000   Number         0  guidev_clear.o ABSOLUTE
    ..\..\..\Utilities\Third_Party\STemWin522\GUI\MemDev\GUIDEV_CreateFixed.c 0x00000000   Number         0  guidev_createfixed.o ABSOLUTE
    ..\..\..\Utilities\Third_Party\STemWin522\GUI\MemDev\GUIDEV_GetDataPtr.c 0x00000000   Number         0  guidev_getdataptr.o ABSOLUTE
    ..\..\..\Utilities\Third_Party\STemWin522\GUI\MemDev\GUIDEV_GetPos.c 0x00000000   Number         0  guidev_getpos.o ABSOLUTE
    ..\..\..\Utilities\Third_Party\STemWin522\GUI\MemDev\GUIDEV_GetXSize.c 0x00000000   Number         0  guidev_getxsize.o ABSOLUTE
    ..\..\..\Utilities\Third_Party\STemWin522\GUI\MemDev\GUIDEV_GetYSize.c 0x00000000   Number         0  guidev_getysize.o ABSOLUTE
    ..\..\..\Utilities\Third_Party\STemWin522\GUI\MemDev\GUIDEV_Measure.c 0x00000000   Number         0  guidev_measure.o ABSOLUTE
    ..\..\..\Utilities\Third_Party\STemWin522\GUI\MemDev\GUIDEV_MoveAndFade.c 0x00000000   Number         0  guidev_moveandfade.o ABSOLUTE
    ..\..\..\Utilities\Third_Party\STemWin522\GUI\MemDev\GUIDEV_Perspective.c 0x00000000   Number         0  guidev_perspective.o ABSOLUTE
    ..\..\..\Utilities\Third_Party\STemWin522\GUI\MemDev\GUIDEV_ReduceYSize.c 0x00000000   Number         0  guidev_reduceysize.o ABSOLUTE
    ..\..\..\Utilities\Third_Party\STemWin522\GUI\MemDev\GUIDEV_SetOrg.c 0x00000000   Number         0  guidev_setorg.o ABSOLUTE
    ..\..\..\Utilities\Third_Party\STemWin522\GUI\MemDev\GUIDEV_StaticDevices.c 0x00000000   Number         0  guidev_staticdevices.o ABSOLUTE
    ..\..\..\Utilities\Third_Party\STemWin522\GUI\MemDev\GUIDEV_Usage.c 0x00000000   Number         0  guidev_usage.o ABSOLUTE
    ..\..\..\Utilities\Third_Party\STemWin522\GUI\MemDev\GUIDEV_UsageBM.c 0x00000000   Number         0  guidev_usagebm.o ABSOLUTE
    ..\..\..\Utilities\Third_Party\STemWin522\GUI\MemDev\GUIDEV_Write.c 0x00000000   Number         0  guidev_write.o ABSOLUTE
    ..\..\..\Utilities\Third_Party\STemWin522\GUI\MemDev\GUIDEV_WriteToActiveAlpha.c 0x00000000   Number         0  guidev_writetoactivealpha.o ABSOLUTE
    ..\..\..\Utilities\Third_Party\STemWin522\GUI\MemDev\GUIDEV_WriteToActiveOpaque.c 0x00000000   Number         0  guidev_writetoactiveopaque.o ABSOLUTE
    ..\..\..\Utilities\Third_Party\STemWin522\GUI\WM\WM.c 0x00000000   Number         0  wm.o ABSOLUTE
    ..\..\..\Utilities\Third_Party\STemWin522\GUI\WM\WM_BringToBottom.c 0x00000000   Number         0  wm_bringtobottom.o ABSOLUTE
    ..\..\..\Utilities\Third_Party\STemWin522\GUI\WM\WM_BringToTop.c 0x00000000   Number         0  wm_bringtotop.o ABSOLUTE
    ..\..\..\Utilities\Third_Party\STemWin522\GUI\WM\WM_CheckScrollPos.c 0x00000000   Number         0  wm_checkscrollpos.o ABSOLUTE
    ..\..\..\Utilities\Third_Party\STemWin522\GUI\WM\WM_CriticalHandle.c 0x00000000   Number         0  wm_criticalhandle.o ABSOLUTE
    ..\..\..\Utilities\Third_Party\STemWin522\GUI\WM\WM_ForEachDesc.c 0x00000000   Number         0  wm_foreachdesc.o ABSOLUTE
    ..\..\..\Utilities\Third_Party\STemWin522\GUI\WM\WM_GetBkColor.c 0x00000000   Number         0  wm_getbkcolor.o ABSOLUTE
    ..\..\..\Utilities\Third_Party\STemWin522\GUI\WM\WM_GetClientRect.c 0x00000000   Number         0  wm_getclientrect.o ABSOLUTE
    ..\..\..\Utilities\Third_Party\STemWin522\GUI\WM\WM_GetClientWindow.c 0x00000000   Number         0  wm_getclientwindow.o ABSOLUTE
    ..\..\..\Utilities\Third_Party\STemWin522\GUI\WM\WM_GetDesktopWindow.c 0x00000000   Number         0  wm_getdesktopwindow.o ABSOLUTE
    ..\..\..\Utilities\Third_Party\STemWin522\GUI\WM\WM_GetDesktopWindowEx.c 0x00000000   Number         0  wm_getdesktopwindowex.o ABSOLUTE
    ..\..\..\Utilities\Third_Party\STemWin522\GUI\WM\WM_GetDialogItem.c 0x00000000   Number         0  wm_getdialogitem.o ABSOLUTE
    ..\..\..\Utilities\Third_Party\STemWin522\GUI\WM\WM_GetFirstChild.c 0x00000000   Number         0  wm_getfirstchild.o ABSOLUTE
    ..\..\..\Utilities\Third_Party\STemWin522\GUI\WM\WM_GetFlags.c 0x00000000   Number         0  wm_getflags.o ABSOLUTE
    ..\..\..\Utilities\Third_Party\STemWin522\GUI\WM\WM_GetFocussedWindow.c 0x00000000   Number         0  wm_getfocussedwindow.o ABSOLUTE
    ..\..\..\Utilities\Third_Party\STemWin522\GUI\WM\WM_GetId.c 0x00000000   Number         0  wm_getid.o ABSOLUTE
    ..\..\..\Utilities\Third_Party\STemWin522\GUI\WM\WM_GetInsideRect.c 0x00000000   Number         0  wm_getinsiderect.o ABSOLUTE
    ..\..\..\Utilities\Third_Party\STemWin522\GUI\WM\WM_GetInsideRectExScrollbar.c 0x00000000   Number         0  wm_getinsiderectexscrollbar.o ABSOLUTE
    ..\..\..\Utilities\Third_Party\STemWin522\GUI\WM\WM_GetNextSibling.c 0x00000000   Number         0  wm_getnextsibling.o ABSOLUTE
    ..\..\..\Utilities\Third_Party\STemWin522\GUI\WM\WM_GetOrg.c 0x00000000   Number         0  wm_getorg.o ABSOLUTE
    ..\..\..\Utilities\Third_Party\STemWin522\GUI\WM\WM_GetParent.c 0x00000000   Number         0  wm_getparent.o ABSOLUTE
    ..\..\..\Utilities\Third_Party\STemWin522\GUI\WM\WM_GetScrollPartner.c 0x00000000   Number         0  wm_getscrollpartner.o ABSOLUTE
    ..\..\..\Utilities\Third_Party\STemWin522\GUI\WM\WM_GetScrollState.c 0x00000000   Number         0  wm_getscrollstate.o ABSOLUTE
    ..\..\..\Utilities\Third_Party\STemWin522\GUI\WM\WM_GetScrollbar.c 0x00000000   Number         0  wm_getscrollbar.o ABSOLUTE
    ..\..\..\Utilities\Third_Party\STemWin522\GUI\WM\WM_GetWindowRect.c 0x00000000   Number         0  wm_getwindowrect.o ABSOLUTE
    ..\..\..\Utilities\Third_Party\STemWin522\GUI\WM\WM_GetWindowSize.c 0x00000000   Number         0  wm_getwindowsize.o ABSOLUTE
    ..\..\..\Utilities\Third_Party\STemWin522\GUI\WM\WM_HasCaptured.c 0x00000000   Number         0  wm_hascaptured.o ABSOLUTE
    ..\..\..\Utilities\Third_Party\STemWin522\GUI\WM\WM_HasFocus.c 0x00000000   Number         0  wm_hasfocus.o ABSOLUTE
    ..\..\..\Utilities\Third_Party\STemWin522\GUI\WM\WM_Hide.c 0x00000000   Number         0  wm_hide.o ABSOLUTE
    ..\..\..\Utilities\Third_Party\STemWin522\GUI\WM\WM_IsFocussable.c 0x00000000   Number         0  wm_isfocussable.o ABSOLUTE
    ..\..\..\Utilities\Third_Party\STemWin522\GUI\WM\WM_IsVisible.c 0x00000000   Number         0  wm_isvisible.o ABSOLUTE
    ..\..\..\Utilities\Third_Party\STemWin522\GUI\WM\WM_IsWindow.c 0x00000000   Number         0  wm_iswindow.o ABSOLUTE
    ..\..\..\Utilities\Third_Party\STemWin522\GUI\WM\WM_MakeModal.c 0x00000000   Number         0  wm_makemodal.o ABSOLUTE
    ..\..\..\Utilities\Third_Party\STemWin522\GUI\WM\WM_MemDev.c 0x00000000   Number         0  wm_memdev.o ABSOLUTE
    ..\..\..\Utilities\Third_Party\STemWin522\GUI\WM\WM_Motion.c 0x00000000   Number         0  wm_motion.o ABSOLUTE
    ..\..\..\Utilities\Third_Party\STemWin522\GUI\WM\WM_Move.c 0x00000000   Number         0  wm_move.o ABSOLUTE
    ..\..\..\Utilities\Third_Party\STemWin522\GUI\WM\WM_MoveChildTo.c 0x00000000   Number         0  wm_movechildto.o ABSOLUTE
    ..\..\..\Utilities\Third_Party\STemWin522\GUI\WM\WM_NotifyParent.c 0x00000000   Number         0  wm_notifyparent.o ABSOLUTE
    ..\..\..\Utilities\Third_Party\STemWin522\GUI\WM\WM_OnKey.c 0x00000000   Number         0  wm_onkey.o ABSOLUTE
    ..\..\..\Utilities\Third_Party\STemWin522\GUI\WM\WM_PID__GetPrevState.c 0x00000000   Number         0  wm_pid__getprevstate.o ABSOLUTE
    ..\..\..\Utilities\Third_Party\STemWin522\GUI\WM\WM_ResizeWindow.c 0x00000000   Number         0  wm_resizewindow.o ABSOLUTE
    ..\..\..\Utilities\Third_Party\STemWin522\GUI\WM\WM_Screen2Win.c 0x00000000   Number         0  wm_screen2win.o ABSOLUTE
    ..\..\..\Utilities\Third_Party\STemWin522\GUI\WM\WM_SendMessageNoPara.c 0x00000000   Number         0  wm_sendmessagenopara.o ABSOLUTE
    ..\..\..\Utilities\Third_Party\STemWin522\GUI\WM\WM_SendToParent.c 0x00000000   Number         0  wm_sendtoparent.o ABSOLUTE
    ..\..\..\Utilities\Third_Party\STemWin522\GUI\WM\WM_SetCallback.c 0x00000000   Number         0  wm_setcallback.o ABSOLUTE
    ..\..\..\Utilities\Third_Party\STemWin522\GUI\WM\WM_SetCapture.c 0x00000000   Number         0  wm_setcapture.o ABSOLUTE
    ..\..\..\Utilities\Third_Party\STemWin522\GUI\WM\WM_SetCaptureMove.c 0x00000000   Number         0  wm_setcapturemove.o ABSOLUTE
    ..\..\..\Utilities\Third_Party\STemWin522\GUI\WM\WM_SetCreateFlags.c 0x00000000   Number         0  wm_setcreateflags.o ABSOLUTE
    ..\..\..\Utilities\Third_Party\STemWin522\GUI\WM\WM_SetFocus.c 0x00000000   Number         0  wm_setfocus.o ABSOLUTE
    ..\..\..\Utilities\Third_Party\STemWin522\GUI\WM\WM_SetFocusOnNextChild.c 0x00000000   Number         0  wm_setfocusonnextchild.o ABSOLUTE
    ..\..\..\Utilities\Third_Party\STemWin522\GUI\WM\WM_SetFocusOnPrevChild.c 0x00000000   Number         0  wm_setfocusonprevchild.o ABSOLUTE
    ..\..\..\Utilities\Third_Party\STemWin522\GUI\WM\WM_SetScrollState.c 0x00000000   Number         0  wm_setscrollstate.o ABSOLUTE
    ..\..\..\Utilities\Third_Party\STemWin522\GUI\WM\WM_SetScrollbar.c 0x00000000   Number         0  wm_setscrollbar.o ABSOLUTE
    ..\..\..\Utilities\Third_Party\STemWin522\GUI\WM\WM_SetSize.c 0x00000000   Number         0  wm_setsize.o ABSOLUTE
    ..\..\..\Utilities\Third_Party\STemWin522\GUI\WM\WM_SetTrans.c 0x00000000   Number         0  wm_settrans.o ABSOLUTE
    ..\..\..\Utilities\Third_Party\STemWin522\GUI\WM\WM_SetUserClipRect.c 0x00000000   Number         0  wm_setusercliprect.o ABSOLUTE
    ..\..\..\Utilities\Third_Party\STemWin522\GUI\WM\WM_SetWindowPos.c 0x00000000   Number         0  wm_setwindowpos.o ABSOLUTE
    ..\..\..\Utilities\Third_Party\STemWin522\GUI\WM\WM_Show.c 0x00000000   Number         0  wm_show.o ABSOLUTE
    ..\..\..\Utilities\Third_Party\STemWin522\GUI\WM\WM_Timer.c 0x00000000   Number         0  wm_timer.o ABSOLUTE
    ..\..\..\Utilities\Third_Party\STemWin522\GUI\WM\WM_Touch.c 0x00000000   Number         0  wm_touch.o ABSOLUTE
    ..\..\..\Utilities\Third_Party\STemWin522\GUI\WM\WM_UserData.c 0x00000000   Number         0  wm_userdata.o ABSOLUTE
    ..\..\..\Utilities\Third_Party\STemWin522\GUI\WM\WM_ValidateWindow.c 0x00000000   Number         0  wm_validatewindow.o ABSOLUTE
    ..\..\..\Utilities\Third_Party\STemWin522\GUI\WM\WM__ForEachDesc.c 0x00000000   Number         0  wm__foreachdesc.o ABSOLUTE
    ..\..\..\Utilities\Third_Party\STemWin522\GUI\WM\WM__GetFirstSibling.c 0x00000000   Number         0  wm__getfirstsibling.o ABSOLUTE
    ..\..\..\Utilities\Third_Party\STemWin522\GUI\WM\WM__GetFocussedChild.c 0x00000000   Number         0  wm__getfocussedchild.o ABSOLUTE
    ..\..\..\Utilities\Third_Party\STemWin522\GUI\WM\WM__GetLastSibling.c 0x00000000   Number         0  wm__getlastsibling.o ABSOLUTE
    ..\..\..\Utilities\Third_Party\STemWin522\GUI\WM\WM__GetOrg_AA.c 0x00000000   Number         0  wm__getorg_aa.o ABSOLUTE
    ..\..\..\Utilities\Third_Party\STemWin522\GUI\WM\WM__GetPrevSibling.c 0x00000000   Number         0  wm__getprevsibling.o ABSOLUTE
    ..\..\..\Utilities\Third_Party\STemWin522\GUI\WM\WM__IsAncestor.c 0x00000000   Number         0  wm__isancestor.o ABSOLUTE
    ..\..\..\Utilities\Third_Party\STemWin522\GUI\WM\WM__IsChild.c 0x00000000   Number         0  wm__ischild.o ABSOLUTE
    ..\..\..\Utilities\Third_Party\STemWin522\GUI\WM\WM__IsEnabled.c 0x00000000   Number         0  wm__isenabled.o ABSOLUTE
    ..\..\..\Utilities\Third_Party\STemWin522\GUI\WM\WM__Screen2Client.c 0x00000000   Number         0  wm__screen2client.o ABSOLUTE
    ..\..\..\Utilities\Third_Party\STemWin522\GUI\WM\WM__SendMessage.c 0x00000000   Number         0  wm__sendmessage.o ABSOLUTE
    ..\..\..\Utilities\Third_Party\STemWin522\GUI\WM\WM__SendMessageIfEnabled.c 0x00000000   Number         0  wm__sendmessageifenabled.o ABSOLUTE
    ..\..\..\Utilities\Third_Party\STemWin522\GUI\WM\WM__SendMessageNoPara.c 0x00000000   Number         0  wm__sendmessagenopara.o ABSOLUTE
    ..\..\..\Utilities\Third_Party\STemWin522\GUI\WM\WM__UpdateChildPositions.c 0x00000000   Number         0  wm__updatechildpositions.o ABSOLUTE
    ..\..\..\Utilities\Third_Party\STemWin522\GUI\Widget\BUTTON.c 0x00000000   Number         0  button.o ABSOLUTE
    ..\..\..\Utilities\Third_Party\STemWin522\GUI\Widget\BUTTON_CreateIndirect.c 0x00000000   Number         0  button_createindirect.o ABSOLUTE
    ..\..\..\Utilities\Third_Party\STemWin522\GUI\Widget\BUTTON_Skin.c 0x00000000   Number         0  button_skin.o ABSOLUTE
    ..\..\..\Utilities\Third_Party\STemWin522\GUI\Widget\BUTTON_SkinClassic.c 0x00000000   Number         0  button_skinclassic.o ABSOLUTE
    ..\..\..\Utilities\Third_Party\STemWin522\GUI\Widget\BUTTON_SkinFlex.c 0x00000000   Number         0  button_skinflex.o ABSOLUTE
    ..\..\..\Utilities\Third_Party\STemWin522\GUI\Widget\DIALOG.c 0x00000000   Number         0  dialog.o ABSOLUTE
    ..\..\..\Utilities\Third_Party\STemWin522\GUI\Widget\FRAMEWIN.c 0x00000000   Number         0  framewin.o ABSOLUTE
    ..\..\..\Utilities\Third_Party\STemWin522\GUI\Widget\FRAMEWIN_CreateIndirect.c 0x00000000   Number         0  framewin_createindirect.o ABSOLUTE
    ..\..\..\Utilities\Third_Party\STemWin522\GUI\Widget\FRAMEWIN_Default.c 0x00000000   Number         0  framewin_default.o ABSOLUTE
    ..\..\..\Utilities\Third_Party\STemWin522\GUI\Widget\FRAMEWIN_Get.c 0x00000000   Number         0  framewin_get.o ABSOLUTE
    ..\..\..\Utilities\Third_Party\STemWin522\GUI\Widget\FRAMEWIN_SetColors.c 0x00000000   Number         0  framewin_setcolors.o ABSOLUTE
    ..\..\..\Utilities\Third_Party\STemWin522\GUI\Widget\FRAMEWIN_SetOwnerDraw.c 0x00000000   Number         0  framewin_setownerdraw.o ABSOLUTE
    ..\..\..\Utilities\Third_Party\STemWin522\GUI\Widget\FRAMEWIN_Skin.c 0x00000000   Number         0  framewin_skin.o ABSOLUTE
    ..\..\..\Utilities\Third_Party\STemWin522\GUI\Widget\FRAMEWIN_SkinClassic.c 0x00000000   Number         0  framewin_skinclassic.o ABSOLUTE
    ..\..\..\Utilities\Third_Party\STemWin522\GUI\Widget\FRAMEWIN_SkinFlex.c 0x00000000   Number         0  framewin_skinflex.o ABSOLUTE
    ..\..\..\Utilities\Third_Party\STemWin522\GUI\Widget\FRAMEWIN__UpdateButtons.c 0x00000000   Number         0  framewin__updatebuttons.o ABSOLUTE
    ..\..\..\Utilities\Third_Party\STemWin522\GUI\Widget\GRAPH.c 0x00000000   Number         0  graph.o ABSOLUTE
    ..\..\..\Utilities\Third_Party\STemWin522\GUI\Widget\GRAPH_DATA_YT.c 0x00000000   Number         0  graph_data_yt.o ABSOLUTE
    ..\..\..\Utilities\Third_Party\STemWin522\GUI\Widget\GRAPH_SCALE.c 0x00000000   Number         0  graph_scale.o ABSOLUTE
    ..\..\..\Utilities\Third_Party\STemWin522\GUI\Widget\GUI_ARRAY.c 0x00000000   Number         0  gui_array.o ABSOLUTE
    ..\..\..\Utilities\Third_Party\STemWin522\GUI\Widget\GUI_ARRAY_DeleteItem.c 0x00000000   Number         0  gui_array_deleteitem.o ABSOLUTE
    ..\..\..\Utilities\Third_Party\STemWin522\GUI\Widget\GUI_ARRAY_InsertItem.c 0x00000000   Number         0  gui_array_insertitem.o ABSOLUTE
    ..\..\..\Utilities\Third_Party\STemWin522\GUI\Widget\GUI_ARRAY_ResizeItem.c 0x00000000   Number         0  gui_array_resizeitem.o ABSOLUTE
    ..\..\..\Utilities\Third_Party\STemWin522\GUI\Widget\GUI_DRAW.c 0x00000000   Number         0  gui_draw.o ABSOLUTE
    ..\..\..\Utilities\Third_Party\STemWin522\GUI\Widget\HEADER.c 0x00000000   Number         0  header.o ABSOLUTE
    ..\..\..\Utilities\Third_Party\STemWin522\GUI\Widget\HEADER_GetSel.c 0x00000000   Number         0  header_getsel.o ABSOLUTE
    ..\..\..\Utilities\Third_Party\STemWin522\GUI\Widget\HEADER_SetDragLimit.c 0x00000000   Number         0  header_setdraglimit.o ABSOLUTE
    ..\..\..\Utilities\Third_Party\STemWin522\GUI\Widget\HEADER_Skin.c 0x00000000   Number         0  header_skin.o ABSOLUTE
    ..\..\..\Utilities\Third_Party\STemWin522\GUI\Widget\HEADER_SkinClassic.c 0x00000000   Number         0  header_skinclassic.o ABSOLUTE
    ..\..\..\Utilities\Third_Party\STemWin522\GUI\Widget\HEADER_SkinFlex.c 0x00000000   Number         0  header_skinflex.o ABSOLUTE
    ..\..\..\Utilities\Third_Party\STemWin522\GUI\Widget\LISTVIEW.c 0x00000000   Number         0  listview.o ABSOLUTE
    ..\..\..\Utilities\Third_Party\STemWin522\GUI\Widget\LISTVIEW_DeleteRow.c 0x00000000   Number         0  listview_deleterow.o ABSOLUTE
    ..\..\..\Utilities\Third_Party\STemWin522\GUI\Widget\LISTVIEW_DisableRow.c 0x00000000   Number         0  listview_disablerow.o ABSOLUTE
    ..\..\..\Utilities\Third_Party\STemWin522\GUI\Widget\LISTVIEW_GetHeader.c 0x00000000   Number         0  listview_getheader.o ABSOLUTE
    ..\..\..\Utilities\Third_Party\STemWin522\GUI\Widget\LISTVIEW_GetItemText.c 0x00000000   Number         0  listview_getitemtext.o ABSOLUTE
    ..\..\..\Utilities\Third_Party\STemWin522\GUI\Widget\LISTVIEW_GetNumColumns.c 0x00000000   Number         0  listview_getnumcolumns.o ABSOLUTE
    ..\..\..\Utilities\Third_Party\STemWin522\GUI\Widget\LISTVIEW_GetNumRows.c 0x00000000   Number         0  listview_getnumrows.o ABSOLUTE
    ..\..\..\Utilities\Third_Party\STemWin522\GUI\Widget\LISTVIEW_GetSel.c 0x00000000   Number         0  listview_getsel.o ABSOLUTE
    ..\..\..\Utilities\Third_Party\STemWin522\GUI\Widget\LISTVIEW_GetWrapMode.c 0x00000000   Number         0  listview_getwrapmode.o ABSOLUTE
    ..\..\..\Utilities\Third_Party\STemWin522\GUI\Widget\LISTVIEW_InsertRow.c 0x00000000   Number         0  listview_insertrow.o ABSOLUTE
    ..\..\..\Utilities\Third_Party\STemWin522\GUI\Widget\LISTVIEW_SetAutoScroll.c 0x00000000   Number         0  listview_setautoscroll.o ABSOLUTE
    ..\..\..\Utilities\Third_Party\STemWin522\GUI\Widget\LISTVIEW_SetGridVis.c 0x00000000   Number         0  listview_setgridvis.o ABSOLUTE
    ..\..\..\Utilities\Third_Party\STemWin522\GUI\Widget\LISTVIEW_SetItemColor.c 0x00000000   Number         0  listview_setitemcolor.o ABSOLUTE
    ..\..\..\Utilities\Third_Party\STemWin522\GUI\Widget\LISTVIEW_SetLBorder.c 0x00000000   Number         0  listview_setlborder.o ABSOLUTE
    ..\..\..\Utilities\Third_Party\STemWin522\GUI\Widget\LISTVIEW_SetRBorder.c 0x00000000   Number         0  listview_setrborder.o ABSOLUTE
    ..\..\..\Utilities\Third_Party\STemWin522\GUI\Widget\LISTVIEW_SetSel.c 0x00000000   Number         0  listview_setsel.o ABSOLUTE
    ..\..\..\Utilities\Third_Party\STemWin522\GUI\Widget\LISTVIEW_SetSort.c 0x00000000   Number         0  listview_setsort.o ABSOLUTE
    ..\..\..\Utilities\Third_Party\STemWin522\GUI\Widget\PROGBAR.c 0x00000000   Number         0  progbar.o ABSOLUTE
    ..\..\..\Utilities\Third_Party\STemWin522\GUI\Widget\PROGBAR_CreateIndirect.c 0x00000000   Number         0  progbar_createindirect.o ABSOLUTE
    ..\..\..\Utilities\Third_Party\STemWin522\GUI\Widget\PROGBAR_SetFont.c 0x00000000   Number         0  progbar_setfont.o ABSOLUTE
    ..\..\..\Utilities\Third_Party\STemWin522\GUI\Widget\PROGBAR_SetMinMax.c 0x00000000   Number         0  progbar_setminmax.o ABSOLUTE
    ..\..\..\Utilities\Third_Party\STemWin522\GUI\Widget\PROGBAR_SetTextAlign.c 0x00000000   Number         0  progbar_settextalign.o ABSOLUTE
    ..\..\..\Utilities\Third_Party\STemWin522\GUI\Widget\PROGBAR_Skin.c 0x00000000   Number         0  progbar_skin.o ABSOLUTE
    ..\..\..\Utilities\Third_Party\STemWin522\GUI\Widget\PROGBAR_SkinClassic.c 0x00000000   Number         0  progbar_skinclassic.o ABSOLUTE
    ..\..\..\Utilities\Third_Party\STemWin522\GUI\Widget\PROGBAR_SkinFlex.c 0x00000000   Number         0  progbar_skinflex.o ABSOLUTE
    ..\..\..\Utilities\Third_Party\STemWin522\GUI\Widget\SCROLLBAR.c 0x00000000   Number         0  scrollbar.o ABSOLUTE
    ..\..\..\Utilities\Third_Party\STemWin522\GUI\Widget\SCROLLBAR_Create.c 0x00000000   Number         0  scrollbar_create.o ABSOLUTE
    ..\..\..\Utilities\Third_Party\STemWin522\GUI\Widget\SCROLLBAR_GetValue.c 0x00000000   Number         0  scrollbar_getvalue.o ABSOLUTE
    ..\..\..\Utilities\Third_Party\STemWin522\GUI\Widget\SCROLLBAR_Skin.c 0x00000000   Number         0  scrollbar_skin.o ABSOLUTE
    ..\..\..\Utilities\Third_Party\STemWin522\GUI\Widget\SCROLLBAR_SkinClassic.c 0x00000000   Number         0  scrollbar_skinclassic.o ABSOLUTE
    ..\..\..\Utilities\Third_Party\STemWin522\GUI\Widget\SCROLLBAR_SkinFlex.c 0x00000000   Number         0  scrollbar_skinflex.o ABSOLUTE
    ..\..\..\Utilities\Third_Party\STemWin522\GUI\Widget\SLIDER.c 0x00000000   Number         0  slider.o ABSOLUTE
    ..\..\..\Utilities\Third_Party\STemWin522\GUI\Widget\SLIDER_CreateIndirect.c 0x00000000   Number         0  slider_createindirect.o ABSOLUTE
    ..\..\..\Utilities\Third_Party\STemWin522\GUI\Widget\SLIDER_Skin.c 0x00000000   Number         0  slider_skin.o ABSOLUTE
    ..\..\..\Utilities\Third_Party\STemWin522\GUI\Widget\SLIDER_SkinClassic.c 0x00000000   Number         0  slider_skinclassic.o ABSOLUTE
    ..\..\..\Utilities\Third_Party\STemWin522\GUI\Widget\SLIDER_SkinFlex.c 0x00000000   Number         0  slider_skinflex.o ABSOLUTE
    ..\..\..\Utilities\Third_Party\STemWin522\GUI\Widget\TEXT.c 0x00000000   Number         0  text.o ABSOLUTE
    ..\..\..\Utilities\Third_Party\STemWin522\GUI\Widget\TEXT_CreateIndirect.c 0x00000000   Number         0  text_createindirect.o ABSOLUTE
    ..\..\..\Utilities\Third_Party\STemWin522\GUI\Widget\TEXT_Default.c 0x00000000   Number         0  text_default.o ABSOLUTE
    ..\..\..\Utilities\Third_Party\STemWin522\GUI\Widget\TEXT_SetFont.c 0x00000000   Number         0  text_setfont.o ABSOLUTE
    ..\..\..\Utilities\Third_Party\STemWin522\GUI\Widget\TEXT_SetText.c 0x00000000   Number         0  text_settext.o ABSOLUTE
    ..\..\..\Utilities\Third_Party\STemWin522\GUI\Widget\TREEVIEW.c 0x00000000   Number         0  treeview.o ABSOLUTE
    ..\..\..\Utilities\Third_Party\STemWin522\GUI\Widget\TREEVIEW_CreateIndirect.c 0x00000000   Number         0  treeview_createindirect.o ABSOLUTE
    ..\..\..\Utilities\Third_Party\STemWin522\GUI\Widget\TREEVIEW_Image.c 0x00000000   Number         0  treeview_image.o ABSOLUTE
    ..\..\..\Utilities\Third_Party\STemWin522\GUI\Widget\WIDGET.c 0x00000000   Number         0  widget.o ABSOLUTE
    ..\..\..\Utilities\Third_Party\STemWin522\GUI\Widget\WIDGET_Effect_3D.c 0x00000000   Number         0  widget_effect_3d.o ABSOLUTE
    ..\..\..\Utilities\Third_Party\STemWin522\GUI\Widget\WIDGET_Effect_None.c 0x00000000   Number         0  widget_effect_none.o ABSOLUTE
    ..\..\..\Utilities\Third_Party\STemWin522\GUI\Widget\WIDGET_Effect_Simple.c 0x00000000   Number         0  widget_effect_simple.o ABSOLUTE
    ..\..\..\Utilities\Third_Party\STemWin522\GUI\Widget\WIDGET_FillStringInRect.c 0x00000000   Number         0  widget_fillstringinrect.o ABSOLUTE
    ..\..\..\Utilities\Third_Party\STemWin522\GUI\Widget\WIDGET_SetEffect.c 0x00000000   Number         0  widget_seteffect.o ABSOLUTE
    ..\Demo\GUIDEMO.c                        0x00000000   Number         0  guidemo.o ABSOLUTE
    ..\Demo\GUIDEMO_AntialiasedText.c        0x00000000   Number         0  guidemo_antialiasedtext.o ABSOLUTE
    ..\Demo\GUIDEMO_Automotive.c             0x00000000   Number         0  guidemo_automotive.o ABSOLUTE
    ..\Demo\GUIDEMO_BarGraph.c               0x00000000   Number         0  guidemo_bargraph.o ABSOLUTE
    ..\Demo\GUIDEMO_Bitmap.c                 0x00000000   Number         0  guidemo_bitmap.o ABSOLUTE
    ..\Demo\GUIDEMO_ColorBar.c               0x00000000   Number         0  guidemo_colorbar.o ABSOLUTE
    ..\Demo\GUIDEMO_Conf.c                   0x00000000   Number         0  guidemo_conf.o ABSOLUTE
    ..\Demo\GUIDEMO_Cursor.c                 0x00000000   Number         0  guidemo_cursor.o ABSOLUTE
    ..\Demo\GUIDEMO_Fading.c                 0x00000000   Number         0  guidemo_fading.o ABSOLUTE
    ..\Demo\GUIDEMO_Graph.c                  0x00000000   Number         0  guidemo_graph.o ABSOLUTE
    ..\Demo\GUIDEMO_IconView.c               0x00000000   Number         0  guidemo_iconview.o ABSOLUTE
    ..\Demo\GUIDEMO_ImageFlow.c              0x00000000   Number         0  guidemo_imageflow.o ABSOLUTE
    ..\Demo\GUIDEMO_Intro.c                  0x00000000   Number         0  guidemo_intro.o ABSOLUTE
    ..\Demo\GUIDEMO_Listview.c               0x00000000   Number         0  guidemo_listview.o ABSOLUTE
    ..\Demo\GUIDEMO_RadialMenu.c             0x00000000   Number         0  guidemo_radialmenu.o ABSOLUTE
    ..\Demo\GUIDEMO_Resource.c               0x00000000   Number         0  guidemo_resource.o ABSOLUTE
    ..\Demo\GUIDEMO_Skinning.c               0x00000000   Number         0  guidemo_skinning.o ABSOLUTE
    ..\Demo\GUIDEMO_Speed.c                  0x00000000   Number         0  guidemo_speed.o ABSOLUTE
    ..\Demo\GUIDEMO_Speedometer.c            0x00000000   Number         0  guidemo_speedometer.o ABSOLUTE
    ..\Demo\GUIDEMO_Start.c                  0x00000000   Number         0  guidemo_start.o ABSOLUTE
    ..\Demo\GUIDEMO_Touch.c                  0x00000000   Number         0  guidemo_touch.o ABSOLUTE
    ..\Demo\GUIDEMO_TransparentDialog.c      0x00000000   Number         0  guidemo_transparentdialog.o ABSOLUTE
    ..\Demo\GUIDEMO_Treeview.c               0x00000000   Number         0  guidemo_treeview.o ABSOLUTE
    ..\Demo\GUIDEMO_VScreen.c                0x00000000   Number         0  guidemo_vscreen.o ABSOLUTE
    ..\Demo\GUIDEMO_WashingMachine.c         0x00000000   Number         0  guidemo_washingmachine.o ABSOLUTE
    ..\Demo\GUIDEMO_ZoomAndRotate.c          0x00000000   Number         0  guidemo_zoomandrotate.o ABSOLUTE
    ..\Drivers\STM32F4xx_HAL_Driver\Src\stm32f4xx_hal.c 0x00000000   Number         0  stm32f4xx_hal.o ABSOLUTE
    ..\Drivers\STM32F4xx_HAL_Driver\Src\stm32f4xx_hal_cortex.c 0x00000000   Number         0  stm32f4xx_hal_cortex.o ABSOLUTE
    ..\Drivers\STM32F4xx_HAL_Driver\Src\stm32f4xx_hal_crc.c 0x00000000   Number         0  stm32f4xx_hal_crc.o ABSOLUTE
    ..\Drivers\STM32F4xx_HAL_Driver\Src\stm32f4xx_hal_dma.c 0x00000000   Number         0  stm32f4xx_hal_dma.o ABSOLUTE
    ..\Drivers\STM32F4xx_HAL_Driver\Src\stm32f4xx_hal_dma_ex.c 0x00000000   Number         0  stm32f4xx_hal_dma_ex.o ABSOLUTE
    ..\Drivers\STM32F4xx_HAL_Driver\Src\stm32f4xx_hal_exti.c 0x00000000   Number         0  stm32f4xx_hal_exti.o ABSOLUTE
    ..\Drivers\STM32F4xx_HAL_Driver\Src\stm32f4xx_hal_flash.c 0x00000000   Number         0  stm32f4xx_hal_flash.o ABSOLUTE
    ..\Drivers\STM32F4xx_HAL_Driver\Src\stm32f4xx_hal_flash_ex.c 0x00000000   Number         0  stm32f4xx_hal_flash_ex.o ABSOLUTE
    ..\Drivers\STM32F4xx_HAL_Driver\Src\stm32f4xx_hal_flash_ramfunc.c 0x00000000   Number         0  stm32f4xx_hal_flash_ramfunc.o ABSOLUTE
    ..\Drivers\STM32F4xx_HAL_Driver\Src\stm32f4xx_hal_gpio.c 0x00000000   Number         0  stm32f4xx_hal_gpio.o ABSOLUTE
    ..\Drivers\STM32F4xx_HAL_Driver\Src\stm32f4xx_hal_pwr.c 0x00000000   Number         0  stm32f4xx_hal_pwr.o ABSOLUTE
    ..\Drivers\STM32F4xx_HAL_Driver\Src\stm32f4xx_hal_pwr_ex.c 0x00000000   Number         0  stm32f4xx_hal_pwr_ex.o ABSOLUTE
    ..\Drivers\STM32F4xx_HAL_Driver\Src\stm32f4xx_hal_rcc.c 0x00000000   Number         0  stm32f4xx_hal_rcc.o ABSOLUTE
    ..\Drivers\STM32F4xx_HAL_Driver\Src\stm32f4xx_hal_rcc_ex.c 0x00000000   Number         0  stm32f4xx_hal_rcc_ex.o ABSOLUTE
    ..\Drivers\STM32F4xx_HAL_Driver\Src\stm32f4xx_hal_sram.c 0x00000000   Number         0  stm32f4xx_hal_sram.o ABSOLUTE
    ..\Drivers\STM32F4xx_HAL_Driver\Src\stm32f4xx_hal_tim.c 0x00000000   Number         0  stm32f4xx_hal_tim.o ABSOLUTE
    ..\Drivers\STM32F4xx_HAL_Driver\Src\stm32f4xx_hal_tim_ex.c 0x00000000   Number         0  stm32f4xx_hal_tim_ex.o ABSOLUTE
    ..\Drivers\STM32F4xx_HAL_Driver\Src\stm32f4xx_ll_fsmc.c 0x00000000   Number         0  stm32f4xx_ll_fsmc.o ABSOLUTE
    ..\Middlewares\Third_Party\FreeRTOS\Source\CMSIS_RTOS\cmsis_os.c 0x00000000   Number         0  cmsis_os.o ABSOLUTE
    ..\Middlewares\Third_Party\FreeRTOS\Source\portable\RVDS\ARM_CM4F\port.c 0x00000000   Number         0  port.o ABSOLUTE
    ..\STemWinLibrary522\Config\GUIConf.c    0x00000000   Number         0  guiconf.o ABSOLUTE
    ..\STemWinLibrary522\Config\GUIDRV_Template.c 0x00000000   Number         0  guidrv_template.o ABSOLUTE
    ..\STemWinLibrary522\Config\GUI_X_Touch_Analog.c 0x00000000   Number         0  gui_x_touch_analog.o ABSOLUTE
    ..\STemWinLibrary522\Config\LCDConf_FlexColor_Template.c 0x00000000   Number         0  lcdconf_flexcolor_template.o ABSOLUTE
    ..\STemWinLibrary522\OS\GUI_X_FreeRTOS.c 0x00000000   Number         0  gui_x_freertos.o ABSOLUTE
    ..\Src\24cxx.c                           0x00000000   Number         0  24cxx.o ABSOLUTE
    ..\Src\common.c                          0x00000000   Number         0  common.o ABSOLUTE
    ..\Src\crc.c                             0x00000000   Number         0  crc.o ABSOLUTE
    ..\Src\freertos.c                        0x00000000   Number         0  freertos.o ABSOLUTE
    ..\Src\fsmc.c                            0x00000000   Number         0  fsmc.o ABSOLUTE
    ..\Src\gpio.c                            0x00000000   Number         0  gpio.o ABSOLUTE
    ..\Src\lcd_config.c                      0x00000000   Number         0  lcd_config.o ABSOLUTE
    ..\Src\main.c                            0x00000000   Number         0  main.o ABSOLUTE
    ..\Src\myiic.c                           0x00000000   Number         0  myiic.o ABSOLUTE
    ..\Src\stm32f4xx_hal_msp.c               0x00000000   Number         0  stm32f4xx_hal_msp.o ABSOLUTE
    ..\Src\stm32f4xx_hal_timebase_tim.c      0x00000000   Number         0  stm32f4xx_hal_timebase_tim.o ABSOLUTE
    ..\Src\stm32f4xx_it.c                    0x00000000   Number         0  stm32f4xx_it.o ABSOLUTE
    ..\Src\system_stm32f4xx.c                0x00000000   Number         0  system_stm32f4xx.o ABSOLUTE
    ..\Src\touch.c                           0x00000000   Number         0  touch.o ABSOLUTE
    ..\\STemWinLibrary522\\Config\\GUIDRV_Template.c 0x00000000   Number         0  guidrv_template.o ABSOLUTE
    ..\\STemWinLibrary522\\Config\\GUI_X_Touch_Analog.c 0x00000000   Number         0  gui_x_touch_analog.o ABSOLUTE
    ..\\STemWinLibrary522\\Config\\LCDConf_FlexColor_Template.c 0x00000000   Number         0  lcdconf_flexcolor_template.o ABSOLUTE
    ..\\Src\\24cxx.c                         0x00000000   Number         0  24cxx.o ABSOLUTE
    ..\\Src\\common.c                        0x00000000   Number         0  common.o ABSOLUTE
    ..\\Src\\lcd_config.c                    0x00000000   Number         0  lcd_config.o ABSOLUTE
    ..\\Src\\myiic.c                         0x00000000   Number         0  myiic.o ABSOLUTE
    ..\\Src\\touch.c                         0x00000000   Number         0  touch.o ABSOLUTE
    cdcmple.s                                0x00000000   Number         0  cdcmple.o ABSOLUTE
    cdrcmple.s                               0x00000000   Number         0  cdrcmple.o ABSOLUTE
    dc.s                                     0x00000000   Number         0  dc.o ABSOLUTE
    handlers.s                               0x00000000   Number         0  handlers.o ABSOLUTE
    init.s                                   0x00000000   Number         0  init.o ABSOLUTE
    startup_stm32f407xx.s                    0x00000000   Number         0  startup_stm32f407xx.o ABSOLUTE
    RESET                                    0x08000000   Section      392  startup_stm32f407xx.o(RESET)
    .ARM.Collect$$$$00000000                 0x08000188   Section        0  entry.o(.ARM.Collect$$$$00000000)
    .ARM.Collect$$$$00000001                 0x08000188   Section        4  entry2.o(.ARM.Collect$$$$00000001)
    .ARM.Collect$$$$00000004                 0x0800018c   Section        4  entry5.o(.ARM.Collect$$$$00000004)
    .ARM.Collect$$$$00000008                 0x08000190   Section        0  entry7b.o(.ARM.Collect$$$$00000008)
    .ARM.Collect$$$$0000000A                 0x08000190   Section        0  entry8b.o(.ARM.Collect$$$$0000000A)
    .ARM.Collect$$$$0000000B                 0x08000190   Section        8  entry9a.o(.ARM.Collect$$$$0000000B)
    .ARM.Collect$$$$0000000D                 0x08000198   Section        0  entry10a.o(.ARM.Collect$$$$0000000D)
    .ARM.Collect$$$$0000000F                 0x08000198   Section        0  entry11a.o(.ARM.Collect$$$$0000000F)
    .ARM.Collect$$$$00002712                 0x08000198   Section        4  entry2.o(.ARM.Collect$$$$00002712)
    __lit__00000000                          0x08000198   Data           4  entry2.o(.ARM.Collect$$$$00002712)
    .emb_text                                0x0800019c   Section      190  port.o(.emb_text)
    $v0                                      0x0800019c   Number         0  port.o(.emb_text)
    .text                                    0x0800025c   Section       36  startup_stm32f407xx.o(.text)
    $v0                                      0x0800025c   Number         0  startup_stm32f407xx.o(.text)
    .text                                    0x08000280   Section        0  uldiv.o(.text)
    .text                                    0x080002e4   Section        0  rand.o(.text)
    .text                                    0x08000308   Section        0  memmovea.o(.text)
    .text                                    0x08000348   Section        0  memseta.o(.text)
    .text                                    0x0800036c   Section        0  strcat.o(.text)
    .text                                    0x08000384   Section        0  strlen.o(.text)
    .text                                    0x08000392   Section        0  strcmp.o(.text)
    .text                                    0x080003ae   Section        0  memcmp.o(.text)
    .text                                    0x080003c8   Section        0  strcpy.o(.text)
    .text                                    0x080003da   Section        0  dadd.o(.text)
    .text                                    0x08000528   Section        0  dmul.o(.text)
    .text                                    0x0800060c   Section        0  ddiv.o(.text)
    .text                                    0x080006ea   Section        0  dflti.o(.text)
    .text                                    0x0800070c   Section        0  dfltui.o(.text)
    .text                                    0x08000726   Section        0  dfixi.o(.text)
    .text                                    0x08000764   Section        0  dfixui.o(.text)
    .text                                    0x08000796   Section        0  f2d.o(.text)
    .text                                    0x080007bc   Section       48  cdcmple.o(.text)
    .text                                    0x080007ec   Section       48  cdrcmple.o(.text)
    .text                                    0x0800081c   Section        0  d2f.o(.text)
    .text                                    0x08000854   Section        0  uidiv.o(.text)
    .text                                    0x08000880   Section        0  llshl.o(.text)
    .text                                    0x0800089e   Section        0  llushr.o(.text)
    .text                                    0x080008be   Section        0  llsshr.o(.text)
    .text                                    0x080008e2   Section        0  iusefp.o(.text)
    .text                                    0x080008e2   Section        0  fepilogue.o(.text)
    .text                                    0x08000950   Section        0  depilogue.o(.text)
    .text                                    0x08000a0a   Section        0  dsqrt.o(.text)
    .text                                    0x08000aac   Section       36  init.o(.text)
    .text                                    0x08000ad0   Section        0  __dczerorl2.o(.text)
    i.AT24CXX_Init                           0x08000b26   Section        0  24cxx.o(i.AT24CXX_Init)
    i.AT24CXX_ReadLenByte                    0x08000b2e   Section        0  24cxx.o(i.AT24CXX_ReadLenByte)
    i.AT24CXX_ReadOneByte                    0x08000b5a   Section        0  24cxx.o(i.AT24CXX_ReadOneByte)
    i.AT24CXX_WriteLenByte                   0x08000bb2   Section        0  24cxx.o(i.AT24CXX_WriteLenByte)
    i.AT24CXX_WriteOneByte                   0x08000bdc   Section        0  24cxx.o(i.AT24CXX_WriteOneByte)
    i.Abs                                    0x08000c2c   Section        0  gui_drawline.o(i.Abs)
    Abs                                      0x08000c2d   Thumb Code     8  gui_drawline.o(i.Abs)
    i.BUTTON_Callback                        0x08000c34   Section        0  button.o(i.BUTTON_Callback)
    i.BUTTON_CreateIndirect                  0x08000d10   Section        0  button_createindirect.o(i.BUTTON_CreateIndirect)
    i.BUTTON_CreateUser                      0x08000d54   Section        0  button.o(i.BUTTON_CreateUser)
    i.BUTTON_DrawSkinFlex                    0x08000dd0   Section        0  button_skinflex.o(i.BUTTON_DrawSkinFlex)
    i.BUTTON_SetDefaultSkin                  0x08001008   Section        0  button_skin.o(i.BUTTON_SetDefaultSkin)
    i.BUTTON_SetFocussable                   0x08001024   Section        0  button.o(i.BUTTON_SetFocussable)
    i.BUTTON_SetPressed                      0x08001034   Section        0  button.o(i.BUTTON_SetPressed)
    i.BUTTON_SetReactOnLevel                 0x08001048   Section        0  button.o(i.BUTTON_SetReactOnLevel)
    i.BUTTON_SetText                         0x08001060   Section        0  button.o(i.BUTTON_SetText)
    i.BusFault_Handler                       0x080010ba   Section        0  stm32f4xx_it.o(i.BusFault_Handler)
    i.CL_DispChar                            0x080010c0   Section        0  gui_dispchar.o(i.CL_DispChar)
    CL_DispChar                              0x080010c1   Thumb Code   134  gui_dispchar.o(i.CL_DispChar)
    i.CalcClipRectHL                         0x0800114c   Section        0  guiaa_lib.o(i.CalcClipRectHL)
    CalcClipRectHL                           0x0800114d   Thumb Code    48  guiaa_lib.o(i.CalcClipRectHL)
    i.DebugMon_Handler                       0x08001184   Section        0  stm32f4xx_it.o(i.DebugMon_Handler)
    i.Draw8Point                             0x08001188   Section        0  gui_circ.o(i.Draw8Point)
    Draw8Point                               0x08001189   Thumb Code   166  gui_circ.o(i.Draw8Point)
    i.Error_Handler                          0x08001234   Section        0  main.o(i.Error_Handler)
    i.FRAMEWIN_Callback                      0x08001236   Section        0  framewin.o(i.FRAMEWIN_Callback)
    i.FRAMEWIN_CreateIndirect                0x0800141a   Section        0  framewin_createindirect.o(i.FRAMEWIN_CreateIndirect)
    i.FRAMEWIN_CreateUser                    0x0800145c   Section        0  framewin.o(i.FRAMEWIN_CreateUser)
    i.FRAMEWIN_DrawSkinFlex                  0x0800154c   Section        0  framewin_skinflex.o(i.FRAMEWIN_DrawSkinFlex)
    i.FRAMEWIN_GetActive                     0x080018c8   Section        0  framewin_get.o(i.FRAMEWIN_GetActive)
    i.FRAMEWIN_GetSkinFlexProps              0x080018f8   Section        0  framewin_skinflex.o(i.FRAMEWIN_GetSkinFlexProps)
    i.FRAMEWIN_OwnerDraw                     0x08001910   Section        0  framewin_skinclassic.o(i.FRAMEWIN_OwnerDraw)
    i.FRAMEWIN_SetActive                     0x080019c6   Section        0  framewin.o(i.FRAMEWIN_SetActive)
    i.FRAMEWIN_SetDefaultBarColor            0x080019e4   Section        0  framewin_default.o(i.FRAMEWIN_SetDefaultBarColor)
    i.FRAMEWIN_SetDefaultFont                0x080019f8   Section        0  framewin_default.o(i.FRAMEWIN_SetDefaultFont)
    i.FRAMEWIN_SetDefaultSkin                0x08001a04   Section        0  framewin_skin.o(i.FRAMEWIN_SetDefaultSkin)
    i.FRAMEWIN_SetDefaultTextAlign           0x08001a2c   Section        0  framewin_default.o(i.FRAMEWIN_SetDefaultTextAlign)
    i.FRAMEWIN_SetOwnerDraw                  0x08001a3c   Section        0  framewin_setownerdraw.o(i.FRAMEWIN_SetOwnerDraw)
    i.FRAMEWIN_SetSkinFlexProps              0x08001a68   Section        0  framewin_skinflex.o(i.FRAMEWIN_SetSkinFlexProps)
    i.FRAMEWIN_SetText                       0x08001ab8   Section        0  framewin.o(i.FRAMEWIN_SetText)
    i.FRAMEWIN_SetTextAlign                  0x08001afe   Section        0  framewin.o(i.FRAMEWIN_SetTextAlign)
    i.FRAMEWIN_SetTextColor                  0x08001b30   Section        0  framewin_setcolors.o(i.FRAMEWIN_SetTextColor)
    i.FRAMEWIN__CalcPositions                0x08001b66   Section        0  framewin.o(i.FRAMEWIN__CalcPositions)
    i.FRAMEWIN__CalcTitleHeight              0x08001c34   Section        0  framewin.o(i.FRAMEWIN__CalcTitleHeight)
    i.FRAMEWIN__GetBorderSize                0x08001c54   Section        0  framewin.o(i.FRAMEWIN__GetBorderSize)
    i.FRAMEWIN__GetTitleLimits               0x08001c98   Section        0  framewin.o(i.FRAMEWIN__GetTitleLimits)
    i.FRAMEWIN__cbClient                     0x08001d24   Section        0  framewin.o(i.FRAMEWIN__cbClient)
    FRAMEWIN__cbClient                       0x08001d25   Thumb Code   232  framewin.o(i.FRAMEWIN__cbClient)
    i.FSMC_NORSRAM_Extended_Timing_Init      0x08001e0c   Section        0  stm32f4xx_ll_fsmc.o(i.FSMC_NORSRAM_Extended_Timing_Init)
    i.FSMC_NORSRAM_Init                      0x08001e54   Section        0  stm32f4xx_ll_fsmc.o(i.FSMC_NORSRAM_Init)
    i.FSMC_NORSRAM_Timing_Init               0x08001eb0   Section        0  stm32f4xx_ll_fsmc.o(i.FSMC_NORSRAM_Timing_Init)
    i.FillCircle                             0x08001ef4   Section        0  guiaa_circle.o(i.FillCircle)
    FillCircle                               0x08001ef5   Thumb Code   174  guiaa_circle.o(i.FillCircle)
    i.GL_DispChar                            0x08001fa8   Section        0  gui_char.o(i.GL_DispChar)
    i.GL_DrawBitmap                          0x08001fe8   Section        0  gui_drawbitmap.o(i.GL_DrawBitmap)
    i.GL_DrawCircle                          0x08002084   Section        0  gui_circ.o(i.GL_DrawCircle)
    i.GL_DrawLine                            0x080020e8   Section        0  gui_drawline.o(i.GL_DrawLine)
    i.GL_DrawLine1Ex                         0x080020f8   Section        0  gui_drawline.o(i.GL_DrawLine1Ex)
    i.GL_DrawLineEx                          0x080022c4   Section        0  gui_drawline.o(i.GL_DrawLineEx)
    i.GL_DrawPoint                           0x080023d0   Section        0  gui_drawpoint.o(i.GL_DrawPoint)
    i.GL_FillCircle                          0x080023f0   Section        0  gui_circ.o(i.GL_FillCircle)
    i.GL_FillCircleAA_HiRes                  0x080024ac   Section        0  guiaa_circle.o(i.GL_FillCircleAA_HiRes)
    i.GL_FillPolygon                         0x080024d0   Section        0  gui_fillpolygon.o(i.GL_FillPolygon)
    i.GL_SetDefault                          0x080026b0   Section        0  gui_setdefault.o(i.GL_SetDefault)
    i.GRAPH_AttachData                       0x080026f0   Section        0  graph.o(i.GRAPH_AttachData)
    i.GRAPH_AttachScale                      0x08002734   Section        0  graph.o(i.GRAPH_AttachScale)
    i.GRAPH_Callback                         0x08002778   Section        0  graph.o(i.GRAPH_Callback)
    i.GRAPH_CreateEx                         0x08002806   Section        0  graph.o(i.GRAPH_CreateEx)
    i.GRAPH_CreateUser                       0x08002824   Section        0  graph.o(i.GRAPH_CreateUser)
    i.GRAPH_DATA_YT_AddValue                 0x080028a8   Section        0  graph_data_yt.o(i.GRAPH_DATA_YT_AddValue)
    i.GRAPH_DATA_YT_Create                   0x080028e4   Section        0  graph_data_yt.o(i.GRAPH_DATA_YT_Create)
    i.GRAPH_DATA_YT_Delete                   0x08002964   Section        0  graph_data_yt.o(i.GRAPH_DATA_YT_Delete)
    i.GRAPH_DetachData                       0x0800297a   Section        0  graph.o(i.GRAPH_DetachData)
    i.GRAPH_DetachScale                      0x080029e0   Section        0  graph.o(i.GRAPH_DetachScale)
    i.GRAPH_SCALE_Create                     0x08002a48   Section        0  graph_scale.o(i.GRAPH_SCALE_Create)
    i.GRAPH_SCALE_Delete                     0x08002aa0   Section        0  graph_scale.o(i.GRAPH_SCALE_Delete)
    i.GRAPH_SCALE_SetOff                     0x08002aa4   Section        0  graph_scale.o(i.GRAPH_SCALE_SetOff)
    i.GRAPH_SCALE_SetPos                     0x08002ad8   Section        0  graph_scale.o(i.GRAPH_SCALE_SetPos)
    i.GRAPH_SetBorder                        0x08002b0c   Section        0  graph.o(i.GRAPH_SetBorder)
    i.GRAPH_SetColor                         0x08002b4e   Section        0  graph.o(i.GRAPH_SetColor)
    i.GRAPH_SetGridDistX                     0x08002b8c   Section        0  graph.o(i.GRAPH_SetGridDistX)
    i.GRAPH_SetGridDistY                     0x08002bc0   Section        0  graph.o(i.GRAPH_SetGridDistY)
    i.GRAPH_SetGridOffY                      0x08002bf4   Section        0  graph.o(i.GRAPH_SetGridOffY)
    i.GRAPH_SetGridVis                       0x08002c28   Section        0  graph.o(i.GRAPH_SetGridVis)
    i.GRAPH__AddValue                        0x08002c60   Section        0  graph.o(i.GRAPH__AddValue)
    i.GRAPH__InvalidateGraph                 0x08002cc4   Section        0  graph.o(i.GRAPH__InvalidateGraph)
    i.GUIDEMO_AddIntToString                 0x08002d2c   Section        0  guidemo.o(i.GUIDEMO_AddIntToString)
    i.GUIDEMO_AddStringToString              0x08002d7c   Section        0  guidemo.o(i.GUIDEMO_AddStringToString)
    i.GUIDEMO_AntialiasedText                0x08002da4   Section        0  guidemo_antialiasedtext.o(i.GUIDEMO_AntialiasedText)
    i.GUIDEMO_Automotive                     0x08002e18   Section        0  guidemo_automotive.o(i.GUIDEMO_Automotive)
    i.GUIDEMO_Bitmap                         0x08002f2c   Section        0  guidemo_bitmap.o(i.GUIDEMO_Bitmap)
    i.GUIDEMO_CheckCancel                    0x08002f90   Section        0  guidemo.o(i.GUIDEMO_CheckCancel)
    i.GUIDEMO_ColorBar                       0x08002fc0   Section        0  guidemo_colorbar.o(i.GUIDEMO_ColorBar)
    i.GUIDEMO_Config                         0x0800328c   Section        0  guidemo_conf.o(i.GUIDEMO_Config)
    i.GUIDEMO_Cursor                         0x080032a0   Section        0  guidemo_cursor.o(i.GUIDEMO_Cursor)
    i.GUIDEMO_Delay                          0x08003304   Section        0  guidemo.o(i.GUIDEMO_Delay)
    i.GUIDEMO_DrawBk                         0x08003374   Section        0  guidemo.o(i.GUIDEMO_DrawBk)
    i.GUIDEMO_GetConfFlag                    0x08003388   Section        0  guidemo.o(i.GUIDEMO_GetConfFlag)
    i.GUIDEMO_GetTime                        0x080033a0   Section        0  guidemo.o(i.GUIDEMO_GetTime)
    i.GUIDEMO_Graph                          0x080033c8   Section        0  guidemo_graph.o(i.GUIDEMO_Graph)
    i.GUIDEMO_HideInfoWin                    0x08003424   Section        0  guidemo.o(i.GUIDEMO_HideInfoWin)
    i.GUIDEMO_Intro                          0x08003440   Section        0  guidemo_intro.o(i.GUIDEMO_Intro)
    i.GUIDEMO_Listview                       0x080035f0   Section        0  guidemo_listview.o(i.GUIDEMO_Listview)
    i.GUIDEMO_Main                           0x08003648   Section        0  guidemo.o(i.GUIDEMO_Main)
    i.GUIDEMO_NotifyStartNext                0x08003734   Section        0  guidemo.o(i.GUIDEMO_NotifyStartNext)
    i.GUIDEMO_RadialMenu                     0x08003750   Section        0  guidemo_radialmenu.o(i.GUIDEMO_RadialMenu)
    i.GUIDEMO_SetDrawLogo                    0x08003780   Section        0  guidemo.o(i.GUIDEMO_SetDrawLogo)
    i.GUIDEMO_ShowControlWin                 0x08003794   Section        0  guidemo.o(i.GUIDEMO_ShowControlWin)
    i.GUIDEMO_ShowInfo                       0x080037a8   Section        0  guidemo.o(i.GUIDEMO_ShowInfo)
    i.GUIDEMO_ShowInfoWin                    0x080037d4   Section        0  guidemo.o(i.GUIDEMO_ShowInfoWin)
    i.GUIDEMO_ShowIntro                      0x080037e4   Section        0  guidemo.o(i.GUIDEMO_ShowIntro)
    i.GUIDEMO_Speed                          0x08003874   Section        0  guidemo_speed.o(i.GUIDEMO_Speed)
    i.GUIDEMO_TransparentDialog              0x08003a8c   Section        0  guidemo_transparentdialog.o(i.GUIDEMO_TransparentDialog)
    i.GUIDEMO_Treeview                       0x08003ae0   Section        0  guidemo_treeview.o(i.GUIDEMO_Treeview)
    i.GUIDEMO_UpdateControlText              0x08003b1c   Section        0  guidemo.o(i.GUIDEMO_UpdateControlText)
    i.GUIDEMO_VScreen                        0x08003b9c   Section        0  guidemo_vscreen.o(i.GUIDEMO_VScreen)
    i.GUIDEMO_Wait                           0x08003c08   Section        0  guidemo.o(i.GUIDEMO_Wait)
    i.GUIMONO_DispChar                       0x08003c18   Section        0  gui_charm.o(i.GUIMONO_DispChar)
    i.GUIMONO_GetCharDistX                   0x08003d4c   Section        0  gui_charm.o(i.GUIMONO_GetCharDistX)
    i.GUIMONO_GetFontInfo                    0x08003d64   Section        0  gui_charm.o(i.GUIMONO_GetFontInfo)
    i.GUIMONO_IsInFont                       0x08003d6a   Section        0  gui_charm.o(i.GUIMONO_IsInFont)
    i.GUIPROP_AA2_EXT_DispChar               0x08003da4   Section        0  guiaa_char2ext.o(i.GUIPROP_AA2_EXT_DispChar)
    i.GUIPROP_AA4_EXT_DispChar               0x08003e5c   Section        0  guiaa_char4ext.o(i.GUIPROP_AA4_EXT_DispChar)
    i.GUIPROP_DispChar                       0x08003f14   Section        0  gui_charp.o(i.GUIPROP_DispChar)
    i.GUIPROP_EXT_GetCharDistX               0x08003fdc   Section        0  gui_charpext.o(i.GUIPROP_EXT_GetCharDistX)
    i.GUIPROP_EXT_GetCharInfo                0x08004024   Section        0  gui_charpext.o(i.GUIPROP_EXT_GetCharInfo)
    i.GUIPROP_EXT_GetFontInfo                0x08004060   Section        0  gui_charpext.o(i.GUIPROP_EXT_GetFontInfo)
    i.GUIPROP_EXT_IsInFont                   0x08004066   Section        0  gui_charpext.o(i.GUIPROP_EXT_IsInFont)
    i.GUIPROP_EXT__ClearLine                 0x08004078   Section        0  gui_encext.o(i.GUIPROP_EXT__ClearLine)
    i.GUIPROP_EXT__DispLine                  0x08004138   Section        0  gui_encext.o(i.GUIPROP_EXT__DispLine)
    i.GUIPROP_EXT__FindChar                  0x0800417c   Section        0  gui_charpext.o(i.GUIPROP_EXT__FindChar)
    i.GUIPROP_GetCharDistX                   0x08004194   Section        0  gui_charp.o(i.GUIPROP_GetCharDistX)
    i.GUIPROP_GetFontInfo                    0x080041d8   Section        0  gui_charp.o(i.GUIPROP_GetFontInfo)
    i.GUIPROP_IsInFont                       0x080041de   Section        0  gui_charp.o(i.GUIPROP_IsInFont)
    i.GUIPROP__FindChar                      0x080041ee   Section        0  gui_charp.o(i.GUIPROP__FindChar)
    i.GUITASK_CopyContext                    0x08004204   Section        0  gui_task.o(i.GUITASK_CopyContext)
    i.GUITASK_Init                           0x0800424c   Section        0  gui_task.o(i.GUITASK_Init)
    i.GUI_AA_DisableHiRes                    0x08004288   Section        0  guiaa_lib.o(i.GUI_AA_DisableHiRes)
    i.GUI_AA_EnableHiRes                     0x08004298   Section        0  guiaa_lib.o(i.GUI_AA_EnableHiRes)
    i.GUI_AA_Exit                            0x080042a8   Section        0  guiaa_lib.o(i.GUI_AA_Exit)
    i.GUI_AA_FillCircle                      0x080042c8   Section        0  guiaa_circle.o(i.GUI_AA_FillCircle)
    i.GUI_AA_FillPolygon                     0x08004340   Section        0  guiaa_poly.o(i.GUI_AA_FillPolygon)
    i.GUI_AA_HiRes2Pixel                     0x080043b4   Section        0  guiaa_lib.o(i.GUI_AA_HiRes2Pixel)
    i.GUI_AA_Init                            0x080043cc   Section        0  guiaa_lib.o(i.GUI_AA_Init)
    i.GUI_AA_Init_HiRes                      0x0800445c   Section        0  guiaa_lib.o(i.GUI_AA_Init_HiRes)
    i.GUI_AA_SetFactor                       0x08004474   Section        0  guiaa_lib.o(i.GUI_AA_SetFactor)
    i.GUI_AA__DrawCharAA2                    0x08004484   Section        0  guiaa_char2.o(i.GUI_AA__DrawCharAA2)
    i.GUI_AA__DrawCharAA4                    0x080044cc   Section        0  guiaa_char4.o(i.GUI_AA__DrawCharAA4)
    i.GUI_ALLOC_AllocInit                    0x08004514   Section        0  gui_alloc_allocinit.o(i.GUI_ALLOC_AllocInit)
    i.GUI_ALLOC_AllocNoInit                  0x08004554   Section        0  gui_alloc.o(i.GUI_ALLOC_AllocNoInit)
    i.GUI_ALLOC_AllocZero                    0x08004572   Section        0  gui_alloc_alloczero.o(i.GUI_ALLOC_AllocZero)
    i.GUI_ALLOC_AssignMemory                 0x080045a0   Section        0  gui_alloc.o(i.GUI_ALLOC_AssignMemory)
    i.GUI_ALLOC_Free                         0x080045b0   Section        0  gui_alloc.o(i.GUI_ALLOC_Free)
    i.GUI_ALLOC_FreeFixedBlock               0x080045ec   Section        0  gui_alloc.o(i.GUI_ALLOC_FreeFixedBlock)
    i.GUI_ALLOC_FreePtr                      0x08004604   Section        0  gui_alloc.o(i.GUI_ALLOC_FreePtr)
    i.GUI_ALLOC_FreePtrArray                 0x08004620   Section        0  gui_alloc.o(i.GUI_ALLOC_FreePtrArray)
    i.GUI_ALLOC_GetFixedBlock                0x0800463c   Section        0  gui_alloc.o(i.GUI_ALLOC_GetFixedBlock)
    i.GUI_ALLOC_GetMaxSize                   0x080046e4   Section        0  gui_alloc.o(i.GUI_ALLOC_GetMaxSize)
    i.GUI_ALLOC_GetNumFreeBytes              0x08004724   Section        0  gui_alloc.o(i.GUI_ALLOC_GetNumFreeBytes)
    i.GUI_ALLOC_GetSize                      0x08004738   Section        0  gui_alloc.o(i.GUI_ALLOC_GetSize)
    i.GUI_ALLOC_Lock                         0x08004754   Section        0  gui_alloc.o(i.GUI_ALLOC_Lock)
    i.GUI_ALLOC_LockH                        0x08004764   Section        0  gui_alloc.o(i.GUI_ALLOC_LockH)
    i.GUI_ALLOC_Realloc                      0x08004780   Section        0  gui_realloc.o(i.GUI_ALLOC_Realloc)
    i.GUI_ALLOC_RequestSize                  0x080047d8   Section        0  gui_alloc.o(i.GUI_ALLOC_RequestSize)
    i.GUI_ALLOC_SetAvBlockSize               0x0800480c   Section        0  gui_alloc.o(i.GUI_ALLOC_SetAvBlockSize)
    i.GUI_ALLOC_Unlock                       0x08004828   Section        0  gui_alloc.o(i.GUI_ALLOC_Unlock)
    i.GUI_ALLOC_UnlockH                      0x08004838   Section        0  gui_alloc.o(i.GUI_ALLOC_UnlockH)
    i.GUI_ALLOC_h2p                          0x08004868   Section        0  gui_alloc.o(i.GUI_ALLOC_h2p)
    i.GUI_ARRAY_AddItem                      0x08004880   Section        0  gui_array.o(i.GUI_ARRAY_AddItem)
    i.GUI_ARRAY_Create                       0x080048fa   Section        0  gui_array.o(i.GUI_ARRAY_Create)
    i.GUI_ARRAY_Delete                       0x08004900   Section        0  gui_array.o(i.GUI_ARRAY_Delete)
    i.GUI_ARRAY_DeleteItem                   0x08004950   Section        0  gui_array_deleteitem.o(i.GUI_ARRAY_DeleteItem)
    i.GUI_ARRAY_GetNumItems                  0x080049aa   Section        0  gui_array.o(i.GUI_ARRAY_GetNumItems)
    i.GUI_ARRAY_GethItem                     0x080049c2   Section        0  gui_array.o(i.GUI_ARRAY_GethItem)
    i.GUI_ARRAY_GetpItemLocked               0x080049e2   Section        0  gui_array.o(i.GUI_ARRAY_GetpItemLocked)
    i.GUI_ARRAY_InsertBlankItem              0x08004a02   Section        0  gui_array_insertitem.o(i.GUI_ARRAY_InsertBlankItem)
    i.GUI_ARRAY_InsertItem                   0x08004a8e   Section        0  gui_array_insertitem.o(i.GUI_ARRAY_InsertItem)
    i.GUI_ARRAY_SetItem                      0x08004ab4   Section        0  gui_array.o(i.GUI_ARRAY_SetItem)
    i.GUI_ARRAY__GethItem                    0x08004b3e   Section        0  gui_array.o(i.GUI_ARRAY__GethItem)
    i.GUI_ARRAY__GetpItemLocked              0x08004b62   Section        0  gui_array.o(i.GUI_ARRAY__GetpItemLocked)
    i.GUI_AddDecMin                          0x08004b76   Section        0  gui_adddecmin.o(i.GUI_AddDecMin)
    i.GUI_AddDecShift                        0x08004b90   Section        0  gui_adddecshift.o(i.GUI_AddDecShift)
    i.GUI_AddSign                            0x08004c28   Section        0  gui_adddecshift.o(i.GUI_AddSign)
    i.GUI_CURSOR_GetStateEx                  0x08004c40   Section        0  gui_curs1.o(i.GUI_CURSOR_GetStateEx)
    i.GUI_CURSOR_Hide                        0x08004c60   Section        0  gui_curs1.o(i.GUI_CURSOR_Hide)
    i.GUI_CURSOR_HideEx                      0x08004c70   Section        0  gui_curs1.o(i.GUI_CURSOR_HideEx)
    i.GUI_CURSOR_Select                      0x08004cc8   Section        0  gui_curs1.o(i.GUI_CURSOR_Select)
    i.GUI_CURSOR_SelectEx                    0x08004cd8   Section        0  gui_curs1.o(i.GUI_CURSOR_SelectEx)
    i.GUI_CURSOR_SetPosition                 0x08004da8   Section        0  gui_curs1.o(i.GUI_CURSOR_SetPosition)
    i.GUI_CURSOR_SetPositionEx               0x08004db8   Section        0  gui_curs1.o(i.GUI_CURSOR_SetPositionEx)
    i.GUI_CURSOR_Show                        0x08004e30   Section        0  gui_curs1.o(i.GUI_CURSOR_Show)
    i.GUI_CURSOR_ShowEx                      0x08004e40   Section        0  gui_curs1.o(i.GUI_CURSOR_ShowEx)
    i.GUI_CalcColorDist                      0x08004e7c   Section        0  gui_calccolordist.o(i.GUI_CalcColorDist)
    i.GUI_Clear                              0x08004ec0   Section        0  gui_core.o(i.GUI_Clear)
    i.GUI_ClearRect                          0x08004edc   Section        0  gui_core.o(i.GUI_ClearRect)
    i.GUI_ClearRectEx                        0x08004f44   Section        0  gui_clearrectex.o(i.GUI_ClearRectEx)
    i.GUI_Color2Index                        0x08004f58   Section        0  gui_color2index.o(i.GUI_Color2Index)
    i.GUI_CreateDialogBox                    0x08004f70   Section        0  dialog.o(i.GUI_CreateDialogBox)
    i.GUI_DEVICE_Create                      0x0800501c   Section        0  gui_device.o(i.GUI_DEVICE_Create)
    i.GUI_DEVICE_CreateAndLink               0x0800506c   Section        0  gui_device.o(i.GUI_DEVICE_CreateAndLink)
    i.GUI_DEVICE_Delete                      0x08005094   Section        0  gui_device.o(i.GUI_DEVICE_Delete)
    i.GUI_DEVICE_Link                        0x08005098   Section        0  gui_device.o(i.GUI_DEVICE_Link)
    i.GUI_DEVICE_LinkDevices                 0x08005118   Section        0  gui_device.o(i.GUI_DEVICE_LinkDevices)
    i.GUI_DEVICE_Unlink                      0x0800512a   Section        0  gui_device.o(i.GUI_DEVICE_Unlink)
    i.GUI_DEVICE_UnlinkTaskDevices           0x08005130   Section        0  gui_device.o(i.GUI_DEVICE_UnlinkTaskDevices)
    i.GUI_DEVICE__GetpDevice                 0x08005174   Section        0  gui_device.o(i.GUI_DEVICE__GetpDevice)
    i.GUI_DEVICE__GetpDriver                 0x08005198   Section        0  gui_device.o(i.GUI_DEVICE__GetpDriver)
    i.GUI_DRAW__Draw                         0x080051bc   Section        0  gui_draw.o(i.GUI_DRAW__Draw)
    i.GUI_DRAW__GetXSize                     0x080051e8   Section        0  gui_draw.o(i.GUI_DRAW__GetXSize)
    i.GUI_DRAW__GetYSize                     0x0800520a   Section        0  gui_draw.o(i.GUI_DRAW__GetYSize)
    i.GUI_Delay                              0x0800522c   Section        0  gui_time.o(i.GUI_Delay)
    i.GUI_DispCharAt                         0x08005294   Section        0  gui_dispchar.o(i.GUI_DispCharAt)
    i.GUI_DispDecAt                          0x080052bc   Section        0  gui_val.o(i.GUI_DispDecAt)
    i.GUI_DispDecShift                       0x080052de   Section        0  gui_val.o(i.GUI_DispDecShift)
    i.GUI_DispFloatMin                       0x080052f2   Section        0  gui_valf.o(i.GUI_DispFloatMin)
    i.GUI_DispNextLine                       0x080052f8   Section        0  gui_char.o(i.GUI_DispNextLine)
    i.GUI_DispSDecShift                      0x0800531c   Section        0  gui_val.o(i.GUI_DispSDecShift)
    i.GUI_DispString                         0x08005348   Section        0  gui_dispstring.o(i.GUI_DispString)
    i.GUI_DispStringAt                       0x08005450   Section        0  gui_dispstringat.o(i.GUI_DispStringAt)
    i.GUI_DispStringHCenterAt                0x08005478   Section        0  gui_dispstringhcenter.o(i.GUI_DispStringHCenterAt)
    i.GUI_DispStringInRect                   0x080054ac   Section        0  gui_dispstringinrect.o(i.GUI_DispStringInRect)
    i.GUI_DispStringInRectMax                0x080054b4   Section        0  gui_dispstringinrect.o(i.GUI_DispStringInRectMax)
    i.GUI_DispStringInRectWrap               0x08005500   Section        0  gui_dispstringinrectwrap.o(i.GUI_DispStringInRectWrap)
    i.GUI_DrawBitmap                         0x08005610   Section        0  gui_drawbitmap.o(i.GUI_DrawBitmap)
    i.GUI_DrawBitmapMag                      0x08005668   Section        0  gui_drawbitmapmag.o(i.GUI_DrawBitmapMag)
    i.GUI_DrawCircle                         0x08005748   Section        0  gui_circ.o(i.GUI_DrawCircle)
    i.GUI_DrawFocusRect                      0x0800579c   Section        0  gui_drawfocusrect.o(i.GUI_DrawFocusRect)
    i.GUI_DrawGradientH                      0x08005848   Section        0  gui_drawgradient.o(i.GUI_DrawGradientH)
    i.GUI_DrawGradientV                      0x080058c0   Section        0  gui_drawgradient.o(i.GUI_DrawGradientV)
    i.GUI_DrawGraphEx                        0x08005938   Section        0  gui_drawgraphex.o(i.GUI_DrawGraphEx)
    i.GUI_DrawHLine                          0x0800598c   Section        0  gui_drawhline.o(i.GUI_DrawHLine)
    i.GUI_DrawLine                           0x080059e4   Section        0  gui_drawline.o(i.GUI_DrawLine)
    i.GUI_DrawPixel                          0x08005a2c   Section        0  gui_drawpixel.o(i.GUI_DrawPixel)
    i.GUI_DrawRect                           0x08005a78   Section        0  gui_2dlib.o(i.GUI_DrawRect)
    i.GUI_DrawVLine                          0x08005af8   Section        0  gui_drawvline.o(i.GUI_DrawVLine)
    i.GUI_EnableAlpha                        0x08005b48   Section        0  gui_enablealpha.o(i.GUI_EnableAlpha)
    i.GUI_Exec                               0x08005bc8   Section        0  gui_exec.o(i.GUI_Exec)
    i.GUI_Exec1                              0x08005bdc   Section        0  gui_exec.o(i.GUI_Exec1)
    i.GUI_FillRect                           0x08005bfc   Section        0  gui_fillrect.o(i.GUI_FillRect)
    i.GUI_FillRectEx                         0x08005c54   Section        0  gui_fillrectex.o(i.GUI_FillRectEx)
    i.GUI_GetBitmapPixelIndex                0x08005c68   Section        0  gui_getbitmappixelindex.o(i.GUI_GetBitmapPixelIndex)
    i.GUI_GetBitmapPixelIndexEx              0x08005c7e   Section        0  gui_getbitmappixelindex.o(i.GUI_GetBitmapPixelIndexEx)
    i.GUI_GetBitsPerPixelEx                  0x08005d08   Section        0  lcd_getex.o(i.GUI_GetBitsPerPixelEx)
    i.GUI_GetBkColor                         0x08005d1c   Section        0  gui_getcolor.o(i.GUI_GetBkColor)
    i.GUI_GetCharDistX                       0x08005d34   Section        0  gui_char.o(i.GUI_GetCharDistX)
    i.GUI_GetCharDistXEx                     0x08005d58   Section        0  gui_char.o(i.GUI_GetCharDistXEx)
    i.GUI_GetClientRect                      0x08005d80   Section        0  gui_getclientrect.o(i.GUI_GetClientRect)
    i.GUI_GetColor                           0x08005d8a   Section        0  gui_getcolor.o(i.GUI_GetColor)
    i.GUI_GetCursorLayer                     0x08005da4   Section        0  gui_selectlayer.o(i.GUI_GetCursorLayer)
    i.GUI_GetFontDistY                       0x08005db8   Section        0  gui_char.o(i.GUI_GetFontDistY)
    i.GUI_GetFontSizeY                       0x08005dd4   Section        0  gui_getfontsizey.o(i.GUI_GetFontSizeY)
    i.GUI_GetLayerPosEx                      0x08005de8   Section        0  gui_selectlayer.o(i.GUI_GetLayerPosEx)
    i.GUI_GetLineStyle                       0x08005e10   Section        0  gui_getlinestyle.o(i.GUI_GetLineStyle)
    i.GUI_GetOrg                             0x08005e28   Section        0  gui_getorg.o(i.GUI_GetOrg)
    i.GUI_GetStringDistX                     0x08005e42   Section        0  gui_getstringdistx.o(i.GUI_GetStringDistX)
    i.GUI_GetTime                            0x08005e56   Section        0  gui_time.o(i.GUI_GetTime)
    i.GUI_GetVersionString                   0x08005e5c   Section        0  gui_getversionstring.o(i.GUI_GetVersionString)
    i.GUI_GetYAdjust                         0x08005e70   Section        0  gui_char.o(i.GUI_GetYAdjust)
    i.GUI_GetYDistOfFont                     0x08005eac   Section        0  gui_getysizeoffont.o(i.GUI_GetYDistOfFont)
    i.GUI_GetYSizeOfFont                     0x08005eb6   Section        0  gui_getysizeoffont.o(i.GUI_GetYSizeOfFont)
    i.GUI_GetpfColor2IndexEx                 0x08005ec0   Section        0  lcd_getex.o(i.GUI_GetpfColor2IndexEx)
    i.GUI_GetpfIndex2ColorEx                 0x08005ed0   Section        0  lcd_getex.o(i.GUI_GetpfIndex2ColorEx)
    i.GUI_GotoXY                             0x08005ee0   Section        0  gui_goto.o(i.GUI_GotoXY)
    i.GUI_Init                               0x08005f04   Section        0  gui_core.o(i.GUI_Init)
    i.GUI_Lock                               0x08005f70   Section        0  gui_task.o(i.GUI_Lock)
    i.GUI_Long2Len                           0x08005ff8   Section        0  gui_adddecshift.o(i.GUI_Long2Len)
    i.GUI_MEASDEV_ClearRect                  0x08006024   Section        0  guidev_measure.o(i.GUI_MEASDEV_ClearRect)
    i.GUI_MEASDEV_Create                     0x08006050   Section        0  guidev_measure.o(i.GUI_MEASDEV_Create)
    i.GUI_MEASDEV_Delete                     0x080060b4   Section        0  guidev_measure.o(i.GUI_MEASDEV_Delete)
    i.GUI_MEASDEV_GetRect                    0x080060f8   Section        0  guidev_measure.o(i.GUI_MEASDEV_GetRect)
    i.GUI_MEASDEV_Select                     0x0800612c   Section        0  guidev_measure.o(i.GUI_MEASDEV_Select)
    i.GUI_MEMDEV_Clear                       0x08006170   Section        0  guidev_clear.o(i.GUI_MEMDEV_Clear)
    i.GUI_MEMDEV_CopyToLCD                   0x080061b4   Section        0  guidev.o(i.GUI_MEMDEV_CopyToLCD)
    i.GUI_MEMDEV_CopyToLCDAt                 0x080061c0   Section        0  guidev.o(i.GUI_MEMDEV_CopyToLCDAt)
    i.GUI_MEMDEV_CreateAuto                  0x08006268   Section        0  guidev_auto.o(i.GUI_MEMDEV_CreateAuto)
    i.GUI_MEMDEV_CreateEx                    0x08006270   Section        0  guidev.o(i.GUI_MEMDEV_CreateEx)
    i.GUI_MEMDEV_CreateFixed                 0x080062f0   Section        0  guidev_createfixed.o(i.GUI_MEMDEV_CreateFixed)
    i.GUI_MEMDEV_Delete                      0x08006328   Section        0  guidev.o(i.GUI_MEMDEV_Delete)
    i.GUI_MEMDEV_DeleteAuto                  0x08006370   Section        0  guidev_auto.o(i.GUI_MEMDEV_DeleteAuto)
    i.GUI_MEMDEV_Draw                        0x08006374   Section        0  guidev_banding.o(i.GUI_MEMDEV_Draw)
    i.GUI_MEMDEV_DrawAuto                    0x08006498   Section        0  guidev_auto.o(i.GUI_MEMDEV_DrawAuto)
    i.GUI_MEMDEV_DrawPerspectiveX            0x08006550   Section        0  guidev_perspective.o(i.GUI_MEMDEV_DrawPerspectiveX)
    i.GUI_MEMDEV_GetBitsPerPixel             0x080065e0   Section        0  guidev.o(i.GUI_MEMDEV_GetBitsPerPixel)
    i.GUI_MEMDEV_GetDataPtr                  0x08006612   Section        0  guidev_getdataptr.o(i.GUI_MEMDEV_GetDataPtr)
    i.GUI_MEMDEV_GetXPos                     0x08006634   Section        0  guidev_getpos.o(i.GUI_MEMDEV_GetXPos)
    i.GUI_MEMDEV_GetXSize                    0x08006668   Section        0  guidev_getxsize.o(i.GUI_MEMDEV_GetXSize)
    i.GUI_MEMDEV_GetYPos                     0x0800669c   Section        0  guidev_getpos.o(i.GUI_MEMDEV_GetYPos)
    i.GUI_MEMDEV_GetYSize                    0x080066d0   Section        0  guidev_getysize.o(i.GUI_MEMDEV_GetYSize)
    i.GUI_MEMDEV_Paint1Static                0x08006704   Section        0  guidev_staticdevices.o(i.GUI_MEMDEV_Paint1Static)
    i.GUI_MEMDEV_ReduceYSize                 0x08006718   Section        0  guidev_reduceysize.o(i.GUI_MEMDEV_ReduceYSize)
    i.GUI_MEMDEV_Select                      0x08006750   Section        0  guidev.o(i.GUI_MEMDEV_Select)
    i.GUI_MEMDEV_SetAnimationCallback        0x080067ac   Section        0  guidev_moveandfade.o(i.GUI_MEMDEV_SetAnimationCallback)
    i.GUI_MEMDEV_SetOrg                      0x080067b8   Section        0  guidev_setorg.o(i.GUI_MEMDEV_SetOrg)
    i.GUI_MEMDEV_Write                       0x0800681c   Section        0  guidev_write.o(i.GUI_MEMDEV_Write)
    i.GUI_MEMDEV_WriteAt                     0x08006828   Section        0  guidev_write.o(i.GUI_MEMDEV_WriteAt)
    i.GUI_MEMDEV__CreateFixed                0x08006890   Section        0  guidev.o(i.GUI_MEMDEV__CreateFixed)
    i.GUI_MEMDEV__SetAlphaCallback           0x0800697c   Section        0  guidev_banding.o(i.GUI_MEMDEV__SetAlphaCallback)
    i.GUI_MEMDEV__WriteToActiveAlpha         0x08006988   Section        0  guidev_writetoactivealpha.o(i.GUI_MEMDEV__WriteToActiveAlpha)
    i.GUI_MEMDEV__WriteToActiveAt            0x08006aa0   Section        0  guidev.o(i.GUI_MEMDEV__WriteToActiveAt)
    i.GUI_MEMDEV__WriteToActiveOpaque        0x08006ad0   Section        0  guidev_writetoactiveopaque.o(i.GUI_MEMDEV__WriteToActiveOpaque)
    i.GUI_MergeRect                          0x08006b0c   Section        0  gui_mergerect.o(i.GUI_MergeRect)
    i.GUI_MoveRect                           0x08006b64   Section        0  gui_moverect.o(i.GUI_MoveRect)
    i.GUI_PID_GetState                       0x08006b84   Section        0  gui_pid.o(i.GUI_PID_GetState)
    i.GUI_PID_IsEmpty                        0x08006bd0   Section        0  gui_pid.o(i.GUI_PID_IsEmpty)
    i.GUI_PID_StoreState                     0x08006be8   Section        0  gui_pid.o(i.GUI_PID_StoreState)
    i.GUI_PollKeyMsg                         0x08006c04   Section        0  gui_onkey.o(i.GUI_PollKeyMsg)
    i.GUI_ReadRectEx                         0x08006c38   Section        0  lcd_readrect.o(i.GUI_ReadRectEx)
    i.GUI_RectsIntersect                     0x08006c98   Section        0  gui_rectsintersect.o(i.GUI_RectsIntersect)
    i.GUI_RestoreContext                     0x08006cd0   Section        0  gui_savecontext.o(i.GUI_RestoreContext)
    i.GUI_RotatePolygon                      0x08006ce0   Section        0  gui_polyrotate.o(i.GUI_RotatePolygon)
    i.GUI_SPRITE_Create                      0x08006d54   Section        0  gui_sprite.o(i.GUI_SPRITE_Create)
    i.GUI_SPRITE_Delete                      0x08006d6c   Section        0  gui_sprite.o(i.GUI_SPRITE_Delete)
    i.GUI_SPRITE_Hide                        0x08006db6   Section        0  gui_sprite.o(i.GUI_SPRITE_Hide)
    i.GUI_SPRITE_SetBitmapAndPosition        0x08006df0   Section        0  gui_sprite.o(i.GUI_SPRITE_SetBitmapAndPosition)
    i.GUI_SPRITE_SetPosition                 0x08006e5a   Section        0  gui_sprite.o(i.GUI_SPRITE_SetPosition)
    i.GUI_SPRITE_Show                        0x08006e7c   Section        0  gui_sprite.o(i.GUI_SPRITE_Show)
    i.GUI_SPRITE__CreateEx                   0x08006ec4   Section        0  gui_sprite.o(i.GUI_SPRITE__CreateEx)
    i.GUI_SaveContext_W                      0x08006f78   Section        0  gui_savecontext.o(i.GUI_SaveContext_W)
    i.GUI_SelectLCD                          0x08006f88   Section        0  gui_selectlcd.o(i.GUI_SelectLCD)
    i.GUI_SelectLayer                        0x08006fa4   Section        0  gui_selectlayer.o(i.GUI_SelectLayer)
    i.GUI_SetAlpha                           0x08006fd4   Section        0  gui_setalpha.o(i.GUI_SetAlpha)
    i.GUI_SetBkColor                         0x0800704c   Section        0  gui_setcolor.o(i.GUI_SetBkColor)
    i.GUI_SetClipRect                        0x08007062   Section        0  gui_setcliprect.o(i.GUI_SetClipRect)
    i.GUI_SetColor                           0x0800707a   Section        0  gui_setcolor.o(i.GUI_SetColor)
    i.GUI_SetColorIndex                      0x08007090   Section        0  gui_setcolorindex.o(i.GUI_SetColorIndex)
    i.GUI_SetDrawMode                        0x080070b4   Section        0  gui_setdrawmode.o(i.GUI_SetDrawMode)
    i.GUI_SetFont                            0x080070cc   Section        0  gui_setfont.o(i.GUI_SetFont)
    i.GUI_SetLayerPosEx                      0x080070ec   Section        0  gui_selectlayer.o(i.GUI_SetLayerPosEx)
    i.GUI_SetLayerSizeEx                     0x0800710c   Section        0  gui_selectlayer.o(i.GUI_SetLayerSizeEx)
    i.GUI_SetLayerVisEx                      0x0800712c   Section        0  gui_selectlayer.o(i.GUI_SetLayerVisEx)
    i.GUI_SetLineStyle                       0x08007148   Section        0  gui_setlinestyle.o(i.GUI_SetLineStyle)
    i.GUI_SetOrg                             0x08007164   Section        0  gui_setorg.o(i.GUI_SetOrg)
    i.GUI_SetPenSize                         0x080071a4   Section        0  gui_pen.o(i.GUI_SetPenSize)
    i.GUI_SetTextAlign                       0x080071c0   Section        0  gui_settextalign.o(i.GUI_SetTextAlign)
    i.GUI_SetTextMode                        0x080071e0   Section        0  gui_settextmode.o(i.GUI_SetTextMode)
    i.GUI_SignalEvent                        0x08007200   Section        0  gui_waitevent.o(i.GUI_SignalEvent)
    i.GUI_StoreKey                           0x08007210   Section        0  gui_onkey.o(i.GUI_StoreKey)
    i.GUI_TIMER_Create                       0x08007220   Section        0  gui_timer.o(i.GUI_TIMER_Create)
    i.GUI_TIMER_Delete                       0x080072b0   Section        0  gui_timer.o(i.GUI_TIMER_Delete)
    i.GUI_TIMER_Exec                         0x080072d8   Section        0  gui_timer.o(i.GUI_TIMER_Exec)
    i.GUI_TIMER_GetFlag                      0x0800734c   Section        0  gui_timer.o(i.GUI_TIMER_GetFlag)
    i.GUI_TIMER_Restart                      0x0800737e   Section        0  gui_timer.o(i.GUI_TIMER_Restart)
    i.GUI_TIMER_SetPeriod                    0x080073b6   Section        0  gui_timer.o(i.GUI_TIMER_SetPeriod)
    i.GUI_TIMER__GetFirstTimer               0x080073d8   Section        0  gui_timer.o(i.GUI_TIMER__GetFirstTimer)
    i.GUI_TIMER__GetNextTimerLin             0x08007400   Section        0  gui_timer.o(i.GUI_TIMER__GetNextTimerLin)
    i.GUI_TOUCH_Calibrate                    0x08007438   Section        0  gui_touch_driveranalog.o(i.GUI_TOUCH_Calibrate)
    i.GUI_TOUCH_Exec                         0x080074e8   Section        0  gui_touch_driveranalog.o(i.GUI_TOUCH_Exec)
    i.GUI_TOUCH_SetOrientation               0x08007644   Section        0  gui_touch_driveranalog.o(i.GUI_TOUCH_SetOrientation)
    i.GUI_TOUCH_StoreState                   0x08007650   Section        0  gui_touch_storestate.o(i.GUI_TOUCH_StoreState)
    i.GUI_TOUCH_StoreStateEx                 0x08007674   Section        0  gui_touch.o(i.GUI_TOUCH_StoreStateEx)
    i.GUI_TOUCH_StoreUnstable                0x0800769c   Section        0  gui_touch_storeunstable.o(i.GUI_TOUCH_StoreUnstable)
    i.GUI_TOUCH_X_ActivateX                  0x080076cc   Section        0  gui_x_touch_analog.o(i.GUI_TOUCH_X_ActivateX)
    i.GUI_TOUCH_X_ActivateY                  0x080076ce   Section        0  gui_x_touch_analog.o(i.GUI_TOUCH_X_ActivateY)
    i.GUI_TOUCH_X_MeasureX                   0x080076d0   Section        0  gui_x_touch_analog.o(i.GUI_TOUCH_X_MeasureX)
    i.GUI_TOUCH_X_MeasureY                   0x080076e0   Section        0  gui_x_touch_analog.o(i.GUI_TOUCH_X_MeasureY)
    i.GUI_UC__GetCharCodeInc                 0x080076f0   Section        0  gui_uc.o(i.GUI_UC__GetCharCodeInc)
    i.GUI_UC__NumChars2NumBytes              0x0800771c   Section        0  gui_uc.o(i.GUI_UC__NumChars2NumBytes)
    i.GUI_USAGE_AddRect                      0x08007744   Section        0  guidev_usage.o(i.GUI_USAGE_AddRect)
    i.GUI_USAGE_BM_AddHLine                  0x0800776c   Section        0  guidev_usagebm.o(i.GUI_USAGE_BM_AddHLine)
    GUI_USAGE_BM_AddHLine                    0x0800776d   Thumb Code   116  guidev_usagebm.o(i.GUI_USAGE_BM_AddHLine)
    i.GUI_USAGE_BM_AddPixel                  0x080077e0   Section        0  guidev_usagebm.o(i.GUI_USAGE_BM_AddPixel)
    GUI_USAGE_BM_AddPixel                    0x080077e1   Thumb Code    44  guidev_usagebm.o(i.GUI_USAGE_BM_AddPixel)
    i.GUI_USAGE_BM_Clear                     0x0800780c   Section        0  guidev_usagebm.o(i.GUI_USAGE_BM_Clear)
    GUI_USAGE_BM_Clear                       0x0800780d   Thumb Code    14  guidev_usagebm.o(i.GUI_USAGE_BM_Clear)
    i.GUI_USAGE_BM_Create                    0x0800781c   Section        0  guidev_usagebm.o(i.GUI_USAGE_BM_Create)
    i.GUI_USAGE_BM_GetNextDirty              0x08007878   Section        0  guidev_usagebm.o(i.GUI_USAGE_BM_GetNextDirty)
    GUI_USAGE_BM_GetNextDirty                0x08007879   Thumb Code   190  guidev_usagebm.o(i.GUI_USAGE_BM_GetNextDirty)
    i.GUI_USAGE_DecUseCnt                    0x08007936   Section        0  guidev_usage.o(i.GUI_USAGE_DecUseCnt)
    i.GUI_Unlock                             0x08007964   Section        0  gui_task.o(i.GUI_Unlock)
    i.GUI_WrapGetNumLines                    0x08007978   Section        0  gui_dispstringinrectwrap.o(i.GUI_WrapGetNumLines)
    i.GUI_X_Config                           0x080079a4   Section        0  guiconf.o(i.GUI_X_Config)
    i.GUI_X_Delay                            0x080079bc   Section        0  gui_x_freertos.o(i.GUI_X_Delay)
    i.GUI_X_ExecIdle                         0x080079c8   Section        0  gui_x_freertos.o(i.GUI_X_ExecIdle)
    i.GUI_X_GetTaskId                        0x080079ca   Section        0  gui_x_freertos.o(i.GUI_X_GetTaskId)
    i.GUI_X_GetTime                          0x080079d2   Section        0  gui_x_freertos.o(i.GUI_X_GetTime)
    i.GUI_X_Init                             0x080079da   Section        0  gui_x_freertos.o(i.GUI_X_Init)
    i.GUI_X_InitOS                           0x080079dc   Section        0  gui_x_freertos.o(i.GUI_X_InitOS)
    i.GUI_X_Lock                             0x08007a5c   Section        0  gui_x_freertos.o(i.GUI_X_Lock)
    i.GUI_X_Unlock                           0x08007a7c   Section        0  gui_x_freertos.o(i.GUI_X_Unlock)
    i.GUI__AllocAlphaBuffer                  0x08007a94   Section        0  gui__alpha.o(i.GUI__AllocAlphaBuffer)
    i.GUI__AlphaSuppressMixing               0x08007aac   Section        0  gui_setalpha.o(i.GUI__AlphaSuppressMixing)
    i.GUI__CalcTextRect                      0x08007ad0   Section        0  gui__calctextrect.o(i.GUI__CalcTextRect)
    i.GUI__CompactPixelIndices               0x08007b6e   Section        0  gui__compactpixelindices.o(i.GUI__CompactPixelIndices)
    i.GUI__CompactPixelIndicesEx             0x08007c96   Section        0  gui__compactpixelindices.o(i.GUI__CompactPixelIndicesEx)
    i.GUI__Config                            0x08007e0c   Section        0  gui_core.o(i.GUI__Config)
    i.GUI__CosHQ                             0x08007e40   Section        0  gui__sinhq.o(i.GUI__CosHQ)
    i.GUI__DispLine                          0x08007e4c   Section        0  gui_charline.o(i.GUI__DispLine)
    i.GUI__DispStringInRect                  0x08007efc   Section        0  gui_dispstringinrect.o(i.GUI__DispStringInRect)
    i.GUI__DivideRound32                     0x08008040   Section        0  gui__divideround32.o(i.GUI__DivideRound32)
    i.GUI__DoAlphaBlending                   0x0800805c   Section        0  gui__alpha.o(i.GUI__DoAlphaBlending)
    i.GUI__DrawTwinArc2                      0x08008218   Section        0  gui__drawtwinarc.o(i.GUI__DrawTwinArc2)
    i.GUI__DrawTwinArc4                      0x0800828c   Section        0  gui__drawtwinarc.o(i.GUI__DrawTwinArc4)
    i.GUI__ExpandPixelIndices                0x080082f8   Section        0  gui__expandpixelindices.o(i.GUI__ExpandPixelIndices)
    i.GUI__ExpandPixelIndicesEx              0x080083d4   Section        0  gui__expandpixelindices.o(i.GUI__ExpandPixelIndicesEx)
    i.GUI__GetAlphaBuffer                    0x08008514   Section        0  gui__alpha.o(i.GUI__GetAlphaBuffer)
    i.GUI__GetFontSizeY                      0x080085a4   Section        0  gui__getfontsizey.o(i.GUI__GetFontSizeY)
    i.GUI__GetLineDistX                      0x080085b8   Section        0  gui_charline.o(i.GUI__GetLineDistX)
    i.GUI__GetLineNumChars                   0x0800860c   Section        0  gui_charline.o(i.GUI__GetLineNumChars)
    i.GUI__GetNumChars                       0x08008644   Section        0  gui__getnumchars.o(i.GUI__GetNumChars)
    i.GUI__GetOrg                            0x08008660   Section        0  gui_getorg.o(i.GUI__GetOrg)
    i.GUI__GetOverlap                        0x0800867c   Section        0  gui_charline.o(i.GUI__GetOverlap)
    i.GUI__HandleEOLine                      0x08008694   Section        0  gui__handleeoline.o(i.GUI__HandleEOLine)
    i.GUI__IntersectRect                     0x080086ac   Section        0  gui__intersectrect.o(i.GUI__IntersectRect)
    i.GUI__IntersectRects                    0x080086e6   Section        0  gui__intersectrects.o(i.GUI__IntersectRects)
    i.GUI__ManageCache                       0x08008738   Section        0  gui__managecache.o(i.GUI__ManageCache)
    i.GUI__ManageCacheEx                     0x08008748   Section        0  gui__managecache.o(i.GUI__ManageCacheEx)
    i.GUI__MixColors                         0x080087f4   Section        0  gui__alpha.o(i.GUI__MixColors)
    i.GUI__MixColorsBulk                     0x0800885a   Section        0  gui__alpha.o(i.GUI__MixColorsBulk)
    i.GUI__ReduceRect                        0x080088a8   Section        0  gui__reducerect.o(i.GUI__ReduceRect)
    i.GUI__RegisterExit                      0x080088c4   Section        0  gui_core.o(i.GUI__RegisterExit)
    i.GUI__SetPixelAlpha                     0x080088d4   Section        0  gui__setpixelalpha.o(i.GUI__SetPixelAlpha)
    i.GUI__SetText                           0x08008944   Section        0  gui__settext.o(i.GUI__SetText)
    i.GUI__SinHQ                             0x080089b0   Section        0  gui__sinhq.o(i.GUI__SinHQ)
    i.GUI__WrapGetNumBytesToNextLine         0x08008a24   Section        0  gui__wrap.o(i.GUI__WrapGetNumBytesToNextLine)
    i.GUI__WrapGetNumCharsDisp               0x08008a38   Section        0  gui__wrap.o(i.GUI__WrapGetNumCharsDisp)
    i.GUI__WrapGetNumCharsToNextLine         0x08008a3e   Section        0  gui__wrap.o(i.GUI__WrapGetNumCharsToNextLine)
    i.GUI__memset                            0x08008a9c   Section        0  gui__memset.o(i.GUI__memset)
    i.GUI__memset16                          0x08008ae8   Section        0  gui__memset16.o(i.GUI__memset16)
    i.GUI__sqrt32                            0x08008b22   Section        0  gui__sqrt32.o(i.GUI__sqrt32)
    i.GUI__strcmp                            0x08008b3c   Section        0  gui__strcmp.o(i.GUI__strcmp)
    i.GUI__strcmp_hp                         0x08008b60   Section        0  gui__strcmp.o(i.GUI__strcmp_hp)
    i.GUI__strlen                            0x08008b80   Section        0  gui__strlen.o(i.GUI__strlen)
    i.GUI_cos                                0x08008b94   Section        0  gui_drawline.o(i.GUI_cos)
    i.GUI_sin                                0x08008b9c   Section        0  gui_drawline.o(i.GUI_sin)
    i.HAL_CRC_Init                           0x08008bf0   Section        0  stm32f4xx_hal_crc.o(i.HAL_CRC_Init)
    i.HAL_CRC_MspInit                        0x08008c14   Section        0  crc.o(i.HAL_CRC_MspInit)
    i.HAL_Delay                              0x08008c48   Section        0  stm32f4xx_hal.o(i.HAL_Delay)
    i.HAL_FSMC_MspInit                       0x08008c70   Section        0  fsmc.o(i.HAL_FSMC_MspInit)
    HAL_FSMC_MspInit                         0x08008c71   Thumb Code   182  fsmc.o(i.HAL_FSMC_MspInit)
    i.HAL_GPIO_Init                          0x08008d40   Section        0  stm32f4xx_hal_gpio.o(i.HAL_GPIO_Init)
    i.HAL_GPIO_WritePin                      0x08008f40   Section        0  stm32f4xx_hal_gpio.o(i.HAL_GPIO_WritePin)
    i.HAL_GetTick                            0x08008f4c   Section        0  stm32f4xx_hal.o(i.HAL_GetTick)
    i.HAL_IncTick                            0x08008f58   Section        0  stm32f4xx_hal.o(i.HAL_IncTick)
    i.HAL_Init                               0x08008f70   Section        0  stm32f4xx_hal.o(i.HAL_Init)
    i.HAL_InitTick                           0x08008fac   Section        0  stm32f4xx_hal_timebase_tim.o(i.HAL_InitTick)
    i.HAL_MspInit                            0x08009034   Section        0  stm32f4xx_hal_msp.o(i.HAL_MspInit)
    i.HAL_NVIC_EnableIRQ                     0x08009088   Section        0  stm32f4xx_hal_cortex.o(i.HAL_NVIC_EnableIRQ)
    i.HAL_NVIC_SetPriority                   0x080090a8   Section        0  stm32f4xx_hal_cortex.o(i.HAL_NVIC_SetPriority)
    i.HAL_NVIC_SetPriorityGrouping           0x08009124   Section        0  stm32f4xx_hal_cortex.o(i.HAL_NVIC_SetPriorityGrouping)
    i.HAL_RCC_ClockConfig                    0x0800914c   Section        0  stm32f4xx_hal_rcc.o(i.HAL_RCC_ClockConfig)
    i.HAL_RCC_GetClockConfig                 0x080092cc   Section        0  stm32f4xx_hal_rcc.o(i.HAL_RCC_GetClockConfig)
    i.HAL_RCC_GetHCLKFreq                    0x08009310   Section        0  stm32f4xx_hal_rcc.o(i.HAL_RCC_GetHCLKFreq)
    i.HAL_RCC_GetPCLK1Freq                   0x0800931c   Section        0  stm32f4xx_hal_rcc.o(i.HAL_RCC_GetPCLK1Freq)
    i.HAL_RCC_GetSysClockFreq                0x0800933c   Section        0  stm32f4xx_hal_rcc.o(i.HAL_RCC_GetSysClockFreq)
    i.HAL_RCC_OscConfig                      0x080093ec   Section        0  stm32f4xx_hal_rcc.o(i.HAL_RCC_OscConfig)
    i.HAL_SRAM_Init                          0x08009834   Section        0  stm32f4xx_hal_sram.o(i.HAL_SRAM_Init)
    i.HAL_SRAM_MspInit                       0x0800988c   Section        0  fsmc.o(i.HAL_SRAM_MspInit)
    i.HAL_TIMEx_BreakCallback                0x08009896   Section        0  stm32f4xx_hal_tim_ex.o(i.HAL_TIMEx_BreakCallback)
    i.HAL_TIMEx_CommutCallback               0x08009898   Section        0  stm32f4xx_hal_tim_ex.o(i.HAL_TIMEx_CommutCallback)
    i.HAL_TIM_Base_Init                      0x0800989a   Section        0  stm32f4xx_hal_tim.o(i.HAL_TIM_Base_Init)
    i.HAL_TIM_Base_MspInit                   0x080098ce   Section        0  stm32f4xx_hal_tim.o(i.HAL_TIM_Base_MspInit)
    i.HAL_TIM_Base_Start_IT                  0x080098d0   Section        0  stm32f4xx_hal_tim.o(i.HAL_TIM_Base_Start_IT)
    i.HAL_TIM_IC_CaptureCallback             0x080098fa   Section        0  stm32f4xx_hal_tim.o(i.HAL_TIM_IC_CaptureCallback)
    i.HAL_TIM_IRQHandler                     0x080098fc   Section        0  stm32f4xx_hal_tim.o(i.HAL_TIM_IRQHandler)
    i.HAL_TIM_OC_DelayElapsedCallback        0x08009a92   Section        0  stm32f4xx_hal_tim.o(i.HAL_TIM_OC_DelayElapsedCallback)
    i.HAL_TIM_PWM_PulseFinishedCallback      0x08009a94   Section        0  stm32f4xx_hal_tim.o(i.HAL_TIM_PWM_PulseFinishedCallback)
    i.HAL_TIM_PeriodElapsedCallback          0x08009a96   Section        0  main.o(i.HAL_TIM_PeriodElapsedCallback)
    i.HAL_TIM_TriggerCallback                0x08009aa8   Section        0  stm32f4xx_hal_tim.o(i.HAL_TIM_TriggerCallback)
    i.HEADER_AddItem                         0x08009aac   Section        0  header.o(i.HEADER_AddItem)
    i.HEADER_Callback                        0x08009b6c   Section        0  header.o(i.HEADER_Callback)
    i.HEADER_CreateEx                        0x08009c9e   Section        0  header.o(i.HEADER_CreateEx)
    i.HEADER_CreateUser                      0x08009cbc   Section        0  header.o(i.HEADER_CreateUser)
    i.HEADER_DrawSkinFlex                    0x08009d9c   Section        0  header_skinflex.o(i.HEADER_DrawSkinFlex)
    i.HEADER_GetHeight                       0x08009dda   Section        0  header.o(i.HEADER_GetHeight)
    i.HEADER_GetItemWidth                    0x08009e0c   Section        0  header.o(i.HEADER_GetItemWidth)
    i.HEADER_GetNumItems                     0x08009e50   Section        0  header.o(i.HEADER_GetNumItems)
    i.HEADER_GetSel                          0x08009e7c   Section        0  header_getsel.o(i.HEADER_GetSel)
    i.HEADER_SetDefaultSkin                  0x08009ea4   Section        0  header_skin.o(i.HEADER_SetDefaultSkin)
    i.HEADER_SetDirIndicator                 0x08009ec0   Section        0  header.o(i.HEADER_SetDirIndicator)
    i.HEADER_SetDragLimit                    0x08009ef8   Section        0  header_setdraglimit.o(i.HEADER_SetDragLimit)
    i.HEADER_SetItemWidth                    0x08009f24   Section        0  header.o(i.HEADER_SetItemWidth)
    i.HEADER_SetScrollPos                    0x08009f9c   Section        0  header.o(i.HEADER_SetScrollPos)
    i.HardFault_Handler                      0x08009fd8   Section        0  stm32f4xx_it.o(i.HardFault_Handler)
    i.IIC_Ack                                0x08009fdc   Section        0  myiic.o(i.IIC_Ack)
    i.IIC_Init                               0x0800a02c   Section        0  myiic.o(i.IIC_Init)
    i.IIC_NAck                               0x0800a044   Section        0  myiic.o(i.IIC_NAck)
    i.IIC_Read_Byte                          0x0800a094   Section        0  myiic.o(i.IIC_Read_Byte)
    i.IIC_Send_Byte                          0x0800a100   Section        0  myiic.o(i.IIC_Send_Byte)
    i.IIC_Start                              0x0800a168   Section        0  myiic.o(i.IIC_Start)
    i.IIC_Stop                               0x0800a1b4   Section        0  myiic.o(i.IIC_Stop)
    i.IIC_Wait_Ack                           0x0800a1fc   Section        0  myiic.o(i.IIC_Wait_Ack)
    i.LCD_AA_MixColors                       0x0800a25c   Section        0  lcd_aa.o(i.LCD_AA_MixColors)
    i.LCD_AA_SetAndMask                      0x0800a27c   Section        0  lcd_aa.o(i.LCD_AA_SetAndMask)
    i.LCD_BGR2RGB                            0x0800a28c   Section        0  lcd_config.o(i.LCD_BGR2RGB)
    i.LCD_Clear                              0x0800a2a8   Section        0  lcd_config.o(i.LCD_Clear)
    i.LCD_Color2Index                        0x0800a314   Section        0  lcd.o(i.LCD_Color2Index)
    i.LCD_Config_Init                        0x0800a330   Section        0  lcd_config.o(i.LCD_Config_Init)
    i.LCD_Display_Dir                        0x0800d984   Section        0  lcd_config.o(i.LCD_Display_Dir)
    i.LCD_DrawBitmap                         0x0800db44   Section        0  lcd.o(i.LCD_DrawBitmap)
    i.LCD_DrawHLine                          0x0800dd4c   Section        0  lcd.o(i.LCD_DrawHLine)
    i.LCD_DrawLine                           0x0800dda4   Section        0  lcd_config.o(i.LCD_DrawLine)
    i.LCD_DrawPixel                          0x0800de54   Section        0  lcd.o(i.LCD_DrawPixel)
    i.LCD_DrawPoint                          0x0800debc   Section        0  lcd_config.o(i.LCD_DrawPoint)
    i.LCD_DrawVLine                          0x0800dee0   Section        0  lcd.o(i.LCD_DrawVLine)
    i.LCD_Draw_Circle                        0x0800df34   Section        0  lcd_config.o(i.LCD_Draw_Circle)
    i.LCD_Fast_DrawPoint                     0x0800dfcc   Section        0  lcd_config.o(i.LCD_Fast_DrawPoint)
    i.LCD_Fill                               0x0800e14c   Section        0  lcd_config.o(i.LCD_Fill)
    i.LCD_FillRect                           0x0800e204   Section        0  lcd.o(i.LCD_FillRect)
    i.LCD_GetBitsPerPixel                    0x0800e25c   Section        0  lcd_getex.o(i.LCD_GetBitsPerPixel)
    i.LCD_GetBitsPerPixelEx                  0x0800e26c   Section        0  lcd_getex.o(i.LCD_GetBitsPerPixelEx)
    i.LCD_GetBkColorIndex                    0x0800e274   Section        0  lcd_getcolorindex.o(i.LCD_GetBkColorIndex)
    i.LCD_GetColorIndex                      0x0800e284   Section        0  lcd_getcolorindex.o(i.LCD_GetColorIndex)
    i.LCD_GetDevCap                          0x0800e294   Section        0  lcd_info.o(i.LCD_GetDevCap)
    i.LCD_GetNumColors                       0x0800e2a4   Section        0  lcd_getex.o(i.LCD_GetNumColors)
    i.LCD_GetNumColorsEx                     0x0800e2b4   Section        0  lcd_getex.o(i.LCD_GetNumColorsEx)
    i.LCD_GetNumLayers                       0x0800e2ba   Section        0  lcd_getnumdisplays.o(i.LCD_GetNumLayers)
    i.LCD_GetPalette                         0x0800e2d4   Section        0  lcd_getex.o(i.LCD_GetPalette)
    i.LCD_GetPaletteEx                       0x0800e2e4   Section        0  lcd_getex.o(i.LCD_GetPaletteEx)
    i.LCD_GetPixelColor                      0x0800e2fc   Section        0  lcd_getpixelcolor.o(i.LCD_GetPixelColor)
    i.LCD_GetPixelIndex                      0x0800e30c   Section        0  lcd_getp.o(i.LCD_GetPixelIndex)
    i.LCD_GetPosEx                           0x0800e36c   Section        0  lcd_set.o(i.LCD_GetPosEx)
    i.LCD_GetVXSizeEx                        0x0800e398   Section        0  lcd_getex.o(i.LCD_GetVXSizeEx)
    i.LCD_GetVXSizeMax                       0x0800e39e   Section        0  lcd_getex.o(i.LCD_GetVXSizeMax)
    i.LCD_GetVYSize                          0x0800e3a4   Section        0  lcd_getex.o(i.LCD_GetVYSize)
    i.LCD_GetVYSizeEx                        0x0800e3b4   Section        0  lcd_getex.o(i.LCD_GetVYSizeEx)
    i.LCD_GetXSize                           0x0800e3bc   Section        0  lcd_getex.o(i.LCD_GetXSize)
    i.LCD_GetXSizeEx                         0x0800e3cc   Section        0  lcd_getex.o(i.LCD_GetXSizeEx)
    i.LCD_GetYSize                           0x0800e3d4   Section        0  lcd_getex.o(i.LCD_GetYSize)
    i.LCD_GetYSizeEx                         0x0800e3e4   Section        0  lcd_getex.o(i.LCD_GetYSizeEx)
    i.LCD_GetpPalConvTable                   0x0800e3ea   Section        0  lcd_color.o(i.LCD_GetpPalConvTable)
    i.LCD_GetpPalConvTableBM                 0x0800e3ee   Section        0  lcd_color.o(i.LCD_GetpPalConvTableBM)
    i.LCD_GetpPalConvTableUncached           0x0800e3f4   Section        0  lcd_color.o(i.LCD_GetpPalConvTableUncached)
    i.LCD_Index2Color                        0x0800e43c   Section        0  lcd.o(i.LCD_Index2Color)
    i.LCD_Index2Color_888                    0x0800e458   Section        0  guicc_888_index2color.o(i.LCD_Index2Color_888)
    i.LCD_Index2Color_8888                   0x0800e45a   Section        0  guicc_8888_index2color.o(i.LCD_Index2Color_8888)
    i.LCD_Index2Color_M565                   0x0800e45c   Section        0  guicc_m565_index2color.o(i.LCD_Index2Color_M565)
    i.LCD_InitColors                         0x0800e488   Section        0  lcd_color.o(i.LCD_InitColors)
    i.LCD_InitLUT                            0x0800e4bc   Section        0  lcd_color.o(i.LCD_InitLUT)
    i.LCD_RD_DATA                            0x0800e52c   Section        0  lcd_config.o(i.LCD_RD_DATA)
    i.LCD_ReadPoint                          0x0800e540   Section        0  lcd_config.o(i.LCD_ReadPoint)
    i.LCD_ReadRectEx                         0x0800e6ac   Section        0  lcd_readrect.o(i.LCD_ReadRectEx)
    LCD_ReadRectEx                           0x0800e6ad   Thumb Code   404  lcd_readrect.o(i.LCD_ReadRectEx)
    i.LCD_ReadReg                            0x0800e844   Section        0  lcd_config.o(i.LCD_ReadReg)
    i.LCD_SSD_BackLightSet                   0x0800e85c   Section        0  lcd_config.o(i.LCD_SSD_BackLightSet)
    i.LCD_Scan_Dir                           0x0800e8bc   Section        0  lcd_config.o(i.LCD_Scan_Dir)
    i.LCD_SelectLCD                          0x0800eba8   Section        0  lcd_selectlcd.o(i.LCD_SelectLCD)
    i.LCD_SetBkColor                         0x0800ebec   Section        0  lcd.o(i.LCD_SetBkColor)
    i.LCD_SetBkColorIndex                    0x0800ebf8   Section        0  lcd.o(i.LCD_SetBkColorIndex)
    i.LCD_SetClipRectEx                      0x0800ec10   Section        0  lcd_setcliprectex.o(i.LCD_SetClipRectEx)
    i.LCD_SetClipRectMax                     0x0800ec40   Section        0  lcd.o(i.LCD_SetClipRectMax)
    i.LCD_SetColor                           0x0800ec5c   Section        0  lcd.o(i.LCD_SetColor)
    i.LCD_SetColorIndex                      0x0800ec68   Section        0  lcd.o(i.LCD_SetColorIndex)
    i.LCD_SetCursor                          0x0800ec80   Section        0  lcd_config.o(i.LCD_SetCursor)
    i.LCD_SetDrawMode                        0x0800ee28   Section        0  lcd.o(i.LCD_SetDrawMode)
    i.LCD_SetLUTEntryEx                      0x0800ee34   Section        0  lcd_set.o(i.LCD_SetLUTEntryEx)
    i.LCD_SetPixelAA                         0x0800ee60   Section        0  lcd_aa.o(i.LCD_SetPixelAA)
    i.LCD_SetPixelAA_Xor                     0x0800eee8   Section        0  lcd_aa.o(i.LCD_SetPixelAA_Xor)
    i.LCD_SetPixelIndex                      0x0800ef84   Section        0  gui_setpixelindex.o(i.LCD_SetPixelIndex)
    i.LCD_SetPosEx                           0x0800efd0   Section        0  lcd_set.o(i.LCD_SetPosEx)
    i.LCD_SetSizeEx                          0x0800effc   Section        0  lcd_set.o(i.LCD_SetSizeEx)
    i.LCD_SetVSizeEx                         0x0800f028   Section        0  lcd_set.o(i.LCD_SetVSizeEx)
    i.LCD_SetVisEx                           0x0800f054   Section        0  lcd_set.o(i.LCD_SetVisEx)
    i.LCD_UpdateColorIndices                 0x0800f07c   Section        0  lcd_updatecolorindices.o(i.LCD_UpdateColorIndices)
    i.LCD_WR_DATA                            0x0800f0a0   Section        0  lcd_config.o(i.LCD_WR_DATA)
    i.LCD_WR_REG                             0x0800f0ac   Section        0  lcd_config.o(i.LCD_WR_REG)
    i.LCD_WriteRAM_Prepare                   0x0800f0b8   Section        0  lcd_config.o(i.LCD_WriteRAM_Prepare)
    i.LCD_WriteReg                           0x0800f0cc   Section        0  lcd_config.o(i.LCD_WriteReg)
    i.LCD_X_Config                           0x0800f0e0   Section        0  lcdconf_flexcolor_template.o(i.LCD_X_Config)
    i.LCD_X_DisplayDriver                    0x0800f140   Section        0  lcdconf_flexcolor_template.o(i.LCD_X_DisplayDriver)
    i.LCD__DrawBitmap_1bpp                   0x0800f15c   Section        0  lcd.o(i.LCD__DrawBitmap_1bpp)
    i.LCD__GetBPP                            0x0800f310   Section        0  lcd_getex.o(i.LCD__GetBPP)
    i.LCD__GetBPPDevice                      0x0800f36c   Section        0  lcd_getex.o(i.LCD__GetBPPDevice)
    i.LISTVIEW_AddColumn                     0x0800f39e   Section        0  listview.o(i.LISTVIEW_AddColumn)
    i.LISTVIEW_AddRow                        0x0800f43e   Section        0  listview.o(i.LISTVIEW_AddRow)
    i.LISTVIEW_Callback                      0x0800f542   Section        0  listview.o(i.LISTVIEW_Callback)
    i.LISTVIEW_CompareDec                    0x0800f744   Section        0  listview_setsort.o(i.LISTVIEW_CompareDec)
    i.LISTVIEW_CompareText                   0x0800f7c6   Section        0  listview_setsort.o(i.LISTVIEW_CompareText)
    i.LISTVIEW_CreateEx                      0x0800f7d0   Section        0  listview.o(i.LISTVIEW_CreateEx)
    i.LISTVIEW_CreateUser                    0x0800f7ec   Section        0  listview.o(i.LISTVIEW_CreateUser)
    i.LISTVIEW_DecSel                        0x0800f8d4   Section        0  listview.o(i.LISTVIEW_DecSel)
    i.LISTVIEW_EnableSort                    0x0800f8f2   Section        0  listview_setsort.o(i.LISTVIEW_EnableSort)
    i.LISTVIEW_GetHeader                     0x0800f91c   Section        0  listview_getheader.o(i.LISTVIEW_GetHeader)
    i.LISTVIEW_GetLBorder                    0x0800f942   Section        0  listview_setlborder.o(i.LISTVIEW_GetLBorder)
    i.LISTVIEW_GetNumColumns                 0x0800f96a   Section        0  listview_getnumcolumns.o(i.LISTVIEW_GetNumColumns)
    i.LISTVIEW_GetNumRows                    0x0800f994   Section        0  listview_getnumrows.o(i.LISTVIEW_GetNumRows)
    i.LISTVIEW_GetRBorder                    0x0800f9be   Section        0  listview_setrborder.o(i.LISTVIEW_GetRBorder)
    i.LISTVIEW_GetSel                        0x0800f9e6   Section        0  listview_getsel.o(i.LISTVIEW_GetSel)
    i.LISTVIEW_GetWrapMode                   0x0800fa0c   Section        0  listview_getwrapmode.o(i.LISTVIEW_GetWrapMode)
    i.LISTVIEW_IncSel                        0x0800fa34   Section        0  listview.o(i.LISTVIEW_IncSel)
    i.LISTVIEW_InsertRow                     0x0800fa50   Section        0  listview_insertrow.o(i.LISTVIEW_InsertRow)
    i.LISTVIEW_OwnerDraw                     0x0800fb8c   Section        0  listview.o(i.LISTVIEW_OwnerDraw)
    i.LISTVIEW_RowIsDisabled                 0x0800fc88   Section        0  listview_disablerow.o(i.LISTVIEW_RowIsDisabled)
    i.LISTVIEW_SetAutoScrollV                0x0800fca0   Section        0  listview_setautoscroll.o(i.LISTVIEW_SetAutoScrollV)
    i.LISTVIEW_SetCompareFunc                0x0800fca6   Section        0  listview_setsort.o(i.LISTVIEW_SetCompareFunc)
    i.LISTVIEW_SetGridVis                    0x0800fce6   Section        0  listview_setgridvis.o(i.LISTVIEW_SetGridVis)
    i.LISTVIEW_SetItemBkColor                0x0800fd24   Section        0  listview_setitemcolor.o(i.LISTVIEW_SetItemBkColor)
    i.LISTVIEW_SetLBorder                    0x0800fdbc   Section        0  listview_setlborder.o(i.LISTVIEW_SetLBorder)
    i.LISTVIEW_SetRBorder                    0x0800fdee   Section        0  listview_setrborder.o(i.LISTVIEW_SetRBorder)
    i.LISTVIEW_SetSort                       0x0800fe20   Section        0  listview_setsort.o(i.LISTVIEW_SetSort)
    i.LISTVIEW__CreateCellInfoLocked         0x0800feb4   Section        0  listview_setitemcolor.o(i.LISTVIEW__CreateCellInfoLocked)
    i.LISTVIEW__GetNumColumns                0x0800ff3c   Section        0  listview_getnumcolumns.o(i.LISTVIEW__GetNumColumns)
    i.LISTVIEW__GetNumRows                   0x0800ff42   Section        0  listview_getnumrows.o(i.LISTVIEW__GetNumRows)
    i.LISTVIEW__GetRowDistY                  0x0800ff48   Section        0  listview.o(i.LISTVIEW__GetRowDistY)
    i.LISTVIEW__GetpCellInfo                 0x0800ff64   Section        0  listview_setitemcolor.o(i.LISTVIEW__GetpCellInfo)
    i.LISTVIEW__GetpRow                      0x0800ffce   Section        0  listview.o(i.LISTVIEW__GetpRow)
    i.LISTVIEW__InvalidateInsideArea         0x0801003e   Section        0  listview.o(i.LISTVIEW__InvalidateInsideArea)
    i.LISTVIEW__InvalidateRow                0x08010072   Section        0  listview.o(i.LISTVIEW__InvalidateRow)
    i.LISTVIEW__InvalidateRowAndBelow        0x080100c8   Section        0  listview_deleterow.o(i.LISTVIEW__InvalidateRowAndBelow)
    i.LISTVIEW__SetSel                       0x08010114   Section        0  listview.o(i.LISTVIEW__SetSel)
    i.LISTVIEW__UpdateScrollParas            0x08010188   Section        0  listview.o(i.LISTVIEW__UpdateScrollParas)
    i.MX_CRC_Init                            0x08010260   Section        0  crc.o(i.MX_CRC_Init)
    i.MX_FREERTOS_Init                       0x08010280   Section        0  freertos.o(i.MX_FREERTOS_Init)
    i.MX_FSMC_Init                           0x080102c4   Section        0  fsmc.o(i.MX_FSMC_Init)
    i.MX_GPIO_Init                           0x08010340   Section        0  gpio.o(i.MX_GPIO_Init)
    i.MainTask                               0x08010550   Section        0  guidemo_start.o(i.MainTask)
    i.MemManage_Handler                      0x08010562   Section        0  stm32f4xx_it.o(i.MemManage_Handler)
    i.NMI_Handler                            0x08010566   Section        0  stm32f4xx_it.o(i.NMI_Handler)
    i.PROGBAR_Callback                       0x08010568   Section        0  progbar.o(i.PROGBAR_Callback)
    i.PROGBAR_CreateIndirect                 0x080105be   Section        0  progbar_createindirect.o(i.PROGBAR_CreateIndirect)
    i.PROGBAR_CreateUser                     0x080105f8   Section        0  progbar.o(i.PROGBAR_CreateUser)
    i.PROGBAR_DrawSkinFlex                   0x080106b4   Section        0  progbar_skinflex.o(i.PROGBAR_DrawSkinFlex)
    i.PROGBAR_SetDefaultSkin                 0x08010738   Section        0  progbar_skin.o(i.PROGBAR_SetDefaultSkin)
    i.PROGBAR_SetFont                        0x08010754   Section        0  progbar_setfont.o(i.PROGBAR_SetFont)
    i.PROGBAR_SetMinMax                      0x0801077c   Section        0  progbar_setminmax.o(i.PROGBAR_SetMinMax)
    i.PROGBAR_SetTextAlign                   0x080107b8   Section        0  progbar_settextalign.o(i.PROGBAR_SetTextAlign)
    i.PROGBAR_SetValue                       0x080107e2   Section        0  progbar.o(i.PROGBAR_SetValue)
    i.PROGBAR__GetTextLocked                 0x0801092c   Section        0  progbar.o(i.PROGBAR__GetTextLocked)
    i.PROGBAR__GetTextRect                   0x08010932   Section        0  progbar.o(i.PROGBAR__GetTextRect)
    i.PROGBAR__Value2Pos                     0x080109b4   Section        0  progbar.o(i.PROGBAR__Value2Pos)
    i.SCROLLBAR_AddValue                     0x08010a04   Section        0  scrollbar.o(i.SCROLLBAR_AddValue)
    i.SCROLLBAR_Callback                     0x08010a2e   Section        0  scrollbar.o(i.SCROLLBAR_Callback)
    i.SCROLLBAR_CreateAttached               0x08010b6a   Section        0  scrollbar_create.o(i.SCROLLBAR_CreateAttached)
    i.SCROLLBAR_CreateEx                     0x08010ba0   Section        0  scrollbar.o(i.SCROLLBAR_CreateEx)
    i.SCROLLBAR_CreateUser                   0x08010bbc   Section        0  scrollbar.o(i.SCROLLBAR_CreateUser)
    i.SCROLLBAR_Dec                          0x08010cb8   Section        0  scrollbar.o(i.SCROLLBAR_Dec)
    i.SCROLLBAR_DrawSkinFlex                 0x08010cc0   Section        0  scrollbar_skinflex.o(i.SCROLLBAR_DrawSkinFlex)
    i.SCROLLBAR_GetValue                     0x08010e54   Section        0  scrollbar_getvalue.o(i.SCROLLBAR_GetValue)
    i.SCROLLBAR_Inc                          0x08010e7a   Section        0  scrollbar.o(i.SCROLLBAR_Inc)
    i.SCROLLBAR_SetDefaultSkin               0x08010e80   Section        0  scrollbar_skin.o(i.SCROLLBAR_SetDefaultSkin)
    i.SCROLLBAR_SetValue                     0x08010e9c   Section        0  scrollbar.o(i.SCROLLBAR_SetValue)
    i.SCROLLBAR__InvalidatePartner           0x08010ef0   Section        0  scrollbar.o(i.SCROLLBAR__InvalidatePartner)
    i.SCROLLBAR__Rect2VRect                  0x08010f0c   Section        0  scrollbar.o(i.SCROLLBAR__Rect2VRect)
    i.SLIDER_Callback                        0x08010f38   Section        0  slider.o(i.SLIDER_Callback)
    i.SLIDER_CreateIndirect                  0x08010fa8   Section        0  slider_createindirect.o(i.SLIDER_CreateIndirect)
    i.SLIDER_CreateUser                      0x08010fe0   Section        0  slider.o(i.SLIDER_CreateUser)
    i.SLIDER_Dec                             0x08011078   Section        0  slider.o(i.SLIDER_Dec)
    i.SLIDER_DrawSkinFlex                    0x080110b8   Section        0  slider_skinflex.o(i.SLIDER_DrawSkinFlex)
    i.SLIDER_GetValue                        0x080111b8   Section        0  slider.o(i.SLIDER_GetValue)
    i.SLIDER_Inc                             0x080111de   Section        0  slider.o(i.SLIDER_Inc)
    i.SLIDER_SetDefaultSkin                  0x08011220   Section        0  slider_skin.o(i.SLIDER_SetDefaultSkin)
    i.SLIDER_SetRange                        0x0801123c   Section        0  slider.o(i.SLIDER_SetRange)
    i.SLIDER_SetValue                        0x0801127e   Section        0  slider.o(i.SLIDER_SetValue)
    i.Start_LCD_Task                         0x080112cc   Section        0  freertos.o(i.Start_LCD_Task)
    i.Start_LED_Task                         0x080112da   Section        0  freertos.o(i.Start_LED_Task)
    i.SysTick_Handler                        0x080112ec   Section        0  port.o(i.SysTick_Handler)
    i.SystemClock_Config                     0x08011320   Section        0  main.o(i.SystemClock_Config)
    i.SystemInit                             0x080113d4   Section        0  system_stm32f4xx.o(i.SystemInit)
    i.TEXT_Callback                          0x08011438   Section        0  text.o(i.TEXT_Callback)
    i.TEXT_CreateIndirect                    0x0801149e   Section        0  text_createindirect.o(i.TEXT_CreateIndirect)
    i.TEXT_CreateUser                        0x080114dc   Section        0  text.o(i.TEXT_CreateUser)
    i.TEXT_GetDefaultFont                    0x0801157c   Section        0  text_default.o(i.TEXT_GetDefaultFont)
    i.TEXT_SetDefaultFont                    0x08011588   Section        0  text_default.o(i.TEXT_SetDefaultFont)
    i.TEXT_SetDefaultTextColor               0x08011594   Section        0  text_default.o(i.TEXT_SetDefaultTextColor)
    i.TEXT_SetFont                           0x080115a0   Section        0  text_setfont.o(i.TEXT_SetFont)
    i.TEXT_SetText                           0x080115ce   Section        0  text_settext.o(i.TEXT_SetText)
    i.TIM2_IRQHandler                        0x08011624   Section        0  stm32f4xx_it.o(i.TIM2_IRQHandler)
    i.TIM_Base_SetConfig                     0x08011634   Section        0  stm32f4xx_hal_tim.o(i.TIM_Base_SetConfig)
    i.TP_Adjust                              0x0801170c   Section        0  touch.o(i.TP_Adjust)
    i.TP_Drow_Touch_Point                    0x08011d8c   Section        0  touch.o(i.TP_Drow_Touch_Point)
    i.TP_Get_Adjdata                         0x08011dfc   Section        0  touch.o(i.TP_Get_Adjdata)
    i.TP_Init                                0x08011e80   Section        0  touch.o(i.TP_Init)
    i.TP_Read_AD                             0x08011ef4   Section        0  touch.o(i.TP_Read_AD)
    i.TP_Read_XOY                            0x08011f80   Section        0  touch.o(i.TP_Read_XOY)
    i.TP_Read_XY                             0x08011ff8   Section        0  touch.o(i.TP_Read_XY)
    i.TP_Read_XY2                            0x08012028   Section        0  touch.o(i.TP_Read_XY2)
    i.TP_Save_Adjdata                        0x080120e8   Section        0  touch.o(i.TP_Save_Adjdata)
    i.TP_Scan                                0x08012138   Section        0  touch.o(i.TP_Scan)
    i.TP_Write_Byte                          0x08012234   Section        0  touch.o(i.TP_Write_Byte)
    i.TREEVIEW_AttachItem                    0x08012278   Section        0  treeview.o(i.TREEVIEW_AttachItem)
    i.TREEVIEW_Callback                      0x08012390   Section        0  treeview.o(i.TREEVIEW_Callback)
    i.TREEVIEW_CreateIndirect                0x080124e4   Section        0  treeview_createindirect.o(i.TREEVIEW_CreateIndirect)
    i.TREEVIEW_CreateUser                    0x0801251c   Section        0  treeview.o(i.TREEVIEW_CreateUser)
    i.TREEVIEW_DecSel                        0x08012594   Section        0  treeview.o(i.TREEVIEW_DecSel)
    i.TREEVIEW_GetItem                       0x0801259c   Section        0  treeview.o(i.TREEVIEW_GetItem)
    i.TREEVIEW_GetSel                        0x0801266a   Section        0  treeview.o(i.TREEVIEW_GetSel)
    i.TREEVIEW_ITEM_Collapse                 0x08012692   Section        0  treeview.o(i.TREEVIEW_ITEM_Collapse)
    i.TREEVIEW_ITEM_Create                   0x080126ac   Section        0  treeview.o(i.TREEVIEW_ITEM_Create)
    i.TREEVIEW_ITEM_Expand                   0x080126f2   Section        0  treeview.o(i.TREEVIEW_ITEM_Expand)
    i.TREEVIEW_ITEM_GetInfo                  0x0801270c   Section        0  treeview.o(i.TREEVIEW_ITEM_GetInfo)
    i.TREEVIEW_ITEM_SetImage                 0x08012752   Section        0  treeview.o(i.TREEVIEW_ITEM_SetImage)
    i.TREEVIEW_IncSel                        0x080127b6   Section        0  treeview.o(i.TREEVIEW_IncSel)
    i.TREEVIEW_InsertItem                    0x080127bc   Section        0  treeview.o(i.TREEVIEW_InsertItem)
    i.TREEVIEW_OwnerDraw                     0x080127fa   Section        0  treeview.o(i.TREEVIEW_OwnerDraw)
    i.TREEVIEW_SetAutoScrollH                0x08012848   Section        0  treeview.o(i.TREEVIEW_SetAutoScrollH)
    i.TREEVIEW_SetAutoScrollV                0x08012868   Section        0  treeview.o(i.TREEVIEW_SetAutoScrollV)
    i.TREEVIEW_SetHasLines                   0x08012888   Section        0  treeview.o(i.TREEVIEW_SetHasLines)
    i.TREEVIEW_SetSelMode                    0x080128ca   Section        0  treeview.o(i.TREEVIEW_SetSelMode)
    i.UsageFault_Handler                     0x08012916   Section        0  stm32f4xx_it.o(i.UsageFault_Handler)
    i.WIDGET_AndState                        0x0801291a   Section        0  widget.o(i.WIDGET_AndState)
    i.WIDGET_EFFECT_3D_DrawUp                0x0801294c   Section        0  widget_effect_3d.o(i.WIDGET_EFFECT_3D_DrawUp)
    i.WIDGET_GetDefaultEffect                0x0801295c   Section        0  widget.o(i.WIDGET_GetDefaultEffect)
    i.WIDGET_HandleActive                    0x08012968   Section        0  widget.o(i.WIDGET_HandleActive)
    i.WIDGET_OrState                         0x08012a86   Section        0  widget.o(i.WIDGET_OrState)
    i.WIDGET_SetDefaultEffect                0x08012ab8   Section        0  widget.o(i.WIDGET_SetDefaultEffect)
    i.WIDGET_SetEffect                       0x08012ac8   Section        0  widget_seteffect.o(i.WIDGET_SetEffect)
    i.WIDGET_SetState                        0x08012ade   Section        0  widget.o(i.WIDGET_SetState)
    i.WIDGET__DrawFocusRect                  0x08012b0a   Section        0  widget.o(i.WIDGET__DrawFocusRect)
    i.WIDGET__DrawTriangle                   0x08012b2a   Section        0  widget.o(i.WIDGET__DrawTriangle)
    i.WIDGET__DrawVLine                      0x08012b6a   Section        0  widget.o(i.WIDGET__DrawVLine)
    i.WIDGET__EFFECT_DrawDown                0x08012bb2   Section        0  widget.o(i.WIDGET__EFFECT_DrawDown)
    i.WIDGET__EFFECT_DrawDownRect            0x08012bb8   Section        0  widget.o(i.WIDGET__EFFECT_DrawDownRect)
    i.WIDGET__EFFECT_DrawUpRect              0x08012bf2   Section        0  widget.o(i.WIDGET__EFFECT_DrawUpRect)
    i.WIDGET__FillRectEx                     0x08012c22   Section        0  widget.o(i.WIDGET__FillRectEx)
    i.WIDGET__FillStringInRect               0x08012c40   Section        0  widget_fillstringinrect.o(i.WIDGET__FillStringInRect)
    i.WIDGET__GetClientRect                  0x08012d48   Section        0  widget.o(i.WIDGET__GetClientRect)
    i.WIDGET__GetInsideRect                  0x08012d7e   Section        0  widget.o(i.WIDGET__GetInsideRect)
    i.WIDGET__GetWindowSizeX                 0x08012d98   Section        0  widget.o(i.WIDGET__GetWindowSizeX)
    i.WIDGET__GetXSize                       0x08012dc2   Section        0  widget.o(i.WIDGET__GetXSize)
    i.WIDGET__GetYSize                       0x08012de2   Section        0  widget.o(i.WIDGET__GetYSize)
    i.WIDGET__Init                           0x08012e04   Section        0  widget.o(i.WIDGET__Init)
    i.WIDGET__RotateRect90                   0x08012e14   Section        0  widget.o(i.WIDGET__RotateRect90)
    i.WIDGET__SetScrollState                 0x08012e32   Section        0  widget.o(i.WIDGET__SetScrollState)
    i.WM_Activate                            0x08012e58   Section        0  wm.o(i.WM_Activate)
    i.WM_BringToBottom                       0x08012e68   Section        0  wm_bringtobottom.o(i.WM_BringToBottom)
    i.WM_BringToTop                          0x08012ef0   Section        0  wm_bringtotop.o(i.WM_BringToTop)
    i.WM_CheckScrollBounds                   0x08012f06   Section        0  wm_checkscrollpos.o(i.WM_CheckScrollBounds)
    i.WM_CheckScrollPos                      0x08012f22   Section        0  wm_checkscrollpos.o(i.WM_CheckScrollPos)
    i.WM_CreateTimer                         0x08012f54   Section        0  wm_timer.o(i.WM_CreateTimer)
    i.WM_CreateWindowAsChild                 0x08012fb0   Section        0  wm.o(i.WM_CreateWindowAsChild)
    i.WM_Deactivate                          0x08013104   Section        0  wm.o(i.WM_Deactivate)
    i.WM_DefaultProc                         0x08013124   Section        0  wm.o(i.WM_DefaultProc)
    i.WM_DeleteTimer                         0x0801316a   Section        0  wm_timer.o(i.WM_DeleteTimer)
    i.WM_DeleteWindow                        0x08013194   Section        0  wm.o(i.WM_DeleteWindow)
    i.WM_DisableMemdev                       0x08013264   Section        0  wm_memdev.o(i.WM_DisableMemdev)
    i.WM_EnableMemdev                        0x08013288   Section        0  wm_memdev.o(i.WM_EnableMemdev)
    i.WM_Exec                                0x080132ac   Section        0  wm.o(i.WM_Exec)
    i.WM_ForEachDesc                         0x08013334   Section        0  wm_foreachdesc.o(i.WM_ForEachDesc)
    i.WM_GetActiveWindow                     0x08013354   Section        0  wm.o(i.WM_GetActiveWindow)
    i.WM_GetClientRect                       0x08013360   Section        0  wm_getclientrect.o(i.WM_GetClientRect)
    i.WM_GetClientRectEx                     0x0801338c   Section        0  wm_getclientrect.o(i.WM_GetClientRectEx)
    i.WM_GetClientWindow                     0x080133a6   Section        0  wm_getclientwindow.o(i.WM_GetClientWindow)
    i.WM_GetDesktopWindow                    0x080133bc   Section        0  wm_getdesktopwindow.o(i.WM_GetDesktopWindow)
    i.WM_GetDesktopWindowEx                  0x080133d4   Section        0  wm_getdesktopwindowex.o(i.WM_GetDesktopWindowEx)
    i.WM_GetDialogItem                       0x080133e8   Section        0  wm_getdialogitem.o(i.WM_GetDialogItem)
    i.WM_GetFirstChild                       0x0801340a   Section        0  wm_getfirstchild.o(i.WM_GetFirstChild)
    i.WM_GetFlags                            0x08013424   Section        0  wm_getflags.o(i.WM_GetFlags)
    i.WM_GetFocussedWindow                   0x08013444   Section        0  wm_getfocussedwindow.o(i.WM_GetFocussedWindow)
    i.WM_GetHasTrans                         0x08013464   Section        0  wm_settrans.o(i.WM_GetHasTrans)
    i.WM_GetId                               0x08013486   Section        0  wm_getid.o(i.WM_GetId)
    i.WM_GetInsideRectEx                     0x080134a0   Section        0  wm_getinsiderect.o(i.WM_GetInsideRectEx)
    i.WM_GetInsideRectExScrollbar            0x080134b0   Section        0  wm_getinsiderectexscrollbar.o(i.WM_GetInsideRectExScrollbar)
    i.WM_GetNextSibling                      0x08013554   Section        0  wm_getnextsibling.o(i.WM_GetNextSibling)
    i.WM_GetOrgX                             0x08013570   Section        0  wm_getorg.o(i.WM_GetOrgX)
    i.WM_GetOrgY                             0x08013580   Section        0  wm_getorg.o(i.WM_GetOrgY)
    i.WM_GetParent                           0x08013590   Section        0  wm_getparent.o(i.WM_GetParent)
    i.WM_GetScrollPartner                    0x080135aa   Section        0  wm_getscrollpartner.o(i.WM_GetScrollPartner)
    i.WM_GetScrollState                      0x080135d4   Section        0  wm_getscrollstate.o(i.WM_GetScrollState)
    i.WM_GetScrollbarH                       0x080135e4   Section        0  wm_getscrollbar.o(i.WM_GetScrollbarH)
    i.WM_GetScrollbarV                       0x08013604   Section        0  wm_getscrollbar.o(i.WM_GetScrollbarV)
    i.WM_GetUserData                         0x08013624   Section        0  wm_userdata.o(i.WM_GetUserData)
    i.WM_GetWindowOrgX                       0x0801362a   Section        0  wm_getorg.o(i.WM_GetWindowOrgX)
    i.WM_GetWindowOrgY                       0x0801364a   Section        0  wm_getorg.o(i.WM_GetWindowOrgY)
    i.WM_GetWindowRectEx                     0x0801366a   Section        0  wm_getwindowrect.o(i.WM_GetWindowRectEx)
    i.WM_GetWindowSizeX                      0x08013692   Section        0  wm_getwindowsize.o(i.WM_GetWindowSizeX)
    i.WM_GetWindowSizeY                      0x080136c0   Section        0  wm_getwindowsize.o(i.WM_GetWindowSizeY)
    i.WM_HandlePID                           0x080136f0   Section        0  wm_touch.o(i.WM_HandlePID)
    i.WM_HasCaptured                         0x08013a5c   Section        0  wm_hascaptured.o(i.WM_HasCaptured)
    i.WM_HasFocus                            0x08013a7c   Section        0  wm_hasfocus.o(i.WM_HasFocus)
    i.WM_HideWindow                          0x08013a9c   Section        0  wm_hide.o(i.WM_HideWindow)
    i.WM_Init                                0x08013ad0   Section        0  wm.o(i.WM_Init)
    i.WM_InvalidateRect                      0x08013ba4   Section        0  wm.o(i.WM_InvalidateRect)
    i.WM_InvalidateWindow                    0x08013c24   Section        0  wm.o(i.WM_InvalidateWindow)
    i.WM_InvalidateWindowAndDescs            0x08013c2a   Section        0  wm_show.o(i.WM_InvalidateWindowAndDescs)
    i.WM_InvalidateWindowAndDescsEx          0x08013c5e   Section        0  wm.o(i.WM_InvalidateWindowAndDescsEx)
    i.WM_IsFocussable                        0x08013cbc   Section        0  wm_isfocussable.o(i.WM_IsFocussable)
    i.WM_IsVisible                           0x08013cda   Section        0  wm_isvisible.o(i.WM_IsVisible)
    i.WM_IsWindow                            0x08013cfe   Section        0  wm_iswindow.o(i.WM_IsWindow)
    i.WM_MOTION_Enable                       0x08013d18   Section        0  wm_motion.o(i.WM_MOTION_Enable)
    i.WM_MOTION_SetMotion                    0x08013d24   Section        0  wm_motion.o(i.WM_MOTION_SetMotion)
    i.WM_MOTION_SetMoveable                  0x08013d7c   Section        0  wm_motion.o(i.WM_MOTION_SetMoveable)
    i.WM_MOTION_SetMovement                  0x08013db4   Section        0  wm_motion.o(i.WM_MOTION_SetMovement)
    i.WM_MakeModal                           0x08013e00   Section        0  wm_makemodal.o(i.WM_MakeModal)
    i.WM_MoveTo                              0x08013e60   Section        0  wm_move.o(i.WM_MoveTo)
    i.WM_MoveWindow                          0x08013e7e   Section        0  wm_move.o(i.WM_MoveWindow)
    i.WM_NotifyParent                        0x08013e9c   Section        0  wm_notifyparent.o(i.WM_NotifyParent)
    i.WM_OnKey                               0x08013eac   Section        0  wm_onkey.o(i.WM_OnKey)
    i.WM_PID__SetPrevState                   0x08013eec   Section        0  wm_pid__getprevstate.o(i.WM_PID__SetPrevState)
    i.WM_ReleaseCapture                      0x08013f08   Section        0  wm_setcapture.o(i.WM_ReleaseCapture)
    i.WM_ResizeWindow                        0x08013f1a   Section        0  wm_resizewindow.o(i.WM_ResizeWindow)
    i.WM_RestartTimer                        0x08014010   Section        0  wm_timer.o(i.WM_RestartTimer)
    i.WM_Screen2hWin                         0x08014042   Section        0  wm_screen2win.o(i.WM_Screen2hWin)
    i.WM_SelectWindow                        0x08014060   Section        0  wm.o(i.WM_SelectWindow)
    i.WM_SendMessage                         0x080140a4   Section        0  wm.o(i.WM_SendMessage)
    i.WM_SendMessageNoPara                   0x080140c2   Section        0  wm_sendmessagenopara.o(i.WM_SendMessageNoPara)
    i.WM_SendToParent                        0x080140dc   Section        0  wm_sendtoparent.o(i.WM_SendToParent)
    i.WM_SetCallback                         0x08014102   Section        0  wm_setcallback.o(i.WM_SetCallback)
    i.WM_SetCapture                          0x08014134   Section        0  wm_setcapture.o(i.WM_SetCapture)
    i.WM_SetCaptureMove                      0x08014170   Section        0  wm_setcapturemove.o(i.WM_SetCaptureMove)
    i.WM_SetCreateFlags                      0x08014218   Section        0  wm_setcreateflags.o(i.WM_SetCreateFlags)
    i.WM_SetDefault                          0x08014228   Section        0  wm.o(i.WM_SetDefault)
    i.WM_SetFocus                            0x0801423c   Section        0  wm_setfocus.o(i.WM_SetFocus)
    i.WM_SetFocusOnNextChild                 0x080142e4   Section        0  wm_setfocusonnextchild.o(i.WM_SetFocusOnNextChild)
    i.WM_SetFocusOnPrevChild                 0x08014302   Section        0  wm_setfocusonprevchild.o(i.WM_SetFocusOnPrevChild)
    i.WM_SetHasTrans                         0x08014348   Section        0  wm_settrans.o(i.WM_SetHasTrans)
    i.WM_SetScrollState                      0x08014390   Section        0  wm_setscrollstate.o(i.WM_SetScrollState)
    i.WM_SetScrollValue                      0x080143a8   Section        0  wm_checkscrollpos.o(i.WM_SetScrollValue)
    i.WM_SetScrollbarH                       0x080143ba   Section        0  wm_setscrollbar.o(i.WM_SetScrollbarH)
    i.WM_SetScrollbarV                       0x080143d6   Section        0  wm_setscrollbar.o(i.WM_SetScrollbarV)
    i.WM_SetSize                             0x080143f2   Section        0  wm_setsize.o(i.WM_SetSize)
    i.WM_SetUserClipRect                     0x0801443c   Section        0  wm_setusercliprect.o(i.WM_SetUserClipRect)
    i.WM_SetUserData                         0x0801445c   Section        0  wm_userdata.o(i.WM_SetUserData)
    i.WM_SetWindowPos                        0x08014462   Section        0  wm_setwindowpos.o(i.WM_SetWindowPos)
    i.WM_ShowWindow                          0x08014480   Section        0  wm_show.o(i.WM_ShowWindow)
    i.WM_ValidateWindow                      0x080144b0   Section        0  wm_validatewindow.o(i.WM_ValidateWindow)
    i.WM__ActivateClipRect                   0x080144e8   Section        0  wm.o(i.WM__ActivateClipRect)
    i.WM__AddCriticalHandle                  0x08014530   Section        0  wm_criticalhandle.o(i.WM__AddCriticalHandle)
    i.WM__Client2Screen                      0x08014540   Section        0  wm.o(i.WM__Client2Screen)
    i.WM__ClipAtParentBorders                0x08014550   Section        0  wm.o(i.WM__ClipAtParentBorders)
    i.WM__DeleteAssocTimer                   0x0801459e   Section        0  wm_timer.o(i.WM__DeleteAssocTimer)
    i.WM__DeleteSecure                       0x080145f0   Section        0  wm.o(i.WM__DeleteSecure)
    i.WM__DetachWindow                       0x0801460c   Section        0  wm.o(i.WM__DetachWindow)
    i.WM__ForEachDesc                        0x08014634   Section        0  wm__foreachdesc.o(i.WM__ForEachDesc)
    i.WM__GetClientRectEx                    0x08014660   Section        0  wm_getclientrect.o(i.WM__GetClientRectEx)
    i.WM__GetClientRectWin                   0x08014680   Section        0  wm.o(i.WM__GetClientRectWin)
    i.WM__GetFirstSibling                    0x08014698   Section        0  wm__getfirstsibling.o(i.WM__GetFirstSibling)
    i.WM__GetFocussedChild                   0x080146ac   Section        0  wm__getfocussedchild.o(i.WM__GetFocussedChild)
    i.WM__GetLastSibling                     0x080146d4   Section        0  wm__getlastsibling.o(i.WM__GetLastSibling)
    i.WM__GetNextIVR                         0x080146ec   Section        0  wm.o(i.WM__GetNextIVR)
    i.WM__GetOrgX_AA                         0x0801472c   Section        0  wm__getorg_aa.o(i.WM__GetOrgX_AA)
    i.WM__GetOrgY_AA                         0x08014748   Section        0  wm__getorg_aa.o(i.WM__GetOrgY_AA)
    i.WM__GetPrevSibling                     0x08014764   Section        0  wm__getprevsibling.o(i.WM__GetPrevSibling)
    i.WM__GetTopLevelLayer                   0x08014788   Section        0  wm.o(i.WM__GetTopLevelLayer)
    i.WM__GetUserDataEx                      0x080147a0   Section        0  wm_userdata.o(i.WM__GetUserDataEx)
    i.WM__GetWindowSizeX                     0x080147da   Section        0  wm_getwindowsize.o(i.WM__GetWindowSizeX)
    i.WM__GetWindowSizeY                     0x080147e8   Section        0  wm_getwindowsize.o(i.WM__GetWindowSizeY)
    i.WM__InitIVRSearch                      0x080147f8   Section        0  wm.o(i.WM__InitIVRSearch)
    i.WM__InsertWindowIntoList               0x080148e8   Section        0  wm.o(i.WM__InsertWindowIntoList)
    i.WM__Invalidate1Abs                     0x0801498c   Section        0  wm.o(i.WM__Invalidate1Abs)
    i.WM__InvalidateDrawAndDescs             0x08014992   Section        0  wm.o(i.WM__InvalidateDrawAndDescs)
    i.WM__InvalidateParent                   0x080149d8   Section        0  wm.o(i.WM__InvalidateParent)
    i.WM__InvalidateRect                     0x08014a02   Section        0  wm.o(i.WM__InvalidateRect)
    i.WM__InvalidateRectEx                   0x08014a78   Section        0  wm.o(i.WM__InvalidateRectEx)
    i.WM__IsAncestor                         0x08014a80   Section        0  wm__isancestor.o(i.WM__IsAncestor)
    i.WM__IsAncestorOrSelf                   0x08014aa2   Section        0  wm__isancestor.o(i.WM__IsAncestorOrSelf)
    i.WM__IsChild                            0x08014aae   Section        0  wm__ischild.o(i.WM__IsChild)
    i.WM__IsEnabled                          0x08014ad0   Section        0  wm__isenabled.o(i.WM__IsEnabled)
    i.WM__IsInModalArea                      0x08014ae8   Section        0  wm_touch.o(i.WM__IsInModalArea)
    i.WM__IsInWindow                         0x08014b30   Section        0  wm_screen2win.o(i.WM__IsInWindow)
    i.WM__IsWindow                           0x08014b60   Section        0  wm.o(i.WM__IsWindow)
    i.WM__MoveTo                             0x08014b84   Section        0  wm_move.o(i.WM__MoveTo)
    i.WM__MoveWindow                         0x08014bb2   Section        0  wm_move.o(i.WM__MoveWindow)
    i.WM__Paint                              0x08014c4c   Section        0  wm.o(i.WM__Paint)
    i.WM__Paint1                             0x08014cec   Section        0  wm.o(i.WM__Paint1)
    i.WM__PaintWinAndOverlays                0x08014d7c   Section        0  wm.o(i.WM__PaintWinAndOverlays)
    WM__PaintWinAndOverlays                  0x08014d7d   Thumb Code   116  wm.o(i.WM__PaintWinAndOverlays)
    i.WM__RectIsNZ                           0x08014df4   Section        0  wm.o(i.WM__RectIsNZ)
    i.WM__ReleaseCapture                     0x08014e14   Section        0  wm_setcapture.o(i.WM__ReleaseCapture)
    WM__ReleaseCapture                       0x08014e15   Thumb Code    36  wm_setcapture.o(i.WM__ReleaseCapture)
    i.WM__RemoveCriticalHandle               0x08014e40   Section        0  wm_criticalhandle.o(i.WM__RemoveCriticalHandle)
    i.WM__RemoveFromLinList                  0x08014e6c   Section        0  wm.o(i.WM__RemoveFromLinList)
    i.WM__RemoveWindowFromList               0x08014e9c   Section        0  wm.o(i.WM__RemoveWindowFromList)
    i.WM__Screen2Client                      0x08014edc   Section        0  wm__screen2client.o(i.WM__Screen2Client)
    i.WM__SelectTopLevelLayer                0x08014ef0   Section        0  wm.o(i.WM__SelectTopLevelLayer)
    i.WM__SendMessage                        0x08014f04   Section        0  wm__sendmessage.o(i.WM__SendMessage)
    i.WM__SendMessageIfEnabled               0x08014f40   Section        0  wm__sendmessageifenabled.o(i.WM__SendMessageIfEnabled)
    i.WM__SendMessageNoPara                  0x08014f5c   Section        0  wm__sendmessagenopara.o(i.WM__SendMessageNoPara)
    i.WM__SendMsgNoData                      0x08014f82   Section        0  wm.o(i.WM__SendMsgNoData)
    i.WM__SendPIDMessage                     0x08014f90   Section        0  wm_touch.o(i.WM__SendPIDMessage)
    i.WM__SendTouchMessage                   0x08014fce   Section        0  wm_touch.o(i.WM__SendTouchMessage)
    i.WM__SetMotionCallback                  0x08015004   Section        0  wm_touch.o(i.WM__SetMotionCallback)
    i.WM__SetScrollbarH                      0x08015010   Section        0  wm_setscrollbar.o(i.WM__SetScrollbarH)
    i.WM__SetScrollbarV                      0x08015018   Section        0  wm_setscrollbar.o(i.WM__SetScrollbarV)
    i.WM__SetUserDataEx                      0x08015020   Section        0  wm_userdata.o(i.WM__SetUserDataEx)
    i.WM__UpdateChildPositions               0x0801505a   Section        0  wm__updatechildpositions.o(i.WM__UpdateChildPositions)
    i._Action                                0x08015138   Section        0  guidemo_listview.o(i._Action)
    _Action                                  0x08015139   Thumb Code   294  guidemo_listview.o(i._Action)
    i._Action                                0x08015268   Section        0  guidemo_treeview.o(i._Action)
    _Action                                  0x08015269   Thumb Code   290  guidemo_treeview.o(i._Action)
    i._Add                                   0x080153a0   Section        0  gui_fillpolygon.o(i._Add)
    _Add                                     0x080153a1   Thumb Code    46  gui_fillpolygon.o(i._Add)
    i._AddData_Heartbeat                     0x080153d8   Section        0  guidemo_graph.o(i._AddData_Heartbeat)
    _AddData_Heartbeat                       0x080153d9   Thumb Code    50  guidemo_graph.o(i._AddData_Heartbeat)
    i._AddData_Sine                          0x08015418   Section        0  guidemo_graph.o(i._AddData_Sine)
    _AddData_Sine                            0x08015419   Thumb Code   100  guidemo_graph.o(i._AddData_Sine)
    i._AddFreeMemory                         0x08015484   Section        0  gui_alloc.o(i._AddFreeMemory)
    _AddFreeMemory                           0x08015485   Thumb Code   116  gui_alloc.o(i._AddFreeMemory)
    i._AddKey                                0x080154fc   Section        0  listview.o(i._AddKey)
    _AddKey                                  0x080154fd   Thumb Code   184  listview.o(i._AddKey)
    i._AddRow                                0x080155b4   Section        0  guidemo_listview.o(i._AddRow)
    _AddRow                                  0x080155b5   Thumb Code   162  guidemo_listview.o(i._AddRow)
    i._AimDestination                        0x08015660   Section        0  wm_motion.o(i._AimDestination)
    _AimDestination                          0x08015661   Thumb Code    66  wm_motion.o(i._AimDestination)
    i._AimDestinationXY                      0x080156a4   Section        0  wm_motion.o(i._AimDestinationXY)
    _AimDestinationXY                        0x080156a5   Thumb Code   148  wm_motion.o(i._AimDestinationXY)
    i._Alloc                                 0x08015744   Section        0  gui_alloc.o(i._Alloc)
    _Alloc                                   0x08015745   Thumb Code   182  gui_alloc.o(i._Alloc)
    i._AutomotiveDemo                        0x08015800   Section        0  guidemo_automotive.o(i._AutomotiveDemo)
    _AutomotiveDemo                          0x08015801   Thumb Code   596  guidemo_automotive.o(i._AutomotiveDemo)
    i._BitmapDemo                            0x08015a6c   Section        0  guidemo_bitmap.o(i._BitmapDemo)
    _BitmapDemo                              0x08015a6d   Thumb Code   154  guidemo_bitmap.o(i._BitmapDemo)
    i._BringToTop                            0x08015b68   Section        0  wm_bringtotop.o(i._BringToTop)
    _BringToTop                              0x08015b69   Thumb Code   106  wm_bringtotop.o(i._BringToTop)
    i._CalcDrawInfo                          0x08015bd8   Section        0  treeview.o(i._CalcDrawInfo)
    _CalcDrawInfo                            0x08015bd9   Thumb Code   956  treeview.o(i._CalcDrawInfo)
    i._CalcNumBytes                          0x08015f94   Section        0  wm_userdata.o(i._CalcNumBytes)
    _CalcNumBytes                            0x08015f95   Thumb Code    22  wm_userdata.o(i._CalcNumBytes)
    i._CalcParams                            0x08015faa   Section        0  treeview.o(i._CalcParams)
    _CalcParams                              0x08015fab   Thumb Code   206  treeview.o(i._CalcParams)
    i._CalcPolyRect                          0x08016078   Section        0  guidev_measure.o(i._CalcPolyRect)
    _CalcPolyRect                            0x08016079   Thumb Code    72  guidev_measure.o(i._CalcPolyRect)
    i._CalcPositions                         0x080160c0   Section        0  scrollbar_skin.o(i._CalcPositions)
    _CalcPositions                           0x080160c1   Thumb Code   334  scrollbar_skin.o(i._CalcPositions)
    i._CalcPositions                         0x08016214   Section        0  scrollbar_skinclassic.o(i._CalcPositions)
    _CalcPositions                           0x08016215   Thumb Code   310  scrollbar_skinclassic.o(i._CalcPositions)
    i._CalcSizeOfChar                        0x08016350   Section        0  gui_uc_encodenone.o(i._CalcSizeOfChar)
    _CalcSizeOfChar                          0x08016351   Thumb Code     4  gui_uc_encodenone.o(i._CalcSizeOfChar)
    i._CallOwnerDraw                         0x08016354   Section        0  treeview.o(i._CallOwnerDraw)
    _CallOwnerDraw                           0x08016355   Thumb Code    28  treeview.o(i._CallOwnerDraw)
    i._CleanLine                             0x08016370   Section        0  guiaa_lib.o(i._CleanLine)
    _CleanLine                               0x08016371   Thumb Code    32  guiaa_lib.o(i._CleanLine)
    i._ClearHalt                             0x08016398   Section        0  guidemo.o(i._ClearHalt)
    _ClearHalt                               0x08016399   Thumb Code    16  guidemo.o(i._ClearHalt)
    i._ClipRectEx                            0x080163b4   Section        0  gui_sprite.o(i._ClipRectEx)
    _ClipRectEx                              0x080163b5   Thumb Code    22  gui_sprite.o(i._ClipRectEx)
    i._CollapseItem                          0x080163ca   Section        0  treeview.o(i._CollapseItem)
    _CollapseItem                            0x080163cb   Thumb Code    58  treeview.o(i._CollapseItem)
    i._Color2Index                           0x08016404   Section        0  gui_enablealpha.o(i._Color2Index)
    _Color2Index                             0x08016405   Thumb Code    12  gui_enablealpha.o(i._Color2Index)
    i._Color2Index                           0x08016414   Section        0  gui_setalpha.o(i._Color2Index)
    _Color2Index                             0x08016415   Thumb Code    20  gui_setalpha.o(i._Color2Index)
    i._Color2IndexBulk                       0x08016430   Section        0  guicc_m565.o(i._Color2IndexBulk)
    _Color2IndexBulk                         0x08016431   Thumb Code    62  guicc_m565.o(i._Color2IndexBulk)
    i._Color2IndexBulk                       0x0801647c   Section        0  gui_enablealpha.o(i._Color2IndexBulk)
    _Color2IndexBulk                         0x0801647d   Thumb Code   114  gui_enablealpha.o(i._Color2IndexBulk)
    i._Color2IndexBulk                       0x080164f4   Section        0  gui_setalpha.o(i._Color2IndexBulk)
    _Color2IndexBulk                         0x080164f5   Thumb Code   142  gui_setalpha.o(i._Color2IndexBulk)
    i._Color2IndexBulk                       0x0801658c   Section        0  guicc_8888.o(i._Color2IndexBulk)
    _Color2IndexBulk                         0x0801658d   Thumb Code    14  guicc_8888.o(i._Color2IndexBulk)
    i._Color2Index_0                         0x0801659c   Section        0  guicc_0.o(i._Color2Index_0)
    _Color2Index_0                           0x0801659d   Thumb Code    84  guicc_0.o(i._Color2Index_0)
    i._Color2Index_8888                      0x080165f0   Section        0  guicc_8888.o(i._Color2Index_8888)
    _Color2Index_8888                        0x080165f1   Thumb Code     2  guicc_8888.o(i._Color2Index_8888)
    i._Color2Index_M565                      0x080165f4   Section        0  guicc_m565.o(i._Color2Index_M565)
    _Color2Index_M565                        0x080165f5   Thumb Code    34  guicc_m565.o(i._Color2Index_M565)
    i._Compare                               0x08016620   Section        0  listview_setsort.o(i._Compare)
    _Compare                                 0x08016621   Thumb Code   148  listview_setsort.o(i._Compare)
    i._ConnectLines                          0x080166b4   Section        0  treeview.o(i._ConnectLines)
    _ConnectLines                            0x080166b5   Thumb Code   104  treeview.o(i._ConnectLines)
    i._Convert16                             0x0801671c   Section        0  guidev_writetoactiveopaque.o(i._Convert16)
    _Convert16                               0x0801671d   Thumb Code    62  guidev_writetoactiveopaque.o(i._Convert16)
    i._CopyItemInfo2Rect                     0x0801675a   Section        0  slider_skin.o(i._CopyItemInfo2Rect)
    _CopyItemInfo2Rect                       0x0801675b   Thumb Code    18  slider_skin.o(i._CopyItemInfo2Rect)
    i._Create                                0x0801676c   Section        0  button_skin.o(i._Create)
    _Create                                  0x0801676d   Thumb Code    48  button_skin.o(i._Create)
    i._Create                                0x0801679c   Section        0  framewin_skin.o(i._Create)
    _Create                                  0x0801679d   Thumb Code    38  framewin_skin.o(i._Create)
    i._Create                                0x080167c2   Section        0  header_skin.o(i._Create)
    _Create                                  0x080167c3   Thumb Code    38  header_skin.o(i._Create)
    i._Create                                0x080167e8   Section        0  progbar_skin.o(i._Create)
    _Create                                  0x080167e9   Thumb Code    38  progbar_skin.o(i._Create)
    i._Create                                0x08016810   Section        0  scrollbar_skin.o(i._Create)
    _Create                                  0x08016811   Thumb Code    52  scrollbar_skin.o(i._Create)
    i._Create                                0x08016848   Section        0  slider_skin.o(i._Create)
    _Create                                  0x08016849   Thumb Code    36  slider_skin.o(i._Create)
    i._Create                                0x0801686c   Section        0  button_skinclassic.o(i._Create)
    _Create                                  0x0801686d   Thumb Code     2  button_skinclassic.o(i._Create)
    i._Create                                0x08016870   Section        0  framewin_skinclassic.o(i._Create)
    _Create                                  0x08016871   Thumb Code     6  framewin_skinclassic.o(i._Create)
    i._Create                                0x0801687c   Section        0  progbar_skinclassic.o(i._Create)
    _Create                                  0x0801687d   Thumb Code     2  progbar_skinclassic.o(i._Create)
    i._Create                                0x0801687e   Section        0  slider_skinclassic.o(i._Create)
    _Create                                  0x0801687f   Thumb Code     2  slider_skinclassic.o(i._Create)
    i._Create                                0x08016880   Section        0  header_skinclassic.o(i._Create)
    _Create                                  0x08016881   Thumb Code     2  header_skinclassic.o(i._Create)
    i._Create                                0x08016884   Section        0  scrollbar_skinclassic.o(i._Create)
    _Create                                  0x08016885   Thumb Code    20  scrollbar_skinclassic.o(i._Create)
    i._CreateBuffer                          0x0801689c   Section        0  gui_sprite.o(i._CreateBuffer)
    _CreateBuffer                            0x0801689d   Thumb Code   152  gui_sprite.o(i._CreateBuffer)
    i._CreateSortObject                      0x08016934   Section        0  listview_setsort.o(i._CreateSortObject)
    _CreateSortObject                        0x08016935   Thumb Code    82  listview_setsort.o(i._CreateSortObject)
    i._CreateStaticDevice                    0x08016990   Section        0  guidev_staticdevices.o(i._CreateStaticDevice)
    _CreateStaticDevice                      0x08016991   Thumb Code   276  guidev_staticdevices.o(i._CreateStaticDevice)
    i._DecPointer                            0x08016ab0   Section        0  gui_pid.o(i._DecPointer)
    _DecPointer                              0x08016ab1   Thumb Code    16  gui_pid.o(i._DecPointer)
    i._Delay                                 0x08016ac4   Section        0  guidemo_radialmenu.o(i._Delay)
    _Delay                                   0x08016ac5   Thumb Code    36  guidemo_radialmenu.o(i._Delay)
    i._DeleteAllChildren                     0x08016ae8   Section        0  wm.o(i._DeleteAllChildren)
    _DeleteAllChildren                       0x08016ae9   Thumb Code    18  wm.o(i._DeleteAllChildren)
    i._DeleteTimer                           0x08016afa   Section        0  scrollbar.o(i._DeleteTimer)
    _DeleteTimer                             0x08016afb   Thumb Code    30  scrollbar.o(i._DeleteTimer)
    i._DemoListview                          0x08016b18   Section        0  guidemo_listview.o(i._DemoListview)
    _DemoListview                            0x08016b19   Thumb Code   116  guidemo_listview.o(i._DemoListview)
    i._DemoTreeview                          0x08016b8c   Section        0  guidemo_treeview.o(i._DemoTreeview)
    _DemoTreeview                            0x08016b8d   Thumb Code   252  guidemo_treeview.o(i._DemoTreeview)
    i._DemoVScreen                           0x08016c94   Section        0  guidemo_vscreen.o(i._DemoVScreen)
    _DemoVScreen                             0x08016c95   Thumb Code   334  guidemo_vscreen.o(i._DemoVScreen)
    i._DesktopHandle2Index                   0x08016e18   Section        0  wm.o(i._DesktopHandle2Index)
    _DesktopHandle2Index                     0x08016e19   Thumb Code    28  wm.o(i._DesktopHandle2Index)
    i._DispCursor                            0x08016e38   Section        0  guidemo_cursor.o(i._DispCursor)
    _DispCursor                              0x08016e39   Thumb Code   120  guidemo_cursor.o(i._DispCursor)
    i._DispFloatFix                          0x08016ee0   Section        0  gui_valf.o(i._DispFloatFix)
    _DispFloatFix                            0x08016ee1   Thumb Code    60  gui_valf.o(i._DispFloatFix)
    i._DispFloatMin                          0x08016f20   Section        0  gui_valf.o(i._DispFloatMin)
    _DispFloatMin                            0x08016f21   Thumb Code   280  gui_valf.o(i._DispFloatMin)
    i._DispLine                              0x08017040   Section        0  gui_charline.o(i._DispLine)
    _DispLine                                0x08017041   Thumb Code   104  gui_charline.o(i._DispLine)
    i._DoClipping                            0x080170b4   Section        0  gui_drawbitmap_8888.o(i._DoClipping)
    _DoClipping                              0x080170b5   Thumb Code   172  gui_drawbitmap_8888.o(i._DoClipping)
    i._DoColorConversion                     0x08017164   Section        0  gui_sprite.o(i._DoColorConversion)
    _DoColorConversion                       0x08017165   Thumb Code   126  gui_sprite.o(i._DoColorConversion)
    i._DoFinalMoveXY                         0x080171e8   Section        0  wm_motion.o(i._DoFinalMoveXY)
    _DoFinalMoveXY                           0x080171e9   Thumb Code    62  wm_motion.o(i._DoFinalMoveXY)
    i._Draw                                  0x08017228   Section        0  lcd_rlealpha.o(i._Draw)
    _Draw                                    0x08017229   Thumb Code   120  lcd_rlealpha.o(i._Draw)
    i._DrawAlphaCircles                      0x080172a4   Section        0  guidemo_antialiasedtext.o(i._DrawAlphaCircles)
    _DrawAlphaCircles                        0x080172a5   Thumb Code   158  guidemo_antialiasedtext.o(i._DrawAlphaCircles)
    i._DrawArrow                             0x08017350   Section        0  header_skinflex.o(i._DrawArrow)
    _DrawArrow                               0x08017351   Thumb Code    88  header_skinflex.o(i._DrawArrow)
    i._DrawBackground                        0x080173ac   Section        0  header_skinflex.o(i._DrawBackground)
    _DrawBackground                          0x080173ad   Thumb Code   124  header_skinflex.o(i._DrawBackground)
    i._DrawBackground                        0x0801742c   Section        0  progbar_skinflex.o(i._DrawBackground)
    _DrawBackground                          0x0801742d   Thumb Code   254  progbar_skinflex.o(i._DrawBackground)
    i._DrawBackgroundH                       0x08017530   Section        0  scrollbar_skinflex.o(i._DrawBackgroundH)
    _DrawBackgroundH                         0x08017531   Thumb Code    92  scrollbar_skinflex.o(i._DrawBackgroundH)
    i._DrawBackgroundV                       0x0801758c   Section        0  scrollbar_skinflex.o(i._DrawBackgroundV)
    _DrawBackgroundV                         0x0801758d   Thumb Code    92  scrollbar_skinflex.o(i._DrawBackgroundV)
    i._DrawBitLine16BPP                      0x080175e8   Section        0  guidrv_template.o(i._DrawBitLine16BPP)
    _DrawBitLine16BPP                        0x080175e9   Thumb Code    42  guidrv_template.o(i._DrawBitLine16BPP)
    i._DrawBitLine16BPP                      0x08017614   Section        0  gui_setalpha.o(i._DrawBitLine16BPP)
    _DrawBitLine16BPP                        0x08017615   Thumb Code    98  gui_setalpha.o(i._DrawBitLine16BPP)
    i._DrawBitLine1BPP                       0x0801767c   Section        0  guidrv_template.o(i._DrawBitLine1BPP)
    _DrawBitLine1BPP                         0x0801767d   Thumb Code   236  guidrv_template.o(i._DrawBitLine1BPP)
    i._DrawBitLine1BPP                       0x0801776c   Section        0  gui_setalpha.o(i._DrawBitLine1BPP)
    _DrawBitLine1BPP                         0x0801776d   Thumb Code   366  gui_setalpha.o(i._DrawBitLine1BPP)
    i._DrawBitLine1BPP                       0x080178e4   Section        0  guidev_16.o(i._DrawBitLine1BPP)
    _DrawBitLine1BPP                         0x080178e5   Thumb Code   312  guidev_16.o(i._DrawBitLine1BPP)
    i._DrawBitLine1BPP                       0x08017a24   Section        0  guidev_32.o(i._DrawBitLine1BPP)
    _DrawBitLine1BPP                         0x08017a25   Thumb Code   268  guidev_32.o(i._DrawBitLine1BPP)
    i._DrawBitLine2BPP                       0x08017b38   Section        0  guidrv_template.o(i._DrawBitLine2BPP)
    _DrawBitLine2BPP                         0x08017b39   Thumb Code   358  guidrv_template.o(i._DrawBitLine2BPP)
    i._DrawBitLine2BPP                       0x08017ca4   Section        0  gui_setalpha.o(i._DrawBitLine2BPP)
    _DrawBitLine2BPP                         0x08017ca5   Thumb Code   270  gui_setalpha.o(i._DrawBitLine2BPP)
    i._DrawBitLine2BPP                       0x08017db8   Section        0  guidev_16.o(i._DrawBitLine2BPP)
    _DrawBitLine2BPP                         0x08017db9   Thumb Code   220  guidev_16.o(i._DrawBitLine2BPP)
    i._DrawBitLine2BPP                       0x08017e98   Section        0  guidev_32.o(i._DrawBitLine2BPP)
    _DrawBitLine2BPP                         0x08017e99   Thumb Code   218  guidev_32.o(i._DrawBitLine2BPP)
    i._DrawBitLine32BPP                      0x08017f78   Section        0  guidrv_template.o(i._DrawBitLine32BPP)
    _DrawBitLine32BPP                        0x08017f79   Thumb Code    42  guidrv_template.o(i._DrawBitLine32BPP)
    i._DrawBitLine32BPP                      0x08017fa4   Section        0  gui_setalpha.o(i._DrawBitLine32BPP)
    _DrawBitLine32BPP                        0x08017fa5   Thumb Code    96  gui_setalpha.o(i._DrawBitLine32BPP)
    i._DrawBitLine32BPP_DDB                  0x08018008   Section        0  guidev_32.o(i._DrawBitLine32BPP_DDB)
    _DrawBitLine32BPP_DDB                    0x08018009   Thumb Code   136  guidev_32.o(i._DrawBitLine32BPP_DDB)
    i._DrawBitLine4BPP                       0x08018090   Section        0  guidrv_template.o(i._DrawBitLine4BPP)
    _DrawBitLine4BPP                         0x08018091   Thumb Code   358  guidrv_template.o(i._DrawBitLine4BPP)
    i._DrawBitLine4BPP                       0x080181fc   Section        0  gui_setalpha.o(i._DrawBitLine4BPP)
    _DrawBitLine4BPP                         0x080181fd   Thumb Code   270  gui_setalpha.o(i._DrawBitLine4BPP)
    i._DrawBitLine4BPP                       0x08018310   Section        0  guidev_16.o(i._DrawBitLine4BPP)
    _DrawBitLine4BPP                         0x08018311   Thumb Code   340  guidev_16.o(i._DrawBitLine4BPP)
    i._DrawBitLine4BPP                       0x08018468   Section        0  guidev_32.o(i._DrawBitLine4BPP)
    _DrawBitLine4BPP                         0x08018469   Thumb Code   338  guidev_32.o(i._DrawBitLine4BPP)
    i._DrawBitLine8BPP                       0x080185c0   Section        0  guidrv_template.o(i._DrawBitLine8BPP)
    _DrawBitLine8BPP                         0x080185c1   Thumb Code   170  guidrv_template.o(i._DrawBitLine8BPP)
    i._DrawBitLine8BPP                       0x08018670   Section        0  gui_setalpha.o(i._DrawBitLine8BPP)
    _DrawBitLine8BPP                         0x08018671   Thumb Code   150  gui_setalpha.o(i._DrawBitLine8BPP)
    i._DrawBitmap                            0x0801870c   Section        0  guidrv_template.o(i._DrawBitmap)
    _DrawBitmap                              0x0801870d   Thumb Code   250  guidrv_template.o(i._DrawBitmap)
    i._DrawBitmap                            0x08018808   Section        0  gui_drawbitmap_8888.o(i._DrawBitmap)
    _DrawBitmap                              0x08018809   Thumb Code   660  gui_drawbitmap_8888.o(i._DrawBitmap)
    i._DrawBitmap                            0x08018aa4   Section        0  gui_enablealpha.o(i._DrawBitmap)
    _DrawBitmap                              0x08018aa5   Thumb Code   242  gui_enablealpha.o(i._DrawBitmap)
    i._DrawBitmap                            0x08018ba0   Section        0  gui_setalpha.o(i._DrawBitmap)
    _DrawBitmap                              0x08018ba1   Thumb Code   202  gui_setalpha.o(i._DrawBitmap)
    i._DrawBitmap                            0x08018c6c   Section        0  gui_sprite.o(i._DrawBitmap)
    _DrawBitmap                              0x08018c6d   Thumb Code   604  gui_sprite.o(i._DrawBitmap)
    i._DrawBitmap                            0x08018ecc   Section        0  lcd_rle4.o(i._DrawBitmap)
    _DrawBitmap                              0x08018ecd   Thumb Code   514  lcd_rle4.o(i._DrawBitmap)
    i._DrawBitmap                            0x080190d8   Section        0  lcd_rle8.o(i._DrawBitmap)
    _DrawBitmap                              0x080190d9   Thumb Code   530  lcd_rle8.o(i._DrawBitmap)
    i._DrawBitmap                            0x080192f8   Section        0  guidev_16.o(i._DrawBitmap)
    _DrawBitmap                              0x080192f9   Thumb Code   678  guidev_16.o(i._DrawBitmap)
    i._DrawBitmap                            0x080195a8   Section        0  guidev_32.o(i._DrawBitmap)
    _DrawBitmap                              0x080195a9   Thumb Code   652  guidev_32.o(i._DrawBitmap)
    i._DrawBitmap                            0x0801983c   Section        0  header_skinflex.o(i._DrawBitmap)
    _DrawBitmap                              0x0801983d   Thumb Code   156  header_skinflex.o(i._DrawBitmap)
    i._DrawBitmap                            0x080198d8   Section        0  guidev_measure.o(i._DrawBitmap)
    _DrawBitmap                              0x080198d9   Thumb Code    26  guidev_measure.o(i._DrawBitmap)
    i._DrawBitmapHW                          0x080198f4   Section        0  gui_drawbitmap_8888.o(i._DrawBitmapHW)
    _DrawBitmapHW                            0x080198f5   Thumb Code   142  gui_drawbitmap_8888.o(i._DrawBitmapHW)
    i._DrawBitmapHW_8888                     0x0801998c   Section        0  gui_drawbitmap_8888.o(i._DrawBitmapHW_8888)
    _DrawBitmapHW_8888                       0x0801998d   Thumb Code    12  gui_drawbitmap_8888.o(i._DrawBitmapHW_8888)
    i._DrawBitmapLine                        0x08019998   Section        0  gui_setalpha.o(i._DrawBitmapLine)
    _DrawBitmapLine                          0x08019999   Thumb Code    76  gui_setalpha.o(i._DrawBitmapLine)
    i._DrawBitmap_8888                       0x080199ec   Section        0  gui_drawbitmap_8888.o(i._DrawBitmap_8888)
    _DrawBitmap_8888                         0x080199ed   Thumb Code    24  gui_drawbitmap_8888.o(i._DrawBitmap_8888)
    i._DrawBitmap_RLE4                       0x08019a08   Section        0  lcd_rle4.o(i._DrawBitmap_RLE4)
    _DrawBitmap_RLE4                         0x08019a09   Thumb Code    28  lcd_rle4.o(i._DrawBitmap_RLE4)
    i._DrawBitmap_RLE8                       0x08019a2c   Section        0  lcd_rle8.o(i._DrawBitmap_RLE8)
    _DrawBitmap_RLE8                         0x08019a2d   Thumb Code    38  lcd_rle8.o(i._DrawBitmap_RLE8)
    i._DrawBitmap_RLEAlpha                   0x08019a60   Section        0  lcd_rlealpha.o(i._DrawBitmap_RLEAlpha)
    _DrawBitmap_RLEAlpha                     0x08019a61   Thumb Code   406  lcd_rlealpha.o(i._DrawBitmap_RLEAlpha)
    i._DrawBk                                0x08019c0c   Section        0  guidemo.o(i._DrawBk)
    _DrawBk                                  0x08019c0d   Thumb Code    52  guidemo.o(i._DrawBk)
    i._DrawBk                                0x08019c48   Section        0  guidemo_automotive.o(i._DrawBk)
    _DrawBk                                  0x08019c49   Thumb Code   128  guidemo_automotive.o(i._DrawBk)
    i._DrawBkCircle                          0x08019cf8   Section        0  guidemo.o(i._DrawBkCircle)
    _DrawBkCircle                            0x08019cf9   Thumb Code   296  guidemo.o(i._DrawBkCircle)
    i._DrawBkSimple                          0x08019e34   Section        0  guidemo.o(i._DrawBkSimple)
    _DrawBkSimple                            0x08019e35   Thumb Code    30  guidemo.o(i._DrawBkSimple)
    i._DrawBorder                            0x08019e58   Section        0  graph.o(i._DrawBorder)
    _DrawBorder                              0x08019e59   Thumb Code   326  graph.o(i._DrawBorder)
    i._DrawCharAA2_NoTrans                   0x08019fa0   Section        0  guiaa_char2.o(i._DrawCharAA2_NoTrans)
    _DrawCharAA2_NoTrans                     0x08019fa1   Thumb Code   148  guiaa_char2.o(i._DrawCharAA2_NoTrans)
    i._DrawCharAA2_Trans                     0x0801a044   Section        0  guiaa_char2.o(i._DrawCharAA2_Trans)
    _DrawCharAA2_Trans                       0x0801a045   Thumb Code   182  guiaa_char2.o(i._DrawCharAA2_Trans)
    i._DrawCharAA4_NoTrans                   0x0801a100   Section        0  guiaa_char4.o(i._DrawCharAA4_NoTrans)
    _DrawCharAA4_NoTrans                     0x0801a101   Thumb Code   142  guiaa_char4.o(i._DrawCharAA4_NoTrans)
    i._DrawCharAA4_Trans                     0x0801a1a0   Section        0  guiaa_char4.o(i._DrawCharAA4_Trans)
    _DrawCharAA4_Trans                       0x0801a1a1   Thumb Code   106  guiaa_char4.o(i._DrawCharAA4_Trans)
    i._DrawClip                              0x0801a20c   Section        0  lcd_rlealpha.o(i._DrawClip)
    _DrawClip                                0x0801a20d   Thumb Code   120  lcd_rlealpha.o(i._DrawClip)
    i._DrawColumnScaled                      0x0801a288   Section        0  guidev_perspective.o(i._DrawColumnScaled)
    _DrawColumnScaled                        0x0801a289   Thumb Code   220  guidev_perspective.o(i._DrawColumnScaled)
    i._DrawDown                              0x0801a368   Section        0  widget_effect_simple.o(i._DrawDown)
    _DrawDown                                0x0801a369   Thumb Code    16  widget_effect_simple.o(i._DrawDown)
    i._DrawDown                              0x0801a378   Section        0  widget_effect_3d.o(i._DrawDown)
    _DrawDown                                0x0801a379   Thumb Code    16  widget_effect_3d.o(i._DrawDown)
    i._DrawDown                              0x0801a388   Section        0  widget_effect_none.o(i._DrawDown)
    _DrawDown                                0x0801a389   Thumb Code     2  widget_effect_none.o(i._DrawDown)
    i._DrawDownRect                          0x0801a38c   Section        0  widget_effect_simple.o(i._DrawDownRect)
    _DrawDownRect                            0x0801a38d   Thumb Code    50  widget_effect_simple.o(i._DrawDownRect)
    i._DrawDownRect                          0x0801a3c4   Section        0  widget_effect_3d.o(i._DrawDownRect)
    _DrawDownRect                            0x0801a3c5   Thumb Code   144  widget_effect_3d.o(i._DrawDownRect)
    i._DrawDownRect                          0x0801a458   Section        0  widget_effect_none.o(i._DrawDownRect)
    _DrawDownRect                            0x0801a459   Thumb Code     2  widget_effect_none.o(i._DrawDownRect)
    i._DrawFlat                              0x0801a45a   Section        0  widget_effect_none.o(i._DrawFlat)
    _DrawFlat                                0x0801a45b   Thumb Code     2  widget_effect_none.o(i._DrawFlat)
    i._DrawFrame                             0x0801a45c   Section        0  scrollbar_skinflex.o(i._DrawFrame)
    _DrawFrame                               0x0801a45d   Thumb Code   244  scrollbar_skinflex.o(i._DrawFrame)
    i._DrawGradient                          0x0801a550   Section        0  gui_drawgradient.o(i._DrawGradient)
    _DrawGradient                            0x0801a551   Thumb Code   378  gui_drawgradient.o(i._DrawGradient)
    i._DrawGraph                             0x0801a6cc   Section        0  gui_drawgraphex.o(i._DrawGraph)
    _DrawGraph                               0x0801a6cd   Thumb Code   486  gui_drawgraphex.o(i._DrawGraph)
    i._DrawGraspH                            0x0801a8b8   Section        0  scrollbar_skinflex.o(i._DrawGraspH)
    _DrawGraspH                              0x0801a8b9   Thumb Code    92  scrollbar_skinflex.o(i._DrawGraspH)
    i._DrawGraspV                            0x0801a914   Section        0  scrollbar_skinflex.o(i._DrawGraspV)
    _DrawGraspV                              0x0801a915   Thumb Code    92  scrollbar_skinflex.o(i._DrawGraspV)
    i._DrawGrid                              0x0801a970   Section        0  graph.o(i._DrawGrid)
    _DrawGrid                                0x0801a971   Thumb Code   280  graph.o(i._DrawGrid)
    i._DrawHLine                             0x0801aa88   Section        0  guidrv_template.o(i._DrawHLine)
    _DrawHLine                               0x0801aa89   Thumb Code    26  guidrv_template.o(i._DrawHLine)
    i._DrawHLine                             0x0801aaa4   Section        0  guiaa_lib.o(i._DrawHLine)
    _DrawHLine                               0x0801aaa5   Thumb Code   208  guiaa_lib.o(i._DrawHLine)
    i._DrawHLine                             0x0801ab7c   Section        0  gui_enablealpha.o(i._DrawHLine)
    _DrawHLine                               0x0801ab7d   Thumb Code    22  gui_enablealpha.o(i._DrawHLine)
    i._DrawHLine                             0x0801ab94   Section        0  gui_setalpha.o(i._DrawHLine)
    _DrawHLine                               0x0801ab95   Thumb Code   114  gui_setalpha.o(i._DrawHLine)
