:020000040800F2
:10000000D0F70020E10200086DEC0008BDB7000841
:100010006BEC00086B100008713C01080000000048
:10002000000000000000000000000000F1FD0008DA
:10003000C51300080000000021F4000879FE000844
:10004000FB020008FB020008FB020008FB0200089C
:10005000FB020008FB020008FB020008FB0200088C
:10006000FB020008FB020008FB020008FB0200087C
:10007000FB020008FB020008FB020008FB0200086C
:10008000FB020008FB020008FB020008FB0200085C
:10009000FB020008FB020008FB020008FB0200084C
:1000A000FB020008FB020008FB020008FB0200083C
:1000B000FB020008ED24010825250108FB020008C9
:1000C000FB020008FB020008FB020008FB0200081C
:1000D000FB020008053C0108FB020008FB020008C7
:1000E000FB020008FB020008FB020008FB020008FC
:1000F000FB020008FB020008FB020008FB020008EC
:10010000FB020008FB020008FB020008FB020008DB
:10011000FB020008FB020008FB020008FB020008CB
:10012000FB020008FB020008FB020008FB020008BB
:10013000FB020008FB020008FB020008FB020008AB
:10014000FB020008FB020008FB020008FB0200089B
:10015000FB020008FB020008FB020008FB0200088B
:10016000FB020008FB020008FB020008FB0200087B
:10017000FB020008FB020008FB0200080000000070
:10018000FB020008FB020008FB020008FB0200085B
:10019000FB020008FB020008FB020008FB0200084B
:1001A000FB020008FB020008FB02000800F002F856
:1001B00000F06CF80AA090E8000C82448344AAF195
:1001C0000107DA4501D100F061F8AFF2090EBAE893
:1001D0000F0013F0010F18BFFB1A43F0010318477B
:1001E0008C2D0C00AC2D0C000A444FF0000C10F8C4
:1001F000013B13F0070408BF10F8014B1D1108BFA5
:1002000010F8015B641E05D010F8016B641E01F844
:10021000016BF9D113F0080F1EBF10F8014BAD1C94
:100220000C1B09D16D1E58BF01F801CBFAD505E0B2
:1002300014F8016B01F8016B6D1EF9D59142D6D30C
:10024000704700000023002400250026103A28BF34
:1002500078C1FBD8520728BF30C148BF0B60704738
:10026000692900F0DD80642900F0DA80782900F047
:100270001381732900F0B783002070471FB527F062
:10028000D0FE00F04AF91FBD10B510BD00F00CFC07
:100290001146FFF7F3FF26F075FF00F02AFC03B4C8
:1002A000FFF7F2FF03BC26F02FFF00000B49D1F847
:1002B00000C04A685CF8043B1068184442F8040B1C
:1002C0008C4528BFA1F1DC0C8A4228BFA1F1DC02D9
:1002D000C1F800C04A6020F00040704764EB002085
:1002E0000948804709480047FEE7FEE7FEE7FEE7CA
:1002F000FEE7FEE7FEE7FEE7FEE7FEE70448054906
:10030000054A064B704700007DFE0008AD0100085D
:10031000D0EB0020D0F70020D0ED0020D0ED002061
:10032000704700000FB4044910B503AA029800F00A
:100330005FFB10BC5DF814FB200000200FB41CB55F
:10034000074B06AA7B4469460090059800F021FB04
:100350000020694600F030FB1CBC5DF814FB000077
:10036000710600002DE9F0410E460446002020628F
:100370002046E168884730B3252805D0D4E901211B
:100380009047206A401CF2E7E16820460027884732
:10039000050018D0A5F14100192802D820354FF4E6
:1003A00000673246294620462760FFF759FF40B1D3
:1003B000012804D0F61D26F007060836D8E7361DBA
:1003C000D6E72846DAE7206ABDE8F08170B50C462A
:1003D0000546012A05D02878800600D5EA69002361
:1003E00002E0012305E05B1C934202D2E05C00289E
:1003F000F9D1A869E618C01AA861286A18442862C9
:100400002846AFF3008004E0D5E9012114F8010B80
:100410009047B442F8D32846AFF3008070BD000087
:100420002DE9F0410646002410687529314616A5CD
:1004300010D0AFF30080002802DA404213A507E095
:1004400031688A0701D512A502E0490704D511A534
:10045000012401E0AFF3008000210A2206F1240705
:1004600009E0B0FBF2FCB0FBF2F302FB1C00303001
:1004700078541846491C0028F3D123462A463046B2
:10048000BDE8F04100F027BA000000002D00000098
:100490002B0000002000000070B504460D462146E8
:1004A0001068AFF300802188090502D50F4A7A440D
:1004B00002E00E4A7A440E32002104F1240305E0E2
:1004C00000F00F060009965D5E54491C0028F7D124
:1004D00020780023000704D5702D02D009B1022333
:1004E00011322046BDE8704000F0F5B9271E0C001F
:1004F0000B4910B5A1F17C020A4CC2E93712372131
:1005000006E000EB104342F82130074B00FB0340AC
:100510000B1EA1F10101F4DC10BD0120E8E7000091
:1005200004EB0020E119D666CD0D010040EA01037D
:1005300010B59B070FD1042A0DD310C808C9121F8C
:100540009C42F8D020BA19BA884201D9012010BDC6
:100550004FF0FF3010BD1AB1D30703D0521C07E093
:10056000002010BD10F8013B11F8014B1B1B07D1F7
:1005700010F8013B11F8014B1B1B01D1921EF1D168
:10058000184610BD40EA0103024630B59B0710D162
:100590004FF0013400E008C208C91D1B9D4315EA55
:1005A000C41FF8D013F0FF0102F8011B0DD01B0A85
:1005B000F8E711F8013B002B02F8013B05D011F8D8
:1005C000013B002B02F8013BF3D130BD10B5431CB9
:1005D00002E010F8011B71B18107FAD14FF001322E
:1005E00002C88C1A8C4314EAC211F9D0C01A0A0648
:1005F00003D0C01E10BDC01A10BD0A0401D0801E59
:1006000010BD0902FCD0401E10BD421E12F8013F71
:10061000002BFBD111F8013B002B02F8013BF9D173
:100620007047032A40F2308010F0030C00F0158070
:1006300011F8013BBCF1020F624498BF11F801CBE5
:1006400000F8013B38BF11F8013BA2F1040298BF4A
:1006500000F801CB38BF00F8013B11F0030300F0B4
:100660006780083AC0F0088051F8043B083A51F816
:1006700004CBA0E80810F5E7121D5CBF51F8043B5D
:1006800040F8043BAFF30080D20724BF11F8013BD0
:1006900011F801CB48BF11F8012B24BF00F8013B32
:1006A00000F801CB48BF00F8012B7047431A28BF60
:1006B0009A427FF6B6AF032A1044114440F22680D6
:1006C00010F0030F1EBF11F8013D521E00F8013D4E
:1006D00010F0030F7FF4F6AF11F0030300F0AD81CB
:1006E000083AC0F00B8051F8043D083A51F804CDA7
:1006F00040F8043D40F804CDFFF7F3BF121D5CBF86
:1007000051F8043D40F8043DAFF30080D20724BF08
:1007100011F8013D11F801CD48BF11F8012C24BF9B
:1007200000F8013D00F801CD48BF00F8012C7047EA
:1007300010B5203AC0F00B80B1E81850203AA0E87C
:100740001850B1E81850A0E81850BFF4F5AF5FEAB0
:10075000027C24BFB1E81850A0E8185044BF18C963
:1007600018C0BDE810405FEA827C24BF51F8043B0A
:1007700040F8043B08BF7047D20728BF31F8023B5E
:1007800048BF11F8012B28BF20F8023B48BF00F8F2
:10079000012B704702F0FF0343EA032242EA0242C0
:1007A00000F002B84FF000020429C0F0128010F0EF
:1007B000030C00F01B80CCF1040CBCF1020F18BF3D
:1007C00000F8012BA8BF20F8022BA1EB0C0100F0D0
:1007D0000DB85FEAC17C24BF00F8012B00F8012BA3
:1007E00048BF00F8012B70474FF0000200B51346D8
:1007F00094469646203922BFA0E80C50A0E80C5041
:10080000B1F12001BFF4F7AF090728BFA0E80C50F1
:1008100048BF0CC05DF804EB890028BF40F8042BEA
:1008200008BF704748BF20F8022B11F0804F18BF57
:1008300000F8012B704700004FF0013C50F8042BEA
:1008400051F8043B9A4221D1A2EB0C03934313EAE3
:10085000CC1317D150F8042B51F8043B9A4215D110
:10086000A2EB0C03934313EACC130BD150F8042BE7
:1008700051F8043B9A4209D1A2EB0C03934313EACB
:10088000CC13DBD04FF00000704700BFD01A01BA84
:10089000B1FA81F101F0180122FA01F0CB40C1F167
:1008A0002001DBB2C0B2C01A2CFA01F3D11A914375
:1008B00011EAC311E6D1704770477047704770471F
:1008C00010B500F0E5F8006810BD10B5044600F062
:1008D000DFF8046010BD2DE9F0470D4699469246B9
:1008E000044600F124080168880604D5E06921F077
:1008F0001001216000E00120A84201DD471B00E05B
:100900000027A1697A1902EB0900081AA061207872
:10091000C00602D42046AFF30080002608E0D4E9E8
:1009200001211AF806009047206A401C761C2062BC
:100930004E45F4DB2078C0060AD52046AFF3008090
:1009400006E0D4E9012130209047206A401C206253
:10095000381EA7F10107F4DC07E0D4E9012118F8FB
:1009600005009047206A401C2062281EA5F1010561
:10097000F3DC2046AFF300802078000602D5022089
:10098000BDE8F0870120FBE701694A1C0261087895
:10099000704700B58FB0CDE90131002105910549BF
:1009A0007944CDE9031011466846FFF7DBFC0FB030
:1009B00000BD0000E5FFFFFF0A6802F8010B0A60B6
:1009C000704710B5436913B1AFF3008001E0FFF742
:1009D000FDFC012010BD127800F124010A700022F4
:1009E0004A700122EDE711684FF0FF32E9E700009D
:1009F000074B70B50D467B44FFF7CBFF04462846F6
:100A000000F04AF810B14FF0FF3070BD204670BDC5
:100A100077670200431A28BF9A427FF689AE1044D6
:100A200010F0030F11441EBF11F8013D521E00F8D3
:100A3000013D10F0030F7FF4F6AF103AC0F00A80CA
:100A400010B531E91850103A20E91850BFF4F9AF49
:100A5000BDE81040530724BF31E9081020E9081011
:100A600044BF51F8043D40F8043D12F0030F08BFA5
:100A70007047D20728BF31F8023D48BF11F8012C5A
:100A800028BF20F8023D48BF00F8012C7047000045
:100A9000004870476CEB0020007B00F0800070473E
:100AA000004870476CEB00207546FFF7F9FFAE4633
:100AB00005006946534620F00700854618B020B56A
:100AC000FFF71CFCBDE820404FF000064FF0000788
:100AD0004FF000084FF0000B21F00701AC46ACE8E6
:100AE000C009ACE8C009ACE8C009ACE8C0098D4653
:100AF000704710B50446AFF300802046BDE81040B3
:100B0000FFF7CDBB0BF07EB82DE9F0410D46014655
:100B1000002004464E1908E00702301B401E80B238
:100B200000F007F8641C3844E4B2AC42F4D3BDE8EA
:100B3000F08110B504460BF00DF9200AA02101EB5D
:100B40004000C0B20BF0D6F80BF046F9E0B20BF063
:100B5000D1F80BF041F90BF0FDF8A1200BF0CAF829
:100B60000BF03AF900200BF091F804460BF012F963
:100B7000204610BD2DE9F04116460D4607460024DB
:100B800009E0E00025FA00F0C1B2381980B200F0A7
:100B900006F8641CE4B2B442F3D3BDE8F08170B54A
:100BA0000D4604460BF0D6F8200AA02101EB4000C8
:100BB000C0B20BF09FF80BF00FF9E0B20BF09AF80F
:100BC0000BF00AF928460BF095F80BF005F90BF03D
:100BD000E1F8BDE870400A2026F0A2BA002800DC47
:100BE0004042704738B5456804460146284613F030
:100BF0005FF800282BD02068304A11280DD006DC81
:100C00000B2825D00E2833D00F2852D112E02828E7
:100C100049D0B0F5107F4CD108E09268002A16D078
:100C20002146284601B0BDE83040104721462846FD
:100C30005268F7E7284604F0FBFA0090406E04681B
:100C4000684604F05FFB002C01D02846A04738BD61
:100C5000284604F0EDFA0090683004F035FA009868
:100C600003216C3004F03EFA684604F04BFB20E0B0
:100C7000E168486809680D2902D0202913D105E0F0
:100C8000002810DD284620F010FD06E0002804DDD5
:100C90002846BDE8384020F008BD2846BDE8384069
:100CA000022120F018BDE06818B90021284600F0A4
:100CB00099F92046BDE8384013F0DCBAFC08002062
:100CC000F0B5044685B08069B4F90850668A0027FB
:100CD000CDE90265CDE900170490B4F90C00B4F930
:100CE0001060C118B4F90A00B4F90E50104433462C
:100CF0002A4600F007F80546616800F089F905B05A
:100D00002846F0BD2DE9F04F85B01F46DDE911B44E
:100D1000DDE90E5690468946824605F04BFF16489F
:100D20004C34CDE90204CDE900563B4642464946E3
:100D3000504613F0E7F9040018D004F079FA1022B5
:100D40005946049013F008F9049830220B493430C6
:100D5000FFF7EEFC094D04990C3D2868486604A88D
:100D600004F0D0FA286841682046884707F0C4FD9F
:100D700005B02046BDE8F08FE50B0008080900200B
:100D8000F0B5044680688B4989B051F820506068FE
:100D900000287DD0052804D006287AD0122879D1E1
:100DA000AEE0E86900284FD095E80E008DE80F000E
:100DB00004F110010FC908F01FFA002655F82600AB
:100DC00007F0FDF8A169E8690A1A21690144606920
:100DD000304405F053FBA169E8690A1A216901440E
:100DE000E069801B05F04AFBE169E8690A1A61695C
:100DF00001442069304405F049FCE169E8690A1AB8
:100E000061690144A069801B05F040FC761C022E3C
:100E1000D4DBA86807F0D3F8E069E9696669431A8A
:100E2000206942183144801C521E05F0B9FCE1696A
:100E3000E869A2690B1A61690144101A401C921EEC
:100E400005F0AEFCEE6913E05FF0000655F82600F1
:100E500007F0B5F8E069831BA069821B60698119FE
:100E60002069304405F080FB761C022EEEDB022662
:100E7000D5E90301CDE900016169E0690844431047
:100E8000A069891C821B2069304405F091FA02E0B8
:100E900089E012E08AE0D5E90501CDE90001E369C6
:100EA00060690121184401EB6001A0699B1E821B4F
:100EB0002069304405F07CFA78E0206804F0B8F945
:100EC0000490206814F0F4FE40B1A06808B100203E
:100ED00008E00498006F28B1012003E00498406FF7
:100EE00000B10220049901EB8000C56E04A804F053
:100EF00009FA00231A462846216804F0C5FE55E089
:100F0000206804F095F90490866EEEB3B0F95C7039
:100F1000A168D1B3032942D05FF0000100EB810149
:100F2000406D0C6C07F07AF8204607F048F805A8E9
:100F300005F062FDBDF81410A88B0144ADF8141043
:100F4000BDF81810081AADF81800BDF81600801C7E
:100F5000ADF81600BDF81A00801EADF81A0004980E
:100F6000B0F96020B0F95E1005A806F0E7FC04A80F
:100F700004F0C8F9022007F0DBF8304604F058F915
:100F80003A4605A9079001E00BE006E004F0FEFFF9
:100F90000DF11C0004F0B6F908E00121BEE70221C2
:100FA000BCE704A8F6E7206814F0B6FA09B0002000
:100FB000F0BD0000A8100C08044A03491160044960
:100FC0004A6A48621046704738090020FC08002031
:100FD0000809002000294FF0100101D012F0FCBEDA
:100FE00012F047BE4FF480720029114601D012F072
:100FF000F3BE12F03EBE00000348024941600349BF
:1010000081607047AF300208FC0800209D2A02086A
:101010002DE9FF410E4605004FF0010421D005F0F7
:10102000C9FD284604F004F90190876E01A80097D5
:1010300004F068F93146684608F08AFC78B10098F7
:101040000024B84208D0284604F0F2F80190009934
:10105000816601A804F056F9284613F0A5FE07F0B2
:101060004BFC04B02046BDE8F081FEE77CB5214C86
:101070000546216831F8220F4A8D104408804888BF
:10108000CA8D10444880284605F090FC2168498CA0
:10109000ADF800104618284608F0AAFA3044401E61
:1010A000ADF8040005F0D2FC2168898CADF802107F
:1010B0000844401EADF80600684614F085FC04E0C4
:1010C000284601F0AFF914F0F9FB0028F8D10A2DF9
:1010D00004D0BDF804002168401C4884206830F822
:1010E000221F428D891A01804188C28D891A418050
:1010F0007CBD0000D007002070B50E4C0025C4F860
:1011000098520D48016821F0C0010160016841F06A
:10111000400101600948C0F88C52022004F5267491
:1011200026F00CF801202060022026F007F8256048
:1011300070BD000000804342002002400000444295
:10114000154810B5016886B041F080010160016862
:1011500001F080010591016841F48071016000682F
:10116000012400F4807005904020CDE900040320A4
:10117000CDE902406946094808F044FD0820009086
:101180006946074808F03EFD0648C0F88C4206480C
:10119000C0F8984206B010BD30380240001C024032
:1011A00000200240000044420080434270B50E4CD3
:1011B0000026C4F898620D48016821F0C001016062
:1011C000016841F04001016009480125C0F88C52D6
:1011D000022004F5267425F0B1FF2560022025F0D9
:1011E000ADFF266070BD0000008043420020024039
:1011F000000044422DE9F047824619480024016866
:1012000021F0C0010160016801601E2025F096FFF9
:101210000025144EDFF850902F464FF00108C6F815
:101220009872022025F08AFFC6F898826006040EA4
:10123000D9F80C0208B1641CE4B2022025F07EFF4C
:101240006D1CEDB2082DEAD3BAF1000F04D0FFF700
:1012500053FF2046BDE8F087FFF7A8FFF9E700003D
:101260000020024000804342000044422DE9F04744
:1012700005461648016821F0C0010160016841F08F
:1012800040010160124E0027C6F89872022025F036
:1012900055FFDFF8408000244FF00109E909C8F844
:1012A0008C126806050E022025F048FFC6F89892B9
:1012B000022025F043FFC6F89872022025F03EFF79
:1012C000641CE4B2082CE9D3BDE8F087002002409A
:1012D000008043420000444270B50F48016821F08D
:1012E000C0010160016841F0400101600B4E012026
:1012F000C6F88C020A4DC5F898021E2005F5267521
:1013000006F5237625F01AFF00243460022025F02C
:1013100015FF2C6070BD0000002002400000444218
:101320000080434270B50F48016821F0C0010160A0
:10133000016841F0400101600B4E0020C6F89802A0
:101340000A4DC5F88C021E2005F5237506F5267694
:1013500025F0F4FE01243460022025F0EFFE2C601D
:1013600070BD000000200240008043420000444263
:1013700070B511480024016821F0C00101600168C6
:1013800001600E4D0120C5F88C020D4EC6F8980282
:1013900007E0641CE4B2FA2C03D9FFF7C3FF012075
:1013A00070BD022025F0CAFED5F80C020028F0D14D
:1013B000C6F8980270BD00000020024000004442C0
:1013C00000804342704700002DE9FC5F1546074648
:1013D000DFF8908028440190D8F800201C460E4683
:1013E000526E2144894652689047D8F80020781BF5
:1013F0004946526E824652689047711938190090DA
:10140000D8F800208946526E52689047D8F80020DC
:10141000711B8B46526E009852689047002C1ED06C
:10142000D8F80010361B4546496E01984A68314687
:1014300090472A6831465046526E52689047286855
:101440003C1B4946406E4268204690472A685946F0
:101450002046526E526802B0BDE8F05F1047BDE80A
:10146000FC9F0000D007002070B5B3F5804F05D079
:101470006FF0704140F82210002070BD50F822300B
:10148000084C2340D1E9004544EA05148D688E8953
:101490002D0245EA064589692C430C431C4340F85C
:1014A0002240E9E70000F0CFF0B50C6850F8245076
:1014B000194A1540D1E90123D1E903671A433E4394
:1014C00032434E6932438E693243CE6932430E6AEB
:1014D00032434E6A32438E6A3243CE6A3243CE6B17
:1014E00032430E6B32434E6B32432A43082B01D1F9
:1014F00042F0400240F824204A6BB2F5801F08D128
:101500000A6832B14FF480720A61044902681143DB
:1015100001600020F0BD00008000E0FF000110002D
:10152000F0B500EB820253688E8903F04044D1E9A4
:10153000003543EA05138D682D0245EA06452B4325
:101540000E8A0D4D05EB065633430E7D6F0107EBFA
:10155000066633438E693343234353600268D202E5
:1015600007D54268098A22F4700205EB0151114344
:1015700041600020F0BD00000000F0FF30B5D1E96F
:1015800001231A43D1E9033423431A434B690D68FD
:101590001A438B691A43D1E90734012D496A05685A
:1015A0006FF30E0505D01A4322430A432A43026013
:1015B00008E0234329430B43416803606FF30E01A6
:1015C0000A434260002030BD426942EA4101416164
:1015D00000207047F8B514460546D1E900021043D3
:1015E0008A686FF01F03C96803EB421242EA412187
:1015F00008430090286108F0FDFB064609E0601CE6
:1016000007D024B108F0F6FB801BA04201D90320CB
:10161000F8BDA8698006F2D40020F8BDF0B56FF0DF
:101620000F05D1E9003405EB04145B1E2E012343A2
:101630008C682F0306EB04244FEA054C23430D8AE4
:101640008E8ACC68097E4FF07F4E07EB05450CEB88
:1016500006560EEB0161012A0CD082683F1107EBA0
:10166000043423432B43334302F070420B431343B0
:1016700083600FE0C2682B430B4302F07042816825
:10168000134301F070422103A1F58051314311430E
:10169000C36081600020F0BD2DE9F047044640683A
:1016A0008EB00027804603F0C3FD0090B0F87CA008
:1016B000D0F86890D0F88060D0F88850C06D00B144
:1016C0000768684603F01EFE05E069682046884703
:1016D000002843D12D68002DF7D12068172853D05A
:1016E0000CDC0F283DD004DC0B2877D00D2825D149
:1016F0008BE0112810D0142820D13BE0262846D0BA
:1017000004DC1E2851D0202818D18AE02A2816D0BF
:10171000B0F5107F12D128E04046E56803F088FD5F
:101720000290697A39B9297A012904D130F87C1FED
:1017300041F48071018002A803F0E4FD75E04046A9
:1017400003F076FD0090E16811B1C0F8841002E06A
:10175000D0F88400E060684603F0D4FD0EB0BDE828
:10176000F087D7B34046B8475FE02146404621F0B6
:1017700007FAF3E705A9404600F0A1FBE0680699E7
:10178000016007994160E9E7C4F80C90E6E7E0687A
:101790000228E3D1CDF83080E0680D9027200A9030
:1017A0000AA9A06814F094FCD8E7E068012804D0E6
:1017B0000021404600F0C8FAD0E7304613F06FFB36
:1017C00068B1304613F022FE304613F019FA98B192
:1017D0000121304612F000FB0EE026E02FE04846E3
:1017E00013F068FE0646404603F022FD0090C0F864
:1017F0008060684603F086FD0121404600F0A4FAAF
:10180000002EABD10020E060A8E75FEA0A700CD49C
:10181000E068C06848B1007A38B1404613F0F6FD80
:1018200003E0214640461FF073FF2146404612F078
:101830003FFA002892D0204612F01CFD8EE7404669
:1018400003F0F6FC0090703003F03EFC684673E74E
:10185000F0B587B0B0F908400DF10C0C0C9E87690B
:1018600045688CE8F000448A0025CDE90015029413
:10187000B0F90C10B0F91050B0F90E40B0F90A00F0
:10188000194410442B46224600F002F807B0F0BD80
:101890002DE9F04F8BB09846DDE9155691468A4602
:1018A0008346149F1A9C05F085F93348603445F44B
:1018B0008055CDE90204CDE9007543464A465146BC
:1018C000584612F01FFC04004FD003F0B1FC302248
:1018D0000490179912F040FB0498282227493430CD
:1018E000FEF726FF04981999244F4166A0F87C6002
:1018F0000026C0F88060C666083FC0F88860796836
:10190000C16504A803F0FEFC05A9204600F0D7FA43
:101910001B4841F2827103960094CDE90110BDF994
:101920001E00BDF91A10BDF91C20431ABDF918009C
:101930005B1C121A521C12F0E5FB064678684168DF
:1019400020468847204603F073FC0490866604A86E
:1019500003F0D8FC42F20400054202D1204612F006
:1019600039FD2046189900F053FA06F0C5FF0BB078
:101970002046BDE8F08F000099160008CC09002031
:10198000772000082DE9F041044694B0006800F08B
:10199000B7F908B1D94D01E0D84D2C35606815284C
:1019A0001ED00CDC0B281FD004DC00287ED00528BC
:1019B0007DD12FE10E287BD01228F9D141E11628E4
:1019C00006D0172808D0182808D01C28F0D109E024
:1019D000E86914B0BDE8F081286AFAE7686AF8E7B8
:1019E000A86AF6E76869F4E720680B901C200C9061
:1019F000206803F01DFC0390016D0BA88847064684
:101A000003A803F07FFC022E0FDB95E807008DE8AA
:101A10000700D4E904023346A16907F0B3FB20694B
:101A20008719A069A0EB06082CE0286806F0C7FA21
:101A30002169E8690A18521E606904F01FFDA26955
:101A4000E869111A491C606904F018FDD4E904071B
:101A50007F1C394604F062FD3946A06904F05EFD42
:101A6000686806F0ACFA20693946401C04F056FD5F
:101A7000A0693946401E04F051FDA0692769A0F114
:101A80000208BF1C286806F09AFA42463946606987
:101A900004F0F4FC686806F092FA60694246394640
:101AA000401C04F0EBFC686A022802E015E1B0E09B
:101AB00000E10BDDA86806F082FA61696A6A881C99
:101AC0008B180146424638465B1E27E0296AB14220
:101AD00026DD6069022E074600F1020801DB37446B
:101AE00001E007F10207206901DB304401E000F169
:101AF000020022693B460A444146A2F1010204F079
:101B00004FFE022E02DBA069821B01E0A269921E39
:101B1000A069E9693B46401A4146401C04F040FE7A
:101B2000022E02DB6069064401E06669B61CE769C3
:101B300028687F1E06F043FA3A463146206904F0D1
:101B4000A5FD3A463146A06904F0A0FDE769686842
:101B5000BF1E06F034FA20693A463146401C04F0B4
:101B600095FDA0693A463146401E04F08FFDE869B4
:101B7000022802DC286A022823DDA86A022802DD86
:101B8000E1690F1A01E0E769BF1EA86806F017FABD
:101B9000E969022909DD20693B46421800F1020C7F
:101BA00031466046521E04F0FBFD286A022808DD1B
:101BB000A269E8693B46101A3146401C921E04F0A7
:101BC000EFFD286806F0FBF9D4E90620216904F04E
:101BD00055FC686806F0F3F9D4E906202169401E37
:101BE000491C521E04F04AFCA86A022811DDA169B2
:101BF0002669E469A1F10208271AA41EB61C7F1CFD
:101C0000A86806F0DCF9234642463946304604F01F
:101C1000C7FD71E0208A00B2ADF81400A18A09B2B4
:101C2000ADF81610228B12B2ADF81820A38B1BB2A0
:101C3000ADF81A302C69ED68CDE9005404F0B8FB1A
:101C40005AE0208A298B0844ADF81400A08AADF828
:101C50001600208B298B401AADF81800A08BADF828
:101C60001A00206803F0E4FA0390006FF0B102203C
:101C700006F05EFA039890F87C10C1F3C00100EB07
:101C80008100006C06F09BF90398406B06F0C6F9E2
:101C90000398006F03F0CCFA03990990B1F95A2028
:101CA00005A904F073F909A803F02CFB03A803F0BD
:101CB00029FB21E0208AADF81400A08AADF81600B7
:101CC000208BADF81800A08BADF81A00A86806F0BC
:101CD00076F905A804F090FD0EE0206803F0A8FA5C
:101CE000039030F85A1F41F00C01018003A803F063
:101CF00009FB206813F010FC00206AE6080A0020A7
:101D000038B505004FF000040FD004F053FF28460B
:101D100003F08EFA009090F87C00000700D50124B3
:101D2000684603F0EFFA06F0E7FD204638BD0000F4
:101D3000022905D2034A52F821102C22FEF7F8BCE2
:101D400070470000B8100C0870B50D46040009D0AB
:101D500004F030FF2946204622F070F8BDE87040BC
:101D600006F0CABD70BD0000022803D2024A02EB91
:101D70008000416070470000CC09002001490860E4
:101D800070470000CC090020074A0649054B116046
:101D9000064A083BD16958601B68C2E9063008460C
:101DA00070470000FC090020C8090020CC09002071
:101DB000024AB2F92610D08408467047CC090020A8
:101DC00070B50D460146022D1ED2104C2C2254F83F
:101DD0002500FEF7ADFC54F825100220CA69022A3E
:101DE00000DAC86154F825100A6A022A00DA08628B
:101DF00054F825104A6A022A00DA486254F825107D
:101E00008A6A022A00DA886270BD0000B8100C08E5
:101E10007CB50D4604001DD004F0CCFE204603F036
:101E200007FA0090006F0190684603F06BFA2946AC
:101E300001A807F08DFD58B1204603F0F9F9009094
:101E400001990167684603F05DFA204612F0ACFF85
:101E500006F052FD7CBD38B50C46050013D004F0E9
:101E6000A9FE284603F0E4F90090B0F95A10A14207
:101E700004D0A0F85A40284612F096FF684603F0B6
:101E800041FA06F039FD38BD38B50C46050015D0CD
:101E900004F090FE284603F0CBF90022CDF80000B4
:101EA00000EB8201521C0C64022AF9D3684603F04D
:101EB00029FA284612F078FF06F01EFD38BD2DE9FC
:101EC000F34F85B000270C46B846059803F0B0F9EB
:101ED0000090C06D0121856805982A689047824668
:101EE0002A6803210598904704902A6802210598E2
:101EF000904703902A68002105989047064600986D
:101F000013F053FD8346009813F056FD8146009868
:101F100090F83210890601D5B0F9588000F036F8F3
:101F200005460098C06E10B112F086FC0746258069
:101F30006780A4F804A0049AABEB020006EB080249
:101F4000401E2A4420813A44E280039BA9EB03020D
:101F5000521E6281A4F80CA020827019E681401EF6
:101F60006082684603F0CEF9B4F90C000190B4F930
:101F70001000029002AA01A9059800F039F8019812
:101F8000A0810298208207B0BDE8F08F10B501460D
:101F9000002091F83220920607D5B1F954000028AC
:101FA00003D1486B04F0C3FD801C10BD70B58AB02E
:101FB0000C46054603F03CF90990C06D866809A8F7
:101FC00003F0A0F9009534B1012C06D0022C0BD0FF
:101FD000032C04D10AE0182000E01620019071685B
:101FE000684688470AB070BD1520F7E71720F5E767
:101FF0002DE9FC4117468846044603F019F9009084
:10200000C16D056868468E6803F07CF9326800216E
:10201000204690470646204612F0B3FA27E000BF5C
:1020200003F006F90190B0F900102AB2B0F90430BB
:10203000891A9A1AB0F90230A3EB2543B34210D1A2
:1020400090F82800000605D53868884209DB491E4B
:10205000396006E0D8F80000904202DC521CC8F853
:10206000002001A803F04EF9204612F02FFB0400D7
:10207000D6D1BDE8FC812DE9F0430446406889B023
:10208000054612F041FB814603F0D2F80290D0F8E9
:102090004880D0F88070466E02A803F033F92068BB
:1020A000172853D008DC0E283AD00F2811D0142856
:1020B0004CD015283DD149E01E281ED01F282AD01B
:1020C000222840D0312834D10020E06009B0BDE89A
:1020D000F0836FF070414046884503D00AF0F0FE6F
:1020E00003F050FC002EF1D0D4E902122068CDE9B3
:1020F0000405CDE9061204A81FE0E0680028E5D039
:102100002FB1AF4203D0384613F080F9DEE72846FE
:1021100013F0D0F9DAE72146484611F0C9FDD5E7BA
:10212000E0684168002904DD00680928EFD00A282A
:1021300005D05EB12046C4F80490B047C6E72846F3
:1021400013F0C7F9C2E7C4F80C80BFE7204612F0CD
:1021500091F8BBE770B5364888B00024016841F0BB
:1021600080010160016801F080010691016841F47D
:1021700080710160006801A900F4807006908020E1
:10218000012581E83100032004902A4807F03AFD38
:102190002802CDE9010501A9274807F033FDFEF724
:1021A000CFFF264EC6F8A042142006F5287624F06C
:1021B000B7FF3560322024F0B3FF8DF800400122D4
:1021C0006946002000F00AF901226946A42000F0C7
:1021D00005F916208DF8000001226946802000F0E4
:1021E000FDF80C208DF8000001226946882000F0DF
:1021F000F5F802226946A12000F028F89DF80000B9
:10220000302803D19DF80110032908D09DF8011052
:10221000012904D0022902D0012008B070BDC9B242
:1022200001EB002106A0FEF77DF80020F5E7000095
:1022300030380240001C02400020024000004442AE
:102240004354502049443A25780D0A002DE9F041C5
:1022500015460F460446FFF73FF87020FFF706F8D3
:10226000FFF786F8E0B2FFF701F8FFF781F8FFF714
:1022700033F87120FEF7FAFFFFF77AF800246E1E9C
:1022800009E0B44201D0012000E00020FEF7B2FFD7
:102290003855641CE4B2AC42F3D3BDE8F041FFF71B
:1022A00041B800002DE9F143484F00244FF00A09DE
:1022B000387882B0401CC0B2B0FBF9F209FB1201C1
:1022C000434DA046387009B10A2864D2012202A900
:1022D0000220FFF7BBFF9DF8080001075BD000F06C
:1022E0000F00062857D2FF218140C84340F0C000AC
:1022F00085F820004FF00108002695F8201008FA14
:1023000004F001423AD033480422694630F8140000
:10231000FFF79CFF95F830009DF80010C0079DF86E
:10232000010001F00F010ED000EB012105EB44008C
:10233000C1829DF802209DF8031002F00F0201EB0C
:102340000221818110E000EB012023490988091A4C
:1023500005EB440081819DF802209DF8031002F0F6
:102360000F0201EB0221C1829DF800000821B1EBB0
:10237000101F03D005EB4400C6828681641CE4B2C2
:10238000052CBAD3A9894FF0010819B9E88A08B910
:102390008DF808603E709DF80800C0060ED195F8D3
:1023A0002000010602D520F0800005E04FF6FF7105
:1023B000A981E98200F0E00085F820003878F02853
:1023C00001D987F800904046BDE8FE833400002024
:1023D0003C00002086C70208401000202DE9F04193
:1023E00015460E4604460027FEF776FF7020FEF7DE
:1023F0003DFFFEF7BDFFE0B2FEF738FFFEF7B8FF86
:10240000002408E0305DFEF731FFFEF7B1FF070062
:1024100003D1641CE4B2AC42F4D3FEF783FF384628
:10242000BDE8F08110B504460A2812D00D2C14D056
:1024300004F0C0FB09480068C0690168204688476D
:102440000748016809B120468847BDE8104006F0FA
:1024500053BABDE8104003F0BFBC10BDD007002048
:10246000FC0700202DE9F0430446C56887B090467C
:102470008946002005F0C6FD064625B1287910B131
:1024800046F0020001E026F0020005F0BBFD2069E5
:10249000012558B1D4E902128DE82600039563881E
:1024A0002288046841464846A0471EE0124F134B5D
:1024B000214638681B68427CE068984730B9E0885C
:1024C000012801D0002001E03868806BA288E388F1
:1024D000A1680095CDE90410CDE902320195638829
:1024E00022884146484609F0C7FD07B03046BDE89E
:1024F000F04305F087BD0000D0070020C80700208A
:102500002DE9F0478146884640F2C32050434FF4FE
:102510007A7190FBF1F502FB02F002EBD27100EB55
:10252000610617460023414648466D1CFEF74CFFE6
:10253000012413E004FB04F007FB0700B04206DDB2
:102540003B46224641464846FEF73EFF7F1E3B463D
:10255000224641464846FEF737FF641CAC42E9DD9F
:10256000BDE8F0871CB50024019401AC009400F094
:10257000E7F81CBD2DE9FF4F83B0814606988A46D7
:10258000A0EB0A08109E00200090A2EB0904356819
:10259000934654EA080018D02046FEF71FFB074672
:1025A0004046FEF71BFB87420BDA20464446804636
:1025B0004846D14682465846DDF818B006900120BC
:1025C0000090002C07DD204606E007B04846BDE835
:1025D000F04F00F03BB96042A0420AD04846D946CD
:1025E0006442C8F1000883464FF0FF37DDF818A0B9
:1025F00000E001275148B8F1000F11D004EBD4716D
:102600004FEA610B01DACBF1000B4C480068807E89
:1026100088B3002F02DA30682044306000257BE068
:1026200000990029016821D0897E11B100278046D8
:1026300015E007B05A4649465046BDE8F04F09F04C
:10264000E1BE28466D1C21F045FF38B9D8F80000DE
:1026500009EB0701406E4268504690477F1CA74235
:10266000EFDD6D1E356007B0BDE8F08F8A7E1AB1D0
:102670000027804617E019E0486E5A465146036825
:1026800007B04846BDE8F04F184728466D1C21F0BA
:1026900021FF38B9D8F8001009EB0700496E4A68E5
:1026A000514690477F1CA742EFDDDAE700250FE097
:1026B00008FB05B090FBF4F101EB0A00009951B161
:1026C0001E4A09EB05011268526E526890476D1C54
:1026D000A542EDDDC7E7194909EB05030968496E15
:1026E0004A6801461846F1E708FB05B090FBF4F193
:1026F00001EB0A00019030683844306021F0EAFEB6
:1027000048B9009890B10D4809EB05010068406E8A
:102710004268019890476D1CA542E5DD3068002FA6
:1027200001DA20443060C01B30609CE7034909EBAC
:1027300005000968496E4A680199EBE7D007002057
:102740002DE9FF470F4640491646804609680C9818
:102750001D460A7E012A1CD0A8EB0600791B50EA10
:1027600001031CD0A2F1010924F050F800F58060AB
:10277000824607F016FA00FB09F4504607F016FAF5
:1027800000FB09F1002C0CDAC4F500708012404205
:102790000AE00090324639464046FFF7EBFEBDE8BE
:1027A000FF8704F50074A012002904DAC1F5007156
:1027B00089124C4202E001F500718C12002804DD00
:1027C000411C01EBD171491003E000EBD0714910BD
:1027D000401E00EBD0704210002C04DD601C00EBAA
:1027E000D070401003E004EBD4704010641E04EB82
:1027F000D47308EB0104ADF800403C18ADF802407A
:10280000A8EB02045B10B21AADF80440ADF8082042
:102810003144FC1AEA1AADF80C102844ADF80A202D
:10282000ADF80E000023ADF806401A4604216846B4
:1028300000F08CF83946404619F0F2FE2946304641
:1028400019F0EEFEABE70000D0070020064A13683F
:102850001A7E012A05D0521E02EBD272521000F0ED
:1028600005B85A6E52681047D00700202DE9F05F76
:102870000646884640F2C32002FB00F14FF47A700E
:1028800091FBF0F702FB02F102EBD27001EB600B5F
:102890001446B118234A301B7F1C1268526E13680D
:1028A0000A4641469847012538E000BF05FB05F080
:1028B00004FB040159451CDDBC4219DD194B06EB34
:1028C000050AA6EB05091B68AAF1010208EB040141
:1028D0005B6E09F101001B689847124BAAF10102D7
:1028E000A8EB04011B6809F101005B6E1B689847A7
:1028F000641E0C4B3219301B1B68924608EB050115
:102900005B6E81461B689847064B5246A8EB050153
:102910001B6848465B6E1B6898476D1CBD42C5DD51
:10292000BDE8F09FD007002070B514460E4605465E
:102930000119001B02F014FB2246314628461BF009
:10294000BFFABDE8704002F025BA00002DE9FF4F44
:1029500043F6FF740F46664283B09B4681460021D2
:102960000BE000BF09EB8100B0F90200A04200DAE1
:102970000446B04200DD0646491CB942F2DB674816
:102980000068406900280DD0B0F906101A46A1EB86
:102990000B01B14200DA0E46B0F90200801AA042E3
:1029A00000DD0446B4E0DFF878A100200546CAF84F
:1029B000000088E0781E854201DA6B1C00E00023ED
:1029C00009EB850C09EB8302BCF90200B2F9021095
:1029D000A04244D1A14215D139F92330059A39F9E1
:1029E000251003EB020C4D4A05981268084404EBCD
:1029F0000B01526E6045136801DA62462AE0024616
:102A0000604627E02846A4464FF000087A1E0BE0F7
:102A100008B1401E00E0781E09EB8003B3F90230D4
:102A2000634504D108F101089045F1DB2346A34238
:102A300048D01A1B39F92500A1EB040C059B92EA3A
:102A40000C0F09D4354A184404EB0B011268526E7E
:102A500013680246984735E013F04CFD32E0A1427E
:102A600030D001DBA04203DDA0422BDBA14229DCF8
:102A7000E04688420ADC0346A04223DC0846A14225
:102A800020DBB8F900C0B2F9001008E00B46A14203
:102A900018DCA04216DBB2F900C0B8F90010E21A47
:102AA000A1EB0C0151430029A0EB030202DD01EB75
:102AB000620102E0A1EB6201491CC01A91FBF0F037
:102AC0006044C9E76D1CBD42FFF674AF05980090E5
:102AD00004EB0B00019000208046054613E01149ED
:102AE000B8F1000F31F915A009D0009901EB0A02E5
:102AF00008440A490968496E0B680199984788F0AB
:102B0000010850466D1C064909688D42E7DB641CCC
:102B1000B4427FF748AF07B0BDE8F08FD007002080
:102B2000B80D0020A0E9002010B5002005F030FA13
:102B30006FF07F4005F043FA012005F0DBFA00203A
:102B400005F0E6FA002005F0F3FA002005F05AFA45
:102B50000448006805F062FABDE81040002005F066
:102B60009BBA0000CC07002033B583B004001BD013
:102B700004F020F8204602F05BFB0190456E01A8AE
:102B800002F0C0FB049802F053FB0090846068469A
:102B900002F0B8FB042204A9284602F0D7FB204625
:102BA00012F002F905F0A8FE05B030BD33B583B0D0
:102BB00004001BD003F0FEFF204602F039FB019019
:102BC000856E01A802F09EFB049802F031FB009094
:102BD0008460684602F096FB042204A9284602F0AD
:102BE000B5FB204612F0E0F805F086FE05B030BDDA
:102BF0002DE9F04104460025D4E90007B0F5407FF7
:102C000000D101252146384611F052F8064615B18B
:102C100038461EF05FFA002E2FD02068052806D017
:102C20000B280ED00F2806D0262821D10EE03846DA
:102C30001EF050FA1CE03846E168BDE8F0411FF094
:102C4000D8B83846BDE8F0411EF091BDE0680528CF
:102C50000ED1384611F092FDA168884205D0384661
:102C600011F07CFDA168884202D160681FF038FF36
:102C70002046BDE8F04111F0FDBABDE8F081F0B5A5
:102C800085B00DF1280C9CE8F0004FF0000C8DE8A9
:102C9000F01000F003F805B0F0BD00002DE9F04F92
:102CA00085B09846DDE90E5691468A468346109FC8
:102CB000129C03F07FFF18486C34CDE90204CDE983
:102CC000005643464A465146584611F01BFA040046
:102CD0001BD002F078FB054602F075FB0646204645
:102CE00002F0A6FA0490C0E919560022119911F0D9
:102CF00033F90498302209493430FDF719FD04985E
:102D0000A0F8787004A802F0FDFA05F0F5FD05B012
:102D10002046BDE8F08F0000F12B0008600A00207B
:102D200013B582B0044603F045FF204602F080FA56
:102D3000009060B1406A02F07BFA014601900223E4
:102D400003AA009800F0C8F901A802F0DBFA68466F
:102D500002F0D8FA05F0D0FD1FBD00002DE9F043C8
:102D600085B01D4690460F46814603F023FF2C2078
:102D700002F061F9060024D0780002F05CF904004A
:102D80000ED0B8F1000F0BD055B1204602F050FA2A
:102D90006A0041460090FDF744FC684602F0B2FA32
:102DA000304602F045FA0A49029000F10C024462F2
:102DB00082E8A202074901600749416002A802F0C7
:102DC000A1FA05F099FD05B03046BDE8F08300009A
:102DD000D10A02089D1F0208FF17020810B5044619
:102DE00003F0E8FE20461EF00AFDBDE8104005F0A5
:102DF00083BD2DE9FC47894607002BD003F0DAFE9E
:102E0000384602F015FA0190466E01A802F07AFAEF
:102E1000304602F030FB0546002414E021463046DF
:102E200002F035FB70B102F003FA0090D0F8008098
:102E3000684602F067FAC84504D12146304602F0E0
:102E4000EDFA02E0641CAC42E8DB384611F0ACFF5E
:102E500005F052FDBDE8FC872DE9FC4789460700D7
:102E60002BD003F0A7FE384602F0E2F90190866EFF
:102E700001A802F047FA304602F0FDFA05460024A8
:102E800014E02146304602F002FB70B102F0D0F9A6
:102E90000090D0F80080684602F034FAC84504D1AA
:102EA0002146304602F0BAFA02E0641CAC42E8DB8C
:102EB000384611F079FF05F01FFDBDE8FC870000E2
:102EC0002DE9F843984615460E46074603F072FE74
:102ED000302002F0B0F8040015D002F0A9F90090FB
:102EE000C0E9057685840A4AB7EE000AC0F81C805E
:102EF00080ED0A0AD2E90012C0E903120549016017
:102F0000684602F0FFF905F0F7FC2046BDE8F883BB
:102F1000900A00207520020802F0ACB8F8B50D4602
:102F200006004FF0000411D003F044FE304602F0DA
:102F30007FF90090046AAC4203D00562806811F00A
:102F400033FF684602F0DEF905F0D6FC2046F8BDF6
:102F5000F8B50D4606004FF0000411D003F02AFE2C
:102F6000304602F065F900904469AC4203D04561F7
:102F7000806811F019FF684602F0C4F905F0BCFC46
:102F80002046F8BD2DE9F8431D46DDF820801646A1
:102F90000F46040015D003F00DFE204602F048F95C
:102FA0000090C0F860804765C0E91665684602F089
:102FB000A9F920461EF08EF8204611F0F5FE05F026
:102FC0009BFCBDE8F883F8B515460E4607004FF0A8
:102FD000000415D003F0EEFD384602F029F9009008
:102FE000042D08D200EB8500446BB44203D0466345
:102FF000384611F0D9FE684602F084F905F07CFCF1
:103000002046F8BDF8B50D4606004FF0000411D07B
:1030100003F0D0FD304602F00BF90090446CAC4256
:1030200003D04564304611F0BFFE684602F06AF9ED
:1030300005F062FC2046F8BDF8B50D4606004FF0DD
:10304000000411D003F0B6FD304602F0F1F8009014
:10305000846CAC4203D08564304611F0A5FE68460E
:1030600002F050F905F048FC2046F8BDF8B50D46D1
:1030700006004FF0000411D003F09CFD304602F032
:10308000D7F80090046DAC4203D00565304600F0DF
:1030900055F8684602F036F905F02EFC2046F8BDDA
:1030A000F8B50D4606004FF0000413D003F082FD82
:1030B000304602F0BDF8009090F86C40AC4204D06D
:1030C00080F86C50304611F06FFE684602F01AF935
:1030D00005F012FC2046F8BD2DE9F0410446806859
:1030E0001D4617460E46002826D0D4E90402904219
:1030F0000ED1521E6A4371193046FDF7D7FA206986
:103100002A46401E05FB00603946FDF7CFFA0EE067
:1031100005FB0013401C20612A4639461846FDF77E
:10312000C5FAE16819B12046BDE8F0410847A0683A
:10313000BDE8F04100F002B8BDE8F08110B58AB0FA
:10314000044602F075F809A904AACDE9002105ABEF
:10315000089006AA07A91CF035FC08A802F0D2F8CE
:1031600002A9204611F060FABDF80800079908444A
:10317000ADF80800BDF80A0006990844ADF80A0049
:10318000BDF80C000599401AADF80C00BDF80E0012
:103190000499401AADF80E0002A9204611F0C4FDB2
:1031A0000AB010BD2DE9F0433F4889B00024016802
:1031B00041F080010160016801F080010791016820
:1031C00041F4807101600068802600F480700790EF
:1031D00001AA012503270096DFF8D09082E8B0000D
:1031E0006946484606F00EFD2802CDE9000569460D
:1031F0002F4806F007FDFDF7A3FFDFF8B880C8F8F9
:10320000A0420A2023F08CFFC8F8A0520A2023F025
:1032100087FFCDE90064CDE902476946484606F0DC
:10322000F1FC642023F07CFF042205A948F2401041
:1032300000F058F88DF8184005A91FA0FDF772F8A6
:1032400020A105A8FDF7F8FA18B1012009B0BDE8E2
:10325000F08302208DF8140048F24005012205A9F0
:10326000284600F083F9012205A9E81D00F03AF88C
:103270009DF8141060290BD214A0FDF753F81848DC
:103280008088A0F5AA41103902D1012000F048F948
:103290000A2023F045FF8DF81440012205A9284695
:1032A00000F064F90020D1E730380240001C0240F1
:1032B00000200240000044424354502049443A2533
:1032C000730D0A003931343700000000446566612F
:1032D000756C74205665723A25640D0A0000000072
:1032E000401000202DE9F04115460F460446FDF739
:1032F000F3FF2820FDF7BAFFFEF73AF8200AFDF7A2
:10330000B5FFFEF735F8E0B2FDF7B0FFFEF730F895
:10331000FDF7E2FF2920FDF7A9FFFEF729F80024B9
:103320006E1E09E0B44201D0012000E00020FDF74C
:1033300061FF3855641CE4B2AC42F3D3BDE8F04100
:10334000FDF7F0BF2DE9F14F714E00244FF00A0B4D
:10335000307882B0401CC0B2B0FBFBF20BFB120114
:103360006C4DA146307009B10A287BD248F24E1745
:10337000012202A93846FFF7B5FF9DF808004FF07B
:10338000000801060AD500F00F00062806D28DF8C5
:103390000480012201A9384600F0E8F89DF80800F1
:1033A00001075FD000F00F0106295BD2FF208840A3
:1033B0008DF80400C04395F820A040F0C00085F8C7
:1033C0002000A889A882E88A534FE8834FF00109BA
:1033D00095F8201009FA04F0014256D04F48042213
:1033E000694630F81400FFF77DFFB888A0F5AA41C0
:1033F000103904D0A0F5864142391FD045E095F838
:1034000030009DF80110C0079DF8000000EB01217D
:1034100005EB440009D0C1829DF802109DF80320FD
:1034200001EB0221C1F548712EE081819DF8021067
:103430009DF8032001EB0221C18226E095F83000BF
:10344000C00710D09DF802009DF8031000EB012189
:1034500005EB4400C1829DF800109DF8012001EBAE
:10346000022111E02CE09DF800009DF8011000EB16
:10347000012105EB4400C1829DF802109DF8032054
:1034800001EB0221C1F588718181641CE4B2052C35
:103490009ED3A9893A884FF001092846914203D862
:1034A000C18A7A88914209D99DF8081001F00F016C
:1034B00001290CD9C1898181018BE98286F80080BC
:1034C0009DF8080000F08F0080280AD018E0818A5B
:1034D0008181C18BC18280218DF8081085F820A0E0
:1034E000EEE795F82000010602D520F0800005E007
:1034F0004FF6FF71A981E98200F0E00085F8200015
:103500003078F02801D986F800B04846BDE8FE8F33
:10351000350000203C0000204010002048C8020870
:1035200008B500218DF800108DF801000E489DF8B7
:103530000020435C491C1A44C9B28DF80020B82908
:10354000F5D3D0B2C043401C8DF80000B822064924
:1035500048F2470000F00AF80222694648F2FF00EC
:1035600000F004F8002008BD90C702082DE9F041E2
:1035700015460E4604460027FDF7AEFE2820FDF74F
:1035800075FEFDF7F5FE200AFDF770FEFDF7F0FE73
:10359000E0B2FDF76BFEFDF7EBFE002408E0305DC6
:1035A000FDF764FEFDF7E4FE070003D1641CE4B2FE
:1035B000AC42F4D3FDF7B6FE3846BDE8F08130B535
:1035C000002300E05B1CC25C002AFBD101242246E0
:1035D00003E004EB84046400521CB1FBF4F50A2DF3
:1035E000F7D2002403440A209C540AE0B1FBF0F413
:1035F00000FB1414B1FBF0F19D18303405F8014CB8
:10360000521E002AF2D130BD10B50022134600E050
:10361000521C845C002CFBD102E08454521C5B1CC5
:10362000CC5C002CF9D10021815410BD10B50BA148
:1036300017A000F00DFE012000F0DEFA012003F0DB
:103640004DF8044619F05CFA4FF47A6000F0EAFF96
:103650002046BDE8104003F041B800004F7574707B
:10366000757420616E7469616C696173656420743E
:103670006578740A6F6E20646966666572656E743B
:10368000206261636B67726F756E64732E00000059
:10369000416E7469616C6961736564205465787406
:1036A000000000002DE9F041002723A12CA000F02C
:1036B000CFFD09F0B1F8064609F0BAF80446C4385F
:1036C000032190FBF1F02B4D2B4AC83EE860118896
:1036D000491DB1EB660F03DB5188491D814200DAB9
:1036E000012726A003F0E9F931460126B0EB610F6E
:1036F00005DBE868283C4000C430A04200DA2E60B8
:10370000224804F08BFC044603F092F9E968401C5F
:10371000884200DA6E60204604F080FC384617F0DC
:1037200017FE01F02FFB032001F026FC13F058F9DF
:10373000BDE8F04101F01EBB4578616D706C6573AA
:1037400020666F72207468650A6175746F6D6F749E
:1037500069766520696E647573747269650000002E
:103760004175746F6D6F746976652073616D706CEF
:1037700065730000F400002044500A086D7365630F
:103780002F706963747572653A0A0000C462090893
:1037900010B507A10BA000F05BFD012000F02CFA92
:1037A00001F0C4FF14F012FBBDE8104002F0A6B80F
:1037B000416E696D61746564206261722067726137
:1037C00070680000426172204772617068000000FA
:1037D00010B508A115A000F03BFD00F033FD00205E
:1037E00000F00AFA13F0E6F9BDE810404FF47A60F1
:1037F00000F018BF53686F77696E670A6469666680
:103800006572656E74206269746D6170732077698A
:1038100074680A616E6420776974686F75742063D8
:103820006F6D7072657373696F6E00004269746DBD
:103830006170730010B5084C02E00A2002F05CFAD7
:10384000606A0128F9D0A06A01284FF0000001D178
:10385000A062012010BD0000A00000202DE9F04F63
:1038600097B0502102A8FCF7BFFF08F0D5FF8346B0
:1038700008F0DEFF0546844984A000F0E9FC012041
:1038800000F0BAF96FF07F48404604F098FB824898
:1038900004F0C4FB4FEA6B010C2280A002F05CFB39
:1038A000814804F0BBFB2B22012180A002F040FBE9
:1038B0003F2201217EA002F03BFB532201217EA08A
:1038C00002F036FB622201217DA002F031FB712261
:1038D00001217DA002F02CFB852201217CA002F0B9
:1038E00027FB992201217CA002F022FB7C4804F0F6
:1038F00095FB08F0E1FE014602A8FFF760FE79A102
:1039000002A8FFF781FE092008F0F2FE04000BD0A8
:1039100076A102A8FFF778FE214602A8FFF74FFE26
:1039200073A102A8FFF770FEA5F119020C2102A8ED
:1039300002F0FEFA00F070F906464FF4FA7941F20F
:10394000707A94E000F068F9801B4FF4FA6190FB04
:10395000F1F201FB1200491090FBF1F16FF07C02D3
:103960004A4300EBC20048457EDCC0EB002090FBE0
:10397000F9F0C1EB0121484000EB002101EB0044CC
:10398000FF27CDE90074A8EB040534235A462B2108
:103990003C2002F0D1FCCDE900753E235A4635218A
:1039A0003C2002F0C9FC3F02CDE9007448235A468E
:1039B0003F213C2002F0C0FCCDE9007552235A465D
:1039C00049213C2002F0B8FC3F02CDE900745C23A1
:1039D0005A4653213C2002F0AFFCCDE90075662326
:1039E0005A465D213C2002F0A7FC4348CDE9000483
:1039F00070235A4667213C2002F09EFC4FF6FF7769
:103A0000CDE900757A235A4671213C2002F094FCDE
:103A1000CDE9007484235A467B213C2002F08CFCC3
:103A20003F02CDE900758E235A4685213C2002F0E5
:103A300083FCCDE9007498235A468F213C2002F084
:103A40007BFC4FF0FF17CDE90075A2235A46992160
:103A50003C2002F071FCCDE90074AC235A46A3214E
:103A60003C2002F069FC00E001E002F077FE00F08B
:103A7000D3F8811B514504DAFFF7DCFE00283FF440
:103A800061AF17B0BDE8F08FAC230C08436F6C6FCB
:103A90007220626172000000C4620908436F6C6F9B
:103AA0007220626172730000A0EC0B085265640022
:103AB000477265656E000000426C7565000000008D
:103AC000477265790000000059656C6C6F770000E3
:103AD0004379616E000000004D6167656E7461009E
:103AE00040CA0B0820627070000000002C2000000B
:103AF00020636F6C6F7273008080800003490160E7
:103B00000F21416005210181704700003001002034
:103B100010B50DA115A000F09BFB012000F06CF882
:103B200001F004FE14F0E6FB4FF47A6000F07AFD39
:103B300001F0E4FE0021084601F09CFEBDE81040C3
:103B40000C4801F027BE00005354656D57696E2084
:103B5000737570706F7274730A736F6674776172C5
:103B60006520637572736F72000000004375727395
:103B70006F72000054B40B082DE9F0471D4F044646
:103B80004FF404794946B86810F0EAFC8046642C8A
:103B900005DD4946B86810F0E3FC11F059FD00213D
:103BA00040460BF02EFB2246002140460BF0F6FA71
:103BB00002F08DFF064600F02FF8851B642C03DD14
:103BC000294640460BF01DFB052002F095F8FFF753
:103BD00031FEA54201D20028EDD0642C05DD494616
:103BE000B86810F0BDFC11F01BF8BDE8F04702F01A
:103BF000B5BD0000A0000020014909690847000088
:103C0000A000002003490989014201D0012070472A
:103C10000020704720E6002010B5054C606A08B10E
:103C2000206A10BD02F053FFE169401A10BD000088
:103C3000A000002010B506A112A000F009FB00F0C2
:103C400001FB1CF01FFABDE8104000F0A9BA00000B
:103C50004F7074696D697A65642064726177696E0A
:103C60006720726F7574696E650A666F7220647280
:103C70006177696E67206772617068206461746142
:103C80000000000044726177696E672061206772EE
:103C900061706800054810B5C06810F0C1FF10F0F1
:103CA00049FCBDE8104011F0EBBC0000A000002072
:103CB0002DE9F04F91B065A16FA000F0C9FAFFF7B0
:103CC000E9FF10F037FC10F097FB10F033FC6E4961
:103CD00011F0FFFA0F9010F02DFC6CA14FF4B072B0
:103CE000CDE90321002502248DE831001E234FF485
:103CF000A072294628460CF01EF9834669490CF04B
:103D0000A9F90E2158460CF0E6F9674958460CF01F
:103D1000F7F910F00FFC65A140F26112CDE9032123
:103D20008DE8310064238C222821A0200CF003F9B7
:103D300082465F4A06A95F4803F0F4FE06A9504692
:103D40000CF088F96FF07F4150460CF0D9F9012151
:103D500050460CF0ECF90E2150460CF0BCF908F07E
:103D600067FD054610F0E6FB3C213722CDE9042132
:103D70004FF414730321CDE90243CDE90001A5F10D
:103D8000280388221E210A2007F0E8FD4A4D8146BB
:103D9000002404EB440005EB80014A6855F820102C
:103DA000484607F00DFD641C092CF2D3434A01215B
:103DB000484607F049FE4249484607F061FE48463A
:103DC00011F024FB01260024FFF726FF42F22831E0
:103DD0004718FFF721FF00F57A754FF0FF383220C2
:103DE00001F08AFF10F0A6FB4FF4806111F051FA48
:103DF000FFF712FFA8420DDB05F57A7514B1082C08
:103E000002D002E0012600E04646344421464846FE
:103E100007F04DFEFFF700FFB84203DAFFF70AFD97
:103E20000028DCD0584610F05DFA504610F05AFADF
:103E3000484610F057FA10F07DFB0F9911F049FA3F
:103E400000F0AEF911B0BDE8F08F000044656D6F71
:103E50006E73747261746573207468652075736520
:103E6000206F660A7468652049434F4E564945578E
:103E7000207769646765740049636F6E20566965D1
:103E8000772044656D6F0000F16E02085354656D34
:103E900057696E2049434F4E564945572073616D0F
:103EA000706C6500C46209084040FF00000000001B
:103EB00048B60B0888D40508FCB606080000FFC009
:103EC00000E20B082DE9F04188B02022384968460D
:103ED000FCF72EFC08F0A0FC054608F0A9FC0446FF
:103EE0006E100020FFF788FE022004F021F96FF029
:103EF0007F48404604F063F82E4804F08FF844F3FE
:103F0000191231462CA002F027F82D4804F086F84B
:103F100004EB440000EBC4008211314629A002F0FA
:103F20001BF8364804F04BF8162104FB01F7BA11D0
:103F3000314633A002F010F83D4804F06FF812202B
:103F400000EBA71231463BA002F006F8404604F011
:103F500036F81B4804F062F802F0BCFD01466846E2
:103F6000FCF753FBC4EB441082113146684601F064
:103F7000F3FF26206043821136480088281A41103A
:103F8000354802F0BDF8404604F019F8094804F03D
:103F900045F8C4EBC40040F3D90231462FA001F02C
:103FA000DBFF41F28830FFF7E7FD08B0BDE8F081A4
:103FB00068E70708C46209085354656D57696E00C5
:103FC000A0EC0B08556E6976657273616C206772A0
:103FD000617068696320736F6674776172650A66E1
:103FE0006F7220656D626564646564206170706CD9
:103FF00069636174696F6E7300000000FF882200BE
:10400000466F722053544D3332204D435520507229
:104010006F6475637473202D20436F72746578200C
:104020004D33202D20436F72746578204D3400008D
:1040300028D10B08436F6D70696C6564204A756EFA
:1040400020323120323031362031363A35343A316F
:1040500033000000B4900908E8290A087777772E22
:1040600073742E636F6D2F73746D33320000000014
:1040700010B506A110A000F0EBF80120FFF7BCFD81
:1040800000F0E0F8BDE8104013F048BF53686F77C8
:104090007320736F6D65206665617475726573203A
:1040A0006F660A746865204C49535456455720770B
:1040B00069646765740000004C697374766965779C
:1040C0002064656D6F0000008CB02849284803F01B
:1040D00099F910F02FFA274911F0FBF8FCF78CFF43
:1040E00000216846FDF724FE002421466846059419
:1040F000FDF766FE01216846FDF71AFE01216846BC
:104100000594FDF75DFE1C48FDF73EFE1B480BF0D5
:1041100023F81B48FCF750FF1A480BF0C5FB1A4860
:104120000BF010FE194807F0AFFA022004F000F877
:104130001748FFF7E3FC08F0BFFA0C4C2C3C1028A2
:1041400012DB0420FFF75EFD70B101F051F8B0F50D
:10415000001F01DD0F4800E00F482061012000F042
:1041600047F81CF055FEFCE70C48F6E7CC000020B1
:10417000ED6B0208E16802089BDE0108D5F000083B
:10418000810D0008E9F60008B5FB000881B50008BC
:1041900020E60020FDB301080DB301082DB501088C
:1041A000054810B58169491C816113F02FF9BDE8FC
:1041B000104000F0C7B90000A000002010B5FFF7C4
:1041C00069FD074907A000F043F8012010F074FED4
:1041D0001FF0F4FBBDE81040002010F06DBE0000A1
:1041E000142E0C0852616469616C204D656E750077
:1041F00000B101200149087070470000A0000020B4
:10420000044810B5806811F023FABDE8104002F0B0
:10421000A5BA0000A000002070B5094C0546E06872
:1042200010F02BFE002809D04FF4B071E06810F0B8
:1042300097F92946BDE870400BF023BF70BD000020
:10424000A00000200148C06811F002BAA0000020C0
:104250002DE9F0410C46064608F0DEFA054608F066
:10426000E7FA6D104710FFF715FDFFF7C9FF02F0E1
:1042700075FA0120FFF7C0FC6FF07F4003F09FFE4E
:10428000022003F055FF104803F0C8FE3C222946E7
:10429000304601F061FE0D4803F0C0FE02F0C8FB9D
:1042A0003A1A294620460A3201F056FE002200E062
:1042B000521CA05C0028FBD1BDE8F04102EB82005B
:1042C000000100F0AFB90000C4620908A0EC0B08BF
:1042D0002DE9F04F95B028216846FCF785FA08F0E3
:1042E0009BFA064608F0A4FA054608F089FA074644
:1042F00001F01CFAAF420BDD0020ADF84800ADF82C
:104300004A00ADF84C60ADF84E5012A803F04BFED9
:1043100051A15DA0FFF79CFFDFF87891002759F8C5
:10432000270001F07BFB0AA941F827007F1C082F1A
:10433000F5DBFFF771FC002714904EE007F0070152
:104340000AA850F8210003F045FEFBF7AFFF90FBF1
:10435000F6F106FB110006EBD671A0EB61000FFA37
:1043600080F8FBF7A3FF90FBF5F105FB110005EBCF
:10437000D571A0EB61000FFA80FAFBF797FF90FB75
:10438000F6F106FB1101143101EB080002B262F3F1
:104390000F049146FBF78AFF90FBF5F105FB110036
:1043A0001430504403B2514663F31F449B464A46BF
:1043B000404602F0F5F9B14502DB701E60F30F04D0
:1043C000AB4502DB681E60F31F44201402D50020B9
:1043D00060F31F4402F0C2F97F1CFFF71DFC149923
:1043E000411A41F28830814203DAFFF723FA0028AC
:1043F000A4D0FFF7D5FE1BF043FB0446002003F0DA
:10440000D2FD0020FFF7F8FB6FF07F4003F0D7FDEF
:10441000022003F08DFE204803F000FE0522114625
:104420001E4801F06DFE1EA16846FFF7EDF821461B
:104430006846FFF7C4F802F009FB281A4210711011
:10444000684601F089FD4FF47A60FFF795FB01F0B3
:1044500055FA15B0BDE8F08F4D756C7469206C612C
:1044600079657220636C697070696E670A48696764
:10447000686C79206F7074696D697A656420647204
:10448000697665727300000048696768207370651B
:104490006564000058500A08C462090844500A08BC
:1044A000506978656C732F7365633A2000000000D3
:1044B00010B505A10FA0FFF7CBFEFFF7EBFBBDE8A2
:1044C000104021F023B900005573657320616C70B2
:1044D000686120626C656E64696E670A666F72203F
:1044E0007472616E73706172656E63792065666661
:1044F000656374005472616E73706172656E7420CE
:104500006469616C6F67000010B5094909A0FFF785
:104510009FFEFFF797FE0020FFF76EFB01F006F904
:1045200013F034FD01F0EAF9BDE81040FFF738BEA2
:104530001C2F0C0854726565766965772064656D7B
:104540006F00000030B585B014216846FCF74CF9C7
:10455000134C4FF4B071A06810F002F8054611A199
:104560006846FFF751F861696846491CFFF727F86C
:104570000EA16846FFF748F86846A169FFF71FF8E3
:104580000BA16846FFF740F80A4841686846491E93
:10459000FFF715F8694628460BF073FD05B030BDEE
:1045A000A000002044656D6F200000002E00000078
:1045B0002F00000020E6002010B508F039F904466D
:1045C00008F01EF9B0EB440F0EDB08A111A0FFF7B5
:1045D0003FFE0120FFF710FB13F042FD0021BDE874
:1045E0001040084603F066BD10BD000044656D6FC5
:1045F0006E7374726174657320686F7720746F20B6
:104600007573650A7669727475616C20736372657F
:10461000656E73005653637265656E2064656D6FD9
:104620000000000010B5FFF7A7FABDE81040FFF743
:10463000B7BD00002DE9F04FDFF828B191B04FF081
:10464000FF35DBF80030B3F922100691DE69B3F9CB
:104650002490F469A189814206D8E289824203D379
:10466000471AD4F8008012E0D4E9018100296FD004
:104670000A8882426CD84D88854269D3801A82B2FA
:10468000486800EB8200B0F90070B0F90250781C65
:104690005ED0307EA17C10FB01FA217CCDE90701C0
:1046A000B3F92A60304608F0D7FCC0B20E90DBF8B0
:1046B000000007FB0A81A37C826B0127CDE904126D
:1046C000CDE90273C069089AC17E807ECDE9000100
:1046D000DDE90603494607F0CFFC681C18D046F018
:1046E000020008F0B9FCDBF80000A37C05FB0A819E
:1046F000826BCDE90273CDE90412C069089AC17ECC
:10470000807ECDE90001DDE90603494607F0B4FCEF
:10471000DBF800005D46C069417E007E814214D90D
:10472000022E12D086F0040008F096FC2868C069BA
:10473000027EC37E12FB0391437E857E089A069813
:104740004B4412FB050207F08BFF0E9808F084FC27
:10475000DBF80000627C418C1144418411B0BDE85B
:10476000F08F0000D007002004480068C069C069CD
:1047700009B1027C0A60407C70470000D00700202D
:10478000022008807047C06982898A4202D8C289A3
:104790008A4210D2806880B102888A420DD843884C
:1047A0008B420AD3406800EB8100A0EB8200B0F995
:1047B0000000002801DB0120704700207047000046
:1047C000F0B52C4D044687B028682146B0F92A6020
:1047D000C069C06900F03CFA002848D041680088F0
:1047E000201A00EB400001EB80042078C01C8708F1
:1047F000304608F031FC06461F48D0F800C0BCF136
:10480000000F1AD00021A068CDE904010222012086
:1048100001A9009081E88500286894F90320DCF85C
:104820000070B0F92410B0F92200114494F902206C
:10483000637810442278B84711E0A068CDE9007091
:10484000286894F903206378B0F92410B0F92200A5
:10485000114494F902201044227800F095FB304670
:1048600008F0FAFB28682279418C1144418407B092
:10487000F0BD0000D00700200C080020F0B5254C4A
:10488000054687B020682946B0F92A60C069C0692A
:1048900000F017FA00283AD041680088281A01EB86
:1048A000C0053046AF7808F0D7FB06461A48D0F866
:1048B00000C0BCF1000F15D000216868CDE90401EB
:1048C0000422012001A9009081E885002068DCF81D
:1048D00000702A78C1690B7EB0F92410B0F922006B
:1048E000B8470CE06868CDE9007020682A78C16993
:1048F0000B7EB0F92410B0F9220000F057FB3046CF
:1049000008F0AAFB20686A78418C1144418407B002
:10491000F0BD0000D00700200C080020F0B52C4DA1
:10492000044687B028682146B0F92A60C069C0698A
:1049300000F08EF9002848D041680088201A00EB6A
:10494000400001EB80042078401C4708304608F006
:1049500083FB06461F48D0F800C0BCF1000F1AD0F8
:104960000021A068CDE904010422012001A90090E2
:1049700081E88500286894F90320DCF80070B0F91C
:104980002410B0F92200114494F9022063781044F5
:104990002278B84711E0A068CDE90070286894F942
:1049A00003206378B0F92410B0F92200114494F97F
:1049B00002201044227800F0F9FA304608F04CFB4F
:1049C00028682279418C1144418407B0F0BD000071
:1049D000D00700200C08002070B505460B480C4697
:1049E00029460068C069C06900F06BF900280BD047
:1049F000416800882A1A012000EBC200002C085CE4
:104A000002D011F83210216070BD0000D0070020E4
:104A100011200880704710B5C06900F052F90028D5
:104A200000D0012010BD00002DE9F043304C0346BA
:104A300087B020681946B0F92A60C069C06900F0E3
:104A400040F9002850D041680088181A01EBC005D1
:104A50003046AF7808F000FB814620686A68012381
:104A6000816BCDE90237CDE90421C169CB7E8A7E15
:104A7000CDE900230B7EB0F924102A78B0F922008A
:104A800007F0FAFA2068C069417E027E91421FD980
:104A9000C07E11FB00F812FB00F7022E18D001F0C7
:104AA000B0FF064601F076FF03F089FA21682A7804
:104AB000CB69B1F92200DB7E12FB0302B1F92410AD
:104AC00001EB0803394407F0CBFD304603F077FAD9
:104AD000484608F0C1FA20686A78C369B0F9221024
:104AE0009B7E12FB0311418407B0BDE8F0830000F8
:104AF000D007002030B5104C05460B4620682946EB
:104B0000C069C06900F0A4F8002814D0416800888A
:104B10002468281A00EB40020420E46900EB8200BC
:104B2000085CA47E10FB04F0002B04D011F82210C6
:104B300011FB04F1196030BDD007002003460C487A
:104B400010B500680C461946C069C06900F080F8CD
:104B500058B141680088181A00EB400001EB800052
:104B600007C884E80700002010BD012010BD000028
:104B7000D007002001200880704700B5C06900F010
:104B800067F8002800D0012000BD00002DE9F341A6
:104B90001C4E0F46002530682C46C069417EC07E01
:104BA00011FB00F81DE0684603F07EFD0546306805
:104BB0002946C069C06900F04BF890B1416800888F
:104BC000281A00EB400001EB800090F902100079F8
:104BD00008443168C969897E10FB01F0002800DDB6
:104BE00004447F1EDFD51DB1284604F001FD0444B6
:104BF0004146204612F012FC034901200870BDE82E
:104C0000FC810000D0070020580800202DE9F34166
:104C10000D4D0E4F0E462868B0F92A40A0070AD164
:104C20007A680098904706E0684603F03DFD2968E1
:104C3000C96909688847761EF6D50020387028684B
:104C40004485BDE8FC810000D00700205808002002
:104C500006E002888A4202D842888A4202D28068EC
:104C60000028F6D17047000030B50F4C05460B46C2
:104C700020682946C069C06900F023F8002812D0D6
:104C80004168008824682A1A0120E46900EBC20008
:104C9000085CA47E10FB04F0002B04D011F8321045
:104CA00011FB04F1196030BDD007002001200880FD
:104CB000704700B5C06900F004F8002800D001205A
:104CC00000BD06E002888A4202D842888A4202D2A7
:104CD00080680028F6D1704770B50025124C19E0A5
:104CE00020691249C5EB051600EBC6007022096861
:104CF000001DFBF71DFD2069002140F8361000EB78
:104D0000C60000F10C018161011D0A1DC0E90F12EE
:104D10006D1C4164A0688542E2DB01F04BFFBDE8F9
:104D2000704003F0E9BD0000F80D0020D00700201E
:104D300070B50F490D480860084604F0C9FD0C4CD9
:104D4000143CA068C0EB0010C500284600F0D8F95C
:104D50002A460021206104F0A6FE4FF0FF302060BB
:104D600003F013FEBDE870401BF010B86119020893
:104D70000C0E002002490020096881F86900704784
:104D8000D007002002490120096881F869007047B6
:104D9000D007002010B519F059FD0448016A0448F5
:104DA0000068416600F10801416110BD80070020E4
:104DB000D00700207CB514460D46064601F0FAFEE9
:104DC00010F09CFD064410F0A7FD0544164800684D
:104DD00090F8691021B990F868104E434D434C4348
:104DE000301B00F05DF8ADF80000301900F058F805
:104DF000ADF80400281B00F053F8ADF802002819A4
:104E000000F04EF8ADF80600684610F0DDFD06E053
:104E1000224629463046FDF787FD10F04FFD002859
:104E2000F6D103F069FD7CBDD00700202DE9FC47D9
:104E30001C4615468846814601F0BCFE10F05EFD1A
:104E4000054410F069FD0444002010F0BDFDF8B1E8
:104E5000114E124F12213068407C57F8200001900B
:104E6000C068426A01A890475FEA000C06D02B4652
:104E70004246494600940198E04705E023462A4609
:104E80004146484619F08CF810F018FD0028E1D191
:104E900003F032FDBDE8FC87D0070020E8070020C2
:104EA0000449096891F8681009B190FBF1F000B26B
:104EB00070470000D00700202DE9F041224C054644
:104EC0000E462068002788B920480068E06110B9C4
:104ED00007F093FCE06100F013F9206080B31A49F9
:104EE0001B4824310860084604F0F2FC19480068A9
:104EF000854200DA0546E169731B4A1E204693424B
:104F000001DD6E18761EAE4201DA2E460127124CE4
:104F10002268516E4B68836301620B490F4B343139
:104F20000B60516602C880E8620012F05BFA11F073
:104F300015FF054821682C3048613846BDE8F081EE
:104F4000FFE70127D2E700008007002000080020CB
:104F50002518020804080020D007002039C20108E3
:104F6000044A126892F8682090FBF2F091FBF2F18B
:104F7000FFF7A2BFD00700200249096881F8680046
:104F800011F0ECBED00700207CB5074EDDE90654D9
:104F90003668367CCDE90054B60702D416F07EFBA5
:104FA0007CBD16F0CDFB7CBDD00700207CB5084E43
:104FB000DDE906543668367CCDE90054B60702D4E4
:104FC00016F020FC7CBD034C2468A0477CBD00008B
:104FD000D007002050070020F8B50C0005460FD080
:104FE00001F0E8FD204600F017F8060010D000F0B0
:104FF0001FF9224600902DB12946FBF712FB04E071
:105000000020F8BD002104F04EFD684600F07AF95A
:1050100003F072FC3046F8BD10B5040009D001F071
:10502000C9FD204611F080FC044603F065FC2046D3
:1050300010BD002010BD38B5054601F0BBFD284667
:10504000FFF7EAFF040009D000F0F2F82A46002139
:10505000009004F028FD684600F054F903F04CFC81
:10506000204638BD024A106021F0030050607047AE
:10507000E0E7002010B5040016D001F09BFD0B48BE
:10508000406B10F8341059B1022909D2042101EB08
:10509000C4014158486811F091FA20461EF07AFC8C
:1050A000BDE8104003F028BC10BD000020E7002040
:1050B000002805D0034AD16B016001B14860D0637C
:1050C0007047000020E7002010B5044601F072FD93
:1050D0002068FFF7CFFF00202060BDE8104003F0FC
:1050E0000BBC000070B50D460646002405E000BF6D
:1050F00006EB8400FFF7E8FF641CAC42F8DB70BDF0
:105100002DE9F04104461BF003FB2848E41C24F081
:105110000305016C2D1DA94200D90D46C46B13E097
:1051200054F8042CAA420ED184B1216809B16268F6
:105130004A60616809B122680A60C26BA24231D13B
:105140002168C1632EE02468002CE9D18046816B80
:10515000C0680F1857F8040C3E1A306838B10020A8
:105160001EF07AFD57F8040C3E1A3068D0B970680A
:10517000A84217DB3044441B3046241D1EF024FD9A
:10518000D8F80C10491BC8F80C10D8F81410294492
:10519000C8F814107068401B02D0314611F00EFAA6
:1051A00044F8045C2046BDE8F081000020E70020C0
:1051B00010B500241BF0ACFA0C490F2001EBC00223
:1051C000526C1AB101EBC000406C08E0401EF5D5EE
:1051D00008E04168A14200D90C46806810B180689F
:1051E0000028F6D1A4F10C0010BD000020E700203B
:1051F000034800680C38002800DC002070470000DD
:1052000020E70020002138B10449042202EBC0004D
:10521000496B085841680C390846704720E7002060
:1052200002488169491C81617047000020E7002025
:105230000549CA69521CCA61496B01EBC0010A7871
:10524000521C0A7000F076B820E700207CB50646B4
:105250000C460846FFF7E0FE050020D0FEB13046C0
:10526000FFF7D0FFA04200DA044601F0A3FC284675
:10527000FFF7DEFF00903046FFF7DAFF01460190AE
:1052800022460098FBF7CDF9684600F03BF801A8EC
:1052900000F038F83046FFF7EDFE03F02DFB28460E
:1052A0007CBD000010B501F085FCFFF781FF642292
:1052B0000849B0F5800F04D990FBF2F4086A444322
:1052C00003E0096A4143B1FBF2F403F015FB204609
:1052D00010BD000020E700200549102805D94A68C4
:1052E000B0EB520F02D3500800E0102088607047E6
:1052F000E0E7002002488169491E81617047000093
:1053000020E700200A4902684B6B52F8082C03EB97
:10531000C2021378022B03D3CB690BB15B1ECB61A6
:105320001178491E11700021016008467047000085
:1053300020E70020002806D00349042202EBC00029
:10534000496B08580830704720E700202DE9FC41E0
:105350004FF000060B465FEA000834462BD032B10E
:1053600011461846FFF738FE060000D101244046DA
:10537000FFF75EFF0090078845686846FFF7C2FFA9
:10538000CCB9B9002846091DFFF760FF050015D00C
:10539000FFF74EFF019040F8276001A8FFF7B2FF2A
:1053A0004046FFF745FF009045600188491C018099
:1053B0006846FFF7A7FF2046BDE8FC813046FFF7AF
:1053C00059FE0124F7E70820FFF735BE7CB505003C
:1053D00023D0FFF72DFF00904068C0B1FFF728FFF2
:1053E0000024019005E0019800EB8400FFF76CFEBB
:1053F000641C00980088A042F5DC01A8FFF782FF3A
:105400000098001DFFF760FE0099002008806846A4
:10541000FFF778FF2846FFF72DFE7CBD7CB50C46D4
:10542000FFF706FF00900188A14220D94568F5B139
:1054300001F0C0FB2846FFF7FBFE019000EB840063
:10544000FFF742FE00990888401E80B20880401E87
:10545000019905E001EB8402526841F82420641CA4
:105460008442F7DD01A8FFF74DFF03F045FA6846D7
:10547000FFF748FF7CBD38B5002430B1FFF7D8FEF8
:10548000009004886846FFF73DFF204638BD38B5D8
:105490000D46002448B1FFF7CBFE2946009000F0EE
:1054A000B4F804466846FFF72DFF204638BD38B5EE
:1054B0000D46002448B1FFF7BBFE2946009000F0DE
:1054C000B6F804466846FFF71DFF204638BD2DE9B3
:1054D000FE430C465FEA00083DD0FFF7A9FE0090AE
:1054E000068847686846FFF70DFFB44233D2B00024
:1054F000001DFFF7A0FD05002DD0FFF799FE0190DC
:105500003846FFF795FE01460290A2000198FBF78E
:105510000FF9301B8200029800EB8401019800EB28
:105520008400001DFBF704F901A8FFF7EBFE02A8B9
:10553000FFF7E8FE3846FFF79DFD4046FFF778FE8F
:10554000009045600188491C01806846FFF7DAFE3B
:105550000120BDE8FE830020FBE72DE9F041154660
:105560000E4607460024FFF7B2FF30B12B4600225B
:105570003146384600F004F804462046BDE8F08184
:105580002DE9FE43984691460D460024D0B3FFF71F
:105590004FFE01900788466801A8FFF7B3FEBD42A1
:1055A00030D27EB33046FFF743FE009050F82540DE
:1055B0006846FFF7A7FE24B12046FFF723FE4045CB
:1055C00011D04046FFF737FD04000CD03046FFF7FE
:1055D0002FFE00EB850500902846FFF775FD684615
:1055E0002C60FFF78FFEB9F1000F0BD054B12046AD
:1055F000FFF71EFE424649460290FBF712F802A84A
:10560000FFF780FE2046BDE8FE8338B50D460188D1
:105610000024A94209D9406838B1FFF709FE00907B
:1056200050F825406846FFF76DFE204638BD10B59E
:105630000024FFF7EAFF10B1FFF7FAFD0446204609
:1056400010BD70B50C46054601F0EAFAC1B223461A
:105650002846BDE870400022AFF30080F0B52D274A
:105660001C68B0F1004F08D0002600280DDA651C38
:105670001D6027704042012408E0651C01261D6062
:105680006FF000402770491E01E00024091BC9B2D9
:105690002AB3491EC9B222E00C46491EC9B294423F
:1056A00005D1124C27781C68651C1D602770104CB2
:1056B00054F8215090FBF5F4E4B20A2C11D804FB05
:1056C000150011B90EB1641CE4B20A2C02D10124F8
:1056D000491CC9B21D686F1C30341F602C70002932
:1056E000DAD1196800200870F0BD0000C40700205E
:1056F00044130C0810B5002807DD0A682B24531C3E
:105700000B601470096800220A7010BD10B50446C1
:1057100001F050FA044904EB840001EB8000447965
:1057200003F0EAF8204610BD5CE80020024800685B
:10573000407C00F003B80000D007002070B505469B
:1057400001F038FA124805EB850100EB81040026D0
:105750006671236953B150F82100E268816840689E
:10576000521AA168091A184602F00FFB284601F0E8
:1057700055F918B1002102F081FC04E0207918B13C
:10578000206902F0ACFA2671BDE8704003F0B4B8AD
:105790005CE8002002490968497C00F003B8000079
:1057A000D00700202DE9FC5F8946044601F002FA8B
:1057B000484601F033F92C4E09EB8907824656F82A
:1057C0002700019029484FF00108016841B9274995
:1057D000C0F80080091D26480860084604F078F8E3
:1057E000214A09EB89015FEA0A0002EB81051BD01F
:1057F00002F076FB83464FF07F4002F0C9FB00F0D9
:10580000C1F800221146206800F07AFC2068428826
:105810000188504602F022FC46F8274085F80580B2
:10582000584602F05DFB17E046F8274085F80580F2
:105830002869464618B102F02DFA0020286174B19B
:105840000096E868A1684B46421AA8686168411A48
:10585000206802F0CFFA286148461FF087FB03F06A
:105860004BF80198BDE8FC9F5CE80020140800207C
:1058700099180208024A1268527C00F003B800002E
:10588000D007002070B514460D46064601F092F987
:10589000204601F0C3F80300174804EB840109D047
:1058A00050F8210041688068711A2A1A184602F0DF
:1058B000C5FB1CE000EB8104A268B24201D00122CA
:1058C00000E00022E368AB4201D0012300E00023A6
:1058D0001A430CD0236943B150F821008168406815
:1058E0006A1A311A184602F050FAC4E90265BDE896
:1058F000704003F001B800005CE800200248006836
:10590000407C00F003B80000D007002010B504462A
:1059100001F050F90A4804EB840100EB81030122F5
:105920005A7150F8210030B120461FF01FFBBDE82E
:10593000104002F0E1BF21460248FFF733FFF6E7CF
:105940005CE8002054B40B0810B5C2B2CBB2D21A36
:1059500000D5524293B25B43C0F30722C1F3072440
:10596000121B00D55242000C92B2A0EB114002FB78
:10597000023200B2002801DA404200B280B200FBDD
:10598000002010BD10B50021084601F0E5F843F6EF
:10599000FF725042BDE8104013460146AFF300804D
:1059A0002DE9FC411C4615460E46074601F002F95A
:1059B000042007F051FB80461248C068C16C006D9E
:1059C0000F4406440D440444ADF80070ADF8045093
:1059D000ADF80260ADF8064068460FF0F5FF07E04D
:1059E00023462A463146384606F03AFE0FF066FF57
:1059F0000028F5D1404607F02FFB02F07DFFBDE8FF
:105A0000FC810000C4070020B0F90630B0F9042082
:105A1000B0F90210B0F90000FFF7C2BF10B504469C
:105A200001F0C8F8204606F09FFA044602F064FF31
:105A3000204610BD2DE9F8431C00DDE90898164604
:105A40000F46054602D10EF075FD044600962E68FD
:105A500043464A4621462846B047060039D00EF054
:105A60005EFD8146698A30460EF0B6F930460FF089
:105A7000EFFD48460FF0ECFD4FF000080CE000BFD2
:105A8000CDF8008055F81CCF00231A464946284619
:105A9000E04700B30FF0DCFD7F1E002FF0DC1D217E
:105AA00048460FF0F6FB601C12D001F083F80EF0B0
:105AB00085FD30B1FFF73EFC8469B44201D020007F
:105AC000F8D1B44202D030460FF0F4FC02F014FFDB
:105AD0003046BDE8F88330460EF004FC0020F8E7BD
:105AE0002DE9F0411C4616460D460746022B02DB07
:105AF0000020BDE8F0811C20FFF702FB0028F8D051
:105B00000DB105610AE0094A52F8241009B905E00F
:105B100011460A68002AFBD1096901618461868205
:105B2000002101604160C0E90217E2E7E8070020B8
:105B300070B51D46FFF7D4FF040009D000F00EF841
:105B4000E068006820B90348006800EB85008465C0
:105B5000204670BDD0070020FFF7AABA70B590B3F9
:105B60008269022A30DA1E4C54F8221019B944F81E
:105B7000220032E019464B68002BFBD106E0CB68CF
:105B8000C5681B682D68AB4203DD09680029F6D1A2
:105B90001AE0C1B1CB68C6681B683668B3420CD145
:105BA000838A012B05D008E01946DB681B68AB42ED
:105BB00003DB0B68002BF7D129B14B6833B11860B8
:105BC0004A68426004E0FFE7012070BD44F822000B
:105BD0004860884200D100210160002070BD0000B3
:105BE000E807002010B503E00468FFF7B7FF204680
:105BF0000028F9D110BD1FF003BF00002DE9F041CE
:105C00000026DFF834800D4F354600BF58F8254098
:105C100009E0E0680068385C20B120461FF0F0FE23
:105C2000266026462468002CF3D16D1C022DEDDB86
:105C30003046BDE8F0810000E807002080B50B0881
:105C4000022801DB00207047054A52F8200004E0DA
:105C5000C26812688A42F6D000680028F8D17047FE
:105C6000E8070020022801DB00207047054951F8B1
:105C7000200004E0C16809680029F6D00068002807
:105C8000F8D17047E80700202DE9F8431D46164675
:105C9000884604000CD0FFF7CBFA00900068076834
:105CA0006846FFF72FFB2B46324641462046B84751
:105CB000BDE8F88338B504004FF000000AD0204654
:105CC000FFF7B6FA0090006845686846FFF71AFBD0
:105CD0002046A84738BD38B504004FF000000AD070
:105CE0002046FFF7A5FA0090006885686846FFF730
:105CF00009FB2046A84738BD2DE9F041044602F0D3
:105D00003DFE06191EE000BF00F028FD052F00DD56
:105D1000052700F04FFF11480568FFF781FA2C00B6
:105D200017D000BF02F0E8FD641EFBD1384602F038
:105D300017FE1DB100F03EFF6D1EFBD1FFF7DAFA32
:105D400002F0DAFD02F01AFE371A002FDCDCBDE8A3
:105D5000F081384602F004FEF0E70000040E002057
:105D600070B514460D46064600F024FF054801684C
:105D700030464D848C84FBF779F9BDE8704002F021
:105D8000BBBD0000D00700207FB51E4614460D465F
:105D9000CDF80CD003AB00223146FFF75FFC224662
:105DA0002946684600F0C4F87FBD1FB503A9CDF8A9
:105DB0000CD0FFF746FC684600F036F81FBD1FB553
:105DC00003ABCDF80CD0FFF749FC684600F02CF887
:105DD0001FBD002112F0F6BA10B500F0EBFE00F086
:105DE00027FE054909688A8C10448884088C4884F9
:105DF000BDE8104002F080BDD00700207FB50C4602
:105E00001546CDF80CD003A9FFF774FC002801DD7E
:105E1000641EE4B203AB2A462146FFF71FFC684626
:105E200000F002F87FBD00002DE9FC4706005FD0BE
:105E300000F0C0FE00F0FCFD3C4C81462068B0F94B
:105E4000228000F051FE216807468A8CD01B88848E
:105E500041E000BF47F6FF71304603F091FB8246F8
:105E60000146304603F062FB2168054691F82C009C
:105E700000F00300012841D002283BD000204A8CCA
:105E8000101A4884ADF800006A1E1044ADF80400F2
:105E9000888CADF80200A9F101010844ADF80600B4
:105EA0006A465146304602F07DFF2168BDF8020087
:105EB00088845146304602F00DFC064430780A28AA
:105EC0001ED00D281CD0BDF800002168284448844D
:105ED000307818B1761C30780028BBD12068818CCE
:105EE00039448184818D21F00301818502F004FD14
:105EF000BDE8FC8705EBD5704010C0E72846BEE73B
:105F0000206890F82C1001F0030101290BD0022920
:105F100009D0018C418431780A29D9D1828C02EBD5
:105F200009018184D4E7A0F82280F4E7D00700209B
:105F300070B514460D46064600F03CFE0548006864
:105F4000458484843046FFF76FFFBDE8704002F05F
:105F5000D3BC0000D00700202DE9F04107460A48D5
:105F600015460E460068B0F92C0040F0020002F021
:105F7000CFF804462A4631463846FFF7D9FF204677
:105F8000BDE8F04102F0C4B8D007002047F6FF7327
:105F9000AFF300802DE9FC411F4690460D460600F8
:105FA0004FF000041AD000F005FE65B128460FF04E
:105FB0002DFB040007D002462946684603F04DFB3E
:105FC00068460FF023FB3B4642462946304602F026
:105FD00041FF20460FF01AFB02F08EFCBDE8FC8169
:105FE0002DE9FF4F87B09046894607007DD000F02D
:105FF000E1FDD9F80040D9F8045021B228B2401A86
:10600000401C029000F014FD064618F00C0F1ED044
:1060100038460A9A029902F079FC08F00C0104292A
:1060200004D0082902D00C2911D104E0291400FB66
:106030001610401C09E02114C1EB254200FB16207C
:10604000401C00EBD07001EB600060F31F44484639
:106050000FF0DCFA5FEA000B09D00246494604A8BB
:10606000CDE9044503F0F9FA04A80FF0CFFAA6F140
:10607000010A38460A9A029903F0E4FC03900AEBFD
:10608000244060F31F45CDE900453846039903F0ED
:106090004DFA18F003010ED001292CD002290ED19F
:1060A000B9F90420B9F90010521A101A00EBD07097
:1060B00001EB600001E0B9F80000ADF800006A46AD
:1060C0003846039902F06EFE38460A9A029903F0A8
:1060D000AFFC074406EB244060F31F4438780028E7
:1060E000C7D158460FF092FA00E001E002F004FC3C
:1060F0000BB0BDE8F08FB9F80410081A401CDCE7BB
:106100007CB514460D46064600F054FD1148006863
:10611000C16C006D0D4404443188681E0844ADF81C
:106120000400ADF800507188601E0844ADF8060008
:10613000ADF8024068460FF047FC06E022462946CB
:106140003046FCF78FF90FF0B9FB0028F6D102F0CA
:10615000D3FB7CBDD00700202DE9FF4F89B09846C6
:106160000446DDF8589000F025FD314F314BE668CC
:1061700038681B68B4F800B0427CB4F802A021462D
:1061800030469847050005D1E088012800D001E09D
:106190003868856B1EB1307908B1022000E000201C
:1061A00001F030FF069038680A99C26C5718016DEB
:1061B0000B98ADF81C700E18781E0BFB0800ADF89C
:1061C0002000701E0AFB0900ADF82200ADF81E6029
:1061D00007A80FF0F9FB20E0206968B1D4E9023C80
:1061E000CDE9003CCDE90289D0F800C0638822885F
:1061F00031463846E0470EE0A188E288A068CDE944
:106200000221CDE9040553465A4631463846CDE9C8
:10621000008905F031FF0FF051FB0028DCD1069812
:1062200001F0F0FE0DB0BDE8F04F02F065BB0000DC
:10623000D0070020C80700207CB514460D4606464E
:1062400000F0B8FC10480068C16C006D0E440544B5
:10625000301BADF800003019ADF80400281BADF874
:1062600002002819ADF8060068460FF0ADFB06E005
:10627000224629463046FCF743F90FF01FFB002861
:10628000F6D102F039FB7CBDD00700201CB50A46D0
:106290000146684603F00FFB00F08CFC2548BDF872
:1062A0000010006830F84C2F1144ADF80010BDF814
:1062B000021082881144ADF80210BDF80410028863
:1062C0001144ADF80410BDF8061080880844ADF8FC
:1062D000060068460FF078FB27E000BFBDF90040DC
:1062E0000BE000BFBDF90210204606F03FF8BDF9F3
:1062F0000610204606F03AF8A41CBDF90400A0429E
:10630000F0DABDF902400AE0BDF90000214606F0CE
:106310002DF8BDF90400214606F028F8A41CBDF9AB
:106320000600A042F0DA0FF0C9FA0028D6D102F038
:10633000E3FA1CBDD00700202DE9F04F87B09B4643
:10634000DDE9109892460C46054600F033FC1648ED
:106350000168C86C096D47190E1900EB0A0501EBBD
:106360000B04ADF81070ADF81450ADF81260ADF834
:10637000164004A80FF028FB88B1DFF830B04FF0CA
:10638000000ACDE90098CDE902BA2B4622463946EB
:10639000304615F0A1FC0FF091FA0028F1D102F07F
:1063A000ABFA07B0BDE8F08FD007002005C40008A5
:1063B0002DE9F04F87B09B46DDE9109892460C46D8
:1063C000054600F0F7FB16480168C86C096D4719CF
:1063D0000E1900EB0A0501EB0B04ADF81070ADF8D7
:1063E0001450ADF81260ADF8164004A80FF0ECFAA6
:1063F00088B1DFF830B04FF0010ACDE90098CDE95F
:1064000002BA23462A463146384615F065FC0FF09D
:1064100055FA0028F1D102F06FFA07B0BDE8F08F0D
:10642000D00700207DC200082DE9FE4F9846DDE927
:106430000D6514468A4683460C9F00F0BBFB0E4850
:106440000068C16C01EB0409016D002001EB080438
:106450000FF0BAFA0AE00097CDE9016523464A46F3
:106460005146584615F0F8FC0FF028FA0028F2D1F2
:10647000BDE8FE4F02F040BAD00700202DE9FC41F4
:1064800014460D46064600F095FB114F3968C86C5E
:10649000096D054404440E44ADF80050ADF80440C5
:1064A000ADF80260ADF8066068460FF08DFA08E0BE
:1064B000386822463146406E0368284698470FF0F8
:1064C000FDF90028F4D102F017FABDE8FC810000C4
:1064D000D00700202DE9F0411C4615460E46074620
:1064E00000F068FB0C480168C86C096D074405445E
:1064F0000E440C4400200FF067FA07E023462A46BA
:1065000031463846FCF72EF80FF0D8F90028F5D1BF
:10651000BDE8F04102F0F0B9D00700207CB50C4690
:10652000064600F047FB0F4D2868C16C006D0E4415
:106530000444ADF80460ADF80060ADF80640ADF875
:10654000024068460FF040FA07E028682146406E96
:106550004268304690470FF0B1F90028F5D102F0BB
:10656000CBF97CBDD00700202DE9FC411C46164626
:106570000D46074600F01EFB1A480168087ECA6CEB
:10658000096D17440D440C44401E391A1644ADF8E9
:1065900000103118ADF80410291A2044ADF8060097
:1065A000ADF8021068460FF00FFA15E032462946A2
:1065B000384605F063FE32462146384605F05EFE59
:1065C000621E691C384605F01DFF621E691C3046BC
:1065D00005F018FF0FF072F90028E7D102F08CF9EE
:1065E000BDE8FC81D00700202DE9FE439946144602
:1065F0000D460646DDF8288000F0DCFA12480168F6
:10660000C86C096D87194E19051901EB0904ADF81D
:106610000470ADF80850ADF80660ADF80A4001A866
:106620000FF0D2F909E023462A4631463846CDF824
:10663000008016F0CFF80FF041F90028F3D102F0F6
:106640005BF9BDE8FE830000D007002070B58EB076
:1066500015460E46044600F0ADFA214606A803F0A2
:1066600007F9BDF81A30642B0CD1002000900AAB5A
:1066700001AA214606A802F077FB2A46314601A866
:10668000FFF73EFD02F038F90EB070BD7CB5144640
:106690000D46064600F08EFA0F480068C16C006D8A
:1066A0000E4405440444ADF80060ADF80460ADF854
:1066B0000250ADF8064068460FF086F906E0224623
:1066C0002946304605F09EFE0FF0F8F80028F6D176
:1066D00002F012F97CBD0000D007002070B51B4C01
:1066E00005466069E0B904F12401194808600846CC
:1066F00003F0EEF8012001F00FFCC0B201F00CFC39
:10670000144900231A4601F11800FFF7E9F9606106
:1067100006F073F8C01DC008E061FEF7F1FC2061CF
:106720000D4955B1E06808B1012070BD0A68E2600A
:10673000084A00204C320A6070BDE26822B1012094
:106740000A600021E16070BD002070BD2C080020AF
:10675000B118020898B50B083C0E002010B50024B3
:1067600000E0012400F004F80028FAD1204610BD12
:10677000094810B50068002410B1804700B1012419
:106780000DF04CFE00B101240448006810B18047B0
:1067900000B10124204610BDF4070020F0070020BE
:1067A0002DE9FC411C4615460E46074600F002FA4C
:1067B00010480068C16C006D0F4406440D44044449
:1067C000ADF80070ADF80450ADF80260ADF80640C9
:1067D00068460FF0F9F807E023462A463146384666
:1067E00005F03EFF0FF06AF80028F5D102F084F8BA
:1067F000BDE8FC81D0070020B0F90630B0F90420D4
:10680000B0F90210B0F90000FFF7CABF2DE9F04F50
:1068100087B01C4615460E46074600F0CBF92F48B8
:10682000016802A8CA6C096D02EB070A02EB0509B0
:106830000E4401EB0408ADF808A0ADF80C90ADF8DB
:106840000A60ADF80E800FF0BFF8E0B3A8EB0600C9
:10685000401C0590109C0598B0EB440F32DBA9EB6F
:106860000A00401CB0EB440F2CDB04FB04F027466D
:10687000354606EB040B04901AE0049807FB17005A
:1068800003F055F90AEB0401091A0191A9EB04017F
:106890000844024600902946019805F0EFFCDDE926
:1068A0000020A91BA8EB010105F0E8FC6D1C7F1E70
:1068B000AB45E2DAA8EB04034A46294650465B1E84
:1068C00005F0CEFE00E003E00EF0F8FF0028C1D195
:1068D00002F012F807B0BDE8F08F0000D0070020EA
:1068E00008B50B46002805D0009281888268C088D0
:1068F00000F001F808BD10B50828029C30D008DC73
:1069000004FB01F401280AD0022813D0042804D182
:106910001CE0102828D020282CD0002010BD04EB2B
:10692000D30003F00701105CC1F10701C84000F07B
:10693000010010BD04EB93000621105C01EA430145
:10694000C1F10601C84000F0030010BD04EB530084
:10695000D907105C02D000F00F0010BD000910BD77
:1069600004FB0130105C10BD481004FB003032F80D
:10697000100010BD881004FB003052F8200010BD3C
:10698000034951F82000C1688A6A082110470000B5
:10699000E807002010B500F00DF905F099FE05F0AC
:1069A0007BFF044601F0A8FF204610BD10B5044649
:1069B00000F000F9054800210068C06942682046DF
:1069C0009047044601F098FF204610BDD0070020F4
:1069D00070B50C46054600F0EDF806482146006803
:1069E000C069426828469047044601F085FF20466A
:1069F00070BD0000D0070020002801D00DF06CBD54
:106A0000704710B500F0D6F805F06AFE05F044FFB7
:106A1000044601F071FF204610BD0000002102284D
:106A200002D2024951F8201008467047F00D0020AC
:106A300010B500F0BFF804480068C069447E01F05A
:106A40005BFF204610BD0000D007002010B500F00D
:106A5000B1F802F061FD044601F04EFF204610BD82
:106A600070B514460D46064600F0A4F822462946A5
:106A7000304605F0A9FE10B1002028602060BDE876
:106A8000704001F039BF000010B500F093F80348E2
:106A90000068847E01F030FF204610BDD007002042
:106AA00070B50C46054600F085F82146284602F0F0
:106AB00091FDBDE8704001F01FBF10B5044602F023
:106AC0007BFD01462046BDE8104002F02FBD01F0DD
:106AD00055BF0000034835210170332181703021FA
:106AE000C17070476008002010B5002400F062F803
:106AF0000B48006890F82C1001F00C01042904D018
:106B0000082906D00C2907D103E0C069047E641E61
:106B100002E0C069007E440801F0EEFE204610BD90
:106B2000D0070020417EC07E11FB00F07047017E3F
:106B3000C07E11FB00F07047024951F82000006947
:106B400000687047E8070020024951F820000069FA
:106B500040687047E807002070B50D46044600F015
:106B600029F8204619F07EFA0446284619F082FAE0
:106B7000044301F0C1FE204670BD000010B502F0D4
:106B80001DF80A492E20087001F0FEFE084819F091
:106B90003FFD05F0A7FE04460021084601F08AFAF1
:106BA0000EF058F8FEF798F8204610BDC4070020F4
:106BB000ECE7002070B5184CE06820B101F0DBFE76
:106BC0006168884204D001F0E1FE01F0D4FE60600B
:106BD000E068401CE06001281CD119F0D7F8054698
:106BE0002068854216D0002813DBFFF707F801461E
:106BF0002068C0EB0012206900EBC2025167C5EBB0
:106C00000511064A00EBC100011D1160406FFEF73F
:106C1000E9FF256070BD0000F80D0020D0070020BE
:106C200010B5011E01DD024600E04A42064B01207C
:106C300053F82040944202D8401C0A28F8DB00296F
:106C400000DA401C10BD000044130C0838B50400E5
:106C500011D0FFF7AFFF2046FEF7EAFA43F6FF71C7
:106C600000908180C1804942018141816846FEF7E0
:106C700049FB01F041FE38BD38B5154800220068D7
:106C8000437C144850F8230001691348FEF728FF9D
:106C9000040015D01820FEF7CEF9050012D0FFF73A
:106CA00089FF2846A560FEF7C3FA009004602846D5
:106CB000FFF7CCFF6846FEF725FB01F01DFE04E060
:106CC000002038BD2046FEF747FF284638BD0000AB
:106CD000D0070020E807002008200C0838B504463B
:106CE0000E480068006EA04201D101F0EBF8FFF7FA
:106CF00061FF2046FEF79CFA009005686846FEF7A3
:106D000001FB2046FEF7B6F92846FEF774FF284639
:106D1000FEF722FF01F0F0FD38BD0000D007002093
:106D200038B50C46050013D0FFF744FF74B1284670
:106D3000FEF77EFA009081882180C18861800189F8
:106D4000A1804089E0806846FEF7DCFA01F0D4FDBE
:106D500038BD000038B5040018D00DF07BFA0D4D99
:106D600028680466FFF726FF2046FEF761FA0090C8
:106D70000068FEF7F3FE2968002048616846FEF7C8
:106D8000C1FA01F0B9FD06F0C5F838BD01F09AF876
:106D900038BD0000D00700201CB5040004D10E4807
:106DA0000068046E002C16D0FFF704FF2046FEF7A3
:106DB0003FFA009044696846FEF7A4FA4CB12046B9
:106DC000FEF736FA019081688968884701A8FEF7C6
:106DD00099FA01F091FD1CBDD007002001490A4637
:106DE00000F002B801F0FFFF2DE9F04387B015462F
:106DF0000C465FEA000846D0FFF7DCFE002001F0F9
:106E000001F9814621480068066E4046FEF710FAF7
:106E100000900068806901F063F8074640F6FF7053
:106E2000C44204D10098B0F90440B0F9065000986B
:106E3000611E0289ADF804401144ADF80810418983
:106E4000681E0844ADF80650ADF80A000DF0AEF823
:106E50006846FEF757FA01A80EF0B6FD06E02A468E
:106E60002146404600F0A0FC0EF028FD0028F6D197
:106E7000384601F035F8304600F09CFA484601F0FB
:106E8000C1F801F039FD07B0BDE8F083D00700205C
:106E900038B50024009400F005F838BD01210174D4
:106EA000002070472DE9FE4F984691468A4683465A
:106EB00000270C9EFFF77EFE184819490068407CA9
:106EC00051F82040E1680968042903D02468002CA7
:106ED000F8D100E01CB9FEF7C5FE04001BD0E06845
:106EE0000121C26A20469047050011D02469A0689C
:106EF0008047401C02D10B4C46F001060096CDE9BC
:106F0000015443464A465146584600F0EDFA0746BA
:106F100001F0F2FC3846BDE8FE8F0000D0070020EB
:106F2000E807002094B60B082DE9FE4F9846DDE9EE
:106F30000D650C9F91468A46834600246DB1FFF78C
:106F400039FE0097CDE9016543464A465146584609
:106F500000F0CAFA044601F0CFFC2046BDE8FE8FDF
:106F600038B504001CD0FFF725FE0E480068006EFF
:106F7000A04201D100F0A6FF2046FEF759F900908B
:106F8000406908B101F0A1FC00980068FEF7E4FD3B
:106F90006846FEF7B7F92046FEF76CF801F0ACFC46
:106FA00038BD0000D0070020704700002DE9FF4FDA
:106FB000DFF83891074683B0D9F800009A468B462F
:106FC000447C4B4800570128204606DD05F02CFC88
:106FD0000546204605F034FC05E005F00BFC0546AF
:106FE000204605F015FC04461FB302A901A8FFF7CF
:106FF00057FDB7F90000002800DA0020B7F9026059
:107000008046002E00DA002601984119B7F90400E5
:10701000491E1AF013F9054602980119B7F906003E
:10702000491E1AF00BF9A5EB0802841B521C641CC4
:1070300003E04FF0000846462A46BAF1000F01D19E
:10704000C4F1000A002A4FDD002C4DDD109800909D
:10705000534631464046FFF725FF5FEA000A10D04D
:1070600000F062F90746A04206D0D9F80000806C13
:1070700010B132210FF058F8504600F09BF900256E
:1070800021E0594605988847012007B0BDE8F08FF8
:10709000611BB94202DA504600F070F93DB1721935
:1070A0004146504600F0B4F95046FFF775FE594688
:1070B000059888470F48016809B100208847504665
:1070C000FFF78CFE3D44A542E2DB5046FFF748FF48
:1070D000002000F06FF9A74206D0D9F80000806CBC
:1070E00010B133210FF020F80020CEE7D0070020A8
:1070F00008080020540E00202DE9FF4F81B01646ED
:107100000D460446FFF7B8FD5FEA00093DD0FFF7E2
:1071100021FE01276F70217C04F1080891B12F70C6
:107120000498B04721464846FFF7FAFD4846FFF766
:107130008DFD002028700498B04741464846FFF76F
:10714000EFFD12E00498B04721464846FFF7E8FDFE
:107150002146D4F800A0D4F804B04246084600F016
:10716000C1FBC4F808A0C4F80CB04846FFF7B6FD50
:107170004FF0000885F801802F7043460097314694
:107180002046049AFFF712FF18B1012005B0BDE8B0
:10719000F08F85F8008084F810800020F6E700006A
:1071A0002DE9F04F85B09946DDE90F460E9F9246D6
:1071B0000D468346002C35D0FFF7FCFC1B48002E03
:1071C0000068C16C01EB0508016D0FFA88F001EB56
:1071D0000A05ADF80C0001DA314600E00021621E1C
:1071E0002944104409B2ADF81000ADF80E1048461D
:1071F000B94500DC3846401E0844ADF8120003A82B
:107200000EF0E2FB0AE00097CDE901464B462A4624
:107210004146584615F00EFA0EF050FB0028F2D108
:1072200001F06AFB05B0BDE8F08F0000D007002038
:1072300038B505004FF0000411D0FFF7BBFC28461D
:10724000FDF7F6FF0090006800698068804706F04F
:1072500081FA04466846FEF755F801F04DFB2046DA
:1072600038BD38B504000ED0FFF7A4FC2046FDF76A
:10727000DFFF00F1180400906846FEF743F801F0C4
:107280003BFB204638BD002038BD000038B5044621
:107290000025FFF78FFC1CB908480068046E44B154
:1072A0002046FDF7C5FF0090B0F904506846FEF790
:1072B00029F801F021FB284638BD0000D007002046
:1072C00038B504460025FFF775FC1CB9084800686E
:1072D000046E44B12046FDF7ABFF0090B0F90850B2
:1072E0006846FEF70FF801F007FB284638BD00009E
:1072F000D007002038B504460025FFF75BFC1CB919
:1073000008480068046E44B12046FDF791FF0090E4
:10731000B0F906506846FDF7F5FF01F0EDFA284692
:1073200038BD0000D007002038B504460025FFF71F
:1073300041FC1CB908480068046E44B12046FDF7C2
:1073400077FF0090B0F90A506846FDF7DBFF01F0C7
:10735000D3FA284638BD0000D007002070B5054696
:107360000024284610F04AFC641C18B1BDE87040A7
:1073700000F080B8052CF4DB70BD000038B50C4679
:10738000050004D10A480068056E002D0FD0FFF7F4
:1073900011FC2846FDF74CFF0090B0F90A10A142FD
:1073A00000DD44816846FDF7ADFF01F0A5FA38BD68
:1073B000D0070020F8B50546FFF7FCFB104E3068FB
:1073C000046ECDB10CB100F07DFD0CF043FF2846FA
:1073D000FDF72EFF009031680D660068FEF7BEFBDA
:1073E0006846FDF78FFF05F0E7FF05F093FD00BF4E
:1073F00001F082FA2046F8BD00F064FDF8E70000D5
:10740000D0070020014AC2E901017047F0080020BE
:107410007CB515460E46040004D115480068046E7C
:10742000002C24D0FFF7C6FB2046FDF701FF2DB24C
:107430000090C58034B2848005F06CFD00984069EE
:1074400080B1FDF7F5FE009A0190B2F90810818035
:10745000B2F90A20C28011B10AB10480458001A8A6
:10746000FDF750FF6846FDF74DFF01F045FA7CBD82
:10747000D007002001490A4600F002B801F0FFFFE2
:107480007FB515460C4606002DD0FFF793FB30461E
:10749000FDF7CEFE40F6FF710190CC4203D1B0F96A
:1074A0000440B0F906500289611E1144ADF808404D
:1074B000ADF80C104189681E0844ADF80E00ADF817
:1074C0000A5001A8FDF71EFF02A80EF07DFA06E0A3
:1074D0002A462146304600F04FF90EF0EFF9002819
:1074E000F6D101F009FA7FBD2DE9FF4FDFF8E8B0D2
:1074F00083B01C46DBF80010DDE9106092464FF0C7
:1075000000084B7C42461299FEF7EAFA050060D06B
:1075100028698068804706F01DF981460AFB09F159
:10752000C91DCF08FDF7BEFEF10705D1C11700EB5D
:107530009170801000EB4000002C09DC1FB118385E
:10754000B0FBF7F000E000206442A04200DC0446FB
:10755000F00707D10090DDE903012346524601F010
:1075600039F98046002C03DC2846FEF7F5FA30E0B6
:1075700004FB07F01830F10702D0FDF74DFD01E0E4
:10758000FDF759FD06001CD0FDF752FE0190056085
:10759000039981800499C180A0F808A04481C0F8B3
:1075A0001480C0E9037901A8FDF7ACFE1298AE6023
:1075B0002861DBF80000407CA861304607B0BDE8D8
:1075C000F08F2846FEF7C8FA5FEA080001D0FDF701
:1075D00051FD0020F2E70000D007002001490860BB
:1075E00070470000540E00202DE9F74F8EB014466E
:1075F00089460E98FDF71CFE0990B0F908B0B0F965
:107600000A600068006940680C9009A8FDF77AFEDE
:10761000564D574F2868407C57F82000C1688A6A49
:10762000082190470790182801D320200790286848
:10763000407C57F820000069069003C80B904D4825
:10764000814201D0012000E000200A90002001F0DA
:1076500000FA00287DD1286809EB0B01B0F90C2055
:10766000891A491E002902DDABEB010500E05D46E9
:10767000B0F90810494505DDA1EB090189446D1AEF
:10768000089101E000210891002D6BDDB0F90E207A
:10769000A119891A491E002902DDA6EB010800E0A4
:1076A000B046B0F90A00A04204DD061B3444A8EB42
:1076B000060800E00026B8F1000F53DD089801909D
:1076C0000DA95F46DDF830A00E980091FFF7C9FDC7
:1076D000774300EB870101982B4601EB800200996C
:1076E0004846CDE900A1214601F064FC0090002845
:1076F00038D00A98E8B1DDE906322946009801F051
:1077000057FAB0B90698009FDA46D0F810C0BCF11D
:10771000000F05D004235A4639463846E04708E0B2
:107720000B993868884701C7AAF101005FEA000A8F
:10773000F6D100990020079ACDE9030105900120B8
:107740000090CDE9010221460346641C2A464846C2
:1077500000E007E004F090FCA8F10100761C5FEA6D
:107760000008ABD111B0BDE8F08F0000D0070020B9
:10777000E8070020B7C80008F8B515460E460746CA
:10778000FDF756FD009000681621C068426A00208F
:10779000904704466846FDF7B5FD002C03D02A4605
:1077A00031463846A047F8BDF8B516460F460500E5
:1077B00012D0FDF73DFD009044696846FDF7A2FD3B
:1077C0002846FFF735FD0346082800DD2CB1324678
:1077D000394628461EF04EFAF8BD3246394628464C
:1077E0001EF0E8FBF8BD000002480068407C00F095
:1077F00003B80000D0070020F8B51D49096809B199
:10780000002200E002461B498D56012D2EDD18494D
:10781000143151F822305B1C41F82230012B25D164
:10782000A1F108030026103953F8224051F8221024
:1078300053F822707F1C43F82270AF4201D143F805
:10784000226053F822708F42F2D03D46FEF70AFACA
:10785000009000280AD0C0682121426A68469047FB
:10786000030003D02A46214600989847F8BD00003F
:10787000BC0D00200808002002480068407C00F091
:1078800003B80000D007002038B51449096809B1D1
:10789000002200E002461249895601291CDD0F49E9
:1078A000143151F822305B1E41F8223014D10839CE
:1078B00051F82240103141F82240FEF7D3F90090F0
:1078C000002809D0C0682221426A68469047020019
:1078D00002D021460098904738BD0000BC0D002022
:1078E0000808002010B5002821D009B30AB3B1F967
:1078F0000040B2F900309C4200DA23460380B1F91F
:107900000240B2F902309C4200DA23464380B1F9CA
:107910000440B2F904309C4200DD23468380B1F973
:107920000610B2F90620914200DC1146C18010BD5C
:1079300011460A6802604968416010BD00280BD0FA
:1079400003880B4403808388194481804188114453
:107950004180C1881144C1807047000070B50E4D50
:107960000446D5E90001884209D10C49884201D179
:107970003C3000E00C3807C884E8070006E090E8D7
:107980000E0084E80E0018F0E5FC2860207A00283C
:1079900000D0012070BD00006808002084E80020AD
:1079A0000448D0E90010814201D101207047002035
:1079B0007047000068080020054A10B503491160AF
:1079C0001DF0CCFDBDE8104000F0C2BB69480108C5
:1079D000F807002070B50025FFF7ECF8094CD4E952
:1079E000002082420AD0D2E90056104618F0CAFCA4
:1079F0002060314628460DF043FB012500F07CFF56
:107A0000284670BDE00D00202DE9FC41154DDDE953
:107A100008742D68B5F90860864200DD3046B5F976
:107A20000C60964200DA3246824219DBB5F90A60F0
:107A30008E4200DD3146B5F90E509D4200DA2B46EC
:107A40008B420DDB00E02C46E5682D6825B1042D46
:107A500002D02568002DF6D1CDE9007405F040F87C
:107A6000BDE8FC81D0070020B0F90220B1F9063052
:107A70009A4213DCB1F90220B0F906309A420DDCCB
:107A8000B0F90020B1F904309A4207DCB1F90010D6
:107A9000B0F90400814201DC0120704700207047EA
:107AA0000146024870220068F8F742BED007002065
:107AB000DFED1A0A2DE9F04120EE200ADFED180A69
:107AC0000646904680EE201A0D46BDEEC10A10EE25
:107AD000107A384601F042F90446384601F06EFF4C
:107AE0000146002215E000BF05EB820335F92200B4
:107AF000B3F9023000FB04F703FB0177634300FB9B
:107B000011303F1426F82270001406EB8203521C39
:107B100058804245E8DBBDE8F081000000C82F48EE
:107B2000DA0F494038B515460090C8610C466846E2
:107B300001F08CFE1649884228D1684601F07CFE8F
:107B40002076684601F078FE6076684601F074FEA3
:107B500084F82000684601F06FFE84F82100684632
:107B600001F06AFE84F822000120A076E076286801
:107B7000206068686060A868A060E868E0602869C4
:107B8000206168696061204600F048FA38BD000055
:107B90004755495038B50D4601460C48002410227F
:107BA0000068C06900F030F8009068B135B16846EF
:107BB00001F042FE28600098801D00E0083000902F
:107BC000684601F039FE04B2204638BDD0070020D7
:107BD00038B5C0690C46001D0090684601F02CFEC7
:107BE000A070684601F028FEE070684601F024FEAF
:107BF00020710120208038BD08B5C0690E3000908A
:107C0000684601F019FE08BD2DE9F8439146884603
:107C100006460024FFF7F0FFF1690546103101EB3D
:107C200085070091684601F007FE064666F30F04DB
:107C3000684601F001FE60F31F44464508D8404500
:107C400006D3A1B2A8EB010109FB0170BDE8F883DE
:107C5000801B401C09FB00776D1EE3D10020F5E777
:107C6000054810B500681022C069FFF7CDFF002855
:107C700000D0012010BD0000D007002008B502236D
:107C80000093034B1B685B7C00F0B4F808BD000058
:107C9000D007002038B5040020D0FEF78BFF204627
:107CA0001DF004FE20461DF077FE2046FDF7C0FAC9
:107CB00000900068FDF7FCF90098C068FDF7DAF95C
:107CC0000098C069FDF7D6F96846FDF71BFB204612
:107CD000FDF7D0F9BDE8384000F00EBE38BD38B52C
:107CE000040018D0FEF766FF2046FDF7A1FA0090C9
:107CF000007C80070AD520461DF0D8FD20461DF0E7
:107D00004BFE0098018A21F0020101826846FDF7CE
:107D1000F9FA00F0F1FD38BD2DE9FF4F81B09A4628
:107D2000019893460D46012458B3FEF743FF01988E
:107D3000FDF77EFA00904169B0F90460B0F9067071
:107D4000B1F80090B1F802806846FDF7DBFA2888A8
:107D5000484514D16988414511D1E86830B12946B8
:107D6000019810F051FC040001D008E00024AAEBB7
:107D70000703ABEB0602294601981CF0CBF800F094
:107D8000BBFD05B02046BDE8F08F70B515460E4628
:107D900004000AD0FEF70EFF2A46314620461CF0AA
:107DA00019FDBDE8704000F0A7BD70BD38B50400F6
:107DB0001ED0FEF7FFFE2046FDF73AFA0090007C49
:107DC000800710D4204618F0FAFE6846FDF79AFAAC
:107DD00020461DF093FA2046FDF72AFA0090018A0A
:107DE00041F0020101826846FDF78CFA00F084FD43
:107DF00038BD00002DE9F84304460088089F9146ED
:107E00008846E8B36088D8B3E06818B18068002875
:107E10003BD002E0E088202836D107F001020021A3
:107E20002348FDF75DFE05002ED02088860060887F
:107E30004643FEF7BFFE06F12000FDF7FCF8060002
:107E400025D03046AE60FDF7F3F90090078244611B
:107E5000A0F80480A0F80690238808EB0301491ECF
:107E6000018161884944491E418105606846FDF7EA
:107E700049FAE06878B12146304610F0C5FB00E0D1
:107E800002E040B100F038FD0020BDE8F88328464C
:107E9000FDF762FEF6E7B80705D5304618F08FFE0D
:107EA00030461DF02BFA00F027FD3046EDE70000CC
:107EB00060B60B08024970220968F8F739BC000067
:107EC000D007002010B5FEF775FE04F0D9FF05F0CD
:107ED00073FA0CF06BF8BDE8104000F00DBD000027
:107EE00070B50B4D04462868467CFEF763FE022CF5
:107EF00009D22046FDF7B6FE28B128684474FFF782
:107F0000E1FF0448046000F0F7FC304670BD00005B
:107F1000D0070020DC0C00202DE9F041194E0500AF
:107F200019493068194F407C51F820108C6917F8B6
:107F3000048003D018F020FB60B11FE00521FDF79D
:107F40007FFE06001AD00020FFF748FB3046FDF701
:107F500052FE12E030680521407CFDF771FE60B9E9
:107F6000AFF24B00FFF73AFB30680849407C143110
:107F700051F8200008B1FDF7F1FD3D554046BDE840
:107F8000F0810000D0070020E807002074080020DE
:107F900010B50446FEF70EFE204604F091FFBDE842
:107FA000104000F0A9BC10B50446FEF703FE2046C1
:107FB0000DF02CFB044600F09FFC204610BD10B5D0
:107FC0000446FEF7F7FD204604F0B2FFBDE810407E
:107FD00000F092BC10B50446FEF7ECFD05496FF0C9
:107FE000704009680863204604F0A8FFBDE810400F
:107FF00000F082BCD0070020014988607047000073
:10800000C407002010B50446FEF7D4FD204605F055
:1080100023F8044600F070FC204610BD70B50446FD
:10802000FEF7C8FD04480068C56904B1C46100F0EA
:1080300063FC284670BD0000D007002070B51446D0
:108040000D460646FEF7B6FD22462946304605F0A7
:1080500089F8044600F050FC204670BD70B5144607
:108060000D460646FEF7A6FD22462946304605F097
:108070008FF8044600F040FC204670BD70B50C46F9
:108080000546FEF797FD2146284605F0ADF8044663
:1080900000F032FC204670BD70B50546FEF78AFD43
:1080A00003480068847E857600F026FC204670BD7B
:1080B000D007002070B50C460546FEF77BFD094849
:1080C000224605800848048008480068417C08482A
:1080D00050F82100C1680B6A29469847BDE87040F6
:1080E00000F00ABC1008002012080020D007002071
:1080F000E807002070B50546FEF75CFD0348006800
:10810000047E057600F0F8FB204670BDD007002005
:1081100070B50446FEF74EFD04480068B0F92C50D7
:10812000848500F0E9FB284670BD0000D0070020E0
:1081300070B50446FEF73EFD04480068B0F92A50C9
:10814000448500F0D9FB284670BD0000D007002010
:1081500002480068002800D000477047300E002019
:1081600002498A6802B98860FFF7F2BFE00D00207B
:108170002DE9FC41984616460D460746FEF71AFDC6
:108180001C20FCF758FF04002DD01C491A48086039
:108190002046FDF74DF8009015B9FEF798FC05460E
:1081A00000980760C0E90465A0F80C806846FDF7F8
:1081B000A9F8204618F00EFD114DA86840B901201D
:1081C000A86005F10C010F480860084601F080FB2B
:1081D0002046FDF72DF80190296849B181602C6097
:1081E00001A8FDF78FF800F087FB2046BDE8FC8171
:1081F00000212C608160F3E731820008F407002041
:10820000140E00207519020810B504000ED0FEF7F8
:10821000D1FC20461BF0F2FC20461DF0C9FB204695
:10822000FCF728FFBDE8104000F066BB10BD000061
:108230002DE9F04188B00025FEF7BCFC184C6768BA
:1082400025E000BFFEF743FC06466068FCF7F0FF40
:1082500001904169891B002915DC6168029604912F
:108260000169039146686660D0F8008001A8FDF7B7
:1082700049F802A84146884766B160680125B842BE
:1082800005D1002506E001A8FDF73CF802E0606892
:108290000028D7D100F030FB08B02846BDE8F081B7
:1082A000140E002038B50C46050011D0FEF782FCF4
:1082B0002846FCF7BDFF00908089204201D00124B0
:1082C00000E000246846FDF71DF800F015FB00E013
:1082D0000124204638BD38B5040017D0FEF76AFCEB
:1082E0002046FCF7A5FF0090FEF7F1FB0146009841
:1082F0008269114441616846FDF704F820461DF08B
:1083000057FB204618F066FC00F0F6FA38BD38B589
:108310000C4605000BD0FEF74DFC2846FCF788FF05
:10832000009084616846FCF7EDFF00F0E5FA38BD87
:1083300038B50546002028600648046844B1204648
:10834000FCF776FF0090006928606846FCF7DAFFCA
:10835000204638BD140E002038B504004FF0000050
:108360000D46086011D02046FCF762FF009084683B
:1083700044B16846FCF7C6FF2046FCF759FF009061
:10838000006928606846FCF7BDFF204638BD000044
:108390002DE9F84FDFF898800546264F98F8180029
:1083A0008B46410738680A9E9946407C924607D41E
:1083B00004F03AFA04463868407C04F041FA06E0DA
:1083C00004F03EFA04463868407C04F02DFA002799
:1083D00085B1441EB9EB060000D54042142806DBE7
:1083E0005146BBEB0A0000D54042142804DA0120B4
:1083F000BDE8F88F641EEDE70A464B4659463846FD
:10840000009618F0E1FC0C4F4B46524647F83500F9
:1084100059462046009618F0D7FC07EBC501486086
:108420001CF094F801210020C8F81C10E0E70000BF
:1084300090080020D0070020CCE800202DE9F0476C
:108440004D4D4E4E0024E86950B9E86834607460C0
:108450004107B4604107F4601CF078F80120E8613E
:108460002878C8B100F0D4F8A846686000F0CEF8CB
:108470006968286A81420BDBD8F824204046914283
:1084800006DC836A82689A4202DBC36A9A420DDD87
:108490004FF0FF3001466AE000F0E0F8A86000F01D
:1084A000B6F82878401C2870BDE8F087326898F844
:1084B0001800334F8D1A40073868407C02D404F00E
:1084C000B3F901E004F0BCF9D6E90021401E4543B0
:1084D000B146891A95FBF1F6D8F80820D9F80800BA
:1084E000151A98F8180040073868407C02D404F048
:1084F000A7F901E004F098F9401E4543D9E90201CB
:10850000081A95FBF0F598F8180040073868407C89
:1085100017D404F089F981463868407C04F090F95A
:10852000D8F818200146D00703D0A9EB0600401E5A
:1085300000E03046920702D5491B491E17E0294644
:1085400015E004F07DF981463868407C04F06CF950
:10855000D8F81820D10703D0A9EB0601491E00E086
:108560003146920702D5401B401E00E028461DF010
:1085700029F888F8004097E790080020CCE8002010
:10858000D007002001498861704700009008002052
:10859000074A002806DB002904DB01231372C2E925
:1085A000000101E000201072014800F003B8000053
:1085B00058EA002010B504460C220849F7F7B6FF28
:1085C000002809D0054894E80E0080E80E002046F7
:1085D000BDE81040FFF7F0B910BD00007CEA0020B4
:1085E000094B30B41A68821A00D552425C680C1BE1
:1085F00000D564422244022A04DDC3E9000130BCF4
:10860000FFF7C6BF30BC7047280E00207047704788
:10861000104810B58088A0F5AA41103914D0A0F5F3
:10862000C851633910D0A0F5E04184390CD0A0F5D1
:108630008641423908D0A0F5E041163904D0BDE8A2
:108640001040D0200AF0BEBC034C0020616888476F
:10865000A08910BD401000203C000020104810B53B
:108660008088A0F5AA41103914D0A0F5C85163390B
:1086700010D0A0F5E04184390CD0A0F586414239F4
:1086800008D0A0F5E041163904D0BDE81040902094
:108690000AF098BC034C002061688847E08A10BD4E
:1086A000401000203C0000202DE9F041084E044617
:1086B0000568306801682846884707463068416881
:1086C00028468847284420603846BDE8F0810000ED
:1086D000D40700202DE9F0410C4606460025064F40
:1086E00005E0386841683046884706440544641E02
:1086F000F7D22846BDE8F081D40700202DE9F041EB
:108700001E46069C1746884605463A46A8687F1CC2
:108710003346D0F804C041462846E047641EF4D1F1
:10872000BDE8F08170B5B0F90040091BB0F9044014
:108730008C422CDD00F11404B0F902500069521B88
:1087400002FB0040CA1800EBE104521ED010B0EB4F
:10875000E10501F007034FF0FF0102F0070221FAE3
:1087600003F0C2F1070201FA02F1CEB221780FD074
:1087700001436D1E04F8011B002D05DDFF22294673
:108780002046F8F707F82C4420783043207070BD5D
:1087900030400143217070BD10B5B0F90030B0F920
:1087A0000240C91A00F114030069121B02FB0030D9
:1087B00000EBE10001F0070302788021D9400A4371
:1087C000027010BDB0F90610026951431430F8F779
:1087D0000BB800002DE9F843804602F10F000011AC
:1087E000470003FB07F01C46154689461430FCF78A
:1087F00022FC060018D0FEF7DDF93046FCF718FD24
:108800000090A0F80080A0F802908580C4800749FD
:1088100081600121818107616846FCF773FD00F0EA
:108820006BF83046BDE8F8830020FBE73C200C08DD
:1088300070B5B0F90660B0F904400B6800F114059A
:1088400096421BDD0069A34202FB005000EBE302ED
:1088500014DA641EE010A0EBE30512F8010B03F03C
:108860000704A040C4B206E045B1083312F8014B3A
:1088700023F007036D1E002CF6D004E0002070BD2D
:108880006006040E5B1C2006FAD5FF2C07D01846A4
:1088900002E06406240E401C6606FAD400E0D81DEF
:1088A000C443640705D006E012F8014BFF2C09D140
:1088B00008306D1EF8D5C01A401C0B6070BD6206F2
:1088C000140E401C2206FAD4F5E738B50546FEF72B
:1088D00071F92846FCF7ACFC00908189491E0CB266
:1088E00084816846FCF70EFD14B92846FCF7C2FBEC
:1088F00000F002F838BD00000348C168491EC1609D
:1089000001D100F044B87047F80D00202DE9F04186
:1089100016460F4605460024FEF74CF93246394606
:10892000284601F085F8054408B1641CF6E7FFF716
:10893000E3FF2046BDE8F08110B54FF40004214666
:1089400001201EF0DDFC2146FCF78CFB8020FCF7AB
:10895000C3FCBDE810400148FFF74EBBE8BD0B0863
:1089600003490A6810440A68821A002AFBDC70472F
:108970009400002070470020704700000148006804
:1089800070470000940000207047704770477047A0
:1089900030B54FF480324FF0FF31904201DC0028B7
:1089A00001DA084630BD904202D14FF4B40030BD28
:1089B00000235924114A01E0582B0AD0E11A03EB95
:1089C000510100BF02EB81056D68854203D20B4661
:1089D000F2E75921F6E752F82140844201D90C46CA
:1089E000EAE702EB810322465B689B1A001B000446
:1089F000B0FBF3F000EB014030BD00008CB20B087F
:108A00002DE9F04190460C46002802DA4042012749
:108A100000E00027002C02DA4C42012600E000268C
:108A2000404304FB040001F082F805000FD020044D
:108A3000B0FBF5F0FFF7ACFF0FB1C0F534000EB19D
:108A4000C0F1B470B8F1000F01D0C8F80050BDE813
:108A5000F0810EB508B102AA00E00022002301A9AE
:108A6000684600F00BFD0EBD074910B50C7818B133
:108A700001200870801E03E0002008706FF07F4026
:108A800003F046FA204610BD0A08002010B5082A57
:108A90000EDC0346012A18D0022A56D0042A76D0CA
:108AA00010F8042B03F8012B491EF9D1012010BD49
:108AB000102A08DC4FEA000230F8043B22F8023B9F
:108AC000491EF9D1F2E7002010BD10F8042BD2079F
:108AD000120E491E34D010F8044B491E04F0010454
:108AE00042EA84122CD010F8044B491E04F0010411
:108AF00042EA441224D010F8044B491E04F0010449
:108B000042EA04121CD010F8044B491E04F0010480
:108B100042EAC40214D010F8044B491E04F00104C8
:108B200042EA84020CD010F8044B491E04F0010400
:108B300042EA440204D010F8044B04F0010422433A
:108B400003F8012B0029C0D1B0E710F8042B9207DD
:108B5000120E491E15D010F8044B491E04F00304F0
:108B600042EA04120DD010F8044B491E04F003042D
:108B700042EA840205D010F8044B04F003042243B7
:108B8000491E03F8012B0029DFD18FE7FFE710F81A
:108B9000042B1207120E491E05D010F8044B04F0E6
:108BA0000F042243491E03F8012B0029EFD17DE772
:108BB00038B50024009400F01DF838BD0B4810B5FE
:108BC0008169002910D101218161FFF7B5FEFCF711
:108BD000AFF804F02DFC054905481C310860BDE8DC
:108BE0001040084600F074BE10BD0000C40700200D
:108BF0006D1802082DE9F0410D460699044601B9A9
:108C000001461F68082A09DC0E46012A1AD0022AEA
:108C10005BD0042A7DD0082A13D18DE0102A07DC0E
:108C2000D3F810C00E46BCF1000F04D0022389E037
:108C30000020BDE8F08101CCB84726F8020B6D1E7C
:108C4000F9D189E001CCB847C0074FEA10686D1E22
:108C500036D001CCB84748EA801000F0FF086D1EFE
:108C60002ED001CCB84748EA401000F0FF086D1E36
:108C700026D001CCB84748EA001000F0FF086D1E6E
:108C80001ED001CCB84748EAC00000F0FF086D1EB6
:108C900016D001CCB84748EA800000F0FF086D1EEE
:108CA0000ED001CCB84748EA400000F0FF086D1E26
:108CB00006D001CCB84740EA080000F0FF086D1E5E
:108CC00006F8018B002DBDD146E001CCB8478007E6
:108CD0004FEA10686D1E16D001CCB84748EA001064
:108CE00000F0FF086D1E0ED001CCB84748EA8000A6
:108CF00000F0FF086D1E06D001CCB84740EA08001E
:108D000000F0FF086D1E06F8018B002DDDD123E079
:108D1000FFE701CCB84700074FEA10686D1E06D088
:108D200001CCB84740EA080000F0FF086D1E06F8C5
:108D3000018B002DEDD10FE0D3F810C0BCF1000F76
:108D400004D001232A462046E04705E001CCB8477D
:108D500006F8010B6D1EF9D101206AE701490844AC
:108D600000F02CBE905F010030B54589039CD58092
:108D700005899580858901EB85051035C2E9025387
:108D800085881580C58855801461002B08D0827BAA
:108D90001A718089186008B1103100E000219960D3
:108DA00030BD00007CB5064628480D46006868B115
:108DB00000200CF009FE06E06A46294630460FF016
:108DC00091FB0CF07BFD0028F6D17CBD1068009073
:108DD0001F4C506801902268BDF8000032F84C1F0B
:108DE0000844ADF80000BDF8020091880844ADF8D1
:108DF0000200BDF8040011880844ADF80400BDF875
:108E0000060091880844ADF8060068460CF0DCFDC9
:108E10000EE000BF2068BDF800106A464184BDF82E
:108E200002108184294630460FF05CFB0CF046FDB1
:108E30000028EFD1206830F8221F428D891A018066
:108E40004188C28D891A41807CBD00000C08002039
:108E5000D00700202DE9FF4F85B09A4690460D4679
:108E6000FDF7E6FD4FF00009DDF814B006464C466C
:108E700025B1286800906868019002E06846FDF717
:108E8000BBFD18F00C0F02D05546002713E0BDF9CA
:108E900002402DE029467F1C059800F071FB014639
:108EA0006D1A0598FFF716FC05990844059005A86A
:108EB00000F0AAFB08B9002DECD108F00C00042842
:108EC00004D0082802D00C2812D105E0BDF9060014
:108ED00007FB1604641C0BE0BDF90600BDF9021087
:108EE000401A07FB1600401C00EBD07001EB600439
:108EF0005546CDF814B043E02946059800F040FBF4
:108F000007460146ED1B059800F010FB18F0030121
:108F10000ED0012939D002290DD1BDF90410BDF9B7
:108F20000020891A091A01EBD17102EB610101E0FD
:108F3000BDF900108946174A401E48441268394658
:108F4000A2F822909484ADF80C00A019401EADF850
:108F50000890ADF80E00ADF80A4002AA0598FFF798
:108F600021FF39460598FFF7B5FB059908440590A0
:108F7000FDF75EFD044405A800F046FB002801D182
:108F8000002DB9D109B0BDE8F08FBDF90410091A60
:108F9000491CCFE7D007002049B1002802DAA0EB36
:108FA000610001E000EB610090FBF1F070470020F0
:108FB000704700002DE9FF4F8DB00020DDF86CA058
:108FC000164600901D4604460246CAF8000008AB4B
:108FD00003A902A800F052FA18B1002011B0BDE8B0
:108FE000F08F0898854200DD0546614F0B95614979
:108FF0003868407C51F82010049109690691FDF70A
:10900000BFFC05903868407CFDF79EFD5A498146BB
:10901000884204D05949894501D0012000E0002050
:109020000A9001CE1A9988478346000E079077D0A0
:10903000009870BB0D9800EB04084D480068B0F92B
:109040000800404503DDA0EB0807804600E000274C
:109050000298049900EB840000EB8700CDE9000141
:109060000B990D98421809920E9B40461946521EC4
:10907000FEF7CAFC01200090059818280ADA029829
:10908000DDE9052300EB840000EB8700E91B00F01D
:1090900053F912E00A9880B1029800EB840000EBCB
:1090A00087070998A0EB080849463868884701C730
:1090B000A8F101005FEA0008F6D13148C06980B329
:1090C000DDE9020700EB840007EB8402CDE9020230
:1090D0002B4C361F3046E4692B460299A047FF21EE
:1090E0003068B1EB106F02D10298006804E0029A78
:1090F0001268B1EB126F01D1039A1060029806F169
:109100000406001D02900398001D03906D1EE7D118
:109110000397DAF8000040F00101CAF8001020E0DF
:1091200021E0FFE70798FF2811D0C0F1FF02029865
:1091300050F82410584600F025FB039941F824000C
:10914000DAF8000040F00101CAF8001005E00298CA
:10915000039950F8240041F82400641C6D1E7FF42C
:1091600060AF03983AE7039941F824B0E8E70000BC
:10917000D0070020E8070020B7C80008B5C80008DD
:10918000700D00202DE9F04F85B09B46DDE90F877B
:1091900092460C460546DDF83890FDF70BFD154864
:1091A0000068C16C4E190D19016DABF1010001EBA6
:1091B0000A04ADF810502044ADF80C60ADF8120070
:1091C000ADF80E4003A80CF0FFFB0BE0CDF80090CB
:1091D000CDE901875B4622462946304613F0D2FE90
:1091E0000CF06CFB0028F1D1FFF786FB05B0BDE861
:1091F000F08F0000D00700202DE9FF4F87B00C460C
:10920000DDE91698DDE914BA0546FDF7D3FC1448EC
:10921000099A0168C86C096D471985180E190A98D2
:10922000ADF810700C18ADF81450ADF81260ADF830
:10923000164004A80CF0C8FB0BE0CDE90298CDE97C
:1092400000BA23462A463146384613F01FFF0CF079
:1092500035FB0028F1D1FFF74FFB0BB0BDE8F08FD5
:10926000D0070020F0B500EB8103082A0ADC0125B5
:109270004C1E092A10D2DFE802F00F10263E3E55A0
:1092800055555500102A07DC00EB4100491E30F807
:10929000022D43F8042DF9D1F0BD04F00702C2F10C
:1092A000070200EBE40005FA02F604783440D440EB
:1092B000521C43F8044DA0EBE20022F007042241C7
:1092C000491EF0D1F0BD04F0030200EBA400C2F18E
:1092D000030203240578560004FA06F73D40F540E2
:1092E000521C43F8045DA0EBA20022F003052A41C2
:1092F000491EEFD1F0BD8D4300EB6400C5F10102C2
:109300000F240578960004FA06F73D40F540521CFC
:1093100043F8045DA0EB620022F001052A41491EDA
:10932000EFD1F0BD00EB0100491E10F8012D43F80C
:10933000042DF9D1F0BD00002DE9F05F0C1E16DD03
:109340005E68014600EB8405082A12DC611E012AD2
:1093500026D0022A47D0042A6AD0082A07D1071942
:1093600017F8010DB04745F8040D641EF8D1BDE8AB
:10937000F09F102AFBDC5F693FB12246BC46BDE886
:10938000F04F02235DF804EB604701EB440700BF98
:1093900037F8020DB04745F8040D641EF8D1E6E732
:1093A00000EBE10001F0070710F801A981468020D9
:1093B00020FA07F8B5F104050AEA0800C7F1070129
:1093C000C840B04745F804093FB14FEA48604FEA4A
:1093D00010687F1E641EEFD1C9E719F801A907279D
:1093E0004FF00108F6E700EBA10001F0030710F8C9
:1093F00001A981467900C02020FA01F84FF0060B40
:10940000B5F104050AEA0800ABEB4701C840B047D4
:1094100045F804093FB14FEA88604FEA10687F1EA3
:10942000641EEFD1A3E7032719F801A9B846F7E7AF
:1094300000EB6100012710F801A9A7438146B9009C
:10944000F02020FA01F84FF0040B2D1F0AEA080063
:10945000ABEB8701C840B04745F804093FB14FEA7C
:1094600008704FEA10687F1E641EEFD17FE719F87D
:1094700001A901274FF00F08F6E700002DE9F0479A
:10948000224C06461F46A06990468946002540B9F1
:109490000120A06104F120011D480860084600F089
:1094A00017FA606930B91B480068606110B903F0B1
:1094B000A4F9606107B138604EB1A06830B9606945
:1094C0008000FBF71DFEA06000B901253060B9F1F6
:1094D000000F0AD0E06830B960698000FBF710FE29
:1094E000E06000B90125C9F80000B8F1000F0AD00A
:1094F000206930B960698000FBF702FE206100B985
:109500000125C8F800002846BDE8F087700D00204E
:10951000391902080008002003480068C069017E6C
:10952000C07E11FB00F07047D007002073B5124ACF
:1095300001A900981268904700240090C8B10F4913
:1095400000250968C969496959B10A684AB1019990
:1095500090477CBD6846FFF7A7F80546FDF726FA59
:1095600004440198401E0190F4D5284600F040F8CC
:10957000044420467CBD0000B40D0020D00700202C
:1095800073B50D460098002490B10A490968C9696D
:10959000496959B14A684AB1294690477CBD684635
:1095A000FFF782F820B10A2802D0641CAC42F6DB37
:1095B00020467CBDD007002031B50024009808B9B2
:1095C00005E0641C6846FFF76FF80028F9D12046D3
:1095D00038BD0000044AB2F9002002600348B0F927
:1095E00000000860704700001008002012080020EA
:1095F00038B5002469460094FDF7EAF900998142E4
:1096000000DD0C1A204638BD016811F8012B12B19B
:109610000A2A02D002E00120704701600020704752
:10962000B0F90030B1F90020934200DA0280B0F9BD
:109630000230B1F90220934200DA4280B0F90430DE
:10964000B1F90420934200DD8280B0F90620B1F91F
:1096500006108A4200DDC180704770B5B1F9004044
:10966000B2F900309C4200DD23460380B1F902507C
:10967000B2F90240A54200DD2C464480B1F90460F5
:10968000B2F90450AE4200DA35468580B1F90610D1
:10969000B2F90620914200DB1146C1809D4201DBF8
:1096A000A14201DA002070BD012070BD01460248D0
:1096B0000068407C00F002B8D00700202DE9F84394
:1096C000012604468946022857DADFF8B4800800EC
:1096D00008F1040530D0012802D002294DD116E04E
:1096E00055F8240088B92046FCF7BCFA009010B366
:1096F000C0680D21426A6846904702003DD0494645
:109700000098904755F824000026401C33E020467E
:10971000FCF7A8FA009070B1C0680D21426A684653
:109720009047040029D0D8F8000000B1804749468E
:109730000098A047002620E055F82400012813D106
:109740002046FCF78FFA009070B1C0680D21426A84
:1097500068469047070007D0D8F8000000B180475E
:1097600049460098B847002655F8240008B1012161
:1097700000E00021401A45F824003046BDE8F88397
:10978000980D002070B5FF23B3EB116F2CD0C3B23E
:1097900013FB02F500F47F4400F47F03544353436A
:1097A000000E10FB02F6C2F1FF00CAB212FB00521B
:1097B00001F47F4505FB004401F47F0505FB003300
:1097C000090E11FB0065C2F307204FF47F024FF42E
:1097D0007F4102EA132201EA14214FF07F4308433C
:1097E00003EA05431043184370BD2DE9F04F0646C8
:1097F000DDE90CB915460C4600208046584519D2C3
:109800000B9F4FF0FF0A01CE08CCAAEB106202FBBF
:1098100009F2B2FBFAF1CAB21946FFF7B3FF20F022
:109820007F4001C57F1EEED1099804EB800408F14A
:109830000100E2E7BDE8F08F016811F8012B11F893
:10984000013B016042EA032210467047016811F8AB
:10985000012B11F8013B42EA032211F8023B42EAD4
:10986000034211F8013C016042EA0362104670476E
:1098700013B5044601A8FFF7DFFF208001A8FFF71A
:10988000DBFF608001A8FFF7D7FFA08001A8FFF7EA
:10989000D3FFE08001A8FFF7CFFF208101A8FFF7E9
:1098A000CBFF608101A8FFF7C7FFA08101A8FFF7E8
:1098B000C3FFE0811CBD0B88134403808B889B1A77
:1098C00083804B8813444380C988891AC1807047BC
:1098D00002494A694260486170470000C40700209D
:1098E0002DE9F041184C06460D462068984617466B
:1098F000B0F90A10A94224DCB0F90E10A94220DB0D
:10990000B0F90810B1421CDCB0F90C00B04218DB11
:109910002946304602F020FF01463A464046FFF70E
:1099200031FF02F021FB034620682A46417C0748AC
:1099300050F82100C1688C693146A446BDE8F04169
:109940006047BDE8F0810000D0070020E807002054
:109950002DE9F8430768064688460025384600F09A
:1099600005F940B3404600F011F9441C3846FBF7B6
:1099700049FC84420CD1F4B13846FBF759FC22462D
:1099800041460090F6F74DFE6846FBF7BBFC11E040
:109990002046FBF741FB04000DD0FBF749FC414694
:1099A0000090F6F7EFFD6846FBF7ACFC3046FBF79E
:1099B0008BFB346001252846BDE8F88330B50028CC
:1099C00003DA4FF0FF32404200E00122154990FBDC
:1099D000F1F301FB13004910884202DD52424B4271
:1099E0001844114B984200DD081A4FF47A7390FB2B
:1099F000F3F16FF07C044C4300EBC4005A2902DB06
:109A00004FF480300AE0094C04EB810554F8211032
:109A10006D686C1A4443B4FBF3F00844002A00DC80
:109A2000404230BD407E0500905F01008CB20B08C3
:109A300010B5044600F009F801462046BDE8104084
:109A4000FEF748BE00231CF0B9B877B581B01546C3
:109A50000E466B4601981CF0B1F804460146019889
:109A6000FEF738FE01990844019001A8FEF71CFE9C
:109A70000A2802D0012D02D012E0641C10E0202838
:109A80000ED1FCF793FF054607E02844009001A89B
:109A9000641CFEF709FE202802D100988642F4DA01
:109AA00004B0204670BD10B502E000F8011B521E44
:109AB0000AB18307F9D1930818D001EB014402F0F1
:109AC000030204EB042406E010C01B1F10C040F882
:109AD000084B40F8044C042BF6DA01E010C05B1E82
:109AE000002BFBD102E000F8011B521E002AFAD124
:109AF00010BD10B5830702D520F8021B521E530873
:109B000011D001EB0144042B09DB10C01B1F10C056
:109B1000042B40F8084B40F8044CF6DA01E010C082
:109B20005B1E002BFBD1D20700D0018010BD024686
:109B300000204FF080414318934201D8D21A5818A0
:109B400040088908F7D1704700B907A021B906A1DC
:109B500002E03AB1401C491C02780B789A42F8D0D6
:109B600001207047002070470000000038B50D4606
:109B7000012448B1FBF75CFB29460090FFF7E4FFA6
:109B800004466846FBF7BEFB204638BD4FF0FF3168
:109B900028B100BF10F8012B491C002AFAD1084651
:109BA000704700F5806000F001B8000010B5002398
:109BB000C0F30B00B0F5006F02DD0123A0F50060DB
:109BC000B0F5806F01DDC0F5006081110C4C00F034
:109BD0003F00C0F1400234F811005043402A08D041
:109BE000102906DA04EB4101C2F14002498801FB69
:109BF000020020308009002B00D0404210BD000040
:109C000034160C082DE9F84FDFF8A091002209F175
:109C1000040A0AF1040B4FF00F080BF1040E0126A1
:109C20000B6896403340B34271D14C68022C01D08E
:109C3000122C11D1D40800EB84073D6A5407E40EBE
:109C400008FA04FC25EA0C05D1F810C00CFA04FC53
:109C50004CEA050CC7F820C007685400032591F8AA
:109C600004C0A5400CF0030CAF430CFA04FC4CEA12
:109C7000070CC0F800C04F68012F05D0022F03D099
:109C8000112F01D0122F11D18768D1F80CC0AF432A
:109C90000CFA04FC4CEA070CC0F808C04768B7434C
:109CA0000E79C6F3001696403E434660C668AE4342
:109CB0008D68A5403543C5604C68E4006FD53C4CC9
:109CC000256845F480452560246822F0030504F4E6
:109CD00080440094374C2E19D6F808789407250F45
:109CE00008FA05F4A743344CA04201D100242EE029
:109CF000324CA04201D1012429E0314CA04201D1D3
:109D0000022424E02F4CA04202D103241FE046E0AD
:109D10002D4CA04201D1042419E02C4CA04201D1C9
:109D2000052414E02A4CA04201D106240FE0294C5E
:109D3000A04201D107240AE0274CA04201D1082407
:109D400005E0264CA04201D1092400E00A24AC40E1
:109D50003C43C6F80848D9F800404D464E689C433D
:109D6000F60300D51C432C60DAF8004055464E68D7
:109D70009C43B60300D51C432C60DBF800405D46D5
:109D80004E689C43F60200D51C432C60DEF8004070
:109D900075464E689C43B60200D51C432C60521C8D
:109DA000102AFFF43CAFBDE8F88F0000003C0140F2
:109DB00044380240003001400000024000040240EC
:109DC00000080240000C0240001002400014024053
:109DD00000180240001C0240002002400024024003
:109DE0000069084000D0012070470AB181617047C6
:109DF0000904FBE7014800687047000014000020D8
:109E000002480168491C01607047000014000020EE
:109E10000B4810B5016841F400710160016841F41C
:109E200080610160016841F480710160052000F0EB
:109E3000BFF90F2000F006F800F08AF9002010BDED
:109E4000003C024010B5044600F060FC4FF47A710B
:109E5000B0FBF1F000F094FF00222146501E00F00C
:109E600087F9002010BD2DE9F041044690F8A000CC
:109E700015460F4601281DD0012684F8A060022057
:109E800084F8A10005EB850000EBC50004EB800021
:109E900034223830F6F74CFC2A463946204604F086
:109EA00033FE2068466284F8A160002084F8A00098
:109EB000BDE8F0810220FBE770B5040004D094F8FF
:109EC000A100002510B106E0012070BD84F8A0506B
:109ED000204600F06FF8022084F8A1002068816914
:109EE00021F070418161D4E901100143D4E90302FA
:109EF00010430143206882691143816120688268B0
:109F00002B490A408260A08A020420688368A669FF
:109F10003343134383602068C2680A40C260A08B49
:109F200002042068C368266A33431343C360206871
:109F300002690A400261A08C020420680369A66AD3
:109F4000334313430361206842690A404261A08D94
:109F5000010420684269236B1A430A43426194F862
:109F60003500020294F8360001042068C36A03F049
:109F70007F43C3622068C36A94F83460114333435B
:109F80000B43C3622068416B41F0040141632068C8
:109F9000416B41F0020141632068816941F0010198
:109FA0008161C4F8A450012084F8A100002070BD94
:109FB00000F800F030B5364887B00025016841F060
:109FC00080610160006800F08060059030481438BE
:109FD000016841F400010160016801F4000105918C
:109FE000016841F002010160016801F00201059180
:109FF000016841F020010160016801F02001059134
:10A00000016841F040010160016801F040010591E3
:10A01000016841F080010160016801F08001059153
:10A02000016841F4807101600068032400F48070CD
:10A030000590202000900120CDE90204019069469E
:10A040001448FFF7DFFD4FF4806000900220CDE957
:10A0500001050E20CDE9034069460F48FFF7D2FD08
:10A060004FF40C60009069460C48FFF7CBFD4FF4AD
:10A070007E40009069460A48FFF7C4FD40F2F76051
:10A08000009069460748FFF7BDFD07B030BD0000EE
:10A09000443802400004024000140240001802400C
:10A0A000001C02400020024070B5044690F8A00059
:10A0B0000E46012820D0012584F8A050022084F803
:10A0C000A10003EB830000EBC30004EB800141F827
:10A0D000386F886A3044C1E90102C86A1044C86018
:10A0E0001A46204604F010FD2068456284F8A1500D
:10A0F000002084F8A00070BD022070BD2DE9F04161
:10A10000044690F8A0000F4601281FD0012584F8CE
:10A11000A050022084F8A10003EB830000EBC300F1
:10A1200004EB80010026E1E90E672046C1E90262E6
:10A13000C1E90A721A4604F0E7FC2068456284F817
:10A14000A15084F8A0600020BDE8F0810220FBE768
:10A1500008B50020009008BD00F01F0201219140C9
:10A160004009800000F1E020C0F8001170470000B5
:10A17000F0B40E4B1B68C3F30223C3F10704042C95
:10A1800000D904241D1D072D01D2002300E0DB1E91
:10A19000012606FA04F56D1E0D409D409E40761E78
:10A1A000164045EA0601F0BC04F061BD0CED00E08C
:10A1B000064A00F0070110684FF6FF03184040EA16
:10A1C0000120034908431060704700000CED00E0D7
:10A1D0000000FA052DE9F8431D48016841F080515F
:10A1E00001600068012700F080500090380490FA68
:10A1F000A0F0DFF86080B0FA80F048F82070FFF738
:10A20000F9FD04464FF47A75134E04E0FFF7F2FDB2
:10A21000001BA84213D87068C003F7D54FF4003074
:10A2200090FAA0F0B0FA80F048F82070FFF7E2FD55
:10A23000044607E0FFF7DEFD001BA84202D9032019
:10A24000BDE8F88370688003F4D50020F8E70000CB
:10A250004038024000000E42007000402DE9F84FE7
:10A2600004460068DFF878829E4DC10747F6C07A41
:10A270004FF0E0464FF0010B4FF0000901D180078D
:10A280004BD59949C1F86890FFF7B4FD074604E043
:10A29000FFF7B0FDC01B64287ED828680001F7D402
:10A2A00020789249C0070DD09AFAAAF26068B2FAF3
:10A2B00082F2904096FAA6F3A268B3FA83F39A402A
:10A2C000104308602078800718D5086896FAA6F22F
:10A2D00000F0E040B2FA82F2D0406268237B920143
:10A2E00042EA036242EA00700860D8F80010E269AE
:10A2F00021F01F01521E1143C8F800107A49C1F81D
:10A3000068B0FFF777FD074604E0FFF773FDC01B59
:10A31000642841D828680001F7D52068410701D496
:10A32000000776D57049C1F87090FFF763FD0746C6
:10A3300004E0FFF75FFDC01B64282DD82868C043E8
:10A340008000F6D520786A4F40074FF0706C29D511
:10A35000386896FAA6F100F0E040B1FA81F1C84001
:10A360009AFAAAF22169B2FA82F291409CFAACF30D
:10A370006269B3FA83F39A40114396FAA6F2B2FAED
:10A3800082F2904001433960D8F800106FF0FF036B
:10A3900021F4F851226A00E079E003EB0222114334
:10A3A000C8F800102078000723D538689CFAACF173
:10A3B00000F07060B1FA81F1C8409AFAAAF22169FE
:10A3C000B2FA82F291409CFAACF2B2FA82F2904078
:10A3D000014396FAA6F2A069B2FA82F290400143D4
:10A3E0003960D8F80010626A21F440311143C8F88E
:10A3F00000103D49C1F870B0FFF7FCFC064604E0D0
:10A40000FFF7F8FC801B642841D82868C04380000F
:10A41000F6D42078800651D532484F464030016846
:10A4200041F0805101600068324E00F08050009091
:10A43000306840F480703060FFF7DCFC054604E0D3
:10A44000FFF7D8FC401B642821D83068C005F7D539
:10A45000264E143E3068218D00F4407001F44071A6
:10A4600088422BD03068244920F44070C1F800B0F5
:10A470000F603060800710D5FFF7BCFC054641F245
:10A48000883707E0FFF7B6FC401BB84202D903202B
:10A49000BDE8F88F30688007F4D5A06A1149C0F391
:10A4A00001220831032A13D0086820F4F81008604C
:10A4B0003068218DC1F30B01084330602078C0065D
:10A4C00004D50E4994F82C00C1F8E0010020DFE724
:10A4D0000A680B4B22F4F812184002430A60E7E7BF
:10A4E0008C38024000380240000047428438024065
:10A4F0008838024000700040400E4742001047423A
:10A50000FFFCFF0F2DE9F05FDFF8F8A104460F46CE
:10A51000DAF80000DFF8F08100F00F02C8B27A49E3
:10A52000814641F2883608F10808BA4261D20246F3
:10A530008AF80020DAF8000000F00F00B8427DD160
:10A540002078800707D5D8F80020A36822F0F00211
:10A550001A43C8F800202078C0072DD06068012871
:10A560001AD002281BD0032819D0096889070029AE
:10A5700064DAD8F80010474621F003010143C8F817
:10A580000010FFF737FC0546606801280FD002284D
:10A5900018D003281CD027E009688903E7E7096879
:10A5A0008901E4E7FFF726FC401BB04258D8386821
:10A5B000C0F381000128F5D188E0FFF71BFC401BA8
:10A5C000B0424DD83868C0F381000228F5D17DE053
:10A5D0003868FFF70FFC401BB042F9D940E0FFF7A5
:10A5E00009FC401BB0423BD8386810F00C0FF6D184
:10A5F0006CE02078800707D5D8F80020A36822F007
:10A60000F0021A43C8F800202078C0074CD06068D8
:10A61000012828D0022829D0032827D009688907D3
:10A62000002949DAD8F8002022F003020243C8F8D2
:10A630000020FFF7DFFB0546606800E03CE00128F2
:10A640001DD0022829D0032838D0B34646463068AA
:10A6500010F00C0F28D0FFF7CDFB411B5945F6D960
:10A660000320BDE8F09F09688903D9E709688901DB
:10A67000D6E7FFF7BFFB411B594502D9F0E7B346C8
:10A6800046463068C0F381000128F2D10CE0FFF7A4
:10A69000B1FB411B594502D9E2E7B3464646306853
:10A6A000C0F381000228F2D18AF80090DAF80000A5
:10A6B00000F00F00B84209D00120D2E744462068DC
:10A6C000FFF798FB401BB042F9D9C9E72078400753
:10A6D00007D5D8F80010E26821F4E0511143C8F81A
:10A6E00000102078000708D5D8F80010226921F45E
:10A6F000604141EAC201C8F800100F20FFF7A2FB39
:10A700000020AEE7003C02400038024010B500F0E7
:10A7100043F808490968F02292FAA2F201F0F00128
:10A72000B2FA82F2D140044A515CC8400349086041
:10A7300010BD0000083802403680020800000020EA
:10A7400010B5FFF7E3FF074909684FF4E05292FAAA
:10A75000A2F201F4E051B2FA82F2D140024A515C15
:10A76000C84010BD083802403680020810B5FFF717
:10A77000CDFF074909684FF4604292FAA2F201F452
:10A780006041B2FA82F2D140024A515CC84010BD29
:10A79000083802403680020830B51948006810F0C9
:10A7A0000C01184812D0184C04290ED008290DD1DC
:10A7B000134A121F1168136801F03F015D0247F64A
:10A7C000C07304D5B4FBF1F003E0204630BDB0FB0C
:10A7D000F1F01168194093FAA3F3B3FA83F3D94067
:10A7E000484311684FF4403292FAA2F201F440312A
:10A7F000B2FA82F2D140491C4900B0FBF1F030BD01
:10A80000083802400024F40040787D012DE9F84F1B
:10A8100004460078DFF8FCA2BF4DC0074FF00006E9
:10A8200048D0DAF800105046C1F38101012908D060
:10A830000068C0F3810002280AD1281D0068400288
:10A8400006D52868800335D56068002873D031E0CC
:10A85000DFF8C49209F1020989F80060FFF7CAFA2B
:10A86000074641F2883804E0FFF7C4FAC11B4145AE
:10A870007AD828688003F7D4207989F800006068C6
:10A8800060B1FFF7B7FA074604E0FFF7B3FAC11B60
:10A890004145EDD828688003F7D50BE0FFF7AAFA09
:10A8A000074604E0FFF7A6FAC11B4145E0D8286837
:10A8B0008003F7D42078DFF86492800744D5DAF873
:10A8C0000010504611F00C0F4FF0F80809D0006846
:10A8D000C0F3810002280BD18E48001F006840029F
:10A8E00006D42868800714D5E068012823D110E039
:10A8F000E068D0B10120C9F80000FFF77BFA0746F5
:10A9000004E0FFF777FAC01B6428B1D828688007F5
:10A91000F7D5286898FAA8F22169B2FA82F220F0F5
:10A92000F8009140084328600EE0C9F80060FFF786
:10A9300061FA074605E0EAE0FFF75CFAC01B64280D
:10A9400012D828688007F7D42078000725D5DFF8CB
:10A95000C4817348616908F16C0881B1012101600B
:10A96000FFF748FA074605E07EE0FFF743FAC01B11
:10A97000642879D8D8F800008007F6D50DE0066085
:10A98000FFF738FA074604E0FFF734FAC01B6428E3
:10A990006AD8D8F800008007F6D42078400753D54D
:10A9A0005C483830016841F0805101600068DFF890
:10A9B000748100F080500090D8F8001041F480714C
:10A9C000C8F80010FFF716FA074604E0FFF712FA7E
:10A9D000C01B642848D8D8F80000C005F6D5DFF8B9
:10A9E00034B10BF1680B8BF80060FFF703FA0746F0
:10A9F00041F2883804E0FFF7FDF9C11B41457ED8DC
:10AA0000DBF800008007F6D4207A8BF80000A068FD
:10AA100068B1FFF7EFF9074604E0FFF7EBF9C11B58
:10AA200041456CD8DBF800008007F6D50CE0FFF755
:10AA3000E1F9074604E0FFF7DDF9C11B41455ED8A7
:10AA4000DBF800008007F6D4A069E8B3DAF800105C
:10AA5000C1F3810102295AD0022806D0C9F86060EA
:10AA6000FFF7C8F904464DE049E04F46C9F8606079
:10AA7000FFF7C0F9064604E0FFF7BCF9801B642825
:10AA80003DD828688001F7D4D4E90701084347F688
:10AA9000C07191FAA1F1626AB1FA81F18A40A16AAA
:10AAA0004FF0FF3303EB51014FF4403393FAA3F31C
:10AAB000B3FA83F399400A4310434FF0706292FA5D
:10AAC000A2F2B2FA82F200E01FE0E16A914008438C
:10AAD0001049091F086001203866FFF78BF904460A
:10AAE00004E0FFF787F9001B642808D82868800174
:10AAF000F7D50AE0FFF77EF9001B642802D903208E
:10AB0000BDE8F88F28688001F4D40020F8E7012020
:10AB1000F6E70000083802400038024000004742D3
:10AB2000800E47420070004070B50D46040003D00F
:10AB300094F82C0010B107E0012070BD002084F8CB
:10AB40002D00204600F012F8022084F82C00211D70
:10AB50002068F6F713FDD4E900022946F6F75EFDFA
:10AB6000012084F82C00002070BD0000304800B5A2
:10AB7000016887B041F001010160006800F0010048
:10AB800005902B480838016841F004010160016814
:10AB900001F004010591016841F0080101600168BC
:10ABA00001F008010591016841F0100101600168A0
:10ABB00001F010010591016841F020010160016878
:10ABC00001F020010591016841F040010160006839
:10ABD000694600F0400005900D2000900220019091
:10ABE00001200290032003900C2004901148FFF7ED
:10ABF00009F84CF20370009069460F48FFF702F81D
:10AC00004FF68370009069460C48FEF7FBFF4FF645
:10AC10003F00009069460A48FEF7F4FF48F23710FB
:10AC2000009069460748FEF7EDFF07B000BD000041
:10AC30003838024000080240000C02400010024078
:10AC4000001402400018024010B5044690F82C0091
:10AC5000022809D0022084F82C002068F6F7B4FC02
:10AC6000012084F82C00002010BD70B5044690F837
:10AC70002C000D4602280CD0022084F82C002068FD
:10AC8000F6F7A8FC2868022804D0012084F82C00DC
:10AC9000002070BD0520F9E770B515460E4604008A
:10ACA00003D094F8490010B107E0012070BD0020E6
:10ACB00084F84800204600F01BF804F108012068E1
:10ACC000F6F7F2FB3146A2682068F6F729FCD4E9D2
:10ACD00001022946236BF6F7C7FBA168206850F8EC
:10ACE000212042F0010240F82120002070BD000028
:10ACF0001A4800B5016887B041F0010101600068A1
:10AD000000F00100059015480838016841F008017D
:10AD10000160016801F008010591016841F010012E
:10AD200001600068694600F0100005904EF2B370B3
:10AD300000900220019001200290032003900C203B
:10AD400004900748FEF75EFF4FF68070009069465A
:10AD50000448FEF757FF07B000BD00003838024036
:10AD6000000C0240001002404FF0E0210428086966
:10AD700003D020F004000861704740F00400FAE7B7
:10AD800010B5401EB0F1807F01D3012010BD4FF0FF
:10AD9000E02460610F21601703F069FF0020A061CB
:10ADA00007202061002010BD7047704710B50400D7
:10ADB00003D094F8390010B107E0012010BD002045
:10ADC00084F83800204600F00DF8022084F839009D
:10ADD000211D206807F0C2FB012084F83900002003
:10ADE00010BD0000114808B5016841F00201016082
:10ADF000016801F002010091016841F00401016065
:10AE00000068032200F00400009001211D20FFF7DC
:10AE1000AFF91D20FFF7A0F9032202211E20FFF742
:10AE2000A7F9BDE808401E20FFF796B94038024058
:10AE30000168CA6842F00102CA600068016841F016
:10AE40000101016000207047704770B5044600683A
:10AE500001694FF00005C943890715D4C168C9438A
:10AE6000890711D4E91E01610120207620688069DC
:10AE70008007204602D0FFF7E7FF04E000F098F8D3
:10AE8000204600F096F8257620680169C9434907F5
:10AE900017D4C168C943490713D46FF00401016195
:10AEA000022020762068806910F4407F204602D07E
:10AEB000FFF7CAFF04E000F07BF8204600F079F8C5
:10AEC000257620680169C943090716D4C168C943BA
:10AED000090712D46FF00801016104202076206870
:10AEE000C0698007204602D0FFF7AEFF04E000F003
:10AEF0005FF8204600F05DF8257620680169C943B7
:10AF0000C90617D4C168C943C90613D46FF010012C
:10AF10000161082020762068C06910F4407F204637
:10AF200002D0FFF791FF04E000F042F8204600F065
:10AF300040F8257620680169C943C90708D1C1686E
:10AF4000C943C90704D1891E0161204600F032F8C7
:10AF500020680169C943090609D4C168C9430906C3
:10AF600005D46FF0800101612046FFF71DFF2068C6
:10AF70000169C943490609D4C168C943490605D4D2
:10AF80006FF040010161204600F026F82068016959
:10AF9000C94389060BD4C168C943890607D46FF039
:10AFA000200101612046BDE87040FFF7FEBE70BD84
:10AFB000704770470649884204D106480168491C19
:10AFC0000160704702493C318842FAD1FDF736BA38
:10AFD00018110020940000207047704738B50168B0
:10AFE00004460868CA68C0F3000002F4807238B1F1
:10AFF00032B1086848680090E06B40F00100E063FF
:10B0000008684A69C0F3400002F0010238B132B169
:10B01000086848680090E06B40F00400E06308684E
:10B020004A69C0F3800002F0010238B132B1086809
:10B0300048680090E06B40F00200E06308684A69ED
:10B04000C0F3C00002F0010238B132B108684868AC
:10B050000090E06B40F00800E0630868C968C0F346
:10B06000401001F0200118B111B1204608F040FC59
:10B0700020680168C068C1F3C01100F0800019B1F8
:10B0800010B1204608F042FD21680868CA68C0F384
:10B09000801002F04002012568B162B1CA68204602
:10B0A00022F04002CA6094F8391032290CD080F89E
:10B0B000395000F0E7F8E06B002804D084F83950EC
:10B0C0002046FFF78AFF38BD222180F83910F0E7CB
:10B0D00070B5040004D094F83900002510B106E0E2
:10B0E000012070BD84F83850204600F021F802207D
:10B0F00084F839002068C16821F40051C1602046FD
:10B1000008F04AFC2068016921F49041016120683F
:10B11000416921F02A0141612068C16841F4005170
:10B12000C160E563012084F83900002070BD000093
:10B1300030B5044600681D4987B0884233D11C49A8
:10B14000086840F0010008600868194900F0010033
:10B1500014310590086840F0100008600868154D2B
:10B1600000F0100005904815009002200121CDE963
:10B17000010103900720049069462846FEF742FD2E
:10B180002815009069462846FEF73CFD2068C168F6
:10B1900041F02001C1602520FEF7DEFF03221146A9
:10B1A0002520FEF7E5FF07B030BD0000001001408C
:10B1B00030380240000002402DE9F047044690F884
:10B1C000390099460D46012801D0122857D125B3E0
:10B1D0001AB394F83800012851D0012684F8386059
:10B1E0000027E76394F83900122819D0222084F848
:10B1F0003900A285E2854FF48058E08D4B46401E11
:10B20000E085A0684FF0000240454FF02001204645
:10B2100016D108F0AEFCB0B904E00120BDE8F0871B
:10B220003220E4E7206900282068406803D0C1B2DA
:10B2300025F8011B12E0C0F3080125F8021B0DE000
:10B2400008F097FC08B10320E8E72069002820688F
:10B25000406801D000F07F0005F8010BE08D002868
:10B26000CBD194F83900322805D084F8396084F8BD
:10B2700038700020D2E7122084F83900F7E7022066
:10B28000CCE77047704700002DE9F0478AB01F46B1
:10B2900016460D465FEA000A51D0FBF78BFC50467C
:10B2A000F9F7C6FF0090D0F84C9026B13046F5F77C
:10B2B0008DF9044600E0002455EA04003DD095B91C
:10B2C0000098406BFCF7AAFE80463046FBF7F5FB82
:10B2D00000991C4AC96A52680968114400EB41058B
:10B2E0004046FCF79BFE05950025ADF818706846B2
:10B2F0000795FAF707F84846FAF7BDF8074604F14C
:10B30000110205A94846FAF721F8B0B9394648466E
:10B31000FAF7CDF8029024B131460C30F5F732F946
:10B3200000E0057302A8F9F7EDFF504609F03CFD77
:10B33000504609F0E9F909F037FDFDF7DDFA0AB0EA
:10B34000BDE8F0875C0E00202DE9FC41446805460D
:10B350000146204608F0ACFC002874D0FBF72AFC1C
:10B36000286810284FD004DC0B285ED00F286BD142
:10B3700005E0112812D0B0F5107F7AD126E02546DD
:10B380002046F9F755FF0090806C04686846F9F78D
:10B39000B9FF002C70D02846A0476DE02046F9F791
:10B3A00047FF01460090E868427A012A0AD1027AF2
:10B3B00042B902688B6D1A444368204614F041F983
:10B3C0000099C8656846F9F79DFF55E02646204676
:10B3D000F9F72EFF0090876D6846F9F793FFEC6848
:10B3E00064B1D4E90002C119237A304614F03CFF5D
:10B3F000207A08B1012102E0022100E00321304659
:10B4000009F036FE38E02046F9F712FF0090866D0D
:10B410006846F9F777FFE86870B305C881194FF0FF
:10B42000FF33204614F020FF26E02046F9F700FF06
:10B430000090C76C6846F9F765FF3846FAF71BF8C5
:10B44000064600240EE01BE013E021463846FAF7DA
:10B450002EF80190806808B1F9F70CFE01A8F9F701
:10B4600051FF641CB442F0DB3846F9F7AFFF18F027
:10B4700043FC284608F0FEFEBDE8FC41FDF73CBA5F
:10B48000BDE8FC81F0B585B00DF1280C9CE8F0001A
:10B490004FF0000C8DE8F01000F002F805B0F0BDA0
:10B4A0002DE9FF5F1F46DDE90E9B14460E4605465B
:10B4B000DDF848A0FBF77EFB44EA050030430BD1E2
:10B4C0006946484609F0A8F8BDF90400BDF90050E6
:10B4D000BDF90260441B641CDFF89C8077B908F05A
:10B4E000E1FB074608F114000068FBF71BFBD8F8E6
:10B4F000081000EB4100396800EB41070AF14401F4
:10B500001E4B03914BF42070CDF80090CDE9010360
:10B510003B4622463146284608F0F4FD040025D07B
:10B52000F9F751FF05462046F9F782FE0090C56401
:10B530000022119908F010FD0F49009814221431CF
:10B540003430F5F7F5F800994FF0FF300022086528
:10B55000C1E915020866D8F80C00886445466846BB
:10B56000F9F7D0FEE868416820468847FDF7C4F93E
:10B5700004B02046BDE8F09F5C0E002049B30008EF
:10B5800010B5416806290DD004DC022910D0052928
:10B5900013D104E00C290ED012290ED105E00DF0D4
:10B5A0004DF90AE00FF0C0FC07E011F099FB04E050
:10B5B0000DF016F901E011F0D3F8002010BD1CB514
:10B5C00002004FF0000012D06946104608F09AFFC2
:10B5D000BDF902004242BDF9000041426846FCF755
:10B5E000ADF9BDF90600BDF90210401A401C1CBDA2
:10B5F0007CB50D4606004FF0000419D0FBF7DAFACF
:10B600003046F9F715FE0090C06CF9F734FFA842F8
:10B6100009D900982946C06CF9F749FF01900468E0
:10B6200001A8F9F76FFE6846F9F76CFEFDF764F9BB
:10B6300020467CBD38B505004FF000040ED0FBF766
:10B64000B9FA2846F9F7F4FD0090C06CF9F713FF3A
:10B6500004466846F9F756FEFDF74EF9204638BD18
:10B6600038B505004FF000040BD0FBF7A3FA2846CD
:10B67000F9F7DEFD0090C46D6846F9F743FEFDF76B
:10B680003BF9204638BD0000044A034911600449D3
:10B690000A69086110467047980A0020680E002069
:10B6A000700E0020F8B514460D46060015D0FBF7C5
:10B6B00081FA3046F9F7BCFD0090016EA94202D133
:10B6C000416EA14204D0C0E91854304609F06CFB29
:10B6D0006846F9F717FEFDF70FF9F8BD38B50C46C7
:10B6E000050010D0FBF766FA2846F9F7A1FD009097
:10B6F0000CB1012100E0002180F86C106846F9F7D8
:10B7000001FEFDF7F9F838BDF0B587B014460E46D6
:10B71000050033D0002C31DBFBF74CFA2846F9F753
:10B7200087FD0190C76C01A8F9F7ECFD3846F9F7E1
:10B73000A2FEB04220D931463846F9F7B8FE009053
:10B74000B8B104606846F9F7DDFD284608F0DCFF73
:10B750000390252002900495284609F025FB02A9B4
:10B7600003980AF0B5FC284608F0CEFF09F01CFB50
:10B7700002E06846F9F7C6FDFDF7BEF807B0F0BD78
:10B7800038B50C46050018D0002C16DBFBF712FA72
:10B790002846F9F74DFD0090816DA14208D08465DF
:10B7A000284609F001FB284608F0AEFF09F0FCFA34
:10B7B0006846F9F7A7FDFDF79FF838BDFEE70000E2
:10B7C0002DE9F0418AB017460D4606004FF00104FE
:10B7D00037D0FBF7EFF91D4800901D4801901D4838
:10B7E00002900020CDE9030506903046F9F720FDD0
:10B7F0000990D0F8845009A8F9F784FD2846F9F794
:10B800003AFE80463846F4F7E1FE00F1210269462F
:10B810002846F9F79BFD78B941462846F9F747FED7
:10B82000089039461C30F4F7ADFE08A8F9F76AFD18
:10B83000304609F0B9FA0024304600F051F9FDF71E
:10B840005BF80AB02046BDE8F0810000C9AF0108EE
:10B85000CDBA00084DF5010830B5456804460146EB
:10B8600085B0284608F024FA00280DD02068112859
:10B8700023D00BDC0B2814D00E283AD00F2803D18C
:10B880002146284616F014FC05B030BD262835D0D8
:10B89000B0F5107FF8D1E16828460029F4D10321E2
:10B8A00015E02846F9F7C4FC0090D0F88400F9F7B9
:10B8B0008DFD6846F9F726FDE6E7E068417A49B173
:10B8C0000129E1D1007A0028DED10221284609F0C1
:10B8D000CFFBD9E7017A0129D6D1D0E90012284659
:10B8E00013F039FE010002D4284619F0C7F90121EE
:10B8F000ECE72146284616F04FF8C5E7E068052832
:10B9000005D00628C0D1284600F0EAF8BCE7284652
:10B91000F9F78EFC0190284608F030FF0146A06838
:10B92000814206D102A908F011FF019903988863AA
:10B930000CE0284608F012FF0146A068814205D1BC
:10B9400002A908F003FF01990398486401A8F9F7D8
:10B95000D9FC284609F028FA0A21B7E72DE9F04377
:10B9600087B00DF13808814698E8F1104FF00008D3
:10B97000CDF818808DE8F110484600F003F807B0C4
:10B98000BDE8F0832DE9F04F85B09846DDE90F76EC
:10B9900091468A4683460E9D149CFBF70BF91D4881
:10B9A0006C34CDE90204CDE9005743464A4651467E
:10B9B000584608F0A7FB040026D0F9F704FD054619
:10B9C0002046F9F735FC0490C0F8845010221199F4
:10B9D00008F0C2FA049810493822C1624FF0FF31D2
:10B9E000C0F890100D494C30F4F7A2FE049812995B
:10B9F00040F8881F13994160868104A8F9F782FCFA
:10BA00000021204619F03AF9FCF776FF05B02046F0
:10BA1000BDE8F08F59B8000830220C08C80A002091
:10BA200038B505004FF000040CD0FBF7C3F82846EA
:10BA3000F9F7FEFB0090D0F890406846F9F762FCF9
:10BA4000FCF75AFF204638BDF8B514460D460600EF
:10BA500015D0FBF7AFF83046F9F7EAFB0090032D5D
:10BA600008D200EB8500016DA14203D00465304689
:10BA700009F09AF96846F9F745FCFCF73DFFF8BD77
:10BA800038B50C46050011D0FBF794F82846F9F7B5
:10BA9000CFFB0090C16CA14203D0C464284609F0DA
:10BAA00083F96846F9F72EFCFCF726FF38BD70B520
:10BAB0000D46040009D0FBF77DF82946204619F011
:10BAC000DDF8BDE87040FCF717BF70BD30B4144618
:10BAD00090F88030826F204630BCFAF781BA0000BF
:10BAE0002DE9F04F364D834689B068684FF0000A63
:10BAF000002860D14FF001095846C5F80490F9F7C5
:10BB000097FB064600905C4606A9584608F08CFD57
:10BB1000204613F00FFF0446D6F88400F9F7ABFC7B
:10BB20002044401E04B9012490FBF4F458460099C7
:10BB300013F01BFF0746009801AE00F134010EC957
:10BB400086E80E00B0F894806846F9F7DBFB04A99C
:10BB5000584608F069FDBC4203DD012603970194B5
:10BB600002E00026CDF808A05FEA887004D53146CF
:10BB7000584609F018FD09E0584608F0FFFD28B1C5
:10BB80002EB9CDF80490CDF80C9000E036B1FE212E
:10BB9000584608F0E5FC01A909F0E2FC5846F9F71F
:10BBA00047FB009001AC343094E80E0080E80E00B2
:10BBB0006846F9F7A7FBC5F804A009B0BDE8F08F07
:10BBC000C00A002070B50D4C0025C4F890520C48F6
:10BBD000016821F440610160016841F48061016005
:10BBE000C4F89452022004F524741BF0A7FA012033
:10BBF000206002201BF0A2FA256070BD0080434245
:10BC0000001C02400E4810B5016886B041F080016A
:10BC100001600068012400F0800005903020CDE92B
:10BC200000040220CDE9024069460648FDF7EAFF1C
:10BC30000548C0F89442C0F8904206B010BD00001C
:10BC400030380240001C02400080434270B50D4C69
:10BC50000026C4F890620C48016821F4406101603C
:10BC6000016841F4806101600125C4F8945202200A
:10BC700004F524741BF062FA256002201BF05EFAC2
:10BC8000266070BD00804342001C02402DE9F04751
:10BC9000814616480024016821F440610160016872
:10BCA0000160134E254627464FF00108C6F89072F2
:10BCB00002201BF043FAC6F890826006040ED6F804
:10BCC000140208B1641CE4B201201BF037FA6D1CA9
:10BCD000EDB2082DEAD3B9F1000F04D0FFF772FFDF
:10BCE0002046BDE8F087FFF7B1FFF9E7001C0240EE
:10BCF000008043422DE9F04105461448016821F4D3
:10BD000040610160016841F480610160104E0027CC
:10BD1000C6F890723C464FF00108E809C6F8940254
:10BD20006806050E02201BF009FAC6F89082022070
:10BD30001BF004FAC6F8907202201BF0FFF9641C95
:10BD4000E4B2082CE9D3BDE8F0810000001C0240F9
:10BD50000080434270B50D48016821F440610160E4
:10BD6000016841F480610160094C0120C4F894022B
:10BD7000C4F89002042004F524741BF0DFF90025B8
:10BD8000656004201BF0DAF9256070BD001C0240DC
:10BD9000008043420E4810B5016821F44061016003
:10BDA000016841F4806101600A4C0020C4F89002EF
:10BDB000C4F89402042004F524741BF0BFF9012098
:10BDC00020606060BDE8104004201BF0B7B900009F
:10BDD000001C02400080434270B5124800240168F4
:10BDE00021F440610160016801600F4D0126C5F832
:10BDF000946230461BF0A2F9C5F8906201201BF056
:10BE00009DF907E0641CE4B2FA2C03D9FFF7C2FFE6
:10BE1000012070BDD5F814020028F3D1C5F89002B6
:10BE200070BD0000001C02400080434270B51B48FA
:10BE300086B00025016841F001010160016801F050
:10BE400001010591016841F004010160016801F000
:10BE500004010591016841F080010160006803243C
:10BE600000F08000059002200126CDE90204CDE912
:10BE7000006569460A48FDF7C5FE700303948DE826
:10BE8000610069460748FDF7BDFE0C200090694639
:10BE90000548FDF7B7FE06B070BD0000303802401F
:10BEA0000000024000080240001C024070B5FF255F
:10BEB000154CB5EB116F1DD1C2F100022468030EC1
:10BEC00002EB02120CD0FF2B12D2FF32C2F1FF01A3
:10BED0005943B1FBF5F1114461F31F60204070BD7F
:10BEE0004FF07F4120F07F4001EB02610843F5E70E
:10BEF000084670BD054B02EB0212D2B21B68984790
:10BF00002168084070BD0000400E0020700D002028
:10BF100002490A680860104670470000400E002081
:10BF200070B50E490E4A064608881268002422B1F0
:10BF30003046BDE8704002F0A7BB4D880021454364
:10BF4000084601F007F801F061FAB1B2054801E0D6
:10BF50000180641CAC42FBD370BD00004010002087
:10BF6000F8100020000008600449054A0968497C6F
:10BF700052F821100969096808470000D00700201D
:10BF8000E80700202DE9F05F394C3A4DA07129688F
:10BF900039B102F099FBE88A2080288B6080BDE8E7
:10BFA000F09F33492C232A2589884FF0F00949F264
:10BFB000413A2B2645F2105B4FF4305E4FF4487740
:10BFC0004FF4A07845F2103C4FF4F07258B1A4F849
:10BFD0000080A4F80290514501D0614529D1238108
:10BFE0006581A68139E0A4F80090A4F8028051454B
:10BFF00001D0614508D123816581A681614531D198
:10C00000A4F8008062802DE0594508D1A4F808E02A
:10C010004FF4285060814FF42C50A08106E0A1F528
:10C02000C85063381ED123816681A5812280678034
:10C0300018E0594508D1A4F808E04FF42850608171
:10C040004FF42C50A08106E0A1F5C850633804D10C
:10C0500023816581A68127806280614502D122808B
:10C06000A4F80280BDE8F05F002000F02DBE0000C3
:10C0700040100020F81000202DE9F04F05468DB04B
:10C080007B48DDF860901A9C00681E4617464FF00A
:10C09000000A78B11B9B199ACDF808900593CDE959
:10C0A0000324DDE91623CDE90023046833463A462C
:10C0B000284680E0DDE9160201EB060805EB070CD7
:10C0C0001043A8F10108ACF1010C012806D0C9F118
:10C0D00008000590002002910990C6E065480268BA
:10C0E000B2F90A30581A002806DD361A002E63DD30
:10C0F0001946199B00FB0344B2F90E00A8EB00009F
:10C10000002802DD361A002E56DDB2F90C00ACEB29
:10C110000000002800DD3F1AB2F908300020AB42D1
:10C1200035DD581B3F1A4B46B9F1080F26D006DC07
:10C13000012B0BD0022B11D0042B28D116E0102B91
:10C140001ED0182B1FD0202B21D11CE020F007037C
:10C1500004EBE0041D4400F0070018E020F00303A6
:10C1600004EBA0041D4400F0030010E020F00103E4
:10C1700004EB60041D4400F0010008E0044404E006
:10C1800004EB400401E004EB800405440020002F90
:10C1900012DD1B9BDDF864C0CDE90403CDE9006925
:10C1A000CDE902C4527C34483B4650F82200C268B4
:10C1B00054680A462946A0470DB0BDE8F08F17998C
:10C1C000029808440C902B49401E00900A68B2F96E
:10C1D0000A30834241DCB2F90E10029881423CDB06
:10C1E0004FF0000BD84603950A9434E0BBF1000FE2
:10C1F00005D10A984FF0080B10F801AB0A90059989
:10C20000ABEB090B3AFA01F00AFA09F101F0FF0A67
:10C2100004D118490968097C890716D415490968A9
:10C22000C96B0A680B921B9A0AB152F82000086089
:10C2300016990398009B4218521E029900F010FABA
:10C240000C490B980968C96B08600399169808F1A6
:10C25000010808440390B845C8DB0998401C0990C0
:10C260000C980290199804440998B042A7DBA3E700
:10C270000C080020D0070020E8070020F0B40C468E
:10C2800012490968B1F90A30A3421CDCB1F90E3039
:10C29000A34218DBB1F90830834200DD1846B1F93A
:10C2A0000C30934200DA1A4682420CDB4B7C084980
:10C2B00051F8235013462246E9688E680146284605
:10C2C000B446F0BC6047F0BC70470000D0070020C7
:10C2D000E80700202DE9FE4F0026A2EB0008824669
:10C2E0005F1A701E35468946B8F1000F02DD4FF027
:10C2F000010102E003D14FF00001019102E0C8F119
:10C3000000080190002F02DD4FF0010002E003D190
:10C310004FF00000009002E0C7F100070090404697
:10C32000B84501DD044600E03C46601C4FF0000BC0
:10C33000029015E01FFA89F11FFA8AF000F04AF81E
:10C3400046443D44A64202DD0199361B8A44A5427B
:10C3500002DD00992D1B89440BF101001FFA80FBBF
:10C3600002998B45E6DDBDE8FE8F00000A461749BD
:10C3700030B40968B1F90A30934225DCB1F90E30C6
:10C38000934221DBB1F9083083421DDCB1F90C3056
:10C39000834219DB0B7C0E4CDB0709D0497C54F837
:10C3A0002130D968CC690146A44630BC18466047A4
:10C3B000CB6B497C1B6854F82140E1688D690146CC
:10C3C0002046AC4630BC604730BC7047D0070020E8
:10C3D000E807002010B5084A084C126822B122680C
:10C3E000BDE8104002F084B900F0B4FD01F00EF891
:10C3F00003492088088010BDF81000202400002088
:10C4000000000860124B30B41B68B3F90840844246
:10C410001CDCB3F90C40844218DBB3F90A408C42AF
:10C4200000DD2146B3F90E40944200DA22468A42EA
:10C430000CDB5C7C074B53F82440E368DD68134653
:10C440000A4601462046AC4630BC604730BC7047C7
:10C45000D0070020E80700202DE9FC5F804600247B
:10C46000154603200F46A0EB450649E0781B81B234
:10C4700008EB040A01901FFA8AF0FFF7ABFF381BA4
:10C4800081B208EB050900901FFA89F0FFF7A2FFBF
:10C4900007EB040B1FFA8BF11FFA89F0FFF79AFFE5
:10C4A00007EB05091FFA89F11FFA8AF0FFF792FFDF
:10C4B000A8EB040A1FFA89F11FFA8AF0FFF78AFF36
:10C4C000A8EB05091FFA8BF11FFA89F0FFF782FF2D
:10C4D000019881B21FFA8AF0FFF77CFF009881B2C1
:10C4E0001FFA89F0FFF776FF641C002E03DA06EBD3
:10C4F0008406B61D04E0601B06EB80066D1E0A363E
:10C50000AC42B3DDBDE8FC9F2DE9F041044639485B
:10C510000D46006820B12046BDE8F04102F0E8B8C1
:10C52000354E270A3146B0884989A0F513434FEAB2
:10C530001528413B0BD0A0F5A643103B07D0B3F51F
:10C54000007311D0A0F5C853633B27D04BE00846D9
:10C5500000F050FF384600F041FFE0B200F03EFF2F
:10C56000B08900F047FF38E0084600F043FF384646
:10C5700000F034FF7089401C80B200F03BFFE0B255
:10C5800000F02CFFB08900F035FF404600F026FF98
:10C59000B089401C80B200F02DFF21E0B07918B9BD
:10C5A0003088001B401E84B2084600F023FF270A93
:10C5B000384600F013FFE0B200F010FF384600F0FC
:10C5C0000DFFE0B200F00AFFB08900F013FF404613
:10C5D00000F004FFE8B200F001FF404600F0FEFE6C
:10C5E000E8B200F0FBFE054930890880881C028013
:10C5F000BDE8F081F810002040100020FEFF076029
:10C600002DE9F8431F46144B804608981B6833B148
:10C6100000903B46404602F089F8BDE8F883A2EB63
:10C620000802521C96B20C4685B2DFF830900FE03B
:10C630002146404600F08EFC00F0E8FE002049460E
:10C6400002E00D80401C80B2B042FAD3641CA4B258
:10C65000BC42EDD9E1E70000F810002000000860BE
:10C6600038B5134C2468B4F90850854200DD2846DB
:10C67000B4F90C50954200DA2A46824217DBB4F92D
:10C680000A508D4200DD2946B4F90E509D4200DA71
:10C690002B468B420BDB0093647C064B53F8244003
:10C6A000E3681D6913460A4601462046A84738BD7F
:10C6B000D0070020E8070020024808210068407CDD
:10C6C00012F06ABED0070020082112F065BE0000FB
:10C6D00002480068806B006870470000D0070020A7
:10C6E00002480068C06B006870470000D007002057
:10C6F000014602480068407C12F08DBDD007002042
:10C70000024809210068407C12F046BED007002094
:10C71000092112F041BE70B500252C462046F9F7DC
:10C72000A1FA00B16D1C641C022CF7DB284670BD19
:10C7300002480068407C00F003B80000D0070020E9
:10C7400010B5F9F78FFA002805D0C168CA6ABDE8AC
:10C7500010400221104710BD10B500F005F8BDE8EB
:10C76000104000F099B800002DE9FC41144E054638
:10C77000144F30680C46407C57F82000C1680A6BA3
:10C7800069469047BDF90000A8420BDCBDF90400E2
:10C79000A84207DBBDF90200A04203DCBDF9060098
:10C7A000A04202DA0020BDE8FC8130682246407CCD
:10C7B00057F82000C1684B6929469847F3E7000005
:10C7C000D0070020E8070020F8B515460E460124E2
:10C7D000F9F748FA009058B1C0680421426A6846E7
:10C7E0009047030004D02A46314600989847002419
:10C7F0002046F8BD032112F0CFBD032012F0E0BFA8
:10C80000024804210068407C12F0C6BDD007002019
:10C81000042112F0C1BD0000024801210068407CE3
:10C8200012F0BABDD0070020012112F0B5BD000002
:10C83000024802210068407C12F0AEBDD007002003
:10C84000022112F0A9BD00F003B800F001B8000009
:10C850002DE9F041002809D0876837B10D4E716885
:10C8600019B10468B4F5807F02DD0020BDE8F081D5
:10C870003068844200DD0446002507E057F82500B3
:10C88000FFF772FB716841F825006D1CA542F5DBCE
:10C890007068EBE7440E00200449054A0968497CAA
:10C8A00052F821100969496808470000D0070020A4
:10C8B000E80700207047704710B500F01F01074AD5
:10C8C000074BC0F34514C0F3C4201B5D105C515CE2
:10C8D00000EB032000EB014010BD0000E4120C0847
:10C8E00004130C08F8B500F015FB00F041F8040043
:10C8F0003BD100252846F9F7B5F9009048B1C0684A
:10C900000C21426A68469047010007D0009888478A
:10C9100004436D1C022DEDDB14B126E00120F8BDAF
:10C9200000F040F8012543F6FF762846F9F79AF91A
:10C930000090C0B12846FBF7D3FA042000F08CFB2E
:10C940000021324633460846FFF78AFE002000F0F9
:10C9500083FB00980E21C068426A68469047010038
:10C9600001D0009888476D1EDFD52046F8BD000035
:10C9700010B50A4C606860B920688000F8F7C0FB09
:10C98000606040B104F10801054808600846FCF702
:10C990009FFF002010BD012010BD0000440E0020AC
:10C9A000851902082DE9F047FFF7B5FE0746002478
:10C9B000DFF860802AE02046F9F754F928B3D8F868
:10C9C000000090F8119044742046FFF77DFE08287F
:10C9D00017DC1148114950F824000069884210D032
:10C9E0002046FFF795FE0646002508E0E8B2FFF76F
:10C9F00053FF0246E9B2204600F034FB6D1CB542FD
:10CA0000F4DBD8F8001081F81190641CBC42D2DB32
:10CA1000BDE8F087D0070020E80700206C220C0852
:10CA20000346012000E05843491EC9B2FBD27047BB
:10CA3000034808B50088ADF80000BDF8000008BD47
:10CA40000000086010B5244C2288824202D9628816
:10CA50008A4201D8002010BD204A12681AB1BDE8F0
:10CA6000104002F035B800F075FAA08841F6631264
:10CA7000A0F51341413905D0A0F5A641103901D0E8
:10CA8000904201D12E2005E0A0F5AA41103903D132
:10CA90004FF4385000F0AEFCFFF7CAFFA188914276
:10CAA000D9D00220401EC0B2FCD2FFF7C1FF04461D
:10CAB0000221491EC9B2FCD2FFF7BAFFE1B24FF61C
:10CAC000FF7202EA012124EA6212890A42EA411154
:10CAD00041EAD02010BD000040100020F8100020D6
:10CAE0002DE9FF4F83B01646DDE910408B46C06844
:10CAF0004769426A7AB1012111A8904705000AD01E
:10CB00000698CDE9000433465A4603991198A84780
:10CB100007B0BDE8F08F57480068407CF9F730FF58
:10CB20008246082801DC012005E0BAF1100F01DC83
:10CB3000022000E004208046002596E04046B8F13F
:10CB4000010F05D0022871D0B8F1040F25D17CE087
:10CB5000BAF1090F21D2DFE80AF08605213F3F59DB
:10CB600059595900039815E001465A461198B8479B
:10CB7000C5F1070188404FF67F722178EA401140E5
:10CB800001436D1C217004EBE50425F0070005410D
:10CB900009F101008146B042E6DD64E0039817E048
:10CBA00001465A461198B8470621A1EB4501884035
:10CBB0006B004FF63F722178DA40114001436D1C43
:10CBC000217004EBA50425F00300054109F10100E3
:10CBD0008146B042E4DD46E0039813E001465A4640
:10CBE0001198B8470421A1EB850188402178AB005A
:10CBF0000F229A401140014321702C4485F0010519
:10CC000009F101008146B042E8DD2CE0DDF80C902E
:10CC100007E001465A461198B847207009F101090A
:10CC200044444846B145F4DD1DE0FFE7DDF80C90D3
:10CC300007E001465A461198B847208009F10109DA
:10CC400044444846B145F4DD0DE0DDF80C9007E0C2
:10CC500001465A461198B847206009F10109444439
:10CC60004846B145F4DD0BF1010B06998B457FF782
:10CC700065AF4DE7D007002010B50246BE2000F09A
:10CC8000B9FB052000F0AAFB10461AF013FE9FED39
:10CC90000C1B53EC112B1AF05DFE1AF0C7FD80B28D
:10CCA00000F09CFB012000F099FBFF2000F096FBB8
:10CCB000002000F093FBBDE81040002000F08EBB88
:10CCC0006666666666660440F0B56C4D00232946CC
:10CCD000AA79898841F66314012A01D01AB11BE0B0
:10CCE000A14202D118E0A14216D1082814D2DFE8EF
:10CCF00000F00406080A0C0E101206200CE00720B3
:10CD00000AE0042008E0052006E0012004E00020FD
:10CD100002E0032000E00220A1F5134745F21032A3
:10CD200045F21056413F05D0914203D0B14201D0A7
:10CD3000A14277D1082812D2DFE800F011040608DA
:10CD40000A0C0E1080230AE0402308E0C02306E00E
:10CD5000202304E0602302E0A02300E0E023B142AE
:10CD600002D14FF4585000E03620914205D0B14234
:10CD700003D0A14201D043F00803194600F050FB54
:10CD8000AA88A2420AD098062888698802D58842D3
:10CD900002D303E0884201D9298068806889B242C1
:10CDA00041D100F027FB002000F018FB6889401CEF
:10CDB00080B200F01FFB002000F010FB6889801C8F
:10CDC00080B200F017FB2888401EC0F30F2000F04F
:10CDD00005FB6889C01C80B200F00CFB2878401E5F
:10CDE000C0B200F0FBFAA88900F004FB002000F0BC
:10CDF000F5FAA889401C80B200F0FCFA002000F08F
:10CE0000EDFAA889801C80B200F0F4FA6888401E10
:10CE1000C0F30F2000F0E2FAA889C01C80B200F035
:10CE2000E9FA22E028E000F0E5FA002000F0D6FA66
:10CE3000002000F0D3FA2888401EC0F30F2000F035
:10CE4000CDFA2878401EC0B200F0C8FAA88900F0D8
:10CE5000D1FA002000F0C2FA002000F0BFFA688882
:10CE6000401EC0F30F2000F0B9FAA878BDE8F040EA
:10CE7000401EC0B200F0B2BAF0BD00004010002069
:10CE800010B50D4C0D492068407C51F8200048B188
:10CE9000C16811B10968042901D00068F7E708B139
:10CEA000F8F7A9FE20680021016600F10801416140
:10CEB000BDE8104000F02EB8D0070020E8070020A1
:10CEC00001490968496808473C0E0020044909687F
:10CED0000A7C520701D5C96B00E0896B0860704776
:10CEE000D00700207CB5094C05462068417C0848E5
:10CEF00050F82100C1680A6B6946904720686A466D
:10CF000029460830FCF7A9FB7CBD0000D0070020B3
:10CF1000E80700200448016804484A7C083150F8BA
:10CF20002200C268126B1047D0070020E8070020DB
:10CF300001490968096808473C0E0020044909684E
:10CF40000A7C520701D5896B00E0C96B0860704705
:10CF5000D0070020F0B53F4D0C460246060AA988CE
:10CF60002846270A4089A1F51343413B28D0A1F563
:10CF7000A643103B24D0A1F5C853633B2FD0A1F5A5
:10CF8000AA43103B64D100F035FA304600F026FA8F
:10CF90006889401C80B200F02DFAD0B200F01EFA71
:10CFA000A88900F027FA384600F018FAA889401C32
:10CFB00080B200F01FFAE0B2BDE8F04000F00EBA17
:10CFC00000F018FA304600F009FAD0B200F006FA84
:10CFD000A88900F00FFA384600F000FAEBE7A979CB
:10CFE00029B300F007FA304600F0F8F9D0B200F0AB
:10CFF000F5F92888401EC0F30F2000F0EFF92878DB
:10D00000401EC0B200F0EAF9A88900F0F3F93846F2
:10D0100000F0E4F9E0B200F0E1F96888401EC0F3E6
:10D020000F2000F0DBF9A878401EC0B2C4E72988C1
:10D03000891A491E8AB200F0DDF9002000F0CEF90D
:10D04000002000F0CBF9100A00F0C8F9D0B2D9E7FF
:10D05000F0BD0000401000200149096889680847B8
:10D060003C0E0020F8B515460E460124F8F7FAFDEF
:10D07000009058B1C0681021426A6846904703008A
:10D0800004D02A4631460098984700242046F8BD2F
:10D090002DE9F04717000C46054636D01C490868B4
:10D0A000B0F90A20A24230DCB0F90E20A2422CDBFB
:10D0B000B0F90820AA4228DCB0F90C20AA4224DBEF
:10D0C000144E0F2F02D3C16B0B6813E0C06B884660
:10D0D0000068FFF7E1FB814621462846FFF73CFB4D
:10D0E00001463A464846FEF7E1FEFEF73DFF03469D
:10D0F000D8F800002246407C56F82000C1688E69AE
:10D100002946B446BDE8F0476047BDE8F087000017
:10D11000D0070020E807002013460A460F4930B424
:10D120000968B1F90840844216DCB1F90C40844228
:10D1300012DBB1F90A4094420EDCB1F90E40944280
:10D140000ADB4C7C064951F82440E1688D690146B0
:10D150002046AC4630BC604730BC7047D00700204A
:10D16000E8070020F8B515460E460124F8F77AFDC9
:10D17000009058B1C0680321426A68469047030096
:10D1800004D02A4631460098984700242046F8BD2E
:10D19000F8B515460E460124F8F764FD009058B125
:10D1A000C0680B21426A68469047030004D02A46B3
:10D1B00031460098984700242046F8BDF8B515463A
:10D1C0000E460124F8F74EFD009058B1C0680A21C0
:10D1D000426A68469047030004D02A4631460098C8
:10D1E000984700242046F8BD38B50D460124F8F7CD
:10D1F00039FD009050B1C0680621426A68469047E8
:10D20000020003D02946009890470024204638BDEC
:10D210002DE9F84F82461F460E468B46580700D030
:10D22000012000EBD700790810FB01F0203AC0B2D2
:10D2300002F0FF090025009047E00C2F10D0102FBE
:10D2400012D0182F14D0202F42D1224901EBC9103F
:10D250004FF00008445D200610D51F48026811E019
:10D2600009EB49001D4906E01D4901EB0910EFE7F4
:10D270001C4909EBC90001EB8000E9E70A9828B9CD
:10D280001548426831465046FFF73EF96006040EE5
:10D290001548761CB6B24088B04219D9A6EB0B00EF
:10D2A000B84209D10AF101001FFA80FA0E485E4621
:10D2B000018851450CD906E008F1010000F0FF0893
:10D2C000B8F1080FC7D36D1CEDB200988542B4D3F6
:10D2D000BDE8F88F06980208240000204680020866
:10D2E000BA840208AA8A0208401000202DE9FF4FE4
:10D2F00081B00027DDF838B01D46924680463C4696
:10D30000B9464FEA5B0627E0281B401EC1B20A203F
:10D31000FFF786FBBAFBF0F00A21B0FBF1F201FB4C
:10D32000120027B9691E8C4201DA48B1012730305A
:10D33000C2B206FB048080B25B46CDF8009006E0E6
:10D3400006FB048080B25B462022CDF80090029953
:10D35000FFF75EFF641CE4B2AC42D5D305B0BDE874
:10D36000F08F2DE9F84F044600F0FF0810190D4624
:10D37000DDE90A761FFA80FA58191FFA80F94FF092
:10D38000000B11E0544502D3E819444685B24D45DF
:10D390000FD23B4629462046CDF800B0FFF738FFB4
:10D3A00004EB570084B2761C3278A2F120005E288C
:10D3B000E8D9BDE8F88F000010B5074C2068006B75
:10D3C000FEF7D2FDFFF7BAFD2068406BFEF7CCFDFB
:10D3D000BDE81040FFF77ABDD007002001B5BDF8C9
:10D3E0000000ADF80000BDF800000149088008BD4C
:10D3F0000000086001B5BDF80000ADF80000BDF800
:10D4000000000149088008BDFEFF0760024803498B
:10D41000008908807047000040100020FEFF076070
:10D42000024A1080901C018070470000FEFF0760D8
:10D430002DE9F84300231A463B493C48F8F778FBAE
:10D440003B4C002062882188FFF7A2FE6288218879
:10D450000020FFF7B3FEA088A0F5AA4110392DD017
:10D46000A0F5C851633929D0A0F5E041843925D011
:10D47000A0F58641423921D0A0F5E04116391DD0F2
:10D48000A0F5A6414FF4A077103924D0A0F5D041E3
:10D49000043920D0A07940F63F7540F65F76B8B3E6
:10D4A0000620FBF76FF800219B23F0220846009529
:10D4B000FAF76EFFBC233A46009623E02288002349
:10D4C000501E009019461846FAF762FF6288501EF7
:10D4D0000023009016E0A079E22440F65B76C42594
:10D4E00040F6E4684FF4F07910B10620FBF74AF8F3
:10D4F000002133463A4608460094FAF749FF43466E
:10D500004A46009500210120FAF742FFBDE8F88362
:10D51000FFE70095002122889B230846FAF738FF91
:10D5200000966288BC23EDE7ACB60B0884C80208FD
:10D5300040100020012902D04FF0FF30704700203A
:10D54000704700002DE9FF4F8DB01746674ADDF8A0
:10D5500070901E9E209812681D4600248AB11D9B63
:10D560001F98CDE90293CDE90460DDE91A03CDE906
:10D57000000314682B463A460D98A04711B0BDE849
:10D58000F08F0D9A01EB050802EB070CDDE91A2379
:10D590001A43A8F10108ACF1010C012A06D0C9F127
:10D5A00008004FF0000B029105909CE0504A126871
:10D5B000B2F90A40631A002B06DDED1A002DDDDDFD
:10D5C00021461D9C03FB0466B2F90E30A8EB030351
:10D5D000002B02DDED1A002DD0DDB2F90C30ACEBE2
:10D5E0000303002B00DDFF1A0D9B1C1AB2F9083053
:10D5F000A3420DDDA3EB040C0CEB0003181A20F082
:10D6000007000444A7EB0C0706EBE30603F0070052
:10D61000002FB3DDDDF874C01F9BCDE902C6CDE954
:10D620000403CDE90059527C32483B4650F82200B1
:10D63000C26855680A462146A8479FE71B99029889
:10D6400008440C902A49401E00900A68B2F90A303A
:10D65000834242DCB2F90E10029881423DDB4FF06A
:10D66000000A0D980A96D046039034E0BAF1000FF4
:10D6700005D10A984FF0080A10F8014B0A90059955
:10D68000AAEB090A34FA01F004FA09F4E4B204D16D
:10D6900017490968097C890717D415490968C96BB6
:10D6A0000A680B921F9A0AB152F820000860039989
:10D6B0001A98009B0A18DDE90210521EFEF7D0FFEF
:10D6C0000B490B980968C96B086003991A9808F10F
:10D6D000010808440390B845C8DB0C9802901D98D7
:10D6E0000BF1010B0644AB45A8DB47E70C08002013
:10D6F000D0070020E8070020002818D0410817D0E4
:10D70000810817D0C10817D0010917D0410917D0D7
:10D71000010A17D0410A17D0010B15D0C10B13D045
:10D72000010C11D0810C11D0000E11D020207047B7
:10D730000120704702207047032070470420704783
:10D74000052070470820704710207047122070474E
:10D750001820704700B50022FFF7CEFF012804D043
:10D76000811E062903D808220BE0012209E0A0F15E
:10D770000901072901D8102203E011380F2800D829
:10D780002022104600BD0000104810B5016886B088
:10D7900041F0020101600068012100F002000590E3
:10D7A0000320CDE90210CDE90001094C694620466D
:10D7B000FCF728FA012211462046FCF716FB01224D
:10D7C00002212046FCF711FB06B010BD30380240A4
:10D7D000000402402DE9FF5F5FEA00094FF00000FE
:10D7E0001C4692468B460090054601903ED0F9F7C4
:10D7F000E1F94846F7F71CFD0390B8B3D0F8348040
:10D80000066C00F0B0FD074603A8F7F77BFD601C2F
:10D8100000D10E242346524659464046FDF734FDBA
:10D820008DF80040082269463046F7F78FFDAFB10A
:10D83000002411E02146484600F0DBFD0290066816
:10D8400002A8F7F75FFD082200213046F7F77EFDBA
:10D8500008B1012502E0641CBC42EBD3484600F04D
:10D8600001FE484600F0A4FEFBF746F804B0284647
:10D87000BDE8F09F2DE9F34F85B00D4605980026D1
:10D88000D8B1F9F797F90598F7F7D2FC009090B165
:10D89000D0F83CB000F067FD0190009800F060FD0A
:10D8A00081466846F7F72EFD0C2200215846F7F70F
:10D8B0004DFD30B10126FBF71FF807B03046BDE83B
:10D8C000F08FF7F780FD804600242CE025B101CDD4
:10D8D0005FEA000A02D002E0002082460025FCF741
:10D8E00055F9471C00F1090200214046F7F72EFDCB
:10D8F00040B1012603E021464046F7F78FFD641E44
:10D90000F9D212E021464046F7F7D1FD0290012FEF
:10D9100005DD5FEA0A0102D0001DF2F733FE02A81E
:10D92000F7F7F0FC641C4C45D0DB58460199F7F73B
:10D93000BEFD0390C0F8008003A8F7F7E3FC05984C
:10D94000F7F776FC009088B1002180F8B010D0F88D
:10D95000AC1039B1D0F88000002803DB059800F046
:10D9600081FD03E00199059800F096FD6846F7F700
:10D97000C9FC059800F01CFE9DE770B5466804469A
:10D98000014686B0304606F093F9002824D020687E
:10D990000F2878D006DC05280CD00B2874D00E2870
:10D9A00073D1D6E0252805D0262817D0B0F5107FF2
:10D9B000F6D1BAE03046F7F73BFC009000280BD0D8
:10D9C000456B6846F7F79EFCA068002804D0A84283
:10D9D00002D1304600F0ECFD06B070BDE0680025D5
:10D9E000022853D0052812D00628F2D00728F3D1F8
:10D9F0003046F7F71DFC00900028EDD0A168426B7F
:10DA0000914200D145636846F7F77CFCE4E7304675
:10DA100006F0B4FE0146A068814211D101A906F0CA
:10DA200095FE3046F7F704FC009028B10299C0F843
:10DA300098106846F7F766FC304600F013FD20E0CA
:10DA4000304606F08BFEA1688842C5D13046F7F714
:10DA5000EFFB0090A8B1456BD0F8A400029001A99B
:10DA6000A06806F073FE00990298C1F8A400684609
:10DA7000F7F748FC304600F09BFD28460299FDF779
:10DA80007FFE0A2161E046E06EE06CE03046F7F789
:10DA9000CFFB009000289FD0A168426B9142B2D189
:10DAA000D0F8AC000028AED0304607F0AFFC0098AC
:10DAB000406BFDF7D5FD0400A5D400982146006C0D
:10DAC000F7F7F5FC049010B3406800B30098D0F865
:10DAD000AC00F7F7ADFB014605900098D0F8802028
:10DAE000A24209D10A7C82F001020A74012180F865
:10DAF000B21080F8B05004E00D74C0F8804080F897
:10DB0000B150304600F0AEFC05A8F7F7FBFB04A8C7
:10DB1000F7F7F8FB77E73046F7F78AFB0146009006
:10DB20002246304614F0B2FB6DE7E16859B1087A3D
:10DB300038B1304617F002F90124304607F066FC90
:10DB400002E0022400E003242146304613F090FD59
:10DB500042E7E0684168002910DD0168304608F0BE
:10DB600075FD0028F4D109E03046F7F761FB00901D
:10DB700020B110F0D6FE6846F7F7C4FB204606F049
:10DB800079FB29E73FB50022CDE90201009201921D
:10DB9000104602AB694653F82020002415782D2D3D
:10DBA00011D10124521C43F820200CE0303A0A2AFB
:10DBB00011D251F8205005EB85056D0041F8205039
:10DBC0002A4441F8202053F8205015F8012B43F83F
:10DBD0002050002AEAD124B151F82020524241F8C5
:10DBE0002020401C0228D6DBDDE90001884203DD4D
:10DBF0004FF0FF3004B030BD02DA4FF00100F9E71A
:10DC00004FF00000F6E70A4601461046F2F714BE50
:10DC1000F0B585B00DF1280C9CE8F0004FF0000C39
:10DC20008DE8F01000F002F805B0F0BD2DE9F04FDE
:10DC300089B01D46DDE915B6DDE9127A144688463D
:10DC40008146F8F7B7FF44EA050040EA090050EAC8
:10DC500008000FD105A9384606F054FCBDF918009C
:10DC6000BDF91410441ABDF91A00BDF91610641C50
:10DC7000451A6D1C24498836CDE90216CDE9007A93
:10DC80002B4622464146484606F03CFA040035D071
:10DC9000F7F799FB0646F7F796FB05462046F7F798
:10DCA000C7FA049038B3C0E90F651022594606F050
:10DCB00053F90498302215494430F2F739FD04989D
:10DCC0001349012240F8381F00214D1EC5634164ED
:10DCD000C0E91312426502200094CDE901010B4610
:10DCE0000A4608460391FDF7CDFB04998D6748630A
:10DCF00004A8F7F707FB204600F05AFCFAF7FCFDF2
:10DD000009B02046BDE8F08F7BD90008040B002045
:10DD1000B3DF000810B504000AD0F8F74BFF4FF04E
:10DD2000FF31204613F081FBBDE81040FAF7E4BD57
:10DD300010BD38B5040010D0F8F73CFF2046F7F7C7
:10DD400077FA0090D0F8AC506846F7F7DBFA15B9CF
:10DD5000204609F025FFFAF7CFFD38BD38B505009C
:10DD60004FF000040BD0F8F725FF2846F7F760FACC
:10DD70000090446B6846F7F7C5FAFAF7BDFD2046F8
:10DD800038BD38B505004FF000040CD0F8F712FF8D
:10DD90002846F7F74DFA0090D0F888406846F7F724
:10DDA000B1FAFAF7A9FD204638BD38B505004FF0A5
:10DDB00000040DD0F8F7FEFE2846F7F739FA009078
:10DDC00000F0CEFA04466846F7F79CFAFAF794FD9D
:10DDD000204638BD38B505004FF000040DD0F8F7E7
:10DDE000E9FE2846F7F724FA009000F0BCFA044652
:10DDF0006846F7F787FAFAF77FFD204638BD38B551
:10DE000005004FF000040CD0F8F7D4FE2846F7F7D1
:10DE10000FFA0090D0F88C406846F7F773FAFAF7DB
:10DE20006BFD204638BD012111F063BF38B50500F8
:10DE30004FF0FF040CD0F8F7BDFE2846F7F7F8F9CD
:10DE4000009090F86E406846F7F75CFAFAF754FDD8
:10DE5000204638BD10B5040009D0F8F7ABFE01210B
:10DE6000204613F0E2FABDE81040FAF745BD10BDB8
:10DE70002DE9F74F84B00026049814468A460028FE
:10DE80007DD0F8F797FE0498F7F7D2F90090C06BB1
:10DE9000F7F7F1FA0546009800F062FA814600981B
:10DEA000D0F83C806846F7F72DFA5046AA4575D25F
:10DEB00001460C224046F7F750FB00286CD0F7F7DC
:10DEC00082FA07006FD051464046F7F7F0FA029009
:10DED000076002A8F7F716FA002527E024B101CC65
:10DEE0005FEA000B02D002E0002083460024FBF72B
:10DEF0004DFE00F1010800F1090200213846F7F754
:10DF000025FA08B1012613E029463846F7F7CFFA7B
:10DF10000190B8F1010F05DD5FEA0B0102D0001D91
:10DF2000F2F730FB01A8F7F7EDF96D1C4D45D5DB95
:10DF30000498F7F77DF90090D0F88010002905DAF1
:10DF4000416F514502DD0498FFF784FF00990020DE
:10DF500081F8B1006846F7F7D5F9049800F028FB7E
:10DF600004460498F7F764F9009034B9D0F8AC107F
:10DF700051B1D0F88000002806DB049801E014E0DD
:10DF80000CE000F06FFA03E05146049800F0AFFA9D
:10DF90006846F7F7B7F906E0012604E02146049841
:10DFA000FFF768FC0646FAF7A7FC07B03046BDE865
:10DFB000F08F2DE9FC41018A046A0FB2ADF80070C0
:10DFC000818A0EB2ADF80260018B0BB2ADF804305D
:10DFD000818B0AB2ADF80620D0E901C5C168BCF159
:10DFE000010F0ED0BCF1050F40D0BCF11A0F03D0C9
:10DFF000BCF11B0F57D102E0D81BBDE8FC81901B80
:10E00000FBE7226842B192F82C309B0704D51668D2
:10E0100000686B462A46B047BDF80000A18A084454
:10E02000ADF80000BDF80400218B401AADF80400E3
:10E03000206850B190F82C10C90706D02169182229
:10E0400002EB81014058FEF773FF237994F82020FA
:10E050006946E069F7F7C4FF206820B390F82C0008
:10E06000C00720D0A068FEF763FF1CE0002D0CDB8A
:10E07000206850B190F82C10C90706D021690822F9
:10E0800002EB81014058FEF71BFF6846F7F7BCFC26
:10E09000002D08DB206830B190F82C00C00702D0BA
:10E0A000E068FEF70DFF0020A7E738B5002400F078
:10E0B000A0F9009018B104796846F7F723F92046D3
:10E0C00038BD022215F0D7BE7CB514460D460600B9
:10E0D00019D0F8F76FFD3046F7F7AAF801903046EF
:10E0E000FFF763FE854209DA01982946006CF7F7CD
:10E0F000DEF9009044606846F7F704F901A8F7F7E5
:10E1000001F9FAF7F9FB7CBDF8B50D4606004FF0B2
:10E11000000416D0F8F74EFD3046F7F789F8009066
:10E12000C46FA54203D0C567304600F09BF968462E
:10E13000F7F7E8F8A54202D0304600F039FAFAF7CE
:10E14000DBFB2046F8BD2DE9FC411C46089E174626
:10E150008846050041D0F8F72DFD3A46414628464D
:10E1600000F012F9009030B93A464146284600F0D6
:10E17000B3F8009078B3014690F82C00C2071FD185
:10E1800040F0010081F82C002846F7F751F8019083
:10E1900000990020A04206D0019A01EB800302EB17
:10E1A0008002526C9A60019A01EB800302EB8002BC
:10E1B000401C526D9A610428ECD301A8F7F7A2F82D
:10E1C0000098394600EB84008660284600F064F928
:10E1D0006846F7F797F8FAF78FFBBDE8FC8138B58A
:10E1E0000C46050013D0F8F7E5FC2846F7F720F8B1
:10E1F0000090D0F88810A14204D0C0F8884028468A
:10E2000000F030F96846F7F77DF8FAF775FB38BD8E
:10E2100038B50C46050013D0F8F7CCFC2846F7F7C4
:10E2200007F80090D0F88C10A14204D0C0F88C40C0
:10E23000284600F017F96846F7F764F8FAF75CFB30
:10E2400038BD2DE9F04186B016460D465FEA00085C
:10E250004FF0000403D0FFF7A8FD854203D301204F
:10E2600006B0BDE8F081F8F7A5FC4046F6F7E0FF00
:10E270000090006C2946F7F71AF903906846F7F703
:10E2800041F80398476803A8F7F73CF8FFB1404608
:10E2900009F086FC4046F6F7CBFF0090D0F8AC00C2
:10E2A000F6F7C6FF019050B10099C1F8805006748E
:10E2B000002081F8B000404600F0D4F800E00124CE
:10E2C00001A8F7F71FF86846F7F71CF800E00124EB
:10E2D000FAF712FB2046C3E72DE9FE4316468946AE
:10E2E0005FEA00084FF0000537D0F6F7A1FF019074
:10E2F00000F036F80746019800F035F8044601A80A
:10E30000F7F700F8B94528D2A64226D23146404652
:10E3100000F06FF80290066802A8F6F7F3FF49468E
:10E320003046F7F7C4F8009020B104686846F6F765
:10E33000E9FF74B93020F6F77EFE04000DD049469F
:10E340003046F7F7B4F8009018B104606846F6F765
:10E35000D9FF2046F6F76CFF05462846BDE8FE8348
:10E36000006CF7F788B8C06BF7F785B810B50446AE
:10E37000D0F88400002806D1A06EF8F7D3FBE16F37
:10E38000002900D0401C10BD2DE9FE4315468946EA
:10E390005FEA00084FF0000428D0F6F749FF00902C
:10E3A000FFF7DEFF07460098FFF7DDFF06466846E9
:10E3B000F6F7A8FFB94519D2B54217D2294640460B
:10E3C00000F017F80290056802A8F6F79BFF49468F
:10E3D0002846F7F76CF8019040B1056801A8F6F7F8
:10E3E00091FF1DB12846F6F723FF04462046BDE8FD
:10E3F000FE833EB50D460024F6F71AFF0090D0F8D4
:10E40000AC1029B3D0F88020002A21DB0846F6F7AB
:10E410000FFF0190006888B1F6F70AFF019902909A
:10E420008988A94206DD30F815100098C06BF7F70F
:10E430003EF8044602A8F6F765FF05E00098294675
:10E44000C06BF7F734F8044601A8F6F75BFF04E069
:10E45000C06B2946F7F72BF804466846F6F752FFDB
:10E4600020463EBD3EB50546F6F7E2FE0290406B03
:10E47000FDF7A5F8044602A8F6F744FF69462846CA
:10E4800006F0D2F8BDF8020069462044ADF802005B
:10E49000284606F049FC3EBD2DE9FE430C008046AF
:10E4A00023D4F6F7C5FE0290406BFDF788F80546C9
:10E4B0000298D0F89860FFF759FF074602A8F6F7D0
:10E4C00021FF6946404606F0AFF8BDF90200A11BE6
:10E4D00001FB070041197F1EC819ADF80210ADF805
:10E4E00006006946404606F01FFCBDE8FE837FB586
:10E4F0000C00054620D4FFF731FCFDF760F8064616
:10E5000001A9284606F090F82846F6F791FE0090FB
:10E51000FFF72CFF009ABDF90610D2F89820A21A36
:10E5200002FB00103044ADF806006846F6F7EAFE3C
:10E5300001A9284606F0F8FB7FBDF8B50C46074652
:10E54000F6F776FE0090FFF70EFF05460098466F3F
:10E550006846F6F7D7FEAC4200DB6C1E002C01DAF1
:10E560004FF0FF34B44221D021463846FFF79DFDDD
:10E5700000281BD13846F6F75BFE009044676846DA
:10E58000F6F7C0FE384617F07DFA18B13846FFF7A7
:10E5900069FF07E031463846FFF77EFF21463846DF
:10E5A000FFF77AFF0421384606F062FDF8BD00004F
:10E5B0002DE9FE4F83463348017811B10020BDE8B4
:10E5C000FE8F0121824601705846F6F731FE014662
:10E5D0000090584611F0DCF98146584601A906F032
:10E5E00023F8BDF90800BDF90410009E401A00F19F
:10E5F0000108F06B01900124706BFDF71BF8070018
:10E600000AD000252C4605E02946706BFCF7F0FF88
:10E6100004446D1CBD42F7DB009890F8B350A80786
:10E620000AD50198F6F727FF484501D9012100E0F6
:10E630000021584606F0B7FFE8070CD0444501DD3D
:10E64000012100E00021584606F09FFF584600993E
:10E6500011F09EF981460098FFF785FE0099C1F8F8
:10E660009C9000B9012041F8940F6846C1F81480CD
:10E67000CC60F6F747FE584617F004FA00228AF8F5
:10E6800000209CE7000B002008B500900548018B96
:10E69000C08A491E8BB2401E82B20021084600F09B
:10E6A00045F808BDF810002000B58DB00823099288
:10E6B0000490009306916846FBF7D0FD002800D037
:10E6C00001200DB000BD000010B5084B1C46587568
:10E6D000A1888AB2218889B220B1012801D1D982CA
:10E6E0001A8310BDDA82198310BD0000F8100020D3
:10E6F000F0B50C4F94B23D46DFF82CC02B68EA69A8
:10E700002D7D7E7D5CF8255026B103FB0100424340
:10E71000AC52F0BD7E68301A401E03FB001050431F
:10E720002C52F0BDF81000202C0000202DE9F04301
:10E73000254EDDF81C900024757D0DB1054606E0E0
:10E7400077680D46B91A1A463B1A491E5B1E306897
:10E7500096F814C0DFF87480521B871A58F82CC042
:10E76000F66900FB015006FB00C519487F1EBFB2C9
:10E77000066846F40006066016484FF44036066008
:10E78000022646630764066826F001060660C56334
:10E79000591A4FF4803303EB0242491C1143416480
:10E7A000C0F83890016841F0010101605A0102E0AF
:10E7B000641C944202D241688907F9D5816841F00E
:10E7C00002018160BDE8F083F81000202C000020D9
:10E7D0003038024000B002402DE9FF4100F01CF942
:10E7E00001460126644CA1F586424FF4F07547F2CC
:10E7F0008400423A14D032044FF44873814224D149
:10E80000C4E90035268166812E20A0811720E08191
:10E81000D22020821620608203214FF4C67033E09C
:10E8200056A0F1F77FFD4FF48870C4E900502681AF
:10E8300066812820A0810820E081052121828203B1
:10E84000608204214FF490701EE0A1F5E0454FF482
:10E850008060163D06D0AA1E19D0A1F50042173AD5
:10E860001AD01DE020604FF41670606014202081E3
:10E87000032161818C21A181E081A02020820C20D4
:10E88000608202214FF49670FFF70EFF08E04FF40C
:10E89000A060C4E9000303E020604FF440706060B2
:10E8A00038482268394F0280616841800220E06167
:10E8B000354838603048364BA8380025C0E9003567
:10E8C0008560C5600561B4F808C0ACF1010343611F
:10E8D0006389A3F1010EC0F818E0B4F80CE0F44429
:10E8E000ACF1010EC0F81CE0B4F80EE07344A3F1E3
:10E8F000010EC0F820E0A2F1010EE644C0F824E0C9
:10E90000A1F1010E9E44C0F828E0B4F810E0724472
:10E910006244521EC262628A11441944491E016354
:10E9200080F8365080F8355080F83450FBF7C4FA40
:10E9300007200621CDE90205CDE90051FF2302227F
:10E940000020396800F028F8A088002280B20090EA
:10E950002088114683B2104600F04CF80020FFF7E3
:10E96000B3FE0C482575C0F8946204B0681EBDE87B
:10E97000F041FFF789BE0000F810002069643D25D2
:10E98000780D0A0040100020000000C02C0000207C
:10E9900000680140008040422DE9F0438DB01646EA
:10E9A00014AA002492E88013114D009402942A685E
:10E9B00001926D68CDE904634FEA0823CDE906733F
:10E9C00003954FEA09230DF1240E08938EE82600E3
:10E9D00002468DF8324006488DF831408DF830C03F
:10E9E0006946A838FBF73FFA0DB0BDE8F083000098
:10E9F000F810002070B51E46044603460548049DE5
:10EA0000FBF752FB23462A463146BDE870400148D9
:10EA1000FBF774BB5010002030B52A4887B00021A6
:10EA2000026842F040020260026802F04002059271
:10EA3000026842F4807202600068234C00F4807027
:10EA400005904020CDE900010120029003200390B1
:10EA500069462046FBF7D6F884201C4D0090694695
:10EA60002846FBF7CFF840212046FBF7B9F90446CA
:10EA700004212846FBF7B4F944EA400480212846E3
:10EA8000FBF7AEF944EA800010F0FF000AD001283D
:10EA90000BD002280CD003280DD004280ED0002063
:10EAA00007B030BD44F24230FAE747F28400F7E79E
:10EAB00047F21600F4E747F21800F1E748F21700B2
:10EAC000EEE700003038024000180240002002400B
:10EAD000F0B50B4E0B4F3446757D2368E269247DFB
:10EAE00057F8244025B103FB01004243A05AF0BD72
:10EAF0007568281A401E03FB00105043205AF0BDD1
:10EB0000F81000202C000020F0B504688B88E56820
:10EB1000C5F30B452B441D04882303EBC213E658B1
:10EB200006F47046E65004680F68E668C6F30B46C4
:10EB3000761C3E442E43E65003688C89DD68C5F39D
:10EB40000A052C4425048C2404EBC2141E5906F437
:10EB500070461E5103688F68DE68C6F30A06761C8D
:10EB60003E442E431E519423046803EBC213E55820
:10EB700025F00705E55005680C69EC5091F8313037
:10EB800005681F0291F832301C040B7E1E069C2380
:10EB900003EBC21355F803C04FF0000C45F803C057
:10EBA00091F8305034433D4325430468E5509823A1
:10EBB000046803EBC213E55825F0FF05E55005682E
:10EBC0004C69EC50A023046803EBC213E55840F2F3
:10EBD0000776B543E550D1E907452C430568EC506D
:10EBE000AC23046803EBC213E55844F803C005687E
:10EBF0004C6AEC500B698BB3012B32D0042B32D012
:10EC0000022B30D0032B2ED0072B2CD00123B02485
:10EC1000056804EBC2142E5906F0E0262E51D1E906
:10EC20000065AD1B0E8D5D435E43ED1C45EA06435A
:10EC300005682B51B423046803EBC213E5586FF346
:10EC40000A05E5500468C96AE1500068842101EBB7
:10EC5000C211425842F001024250F0BDFFE70423C6
:10EC6000D5E70323D3E70223D1E7FEE7704709077F
:10EC7000090E002806DA00F00F0000F1E02080F80D
:10EC8000141D704700F1E02080F800147047000068
:10EC900070B588B0244800248DF81440016841F014
:10ECA00080010160016801F080010691016841F472
:10ECB000807101600068012500F48070069080205A
:10ECC0008DE831000320039069461848FAF79AFF4F
:10ECD0002802CDE9000569461548FAF793FFF2F7D7
:10ECE0002FFA144EC6F8A042642006F5287618F0D4
:10ECF00017FA3560642018F013FA012000F00CF9BF
:10ED0000012205A94FF4506000F01CF89DF8141082
:10ED100009A0F1F707FB9DF81400802802D001201C
:10ED200008B070BD0020FBE730380240001C0240F4
:10ED300000200240000044424354502049443A25F8
:10ED4000780D0A002DE9F04115460F460446F2F70A
:10ED5000C3FAB220F2F78AFAF2F70AFB200AF2F7B6
:10ED600085FAF2F705FBE0B2F2F780FAF2F700FB62
:10ED7000F2F7B2FAB320F2F779FAF2F7F9FA0024CF
:10ED80006E1E09E0B44201D0012000E00020F2F73D
:10ED900031FA3855641CE4B2AC42F3D3BDE8F0411B
:10EDA000F2F7C0BA2DE9F143524F00242DED048B48
:10EDB0004FF00A0882B038784F4E401CC0B2B0FB0A
:10EDC000F8F208FB12012546387009B10A2873D2FF
:10EDD000012206A90020FFF7B5FF9DF81800C10623
:10EDE0006ED000F01F0040F0C00086F820004FF009
:10EDF00001099FED428B9FED439B96F8201009FA85
:10EE000004F001424BD041480422694630F8140016
:10EE1000FFF798FF96F830009DF80210C0079DF8A4
:10EE2000030000EB012020D018F044FD53EC182B18
:10EE300018F090FD18F0FAFC06EB4405E8829DF806
:10EE400001009DF8001000EB012018F033FD53EC99
:10EE5000192B18F07FFD9FED2E1B53EC112B18F092
:10EE6000ADFE18F0E3FCA88119E018F023FD53EC87
:10EE7000182B18F06FFD18F0D9FC06EB4405A8819B
:10EE80009DF801009DF8001000EB012018F012FD24
:10EE900053EC192B18F05EFD18F0C8FCE882641CD6
:10EEA000E4B2052CA9D30125B28900211AB9F08A50
:10EEB00008B98DF8181039709DF81800C0060ED1E9
:10EEC00096F82000010602D520F0800005E04FF6FC
:10EED000FF71B181F18200F0E00086F820003878FF
:10EEE000F02801D987F8008002B02846BDEC048BD9
:10EEF000BDE8F883360000203C0000207B14AE47BC
:10EF0000E17AD43FD881734694F6D23F52C80208C2
:10EF1000000000000000894008B500218DF80010B5
:10EF200010B180208DF80000012269464FF4506036
:10EF300000F001F808BD2DE9F04115460E460446E3
:10EF40000027F2F7C9F9B220F2F790F9F2F710FAB8
:10EF5000200AF2F78BF9F2F70BFAE0B2F2F786F932
:10EF6000F2F706FA002408E0305DF2F77FF9F2F7D5
:10EF7000FFF9070003D1641CE4B2AC42F4D3F2F70A
:10EF8000D1F93846BDE8F08138B5446805460146F8
:10EF9000204604F08DFE002811D028680B280FD0E1
:10EFA0000F2817D12046F6F743F90090406E056808
:10EFB0006846F6F7A7F9002D01D02046A84738BDCE
:10EFC0002046F6F735F900903830F6F77DF86846B8
:10EFD000F6F798F92846BDE8384005F04BB9F0B58A
:10EFE00085B0B0F90850468A84690296CDE9035489
:10EFF0000027CDE90017B0F90C10B0F91050B0F9A6
:10F000000E40B0F90A00194410442B46224600F085
:10F0100003F805B0F0BD00002DE9FF5F9846DDE97B
:10F020000E5691468A468346109F129CF7F7C2FD02
:10F0300025484034CDE90204CDE9005643464A460E
:10F040005146584605F05EF8050037D00520F5F723
:10F05000F2FF040032D02846F6F7EAF800220090CA
:10F06000119904F079FF1949284604F0D7FE184E8B
:10F070000098182231684166311D4C30F1F758FB79
:10F0800000980221A0F840106421816400214164AD
:10F0900080F8687084632046F6F7CAF8014601904C
:10F0A0000022009815F04CFF01A8F6F72BF96846EE
:10F0B000F6F728F93068416828468847F9F71CFCBC
:10F0C00004B02846BDE8F09F89EF000830220C0804
:10F0D000340B002070B50446006A6268052A22D00D
:10F0E0001C490B2A02D0122A31D121E00868006A9B
:10F0F000F8F765FFD4E90410A269F7F7BFF9D4E97E
:10F1000006202169F7F7BAF9D4E90401E269491C3C
:10F11000521EF7F7BBFAD4E90510E269491C521EEA
:10F12000F7F7B4FA13E00168204609F0C7FB0EE0D8
:10F13000026862B985680868406AF8F740FF0220F3
:10F14000F8F7F6FFD4E904122846F6F7F1FE00209E
:10F1500070BD0000C4100C08044A03491160044942
:10F160004A69486110467047500B0020340B00205C
:10F17000380B002038B50D4604000ED0F7F71AFD05
:10F180002046F6F755F80090C5646846F6F7BAF8D9
:10F19000204605F009FEF9F7AFFB38BDF8B5144677
:10F1A0000D46060017D0F7F705FD3046F6F740F894
:10F1B0000090AC420ADD816CA14202D1416CA942AF
:10F1C00004D0C0E91154304605F0EEFD6846F6F76C
:10F1D00099F8F9F791FBF8BD38B50C4605000FD04A
:10F1E000F7F7E8FC2846F6F723F80090A0F840402F
:10F1F0006846F6F787F8284605F0D6FDF9F77CFB58
:10F2000038BDF0B587B00C4607007ED0F7F7D2FCCA
:10F210003846F6F70DF80090416CA14200DD0C462F
:10F22000816CA14200DA0C46416BA1426ED090F88D
:10F23000681040F6FF76C907416B4FF0000519D002
:10F24000A14207DD214600F0C3F8ADF80E0000989A
:10F25000416B05E000F0BCF8ADF80E0021460098C7
:10F2600000F0B6F8ADF80A00ADF80850ADF80C6043
:10F2700000985FE0A14207DD214600F0A9F8ADF853
:10F2800008000098416B05E000F0A2F8ADF8080016
:10F290002146009800F09CF8ADF80C000098ADF8FD
:10F2A0000A50ADF80E6090F86810890742D40495B2
:10F2B0000595806BF5F7A6FF05280EDA0098856B9B
:10F2C0006846F6F71FF805212846F5F7BFFF054603
:10F2D0003846F5F7ADFF00908563009800F036F8EA
:10F2E000019030B30098C06CF8F798FE0546DDE950
:10F2F000000204A900F02DF802A904AA0846F8F7B4
:10F30000F1FADDE90001224601E01DE017E015F009
:10F3100017FEDDE9000204A900F01BF802A904AA07
:10F320000846F8F7DFFA2846F8F778FE01A8F5F75F
:10F33000E9FF00E0446302A9384605F0F5FC6846A1
:10F34000F5F7E0FFF9F7D8FA07B0F0BD806BF5F7F5
:10F350006FBF2DE9F04105460C46B0F90400B5F940
:10F360000010471AB5F90600B5F902107F1C401AC3
:10F3700000F101081046F7F7A0FB0646F7F766FB19
:10F38000E96A95F84020096802F00302012A06D0D4
:10F39000022A07D1B91B01EBD171491002E0BA1B57
:10F3A000511A491E2180A8EB000101EBD1714910CF
:10F3B00061802288AB8F761E1A442280EB8F324404
:10F3C00019446180401EA2800844E080BDE8F081BD
:10F3D00070B590F8682012F00104C26A136804D076
:10F3E000B0F90620B0F9025003E0B0F90420B0F9FA
:10F3F0000050551BD0E911206D1C914200DA1146D6
:10F40000814200DD01465E4205EB46050CB1411A22
:10F4100000E0891A4D43801A95FBF0F0184470BD46
:10F420007047F8B50D4604000FD0F7F7C3FB204630
:10F43000F5F7FEFE0090066D6846F5F763FF71195B
:10F44000204600F03FFAF9F757FAF8BD7CB5456859
:10F4500004460146284604F02BFC002826D02068EC
:10F4600023287BD006DC0B280FD00E2824D00F28B1
:10F470000ED10EE024284BD0A0F5807013386AD04E
:10F48000A0F580702D387FD111E0284600F044FAB5
:10F490007AE02846F5F7CCFE0090002806D0406CB4
:10F4A00004686846F5F72EFF2846A0477CBD214634
:10F4B000284613F0D5FC67E02E462846F5F7B8FE3F
:10F4C0000190456D01A8F5F71DFFE068D0E9001037
:10F4D000002859DD132913D006DC102914D0112976
:10F4E00012D0122950D10BE0212902D022294BD170
:10F4F00001E0294600E069423046FFF792FF43E011
:10F50000304600F0CEF93FE0304600F0E9F83BE04D
:10F510002E463046E568F5F78BFE01902968C26CEF
:10F52000914207D1426DAB689A4203D1026D6B687C
:10F530009A4211D0C164A968416569680165304685
:10F5400005F032FC01A8F5F7DDFE0521304605F097
:10F550008FFD19E002E014E001A80FE02846F5F75E
:10F5600067FE009080B1E168C06C08600098E268B6
:10F57000416D9160E168006D48606846F5F7C2FE34
:10F5800002E0284613F0C8FA204604F073FE7CBD62
:10F590001FB50A0703D5FE2340F28A5202E0FF237B
:10F5A00040F28A32CDE90213CDE9000200231A4667
:10F5B0001946184600F007F80446062105F058FDE4
:10F5C00004B0204610BDF0B585B00DF1280C9CE8C4
:10F5D000F0004FF0000C8DE8F01000F003F805B0DB
:10F5E000F0BD00002DE9F04F87B01F46DDE9126A3B
:10F5F000144688468146DDF840B0F7F7DBFA364D11
:10F6000054EA070022D105A9584605F005F830074D
:10F610000ED5B5F90040BDF91800BDF91680BDF949
:10F620001A10001BA1EB080700F101097F1C0DE077
:10F63000B5F90070BDF91A00BDF91490BDF91810A4
:10F64000C01BA1EB090400F10108641C1498119976
:10F65000224B3C30CDE90230CDE900B13B46224699
:10F660004146484604F04EFD04002FD0F5F7E0FD7A
:10F6700000220490310700D50822F10601D542F09E
:10F6800010025146BAF1FF0F04D0BAF1FE0F01D0BB
:10F6900042F0100204F060FC05F1080304984ECB20
:10F6A00000F1340787E84E006421C1640A214165F6
:10F6B000002101656968416404A8F5F723FE6868C4
:10F6C000416820468847204600F026F9F9F714F9EA
:10F6D00007B02046BDE8F08F840E00204DF40008EE
:10F6E0004FF0FF31FFF79DBEF0B504468DB00068C6
:10F6F000F5F79EFD0646079007A8F5F703FE208A5A
:10F70000256AADF82C00A08AADF82E00208BADF84C
:10F710003000A08BADF83200DDE90B01CDE9090125
:10F72000286848B10BAA1146304604F01DFC4C4A2B
:10F73000DFF830C14C4F03E04C4ADFF834C14D4F85
:10F74000606810283AD006DC082815D0092861D056
:10F750000C287FD132E0112830D013283DD0192851
:10F7600078D1286810B12169A06901E06169E06978
:10F77000401A401C0DB0F0BD686802281BD03E4CFA
:10F780000BA82146904708AB02AA09A829680FF0E8
:10F7900080FA606AF8F713FC4FF0FF300090BDF973
:10F7A0002A00BDF92610401A401C4210BDF9240061
:10F7B000089901444AE0304C2C3CE1E72E48BDF961
:10F7C0003230BDF93020016AC069CDE90001BDF9D0
:10F7D0002E10BDF92C00E0473CE0686803280AD0F1
:10F7E000254C0BA821469047286838B1BDF9320056
:10F7F000BDF92E1006E0204C2C3CF2E7BDF930009C
:10F80000BDF92C10401A401C0F2823DB21460BA801
:10F81000B8471FE0686801281ED0174C0BA8214686
:10F82000904708AB02AA09A829680FF032FA606A6B
:10F83000F8F7C5FB01200090BDF92A00BDF926109C
:10F84000401A4210BDF928000899411A3046029B1F
:10F8500004F005FB00208DE7074C2C3CDEE70000A0
:10F860001D8A010839630008B9C00108C18901086F
:10F87000B16300085DC00108BC0B002038B505006D
:10F880004FF000040BD0F7F795F92846F5F7D0FCB8
:10F890000090046D6846F5F735FDF9F72DF8204620
:10F8A00038BD0121FFF7BDBD044A03491160044979
:10F8B000CA68C86010467047840B0020880E00207C
:10F8C0008C0E002038B50C46050024D0F7F772F9ED
:10F8D0002846F5F7ADFC0090426DC16C891A00D541
:10F8E0000021002C00DA00248C4200DD0C46016D62
:10F8F000A1420BD00465284605F056FA6846F5F794
:10F9000001FD0521284605F0B3FB02E06846F5F746
:10F91000F9FCF8F7F1FF38BD10B5044604F001FF1B
:10F9200005F042FA204604F0EFFEBDE81040252124
:10F9300005F0AFBC10B590F8322012070FD58288C1
:10F9400000880B88101A8A88401C4C88C31A0C80C7
:10F95000CC885B1E8C80801ACB80401E488010BDF6
:10F9600000B5254887B023490022C0E900120121D3
:10F97000816008211023C0E90313402343614FF441
:10F98000C073C0E906320A0202624A0242628A0277
:10F9900082620220CDE9000106210291CDE9031027
:10F9A0000590069069461448FBF7BEF80023012233
:10F9B0001146184600F022F84FF4FA7017F0BEFB1B
:10F9C000002301220221184600F018F80023082223
:10F9D0000321184600F012F84FF40C7301220421A1
:10F9E000002000F00BF840F2AB210348FBF72CF9A4
:10F9F00007B000BD400100A0BC0F00201FB50024CF
:10FA000010B1012802D002E0102400E00824CDE962
:10FA10000014CDE902234FF4805269460348FBF7F6
:10FA200024F9002800D0012004B010BDBC0F002034
:10FA300038B5446805460146204604F039F90028E7
:10FA400016D028680E2819D00F2803D0B0F5107FE3
:10FA500023D10EE025462046F5F7EAFB0090C06C66
:10FA600004686846F5F74EFC002C01D02846A047F4
:10FA700038BD2946204613F0BBF80EE0E968204661
:10FA8000D1E90021002908DD102A04D0122A04D16E
:10FA900000F038F901E000F06DF82846BDE8384084
:10FAA00004F0E8BBF0B585B0B0F90850468A846927
:10FAB0000296CDE903540027CDE90017B0F90C10E8
:10FAC000B0F91050B0F90E40B0F90A0019441044D2
:10FAD0002B46224600F002F805B0F0BD2DE9FF5F8D
:10FAE0001F46DDE90F8591468A4683460E9E129C8D
:10FAF000F7F760F80DF1040C48F001001B493834A9
:10FB000000968CE813003B464A465146584604F09E
:10FB1000F9FA040024D0F5F78BFB10220090290796
:10FB200000D51822119904F017FA009818221049EC
:10FB30003430F0F7FDFD0E4D00992D1F2868C86484
:10FB40000820A1F860006420486500208865401EF8
:10FB500008656846F5F7D6FB28684168204688475F
:10FB6000F8F7CAFE04B02046BDE8F09F31FA00085D
:10FB7000EC0B002038B504001BD0F7F71BF820462B
:10FB8000F5F756FB0090D0E9162191420CDD491E95
:10FB9000C165204605F008F96846F5F7B3FB052175
:10FBA000204605F065FA02E06846F5F7ABFBF8F78A
:10FBB000A3FE38BD2DE9FC410446006A002879D037
:10FBC000C16809B13D4D01E03C4D2C3561680A2901
:10FBD00058D00F2904D013290DD014296AD115E06B
:10FBE000006929460028204602D00DF02AF861E07D
:10FBF0000CF0EAFF5EE0006929460028204602D0AA
:10FC00000DF042F956E00DF0BFF853E0006900280E
:10FC1000E8691BD0F8F7D3F90026276A12E0BA6822
:10FC2000401E724392FBF0F03968A26901EBD1717A
:10FC300000EB610061690844696A511A491CF6F7D2
:10FC40001DFC761C7868B042E9DC33E0F8F7B7F9C0
:10FC50000026276A12E0BA68401E724392FBF0F059
:10FC600039686A6A01EBD17100EB610021690844CF
:10FC700061690A44521EF6F709FD761C7868B042A5
:10FC8000E9DC17E00121206800F01AF890B1286A39
:10FC9000F8F795F9208AADF80000A08AADF80200C7
:10FCA000208BADF80400A08BADF80600002168465B
:10FCB000F6F7ECFA0020BDE8FC810000100C0020F3
:10FCC00038B50D46002440B1F5F7B2FA009090F82F
:10FCD000344068462C40F5F715FB204638BD38B552
:10FCE00005004FF000040BD0F6F764FF2846F5F747
:10FCF0009FFA0090C46D6846F5F704FBF8F7FCFD29
:10FD0000204638BD38B504001BD0F6F753FF204617
:10FD1000F5F78EFA0090426DC16D91420CDA491CE4
:10FD2000C165204605F040F86846F5F7EBFA052175
:10FD3000204605F09DF902E06846F5F7E3FAF8F78A
:10FD4000DBFD38BD044A0349116004494A69486132
:10FD500010467047040C0020E80B0020EC0B00203C
:10FD6000F8B514460D4606001AD0F6F723FF3046C4
:10FD7000F5F75EFA0090AC4200DA2C46C0E9154572
:10FD8000C16DA94200DAC565C16DA14200DDC4653F
:10FD90006846F5F7B7FA304605F006F8F8F7ACFD17
:10FDA000F8BD38B50C46050021D0F6F703FF28460C
:10FDB000F5F73EFA0090816DA14200DD0C46416DE1
:10FDC000A14200DA0C46C16DA1420BD0C4652846A1
:10FDD00004F0EAFF6846F5F795FA0521284605F094
:10FDE00047F902E06846F5F78DFAF8F785FD38BD6A
:10FDF0007047000070B51E4C92B00025266846F092
:10FE000080562660246804F080541194194C2668AA
:10FE100046F44046266024680DF1240C04F4404466
:10FE20001194012400940194022406948CE80D009E
:10FE30006605CDE907616846FAF7E8FC00B1FEE720
:10FE4000FAF7C8F900B1FEE70CA90F2081E83100EC
:10FE50004FF4A0500F904FF48050109005210CA843
:10FE6000FAF750FB002800D0FEE712B070BD00008A
:10FE70004038024000700040F9F7C2BF10480168E6
:10FE800041F4700101600F48016841F00101016017
:10FE90000C4A00210832116002680B4B1A400260C4
:10FEA000031D0A4A1A60026822F480220260054893
:10FEB0000C30016002495806803908607047000024
:10FEC00088ED00E000380240FFFFF6FE103000240D
:10FED00038B5446805460146204603F0E9FE00288F
:10FEE00028D028680B2816D00F280FD0B0F5107F27
:10FEF0001BD1E86828B1007A08B1012102E0022193
:10FF000000E00321204605F0B3F80EE02046BDE8EE
:10FF1000384013F0FDBB2046F5F78AF900904430D5
:10FF2000F5F7D2F86846F5F7EDF92846BDE8384010
:10FF300004F0A0B938BDF0B587B00DF1300E9EE8E1
:10FF4000F0104FF0000E8DE8F05000F021F807B0EF
:10FF5000F0BDF0B587B01446428A0DF1080CB0F937
:10FF60000850876946688CE8E4000222CDE9001257
:10FF7000B0F90C10B0F91050B0F90E20B0F90A0029
:10FF8000194420442B4600F003F807B0F0BD0000F0
:10FF90002DE9FF4F85B09946DDE91307DDE91665C8
:10FFA00092468B4640F00104DDF84880F6F702FEE9
:10FFB0001D492035CDF800800395CDE901414B4620
:10FFC00052465946059804F09DF8050026D00024B5
:10FFD00086B13046F0F7FAFA401CF5F72CF8040029
:10FFE00008D0F5F725F931460190F0F7CBFA01A8D2
:10FFF000F5F788F92846F5F71BF9002200901599C6
:020000040801F1
:1000000003F0AAFF00984464A0F84870074C34300D
:100010001ECC80E81E006846F5F774F9F8F76CFC12
:1000200009B02846BDE8F08FD1FE0008680C00201A
:100030000148006870470000680C00200149086012
:1000400070470000680C00200149486070470000BC
:10005000680C002038B50C46050011D0F6F7AAFD53
:100060002846F5F7E5F80090416BA14203D04463C0
:10007000284604F099FE6846F5F744F9F8F73CFC89
:1000800038BD7CB50E4605004FF0010421D0F6F7CF
:1000900091FD2846F5F7CCF80090406C0190684639
:1000A000F5F730F9314601A8F9F752FC78B1002490
:1000B0002846F5F7BDF80090426C01998A4200D0BD
:1000C00041646846F5F71EF9284604F06DFEF8F71E
:1000D00013FC20467CBD38B50C4605000FD0F6F762
:1000E00069FD2846F5F7A4F80090A0F84840684656
:1000F000F5F708F9284604F057FEF8F7FDFB38BD80
:1001000038B50C46050011D0F6F754FD2846F5F732
:100110008FF80090816BA14203D08463284604F0DD
:1001200043FE6846F5F7EEF8F8F7E6FB38BD38B55C
:100130000C46050013D0F6F73DFD2846F5F778F894
:10014000009090F84010A14204D080F8404028462A
:1001500004F02AFE6846F5F7D5F8F8F7CDFB38BD70
:100160002DE9F04F95B0FEF757FCFE4D4FF0010A18
:10017000A5F15009A88049F2413B45F2103645F2FD
:10018000105441F6631818B1FEF726FB02F08BB944
:10019000F5480027016841F002010160006810A9DC
:1001A00000F0020000902020CDE9100A0320CDE9E4
:1001B00012A0EE48F9F726FD4FF020414846C9F855
:1001C0000010EB49C0E901171021C9F80C70C0E913
:1001D0000471C9F818700902C9F81C70C0E90971E6
:1001E0008900C0E90B71C9F834708901C9E90E7141
:1001F00046210B910F20CDE90907CDE902070490B4
:10020000D8480F9702AA09A908975038FAF744FD71
:10021000322016F085FFD320FDF7ECF8FCF708FC40
:10022000A880FCF705FCA880FCF702FC4FF6FF72E3
:1002300002EA0020A880FCF7FBFBA9885F46084380
:10024000A880B84248D0D420FDF7D4F8FCF7F0FBE2
:10025000A880FCF7EDFBA880FCF7EAFB02EA00208F
:10026000A880FCF7E5FBA9880843A880B04233D0FA
:100270004FF45A40FDF7BEF8FCF7DAFBA8804FF4C4
:100280005B40FDF7B7F8FCF7D3FB02EA0020A8803B
:100290004FF45C40FDF7AEF8FCF7CAFBA9880843B1
:1002A000A880B0F5004F7DD0A04215D0A120FDF769
:1002B000A1F8FCF7BDFBA880FCF7BAFB02EA00201E
:1002C000A880FCF7B5FBA9880843A0F5AE41A8803B
:1002D000613901D1A5F80480A988A6A0F0F722F819
:1002E000A888B8427ED1CF20FDF784F80020FDF722
:1002F00075F8C120FDF772F83020FDF76FF8ED209A
:10030000FDF778F86420FDF769F80320FDF766F83B
:100310001220FDF763F88120FDF760F8E820FDF773
:1003200069F88520FDF75AF81020FDF757F87A2074
:10033000FDF754F8CB20FDF75DF83920FDF74EF8B6
:100340002C20FDF74BF80020FDF748F83420FDF78E
:1003500045F80220FDF742F8F720FDF74BF8202082
:10036000FDF73CF8EA20FDF745F80020FDF736F8E8
:100370000020FDF733F8C020FDF73CF81B20FDF707
:100380002DF8C120FDF736F80120FDF727F8C5202C
:10039000FDF730F83020FDF721F83020FDF71EF88A
:1003A000C72000E0B7E0FDF725F8B720FDF716F805
:1003B0003620FDF71FF84820FDF710F83A20FDF72A
:1003C00019F85520FDF70AF8B120FDF713F80020C1
:1003D000FDF704F81A20FDF701F8B620FDF70AF83A
:1003E0000A2000E099E0FCF7F9FFA220FCF7F6FFF5
:1003F000F220FCF7FFFF0020FCF7F0FF2620FCF7BF
:10040000F9FF0120FCF7EAFFE020FCF7F3FF0F20E3
:10041000FCF7E4FF2A20FCF7E1FF2820FCF7DEFFD1
:100420000820FCF7DBFF0E20FCF7D8FF0820FCF7C4
:10043000D5FF5420FCF7D2FFA920FCF7CFFF4320C3
:10044000FCF7CCFF0A20FCF7C9FF0F20FCF7C6FF22
:100450000020FCF7C3FF0020FCF7C0FF0020FCF7E2
:10046000BDFF0020FCF7BAFFE120FCF7C3FF00202E
:10047000FCF7B4FF1520FCF7B1FF1720FCF7AEFF27
:100480000720FCF7ABFF1120FCF7A8FF0620FCF7C4
:10049000A5FF2B20FCF7A2FF5620FCF79FFF3C2076
:1004A000FCF79CFF0520FCF799FF1020FCF796FF56
:1004B0000F20FCF793FF3F20FCF790FF3F20FCF755
:1004C0008DFF0F20FCF78AFF2B20FCF793FF002005
:1004D000FCF784FF0020FCF781FF0120FCF77EFF82
:1004E0003F20FCF77BFF2A20FCF784FF0020FCF76D
:1004F00075FF0020FCF772FF0020FCF76FFFEF2074
:10050000FCF76CFF1120FCF775FF782016F008FE51
:10051000292001F00BBFAC80DEE6B0427ED1ED2099
:10052000FCF768FF0120FCF759FFFE20FCF756FF9F
:10053000EE20FCF75FFFDE20FCF750FF2120FCF7E8
:100540004DFFF120FCF756FF0120FCF747FFDF20AD
:10055000FCF750FF1020FCF741FFC420FCF74AFFD6
:100560008F200FE04010002030380240000402408D
:10057000040100A0204C43442049443A25780D0A48
:1005800000000000FCF72AFFC620FCF733FF002024
:10059000FCF724FFE220FCF721FFE220FCF71EFF1E
:1005A000E220FCF71BFFBF20FCF724FFAA20FCF78A
:1005B00015FFB020FCF71EFF0D20FCF70FFF0020F9
:1005C000FCF70CFF0D20FCF709FF0020FCF706FFED
:1005D0001120FCF703FF0020FCF700FF1920FCF7B7
:1005E000FDFE0020FCF7FAFE2120FCF7F7FE0020BC
:1005F000FCF7F4FE2D20FCF7F1FE0020FCF7EEFEE8
:100600003D20FCF7EBFE0020FCF7E8FE5D20FCF748
:10061000E5FE0020FCF7E2FE5D2000E0FEE3FCF7D3
:10062000DDFE0020FCF7DAFEB120FCF7E3FE8020BF
:10063000FCF7D4FE0020FCF7D1FE8B20FCF7CEFEA9
:100640000020FCF7CBFE9620FCF7C8FE0020FCF74C
:10065000C5FEB220FCF7CEFE0020FCF7BFFE002056
:10066000FCF7BCFE0220FCF7B9FE0020FCF7B6FE4A
:100670000320FCF7B3FE0020FCF7B0FEB320FCF72C
:10068000B9FE0020FCF7AAFE0020FCF7A7FE002020
:10069000FCF7A4FE0020FCF7A1FE0020FCF79EFE64
:1006A0000020FCF79BFE0020FCF798FE0020FCF7E2
:1006B00095FE0020FCF792FE0020FCF78FFE002044
:1006C000FCF78CFE0020FCF789FE0020FCF786FE7C
:1006D0000020FCF783FE0020FCF780FE0020FCF7E2
:1006E0007DFE0020FCF77AFE0020FCF777FE00205C
:1006F000FCF774FE0020FCF771FE0020FCF76EFE94
:100700000020FCF76BFE0020FCF768FE0020FCF7E1
:1007100065FEB420FCF76EFE8B20FCF75FFE002028
:10072000FCF75CFE9620FCF759FE0020FCF756FE15
:10073000A120FCF753FE0020FCF750FEB520FCF78B
:1007400059FE0220FCF74AFE0020FCF747FE03207A
:10075000FCF744FE0020FCF741FE0420FCF73EFEBF
:100760000020FCF73BFEB620FCF744FE0020FCF71F
:1007700035FE0020FCF732FEB720FCF73BFE0020E0
:10078000FCF72CFE0020FCF729FE3F20FCF726FE9C
:100790000020FCF723FE5E20FCF720FE0020FCF783
:1007A0001DFE6420FCF71AFE0020FCF717FE8C20CB
:1007B000FCF714FE0020FCF711FEAC20FCF70EFE47
:1007C0000020FCF70BFEDC20FCF708FE0020FCF705
:1007D00005FE7020FCF702FE0020FCF7FFFD9020D4
:1007E000FCF7FCFD0020FCF7F9FDEB20FCF7F6FD23
:1007F0000020FCF7F3FDDC20FCF7F0FD0020FCF707
:10080000EDFDB820FCF7F6FD0020FCF7E7FD002029
:10081000FCF7E4FD0020FCF7E1FD0020FCF7DEFD25
:100820000020FCF7DBFD0020FCF7D8FD0020FCF7E2
:10083000D5FD0020FCF7D2FDBA20FCF7DBFD24201B
:10084000FCF7CCFD0020FCF7C9FD0020FCF7C6FD3D
:100850000020FCF7C3FDC120FCF7CCFD2020FCF7F5
:10086000BDFD0020FCF7BAFD5420FCF7B7FD0020C9
:10087000FCF7B4FDFF20FCF7B1FD0020FCF7AEFD56
:10088000C220FCF7B7FD0A20FCF7A8FD0020FCF70A
:10089000A5FD0420FCF7A2FD0020FCF79FFDC3206E
:1008A000FCF7A8FD3C20FCF799FD0020FCF796FD25
:1008B0003A20FCF793FD0020FCF790FD3920FCF76F
:1008C0008DFD0020FCF78AFD3720FCF787FD002016
:1008D000FCF784FD3C20FCF781FD0020FCF77EFD49
:1008E0003620FCF77BFD0020FCF778FD3220FCF77A
:1008F00075FD0020FCF772FD2F20FCF76FFD002036
:10090000FCF76CFD2C20FCF769FD0020FCF766FD70
:100910002920FCF763FD0020FCF760FD2620FCF792
:100920005DFD0020FCF75AFD2420FCF757FD002058
:10093000FCF754FD2420FCF751FD0020FCF74EFD90
:100940002320FCF74BFD0020FCF748FD3C20FCF782
:1009500045FD0020FCF742FD3620FCF73FFD00205E
:10096000FCF73CFD3220FCF739FD0020FCF736FD9A
:100970002F20FCF733FD0020FCF730FD2C20FCF786
:100980002DFD0020FCF72AFD2920FCF727FD002083
:10099000FCF724FD2620FCF721FD0020FCF71EFDBE
:1009A0002420FCF71BFD0020FCF718FD2420FCF799
:1009B00015FD0020FCF712FD2320FCF70FFD0020A1
:1009C000FCF70CFDC420FCF715FD6220FCF706FDCA
:1009D0000020FCF703FD0520FCF700FD0020FCF7DC
:1009E000FDFC8420FCF7FAFC0020FCF7F7FCF0206B
:1009F000FCF7F4FC0020FCF7F1FC1820FCF7EEFCFF
:100A00000020FCF7EBFCA420FCF7E8FC0020FCF73E
:100A1000E5FC1820FCF7E2FC0020FCF7DFFC50208E
:100A2000FCF7DCFC0020FCF7D9FC0C20FCF7D6FC22
:100A30000020FCF7D3FC1720FCF7D0FC0020FCF7CB
:100A4000CDFC9520FCF7CAFC0020FCF7C7FCF32086
:100A5000FCF7C4FC0020FCF7C1FCE620FCF7BEFC60
:100A60000020FCF7BBFCC520FCF7C4FC3220FCF7DF
:100A7000B5FC0020FCF7B2FC4420FCF7AFFC0020E2
:100A8000FCF7ACFC6520FCF7A9FC0020FCF7A6FCF9
:100A90007620FCF7A3FC0020FCF7A0FC8820FCF7E4
:100AA0009DFC0020FCF79AFCC620FCF7A3FC20204C
:100AB000FCF794FC0020FCF791FC1720FCF78EFC5F
:100AC0000020FCF78BFC0120FCF788FC0020FCF7E1
:100AD00085FCC720FCF78EFC0020FCF77FFC002083
:100AE000FCF77CFC0020FCF779FC0020FCF776FC8E
:100AF000C820FCF77FFC0020FCF770FC0020FCF70E
:100B00006DFC0020FCF76AFC0020FCF767FCC920A4
:100B1000FCF770FC0020FCF761FC0020FCF75EFC99
:100B20000020FCF75BFC0020FCF758FC0020FCF7E1
:100B300055FC0020FCF752FC0020FCF74FFC002085
:100B4000FCF74CFC0020FCF749FC0020FCF746FCBD
:100B50000020FCF743FC0020FCF740FC0020FCF7E1
:100B60003DFC0020FCF73AFC0020FCF737FC00209D
:100B7000FCF734FCE020FCF73DFC1620FCF72EFCD3
:100B80000020FCF72BFC1C20FCF728FC0020FCF7C5
:100B900025FC2120FCF722FC0020FCF71FFC36205E
:100BA000FCF71CFC0020FCF719FC4620FCF716FCA7
:100BB0000020FCF713FC5220FCF710FC0020FCF78F
:100BC0000DFC6420FCF70AFC0020FCF707FC7A20EF
:100BD000FCF704FC0020FCF701FC8B20FCF7FEFB7B
:100BE0000020FCF7FBFB9920FCF7F8FB0020FCF74A
:100BF000F5FBA820FCF7F2FB0020FCF7EFFBB92087
:100C0000FCF7ECFB0020FCF7E9FBC420FCF7E6FB5B
:100C10000020FCF7E3FBCA20FCF7E0FB0020FCF718
:100C2000DDFBD220FCF7DAFB0020FCF7D7FBD92054
:100C3000FCF7D4FB0020FCF7D1FBE020FCF7CEFB57
:100C40000020FCF7CBFBF320FCF7C8FB0020FCF7EF
:100C5000C5FBE120FCF7CEFB1620FCF7BFFB002014
:100C6000FCF7BCFB1C20FCF7B9FB0020FCF7B6FB33
:100C70002220FCF7B3FB0020FCF7B0FB3620FCF78A
:100C8000ADFB0020FCF7AAFB4520FCF7A7FB0020EA
:100C9000FCF7A4FB5220FCF7A1FB0020FCF79EFB15
:100CA0006420FCF79BFB0020FCF798FB7A20FCF704
:100CB00095FB0020FCF792FB8B20FCF78FFB0020BC
:100CC000FCF78CFB9920FCF789FB0020FCF786FBE6
:100CD000A820FCF783FB0020FCF780FBB920FCF781
:100CE0007DFB0020FCF77AFBC420FCF777FB00209B
:100CF000FCF774FBCA20FCF771FB0020FCF76EFBCD
:100D0000D220FCF76BFB0020FCF768FBD820FCF737
:100D100065FB0020FCF762FBE020FCF75FFB002096
:100D2000FCF75CFBF320FCF759FB0020FCF756FBBB
:100D3000E220FCF75FFB0520FCF750FB0020FCF7EE
:100D40004DFB0B20FCF74AFB0020FCF747FB1B2068
:100D5000FCF744FB0020FCF741FB3420FCF73EFB92
:100D60000020FCF73BFB4420FCF738FB0020FCF79D
:100D700035FB4F20FCF732FB0020FCF72FFB6120F6
:100D8000FCF72CFB0020FCF729FB7920FCF726FB65
:100D90000020FCF723FB8820FCF720FB0020FCF759
:100DA0001DFB9720FCF71AFB0020FCF717FBA62081
:100DB000FCF714FB0020FCF711FBB720FCF70EFB3F
:100DC0000020FCF70BFBC220FCF708FB0020FCF71F
:100DD00005FBC720FCF702FB0020FCF7FFFAD1203F
:100DE000FCF7FCFA0020FCF7F9FAD620FCF7F6FA3B
:100DF0000020FCF7F3FADD20FCF7F0FA0020FCF706
:100E0000EDFAF320FCF7EAFA0020FCF7E7FAE3201A
:100E1000FCF7F0FA0520FCF7E1FA00E00AE3002015
:100E2000FCF7DCFA0A20FCF7D9FA0020FCF7D6FA26
:100E30001C20FCF7D3FA0020FCF7D0FA3320FCF793
:100E4000CDFA0020FCF7CAFA4420FCF7C7FA0020CC
:100E5000FCF7C4FA5020FCF7C1FA0020FCF7BEFAF8
:100E60006220FCF7BBFA0020FCF7B8FA7820FCF708
:100E7000B5FA0020FCF7B2FA8820FCF7AFFA0020A0
:100E8000FCF7ACFA9720FCF7A9FA0020FCF7A6FAC9
:100E9000A620FCF7A3FA0020FCF7A0FAB720FCF785
:100EA0009DFA0020FCF79AFAC220FCF797FA00207E
:100EB000FCF794FAC720FCF791FA0020FCF78EFAB1
:100EC000D120FCF78BFA0020FCF788FAD520FCF73C
:100ED00085FA0020FCF782FADD20FCF77FFA00207B
:100EE000FCF77CFAF320FCF779FA0020FCF776FA9D
:100EF000E420FCF77FFA0120FCF770FA0020FCF7F1
:100F00006DFA0120FCF76AFA0020FCF767FA02206C
:100F1000FCF764FA0020FCF761FA2A20FCF75EFA7D
:100F20000020FCF75BFA3C20FCF758FA0020FCF7A5
:100F300055FA4B20FCF752FA0020FCF74FFA5D20DF
:100F4000FCF74CFA0020FCF749FA7420FCF746FA4B
:100F50000020FCF743FA8420FCF740FA0020FCF75D
:100F60003DFA9320FCF73AFA0020FCF737FAA2206A
:100F7000FCF734FA0020FCF731FAB320FCF72EFA24
:100F80000020FCF72BFABE20FCF728FA0020FCF723
:100F900025FAC420FCF722FA0020FCF71FFACD2026
:100FA000FCF71CFA0020FCF719FAD320FCF716FA1C
:100FB0000020FCF713FADD20FCF710FA0020FCF704
:100FC0000DFAF320FCF70AFA0020FCF707FAE520F7
:100FD000FCF710FA0020FCF701FA0020FCF7FEF9FC
:100FE0000020FCF7FBF90020FCF7F8F90220FCF7E1
:100FF000F5F90020FCF7F2F92920FCF7EFF90020C1
:10100000FCF7ECF93C20FCF7E9F90020FCF7E6F9E5
:101010004B20FCF7E3F90020FCF7E0F95D20FCF73A
:10102000DDF90020FCF7DAF97420FCF7D7F900208D
:10103000FCF7D4F98420FCF7D1F90020FCF7CEF9B5
:101040009320FCF7CBF90020FCF7C8F9A220FCF7AD
:10105000C5F90020FCF7C2F9B320FCF7BFF9002066
:10106000FCF7BCF9BE20FCF7B9F90020FCF7B6F993
:10107000C420FCF7B3F90020FCF7B0F9CD20FCF751
:10108000ADF90020FCF7AAF9D320FCF7A7F900205E
:10109000FCF7A4F9DC20FCF7A1F90020FCF79EF98D
:1010A000F320FCF79BF90020FCF798F9E620FCF709
:1010B000A1F91120FCF792F90020FCF78FF93420F8
:1010C000FCF78CF90020FCF789F95620FCF786F92B
:1010D0000020FCF783F97620FCF780F90020FCF76C
:1010E0007DF97720FCF77AF90020FCF777F9662084
:1010F000FCF774F90020FCF771F98820FCF76EF911
:101100000020FCF76BF99920FCF768F90020FCF748
:1011100065F9BB20FCF762F90020FCF75FF9992024
:10112000FCF75CF90020FCF759F96620FCF756F94A
:101130000020FCF753F95520FCF750F90020FCF78C
:101140004DF95520FCF74AF90020FCF747F94520F6
:10115000FCF744F90020FCF741F94320FCF73EF985
:101160000020FCF73BF94420FCF738F90020FCF79D
:1011700035F9E720FCF73EF93220FCF72FF9002083
:10118000FCF72CF95520FCF729F90020FCF726F98B
:101190007620FCF723F90020FCF720F96620FCF705
:1011A0001DF90020FCF71AF96720FCF717F9002059
:1011B000FCF714F96720FCF711F90020FCF70EF991
:1011C0008720FCF70BF90020FCF708F99920FCF7C1
:1011D00005F90020FCF702F9BB20FCF7FFF800201E
:1011E000FCF7FCF89920FCF7F9F80020FCF7F6F87A
:1011F0007720FCF7F3F80020FCF7F0F84420FCF728
:10120000EDF80020FCF7EAF85620FCF7E7F800209C
:10121000FCF7E4F82320FCF7E1F80020FCF7DEF807
:101220003320FCF7DBF80020FCF7D8F84520FCF76A
:10123000D5F80020FCF7D2F8E820FCF7DBF8002016
:10124000FCF7CCF80020FCF7C9F89920FCF7C6F8A9
:101250000020FCF7C3F88720FCF7C0F80020FCF75B
:10126000BDF88820FCF7BAF80020FCF7B7F8772023
:10127000FCF7B4F80020FCF7B1F86620FCF7AEF8F4
:101280000020FCF7ABF88820FCF7A8F80020FCF75A
:10129000A5F8AA20FCF7A2F80020FCF79FF8BB20D5
:1012A000FCF79CF80020FCF799F89920FCF796F8D9
:1012B0000020FCF793F86620FCF790F80020FCF77C
:1012C0008DF85520FCF78AF80020FCF787F85520A8
:1012D000FCF784F80020FCF781F84420FCF77EF846
:1012E0000020FCF77BF84420FCF778F80020FCF79E
:1012F00075F85520FCF772F80020FCF76FF8E9202C
:10130000FCF778F8AA20FCF769F80020FCF766F8EB
:101310000020FCF763F80020FCF760F80020FCF7E1
:1013200069F8AA20FCF75AF8CF20FCF763F80020F0
:10133000FCF754F80020FCF751F80020FCF74EF8B9
:101340000020FCF74BF80020FCF748F80020FCF7E1
:1013500045F80020FCF742F80020FCF73FF8002099
:10136000FCF73CF80020FCF739F80020FCF736F8D1
:101370000020FCF733F80020FCF730F80020FCF7E1
:101380002DF80020FCF72AF80020FCF727F80020B1
:10139000FCF724F8F020FCF72DF80020FCF71EF8ED
:1013A0005020FCF71BF80020FCF718F80020FCF791
:1013B00015F80020FCF712F8F320FCF71BF80020CA
:1013C000FCF70CF8F920FCF715F80620FCF706F8F6
:1013D0001020FCF703F82920FCF700F80020FBF7A9
:1013E000FDFF3A20FCF706F85520FBF7F7FF112028
:1013F000FCF700F8642015F093FE2920FBF7FAFFB4
:101400003520FBF7F7FF0020FBF7E8FF5120FBF743
:10141000F1FFFF20FBF7E2FF5320FBF7EBFF2C204F
:10142000FBF7DCFF5520FBF7E5FF8220FBF7D6FF3B
:101430002C20FDE3A0427DD14FF470435521184686
:10144000FBF7EEFF4FF20107AA213846FBF7E8FF52
:101450005221781CFBF7E4FF0821B81CFBF7E0FFE2
:101460000121F81CFBF7DCFF0D214FF43040FBF7A6
:10147000D7FF0D214BF20100FBF7D2FF0D214BF2FC
:101480000200FBF7CDFF34214FF43640FBF7C8FFD5
:1014900034214BF20160FBF7C3FF34214BF20260B1
:1014A000FBF7BEFF0D214FF43140FBF7B9FF0D21D3
:1014B0004BF20110FBF7B4FF0D214BF20210FBF7CA
:1014C000AFFF34214FF43740FBF7AAFF34214BF232
:1014D0000170FBF7A5FF34214BF20270FBF7A0FF70
:1014E00000214FF43240FBF79BFF00214BF201201B
:1014F000FBF796FF00214BF20220FBF791FF24211E
:101500004FF43840FBF78CFF24214BF60100FBF72A
:1015100087FF24214BF60200FBF782FF01214FF4E5
:101520003F40FBF77DFF0F214FF43340FBF778FF7F
:101530000F2100E0FEE34BF20130FBF771FF0F21BA
:101540004BF20230FBF76CFF34214FF43940FBF7CC
:1015500067FF34214BF60110FBF762FF34214BF695
:101560000210FBF75DFF08214FF43540FBF758FFF1
:1015700008214BF20150FBF753FF08214BF20250B8
:10158000FBF74EFF03214FF44240FBF749FF2421B4
:101590004FF43A40FBF744FF24214BF60120FBF7C0
:1015A0003FFF24214BF60220FBF73AFF00214FF4C6
:1015B0003C40FBF735FF78214BF60140FBF730FF4D
:1015C00000214BF60240FBF72BFF00214FF43D407A
:1015D000FBF726FF78214BF60150FBF721FF002196
:1015E0004BF60250FBF71CFF00214FF43E40FBF787
:1015F00017FF64214BF60160FBF712FF00214FF447
:101600005140FBF70DFF33214DF20110FBF708FFAE
:1016100000214DF20210FBF703FF34214DF20310BD
:10162000FBF7FEFE00214DF20410FBF7F9FE3A2114
:101630004DF20510FBF7F4FE00214DF20610FBF70A
:10164000EFFE4A214DF20710FBF7EAFE00214DF2B2
:101650000810FBF7E5FE5C214DF20910FBF7E0FEF8
:1016600000214DF20A10FBF7DBFE81214DF20B1039
:10167000FBF7D6FE00214DF20C10FBF7D1FEA621A0
:101680004DF20D10FBF7CCFE00214DF20E10FBF7D2
:10169000C7FEE5214DF20F10FBF7C2FE01214DF20E
:1016A0001010FBF7BDFE13214DF21110FBF7B8FE31
:1016B00001214DF21210FBF7B3FE54214DF213102D
:1016C000FBF7AEFE01214DF21410FBF7A9FE8221BB
:1016D0004DF21510FBF7A4FE01214DF21610FBF799
:1016E0009FFECA214DF21710FBF79AFE02214DF220
:1016F0001810FBF795FE00214DF21910FBF790FE34
:1017000002214DF21A10FBF78BFE01214DF21B1046
:10171000FBF786FE02214DF21C10FBF781FE3421FF
:101720004DF21D10FBF77CFE02214DF21E10FBF75F
:1017300077FE67214DF21F10FBF772FE02214DF27A
:101740002010FBF76DFE84214DF22110FBF768FE9F
:1017500002214DF22210FBF763FEA4214DF223106B
:10176000FBF75EFE02214DF22410FBF759FEB72174
:101770004DF22510FBF754FE02214DF22610FBF727
:101780004FFECF214DF22710FBF74AFE02214DF20A
:101790002810FBF745FEDE214DF22910FBF740FE35
:1017A00002214DF22A10FBF73BFEF2214DF22B10E5
:1017B000FBF736FE02214DF22C10FBF731FEFE2125
:1017C0004DF22D10FBF72CFE03214DF22E10FBF7EE
:1017D00027FE10214DF22F10FBF722FE03214DF2C0
:1017E0003010FBF71DFE33214DF23110FBF718FED0
:1017F00003214DF23210FBF713FE6D214DF2331031
:10180000FBF70EFE00214FF45240FBF709FE332197
:101810004DF20120FBF704FE00214DF20220FBF700
:10182000FFFD34214DF20320FBF7FAFD00214DF2BC
:101830000420FBF7F5FD3A214DF20520FBF7F0FD02
:1018400000214DF20620FBF7EBFD4A214DF2072067
:10185000FBF7E6FD00214DF20820FBF7E1FD5C21DE
:101860004DF20920FBF7DCFD00214DF20A20FBF7C9
:10187000D7FD81214DF20B20FBF7D2FD00214DF267
:101880000C20FBF7CDFDA6214DF20D20FBF7C8FD86
:1018900000214DF20E20FBF7C3FDE5214DF20F2094
:1018A000FBF7BEFD01214DF21020FBF7B9FD13211E
:1018B0004DF21120FBF7B4FD01214DF21220FBF790
:1018C000AFFD54214DF21320FBF7AAFD01214DF28B
:1018D0001420FBF7A5FD82214DF21520FBF7A0FD9A
:1018E00001214DF21620FBF79BFDCA214DF2172076
:1018F000FBF796FD02214DF21820FBF791FD002128
:101900004DF21920FBF78CFD02214DF21A20FBF756
:1019100087FD01214DF21B20FBF782FD02214DF2D4
:101920001C20FBF77DFD34214DF21D20FBF778FDD7
:1019300002214DF21E20FBF773FD67214DF21F209F
:10194000FBF76EFD02214DF22020FBF769FD84219B
:101950004DF22120FBF764FD02214DF22220FBF71E
:101960005FFDA4214DF22320FBF75AFD02214DF229
:101970002420FBF755FDB7214DF22520FBF750FD44
:1019800002214DF22620FBF74BFDCF214DF22720FF
:10199000FBF746FD02214DF22820FBF741FDDE2139
:1019A0004DF22920FBF73CFD02214DF22A20FBF7E6
:1019B00037FDF2214DF22B20FBF732FD02214DF2D3
:1019C0002C20FBF72DFDFE214DF22D20FBF728FDED
:1019D00003214DF22E20FBF723FD10214DF22F2085
:1019E000FBF71EFD03214DF23020FBF719FD3321DB
:1019F0004DF23120FBF714FD03214DF23220FBF7AD
:101A00000FFD6D214DF23320FBF70AFD00214FF44D
:101A10005340FBF705FD33214DF20130FBF700FD8C
:101A200000214DF20230FBF7FBFC34214DF2033074
:101A3000FBF7F6FC00214DF20430FBF7F1FC3A21F4
:101A40004DF20530FBF7ECFC00214DF20630FBF7C0
:101A5000E7FC4A214DF20730FBF7E2FC00214DF292
:101A60000830FBF7DDFC5C214DF20930FBF7D8FCB8
:101A700000214DF20A30FBF7D3FC81214DF20B30EF
:101A8000FBF7CEFC00214DF20C30FBF7C9FCA62180
:101A90004DF20D30FBF7C4FC00214DF20E30FBF788
:101AA000BFFCE5214DF20F30FBF7BAFC01214DF2EE
:101AB0001030FBF7B5FC13214DF21130FBF7B0FCF1
:101AC00001214DF21230FBF7ABFC54214DF21330E3
:101AD000FBF7A6FC01214DF21430FBF7A1FC82219B
:101AE0004DF21530FBF79CFC01214DF21630FBF74F
:101AF00097FCCA214DF21730FBF792FC02214DF200
:101B00001830FBF78DFC00214DF21930FBF788FCF3
:101B100002214DF21A30FBF783FC01214DF21B30FC
:101B2000FBF77EFC02214DF21C30FBF779FC3421DF
:101B30004DF21D30FBF774FC02214DF21E30FBF715
:101B40006FFC67214DF21F30FBF76AFC02214DF25A
:101B50002030FBF765FC84214DF22130FBF760FC5F
:101B600002214DF22230FBF75BFCA4214DF2233021
:101B7000FBF756FC02214DF22430FBF751FCB72154
:101B80004DF22530FBF74CFC02214DF22630FBF7DD
:101B900047FCCF214DF22730FBF742FC02214DF2EA
:101BA0002830FBF73DFCDE214DF22930FBF738FCF5
:101BB00002214DF22A30FBF733FCF2214DF22B309B
:101BC000FBF72EFC02214DF22C30FBF729FCFE2105
:101BD0004DF22D30FBF724FC03214DF22E30FBF7A4
:101BE0001FFC10214DF22F30FBF71AFC03214DF2A0
:101BF0003030FBF715FC33214DF23130FBF710FC90
