:020000040800F2
:1000000028EE0120D177000823030008250300080B
:10001000290300082D030008310300080000000038
:100020000000000000000000000000003503000890
:100030003703000800000000E7770008E9770008B0
:10004000EB770008EB770008EB770008EB77000808
:10005000EB770008EB770008EB770008EB770008F8
:10006000EB770008EB770008EB770008EB770008E8
:10007000EB770008EB770008EB770008EB770008D8
:10008000EB770008EB770008EB770008EB770008C8
:10009000EB770008EB770008EB770008EB770008B8
:1000A000EB770008EB770008EB770008EB770008A8
:1000B000EB770008B96F000833700008EB77000891
:1000C000EB770008EB770008EB770008EB77000888
:1000D000EB7700084D9A0008EB770008EB770008F3
:1000E000EB770008EB770008EB770008EB77000868
:1000F000EB770008EB770008EB770008EB77000858
:10010000EB770008EB770008EB770008EB77000847
:10011000EB770008EB770008EB770008EB77000837
:10012000EB770008EB770008EB770008EB77000827
:10013000EB770008EB770008EB770008EB77000817
:10014000EB770008EB770008EB770008EB77000807
:10015000EB770008EB770008EB770008EB770008F7
:10016000EB770008EB770008EB770008EB770008E7
:10017000EB770008EB770008EB770008EB770008D7
:10018000EB770008EB77000800F002F800F06CF85D
:100190000AA090E8000C82448344AAF10107DA45E2
:1001A00001D100F061F8AFF2090EBAE80F0013F0C8
:1001B000010F18BFFB1A43F001031847105F070037
:1001C000305F07000A444FF0000C10F8013B13F0B9
:1001D000070408BF10F8014B1D1108BF10F8015BA0
:1001E000641E05D010F8016B641E01F8016BF9D193
:1001F00013F0080F1EBF10F8014BAD1C0C1B09D1EA
:100200006D1E58BF01F801CBFAD505E014F8016B5B
:1002100001F8016B6D1EF9D59142D6D370470000ED
:100220000023002400250026103A28BF78C1FBD8FF
:10023000520728BF30C148BF0B60704769290EF0D4
:10024000F18264290EF0EE8278290EF0278373295B
:100250000EF0CB85002070471FB528F05AFF0EF036
:100260005EFB1FBD10B510BD0EF020FE1146FFF75E
:10027000F3FF00F023F80EF03EFE03B4FFF7F2FFA9
:1002800003BC09F07FFB00000B49D1F800C04A68AD
:100290005CF8043B1068184442F8040B8C4528BFF6
:1002A000A1F1DC0C8A4228BFA1F1DC02C1F800C038
:1002B0004A6020F000407047C0E70120A82009F004
:1002C000EFFA4FF4A06007F0A3FA4FF4E13009F021
:1002D00067FB00F039F901F07CF906F082FD00F0CF
:1002E00053F9532140F2E73006F03AFE01210803AA
:1002F00008F006F9002009F006FC022009F003FCD2
:1003000040F2473140F2E73006F067FE042019F072
:1003100099FE12F071FC0AF093FF01E012F02CFB41
:10032000FCE7704700BFFEE700BFFEE700BFFEE747
:1003300000BFFEE7704770470CB5002001900090A9
:100340007648006840F480307449086000BF734804
:10035000006800F4003000900198401C0190009863
:1003600018B90198B0F5A04FF1D16C48006800F4BD
:10037000003010B10120009001E0002000900098B2
:10038000012846D165484030006840F080506349FC
:10039000403108606248006840F4404060490860AD
:1003A0005E48083000685D4908310860084600680A
:1003B00040F4004008600846006840F4A05008601F
:1003C0005848091F0860081F006840F08070091F26
:1003D000086000BF5148006800F000700028F9D0A4
:1003E00040F20570504908604C480830006820F021
:1003F00003004A49083108600846006840F00200DE
:10040000086000BF45480830006800F00C0008286C
:10041000F8D10CBD10B54548006840F47000434960
:1004200008603E48006840F001003C490860002038
:100430003A4908310860394800683D490840374961
:1004400008603C48091D0860081F006820F48020EF
:10045000091F0860002031490C310860FFF76CFF6C
:100460004FF0006031498039086010BD70B5002040
:100470000022022300240221284D08352D6805F0B2
:100480000C0020B1042806D0082834D107E02A4DFA
:100490002A4E356033E02A4D284E35602FE01F4D3F
:1004A0002D1D2D68C5F380541C4D2D1D2D6805F0A4
:1004B0003F0154B1224DB5FBF1F5184E361D36689B
:1004C000C6F3881605FB06F209E01B4DB5FBF1F5F6
:1004D000124E361D3668C6F3881605FB06F20F4D20
:1004E0002D1D2D68C5F301456D1C6B00B2FBF3F5A6
:1004F000124E356003E0104D104E356000BF00BF56
:10050000064D08352D68C5F303150E4E705D0B4D75
:100510002D68C540094E356070BD000000380240AE
:100520000070004008544007003C024088ED00E0A5
:10053000FFFFF6FE103000240024F400000000202D
:1005400000127A00040000201CB50121202007F0D1
:10055000D7FF4FF4C060009001208DF80400002008
:100560008DF806008DF8070003208DF80500694618
:10057000044807F027FD4FF4C061024807F09EFDD4
:100580001CBD00000014024000B599B00121782084
:1005900007F0B6FF4FF63370179002208DF8600019
:1005A00003208DF8610000208DF8620001208DF895
:1005B000630017A9994807F005FD4FF6837017905F
:1005C00017A9974807F0FEFC4FF23F00179017A9B4
:1005D000944807F0F7FC40F23F40179017A9924863
:1005E00007F0F0FC0C2200218C4807F076FD0C226D
:1005F00001218A4807F071FD0C220421874807F089
:100600006CFD0C220521854807F067FD0C220821AE
:10061000824807F062FD0C220921804807F05DFD49
:100620000C220A217D4807F058FD0C220B217B4843
:1006300007F053FD0C221146784807F04EFD0C22BE
:100640000D21764807F049FD0C220E21734807F072
:1006500044FD0C220F21714807F03FFD0C220021C0
:100660006F4807F03AFD0C2201216D4807F035FD77
:100670000C2207216A4807F030FD0C220821684847
:1006800007F02BFD0C220921654807F026FD0C22FE
:100690000A21634807F021FD0C220B21604807F076
:1006A0001CFD0C2211465E4807F017FD0C220D219F
:1006B0005B4807F012FD0C220E21594807F00DFD92
:1006C0000C220F21564807F008FD0C220021554846
:1006D00007F003FD0C220121524807F0FEFC0C221A
:1006E0000221504807F0F9FC0C2203214D4807F085
:1006F000F4FC0C2204214B4807F0EFFC0C220521EE
:10070000484807F0EAFC0C221146464807F0E5FC91
:100710000C220D21434807F0E0FC0C220E21414839
:1007200007F0DBFC0C220F213E4807F0D6FC0C2220
:1007300000213D4807F0D1FC0C2201213A4807F086
:10074000CCFC0C220221384807F0C7FC0C22032104
:10075000354807F0C2FC0C220421334807F0BDFCE9
:100760000C220521304807F0B8FC0C220A212E4843
:1007700007F0B3FC002001900290092003900020B4
:10078000049005900690079004200890002009909E
:100790000A9010200B9000200C900D900E900F905E
:1007A00010904FF4805011900020129013901490EC
:1007B00001A81590169008A807F0B5F801210420AB
:1007C00007F03CF919B000BD10B506E004784FF011
:1007D000D0435C54491C401C521E002AF6D110BD67
:1007E00006E04FF0D0435B5C00F8013B491C521E11
:1007F000002AF6D1704713B504460122214601A80C
:10080000FFF7E2FF1CBD18B50446012221466846E9
:10081000FFF7E6FF9DF8000018BD0000000C024045
:1008200000100240001402400018024001B5BDF85B
:1008300000000090BDF80000FC49088008BD01B52B
:10084000BDF800000090BDF80000F849891C088040
:1008500008BD08B5F548801C00880090BDF8000070
:1008600008BD03B5BDF80000F0490880BDF80400DC
:100870004FF0D841A1F880000CBD01B5BDF80000D3
:10088000FFF7D4FF052009F025F8FFF7E2FF08BDC8
:10089000E7480089E54908807047E449891C0880D9
:1008A000704730B5014601F01F04C1F34513CA0A71
:1008B000E50205EB43151544A8B230BD00BF011E8B
:1008C000A0F10102D0B2FAD1704730B504460D460E
:1008D000D748808849F24131884205D0D448808881
:1008E00045F21031884214D1D1494889FFF79EFF63
:1008F0002012FFF7A4FFE0B2FFF7A1FFCC498889DF
:10090000FFF794FF2812FFF79AFFE8B2FFF797FF6F
:10091000ABE0C748808846F6040188421DD1C44830
:100920008079012804D1C2480088401E001B84B28F
:10093000BF494889FFF77AFF2012FFF780FFE0B236
:10094000FFF77DFFBA498889FFF770FF2812FFF78C
:1009500076FFE8B2FFF773FF87E0B548808841F67D
:100960006311884247D1B2488079A8B9B04800885D
:10097000401E001B84B2AE494889FFF757FF002094
:10098000FFF75DFF0020FFF75AFF2012FFF757FF28
:10099000E0B2FFF754FF16E0A5494889FFF746FF8C
:1009A0002012FFF74CFFE0B2FFF749FFA04909888A
:1009B000491EC1F30F20FFF742FF9D490978491EE8
:1009C000C8B2FFF73CFF9A498889FFF72FFF28122A
:1009D000FFF735FFE8B2FFF732FF95494988491E16
:1009E000C1F30F20FFF72BFF91498978491EC8B248
:1009F000FFF725FF39E08E48808845F21051884284
:100A000020D18B494889FFF711FF2012FFF717FF0C
:100A100087494989491C88B2FFF708FFE0B2FFF710
:100A20000EFF83498889FFF701FF2812FFF707FFB0
:100A30007F498989491C88B2FFF7F8FEE8B2FFF7C1
:100A4000FEFE12E07A488079012804D178480088B7
:100A5000401E001B84B2764948892146FFF701FFFA
:100A6000734988892946FFF7FCFE30BD3EB5044630
:100A70000D4600200290019000906D480088A04231
:100A800003DD6B484088A84201DC00203EBD2946BA
:100A90002046FFF71AFF6648808849F241318842B4
:100AA00011D06348808846F6040188420BD0604824
:100AB000808845F21031884205D05D48808841F633
:100AC0006311884203D12E20FFF7B0FE0DE0584895
:100AD000808845F21051884204D14FF43850FFF716
:100AE000A5FE02E02220FFF7A1FE5148808849F2CE
:100AF0002031884202D10220FFF7E0FEFFF7A9FE75
:100B000002904B48808841F66311884202D1BDF8BB
:100B10000800BBE70220FFF7D1FEFFF79AFE029024
:100B20004348808849F2413188420BD04048808850
:100B300045F21031884205D03D48808845F2105179
:100B4000884210D10220FFF7B9FEFFF782FE009025
:100B5000BDF80800C0B20190BDF804004FF6FF7167
:100B600001EA002001903248808849F2253188420C
:100B700016D02F48808844F23551884210D02C4836
:100B80008088091F88420BD0294880884BF2055184
:100B9000884205D0264880884CF20551884202D10F
:100BA000BDF8080072E72248808849F24131884246
:100BB0000BD01F48808845F21031884205D01C4870
:100BC000808845F2105188420DD1BDF80800C0124E
:100BD000C002BDF80410891240EA4110BDF80010AF
:100BE00040EAE12052E7BDF80800FFF75AFE4DE762
:100BF00000B50F48808849F24131884211D00C4835
:100C0000808846F6040188420BD00948808845F266
:100C10001031884205D00648808841F66311884229
:100C200008D12920FFF702FE14E000007E00006CCE
:100C3000280E0020FE48808845F21051884204D1D9
:100C40004FF42450FFF7F2FD04E040F27311072047
:100C5000FFF707FE00BD00B5F548808849F2413135
:100C6000884211D0F248808846F6040188420BD0B1
:100C7000EF48808845F21031884205D0EC488088E2
:100C800041F66311884203D12820FFF7CFFD0EE023
:100C9000E748808845F21051884204D14FF4205033
:100CA000FFF7C4FD03E000210720FFF7DAFD00BDD8
:100CB000F0B5054600240027DD48807901280BD1D6
:100CC000DB48808846F60401884205D0D8488088F1
:100CD00041F66311884208D1D5488079F0B9D448EB
:100CE000808841F66311884218D1082D15D2DFE8BB
:100CF00005F00406080A0C0E101206250DE0072563
:100D00000BE0042509E0052507E0012505E00025A5
:100D100003E0032501E0022500BF00BFC44880882E
:100D200049F24131884217D0C148808846F6040113
:100D3000884211D0BE48808845F2103188420BD0DD
:100D4000BB48808845F21051884205D0B848808859
:100D500041F6631188427DD1082D1CD2DFE805F0F1
:100D60000406090C0F12151800BF14E044F08004AB
:100D700011E044F040040EE044F0C0040BE044F005
:100D8000200408E044F0600405E044F0A00402E020
:100D900044F0E00400BF00BFA548808845F2105130
:100DA000884202D14FF4585700E03627A048808887
:100DB00045F2103188420DD09D48808845F210518F
:100DC000884207D09A48808841F66311884201D052
:100DD00044F008049648808846F60401884201D110
:100DE00044F0020421463846FFF73BFD90488088D6
:100DF00041F6631188421DD004F0200068B18C4890
:100E000000888B494988884214DA894806884088D6
:100E100087490880084646800CE085480088844958
:100E20004988884206DD82480688408880490880D3
:100E3000084646807E48808845F21051884254D149
:100E40007B494889FFF7F2FC0020FFF7F8FC78495E
:100E5000498900E078E0491C88B2FFF7E7FC0020F0
:100E6000FFF7EDFC72494989891C88B2FFF7DEFC67
:100E70006F490988491EC1F30F20FFF7E0FC6C4958
:100E80004989C91C88B2FFF7D1FC69490978491E14
:100E9000C8B2FFF7D4FC66498889FFF7C7FC002079
:100EA000FFF7CDFC62498989491C88B2FFF7BEFC77
:100EB0000020FFF7C4FC5E498989891C88B2FFF7CE
:100EC000B5FC5B494988491EC1F30F20FFF7B7FC09
:100ED00057498989C91C88B2FFF7A8FC5449897809
:100EE000491EC8B2FFF7ABFC55E051494889FFF7EE
:100EF0009DFC0020FFF7A3FC0020FFF7A0FC4C495D
:100F00000988491EC1F30F20FFF799FC4849097869
:100F1000491EC8B2FFF793FC45498889FFF786FC54
:100F20000020FFF78CFC0020FFF789FC404949882E
:100F3000491EC1F30F20FFF782FC3D498978491E05
:100F4000C8B2FFF77CFC26E0082D1CD2DFE805F0D4
:100F500004070A0D0F12151844F0300413E044F092
:100F6000100410E044F020040DE000BF0BE044F05A
:100F7000380408E044F0280405E044F0180402E0D6
:100F800044F0080400BF00BF032744F48054214606
:100F90003846FFF766FCF0BD30B504460D462946DD
:100FA0002046FFF792FCFFF773FC22480088224995
:100FB000088030BD70B504460D4616461C48808832
:100FC00049F24131884205D01948808845F21031F4
:100FD000884214D116494889FFF728FC2012FFF7F0
:100FE0002EFCE0B2FFF72BFC11498889FFF71EFCAD
:100FF0002812FFF724FCE8B2FFF721FC93E00C482D
:10100000808845F21051884227D109494889FFF765
:101010000DFC2012FFF713FC05494989491C88B2D1
:10102000FFF704FCE0B2FFF70AFC0149888905E0FC
:10103000280E0020140000208000006CFFF7F6FB53
:101040002812FFF7FCFBFE498989491C88B2FFF78B
:10105000EDFBE8B2FFF7F3FB65E0F948808841F665
:101060006311884228D1F648807920B9F448008875
:10107000401E001B84B2F2494889FFF7D7FB2012BB
:10108000FFF7DDFBE0B2FFF7DAFB2012FFF7D7FB3B
:10109000E0B2FFF7D4FBEA498889FFF7C7FB2812C3
:1010A000FFF7CDFBE8B2FFF7CAFB2812FFF7C7FB3B
:1010B000E8B2FFF7C4FB36E0E148808846F6040159
:1010C00088421DD1DE488079012804D1DC4800889F
:1010D000401E001B84B2DA494889FFF7A7FB2012A3
:1010E000FFF7ADFBE0B2FFF7AAFBD5498889FFF710
:1010F0009DFB2812FFF7A3FBE8B2FFF7A0FB12E06D
:10110000CF488079012804D1CD480088401E001BBB
:1011100084B2CB4948892146FFF7A3FBC849888997
:101120002946FFF79EFBC6480089C64908804FF054
:10113000D840A0F8806070BD70B52DED048B0446DA
:10114000BE20FFF773FB0520FFF779FB204627F051
:1011500029FC41EC190B9FEDBC0B53EC102B27F035
:1011600071FC41EC180B27F0D9FB85B22846FFF73C
:1011700066FB0120FFF763FBFF20FFF760FB002009
:10118000FFF75DFB0020FFF75AFBBDEC048B70BD41
:1011900010B50446002C66D1A9498871F02008805A
:1011A0004FF4A07048800846808849F24131884257
:1011B0000BD0A348808846F60401884205D0A04899
:1011C000808845F2103188421AD12C209C49088130
:1011D0002A2048812B2088810846808846F6040111
:1011E000884205D09648808845F21031884206D161
:1011F0004FF4A070924908804FF4F0704880A1E04D
:101200008F48808845F21051884210D14FF43050F9
:101210008B4908814FF4285048814FF42C50888125
:101220004FF4F07008804FF4487048808AE084489A
:10123000808841F6631188420DD12C2080490881B5
:101240002B2048812A2088814FF4F07008804FF4C9
:101250004870488076E02220794908812020488122
:10126000212088816EE00120754988714FF4A070BB
:101270000880F02048800846808849F24131884241
:1012800005D06F48808845F21031884207D12C2064
:101290006B4908812A2048812B2088813FE06848DB
:1012A000808846F60401884207D12C2064490881D1
:1012B0002B2048812A20888131E06148808845F2CE
:1012C0001051884210D14FF430505D4908814FF4DD
:1012D000285048814FF42C5088814FF44870088082
:1012E0004FF4F07048801AE05548808841F6631149
:1012F00088420DD12C20524908812A2048812B2078
:1013000088814FF4487008804FF4F070488006E000
:1013100022204B490881212048812020888148488B
:10132000808846F60401884205D04548808845F209
:101330001031884206D14FF4F070414908804FF4D3
:10134000A07048800020FFF7B3FC10BD2DE9F04FDE
:1013500086B004460D469046994604EB0800401EB0
:1013600086B205EB0900401E87B23548808849F2F5
:101370004131884215D03248808845F21031884288
:101380000FD02F48808846F60401884209D02C48A7
:101390008079012826D12A48808841F66311884245
:1013A00020D127494889FFF741FA2012FFF747FA71
:1013B000E0B2FFF744FA3012FFF741FAF0B2FFF75C
:1013C0003EFA1F498889FFF731FA2812FFF737FAEA
:1013D000E8B2FFF734FA3812FFF731FAF8B2FFF744
:1013E0002EFAC1E01648808841F6631188423DD14B
:1013F00013480088A0EB0800001B84B205EB09002D
:10140000401E1FFA80F90E494889FFF70FFA201293
:10141000FFF715FAE0B2FFF712FA04EB0801491ED4
:10142000C1F30F20FFF70BFA04EB0801491EC8B205
:10143000FFF705FA02498889FFF7F8F9281207E053
:10144000280E00207E00006C6666666666660440B4
:10145000FFF7F5F9E8B2FFF7F2F94FEA2920FFF7B5
:10146000EEF909F0FF00FFF7EAF97DE0FE48808819
:1014700045F21051884244D1FB494889FFF7D6F91B
:101480002012FFF7DCF9F8494989491C88B2FFF7B7
:10149000CDF9E0B2FFF7D3F9F3494989891C88B245
:1014A000FFF7C4F93012FFF7CAF9EF494989C91C9F
:1014B00088B2FFF7BBF9F0B2FFF7C1F9EA498889B2
:1014C000FFF7B4F92812FFF7BAF9E7498989491CEF
:1014D00088B2FFF7ABF9E8B2FFF7B1F9E2498989C1
:1014E000891C88B2FFF7A2F93812FFF7A8F9DE4984
:1014F0008989C91C88B2FFF799F9F8B2FFF79FF9FB
:1015000032E0D948807901280ED1AA46BB46D64898
:101510000088801B401E80B20190D3480088001BC9
:10152000401E80B2009003E0A246B34601950097AA
:101530005020059051200490522003905320029097
:1015400051460598FFF78DF959460498FFF789F938
:1015500001990398FFF785F900990298FFF781F93F
:1015600029462046FFF7B1F906B0BDE8F08F70B507
:1015700004460026BC48058840884543BA48808810
:1015800046F60401884216D1B7488079012812D165
:101590000020B54988712A2048812B2088810021AC
:1015A0000846FFF792F90120AF4988712B20488146
:1015B0002A20888103E000210846FFF786F9FFF71B
:1015C00067F9002602E0A9480480761CAE42FAD3EF
:1015D00070BD00B5A1B00020209001217A2006F056
:1015E0008FFF0121084606F0C3FF4FF400401E9014
:1015F00001208DF87C0000208DF87E0002208DF8FF
:101600007D0001208DF87F001EA9994806F0DAFCC4
:101610004CF233701E9002208DF87C0000208DF873
:101620007E0003208DF87D0001208DF87F001EA92B
:10163000904806F0C7FC4FF680701E9002208DF88F
:101640007C0000208DF87E0003208DF87D000120B5
:101650008DF87F001EA9884806F0B4FC4FF4805036
:101660001E9002208DF87C0000208DF87E00032063
:101670008DF87D0001208DF87F001EA97F4806F0BF
:10168000A1FC4FF480501E9002208DF87C000020B9
:101690008DF87E0003208DF87D0001208DF87F00FD
:1016A0001EA9774806F08EFC0C220021714806F036
:1016B00014FD0C2201216F4806F00FFD0C220421BD
:1016C0006C4806F00AFD0C2205216A4806F005FD6B
:1016D0000C220821674806F000FD0C22092165480C
:1016E00006F0FBFC0C220A21624806F0F6FC0C22F4
:1016F0000E21604806F0F1FC0C220F215D4806F037
:10170000ECFC0C2207215C4806F0E7FC0C220821C7
:10171000594806F0E2FC0C220921574806F0DDFC8E
:101720000C220A21544806F0D8FC0C220B21524806
:1017300006F0D3FC0C2211464F4806F0CEFC0C22DA
:101740000D214D4806F0C9FC0C220E214A4806F036
:10175000C4FC0C220F21484806F0BFFC0C221146A5
:10176000464806F0BAFC0C221146454806F0B5FC86
:101770000F200890002009903C200A9000200B9038
:101780000C900D900E9009200190002002900820EE
:1017900003900020049005900690079006200F907B
:1017A000002010901190102012900020139015909E
:1017B0001490169017904FF48050189000201990B4
:1017C0004FF480401A9000201B9008A81C9001A89C
:1017D0001D900FA806F0A7F80121062006F02EF9AB
:1017E000322008F0AFF801210020FFF73AF832204C
:1017F00008F0A8F80020FFF740F81B498880084649
:101800008088FF280ADB084680884FF6FF718842EF
:1018100004D015488088B0F5134F7DD1D320FFF751
:1018200005F8FFF716F810498880FFF712F80E49FF
:101830008880FFF70EF80C498880084680884FF6AC
:10184000FF7101EA002008498880FFF702F8064985
:1018500089880843044988800846808849F24131D4
:10186000884259D0BF200DE0280E00208000006C77
:1018700000040240000C024000100240001402402C
:1018800000180240FEF7D2FFFEF7E3FFFE49888012
:10189000FEF7DFFFFC498880FEF7DBFFFA4988800E
:1018A000FEF7D7FFF8498880084680884FF6FF7119
:1018B00001EA0020F4498880FEF7CBFFF2498988CD
:1018C0000843F14988800846808846F6040188422A
:1018D0007AD0D420FEF7AAFFFEF7BBFFEA49888042
:1018E000FEF7B7FFE8498880FEF7B3FFE649888036
:1018F000084680884FF6FF7101EA0020E24988809F
:10190000FEF7A7FFE04989880843DF498880084639
:10191000808845F2103100E056E0884254D04FF400
:101920005A40FEF783FFFEF794FFD74988804FF4B3
:101930005B40FEF77BFFFEF78CFFD34988800846AB
:1019400080884FF6FF7101EA0020CF4988804FF46C
:101950005C40FEF76BFFFEF77CFFCB4989880843AC
:10196000C949888008468088B0F5004F02D145F209
:1019700010508880C448808845F21051884223D096
:10198000A120FEF753FFFEF764FFBF498880FEF7F2
:1019900060FFBD498880084680884FF6FF7101EAE4
:1019A0000020B9498880FEF754FFB7498988084369
:1019B000B54988800846808845F26171884203D124
:1019C00041F66310B0498880AF48808849F24131C0
:1019D000884211D0AC48808845F2103188420BD043
:1019E000A948808845F21051884205D0A6488088D1
:1019F00041F6631188421DD1A448006820F00F0011
:101A00004FF02041C1F81C010846D0F81C0120F419
:101A10007060C1F81C010846D0F81C0140F00300BA
:101A2000C1F81C010846D0F81C0140F40070C1F850
:101A30001C0128E09448808846F60401884205D0BD
:101A4000914880884CF2055188421CD18F4800682B
:101A500020F00F004FF02041C1F81C010846D0F8DB
:101A60001C0120F47060C1F81C010846D0F81C016C
:101A700040F00A00C1F81C010846D0F81C0140F4EF
:101A80004060C1F81C018048818881A00CF04CFEA8
:101A90007D48808849F2413188427CD1CF20FEF7D1
:101AA000C5FE0020FEF7CBFE2098401C2090C120F0
:101AB000FEF7C5FE3020FEF7C2FEED20FEF7B6FEB3
:101AC0006420FEF7BCFE0320FEF7B9FE1220FEF7ED
:101AD000B6FE8120FEF7B3FEE820FEF7A7FE8520C4
:101AE000FEF7ADFE1020FEF7AAFE7A20FEF7A7FE55
:101AF000CB20FEF79BFE3920FEF7A1FE2C20FEF73F
:101B00009EFE0020FEF79BFE3420FEF798FE02208A
:101B1000FEF795FEF720FEF789FE2020FEF78FFEE8
:101B2000EA20FEF783FE0020FEF789FE0020FEF784
:101B300086FEC020FEF77AFE1B20FEF780FEC12045
:101B4000FEF774FE0120FEF77AFEC520FEF76EFE5A
:101B50003020FEF774FE3020FEF771FEC720FEF73E
:101B600065FEB720FEF76BFE3620FEF75FFE4820CD
:101B7000FEF765FE3A20FEF759FE5520FEF75FFEA0
:101B8000B120FEF753FE0020FEF759FE1A20FEF7A3
:101B900056FEB62000E0A7E0FEF748FE0A20FEF75A
:101BA0004EFEA220FEF74BFEF220FEF73FFE002085
:101BB000FEF745FE2620FEF739FE0120FEF73FFE28
:101BC000E020FEF733FE0F20FEF739FE2A20FEF755
:101BD00036FE2820FEF733FE0820FEF730FE0E20EA
:101BE000FEF72DFE0820FEF72AFE5420FEF727FE02
:101BF000A920FEF724FE4320FEF721FE0A20FEF76F
:101C00001EFE0F20FEF71BFE0020FEF718FE002030
:101C1000FEF715FE0020FEF712FE0020FEF70FFE75
:101C2000E120FEF703FE0020FEF709FE1520FEF777
:101C300006FE1720FEF703FE0720FEF700FE112028
:101C4000FEF7FDFD0620FEF7FAFD2B20FEF7F7FD5F
:101C50005620FEF7F4FD3C20FEF7F1FD0520FEF7CF
:101C6000EEFD1020FEF7EBFD0F20FEF7E8FD3F2014
:101C7000FEF7E5FD3F20FEF7E2FD0F20FEF7DFFD5A
:101C80002B20FEF7D3FD09E0280E00201C0100A048
:101C90004C43442049443A25780D0A000020FEF7C1
:101CA000CEFD0020FEF7CBFD0120FEF7C8FD3F2052
:101CB000FEF7C5FD2A20FEF7B9FD0020FEF7BFFDA7
:101CC0000020FEF7BCFD0020FEF7B9FDEF20FEF777
:101CD000B6FD1120FEF7AAFD782007F033FE29207B
:101CE000FEF7A4FD03F01DB9FE48808846F6040106
:101CF00088427CD11120FEF799FD142007F022FEC6
:101D0000D020FEF793FD0720FEF799FD4220FEF755
:101D100096FD1D20FEF793FDD120FEF787FD0020E4
:101D2000FEF78DFD1A20FEF78AFD0920FEF787FDDC
:101D3000D220FEF77BFD0120FEF781FD2220FEF779
:101D40007EFDC020FEF772FD1020FEF778FD3B20DF
:101D5000FEF775FD0020FEF772FD0220FEF76FFD15
:101D60001120FEF76CFDC520FEF760FD0320FEF795
:101D700066FDC820FEF75AFD0020FEF760FD252015
:101D8000FEF75DFD2120FEF75AFD0520FEF757FD09
:101D90000020FEF754FD0A20FEF751FD6520FEF7F6
:101DA0004EFD2520FEF74BFD7720FEF748FD502025
:101DB000FEF745FD0F20FEF742FD0020FEF73FFD38
:101DC000F820FEF733FD0120FEF739FDFE20FEF777
:101DD0002DFD0020FEF733FD0220FEF730FD202010
:101DE000FEF724FD3620FEF721FD082000E02CE060
:101DF000FEF725FD3A20FEF719FD5520FEF71FFDE1
:101E00002B20FEF713FD0020FEF719FD0020FEF742
:101E100016FD0120FEF713FD3F20FEF710FD2A20DE
:101E2000FEF704FD0020FEF70AFD0020FEF707FD87
:101E30000120FEF704FDDF20FEF701FD782007F00A
:101E400081FD2920FEF7F2FC4CE7A648808845F288
:101E50001031884240F07C87ED20FEF7E7FC01203E
:101E6000FEF7EDFCFE20FEF7EAFCEE20FEF7DEFCBE
:101E7000DE20FEF7E4FC2120FEF7E1FCF120FEF776
:101E8000D5FC0120FEF7DBFCDF20FEF7CFFC1020A5
:101E9000FEF7D5FCC420FEF7C9FC8F20FEF7CFFC6F
:101EA000C620FEF7C3FC0020FEF7C9FCE220FEF7C7
:101EB000C6FCE220FEF7C3FCE220FEF7C0FCBF2018
:101EC000FEF7B4FCAA20FEF7BAFCB020FEF7AEFC89
:101ED0000D20FEF7B4FC0020FEF7B1FC0D20FEF74C
:101EE000AEFC0020FEF7ABFC1120FEF7A8FC0020A2
:101EF000FEF7A5FC1920FEF7A2FC0020FEF79FFCD0
:101F00002120FEF79CFC0020FEF799FC2D20FEF717
:101F100096FC0020FEF793FC3D20FEF790FC00208D
:101F2000FEF78DFC5D20FEF78AFC0020FEF787FCA3
:101F30005D20FEF784FC0020FEF781FCB120FEF757
:101F400075FC8020FEF77BFC0020FEF778FC8B20E0
:101F5000FEF775FC0020FEF772FC9620FEF76FFC82
:101F60000020FEF76CFCB220FEF760FC0020FEF7BC
:101F700066FC0020FEF763FC0220FEF760FC0020F8
:101F8000FEF75DFC0320FEF75AFC0020FEF757FC2D
:101F9000B320FEF74BFC0020FEF751FC0020FEF7BB
:101FA0004EFC0020FEF74BFC0020FEF748FC002012
:101FB000FEF745FC0020FEF742FC0020FEF73FFC48
:101FC0000020FEF73CFC0020FEF739FC0020FEF765
:101FD00036FC0020FEF733FC0020FEF730FC00202A
:101FE000FEF72DFC0020FEF72AFC0020FEF727FC60
:101FF0000020FEF724FC0020FEF721FC0020FEF765
:102000001EFC0020FEF71BFC0020FEF718FC002041
:10201000FEF715FC0020FEF712FC0020FEF70FFC77
:102020000020FEF70CFCB420FEF700FC8B20FEF72E
:1020300006FC0020FEF703FC9620FEF700FC0020C3
:10204000FEF7FDFBA120FEF7FAFB0020FEF7F7FBF1
:10205000B520FEF7EBFB0220FEF7F1FB0020FEF7B8
:10206000EEFB0320FEF7EBFB0020FEF7E8FB04206D
:10207000FEF7E5FB0020FEF7E2FBB620FEF7D6FBFD
:102080000020FEF7DCFB0020FEF7D9FBB720FEF7AF
:10209000CDFB0020FEF7D3FB0020FEF7D0FB3F2056
:1020A000FEF7CDFB0020FEF7CAFB5E20FEF7C7FB64
:1020B0000020FEF7C4FB6420FEF7C1FB0020FEF702
:1020C000BEFB8C20FEF7BBFB0020FEF7B8FBAC206C
:1020D000FEF7B5FB0020FEF7B2FBDC20FEF7AFFBFE
:1020E000002001E0280E0020FEF7A9FB7020FEF77B
:1020F000A6FB0020FEF7A3FB9020FEF7A0FB00202C
:10210000FEF79DFBEB20FEF79AFB0020FEF797FB06
:10211000DC20FEF794FB0020FEF791FBB820FEF7D1
:1021200085FB0020FEF78BFB0020FEF788FB0020DC
:10213000FEF785FB0020FEF782FB0020FEF77FFB09
:102140000020FEF77CFB0020FEF779FB0020FEF765
:1021500076FBBA20FEF76AFB2420FEF770FB002016
:10216000FEF76DFB0020FEF76AFB0020FEF767FB21
:10217000C120FEF75BFB2020FEF761FB0020FEF78D
:102180005EFB5420FEF75BFB0020FEF758FBFF20B0
:10219000FEF755FB0020FEF752FBC220FEF746FB80
:1021A0000A20FEF74CFB0020FEF749FB0420FEF757
:1021B00046FB0020FEF743FBC320FEF737FB3C2025
:1021C000FEF73DFB0020FEF73AFB3A20FEF737FB17
:1021D0000020FEF734FB3920FEF731FB0020FEF72C
:1021E0002EFB3720FEF72BFB0020FEF728FB3C20C0
:1021F000FEF725FB0020FEF722FB3620FEF71FFB33
:102200000020FEF71CFB3220FEF719FB0020FEF732
:1022100016FB2F20FEF713FB0020FEF710FB2C20EF
:10222000FEF70DFB0020FEF70AFB2920FEF707FB57
:102230000020FEF704FB2620FEF701FB0020FEF73E
:10224000FEFA2420FEF7FBFA0020FEF7F8FA24201D
:10225000FEF7F5FA0020FEF7F2FA2320FEF7EFFA78
:102260000020FEF7ECFA3C20FEF7E9FA0020FEF72A
:10227000E6FA3620FEF7E3FA0020FEF7E0FA322015
:10228000FEF7DDFA0020FEF7DAFA2F20FEF7D7FA84
:102290000020FEF7D4FA2C20FEF7D1FA0020FEF73A
:1022A000CEFA2920FEF7CBFA0020FEF7C8FA262046
:1022B000FEF7C5FA0020FEF7C2FA2420FEF7BFFAA7
:1022C0000020FEF7BCFA2420FEF7B9FA0020FEF742
:1022D000B6FA2320FEF7B3FA0020FEF7B0FAC420C6
:1022E000FEF7A4FA6220FEF7AAFA0020FEF7A7FA8A
:1022F0000520FEF7A4FA0020FEF7A1FA8420FEF7DD
:102300009EFA0020FEF79BFAF020FEF798FA0020D4
:10231000FEF795FA1820FEF792FA0020FEF78FFAE2
:10232000A420FEF78CFA0020FEF789FA1820FEF7A9
:1023300086FA0020FEF783FA5020FEF780FA00208C
:10234000FEF77DFA0C20FEF77AFA0020FEF777FA06
:102350001720FEF774FA0020FEF771FA9520FEF7B9
:102360006EFA0020FEF76BFAF320FEF768FA002001
:10237000FEF765FAE620FEF762FA0020FEF75FFA44
:10238000C520FEF753FA3220FEF759FA0020FEF777
:1023900056FA4420FEF753FA0020FEF750FA652063
:1023A000FEF74DFA0020FEF74AFA7620FEF747FACC
:1023B0000020FEF744FA8820FEF741FA0020FEF7DD
:1023C0003EFAC620FEF732FA2020FEF738FA002047
:1023D000FEF735FA1720FEF732FA0020FEF72FFA43
:1023E0000120FEF72CFA0020FEF729FAC720FEF79D
:1023F0001DFA0020FEF723FA0020FEF720FA002045
:10240000FEF71DFA0020FEF71AFAC820FEF70EFAB2
:102410000020FEF714FA0020FEF711FA0020FEF764
:102420000EFA0020FEF70BFAC920FEF7FFF9002094
:10243000FEF705FA0020FEF702FA0020FEF7FFF98A
:102440000020FEF7FCF90020FEF7F9F90020FEF766
:10245000F6F90020FEF7F3F90020FEF7F0F900206E
:10246000FEF7EDF90020FEF7EAF90020FEF7E7F9A4
:102470000020FEF7E4F90020FEF7E1F90020FEF766
:10248000DEF90020FEF7DBF90020FEF7D8F9E020A6
:10249000FEF7CCF91620FEF7D2F90020FEF7CFF9AF
:1024A0001C20FEF7CCF90020FEF7C9F92120FEF729
:1024B000C6F90020FEF7C3F93620FEF7C0F9002068
:1024C000FEF7BDF94620FEF7BAF90020FEF7B7F98E
:1024D0005220FEF7B4F90020FEF7B1F96420FEF7B0
:1024E000AEF90020FEF7ABF97A20FEF7A8F900203C
:1024F000FEF7A5F98B20FEF7A2F90020FEF79FF961
:102500009920FEF79CF90020FEF799F9A820FEF724
:1025100096F90020FEF793F9B920FEF790F9002014
:10252000FEF78DF9C420FEF78AF90020FEF787F93F
:10253000CA20FEF784F90020FEF781F9D220FEF7C9
:102540007EF90020FEF77BF9D920FEF778F900200C
:10255000FEF775F9E020FEF772F90020FEF76FF93B
:10256000F320FEF76CF90020FEF769F9E120FEF791
:102570005DF91620FEF763F90020FEF760F91C20D4
:10258000FEF75DF90020FEF75AF92220FEF757F911
:102590000020FEF754F93620FEF751F90020FEF72F
:1025A0004EF94520FEF74BF90020FEF748F952207E
:1025B000FEF745F90020FEF742F96420FEF73FF9E7
:1025C0000020FEF73CF97A20FEF739F90020FEF7EB
:1025D00036F98B20FEF733F90020FEF730F9992009
:1025E000FEF72DF90020FEF72AF9A820FEF727F9BB
:1025F0000020FEF724F9B920FEF721F90020FEF7AC
:102600001EF9C420FEF71BF90020FEF718F9CA20B6
:10261000FEF715F90020FEF712F9D220FEF70FF9A8
:102620000020FEF70CF9D820FEF709F90020FEF78C
:1026300006F9E020FEF703F90020FEF700F9F32089
:10264000FEF7FDF80020FEF7FAF8E220FEF7EEF8BC
:102650000520FEF7F4F80020FEF7F1F80B20FEF756
:10266000EEF80020FEF7EBF81B20FEF7E8F800205C
:10267000FEF7E5F83420FEF7E2F80020FEF7DFF879
:102680004420FEF7DCF80020FEF7D9F84F20FEF7D3
:10269000D6F80020FEF7D3F86120FEF7D0F800202E
:1026A000FEF7CDF87920FEF7CAF80020FEF7C7F84C
:1026B0008820FEF7C4F80020FEF7C1F89720FEF747
:1026C000BEF80020FEF7BBF8A620FEF7B8F8002001
:1026D000FEF7B5F8B720FEF7B2F80020FEF7AFF826
:1026E000C220FEF7ACF80020FEF7A9F8C720FEF7DD
:1026F000A6F80020FEF7A3F8D120FEF7A0F80020EE
:10270000FEF79DF8D620FEF79AF80020FEF797F81E
:10271000DD20FEF794F80020FEF791F8F320FEF795
:102720008EF80020FEF78BF8E320FEF77FF80520F7
:10273000FEF785F80020FEF782F80A20FEF77FF802
:102740000020FEF77CF81C20FEF779F80020FEF749
:1027500076F83320FEF773F80020FEF770F8442077
:10276000FEF76DF80020FEF76AF85020FEF767F8D4
:102770000020FEF764F86220FEF761F80020FEF703
:102780005EF87820FEF75BF80020FEF758F8882006
:10279000FEF755F80020FEF752F89720FEF74FF8A5
:1027A0000020FEF74CF8A620FEF749F80020FEF7BF
:1027B00046F8B720FEF743F80020FEF740F8C220A5
:1027C000FEF73DF80020FEF73AF8C720FEF737F88D
:1027D0000020FEF734F8D120FEF731F80020FEF794
:1027E0002EF8D520FEF72BF80020FEF728F8DD2084
:1027F000FEF725F80020FEF722F8F320FEF71FF879
:102800000020FEF71CF8E420FEF710F80120FEF788
:1028100016F80020FEF713F80120FEF710F800204C
:10282000FEF70DF80220FEF70AF80020FEF707F881
:102830002A20FEF704F80020FEF701F83C20FDF7FF
:10284000FEFF0020FDF7FBFF4B20FDF7F8FF002007
:10285000FDF7F5FF5D20FDF7F2FF0020FDF7EFFF2C
:102860007420FDF7ECFF0020FDF7E9FF8420FDF761
:10287000E6FF0020FDF7E3FF9320FDF7E0FF0020D7
:10288000FDF7DDFFA220FDF7DAFF0020FDF7D7FFFF
:10289000B320FDF7D4FF0020FDF7D1FFBE20FDF7E8
:1028A000CEFF0020FDF7CBFFC420FDF7C8FF0020BE
:1028B000FDF7C5FFCD20FDF7C2FF0020FDF7BFFFEC
:1028C000D320FDF7BCFF0020FDF7B9FFDD20FDF7A9
:1028D000B6FF0020FDF7B3FFF320FDF7B0FF0020A7
:1028E000FDF7ADFFE520FDF7A1FF0020FDF7A7FFF5
:1028F0000020FDF7A4FF0020FDF7A1FF0020FDF759
:102900009EFF0220FDF79BFF0020FDF798FF292086
:10291000FDF795FF0020FDF792FF3C20FDF78FFFAC
:102920000020FDF78CFF4B20FDF789FF0020FDF70D
:1029300086FF5D20FDF783FF0020FDF780FF7420F8
:10294000FDF77DFF0020FDF77AFF8420FDF777FF7C
:102950000020FDF774FF9320FDF771FF0020FDF7C5
:102960006EFFA220FDF76BFF0020FDF768FFB3208C
:10297000FDF765FF0020FDF762FFBE20FDF75FFF5A
:102980000020FDF75CFFC420FDF759FF0020FDF794
:1029900056FFCD20FDF753FF0020FDF750FFD32059
:1029A000FDF74DFF0020FDF74AFFDC20FDF747FF54
:1029B0000020FDF744FFF320FDF741FF0020FDF765
:1029C0003EFFE620FDF732FF1120FDF738FF002023
:1029D000FDF735FF3420FDF732FF0020FDF72FFF14
:1029E0005620FDF72CFF0020FDF729FF7620FDF78C
:1029F00026FF0020FDF723FF7720FDF720FF0020B2
:102A0000FDF71DFF6620FDF71AFF0020FDF717FFF9
:102A10008820FDF714FF0020FDF711FF9920FDF736
:102A20000EFF0020FDF70BFFBB20FDF708FF002085
:102A3000FDF705FF9920FDF702FF0020FDF7FFFEDF
:102A40006620FDF7FCFE0020FDF7F9FE5520FDF79E
:102A5000F6FE0020FDF7F3FE5520FDF7F0FE002006
:102A6000FDF7EDFE4520FDF7EAFE0020FDF7E7FE4D
:102A70004320FDF7E4FE0020FDF7E1FE4420FDF7D2
:102A8000DEFE0020FDF7DBFEE720FDF7CFFE322063
:102A9000FDF7D5FE0020FDF7D2FE5520FDF7CFFE55
:102AA0000020FDF7CCFE7620FDF7C9FE0020FDF7E3
:102AB000C6FE6620FDF7C3FE0020FDF7C0FE6720BE
:102AC000FDF7BDFE0020FDF7BAFE6720FDF7B7FE5B
:102AD0000020FDF7B4FE8720FDF7B1FE0020FDF7D2
:102AE000AEFE9920FDF7ABFE0020FDF7A8FEBB204F
:102AF000FDF7A5FE0020FDF7A2FE9920FDF79FFE41
:102B00000020FDF79CFE7720FDF799FE0020FDF7E1
:102B100096FE4420FDF793FE0020FDF790FE562020
:102B2000FDF78DFE0020FDF78AFE2320FDF787FECE
:102B30000020FDF784FE3320FDF781FE0020FDF725
:102B40007EFE4520FDF77BFE0020FDF778FEE820A5
:102B5000FDF76CFE0020FDF772FE0020FDF76FFE12
:102B60009920FDF76CFE0020FDF769FE8720FDF738
:102B700066FE0020FDF763FE8820FDF760FE002062
:102B8000FDF75DFE7720FDF75AFE0020FDF757FEAA
:102B90006620FDF754FE0020FDF751FE8820FDF76A
:102BA0004EFE0020FDF74BFEAA20FDF748FE002058
:102BB000FDF745FEBB20FDF742FE0020FDF73FFE7E
:102BC0009920FDF73CFE0020FDF739FE6620FDF759
:102BD00036FE0020FDF733FE5520FDF730FE0020C5
:102BE000FDF72DFE5520FDF72AFE0020FDF727FEFC
:102BF0004420FDF724FE0020FDF721FE4420FDF7D0
:102C00001EFE0020FDF71BFE5520FDF718FE0020DC
:102C1000FDF715FEE920FDF709FEAA20FDF70FFEDE
:102C20000020FDF70CFE0020FDF709FE0020FDF757
:102C300006FE0020FDF7FAFDAA20FDF700FECF20DA
:102C4000FDF7F4FD0020FDF7FAFD0020FDF7F7FD8C
:102C50000020FDF7F4FD0020FDF7F1FD0020FDF759
:102C6000EEFD0020FDF7EBFD0020FDF7E8FD002064
:102C7000FDF7E5FD0020FDF7E2FD0020FDF7DFFD9B
:102C80000020FDF7DCFD0020FDF7D9FD0020FDF759
:102C9000D6FD0020FDF7D3FD0020FDF7D0FD00207C
:102CA000FDF7CDFD0020FDF7CAFDF020FDF7BEFDCC
:102CB0000020FDF7C4FD5020FDF7C1FD0020FDF709
:102CC000BEFD0020FDF7BBFD0020FDF7B8FDF320A1
:102CD000FDF7ACFD0020FDF7B2FDF920FDF7A6FDE4
:102CE0000620FDF7ACFD1020FDF7A9FD2920FDF71A
:102CF000A6FD0020FDF7A3FD3A20FDF797FD552026
:102D0000FDF79DFD1120FDF791FD642006F01AFEF0
:102D10002920FDF78BFD3520FDF788FD0020FDF70C
:102D20008EFD5120FDF782FDFF20FDF788FD532029
:102D3000FDF77CFD2C20FDF782FD5520FDF776FD8B
:102D40008220FDF77CFD2C20FDF770FD02F0E9B834
:102D5000FE48808845F2105188427DD155214FF4BC
:102D60007040FDF77EFDAA214FF20100FDF779FDCD
:102D700052214FF20200FDF774FD08214FF20300CB
:102D8000FDF76FFD01214FF20400FDF76AFD0D21F3
:102D90004FF43040FDF765FD0D214BF20100FDF7CA
:102DA00060FD0D214BF20200FDF75BFD34214FF475
:102DB0003640FDF756FD34214BF20160FDF751FD21
:102DC00034214BF20260FDF74CFD0D214FF43140F0
:102DD000FDF747FD0D214BF20110FDF742FD0D21DE
:102DE0004BF20210FDF73DFD34214FF43740FDF763
:102DF00038FD34214BF20170FDF733FD34214BF2E5
:102E00000270FDF72EFD00214FF43240FDF729FD41
:102E100000214BF20120FDF724FD00214BF202209E
:102E2000FDF71FFD24214FF43840FDF71AFD242142
:102E30004BF60100FDF715FD24214BF60200FDF7CE
:102E400010FD01214FF43F40FDF70BFD0F214FF422
:102E50003340FDF706FD00E0FDE30F214BF20130AA
:102E6000FDF7FFFC0F214BF20230FDF7FAFC342195
:102E70004FF43940FDF7F5FC34214BF60110FDF716
:102E8000F0FC34214BF60210FDF7EBFC08214FF467
:102E90003540FDF7E6FC08214BF20150FDF7E1FC5F
:102EA00008214BF20250FDF7DCFC03214FF44240B5
:102EB000FDF7D7FC24214FF43A40FDF7D2FC242142
:102EC0004BF60120FDF7CDFC24214BF60220FDF747
:102ED000C8FC00214FF43C40FDF7C3FC78214BF6C1
:102EE0000140FDF7BEFC00214BF60240FDF7B9FCA6
:102EF00000214FF43D40FDF7B4FC78214BF6015022
:102F0000FDF7AFFC00214BF60250FDF7AAFC0021B3
:102F10004FF43E40FDF7A5FC64214BF60160FDF740
:102F2000A0FC00214FF45140FDF79BFC33214DF2F2
:102F30000110FDF796FC00214DF20210FDF791FC07
:102F400034214DF20310FDF78CFC00214DF20410EA
:102F5000FDF787FC3A214DF20510FDF782FC0021B8
:102F60004DF20610FDF77DFC4A214DF20710FDF7EA
:102F700078FC00214DF20810FDF773FC5C214DF246
:102F80000910FDF76EFC00214DF20A10FDF769FCF7
:102F900081214DF20B10FDF764FC00214DF20C1065
:102FA000FDF75FFCA6214DF20D10FDF75AFC002144
:102FB0004DF20E10FDF755FCE5214DF20F10FDF717
:102FC00050FC01214DF21010FDF74BFC13214DF286
:102FD0001110FDF746FC01214DF21210FDF741FCE6
:102FE00054214DF21310FDF73CFC01214DF2141059
:102FF000FDF737FC82214DF21510FDF732FC01215F
:103000004DF21610FDF72DFCCA214DF21710FDF7F9
:1030100028FC02214DF21810FDF723FC00214DF28F
:103020001910FDF71EFC02214DF21A10FDF719FCD4
:1030300001214DF21B10FDF714FC02214DF21C1072
:10304000FDF70FFC34214DF21D10FDF70AFC0221A3
:103050004DF21E10FDF705FC67214DF21F10FDF724
:1030600000FC02214DF22010FDF7FBFB84214DF204
:103070002110FDF7F6FB02214DF22210FDF7F1FBC6
:10308000A4214DF22310FDF7ECFB02214DF2241098
:10309000FDF7E7FBB7214DF22510FDF7E2FB02211A
:1030A0004DF22610FDF7DDFBCF214DF22710FDF785
:1030B000D8FB02214DF22810FDF7D3FBDE214DF2A3
:1030C0002910FDF7CEFB02214DF22A10FDF7C9FBB6
:1030D000F2214DF22B10FDF7C4FB02214DF22C1012
:1030E000FDF7BFFBFE214DF22D10FDF7BAFB0321CA
:1030F0004DF22E10FDF7B5FB10214DF22F10FDF70C
:10310000B0FB03214DF23010FDF7ABFB33214DF244
:103110003110FDF7A6FB03214DF23210FDF7A1FBA4
:103120006D214DF23310FDF79CFB00214FF452400E
:10313000FDF797FB33214DF20120FDF792FB0021B3
:103140004DF20220FDF78DFB342101E0280E002016
:103150004DF20320FDF785FB00214DF20420FDF721
:1031600080FB3A214DF20520FDF77BFB00214DF25B
:103170000620FDF776FB4A214DF20720FDF771FB93
:1031800000214DF20820FDF76CFB5C214DF2092077
:10319000FDF767FB00214DF20A20FDF762FB81215C
:1031A0004DF20B20FDF75DFB00214DF20C20FDF7E9
:1031B00058FBA6214DF20D20FDF753FB00214DF2E7
:1031C0000E20FDF74EFBE5214DF20F20FDF749FBE8
:1031D00001214DF21020FDF744FB13214DF2112087
:1031E000FDF73FFB01214DF21220FDF73AFB542180
:1031F0004DF21320FDF735FB01214DF21420FDF7B0
:1032000030FB82214DF21520FDF72BFB01214DF201
:103210001620FDF726FBCA214DF21720FDF721FBF2
:1032200002214DF21820FDF71CFB00214DF2192060
:10323000FDF717FB02214DF21A20FDF712FB0121C9
:103240004DF21B20FDF70DFB02214DF21C20FDF776
:1032500008FB34214DF21D20FDF703FB02214DF246
:103260001E20FDF7FEFA67214DF21F20FDF7F9FA47
:1032700002214DF22020FDF7F4FA84214DF22120A5
:10328000FDF7EFFA02214DF22220FDF7EAFAA42120
:103290004DF22320FDF7E5FA02214DF22420FDF73F
:1032A000E0FAB7214DF22520FDF7DBFA02214DF2BD
:1032B0002620FDF7D6FACF214DF22720FDF7D1FACF
:1032C00002214DF22820FDF7CCFADE214DF2292013
:1032D000FDF7C7FA02214DF22A20FDF7C2FAF221CA
:1032E0004DF22B20FDF7BDFA02214DF22C20FDF707
:1032F000B8FAFE214DF22D20FDF7B3FA03214DF26D
:103300002E20FDF7AEFA10214DF22F20FDF7A9FA7D
:1033100003214DF23020FDF7A4FA33214DF2312084
:10332000FDF79FFA03214DF23220FDF79AFA6D2145
:103330004DF23320FDF795FA00214FF45340FDF78D
:1033400090FA33214DF20130FDF78BFA00214DF256
:103350000230FDF786FA34214DF20330FDF781FA91
:1033600000214DF20430FDF77CFA3A214DF2053090
:10337000FDF777FA00214DF20630FDF772FA4A2187
:103380004DF20730FDF76DFA00214DF20830FDF7E0
:1033900068FA5C214DF20930FDF763FA00214DF225
:1033A0000A30FDF75EFA81214DF20B30FDF759FA34
:1033B00000214DF20C30FDF754FAA6214DF20D30EC
:1033C000FDF74FFA00214DF20E30FDF74AFAE521E4
:1033D0004DF20F30FDF745FA01214DF21030FDF7A7
:1033E00040FA13214DF21130FDF73BFA01214DF265
:1033F0001230FDF736FA54214DF21330FDF731FA51
:1034000001214DF21430FDF72CFA82214DF21530D6
:10341000FDF727FA01214DF21630FDF722FACA21F5
:103420004DF21730FDF71DFA02214DF21830FDF76D
:1034300018FA00214DF21930FDF713FA02214DF26E
:103440001A30FDF70EFA01214DF21B30FDF709FA93
:1034500002214DF21C30FDF704FA34214DF21D30EB
:10346000FDF7FFF902214DF21E30FDF7FAF9672151
:103470004DF21F30FDF7F5F902214DF22030FDF736
:10348000F0F984214DF22130FDF7EBF902214DF2E4
:103490002230FDF7E6F9A4214DF22330FDF7E1F9E2
:1034A00002214DF22430FDF7DCF9B7214DF2253031
:1034B000FDF7D7F902214DF22630FDF7D2F9CF21E1
:1034C0004DF22730FDF7CDF902214DF22830FDF7FE
:1034D000C8F9DE214DF22930FDF7C3F902214DF282
:1034E0002A30FDF7BEF9F2214DF22B30FDF7B9F984
:1034F00002214DF22C30FDF7B4F9FE214DF22D30B2
:10350000FDF7AFF903214DF22E30FDF7AAF9102196
:103510004DF22F30FDF7A5F903214DF23030FDF7C4
:10352000A0F933214DF23130FDF79BF903214DF223
:103530003230FDF796F96D214DF23330FDF791F9F8
:1035400000214FF45440FDF78CF933214DF2014036
:10355000FDF787F900214DF20240FDF782F9342191
:103560004DF20340FDF77DF900214DF20440FDF7D7
:1035700078F93A214DF20540FDF773F900214DF23B
:103580000640FDF76EF94A214DF20740FDF769F953
:1035900000214DF20840FDF764F95C214DF209402D
:1035A000FDF75FF900214DF20A40FDF75AF981213C
:1035B0004DF20B40FDF755F900214DF20C40FDF79F
:1035C00050F9A6214DF20D40FDF74BF900214DF2C7
:1035D0000E40FDF746F9E5214DF20F40FDF741F9A8
:1035E00001214DF21040FDF73CF913214DF211403D
:1035F000FDF737F901214DF21240FDF732F9542160
:103600004DF21340FDF72DF901214DF21440FDF765
:1036100028F982214DF21540FDF723F901214DF2E1
:103620001640FDF71EF9CA214DF21740FDF719F9B2
:1036300002214DF21840FDF714F900214DF2194016
:10364000FDF70FF902214DF21A40FDF70AF90121A9
:103650004DF21B4000E006E3FDF703F902214DF2B5
:103660001C40FDF7FEF834214DF21D40FDF7F9F83E
:1036700002214DF21E40FDF7F4F867214DF21F4084
:10368000FDF7EFF802214DF22040FDF7EAF8842122
:103690004DF22140FDF7E5F802214DF22240FDF701
:1036A000E0F8A4214DF22340FDF7DBF802214DF2B2
:1036B0002440FDF7D6F8B7214DF22540FDF7D1F8AB
:1036C00002214DF22640FDF7CCF8CF214DF22740E4
:1036D000FDF7C7F802214DF22840FDF7C2F8DE21C0
:1036E0004DF22940FDF7BDF802214DF22A40FDF7C9
:1036F000B8F8F2214DF22B40FDF7B3F802214DF25C
:103700002C40FDF7AEF8FE214DF22D40FDF7A9F853
:1037100003214DF22E40FDF7A4F810214DF22F4069
:10372000FDF79FF803214DF23040FDF79AF8332161
:103730004DF23140FDF795F803214DF23240FDF78F
:1037400090F86D214DF23340FDF78BF800214FF4D6
:103750005540FDF786F833214DF20150FDF781F811
:1037600000214DF20250FDF77CF834214DF2035058
:10377000FDF777F800214DF20450FDF772F83A2179
:103780004DF20550FDF76DF800214DF20650FDF7A2
:1037900068F84A214DF20750FDF763F800214DF219
:1037A0000850FDF75EF85C214DF20950FDF759F81D
:1037B00000214DF20A50FDF754F881214DF20B50D3
:1037C000FDF74FF800214DF20C50FDF74AF8A62105
:1037D0004DF20D50FDF745F800214DF20E50FDF76A
:1037E00040F8E5214DF20F50FDF73BF801214DF275
:1037F0001050FDF736F813214DF21150FDF731F856
:1038000001214DF21250FDF72CF854214DF21350C6
:10381000FDF727F801214DF21450FDF722F882211F
:103820004DF21550FDF71DF801214DF21650FDF730
:1038300018F8CA214DF21750FDF713F802214DF286
:103840001850FDF70EF800214DF21950FDF709F858
:1038500002214DF21A50FDF704F801214DF21B50E0
:10386000FCF7FFFF02214DF21C50FCF7FAFF342158
:103870004DF21D50FCF7F5FF02214DF21E50FCF7F2
:10388000F0FF67214DF21F50FCF7EBFF02214DF2D4
:103890002050FCF7E6FF84214DF22150FCF7E1FFB8
:1038A00002214DF22250FCF7DCFFA4214DF22350FF
:1038B000FCF7D7FF02214DF22450FCF7D2FFB721CD
:1038C0004DF22550FCF7CDFF02214DF22650FCF7BA
:1038D000C8FFCF214DF22750FCF7C3FF02214DF264
:1038E0002850FCF7BEFFDE214DF22950FCF7B9FF4E
:1038F00002214DF22A50FCF7B4FFF2214DF22B5079
:10390000FCF7AFFF02214DF22C50FCF7AAFFFE217D
:103910004DF22D50FCF7A5FF03214DF22E50FCF780
:10392000A0FF10214DF22F50FCF79BFF03214DF219
:103930003050FCF796FF33214DF23150FCF791FFE8
:1039400003214DF23250FCF78CFF6D214DF23350C4
:10395000FCF787FF00214FF45640FCF782FF33212C
:103960004DF20160FCF77DFF00214DF20260FCF793
:1039700078FF34214DF20360FCF773FF00214DF214
:103980000460FCF76EFF3A214DF20560FCF769FF19
:1039900000214DF20660FCF764FF4A214DF20760FA
:1039A000FCF75FFF00214DF20860FCF75AFF5C2135
:1039B0004DF20960FCF755FF00214DF20A60FCF75B
:1039C00050FF81214DF20B60FCF74BFF00214DF2BF
:1039D0000C60FCF746FFA6214DF20D60FCF741FF9D
:1039E00000214DF20E60FCF73CFFE5214DF20F6027
:1039F000FCF737FF01214DF21060FCF732FF132175
:103A00004DF21160FCF72DFF01214DF21260FCF721
:103A100028FF54214DF21360FCF723FF01214DF2E2
:103A20001460FCF71EFF82214DF21560FCF719FFB0
:103A300001214DF21660FCF714FFCA214DF2176008
:103A4000FCF70FFF02214DF21860FCF70AFF00217E
:103A50004DF21960FCF705FF02214DF21A60FCF7E8
:103A600000FF01214DF21B60FCF7FBFE02214DF22D
:103A70001C60FCF7F6FE34214DF21D60FCF7F1FEF0
:103A800002214DF21E60FCF7ECFE67214DF21F6033
:103A9000FCF7E7FE02214DF22060FCF7E2FE8421F4
:103AA0004DF22160FCF7DDFE02214DF22260FCF7B1
:103AB000D8FEA4214DF22360FCF7D3FE02214DF283
:103AC0002460FCF7CEFEB7214DF22560FCF7C9FE5D
:103AD00002214DF22660FCF7C4FECF214DF2276093
:103AE000FCF7BFFE02214DF22860FCF7BAFEDE2192
:103AF0004DF22960FCF7B5FE02214DF22A60FCF779
:103B0000B0FEF2214DF22B60FCF7ABFE02214DF22C
:103B10002C60FCF7A6FEFE214DF22D60FCF7A1FE05
:103B200003214DF22E60FCF79CFE10214DF22F6018
:103B3000FCF797FE03214DF23060FCF792FE332133
:103B40004DF23160FCF78DFE03214DF23260FCF73F
:103B500088FE6D214DF23360FCF783FE55214FF452
:103B60007040FCF77EFEAA214FF20100FCF779FEBF
:103B700052214FF20200FCF774FE08214FF20300BD
:103B8000FCF76FFE00214FF20400FCF76AFECC2127
:103B90004FF43140FCF765FE00214BF20110FCF7B9
:103BA00060FE05214FF43640FCF75BFE70214FF4B8
:103BB0003740FCF756FE70214BF20170FCF751FEC6
:103BC00001214FF43840FCF74CFE03214BF6010075
:103BD000FCF747FE03214BF60200FCF742FE0321EF
:103BE0004BF60300FCF73DFE02214FF43C40FCF78E
:103BF00038FE00214BF60140FCF733FE00214BF666
:103C00000240FCF72EFED0214FF44940FCF729FE7C
:103C100002214CF60110FCF724FE50214CF6021054
:103C2000FCF71FFE50214CF60310FCF71AFE502142
:103C30004CF60410FCF715FE00214FF45450FCF72D
:103C400010FE55214FF46850FCF70BFE4FF48850DE
:103C5000FCF7ECFD782005F03DFE4FF42450FCF716
:103C6000E5FD01F05EB9FE48808849F225318842C1
:103C70007ED147F6F001E520FCF7F3FD4FF48071AB
:103C80000120FCF7EEFD4FF4E0610220FCF7E9FDB6
:103C900041F230010320FCF7E4FD00210420FCF791
:103CA000E0FD40F202210820FCF7DBFD00210920A5
:103CB000FCF7D7FD00210A20FCF7D3FD00210C20E2
:103CC000FCF7CFFD00210D20FCF7CBFD00210F20DC
:103CD000FCF7C7FD00211020FCF7C3FD07211120D0
:103CE000FCF7BFFD00211220FCF7BBFD00211320D3
:103CF000FCF7B7FD00210720FCF7B3FD41F290610E
:103D00001020FCF7AEFD40F227211120FCF7A9FDA1
:103D10009D211220FCF7A5FD4FF4C8511320FCF79C
:103D2000A0FD25212920FCF79CFD0D212B20FCF76F
:103D300098FD07213020FCF794FD40F2033131203B
:103D4000FCF78FFD03213220FCF78BFD40F20621AA
:103D50003520FCF786FD08213620FCF782FD40F275
:103D600006413720FCF77DFD4FF44171382000E01B
:103D700057E0FCF776FD07213920FCF772FD40F291
:103D800002613C20FCF76DFD08213D20FCF769FD38
:103D900000215020FCF765FDEF215120FCF761FD6B
:103DA00000215220FCF75DFD40F23F115320FCF74B
:103DB00058FD4FF427416020FCF753FD012161209D
:103DC000FCF74FFD00216A20FCF74BFD002180200D
:103DD000FCF747FD00218120FCF743FD00218220F4
:103DE000FCF73FFD00218320FCF73BFD00218420F0
:103DF000FCF737FD00218520FCF733FD10219020D2
:103E0000FCF72FFD4FF4C0619220FCF72AFD40F231
:103E100033110720FCF725FD22210020FCF721FDAE
:103E20001FE78F48808849F2283188427ED141F2CD
:103E30008F01EC20FCF715FD41F23421EF20FCF757
:103E400010FD4FF480710120FCF70BFD4FF4E06191
:103E50000220FCF706FD41F230010320FCF701FDD2
:103E600000210420FCF7FDFC40F202210820FCF7B1
:103E7000F8FC00210920FCF7F4FC00210A20FCF7E3
:103E8000F0FC01210C20FCF7ECFC00210D20FCF7DC
:103E9000E8FC00210F20FCF7E4FC00211020FCF7D7
:103EA000E0FC07211120FCF7DCFC00211220FCF7CC
:103EB000D8FC00211320FCF7D4FC01210720FCF7DB
:103EC000D0FC322005F03EFD41F290411020FCF77D
:103ED000C8FC40F227211120FCF7C3FC322005F07A
:103EE00031FD8A211220FCF7BCFC322005F02AFDAE
:103EF0004FF4D0511320FCF7B4FC06212920FCF725
:103F0000B0FC0D212B20FCF7ACFC322005F01AFD93
:103F100000212020FCF7A5FC00212120FCF7A1FCBA
:103F2000322005F00FFD0021302000E074E0FCF7A6
:103F300098FC40F204613120FCF793FC40F205311B
:103F40003220FCF78EFC00213520FCF78AFC40F67D
:103F500009413620FCF785FC4FF401713720FCF74E
:103F600080FC40F201313820FCF77BFC40F2077105
:103F70003920FCF776FC00213C20FCF772FC40F66F
:103F80000A213D20FCF76DFC322005F0DBFC00210E
:103F90005020FCF766FCEF215120FCF762FC002169
:103FA0005220FCF75EFC40F23F115320FCF759FC15
:103FB0004FF427416020FCF754FC01216120FCF7FD
:103FC00050FC00216A20FCF74CFC00218020FCF70B
:103FD00048FC00218120FCF744FC00218220FCF7F2
:103FE00040FC00218320FCF73CFC00218420FCF7EE
:103FF00038FC00218520FCF734FC10219020FCF7D0
:1040000030FC4FF4C0619220FCF72BFC40F23311DE
:104010000720FCF726FC24E61148808849F220316D
:1040200088427DD100210846FCF71BFC4FF48071CB
:104030000120FCF716FC4FF4E0610220FCF711FCB4
:1040400041F230010320FCF70CFC00210420FCF7B6
:1040500008FC40F202210820FCF703FC002101E0EB
:10406000280E00200920FCF7FCFB00210A20FCF7A9
:10407000F8FB01210C20FCF7F4FB00210D20FCF7DC
:10408000F0FB00210F20FCF7ECFB322005F05AFC7E
:1040900040F201110720FCF7E4FB322005F052FC4E
:1040A0004FF486511020FCF7DCFB07211120FCF7B0
:1040B000D8FB4FF488711220FCF7D3FB4FF430612A
:1040C0001320FCF7CEFB00212920FCF7CAFB44F2A9
:1040D00010012B20FCF7C5FB00215020FCF7C1FB91
:1040E000EF215120FCF7BDFB00215220FCF7B9FB6A
:1040F00040F23F115320FCF7B4FB4FF41C516020F9
:10410000FCF7AFFB01216120FCF7ABFB00216A202B
:10411000FCF7A7FB00218020FCF7A3FB002100E0B7
:1041200031E08120FCF79DFB00218220FCF799FB08
:1041300000218320FCF795FB00218420FCF791FBF4
:1041400000218520FCF78DFB10219020FCF789FBD6
:1041500000219220FCF785FB01219320FCF781FBD5
:104160004FF488719520FCF77CFB00219720FCF729
:1041700078FB00219820FCF774FB40F273110720B4
:10418000FCF76FFB6DE5FE48808849F231318842CB
:104190007DD141F21401E720FCF763FB4FF48071FD
:1041A0000120FCF75EFB4FF400710220FCF759FB85
:1041B00041F238010320FCF754FB40F202210820B1
:1041C000FCF74FFB00210920FCF74BFB00210A20E4
:1041D000FCF747FB00210C20FCF743FB00210D20DE
:1041E000FCF73FFB00210F20FCF73BFB00211020D8
:1041F000FCF737FB07211120FCF733FB00211220CD
:10420000FCF72FFB00211320FCF72BFBC82005F047
:1042100099FB41F290611020FCF723FB40F227212B
:104220001120FCF71EFB322005F08CFB0C21122024
:10423000FCF717FB322005F085FB4FF400611320DB
:10424000FCF70FFB11212920FCF70BFB0B212B2086
:10425000FCF707FB322005F075FB00212020FCF75E
:1042600000FB40F23F112120FCF7FBFA0021302037
:10427000FCF7F7FA4FF483713120FCF7F2FA0021D2
:104280003220FCF7EEFA4FF40171352000E064E0D3
:10429000FCF7E7FA41F20A613620FCF7E2FA40F255
:1042A00007713720FCF7DDFA4FF483713820FCF7F3
:1042B000D8FA40F207713920FCF7D3FA40F20241F4
:1042C0003C20FCF7CEFA40F60F413D20FCF7C9FA3E
:1042D00000215020FCF7C5FAEF215120FCF7C1FA6C
:1042E00000215220FCF7BDFA40F23F115320FCF7A9
:1042F000B8FA4FF41C516020FCF7B3FA0121612099
:10430000FCF7AFFA00216A20FCF7ABFA002180200D
:10431000FCF7A7FA00218120FCF7A3FA00218220F4
:10432000FCF79FFA00218320FCF79BFA00218420F0
:10433000FCF797FA00218520FCF793FA10219020D2
:10434000FCF78FFA4FF4C0619220FCF78AFA40F232
:1043500033110720FCF785FA83E48948808845F209
:10436000084188427ED14FF480710120FCF779FA30
:104370004FF4E0610220FCF774FA41F230010320AF
:10438000FCF76FFA00210420FCF76BFA40F20721DA
:104390000820FCF766FA00210920FCF762FA0021E8
:1043A0000A20FCF75EFA00210C20FCF75AFA0021E3
:1043B0000D20FCF756FA00210F20FCF752FA1420CA
:1043C00005F0C0FA41F2B0611020FCF74AFA012171
:1043D0001120FCF746FA01211720FCF742FA4FF4AE
:1043E0009C711220FCF73DFA4FF400611320FCF79A
:1043F00038FA09212920FCF734FA09212A20FCF790
:1044000030FA0021A420FCF72CFA00215020FCF700
:1044100028FAEF215120FCF724FA00215220FCF762
:1044200020FA40F23F115320FCF71BFA4FF41C51C5
:104430006020FCF716FA01216120FCF712FA002136
:104440006A20FCF70EFA00218020FCF70AFA00210E
:104450008120FCF706FA00218220FCF702FA0021F5
:10446000832000E023E0FCF7FCF900218420FCF726
:10447000F8F900218520FCF7F4F913219020FCF7CE
:10448000F0F900219220FCF7ECF903219320FCF7CE
:10449000E8F94FF488719520FCF7E3F940F27311C5
:1044A0000720FCF7DEF9322005F04CFAB8E4344876
:1044B000808841F2055188427ED100210720FCF717
:1044C000D0F9322005F03EFA4FF48E711220FCF73D
:1044D000C8F90121A420FCF7C4F90F210820FCF73A
:1044E000C0F908210A20FCF7BCF908210D20FCF7CF
:1044F000B8F940F207713020FCF7B3F907213120F9
:10450000FCF7AFF940F203613220FCF7AAF94FF44F
:10451000E0613320FCF7A5F940F202213420FCF7DA
:10452000A0F902213520FCF79CF941F60F713620E5
:10453000FCF797F940F207713720FCF792F9002158
:104540003820FCF78EF900213920FCF78AF940F277
:1045500007713A20FCF785F900213B20FCF781F92F
:1045600007213C20FCF77DF900213D20FCF779F97B
:10457000322005F0E7F901210720FCF772F901E08C
:10458000280E002001211720FCF76BF9322005F0DE
:10459000D9F94FF4BD511020FCF763F940F217210F
:1045A0001120FCF75EF94FF48F711220FCF759F9D6
:1045B0004FF47061132000E097E0FCF752F90021FE
:1045C0002A20FCF74EF90A212920FCF74AF94FF47A
:1045D0009F711220FCF745F900215020FCF741F9AA
:1045E000EF215120FCF73DF900215220FCF739F969
:1045F00040F23F115320FCF734F94FF41C51602076
:10460000FCF72FF901216120FCF72BF900216A202A
:10461000FCF727F900218020FCF723F900218120F5
:10462000FCF71FF900218220FCF71BF900218320F1
:10463000FCF717F900218420FCF713F900218520ED
:10464000FCF70FF913219020FCF70BF94FF44071A0
:104650009220FCF706F905219320FCF702F90021CE
:104660009520FCF7FEF800219720FCF7FAF80021CE
:104670009820FCF7F6F84FF480710120FCF7F1F870
:104680004FF4E0610220FCF7ECF841F2380103201E
:10469000FCF7E7F800210420FCF7E3F800210C20E8
:1046A000FCF7DFF800210F20FCF7DBF800212020C9
:1046B000FCF7D7F800212120FCF7D3F821210720AF
:1046C000FCF7CFF8142005F03DF961210720FCF735
:1046D000C8F8142005F036F940F273110720FCF7F2
:1046E000C0F8142005F02EF995E4FE4880884BF2BE
:1046F000055188427ED100210846FCF7B2F800211E
:104700000846FCF7AEF800210846FCF7AAF800219D
:104710000846FCF7A6F80121A420FCF7A2F8142013
:1047200005F010F94FF41C516020FCF79AF840F2A4
:1047300002210820FCF795F84FF405713020FCF7B2
:1047400090F843F215713120FCF78BF840F20461C8
:104750003220FCF786F840F616613320FCF781F82A
:1047600042F211213420FCF77CF84FF4A851352097
:10477000FCF777F848F207513620FCF772F841F25F
:1047800007413720FCF76DF841F203413820FCF770
:1047900068F820213920FCF764F81A219020FCF7F2
:1047A00060F800211020FCF75CF807211120FCF7CD
:1047B00058F800211220FCF754F800211320FCF7D0
:1047C00050F8142005F0BEF84FF4E6611020FCF715
:1047D00048F840F237111120FCF743F8142005F097
:1047E000B1F84FF4DC711220FCF73BF8142005F00F
:1047F000A9F800E083E04FF470611320FCF731F872
:1048000080212A20FCF72DF848212920FCF729F8DF
:10481000142005F097F84FF480710120FCF721F87F
:104820004FF4E0610220FCF71CF841F2380103204C
:10483000FCF717F840F202210820FCF712F80021DB
:104840000A20FCF70EF800210C20FCF70AF80021E2
:104850000D20FCF706F830210E20FCF702F80021AD
:104860005020FBF7FEFFEF215120FBF7FAFF00215C
:104870005220FBF7F6FF40F23F115320FBF7F1FF08
:104880004FF41C516020FBF7ECFF01216120FBF786
:10489000E8FF00216A20FBF7E4FF11219020FBF7DD
:1048A000E0FF4FF4C0619220FBF7DBFF40F20241D2
:1048B0009320FBF7D6FF02219420FBF7D2FF1420B0
:1048C00005F040F801210720FBF7CBFF142005F08D
:1048D00039F861210720FBF7C4FF40F2731107206C
:1048E000FBF7BFFF00212020FBF7BBFF00212120A9
:1048F000FBF7B7FF22210020FBF7B3FF11E3794854
:1049000080884CF2055188427ED100210846FBF791
:10491000A8FF00210846FBF7A4FF142005F012F8B9
:1049200000210846FBF79DFF00210846FBF799FF91
:1049300000210846FBF795FF00210846FBF791FF91
:104940000121A420FBF78DFF142004F0FBFF4FF49E
:104950001C516020FBF785FF40F606010820FBF79D
:1049600080FF40F203713020FBF77BFF01213120F3
:10497000FBF777FF04213220FBF773FF4FF48171BF
:104980003320FBF76EFF4FF440713420FBF769FFD3
:1049900040F203113520FBF764FF1F213620FBF79F
:1049A00060FF40F203713720FBF75BFF01213820E5
:1049B000FBF757FF04213920FBF753FF1521902007
:1049C000FBF74FFF4FF482611020FBF74AFF40F2E4
:1049D00047211120FBF745FF4FF4DE711220FBF752
:1049E00040FF4FF460611320FBF73BFF782004F099
:1049F000A9FF4FF480710120FBF733FF4FF40071E2
:104A00000220FBF72EFF00E050E041F230010320CE
:104A1000FBF727FF08210A20FBF723FF00210C20CA
:104A2000FBF71FFF20210E20FBF71BFF00210F20AB
:104A3000FBF717FF00212020FBF713FF00212120A7
:104A4000FBF70FFF3D212A20FBF70BFF142004F09A
:104A500079FF2D212920FBF704FF00215020FBF7CF
:104A600000FF4DF2EF015120FBF7FBFE0021522029
:104A7000FBF7F7FE40F23F115320FBF7F2FE002157
:104A80006120FBF7EEFE00216A20FBF7EAFE4FF4FF
:104A900040719220FBF7E5FE05219320FBF7E1FE34
:104AA0004FF480710720FBF7DCFE3AE20D48808866
:104AB00044F2315188427CD101210020FBF7D1FE24
:104AC0000A2004F03FFF41F228611020FBF7C9FEE5
:104AD0000E211220FBF7C5FE40F639211320FBF70B
:104AE000C0FE01E0280E00200A2004F02BFF402128
:104AF0001120FBF7B6FE50211520FBF7B2FE0A206D
:104B000004F020FF1E211220FBF7ABFE0A2004F068
:104B100019FF4FF4B1511020FBF7A3FE42F63921E3
:104B20001320FBF79EFE0A2004F00CFF4FF4807167
:104B30000120FBF796FE4FF440710220FBF791FE37
:104B400041F238010320FBF78CFE40F202210820DD
:104B5000FBF787FE08210A20FBF783FE00213020A7
:104B6000FBF77FFE40F202413120FBF77AFE4FF463
:104B700083713220FBF775FE40F203513320FBF7BF
:104B800070FE4FF482713420FBF76BFE40F201316E
:104B90003520FBF766FE40F207713620FBF761FE19
:104BA00040F205313720FBF75CFE4FF402713820EC
:104BB00000E040E0FBF755FE40F60B713920FBF7B3
:104BC00050FE02214120FBF74CFE4FF41C516020A7
:104BD000FBF747FE01216120FBF743FE4FF4047110
:104BE0009020FBF73EFE4FF485719220FBF739FED3
:104BF00004219320FBF735FE4FF48071A020FBF7D2
:104C000030FE01210720FBF72CFE21210720FBF7B6
:104C100028FE23210720FBF724FE33210720FBF782
:104C200020FE40F233110720FBF71BFE0021A020DD
:104C3000FBF717FE75E1F848808844F23551884249
:104C40007ED130211520FBF70CFE10219A20FBF7B6
:104C500008FE20211120FBF704FE43F2284110201A
:104C6000FBF7FFFD02211220FBF7FBFD41F23801AB
:104C70001320FBF7F6FD282004F064FE12210846FD
:104C8000FBF7EFFD282004F05DFE43F220411020E9
:104C9000FBF7E7FD43F238011320FBF7E2FD462066
:104CA00004F050FE00213020FBF7DBFD40F2024112
:104CB0003120FBF7D6FD40F207313220FBF7D1FD62
:104CC0004FF441713320FBF7CCFD04213420FBF776
:104CD000C8FD40F201413520FBF7C3FD40F20771EA
:104CE0003620FBF7BEFD40F205313720FBF7B9FD5A
:104CF0004FF4C2613820FBF7B4FD4FF4C261392094
:104D0000FBF7AFFD4FF480710120FBF7AAFD4FF4D4
:104D100040710220FBF7A5FD41F230010320FBF7B3
:104D2000A0FD40F608010820FBF79BFD08210A20A2
:104D3000FBF797FD4FF41C516020FBF792FD00E05C
:104D400031E001216120FBF78CFD4FF49F71902031
:104D5000FBF787FD4FF480719220FBF782FD4FF443
:104D600080719320FBF77DFD4FF44051A020FBF7AD
:104D700078FD1021A320FBF774FD01210720FBF72C
:104D800070FD21210720FBF76CFD23210720FBF795
:104D900068FD33210720FBF764FD40F23311072043
:104DA000FBF75FFDBDE09C48808841F663118842B7
:104DB000F8D1E220FBF73AFD1D20FBF740FD022071
:104DC000FBF73DFD0420FBF73AFD642004F082FD73
:104DD000E020FBF72BFD0120FBF731FD0A2004F05A
:104DE000B1FDE020FBF722FD0320FBF728FD0C209E
:104DF00004F0A8FD0120FBF719FD0A2004F0A2FD34
:104E0000E620FBF713FD2F20FBF719FDFF20FBF732
:104E100016FDFF20FBF713FDB020FBF707FD202058
:104E2000FBF70DFD0020FBF70AFD0320FBF707FD54
:104E300040F21F30FBF703FD0120FBF700FD40F2BD
:104E4000DF10FBF7FCFC0020FBF7F9FCB420FBF7BC
:104E5000EDFC0420FBF7F3FC40F21F40FBF7EFFCF6
:104E60000020FBF7ECFC2E20FBF7E9FC1D20FBF7F4
:104E7000E6FC0020FBF7E3FC0020FBF7E0FC002051
:104E8000FBF7DDFCB620FBF7D1FC0220FBF7D7FCDB
:104E90004FF40370FBF7D3FC0020FBF7D0FC172086
:104EA000FBF7CDFC1520FBF7CAFC0020FBF7C7FC85
:104EB0000020FBF7C4FCF020FBF7B8FC0320FBF755
:104EC000BEFC2920FBF7B2FCD020FBF7AFFC002092
:104ED000FBF7B5FCBE20FBF7A9FC0520FBF7AFFCF8
:104EE000FE20FBF7ACFC0120FBF7A9FC0020FBF740
:104EF000A6FC0020FBF7A3FC0020FBF7A0FCB820D9
:104F0000FBF794FC0320FBF79AFC0120FBF797FCCE
:104F1000BA20FBF78BFC0120FBF791FC6420FCF727
:104F20000BF90120FCF734F901203C4908604FF6E9
:104F3000FF70FCF71CFB21B000BD2DE9FC4F0546BE
:104F40000E4617469846DDF82C9000200190324816
:104F5000808846F60401884229D12F4880790128AB
:104F600025D1AB4635462C480088C01B401E86B272
:104F7000474629480088A0EB0B00401E1FFA80F826
:104F80000020254988712A2048812B2088814346AA
:104F90003A4631462846CDF80090FFF7CEFF012073
:104FA0001D4988712B2048812A2088811DE0781BAB
:104FB000401C80B20190344615E021462846FBF79C
:104FC00084FCFBF765FC4FF0000A07E04FF0D84087
:104FD000A0F880900AF101001FFA80FA019882453A
:104FE000F4DB601C84B24445E7DDBDE8FC8F2DE9AD
:104FF000F84F07460D4690469946DDF828B0A8EBD5
:105000000700401C1FFA80FAA9EB0500401C80B283
:105010000090002419E00000280E0020BC824042CD
:10502000281981B23846FBF750FCFBF731FC00260B
:1050300007E004FB0A603BF81000F8490880701C88
:1050400086B25645F5DB601C84B200988442E7DBEB
:10505000BDE8F88F2DE9FF4F84B081468A460020D5
:10506000039002900698A0EB09050798A0EB0A06AA
:10507000CDF80490CDF800A0002D01DD012705E05A
:105080000DB9002702E04FF0FF376D42002E02DD20
:105090004FF0010806E016B94FF0000802E04FF0AB
:1050A000FF387642B54201DD2C4600E034464FF031
:1050B000000B21E0009A91B2019A90B2FBF76CFFCD
:1050C0000398284403900298304402900398A04229
:1050D00005DD0398001B0390019838440190029865
:1050E000A04205DD0298001B029000984044009009
:1050F0000BF101001FFA80FB601C8345DADD08B06C
:10510000BDE8F08FF0B504460D4616461F462B4607
:10511000324629462046FFF79DFF3B462246294658
:105120002046FFF797FF3B46324639462046FFF7B9
:1051300091FF3B46324629463046FFF78BFFF0BDD4
:105140002DE9F04306460F469046002445460320CD
:10515000A0EB48093CE07A1B91B2321990B2FBF700
:105160001BFF3A1B91B2721990B2FBF715FF3A1967
:1051700091B2721990B2FBF70FFF7A1991B23219FE
:1051800090B2FBF709FF7A1991B2321B90B2FBF78C
:1051900003FF3A1991B2721B90B2FBF7FDFE7A1B26
:1051A00091B2321B90B2FBF7F7FE3A1B91B2721B21
:1051B00090B2FBF7F1FE641CB9F1000F03DAA00016
:1051C000801D814404E0601B80000A3081446D1E14
:1051D000AC42C0DDBDE8F0832DE9F84F80460E46B5
:1051E00017461C46B3462046E31704EB5373DB1007
:1051F00021464FEAE47C04EB5C7C4FEAEC0CA4EB28
:10520000CC0CBCF1000F02D04FF0010C01E04FF0CC
:10521000000C6344224604EBD27C4FEA6C0C03FB87
:105220000CF3DBB20093A7F12000C7B2002556E0D3
:105230000C2C07D107EB4700794901EB800010F8EF
:10524000059013E0102C05D1764800EB071010F8FC
:1052500005900BE0182C07D107EBC700724901EB52
:10526000800010F8059001E0BDE8F88F4FF0000ACB
:105270002FE009F0800030B16C480288314640468A
:10528000FBF798FE07E00A9828B96948028831467A
:105290004046FBF78FFE4FEA49604FEA1069701CE9
:1052A00086B264484088B04200DCDDE7A6EB0B0024
:1052B000A0420AD15E4608F101001FFA80F85D485D
:1052C0000088404500DCCFE706E00AF1010000F06D
:1052D000FF0ABAF1080FCCDB00BF681CC5B200980A
:1052E0008542A5DB00BFBFE710B50246012000E004
:1052F00050430B1EA1F10104E1B2F9D110BD2DE91B
:10530000FF4F81B0074691461E460E9D4FF0000AA2
:10531000002439E0301B401EC1B20A20FFF7E4FF31
:10532000B9FBF0F00A21B0FBF1F201FB1208BAF16F
:10533000000F16D1701EA04213DDB8F1000F0ED180
:105340000020AB4605EBDB71491001FB04710090B6
:1053500088B22B4620220299FFF73EFF12E04FF061
:10536000010A0020AB4605EBDB71491001FB04711B
:10537000009088B208F13001CAB22B460299FFF7BB
:105380002BFF00BF601CC4B2B442C3DB05B0BDE854
:10539000F08F2DE9FF4F82B0064692461F46DDE9A9
:1053A0000F480020019000255CE0781B401EC1B230
:1053B0000A20FFF799FFBAFBF0F00A21B0FBF1F2E7
:1053C00001FB1209019840BB781EA84236DDB9F1F5
:1053D000000F31D108F0800078B108F00100A34639
:1053E00004EBDB71491001FB0561009088B2234694
:1053F00030220399FFF7F0FE0EE008F00100A3460B
:1054000004EBDB71491001FB0561009088B2234673
:1054100020220399FFF7E0FE22E00FE08000006CFD
:10542000269102089A9502088A9B0208140000201F
:1054300016000020280E00200120019008F0010035
:10544000A34604EBDB71491001FB0561009088B2B3
:1054500009F13001CAB223460399FFF7BDFE00BF30
:10546000681CC5B2BD42A0DB06B0BDE8F08F2DE9D7
:10547000F84704460D4690469946DDE9096704F071
:10548000FF0A08EB04001FFA80F809EB05001FFA79
:1054900080F916E0444502DB5446A81985B24D4513
:1054A00000DB14E0002000903A783346294620467D
:1054B000FFF792FE304606EBD07104EB61018CB22F
:1054C0007F1C38787E2802DC38782028E2DA00BF9A
:1054D000BDE8F88710B500F0BBF810BD70B5044604
:1054E000002600F0D4F82546E11704EB11610912FB
:1054F000A02202EB4101C8B200F075F900F008F9F2
:10550000E11704EB11610912A4EB0121C8B200F00C
:105510006AF900F0FDF800F0BAF8A12000F063F994
:1055200000F0F6F8002000F08BF9064600F0D1F804
:10553000304670BD70B504460E4600F0A8F825460A
:10554000E11704EB11610912A02202EB4101C8B27C
:1055500000F049F900F0DCF8E11704EB11610912E1
:10556000A4EB0121C8B200F03EF900F0D1F83046BA
:1055700000F039F900F0CCF800F0ABF80A2004F0A4
:10558000E1F970BD2DE9F04105460E4617460024AD
:1055900009E0E20026FA02F2D1B22A1990B2FFF72E
:1055A000C9FF601CC4B2BC42F3DBBDE8F0812DE949
:1055B000F04107460C460026002509E0360239195D
:1055C000491B491E88B2FFF789FF0644681CC5B213
:1055D000A542F3DB3046BDE8F08110B5FF20FFF7B0
:1055E0007DFF0446552C01D1002010BD5521FF2020
:1055F000FFF7A0FFFF20FFF771FF0446552C01D1F4
:105600000020F2E70120F0E770B506460C4615468B
:1056100008E03046721C96B2FFF760FF04F8010BF9
:10562000681E85B2002DF4D170BD70B505460C46DC
:10563000164606E021782846FFF77CFF681C85B2F5
:10564000641C301EA6F101018EB2F3D170BD0000C2
:105650001CB50121022002F053FF4FF4407000906E
:1056600001208DF8040003208DF8050000208DF83E
:10567000060001208DF807006946894802F0A2FC67
:105680000120884908608849C1F8A4021CBD10B5F2
:105690008348006820F4402081490860084600687B
:1056A00040F48020086001207E49091D08607E4981
:1056B000C1F8A002042004F00DF900207949091D69
:1056C0000860042004F006F900207749C1F8A00220
:1056D00010BD10B57248006820F440207049086081
:1056E0000846006840F48020086000206D4908608A
:1056F0006D49C1F8A402042004F0ECF801206949C6
:1057000008606949C1F8A402042004F0E3F810BD60
:1057100010B500246248006820F440206049086009
:1057200008460068086001205E49091D086004F011
:10573000D1F801205C49C1F8A00204F0CBF807E0E1
:10574000601CC4B2FA2C03DDFFF7C3FF012010BDBB
:1057500054487C3800680028F2D15249086000BFE4
:10576000F5E710B500204F4908604D48006820F467
:1057700040204B4908600846006840F480200860DB
:1057800000204949C1F8A402022004F0A3F8012036
:1057900044490860022004F09DF800204249C1F805
:1057A000A00210BD10B500203E4908603C480068CA
:1057B00020F440203A4908600846006840F4802000
:1057C000086001203849C1F8A402022004F082F8E0
:1057D000012034490860022004F07CF8002032499E
:1057E000C1F8A00210BD70B504462D48006820F431
:1057F00040202B4908600846006840F4802008607B
:10580000002028490860002517E0E0092549091D06
:1058100008606006040E022004F05CF801202249B2
:10582000C1F8A002022004F055F800201D490860CC
:10583000022004F04FF8681CC5B2082DE5DB70BDEE
:1058400070B5054600241648006820F4402014492D
:105850000860084600680860002616E0002011492C
:105860000860022004F036F801200F49C1F8A002B8
:105870006006040E0B487C38006808B1601CC4B296
:10588000012004F027F8701CC6B2082EE6DB15B91B
:10589000FFF788FF01E0FFF764FF204670BD0000BE
:1058A00000040240A08240420080404210B5052022
:1058B00004F010F810BD1CB50121222002F020FEDA
:1058C000012000908DF8040003208DF805000020D1
:1058D0008DF8060001208DF807006946844802F023
:1058E00071FB4FF4006000906946824802F06AFB49
:1058F0000120814908608149C1F8AC021CBD10B586
:105900007C48006820F440007A4908600846006836
:1059100040F4800008600120794908607949C1F8A5
:105920008002142003F0D6FF002075490860FFF7BD
:10593000BDFF00207349C1F8800210BD10B56D484D
:10594000006820F440006B4908600846006840F495
:1059500080000860012068490860142003F0BAFF45
:1059600000206649C1F8AC02FFF7A0FF012064499E
:10597000086010BD10B500245E48006820F44000A7
:105980005C49086008460068086001205C490860BE
:105990005C49C1F880020AE0601CC4B2FA2C03DD45
:1059A000FFF7CCFF012010BD012003F093FF544806
:1059B000803800680028EFD14F49086000BFF2E747
:1059C00010B500204C4908604A48006820F44000A7
:1059D000484908600846006840F480000860FFF706
:1059E00065FF00204549C1F8AC02FFF75FFF0120C9
:1059F00041490860FFF75AFF00204249C1F8800280
:105A000010BD10B500203C4908603A48006820F4F9
:105A10004000384908600846006840F4800008608B
:105A2000FFF744FF01203549C1F8AC02FFF73EFF04
:105A3000012031490860FFF739FF00203149C1F8E2
:105A4000800210BD70B504462A48006820F440006A
:105A5000284908600846006840F48000086000207B
:105A600025490860FFF722FF002511E0E0092449DD
:105A700008606006040E01202249C1F88002FFF789
:105A800015FF00201C490860FFF710FF681CC5B215
:105A9000082DEBDB70BD70B5054600241548006885
:105AA00020F440001349086008460068086000269A
:105AB00013E00020104908601E2003F00BFF0120B6
:105AC0001049C1F880026006040E0D488038006855
:105AD00008B1601CC4B2701CC6B2082EE9DB15B94F
:105AE000FFF78FFF01E0FFF76BFF204670BD00005E
:105AF0000004024000140240808240420080424282
:105B0000AC824242008040422DE9F04104460E46FC
:105B100017464FF00008FFF7F2FEB220FFF792FFA2
:105B2000FFF728FF2012FFF78DFFFFF723FFE0B2FA
:105B3000FFF788FFFFF71EFF00250BE0705DFFF702
:105B400081FFFFF717FF8046B8F1000F00D003E098
:105B5000681CC5B2BD42F1DB00BFFFF7EFFE404657
:105B6000BDE8F0812DE9F04105460F461646FFF7E6
:105B7000C6FEB220FFF766FFFFF7FCFE2812FFF714
:105B800061FFFFF7F7FEE8B2FFF75CFFFFF7F2FEF9
:105B9000FFF7B5FEB320FFF755FFFFF7EBFE00243C
:105BA0000BE0711EA14201D0012100E00021084656
:105BB000FFF771FF3855601CC4B2B442F1DBFFF748
:105BC000BDFEBDE8F08138B50446002000900CB160
:105BD00080200090012269464FF45060FFF794FF47
:105BE00038BD0EB5002002900121062002F088FC8D
:105BF0000220009000208DF8040001208DF807009D
:105C00006946934802F0DEF94FF4005000900120FD
:105C10008DF8040003208DF8050000208DF80600A3
:105C200069468C4802F0CEF9FFF745FE00208A490C
:105C30000860642003F086FE01208849C1F8B402A0
:105C4000642003F07FFE0120FFF7BDFF012202A9BF
:105C50004FF45060FFF786FF9DF8081080A008F011
:105C600063FD9DF80800802801D100200EBD0120B1
:105C7000FCE731B52DED068B82B0002400257B4872
:105C80000078401C79490870084600780A2190FB8A
:105C9000F1F201FB120018B1744800780A287DDA8D
:105CA000012208A90020FFF75DFF9DF8200000F009
:105CB0001F00002872D09DF8200000F01F0040F067
:105CC000C0006B4981F82000002486E0684890F805
:105CD00020000121A140084000287CD0654931F80E
:105CE0001400042201A9FFF73DFF614890F8340039
:105CF00000F00100D0B39DF807109DF8062001EBDD
:105D0000022022F038FE41EC190B9FED5B0B53ECA7
:105D1000102B22F097FE41EC180B22F0FFFD81B210
:105D20005348163020F814109DF805109DF80420F3
:105D300001EB022022F01FFE41EC1A0B9FED500BED
:105D400053EC102B22F07EFE41EC190B9FED4E0B15
:105D500053EC102B22F0AAFF41EC180B22F0DEFDD1
:105D600081B243480C3020F8141034E0FFE79DF86E
:105D700007109DF8062001EB022022F0FCFD41EC0B
:105D8000190B9FED3D0B53EC102B22F05BFE41EC09
:105D9000180B22F0C3FD81B2354800E02CE00C3036
:105DA00020F814109DF805109DF8042001EB022046
:105DB00022F0E1FD41EC190B9FED310B53EC102B60
:105DC00022F040FE41EC180B22F0A8FD81B22848D9
:105DD000163020F81410601CC4B2052CFFF676AF04
:105DE00001252348808920B92148C08A08B90020AC
:105DF000089000201D4908709DF8200000F01F0049
:105E0000D0B91B4890F8200000F0800040B118483D
:105E100090F8200020F08000154981F820000BE068
:105E20004FF6FF7012498881C882084690F820001A
:105E300000F0E00081F820000C480078F02802DD36
:105E40000A200A490870284602B0BDEC068B38BD0E
:105E50000004024000080240B402414200004142F6
:105E60004354502049443A25780D0A001800002078
:105E70001C000020E6A802087B14AE47E17AD43F5C
:105E8000D881734694F6D23F00000000000089409C
:105E9000002100BF14E000F080021AB10122FE4B85
:105EA0001A6002E00022FC4B1A604206100E00222B
:105EB000FA4B1A600122FA4BC3F880224A1CD1B275
:105EC0000829E8DB704770B506460025002400204D
:105ED000F2490860F349C1F8AC02F3490860304662
:105EE000FFF7D6FF062003F0F5FC0020EC49C1F8CF
:105EF0008002012003F0EEFC0120E849086003F075
:105F0000E9FC0020E649C1F8800200BF15E04FF629
:105F1000FF7000EA44040020E0490860012003F01B
:105F2000D9FC0120DE49C1F88002DC4878380068DD
:105F300008B1601C84B2681CC5B2102DE7DB2411C7
:105F40000120D9490860204670BD2DE9FE438046F6
:105F50000027002406E04046FFF7B5FF2DF81400A7
:105F6000601C84B2052CF6DB002416E0601C85B2B0
:105F70000FE03DF814003DF81510884207DD3DF8AC
:105F800014603DF815002DF814002DF81560681CFC
:105F900085B2052DEDDB601C84B2042CE6DB002706
:105FA000012405E03DF81400384487B2601C84B237
:105FB000042CF7DB032097FBF0F086B23046BDE8F7
:105FC000FE832DE9F04104460D46B8480078FFF7FE
:105FD000BCFF0646B6480078FFF7B7FF07462680A5
:105FE0002F800120BDE8F0817FB504460D4602A94F
:105FF00003A8FFF7E6FF064616B9002004B070BDFF
:10600000694601A8FFF7DDFF06460EB90020F5E757
:10601000BDF80400BDF80C10884206DCBDF80C1079
:10602000BDF80400323081420CDBBDF80C00BDF835
:106030000410884236DCBDF80410BDF80C00323084
:1060400081422FDABDF80000BDF80810884206DC56
:10605000BDF80810BDF80000323081420CDBBDF8FD
:106060000800BDF8001088421CDCBDF80010BDF827
:1060700008003230814215DABDF80C10BDF804205A
:10608000881800EBD071C1F34F012180BDF80810D2
:10609000BDF80020881800EBD071C1F34F012980B2
:1060A0000120ABE70020A9E770B504460D4616466F
:1060B0008048068004F10D018AB2193988B22B4656
:1060C0002946FEF7C7FF05F10D0083B2193881B2EA
:1060D00022462046FEF7BEFF6A1C91B2621C90B2B7
:1060E000FAF75AFF6A1C91B2621E90B2FAF754FF97
:1060F0006A1E91B2621C90B2FAF74EFF6A1E91B20C
:10610000621E90B2FAF748FF062229462046FFF7A2
:1061100017F870BD70B504460D46164665480680F2
:1061200029462046FAF738FF611C88B22946FAF75B
:1061300033FF681C81B22046FAF72EFF6A1C91B229
:10614000621C90B2FAF728FF70BD10B504465348A0
:106150007C380068002843D12CB15749A1F10A00CE
:10616000FFF742FF2AE05449A1F10A00FFF73CFF84
:1061700020B35148163890ED0B0A90ED091A80892A
:1061800000EE900AF8EE600A01EE200ABCEEC00AAA
:1061900010EE100A484916398881084690ED0C0A1D
:1061A00090ED0A1AC08A00EE900AF8EE600A01EE3D
:1061B000200ABCEEC00A10EE100AC8823E4816380B
:1061C00090F8200000F0800038BBC0203A49163912
:1061D00081F82000084681898182C18AC1831CE040
:1061E0003548163890F8200000F0800050B1324851
:1061F000163890F8200020F080002F49163981F8D9
:1062000020000AE000212C4816388182C1834FF615
:10621000FF70294916398881C8822748163890F8B6
:10622000200000F0800010BD10B52348163890ED16
:10623000090ADFED220A20EE200ABDEEC00A10EEA8
:10624000104A042221462820FFF79CF91A481638E4
:1062500090ED0A0ADFED190A20EE200ABDEEC00A11
:1062600010EE104A042221462C20FFF78BF9124829
:10627000163890ED0B0ABCEEC00A10EE101A02227E
:106280003020FFF77FF90C48163890ED0C0ABCEE71
:10629000C00A10EE101A13E0AC82424280824042E3
:1062A0000080404200804242B4024142540000203B
:1062B00055000020140000203200002020BCBE4CFD
:1062C00002223220FFF75EF9FE4890F834103420A5
:1062D000FFF730F90A2421463520FFF72BF910BDCE
:1062E00010B53520FFF7FAF804460A2C4ED10421E8
:1062F0002820FFF75CF9044600EE104AB8EEC00A09
:106300005FED120A80EE201AEE4880ED091A042192
:106310002C20FFF74CF9044600EE104AB8EEC00AF4
:106320005FED1A0A80EE201AE64880ED0A1A022173
:106330003020FFF73CF900EE100AB8EE400AE148C1
:1063400080ED0B0A02213220FFF731F900EE100A2E
:10635000B8EE400ADB4880ED0C0A3420FFF7BEF8A7
:10636000D84981F83400084690F8340030B19020C4
:10637000D5490870D020D549087005E0D020D24911
:1063800008709020D1490870012010BD0020FCE762
:106390002DE9FC5F04460D4617461E46DDE90EABAF
:1063A000DDE90C894FF47840C9490880C9A0102163
:1063B000CDE90010C84843880288A0212820FFF7B3
:1063C00056F8C6A01021CDE90010C34843880288C2
:1063D000A0217820FFF74BF8C1A01021CDE90010D3
:1063E000BD4843880288B4212820FFF740F8BDA0AB
:1063F0001021CDE90010B84843880288B4217820E4
:10640000FFF735F8B8A01021CDE90010B248438855
:106410000288C8212820FFF72AF8B4A01021CDE96E
:106420000010AD4843880288C8217820FFF71FF884
:10643000AFA01021CDE90010A74843880288DC21D5
:106440002820FFF714F8ABA01021CDE90010A248D6
:1064500043880288DC217820FFF709F8A6A01021E4
:10646000CDE900109C4843880288F0212820FEF7DF
:10647000FEFF102004232246A02100904020FEF7BA
:106480003EFF102004232A46A02100909020FEF712
:1064900036FF102004233A46B42100904020FEF736
:1064A0002EFF102004233246B42100909020FEF7E6
:1064B00026FF102004234246C82100904020FEF70A
:1064C0001EFF102004234A46C82100909020FEF7AA
:1064D00016FF102004235246DC2100904020FEF7D6
:1064E0000EFF102004235A46DC2100909020FEF776
:1064F00006FF102000907848018803236020109A3E
:10650000FEF7FDFEBDE8FC9F00B597B0002012909D
:106510000B9012901F216E4801804FF6FF70784952
:106520000880FBF724F84FF47841694801804FF662
:10653000FF70FBF71CF8002065490880714800686F
:1065400010216423A022CDE9001028210846FEF77F
:106550008EFF4FF4784214210846FFF7A5FD002175
:10656000584880F820109FED680A80ED090A54E22F
:10657000544840680A9001200A998847514890F889
:10658000200000F0C000402870D100200B904D4842
:1065900090F8200020F040004A4981F82000084689
:1065A000828913A9129821F820204648C18A13AA8B
:1065B000129802EB800041801298401CC0B21290E9
:1065C0001298012806D0022815D0032829D00428C3
:1065D00010D141E04FF6FF7214210846FFF764FD29
:1065E0003D480088143880B24FF4784214210A9054
:1065F000FFF75AFDE0E338480088143880B24FF6C0
:10660000FF7214210A90FFF74FFD33484088143879
:1066100080B24FF4784201460A901420FFF744FDFF
:10662000CAE32D484088143880B24FF6FF72014605
:106630000A901420FFF738FD27484088143880B2AC
:106640000A9025480088143880B24FF478420990A7
:106650000A99FFF729FDAFE3BDF84C10BDF85000D3
:10666000081A0A90002802DB0A9802E0A5E30A98BB
:1066700040420F90BDF84E1013A8C088081A0A9027
:10668000002801DB0A9801E00A9840420E900F981A
:1066900040430F900E9840430E90DDE90E100844E1
:1066A000059022F07FF9CDE906019DED060B21F062
:1066B0008FFD8DED080B9DED080B51EC100B22F0BA
:1066C0002DF923E01C00002054000020550000207C
:1066D0001400002078313A00280E002079313A0069
:1066E00078323A0079323A0078333A0079333A0016
:1066F00078343A0079343A006661632069733A006D
:1067000016000020580000200000000080B2119008
:10671000BDF85400BDF85810401A0A90002801DB5B
:106720000A9801E00A9840420F9013A84189C08955
:10673000081A0A90002801DB0A9801E00A984042F2
:106740000E900F9840430F900E9840430E90DDE955
:106750000E100844059022F025F9CDE906019DEDC3
:10676000060B21F035FD8DED080B9DED080B51EC6E
:10677000100B22F0D3F880B210909DED110AF8EEC4
:10678000400A9DED100AB8EE401A80EE810A8DEDA8
:106790000A0A0A9822F04CFCCDE90C019FEDFE0B91
:1067A00053EC102B9DED0C0B51EC100B22F00EF95D
:1067B0000ED39FEDFB0B53EC102B9DED0C0B51EC0E
:1067C000100B22F03DFA03D3119808B11098E8BBE2
:1067D00000201290F4484088143880B20A90F248A1
:1067E0000088143880B24FF6FF7209900A99FFF7BB
:1067F0005BFC4FF4784214210846FFF755FC9FEDEF
:10680000EB0B53EC102B9DED0C0B51EC100B22F00D
:1068100019F9CDE908019DED080B51EC100B22F0A0
:106820007DF880B213A90A90C989BDF8582013AB2E
:106830005B89CDE90132CDE90310BDF85400009029
:1068400013A8C0880990BDF8500000E00BE0089044
:10685000BDF84E000790BDF84C00069007A90EC980
:10686000FFF796FDB8E2BDF84C10BDF85400081AC9
:106870000A90002801DB0A9801E00A9840420F9034
:10688000BDF84E1013A84089081A0A90002801DBB1
:106890000A9801E00A9840420E900F9840430F90EA
:1068A0000E9840430E90DDE90E100844059022F04A
:1068B00079F8CDE906019DED060B21F089FC8DEDFF
:1068C000080B9DED080B51EC100B22F027F880B25D
:1068D0001190BDF85000BDF85810401A0A900028D9
:1068E00001DB0A9801E00A9840420F9013A8C18882
:1068F000C089081A0A90002801DB0A9801E00A986A
:1069000040420E900F9840430F900E9840430E90D7
:10691000DDE90E100844059022F044F8CDE90601A7
:106920009DED060B21F054FC8DED080B9DED080B41
:1069300051EC100B21F0F2FF80B210909DED110A86
:10694000F8EE400A9DED100AB8EE401A80EE810A7A
:106950008DED0A0A0A9822F06BFBCDE90C019FED40
:106960008E0B53EC102B9DED0C0B51EC100B22F009
:106970002DF80AD39FED8A0B53EC102B9DED0C0BD9
:1069800051EC100B22F05CF948D20020129086489E
:106990004088143880B20A9083480088143880B246
:1069A0004FF6FF7209900A99FFF77EFB4FF4784289
:1069B00014210846FFF778FB9FED7C0B53EC102B5E
:1069C0009DED0C0B51EC100B22F03CF8CDE90801C9
:1069D0009DED080B51EC100B21F0A0FF80B213A924
:1069E0000A90CA89BDF8581013AB5B89CDE9013113
:1069F000CDE90320BDF85400009013A8C088099089
:106A0000BDF850000890BDF84E000790BDF84C004E
:106A1000069007A90EC9FFF7BBFCDDE1BDF85000E9
:106A2000BDF85410401A0A90002801DB0A9801E0D2
:106A30000A9840420F9013A8C1884089081A0A900A
:106A4000002801DB0A9801E00A9840420E900F9856
:106A500040430F900E9840430E90DDE90E1008441D
:106A6000059021F09FFFCDE906019DED060B21F079
:106A7000AFFB8DED080B9DED080B51EC100B21F0D9
:106A80004DFF80B21190BDF84C00BDF85810401A6F
:106A90000A90002801DB0A9801E00A9840420F9012
:106AA000BDF84E1013A8C089081A0A90002801DB0F
:106AB0000A9801E00A9840420E900F9840430F90C8
:106AC0000E9840430E90DDE90E100844059021F029
:106AD00069FFCDE906019DED060B21F079FB8DEDF7
:106AE000080B9DED080B51EC100B21F017FF80B245
:106AF00010909DED110AF8EE400A9DED100AB8EED7
:106B0000401A80EE810A8DED0A0A0A9822F090FA66
:106B1000CDE90C019FED200B53EC102B9DED0C0BE0
:106B200051EC100B21F052FF0AD39FED1D0B53ECDB
:106B3000102B9DED0C0B51EC100B22F081F858D26C
:106B40000020129018484088143880B20A901648E5
:106B50000088143880B24FF6FF7209900A99FFF747
:106B6000A3FA4FF4784214210846FFF79DFA9FEDEF
:106B70000F0B53EC102B9DED0C0B51EC100B21F077
:106B800061FFCDE908019DED080B51EC100B21F0E0
:106B9000C5FE80B202460DE0666666666666EE3F3A
:106BA000CDCCCCCCCCCCF03F280E00200000000097
:106BB000000059400A9013A8C089BDF8581013ABC3
:106BC0005B89CDE90131CDE90302BDF854000090A5
:106BD00013A8C0880990BDF850000890BDF84E0079
:106BE0000790BDF84C00069007A90EC9FFF7D0FB2F
:106BF000F2E0BDF85000BDF84C10401A00EE100A4B
:106C0000F8EEC00ABF480088283800EE100AB8EE37
:106C1000C00A80EE201ABC4880ED091ABDF8500069
:106C2000BDF84C10084400EE100AF8EEC00AB54852
:106C3000008800EE100AB8EE400AB34890ED091A39
:106C400001EE600AF0EE000A80EE201A80ED0B1AC9
:106C500013A84089BDF84E10401A00EE100AF8EE55
:106C6000C00AA8484088283800EE100AB8EEC00ACA
:106C700080EE201AA44880ED0A1A13A84089BDF8B6
:106C80004E10084400EE100AF8EEC00A9D484088F5
:106C900000EE100AB8EE400A9B4890ED0A1A01EE89
:106CA000600AF0EE000A80EE201A80ED0C1A90EDDA
:106CB000090ABDEEC00A8DED090A0998002801DB1A
:106CC000099801E00998404202280FDC8E4890EDB7
:106CD0000A0ABDEEC00A8DED0A0A0A98002801DBF7
:106CE0000A9801E00A984042022842DD00201290F2
:106CF00084484088143880B20A908248008814384A
:106D000080B24FF6FF7209900A99FFF7CDF94FF460
:106D1000784214210846FFF7C7F97CA01021CDE97D
:106D20000010784840880A9076480088099002460A
:106D30001A2128200A9BFEF79AFB734890F834002A
:106D400008B9012000E000206F4981F834000846AE
:106D500090F8340030B1902071490870D02071490A
:106D6000087005E0D0206E49087090206D490870C9
:106D700032E01F216C4801804FF6FF70FAF7F7FBF5
:106D80006AA01021CDE900105E4840880A905D4855
:106D90000088099002466E2123200A9BFEF767FBBC
:106DA0004FF47A7002F0CEFDFFF73EFA4FF6FF7017
:106DB000FAF7DDFB17B000BD00BF0A2002F0C2FDEC
:106DC0000B98401C80B20B900B98B0F57A7F02DDD7
:106DD000FFF786FA02E000BFFFF7CABB00BF00BFA3
:106DE000E8E71CB54748808845F21051884220D119
:106DF00000F0BEF918B953484349486004E0FEF773
:106E0000F0FE5148404948603F4890F8340040F057
:106E100080003D4981F83400084690F83400394933
:106E2000897901F001010843374981F834000020D5
:106E30001CBD3448808841F66311884218D100F0A7
:106E400084FB424830494860084690F8340040F0DE
:106E5000800081F83400084690F834002949897987
:106E600001F001010843284981F834000020DFE7E0
:106E70000121262001F044FB0620009000208DF81F
:106E8000040001208DF807006946314801F09AF8A6
:106E90004FF40060009001208DF8040003208DF86D
:106EA000050000208DF8060001208DF807006946D6
:106EB000284801F087F8012000906946244801F035
:106EC00081F84FF4005000906946234801F07AF8A9
:106ED0000D491631A1F10A00FFF773F8FEF7FAFA2F
:106EE000FFF7FEF908B10020A2E71C480088FAF776
:106EF0003EFBFFF709FBFFF797F9FFF7F1F900BF3A
:106F0000012095E7280E00201C0000205450204E40
:106F100065656420726561646A75737421000000A0
:106F2000540000205500002014000020546F7563A9
:106F3000682053637265656E2041646A75737420BE
:106F40004F4B210067720008735C00081776000839
:106F50000004024000140240000802401600002015
:106F60007FB504460D460121022001F012FBADF869
:106F700004500020ADF806000294ADF80C0001A901
:106F8000334801F0BEFC01221146314802F05AF9A3
:106F900001212F4801F03EFD1D208DF80000012049
:106FA0008DF8010003208DF8020001208DF8030008
:106FB000684600F032FC7FBD10B50121244802F084
:106FC00058F9012804D123480068401C2149086071
:106FD00001211F4802F05EF910BD7FB504460D4641
:106FE0000121042001F0D5FAADF804500020ADF8DD
:106FF00006000294ADF80C0001A9174801F081FCCD
:1070000001221146144802F01DF90121124801F035
:1070100001FD1E208DF8000002208DF801000320E4
:107020008DF8020001208DF80300684600F0F5FBA2
:107030007FBD10B50121084802F01BF9012801D1DC
:107040000CF084FF0121044802F024F910BD000077
:1070500000040040A0000020000800402DE9F0419D
:1070600004460E4617464FF00008FEF748FC28205D
:10707000FEF7E8FCFEF77EFC2012FEF7E3FCFEF7CD
:1070800079FCE0B2FEF7DEFCFEF774FC00250BE0B5
:10709000705DFEF7D7FCFEF76DFC8046B8F1000F7F
:1070A00000D003E0681CC5B2BD42F1DB00BFFEF7B3
:1070B00045FC4046BDE8F08138B505460024002077
:1070C0008DF800008DF8015000BF09E09DF8000028
:1070D000E049095D0844C0B28DF80000601CC4B2EC
:1070E000B82CF3D39DF80000C043401CC0B28DF80B
:1070F0000000B822D74948F24700FFF7AFFF02224D
:10710000694648F2FF00FFF7A9FF002038BD2DE9CE
:10711000F04105460F461646FEF7F1FB2820FEF724
:1071200091FCFEF727FC2812FEF78CFCFEF722FCF0
:10713000E8B2FEF787FCFEF71DFCFEF7E0FB292016
:10714000FEF780FCFEF716FC00240BE0711EA14246
:1071500001D0012100E000210846FEF79CFC3855D3
:10716000601CC4B2B442F1DBFEF7E8FBBDE8F0817D
:107170001FB50121062001F0C3F902200090002074
:107180008DF804008DF8060003208DF8050001201D
:107190008DF807006946B04800F014FF4FF4005026
:1071A000009001208DF804006946AC4800F00AFF09
:1071B000FEF781FB0020AA4908600A2002F0C2FB0A
:1071C0000120A849C1F8B4020A2002F0BBFB02204A
:1071D000009000208DF804008DF8070069469E4855
:1071E00000F0F0FE642002F0ADFB042202A948F298
:1071F0004010FFF78CFF00208DF80C0002A99AA028
:1072000007F092FA9BA102A807F018FD48BB0220E4
:107210008DF80800012202A948F24000FFF71EFF86
:10722000012202A948F24700FFF771FF9DF808000C
:10723000602807DA9DF8081090A007F075FA012081
:10724000FFF73AFF0A2002F07DFB00208DF80800CE
:10725000012202A948F24000FFF700FF002004B01D
:1072600010BD0120FBE771B583B0002400268848DB
:107270000078401C86490870084600780A2190FB77
:10728000F1F201FB120018B1814800780A287CDA7B
:10729000012203A948F24E10FFF739FF9DF80C00B8
:1072A00000F0800068B19DF80C0000F00F00062887
:1072B00007DA00200190012201A948F24E10FFF7E1
:1072C000CDFE9DF80C0000F00F0000285DD09DF869
:1072D0000C0000F00F000628D9DA9DF80C0000F031
:1072E0000F01FF208840C0B201906A4890F82050FA
:1072F0009DF80400C043C0B240F0C000654981F869
:107300002000084681898182C18AC183002446E029
:10731000604890F820000121A140084020B35E4958
:1073200031F81400042202A9FFF7F1FE594890F841
:10733000340000F00100C0B19DF808009DF809106C
:1073400000EB012081B25348163020F814109DF84C
:107350000A009DF80B1000EB0120C0F5487081B2C7
:107360004C480C3020F8141017E09DF808009DF8E8
:10737000091000EB012081B246480C3020F81410AF
:107380009DF80A009DF80B1000E038E000EB0120AA
:1073900081B24048163020F81410601CC4B2052C8D
:1073A000B6DB01263B4880893C490988884205DCD8
:1073B0003848C08A3949498888421DDD9DF80C004B
:1073C00000F00F0001280ADD3248C0893149888168
:1073D0000846008BC88200202D4908700FE02D4818
:1073E000808A2C4988810846C08BC88280200390FF
:1073F000084680F8205002E00020254908709DF8DA
:107400000C0000F08F0080281AD1224890F820004C
:1074100000F0800040B11F4890F8200020F080006C
:107420001C4981F820000BE04FF6FF701949888154
:10743000C882084690F8200000F0E00081F82000A3
:1074400013480078F02802DD0A2011490870304600
:1074500004B070BDF0A80208000402400008024019
:10746000B4024142000041424354502049443A256D
:10747000730D0A003931343700000000446566613D
:10748000756C74205665723A25640D0A0000000080
:107490005C0000201C000020A8A90208280E002083
:1074A0002DE9F04105460E4617464FF00008FEF75D
:1074B00026FA7020FEF7C6FAFEF75CFAE8B2FEF78D
:1074C000C1FAFEF757FA00240BE0305DFEF7BAFA76
:1074D000FEF750FA8046B8F1000F00D003E0601CC0
:1074E000C4B2BC42F1DB00BFFEF728FA4046BDE85B
:1074F000F0812DE9F04106460F461546FEF7FFF9EB
:107500007020FEF79FFAFEF735FAF0B2FEF79AFA0E
:10751000FEF730FAFEF7F3F97120FEF793FAFEF763
:1075200029FA00240BE0691EA14201D0012100E0EC
:1075300000210846FEF7AFFA3855601CC4B2AC42D1
:10754000F1DBFEF7FBF9BDE8F0810EB50121062065
:1075500000F0D6FF0220009000208DF804000120EA
:107560008DF807006946904800F02CFD4FF400505C
:10757000009001208DF8040003208DF80500002004
:107580008DF806006946894800F01CFDFEF793F966
:10759000002087490860142002F0D4F901208549B1
:1075A000C1F8B402322002F0CDF900208DF80800B5
:1075B000012202A9FFF774FF012202A9A420FFF70C
:1075C0006FFF16208DF80800012202A98020FFF726
:1075D00067FF0C208DF80800012202A98820FFF720
:1075E0005FFF022202A9A120FFF783FF9DF8080098
:1075F00030280ED19DF8090003280AD19DF8090012
:107600009DF8082000EB02216BA007F08DF8002008
:107610000EBD0120FCE771B581B000240026694849
:107620000078401C67490870084600780A2190FBE2
:10763000F1F201FB120018B1624800780A2866DAFC
:10764000012201A90220FFF754FF9DF8040000F079
:107650000F0000287ED09DF8040000F00F000628DF
:1076600078DA9DF8040000F00F01FF208840C5B2D1
:10767000E843C0B240F0C000534981F82000002424
:107680005AE0514890F820000121A1400840E8B399
:107690004E4931F8140004226946FFF72AFF4A4890
:1076A00090F8340000F00100C0B19DF801009DF891
:1076B000001001F00F0100EB01204349163121F8C1
:1076C00014009DF803009DF8021001F00F0100EB7B
:1076D00001213D480C3020F814101DE09DF80100F8
:1076E0009DF8001001F00F0100EB0120C0F5F070D3
:1076F00081B235480C3020F814109DF803009DF835
:10770000021001F00F0100EB012101E012E021E085
:107710002D48163020F814109DF8000000F0F000FD
:10772000802807D000212848163020F814100A3885
:1077300020F81410601CC4B2052CA2DB01262248DC
:10774000808920B92048C08A08B900200190002013
:107750001C4908709DF8040000F01F00D0B91A48B9
:1077600090F8200000F0800040B1174890F8200009
:1077700020F08000144981F820000BE04FF6FF70E4
:1077800011498881C882084690F8200000F0E00086
:1077900081F820000B480078F02802DD0A20094912
:1077A000087030467CBD0000000402400008024022
:1077B000B4024142000041424354502049443A251A
:1077C000780D0A005D0000201C000020B2A902080C
:1077D0000948804709480047FEE7FEE7FEE7FEE765
:1077E000FEE7FEE7FEE7FEE7FEE7FEE704480549A1
:1077F000054A064B7047000015040008890100087F
:1078000028E8012028EE012028EA012028EA0120AA
:1078100032490143324A1160704770B5002100239C
:107820000F22C4781CB32E4C246804F4E064C4F521
:10783000E064C4F30721C1F10404E3B20A414478CF
:107840009C40E1B28478144021430C07210E254C62
:1078500005786155047804F01F050124AC400578D3
:107860006D11AD0005F1E025C5F8004109E004788F
:1078700004F01F050124AC401B4D0678761145F835
:10788000264070BD194A0A400243154B1B1F1A605F
:10789000704739B1124A121D12680243104B1B1D6A
:1078A0001A6006E00E4A121D126882430C4B1B1D23
:1078B0001A607047042808D14FF0E021096941F0AF
:1078C00004014FF0E022116107E04FF0E021096967
:1078D00021F004014FF0E022116170470000FA0529
:1078E0000CED00E000E400E080E100E080FFFF1F1D
:1078F00030B943F2DB028100A1F1C0410A6005E02A
:1079000043F2D2028100A1F1C0410A606FF07042DF
:10791000411C8900A1F1C0410A608100A1F1C04170
:10792000C1F804217047D0E901121143C268114324
:10793000026911434269114382691143C2691143CB
:10794000026A1143426A1143826A1143C26A1143B7
:10795000026B114302689200A2F1C042116081687B
:1079600008290BD101688900A1F1C041096841F0E3
:10797000400201688900A1F1C0410A60416B0968B9
:10798000426B526841EA0211426B926841EA02215D
:10799000426B928941EA0241426B128A41EA0251EA
:1079A000426B127D41EA0261426B926911430268A7
:1079B000521C9200A2F1C0421160C16AB1F5804F21
:1079C0001BD1816B0968826B526841EA0211826B9C
:1079D000926841EA0221826B128A41EA0251826B6B
:1079E000127D41EA0261826B926911430268920042
:1079F000A2F1C042C2F8041107E06FF070420168C2
:107A00008900A1F1C041C1F8042170470021016043
:107A10000221416000218160C16001614161816199
:107A2000C16101624FF480514162490081620021CD
:107A3000C1620163F84941638163704751B18200BB
:107A4000A2F1C042126842F001038200A2F1C042DA
:107A5000136009E08200A2F1C0421268EF4B1A40A5
:107A60008300A3F1C0431A60704710280AD118217F
:107A70004FF020421166402151664FF0FC31916673
:107A8000D16610E01821E64A116040214FF02042F3
:107A9000C2F884104FF0FC31E14A083211604FF017
:107AA0002042C2F88C10704730B50021002200231C
:107AB000446844F0080485682C43C5682C43056974
:107AC0002C43456944EA4524856944EA4531C46943
:107AD0002468C5696D6844EA0524C5692D8944EAAE
:107AE0000544C5692D7B44EA0562046A2468056A79
:107AF0006D6844EA0524056A2D8944EA0544056A4F
:107B00002D7B44EA05630468102C05D14FF0204416
:107B10002166A266E36608E0C14C21604FF0204474
:107B2000C4F88820BE4C0C34236030BD10210160A5
:107B3000002141608160C160016141618161FC217E
:107B4000C2691160C2695160C2699160C269D16045
:107B5000026A1160026A5160026A9160026AD16031
:107B6000704799B1102808D14FF02042126E42F0B0
:107B700004024FF020431A661DE0A94A126842F041
:107B800004024FF02043C3F8802014E0102809D1EC
:107B90004FF02042126EA14BDB1E1A404FF02043E3
:107BA0001A6608E09E4A12689C4BDB1E1A404FF092
:107BB0002043C3F88020704799B1102808D14FF0B6
:107BC0002042126E42F040024FF020431A661DE040
:107BD000934A126842F040024FF02043C3F88020DD
:107BE00014E0102809D14FF02042126E8B4B3F3B1E
:107BF0001A404FF020431A6608E0894A1268874B02
:107C00003F3B1A404FF02043C3F8802070470146A5
:107C10000020102903D14FF02042506F02E0804A2B
:107C200014321068704718207D4920310860002008
:107C30000906C1F8A4004FF0FC30794928310860EA
:107C4000091D0860091D08607047016841F01001B6
:107C5000426841EA4221826841EA4231704A203258
:107C60001160C1680968C268526841EA0221C268AD
:107C7000128941EA0241C268127B41EA0261684A04
:107C800028321160016909680269526841EA0221DB
:107C90000269128941EA02410269127B41EA0261EA
:107CA0005F4A2C321160416909684269526841EAB1
:107CB00002214269128941EA02414269127B41EA8A
:107CC00002614FF02042C2F8B010704700210160FD
:107CD00041608160FC21C2681160C2685160C26865
:107CE0009160C268D16002691160026951600269E5
:107CF00091600269D16042691160426951604269D4
:107D000091604269D160704748B1454920310968A6
:107D100041F004014FF02042C2F8A01009E04049B0
:107D2000203109683D4AD21E11404FF02042C2F86E
:107D3000A010704710B5F2B1102807D14FF02043C2
:107D40005B6E0B434FF02044636632E0B0F5807FFA
:107D500008D1334B1B1D1B680B434FF02044C4F864
:107D6000843026E02E4B24331B680B434FF0204415
:107D7000C4F8A4301DE0102807D14FF020435B6EFB
:107D80008B434FF02044636613E0B0F5807F08D149
:107D9000234B1B1D1B688B434FF02044C4F88430D9
:107DA00007E01F4B24331B688B434FF02044C4F87B
:107DB000A43010BD10B5024600200023102A03D1C4
:107DC0004FF02044636E09E0B2F5807F03D1144C7C
:107DD000241D236802E0124C2434236803EA0104C2
:107DE0000CB1012000E0002010BD102807D14FF099
:107DF0002042526E8A434FF020435A6619E0B0F594
:107E0000807F0FD1064A121D12688A434FF020432B
:107E1000C3F884200DE00000BCA90208FEFF0F009B
:107E2000800000A0234A12688A434FF02043C3F821
:107E3000A420704770B502460020002300240025CE
:107E4000102A03D14FF02046736E08E0B2F5807F10
:107E500003D1184E203E336801E0164E336803EA22
:107E6000010403EAD10514B10DB1012000E00020A6
:107E700070BD102808D14FF02042526E22EAD10284
:107E80004FF020435A6614E0B0F5807F09D1094ACB
:107E9000203A126822EAD1024FF02043C3F884202E
:107EA00007E0044A126822EAD1024FF02043C3F8E7
:107EB000A4207047A40000A010B50446984884424E
:107EC00008D10121084600F086FB0021012000F0C6
:107ED00082FB76E09348844208D10121022000F021
:107EE0007AFB0021022000F076FB6AE08E48844293
:107EF00008D10121042000F06EFB0021042000F0D5
:107F00006AFB5EE08948844208D10121082000F024
:107F100062FB0021082000F05EFB52E084488442AE
:107F200008D10121102000F056FB0021102000F0A4
:107F300052FB46E07F48844208D10121202000F016
:107F40004AFB0021202000F046FB3AE07A488442B8
:107F500008D10121402000F03EFB0021402000F02C
:107F60003AFB2EE07548844208D10121802000F0C0
:107F700032FB0021802000F02EFB22E0704884427A
:107F800008D10121801500F026FB0021A01500F08A
:107F900022FB16E06B48844208D10121401500F015
:107FA0001AFB0021601500F016FB0AE066488442C7
:107FB00007D10121001500F00EFB0021201500F073
:107FC0000AFB10BDF0B50A4600210023002400BFC3
:107FD0003DE0012505FA01F3156805EA03049C421A
:107FE00034D105684F000326BE40B54305601579BE
:107FF0004E00B5400668354305601579012D02D065
:108000001579022D16D185684F000326BE40B54371
:10801000856055794E00B540866835438560456872
:1080200001268E40B5434560456896798E40B6B2CC
:1080300035434560C5684F000326BE40B543C56063
:10804000D5794E00B540C6683543C560491C102936
:10805000BFD3F0BD4FF6FF71016000210171417186
:108060008171C171704708B54FF480320092009A57
:108070000A430092009AC261C161009AC261C2695A
:108080000092C269009208BD0246002013690B40AD
:108090000BB1012000E0002070470146086980B262
:1080A00070470246002053690B400BB1012000E0ED
:1080B000002070470146486980B2704701837047CD
:1080C000418370470AB1018300E0418370474161F9
:1080D000704742694A4042617047F0B5002300246E
:1080E0004D07ED0E02FA05F3CE1000F1200555F80C
:1080F00026504E07F70E0F26BE40B543CF1000F1B5
:10810000200646F82750CE1000F1200555F82650DD
:1081100045EA0304CE1000F1200545F82640F0BDE5
:10812000000002400004024000080240000C02402F
:10813000001002400014024000180240001C0240DF
:10814000002002400024024000280240F948006854
:1081500040F00100F74908600020F6490831086046
:10816000F4480068F4490840F2490860F348091DE2
:108170000860F348EF4984310860F0481038091D61
:108180000860EC48006820F48020EA49086000207C
:10819000E8490C310860E7498C31086070470021DC
:1081A000E44A921C117011460870704710B50146E0
:1081B0000022002300204A11012A02D1DD4C23684D
:1081C00008E0022A03D1DB4C7034236802E0D94C6A
:1081D0007434236801F01F02012494401C400CB148
:1081E000012000E0002010BD38B5002000900024E0
:1081F000002500BF3120FFF7D9FF05460098401C3D
:1082000000900098B0F5A04F01D0002DF2D03120A1
:10821000FFF7CCFF08B1012400E00024204638BD60
:1082200001460020C34A106820F0F80040EAC1006F
:1082300010607047C349086070470021BD4A703222
:1082400011701170012802D004280AD104E0012124
:10825000B84A7032117005E00521B64A70321170CB
:1082600000E000BF00BF7047B7490860704770B5B5
:10827000049C41EA82150126C6EB530645EA0645F1
:10828000054345EA0465AB4E361D356070BDAD490A
:1082900008667047820142EA0172A64B84331A6075
:1082A0007047A8498866704710B5830143EA0163A7
:1082B00043EA02739F4C8834236010BDA1490867CC
:1082C0007047A049C864704702460020994B0833A4
:1082D000186820F0EC6042EA01031843954B08331C
:1082E0001860704702460020924B0833186820F04F
:1082F000784042EA010318438E4B083318607047F8
:10830000014600208B4A0832106820F00300084321
:108310001060704787480830006800F00C00704714
:1083200001460020834A0832106820F0F00008431C
:1083300010607047014600207E4A0832106820F421
:10834000E05008431060704701460020794A083227
:10835000106820F4604040EAC10010607047F0B53A
:10836000002100220024022500260223714F083735
:108370003F6807F00C0121B1042905D0082937D145
:1083800005E0724F076036E0714F076033E0694FD8
:108390003F1D3F68C7F38056664F3F1D3F6807F09B
:1083A0003F036EB16A4FB7FBF3F7DFF888C10CF1FA
:1083B000040CDCF800C0CCF3881C07FB0CF40CE0C8
:1083C000624FB7FBF3F7DFF86CC10CF1040CDCF87B
:1083D00000C0CCF3881C07FB0CF4564F3F1D3F68D0
:1083E000C7F301477F1C7D00B4FBF5F7076002E08F
:1083F000564F076000BF00BF4E4F08373F6807F079
:10840000F0010909534F7A5C0768D7404760494F2C
:1084100008373F6807F4E051890A4E4F7A5C476895
:10842000D7408760434F08373F6807F46041490BE6
:10843000484F7A5C4768D740C760F0BD002100F420
:108440004072B2F5407F0AD13A4A0832116821F4ED
:10845000F811414A02401143364A08321160354A48
:1084600070321268C0F30B031A43324B70331A6038
:1084700070473549443908607047334940390860CE
:10848000704736490860704701460020294A8C32FF
:10849000106820F01F004A1E1043264A8C321060DC
:1084A000704701460020234A8C32106820F4F850AF
:1084B0004A1E40EA02201F4A8C3210607047014673
:1084C00000201C4A8C32106820F4401008431060D1
:1084D000704701460020174A8C32106820F4400093
:1084E00008431060704701460020124A8C32106821
:1084F00020F4403008431060704719490860704705
:1085000039B10C4A3032126802430A4B30331A60D8
:1085100006E0084A303212688243064B30331A6054
:108520007047F9B1034A343212680243014B3433C5
:108530001A601CE000380240FFFFF6EA1030002409
:108540000030002000004742800E47420024F40023
:1085500000127A005E000020FFFCFF0F5C01474222
:10856000E01147428F4A126882438E4B1A6070476F
:1085700039B18C4A121D126802438A4B1B1D1A60C6
:1085800006E0884A121D12688243864B1B1D1A6042
:10859000704739B1834A0C3212680243814B0C3365
:1085A0001A6006E07F4A0C32126882437D4B0C331E
:1085B0001A60704739B17B4A103212680243794B16
:1085C00010331A6006E0774A103212688243754B06
:1085D00010331A60704739B1724A243A1268024364
:1085E000704B243B1A6006E06E4A243A12688243BC
:1085F0006C4B243B1A60704739B16A4A203A1268C2
:108600000243684B203B1A6006E0664A203A126833
:108610008243644B203B1A60704739B1614A1C3A6F
:10862000126802435F4B1C3B1A6006E05D4A1C3A2D
:10863000126882435B4B1C3B1A60704739B1594A40
:10864000143A12680243574B143B1A6006E0554A2D
:10865000143A12688243534B143B1A60704739B185
:10866000504A103A126802434E4B103B1A6006E023
:108670004C4A103A126882434A4B103B1A607047CA
:1086800039B1484A1C3212680243464B1C331A6007
:1086900006E0444A1C3212688243424B1C331A6083
:1086A000704739B13F4A2032126802433D4B2033B4
:1086B0001A6006E03B4A203212688243394B20336D
:1086C0001A60704739B1374A243212680243354B79
:1086D00024331A6006E0334A243212688243314B55
:1086E00024331A60704739B12E4A2C321268024383
:1086F0002C4B2C331A6006E02A4A2C321268824333
:10870000284B2C331A60704739B1264A3032126830
:108710000243244B30331A6006E0224A303212689A
:108720008243204B30331A607047012808D11D491D
:108730003C31096841F008011A4A3C32116007E0F7
:1087400018493C31096821F00801164A3C32116091
:10875000704739B1134A273A12780243114B273B2D
:108760001A7006E00F4A273A127882430D4B273BD6
:108770001A7070470B484030006840F0807009491B
:1087800040310860704701460020064A283A1268C6
:108790000A400AB1012000E0002070470149263953
:1087A000087070473438024010B50446FE488442D1
:1087B00008D101210846FFF752FF00210120FFF7F1
:1087C0004EFF9DE0B4F1804F08D101210846FFF72C
:1087D00035FF00210120FFF731FF91E0F34884428B
:1087E00008D101210220FFF729FF00210220FFF715
:1087F00025FF85E0EE48844208D101210420FFF7DF
:108800001DFF00210420FFF719FF79E0E9488442A9
:1088100008D101210820FFF711FF00210820FFF7F0
:108820000DFF6DE0E448844208D101211020FFF7DC
:1088300005FF00211020FFF701FF61E0DF488442BF
:1088400008D101212020FFF7F9FE00212020FFF7A9
:10885000F5FE55E0DA48844208D101210220FFF7F5
:10886000FEFE00210220FFF7FAFE49E0D5488442CF
:1088700009D101210804FFF7F2FE00214FF48030F6
:10888000FFF7EDFE3CE0D048844209D101214804C5
:10889000FFF7E5FE00214FF40030FFF7E0FE2FE088
:1088A000CA48844209D101218804FFF7D8FE00217B
:1088B0004FF48020FFF7D3FE22E0C548844208D160
:1088C00001214020FFF7BAFE00214020FFF7B6FE4D
:1088D00016E0C048844208D101218020FFF7AEFE97
:1088E00000218020FFF7AAFE0AE0BB48844207D19E
:1088F00001218015FFF7A2FE0021A015FFF79EFEC3
:1089000010BD00220288A84B98420ED0AC4B984272
:108910000BD0B0F1804F08D0A44B984205D0A44BA7
:10892000984202D0A34B984204D14FF68F731A405D
:108930004B881A43A04B984207D0A04B984204D0D2
:108940004FF6FF431A400B891A4302804B68C362FB
:108950000B880385944B984202D0994B984201D1E1
:108960008B7A03860123838270474FF0FF31416089
:1089700000210180018141808172704701858282DE
:1089800070470A46002101884FF68F731940114342
:108990000180704741627047C16270470146486A72
:1089A00070470146088D704721B1028842F00202EB
:1089B000028004E002884FF6FD731A40028070477F
:1089C00021B1028842F00402028004E002884FF6DE
:1089D000FB731A400280704721B1028842F0800286
:1089E000028004E002884FF67F731A4002807047CD
:1089F00002884FF6F7731A40028002880A43028009
:108A0000704702884FF6FF431A40028002880A43EB
:108A10000280704721B1028842F00102028004E026
:108A200002884FF6FE731A400280704770B500242A
:108A300000220023058C4FF6FE7635400584028C1B
:108A40008388048B4FF68F752C40B51E2C400D8803
:108A50002C43751E2A408D892A434D882A43524D46
:108A6000A84202D0564DA84213D14FF6F7752A40BE
:108A7000CD892A434FF6FB752A408D882A434FF64D
:108A8000FF652B404FF6FF552B400D8A2B434D8A37
:108A90002B43838004838D684563028470BD70B569
:108AA000002400220023058C4FF6EF763540058424
:108AB000028C8388048B48F6FF752C404FF6FF45E7
:108AC0002C400D884FF6FF7606EA05252C434FF61D
:108AD000DF752A408D8906EA05152A434D8806EA86
:108AE00005152A43304DA84202D0354DA8421DD16C
:108AF0004FF67F752A40CD894FF6FF7606EA0515B9
:108B00002A434FF6BF752A408D8806EA05152A4389
:108B10004FF6FF352B404FF2FF752B400D8A06EACA
:108B200085052B434D8A06EA85052B438380048304
:108B30008D688563028470BD70B500240022002317
:108B4000058C4FF6FF6635400584028C8388848B44
:108B50004FF68F752C404FF6FC752C400D882C433A
:108B60004FF6FF552A408D894FF6FF7606EA052518
:108B70002A434D8806EA05252A430B4DA84202D018
:108B80000F4DA84238D14FF2FF752A40CD894FF6DC
:108B9000FF7606EA05252A434FF6FF352A408D88E1
:108BA00006EA05252A4319E00000014000040040C0
:108BB00000080040000C004000100040001400407D
:108BC00000040140004001400044014000480140D1
:108BD00000180040001C0040002000404EF6FF75C9
:108BE0002B404DF6FF752B400D8A06EA05152B43E9
:108BF0004D8A06EA05152B43838084838D68C563FF
:108C0000028470BD70B5002200230024058C4EF64E
:108C1000FF7635400584038C8488828B48F6FF7587
:108C20002A404FF6FF452A400D884FF6FF7606EAA8
:108C300005252A434DF6FF752B408D8906EA05353B
:108C40002B434D8806EA05352B43FE4DA84202D042
:108C5000FD4DA84208D14BF6FF752C400D8A4FF60A
:108C6000FF7606EA85152C43848082838D6805642F
:108C7000038470BD002101804180818081608181F9
:108C8000C18101824182704770B5034600200024F3
:108C90001846183001258D40ACB21D8CA5431D84AB
:108CA00009B108290AD100EB610005684FF68F76FB
:108CB000354005600568154305600FE00D1FC5F3DD
:108CC0004E052844056848F6FF763540056005687E
:108CD0004FF6FF7606EA02263543056070BD416314
:108CE000704781637047C1637047016470470A46EB
:108CF0000021018B4FF68F73194011430183704798
:108D00000A460021018B48F6FF7319404FF6FF73A6
:108D100003EA02231943018370470A460021818B2D
:108D20004FF68F7319401143818370470A46002123
:108D3000818B48F6FF7319404FF6FF7303EA022355
:108D40001943818370470A460021018B4FF6F77360
:108D500019401143018370470A460021018B4FF2ED
:108D6000FF7319404FF6FF7303EA0223194301838F
:108D700070470A460021818B4FF6F7731940114363
:108D8000818370470A460021818B4FF2FF7319409F
:108D90004FF6FF7303EA02231943818370470A46A3
:108DA0000021018B4FF6FB7319401143018370477B
:108DB0000A460021018B4FF6FF3319404FF6FF732F
:108DC00003EA02231943018370470A460021818B7D
:108DD0004FF6FB7319401143818370470A46002107
:108DE000818B4FF6FF3319404FF6FF7303EA0223DE
:108DF0001943818370470A460021018B4FF67F7328
:108E000019401143018370470A460021018BC1F3C9
:108E10000E014FF6FF7303EA0223194301837047E3
:108E20000A460021818B4FF67F73194011438183DD
:108E300070470A460021818BC1F30E014FF6FF7384
:108E400003EA02231943818370470A460021018CFB
:108E50004FF6FD7319401143018470470A46002103
:108E6000018C4FF6F77319401143018470470A468D
:108E70000021018C4FF6DF7319404FF6FF7303EAB0
:108E800002131943018470470A460021018C4FF6F2
:108E90007F7319404FF6FF7303EA021319430184ED
:108EA00070470A460021018C4FF6FF5319404FF6D8
:108EB000FF7303EA02231943018470470A46002125
:108EC000018C4FF2FF7319404FF6FF7303EA022340
:108ED0001943018470470A460021018C4DF6FF7347
:108EE00019404FF6FF7303EA0233194301847047B8
:108EF00030B5002301248C40A3B2048C9C4304842D
:108F0000048C02FA01F5ADB22C43048430BD30B5B7
:108F1000002304248C40A3B2048C9C430484048C5E
:108F200002FA01F5ADB22C43048430BD828B4FF2BE
:108F3000FF331A408283828B4FF6FF7303EA0123CB
:108F40001A4382837047F0B50C4615460021002273
:108F50000026078C4EF6FF7C07EA0C070784818BFE
:108F6000028C4FF6FF7707EA043640F6FF47394098
:108F70004FF6FF7707EA052739434FF6FF7707EAF1
:108F80000337394345F6FF773A4046F480573A4372
:108F900081830284F0BD828B4FF6F3731A40828383
:108FA000828B0A4382837047F0B50C461546002138
:108FB00000220026078C4FF6FF6C07EA0C07078497
:108FC000818B028C4FF6FF7707EA04264FF60C7769
:108FD00039404FF6FF7707EA03172F4339434FF223
:108FE000FF573A4046F480773A4381830284F0BDCC
:108FF000028B4FF2FF331A400283028B4FF6FF734E
:1090000003EA01231A4302837047F0B50C46154664
:10901000002100220026078C4FF6EF7C07EA0C07A0
:109020000784018B028C4FF6FF7707EA041640F69F
:10903000FF4739404FF6FF7707EA033739434FF6CA
:10904000FF7703E0000001400004014007EA052724
:1090500039434FF65F773A4046F010073A430183B1
:109060000284F0BD028B4FF6F3731A400283028B29
:109070000A4302837047F0B50C46154600210022D2
:10908000068C4FF6FE773E400684018B028C4FF62D
:109090000C7631407E1C06EA03162E4331434FF610
:1090A000F576324044F00106324301830284F0BD7C
:1090B00070B505460C46208850B92389A28861887E
:1090C0002846FFF7D8FFE1882846FFF7CBFF25E0C9
:1090D000208804280AD12389A28861882846FFF7BE
:1090E00094FFE1882846FFF783FF17E020880828CF
:1090F0000AD12389A28861882846FFF755FFE188B5
:109100002846FFF748FF09E02389A288618828469E
:10911000FFF719FFE1882846FFF708FF70BD00211F
:1091200001804180012181800021C180018170473F
:109130002DE9F04105460C4600260127608808B954
:10914000022600E00026A088012801D1022700E0C5
:1091500001272088A0B92389A28861882846FFF7C3
:109160008AFFE1882846FFF77DFF23893A4631468A
:109170002846FFF74AFFE1882846FFF739FF13E04A
:109180002389A28861882846FFF73FFFE1882846A7
:10919000FFF72EFF23893A4631462846FFF76BFF3B
:1091A000E1882846FFF75EFFBDE8F0810146486B85
:1091B00070470146886B70470146C86B704701468F
:1091C000086C70470A884B881A438B881A43CB88EF
:1091D0001A430B891A434B891A438B891A43A0F807
:1091E000442070470021018041808180C18001813D
:1091F00041818181704731B1B0F8442042F400428E
:10920000A0F8442005E0B0F84420C2F30E02A0F814
:109210004420704721B1828842F00402828004E039
:1092200082884FF6FB731A408280704721B1828892
:1092300042F00102828004E082884FF6FE731A40F9
:10924000828070471AB183890B43838102E083894E
:109250008B43838170478182704702460020138AC6
:109260000B400BB1012000E000207047CA4302828E
:10927000704730B50246002000230024158A05EA15
:109280000103958905EA010413B10CB1012000E046
:10929000002030BDCA430282704741EA0203A0F8B1
:1092A000483070471AB183890B43838102E0838978
:1092B0008B438381704721B1828842F0080282800B
:1092C00004E082884FF6F7731A4082807047018964
:1092D0004FF6F8721140018170470A46002101895A
:1092E0004FF68F73194011430181704730B5044622
:1092F0000D4629462046FFF7F0FF208940F0070081
:10930000208130BD2DE9F04104460D4616461F462A
:10931000602D06D13B46012231462046FFF775FEFF
:1093200005E03B46012231462046FFF7A4FE2946D0
:109330002046FFF7D2FF208940F007002081BDE8DA
:10934000F08130B50C4600210189C9B24FF6FF7596
:1093500005EA0325154325432943018130BD2DE945
:10936000F04105460E4617469846002443463A46C5
:1093700031462846FFF7E5FF2C894FF6F870044088
:1093800044F007044FF68F70044044F070042C81C1
:10939000BDE8F081F0B504460D4616461F463B4633
:1093A000324629462046FFF7CCFF208940F4804012
:1093B0002081F0BD82884FF68F731A4082808288A8
:1093C0000A438280704702894FF6F8731A4002817F
:1093D00002890A430281704702894FF67F731A405F
:1093E000028102890A4302817047F0B50C46154696
:1093F0001E460021002200230189028B038C4FF6B8
:10940000F877394021434FF6FC473A4040F20117C4
:109410003A434FF6DD773B404FF6FF7707EA0617F2
:109420002F433B43018102830384F0BD21B1828835
:1094300042F08002828004E082884FF67F731A40F7
:1094400082807047A0F850107047000010B50446A5
:10945000FA48844208D101211020FFF700F90021C9
:109460001020FFF7FCF857E0F548844209D10121AC
:109470004804FFF7E3F800214FF40030FFF7DEF86F
:109480004AE0F048844209D101218804FFF7D6F868
:1094900000214FF48020FFF7D1F83DE0EA488442F4
:1094A00009D10121C804FFF7C9F800214FF40020B9
:1094B000FFF7C4F830E0E548844209D101210805EE
:1094C000FFF7BCF800214FF48010FFF7B7F823E056
:1094D000DF48844208D101212020FFF7C0F8002195
:1094E0002020FFF7BCF817E0DA48844209D10121B7
:1094F0008807FFF7A3F800214FF08040FFF79EF8A0
:109500000AE0D548844207D101214005FFF796F8CB
:1095100000216005FFF792F810BD2DE9FF470546D1
:109520000E460024A14600BFA046B08900B100BF8E
:109530002C8A24F44054F08804432C82AC8941F2F4
:109540000C608443B088318908437189084304431F
:10955000AC81AC8A24F44074B0890443AC82684680
:10956000FEF7FDFEB548854202D0B948854202D1DA
:10957000DDF80C9001E0DDF80890A88900F40040C7
:1095800040B109EBC90000EB091031684900B0FB9C
:10959000F1F707E009EBC90000EB09103168890019
:1095A000B0FBF1F76420B7FBF0F00401200964215F
:1095B00001FB1078A88900F4004040B1322000EB94
:1095C000C800B0FBF1F000F00700044308E03220CF
:1095D00000EB08106421B0FBF1F000F00F00044331
:1095E0002C81BDE8FF874FF4165101600021818076
:1095F000C18001810C21418100218181704710B51A
:1096000002460020108A20F470600B884C882343A7
:109610008C882343CC8823431843108210BD00213B
:10962000018041808180C180704721B1828942F4EC
:109630000052828104E082894DF6FF731A408281D4
:109640007047028B02F47F420283028B0A4302833B
:10965000704721B1828942F40042828103E082890D
:10966000C2F30E028281704721B1828A42F4006205
:10967000828204E0828A4FF2FF731A40828270472E
:10968000C1F308028280704701468888C0F3080051
:109690007047028A4FF6F0731A400282028A0A4328
:1096A0000282704721B1828942F00202828104E085
:1096B00082894FF6FD731A408281704782894FF28A
:1096C000FF731A40828182890A4382817047028A2D
:1096D0004FF6DF731A400282028A0A430282704701
:1096E00021B1028A42F48042028204E0028A4BF6EF
:1096F000FF731A4002827047818941F00101818124
:10970000704721B1828A42F00802828204E0828A94
:109710004FF6F7731A4082827047028BD2B20283EF
:10972000028B42EA01220283704721B1828A42F011
:109730002002828204E0828A4FF6DF731A4082821E
:10974000704721B1828A42F01002828204E0828A4C
:109750004FF6EF731A4082827047828A4FF6FB738E
:109760001A408282828A0A438282704721B1828AA9
:1097700042F00202828204E0828A4FF6FD731A40B0
:10978000828270471AB1838A0B43838202E0838A04
:109790008B4383827047F0B50346002400260025E2
:1097A000002040F66A17B94200D100BF1846C1F345
:1097B000421401F01F06012707FA06F5012C01D11A
:1097C0000C3004E0022C01D1103000E014301AB14A
:1097D00007682F43076002E00768AF430760F0BDEA
:1097E00002460020B1F5007F00D100BF13880B4076
:1097F0000BB1012000E00020704701F40072B2F5C7
:10980000007F00D100BFCA430280704770B5024696
:10981000002400230025002040F66A16B14200D142
:1098200000BFC1F3421501F01F03012606FA03F33E
:10983000012D13D19689334017E00000001001403C
:109840000044004000480040004C004000500040F0
:109850000014014000780040007C0040022D02D13D
:10986000168A334001E0968A33400C12012606FA2C
:1098700004F41688344013B10CB1012000E000203C
:1098800070BD10B50022002340F66A14A14200D139
:1098900000BF0A1201249440A3B2DC43048010BD2F
:1098A00010B504466FF00400FEF704F8E11704EB6E
:1098B0005171C1F3C701314A11701046007800EBB5
:1098C0004001C1EBC0104FF6FF7101EAC0002C4906
:1098D000088010BD0146294A12784A434FF0E02320
:1098E0005A6100229A6101221A6100BF4FF0E02202
:1098F000106900F001021AB100F48032002AF5D09C
:1099000000224FF0E0231A619A61704701461C4A19
:1099100012884A434FF0E0235A6100229A610122E3
:109920001A6100BF4FF0E022106900F001021AB185
:1099300000F48032002AF5D000224FF0E0231A61B3
:109940009A61704770B504464FF4077094FBF0F0CD
:10995000C6B24FF4077094FBF0F100FB114085B2E2
:1099600005E04FF40770FFF7D1FF701EC6B2002E5E
:10997000F7D115B12846FFF7C9FF70BD6E00002072
:1099800070000020014600BF704700BF4E4A128899
:1099900002F04002002AF9D0C2B24B4B9A807047C5
:1099A00010B588B0044601210846FEF7A9FD012143
:1099B0001020FEF7FFFD072209214448FEF78DFB2A
:1099C00007220A214148FEF788FB4FF4C060069049
:1099D00002208DF81C008DF81D0000208DF81E005F
:1099E00001208DF81F0006A93848FEF7EBFA029413
:1099F0000020ADF80C00ADF80E00ADF81000ADF889
:109A000014000C20ADF8120002A92F48FFF785FDC5
:109A100001212D48FFF709FE40212B48FFF7EDFEFD
:109A2000012240F225512848FFF7B5FE25208DF888
:109A3000040003208DF805008DF8060001208DF844
:109A4000070001A8FDF7E9FE08B010BD10B540F20F
:109A500025511D48FFF7DAFE10B31B48FFF714FE2F
:109A6000C4B21B48008800F40040C8B918480088F8
:109A700000F4804060B10A2C03D000201449088013
:109A800020E01348008840F400401149088019E0A4
:109A90000D2C06D10E48008840F480400C49088007
:109AA00010E00B480088C0F30D000A490C54084828
:109AB0000088401C0649088008460088C72801DD48
:109AC0000020088010BD000000100140000002408E
:109AD00078000020360E002070B503460C4603E0E7
:109AE00014F8015B03F8015B151EA2F10102F7D126
:109AF00070BD30B5034601E003F8011B141EA2F14E
:109B00000102F9D130BD10B504467C4951F824104A
:109B10004A007B4951F824000021FFF7EAFF794908
:109B200051F8242076490C3951F824000021FFF720
:109B3000E0FF012172480C30015510BD10B50146FF
:109B40000023002207E06E4850F8210030F8120090
:109B500000B15B1C521C694850F821009042F2D8B9
:109B600064205843654C54F82140B0FBF4F0C0B277
:109B700010BD2DE9F04704460F460025A946604870
:109B80000C30005D20B95E481438016820468847D3
:109B90001FB94FF0FF30BDE8F0875B4850F8240054
:109BA000B7FBF0F086B2584850F82400B7FBF0F14C
:109BB00000FB117008B1701C86B2504850F82400A8
:109BC000451E22E04E4850F8240030F8150020B918
:109BD00009F101001FFA80F901E04FF00009B145D9
:109BE00012D14FF0000808E0454850F8240005EB7A
:109BF000080120F8116008F10108B045F4D342488B
:109C000050F824006843C6E76D1E002DDADA4FF0E5
:109C1000FF30C0E72DE9F04104460E4638480C30CD
:109C2000005D38B93648143801682046884701205D
:109C3000BDE8F081334850F82400B04217D93248CB
:109C400050F82400B6FBF0F12D4850F8240030F80D
:109C50001120002507E00023294850F824004F195F
:109C600020F817306D1C9542F5DB0020E0E702205C
:109C7000DEE770B505460C4604B970BD20480C38C7
:109C800050F82500261A31462846FFF7C3FF00BFCB
:109C9000F3E770B504460E4631462046FFF769FFEC
:109CA0000546681C08B9002070BD15480C3850F8EE
:109CB00024002844F8E72DE9F04104460F461646F3
:109CC00031462046FFF755FF0546681C10B90020B5
:109CD000BDE8F0810A490C3951F824104819324680
:109CE0003946FFF7F9FE39462046FFF7C2FF044820
:109CF0000C3850F824002844EAE70000D8A90208EC
:109D000090000020F0A90208E4A9020808480068B1
:109D10007047074A1268111800BF054A12688A1A6C
:109D2000002AFADC704770477047704770477047E9
:109D3000A000002010B54FF4C8310020FFF7A9FFA4
:109D400004464FF4C831204607F002FC802007F09B
:109D50001FFD024809F04EFF10BD000038EF060855
:109D60002DE9F04107460C4615461E46B2B2A9B28F
:109D7000A0B2F7F71FF9BDE8F0812DE9F0410746E1
:109D80000C461546A9B2A0B2F6F770FE064630465C
:109D9000BDE8F0812DE9F04104460D4616463246F5
:109DA00029462046FFF7E9FF074621698868804772
:109DB000804687EA0803324629462046FFF7D0FF4F
:109DC000BDE8F0812DE9F84380460C4615461E4655
:109DD000089FFE480068C06B008880B2BBB2B2B278
:109DE000A9B20090A0B2FBF7A8F8BDE8F883F8B5D7
:109DF00005460E4614461F463B4622463146284637
:109E00000094FFF7DFFFF8BDF8B506460C4617468D
:109E10001D4623463A46214630460095FFF7D2FFBD
:109E2000F8BD2DE9FF4F83B081460E461C46DDE9A3
:109E3000117A109DDAF800000290DAF8040001901F
:109E40002E44E2480068007C00F0030030B1012895
:109E500036D002281CD0032855D130E000BF20782E
:109E600080222A41104008B1019800E00298034680
:109E70003146761C4846059AFFF772FF681C054676
:109E8000082801D10025641C781E071EE7D13AE09E
:109E900000BF207880212941084028B1314648463A
:109EA000019B059AFFF75CFF761C681C0546082895
:109EB00001D10025641C781E071EEAD123E000BFF3
:109EC000D9F8101088688047804600BF207880212C
:109ED0002941084060B131464846059AFFF74DFFD9
:109EE00083468BEA080331464846059AFFF738FF58
:109EF000761C681C0546082801D10025641C781EC4
:109F0000071EE3D100BF00BF07B0BDE8F08F2DE909
:109F1000FF4F81B00F469846DDE90F9A98F800B0E0
:109F20000E9D0E9D2F44A9480068007C00F00300A0
:109F300010B102284BD14BE0BAF1000F25D000BF81
:109F4000C5F103004400C4F10601C020084100EA45
:109F50000B0020FA04F65AF82600009039467F1CC0
:109F6000DDE90030039AFFF7FBFE681C0546042874
:109F700005D1002508F10100804690F800B0A9F154
:109F80000100B0F10009DBD121E000BFC5F1030001
:109F90004400C4F10601C020084100EA0B0020FA89
:109FA00004F639467F1C3346039A0198FFF7D8FE22
:109FB000681C0546042805D1002508F101008046EB
:109FC00090F800B0A9F10100B0F10009DED14DE038
:109FD000BAF1000F26D000BFC5F103004400C4F160
:109FE0000601C020084100EA0B0020FA04F646B141
:109FF0005AF8260000903946DDE90030039AFFF751
:10A00000AFFE7F1C681C0546042805D1002508F119
:10A010000100804690F800B0A9F10100B0F10009FC
:10A02000DAD122E000BFC5F103004400C4F106010B
:10A03000C020084100EA0B0020FA04F62EB1334696
:10A040003946039A0198FFF78BFE7F1C681C054672
:10A05000042805D1002508F10100804690F800B0E1
:10A06000A9F10100B0F10009DDD100BF00BF05B0CA
:10A07000BDE8F08F2DE9FF4F81B00F469846DDE92E
:10A080000F9A98F800B00E9D0E9D2F444F4800681F
:10A09000007C00F0030010B102284BD14BE0BAF174
:10A0A000000F25D000BFC5F101008400C4F10401F8
:10A0B000F020084100EA0B0020FA04F65AF82600C6
:10A0C000009039467F1CDDE90030039AFFF748FE17
:10A0D000681C0546022805D1002508F101008046CC
:10A0E00090F800B0A9F10100B0F10009DBD121E046
:10A0F00000BFC5F101008400C4F10401F020084153
:10A1000000EA0B0020FA04F639467F1C3346039A16
:10A110000198FFF725FE681C0546022805D1002599
:10A1200008F10100804690F800B0A9F10100B0F1FB
:10A130000009DED150E0BAF1000F26D000BFC5F112
:10A1400001008400C4F10401F020084100EA0B0082
:10A1500020FA04F646B15AF8260000903946DDE9A7
:10A160000030039AFFF7FCFD7F1C681C054602289F
:10A1700005D1002508F10100804690F800B0A9F152
:10A180000100B0F10009DAD125E000BFC5F10100FE
:10A190008400C4F10401F020084100EA0B0020FA19
:10A1A00004F62EB133463946039A0198FFF7D8FDDD
:10A1B0007F1C681C0546022805D1002508F1010016
:10A1C000804690F800B0A9F1010001E0900700205E
:10A1D000B0F10009DAD100BF00BF05B0BDE8F08FD3
:10A1E0002DE9F04781460F4692461C46DDE90858A6
:10A1F000F4480068007C00F0030010B1022841D14F
:10A200001EE0B8F1000F0ED00AE0267858F826308C
:10A21000524639464846FFF7A3FD6D1E7F1C641C5D
:10A22000002DF2DC0BE008E0237852463946484620
:10A23000FFF796FD6D1E7F1C641C002DF4DC21E0F1
:10A24000B8F1000F0FD00BE0267836B158F8263061
:10A25000524639464846FFF783FD6D1E7F1C641C3D
:10A26000002DF1DC0DE00AE026782EB1334652468F
:10A2700039464846FFF774FD6D1E7F1C641C002D97
:10A28000F2DC00BF00BFBDE8F0872DE9F047814652
:10A290000C4617461D46DDF82080B9B2A0B2F6F78D
:10A2A00014FBC9480089C9490968088007E02E885D
:10A2B000C74800680680A8F10108641CAD1CB8F10D
:10A2C000000FF4DCBDE8F0872DE9F04107460D46AC
:10A2D00090461C46069E08E04246294638462368BA
:10A2E000FFF73EFD761E6D1C241D002EF4DCBDE83C
:10A2F000F0812DE9FF4F83B015461E46DDE914BA03
:10A30000DDE91297DDF84080119808283FD006DC7F
:10A31000012809D0022818D0042863D126E010288B
:10A3200044D020285ED14FE000240BE062193B4668
:10A33000CDE900B6CDF808A0DDE90301FFF771FD16
:10A340004F44641C4445F1DB4CE000240BE06219EF
:10A350003B46CDE900B6CDF808A0DDE90301FFF7E3
:10A36000D6FD4F44641C4445F1DB3BE000240BE088
:10A3700062193B46CDE900B6CDF808A0DDE903013E
:10A38000FFF778FE4F44641C4445F1DB2AE00024CB
:10A3900009E062193B46CDE9006ADDE90301FFF7F8
:10A3A0001FFF4F44641C4445F3DB1BE0002408E01E
:10A3B00062193B460096DDE90301FFF766FF4F4453
:10A3C000641C4445F4DB0DE0002408E062193B46C0
:10A3D0000096DDE90301FFF777FF4F44641C444515
:10A3E000F4DB00BF00BF07B0BDE8F08F70B50446D6
:10A3F000A06858B91C2007F0F1F8A060A568216991
:10A400008868804706460CF085F9A861A06808B9FD
:10A41000012070BD0020FCE703460A4699680F2A18
:10A420001FD2DFE802F01E080A0C0E1E1E1E1012BC
:10A430001416181A1C00486870478868FCE7C8683A
:10A44000FAE70869F8E78869F6E70020F4E70120F1
:10A45000F2E70120F0E70020EEE70020ECE7002023
:10A46000EAE74FF0FF30E7E70246012901D15948FA
:10A4700070470020FCE7826800230B804B809389A3
:10A480005B1E1BB28B80138A5B1E1BB2CB80704796
:10A490007CB504460D4616460020009001900095BC
:10A4A00001966A460321A06900F07EFA7CBDF8B5EA
:10A4B00004460D46002000902046FFF797FFA06855
:10A4C00038B1A668356000956A460221A06900F09F
:10A4D0006BFAF8BD2DE9F04105460E4617462846B1
:10A4E000FFF784FFA86818B1AC68E6602761666171
:10A4F000BDE8F0812DE9FC4105460E4617460020D7
:10A50000009001902846FFF771FFA86878B1AC6809
:10A51000606908B9304600E0606960616660A76004
:10A52000009601976A460721A86900F03DFABDE848
:10A53000FC8170B504462046FFF758FF054600220F
:10A540000121A06900F030FA0543284670BD10B51E
:10A55000044600220521A06900F026FA10BD10B5BE
:10A56000044600220621A06900F01EFA10BD7CB549
:10A5700004460D4616460020009001908DF80450C8
:10A5800000966A460421A06900F00EFA7CBD0246DE
:10A59000A1F10900082813D2DFE800F00406080A38
:10A5A000120C0E100C4870470C48FCE70C48FAE7F8
:10A5B0000C48F8E70C48F6E70C48F4E70C48F2E7DB
:10A5C0000020F0E790070020280E0020A4000020C3
:10A5D000A800002050410708AFA40008D5A4000837
:10A5E000F5A4000833A500084FA500085FA50008E2
:10A5F0006FA50008704770473EB500200290012209
:10A6000002A948F24E10FCF782FD9DF8080000F008
:10A61000800028B19DF8080000F00F00062804DB38
:10A620009DF8080000F0200038B1002000900122C1
:10A63000694648F24E10FCF711FD9DF8080000F045
:10A640000F0000287ED09DF8080000F00F000628BB
:10A6500078DA9DF8080000F00F01FF208840C04321
:10A66000C0B200909DF8000040F0C0005D4981F844
:10A67000200000245AE05B4890F820000121A1400E
:10A680000840E0B1584931F81400042201A9FCF750
:10A690003EFD9DF804009DF8051000EB012081B2FD
:10A6A00050480C3020F814109DF806009DF8071053
:10A6B00000EB012081B24B48163020F814104948B5
:10A6C00090F8340000F00100C0B19DF804009DF83E
:10A6D000051000EB012081B24248163020F814101A
:10A6E0009DF806009DF8071000EB0120C0F54870AA
:10A6F00081B23C480C3020F8141015E09DF804009D
:10A700009DF8051000EB012081B236480C3020F88E
:10A7100014109DF806009DF8071000EB012081B28F
:10A720003048163020F81410601CC4B2052CA2DB8F
:10A7300000200290012202A948F24E10FCF78EFC84
:10A7400021E0FFE79DF8080000F08F0080281AD173
:10A75000244890F8200000F0800040B1214890F893
:10A76000200020F080001F4981F820000BE04FF608
:10A77000FF701C498881C882084690F8200000F0CC
:10A78000E00081F820003EBD10B5FFF735FF154809
:10A790008489204610BD10B5FFF72EFF1148C48AEA
:10A7A000204610BD10B51148808845F210518842EE
:10A7B00004D1FFF7E9FF0446204610BDD020FBF787
:10A7C000C4FBFAE710B50948808845F21051884269
:10A7D00004D1FFF7E0FF0446204610BD9020FBF7B0
:10A7E000B4FBFAE71C00002030AA0208280E002063
:10A7F00008B500231A467349734807F0BFFB734836
:10A800004288018800200BF059FE70484288018878
:10A8100000200BF069FE6D48808845F21051884297
:10A8200028D16A48807990B940F2DF100023421C99
:10A8300019460090184609F033FB40F21F30002300
:10A84000421C19460090012009F02AFBABE040F2BF
:10A85000DF100023421C19460090184609F020FB27
:10A8600040F21F300023421C19460090012009F0DD
:10A8700017FB98E05548808841F66311884228D13B
:10A880005248807990B940F21F300023421C19468B
:10A890000090184609F004FB40F2DF100023421C30
:10A8A00019460090012009F0FBFA7CE040F21F30CD
:10A8B0000023421C19460090184609F0F1FA40F2B4
:10A8C000DF100023421C19460090012009F0E8FA2D
:10A8D00069E03E48808845F21031884205D03B4807
:10A8E000808846F6040188422FD138488079A0B983
:10A8F000E22040F65B734FF4A072002100900846FE
:10A9000009F0CEFAC42040F6E4634FF4F07200215F
:10A910000090012009F0C4FA45E0062009F0BAFBD6
:10A92000E22040F65B734FF4A072002100900846CD
:10A9300009F0B6FAC42040F6E4634FF4F072002147
:10A940000090012009F0ACFA2DE020488079A0B9F0
:10A9500040F63F7000901D4802889B230021084666
:10A9600009F09EFA40F65F70009018484288BC23B8
:10A970000021012009F094FA15E0062009F08AFB75
:10A9800040F63F709B23F02200210090084609F01A
:10A9900087FABC2040F65F734FF4A072002100904C
:10A9A000012009F07DFA08BD10B5034614460129BF
:10A9B00001D1002010BD4FF0FF3200BF00BF104694
:10A9C000F8E70000FCE70608FCA90208280E0020B2
:10A9D0000020F7490860F7490860F74908607047A8
:10A9E00010B504464FF4080009F0F4F807F002FA35
:10A9F00024B105221146F14807F02AFD10BD7CB5AF
:10AA000004460BF0D1FA05460BF0DAFA06464FF48D
:10AA10000800EB4933462A46CDE9001000210846DC
:10AA200007F052FE24B105221146E44807F010FD5C
:10AA30007CBD2DE9F04F85B080460BF0B5FA039050
:10AA40000BF0BEFA06460BF0A3FA8346B34509DDC8
:10AA50004FF4080009F0BEF85B4600210846039A4F
:10AA600007F0D6F9D7480068002867D1C925D6482D
:10AA7000D64901222B46CDE9002102902A46002129
:10AA8000084608F047FA824601203346009000212C
:10AA90000846039A08F002FACA490860CA48CB4936
:10AAA00001226423CDE9002102900021084608F02C
:10AAB00031FA8146504608F025FC04904FF4080016
:10AAC00009F088F807F096F9484608F01BFC4FF4A7
:10AAD0000800BB4964230022CDE90010114610464E
:10AAE00007F0F2FD484608F08BFB0746504608F099
:10AAF00009FC002409E0386809F070F82246642156
:10AB0000084607F037FD641C3F1D642CF3DBAD489D
:10AB1000006808F0F7FB0021039833460A46CDE9A8
:10AB200000600291504608F019FB504608F002FA06
:10AB3000484608F0FFF9049808F0E4FBA1480068D3
:10AB400008F034FCB8F1000F04D0052211469B48F0
:10AB500007F07EFC05B0BDE8F08F10B54FF404712E
:10AB60009B4800680EF048FC044620460EF04AFF61
:10AB700010BD10B54FF40471954800680EF03CFC10
:10AB8000044620460FF05CFB10BD70B504462068FB
:10AB90000E280DD00F2802D01E2815D105E08D48B3
:10ABA00000788D490968884712E00020E0600FE0D6
:10ABB000E568686838B128686E2803D101208749A4
:10ABC000086000BF00BF03E020460EF0F3FA00BFAC
:10ABD00000BF70BD10B502E00A2007F087FA744884
:10ABE00000680128F8D07D480068012804D10020C1
:10ABF0007A490860012010BD0020FCE7FEB506463A
:10AC00000C46256807F0B8FE684608F0BBFD9DF8C5
:10AC1000080018B1012020600020FEBD9DF808004A
:10AC200038B9012D05D10020206001206B49086052
:10AC3000F3E7FFF7CFFF6949086008460068ECE7D3
:10AC40002DE9FC47044620680E2806D00F283CD08A
:10AC50001D2809D026287BD14BE00EF0B7FB824699
:10AC600021460FF057F982E04FF4047160680EF04E
:10AC7000C3FB81460E2148460CF08EFD58494846DC
:10AC80000CF062FD4FF4006160680EF0B5FB814688
:10AC90000021484604F02AFB40F6010160680EF0EE
:10ACA000ABFB81460021484604F020FB4FF4B07115
:10ACB00060680EF0A1FB81464AA148460DF084FB76
:10ACC0004A4948460DF06EFB51E060680EF0A0FC6A
:10ACD000064660680EF0ADFC074645486FF07F41C0
:10ACE0007B1E721ECDE900100021084607F0ECFC27
:10ACF0003DE0A0680EF0B1FB0546D4F80C80B8F139
:10AD0000020F2ED1B5F5006F03D0A5F6010030BBC0
:10AD10001FE02748006868B100202549086007F057
:10AD200023FF25490968401A2249086000200EF0D7
:10AD3000DFFF0CE001201E49086007F015FF1D49E8
:10AD40000968401A1C49086060680EF0D1FF06E0EF
:10AD500009E0012021490860FFF73AFE00BF00BF6B
:10AD600000BF00BF03E020460EF024FA00BF00BF82
:10AD7000BDE8FC872DE9FC410446206801280BD082
:10AD80000E2802D00F2849D134E00EF01FFB0746F1
:10AD900021460FF0BFF845E00BF006F905464120CB
:10ADA0006B1069100090002260680FF03AFA39E0E9
:10ADB000C8000020C0000020C4000020B4810508A5
:10ADC0005555FF00D8000020E4E70608C4410708F5
:10ADD000AC000020D4000020B4000020CC000020F3
:10ADE000DC440408496E74726F00000090FB060892
:10ADF000C0CEDC0060680EF00BFC054660680EF00B
:10AE000018FC0646F8486FF07F41731E6A1ECDE9B4
:10AE100000100021084607F057FC03E020460EF022
:10AE2000C9F900BF00BFBDE8FC8110B504466068E9
:10AE300040B90E21206804F07AFF0021206804F058
:10AE40008AFF03E0204604F0B5FC10BD00BF0020DF
:10AE5000FBE770B50246002300E05B1CD55C002DCB
:10AE6000FBD10124012003E004EB84056C00401CAD
:10AE7000B1FBF4F50A2DF7D20025D61835540DE0B4
:10AE80000A25B1FBF5F605FB16153035D618064434
:10AE900006F8015C0A25B1FBF5F1401E0028EFD150
:10AEA00070BD10B502460020002300E0401C145C79
:10AEB000002CFBD103E0CC5C1454401C5B1CCC5C2C
:10AEC000002CF8D1145410BD10B586B0142101A87F
:10AED00003F08CFE4FF4B071C44800680EF08CFA99
:10AEE0000446C3A101A8FFF7DCFFC3480168491C61
:10AEF00001A8FFF7AEFFC1A101A8FFF7D2FFC0482C
:10AF0000016801A8FFF7A5FFBEA101A8FFF7C9FFCF
:10AF1000BD484068411E01A8FFF79BFF01A92046DC
:10AF20000DF052FA06B010BD7CB50EF04FFA064691
:10AF30000EF0D2FF06F05EFF06F01EFF0BF034F8B5
:10AF400004460BF03DF805460EF040FA0646A5F122
:10AF50003D01A4F150003346AC4ACDE90001052182
:10AF6000AB4806F091FFA14908600EF02FFA0646A3
:10AF700000210120C0EB64003346A64ACDE9000160
:10AF80000221A54806F080FFA44908600846006831
:10AF90000EF038FD954800680EF0EDFD0EF016FA43
:10AFA00006460EF09DF907F0E7FC0EF00FFA064694
:10AFB0000EF0A1F901F0C4FE00208F49086014E0F2
:10AFC000FFF706FDFFF780FF8F4909688A4A12687C
:10AFD00051F82200804700208949086090490860A4
:10AFE00085480068401C8449086087480068824999
:10AFF000096850F821000028E2D17F4908607B48A9
:10B0000000680EF00BF9854800680EF007F906F0AD
:10B01000D7FD7CBD08B1012100E00021814A1170FB
:10B02000704700210170704710B57F48006810B16B
:10B030007E48006810BD07F097FD7D490968401AF9
:10B04000F8E72DE9F04104464FF4047167480068C1
:10B050000EF0D2F98046642C01DDFFF78AFD002155
:10B0600040460CF0A9FB2246002140460CF07BFB39
:10B0700007F07AFD064600BFFFF7D6FF871B642C5A
:10B0800003DD394640460CF097FB052007F02EF80B
:10B09000FFF7A0FD0546A74201D2002DECD0642C9D
:10B0A00001DDFFF75AFD07F067FCBDE8F08110B540
:10B0B000044620465F490968884710BD014652484A
:10B0C0000089084008B1012070470020FCE710B556
:10B0D000464800680EF096FC0EF078F904460FF032
:10B0E000C3F810BD10B54D4800680EF08BFC0EF093
:10B0F0006DF904460FF0B8F810BD10B5404800686F
:10B10000401C3F490860FFF763FCFFF7DDFE10BD00
:10B1100010B5364800680FF093F807F02DFC10BD0D
:10B1200070B504463D4800680EF07AFD50B14FF40A
:10B13000B0713A4800680EF05FF90546214628468E
:10B140000DF042F970BD10B5344800680FF078F882
:10B1500010BD10B504462046FFF773FFFFF7CDFF83
:10B1600010BD2DE9F84F07460C460AF01DFF824638
:10B170000AF026FF83464FEA6A0000904FEA6B0907
:10B18000FFF7B0FFFFF7C4FF07F0F6FB0120FFF762
:10B190008EFF6FF07F4008F021FD022008F078FD5F
:10B1A000254808F02FFD3C223846009907F086F824
:10B1B000224808F027FD07F0AFFC8046A9EB080005
:10B1C00000F10A022046009907F078F8002500E017
:10B1D0006D1C605D0028FBD105EB85000601304643
:10B1E000FFF7B7FFBDE8F88FC0CEDC00AC00002051
:10B1F00044656D6F20000000B80000202E000000A4
:10B20000BC0000202F00000080E2012041AC0008BB
:10B210003CAA020875AD0008C8AA0208B0000020C8
:10B22000D0000020D4000020C8000020C40000206E
:10B23000C0000020B4000020E4730408F01D0708DB
:10B240008CB02C492C4808F07FF80EF0BFF8064669
:10B250002A490EF075FE04F05BF8002101A804F005
:10B2600077FC00200690002101A804F019FD0121BF
:10B2700001A804F06DFC00200690012101A804F053
:10B280000FFD1F4804F0E0FC1E480CF04FFA1E486A
:10B2900004F01EF81D480CF0C1FD1D480CF088FF9D
:10B2A0001C480AF05FFB022008F0F2FC1A4801F08B
:10B2B00031FA0AF0C9FD0546102D11DB0420FFF715
:10B2C000FDFE68B106F002FA0446B4F5001F03DD86
:10B2D00012481349086006E012481149086002E06C
:10B2E00011480F4908600120FFF794FE01E0FFF7C5
:10B2F0001BFEFCE7D0000020FDAB00088BAB000874
:10B300002BAE0008A976010899F00008697C0108B5
:10B31000398001088958010880E2012033AA000819
:10B32000B4000020FFA90008E1A900082DE9FF4FA3
:10B3300095B0804689461546229E4022E04901A8E4
:10B3400003F0F8FB08FB06F809FB06F97543DD4935
:10B350001898484311900027002430E0119978187C
:10B3600009F0FEFF13901199781809F035FA129040
:10B37000129868434FEA104B13986843020C1492DA
:10B38000A246E11704EB11710911A4EB011101AA06
:10B3900052F8210008F022FC05F082FF304606F04A
:10B3A00073F8149A09EB020108EB0B002A4605F02A
:10B3B0008FFF05F06DFF45F2E4700744641CC2483E
:10B3C0008742CBD319B0BDE8F08F2DE9FF41054688
:10B3D0000C46286802906868039002A808F0FCFBFD
:10B3E0000022412102A808F0BDF9BDF90800BDF90D
:10B3F0000C104718BDF90A00BDF90E1046180420BC
:10B4000006EBD672511007EBD77200905010002354
:10B410002322FFF78BFF6FF07F4008F0DFFB012353
:10B420000E2202A9A9A006F089FF0022412102A84C
:10B4300008F098F96FF07F400021CDE90010BDF9C8
:10B440000E30BDF90C20BDF90A10BDF9080007F057
:10B4500007F9BDF80A00204400B2ADF80E00FF2045
:10B4600008F0BCFB0E2202A99AA006F041FF22467A
:10B47000002102A808F076F94FF47F4008F0AEFBF7
:10B480000E2202A993A006F033FF2246002102A853
:10B4900008F068F94FF47F0008F0A0FB0E2202A923
:10B4A0008CA006F025FF60424200002102A808F0AF
:10B4B00059F9BDF80A0004EB4401084400B2ADF8A4
:10B4C0000E000022412102A808F04CF9BDF80A0044
:10B4D000204400B2ADF80E00FF2008F07BFB06F020
:10B4E00089FC2246002102A808F03CF94FF47F4075
:10B4F00008F070FB06F07EFC2246002102A808F04E
:10B5000031F94FF47F0008F065FB06F073FC6042F0
:10B510004200002102A808F025F9BDF80A0004EB5A
:10B520004401084400B2ADF80E006FF07F4008F00F
:10B5300055FB01230E2202A964A006F0FFFE0022A3
:10B54000412102A808F00EF9BDF80A00204400B21B
:10B55000ADF80E000020FF21CDE90010BDF90E303E
:10B56000BDF90C20BDF90A10BDF9080007F0ACF8D0
:10B570002246002102A808F0F5F800204FF47F4190
:10B58000CDE90010BDF90E30BDF90C20BDF90A104F
:10B59000BDF9080007F098F82246002102A808F03B
:10B5A000E1F800204FF47F01CDE90010BDF90E3025
:10B5B000BDF90C20BDF90A10BDF9080007F084F8A8
:10B5C00060424200002102A808F0CCF8BDF80A0051
:10B5D00004EB4401084400B2ADF80E006FF07F4068
:10B5E00008F0FCFA01230E2202A938A006F0A6FEFC
:10B5F000002008F0F1FABDE8FF8170B504460D4661
:10B60000354808F0FFFA6FF07F4008F0E7FA0123B1
:10B610000E222946204606F091FE70BD1CB52F482B
:10B6200008F0F0FA0C22BE212DA006F047FE002003
:10B63000ADF800002B20ADF802003B20ADF804006F
:10B64000BDF802005F3000B2ADF80600BDF906009B
:10B65000BDF90210401A032190FBF1F4694626A0BF
:10B66000FFF7CBFF2B4808F0CDFA21466846FFF7DD
:10B67000ACFE65220021684608F074F8694626A0F1
:10B68000FFF7BBFF2B4808F0BDFA21466846FFF7DD
:10B690009CFE1CBD10B528A134A0FFF762FD01205F
:10B6A000FFF705FD012007F027F90446FFF7B6FF75
:10B6B0004FF47A60FFF74DFD204607F01DF910BDED
:10B6C00000AB020818FCFFFF407E05004142430A20
:10B6D0004142430A414243009C0A0708E4730408BC
:10B6E000416E7469616C6961736564207465787416
:10B6F0002073616D706C6500416E7469616C696185
:10B7000073656420746578740A2028342062707030
:10B7100029000000A0880408416E7469616C6961A9
:10B7200073656420746578740A2028322062707012
:10B7300029000000F88904084F7574707574206141
:10B740006E7469616C696173656420746578740AEC
:10B750006F6E20646966666572656E7420626163EF
:10B760006B67726F756E64732E000000416E7469B2
:10B77000616C696173656420546578740000000031
:10B780002DE9F04105460AF00FFC06460AF018FCC8
:10B7900004466FF07F4008F021FA002008F078FAA4
:10B7A000002008F017FA06F025FB25B10522114606
:10B7B000FE4806F04DFEFE48006880B1FD4808F0E6
:10B7C00021FAA4F128020A21FBA006F06FFDA4F1E2
:10B7D000170002B203230A21002006F0A5FCFA4854
:10B7E000006858B1F94808F00DFA07F095F9201AE9
:10B7F000471071103A46F6A006F060FDBDE8F081F2
:10B800002DE9F0470446F048006868B3F348006843
:10B81000A04229D00AF0C8FB05460AF0D1FB064633
:10B82000EE4804606FF07F4008F0D8F9002008F07F
:10B830002FFAE64808F0E6F907F06EF9301A4010E2
:10B8400007B2312007F042F98146E1A007F082F902
:10B850002844401CC9EB60000FFA80F801233A46E7
:10B860004146204606F060FCBDE8F08710B52DED9E
:10B87000068B0446002C1EDBB4F57A7F1BDA2046CB
:10B880001DF079F841EC1A0B9FEDD50B53EC102B02
:10B890001DF0D8F841EC190B9FEDD30B53EC102B96
:10B8A0001DF004FA41EC180B1CF0CAFD00EE100A62
:10B8B000BDEC068B10BDB4F57A7F1EDB40F2E24092
:10B8C00084421ADAA4F57A701DF055F841EC1A0B8F
:10B8D0009FEDC70B53EC102B1DF0B4F841EC190B86
:10B8E0009FEDC50B53EC102B1CF0DCFD41EC180B4D
:10B8F0001CF0A6FD00EE100ADAE740F2E2408442B6
:10B9000021DB40F6B24084421DDA0220FFF778FFC7
:10B91000A4F2E2401DF02FF841EC1A0B9FEDB80B9A
:10B9200053EC102B1DF08EF841EC190B9FEDAE0B74
:10B9300053EC102B1DF0BAF941EC180B1CF080FDF4
:10B9400000EE100AB4E740F6B24084421EDB40F637
:10B95000AC5084421ADAA4F6B2401DF00CF841EC67
:10B960001A0B9FEDA30B53EC102B1DF06BF841EC61
:10B97000190B9FEDA10B53EC102B1CF093FD41EC28
:10B98000180B1CF05DFD00EE100A91E740F6AC507C
:10B99000844221DB41F2707084421DDA0320FFF7FC
:10B9A0002FFFA4F6AC501CF0E6FF41EC1A0B9FED04
:10B9B000960B53EC102B1DF045F841EC190B9FED45
:10B9C0008A0B53EC102B1DF071F941EC180B1CF095
:10B9D00037FD00EE100A6BE741F2707084421FDB06
:10B9E00041F66A0084421BDAA4F5B85070381CF0A6
:10B9F000C2FF41EC1A0B9FED7E0B53EC102B1DF098
:10BA000021F841EC190B9FED7C0B53EC102B1CF033
:10BA100049FD41EC180B1CF013FD00EE100A47E73E
:10BA200041F66A00844222DB42F2224084421EDA5E
:10BA30000420FFF7E5FEA4F5C0506A381CF09BFF18
:10BA400041EC1A0B9FED720B53EC102B1CF0FAFF1C
:10BA500041EC190B9FED640B53EC102B1DF026F9F4
:10BA600041EC180B1CF0ECFC00EE100A20E742F24F
:10BA7000224084421FDB42F21C5084421BDAA4F5B0
:10BA8000105022381CF077FF41EC1A0B9FED580B39
:10BA900053EC102B1CF0D6FF41EC190B9FED560B0D
:10BAA00053EC102B1CF0FEFC41EC180B1CF0C8FCF6
:10BAB00000EE100AFCE642F21C50844222DB43F600
:10BAC000982084421EDA0520FFF79AFEA4F5145050
:10BAD0001C381CF050FF41EC1A0B9FED4F0B53EC40
:10BAE000102B1CF0AFFF41EC190B9FED3F0B53ECFB
:10BAF000102B1DF0DBF841EC180B1CF0A1FC00EE44
:10BB0000100AD5E69FED460AD2E610B52DED068B5C
:10BB10000446002C1EDBB4F57A7F1BDA20461CF0AD
:10BB20002AFF41EC1A0B9FED3F0B53EC102B1CF03E
:10BB300089FF41EC190B9FED3D0B53EC102B1DF0D1
:10BB4000B5F841EC180B1CF07BFC00EE100ABDECC4
:10BB5000068B10BDB4F57A7F06DB40F2E2408442EA
:10BB600002DA9FED340AF2E740F2E24084426EDBF3
:10BB700040F6B24084426ADAA4F2E2401CF0FBFED6
:10BB800041EC1A0B9FED2C0B53EC102B1CF05AFFC1
:10BB900041EC190B9FED2A0B53EC102B1DF086F88E
:10BBA00041EC180B1CF04CFC4EE050E0B481050851
:10BBB00004010020F85604086D7365632F706963F3
:10BBC000747572653A0A000008010020E4730408E5
:10BBD0004765617220202020310000000C01002008
:10BBE000333333333333B33F0000000000406A4047
:10BBF000333333333333D33F0000000000E0604081
:10BC0000333333333333A33FB81E85EB51B89E3FF4
:10BC10009A9999999999993F79E9263108AC6C3F9D
:10BC2000000007437B14AE47E17A943F0000000018
:10BC300000206C4000004D437B14AE47E17A843F06
:10BC40000000000000A0694000EE100A7FE740F607
:10BC5000B240844206DB40F6AC50844202DA9FEDEB
:10BC6000FE0A74E740F6AC5084421EDB41F270706D
:10BC700084421ADAA4F6AC501CF07DFE41EC1A0B9B
:10BC80009FEDF60B53EC102B1CF0DCFE41EC190B76
:10BC90009FEDF40B53EC102B1DF008F841EC180B42
:10BCA0001CF0CEFB00EE100A51E741F270708442A6
:10BCB00006DB41F66A00844202DA9FEDEC0A46E7B1
:10BCC00041F66A0084421FDB42F2224084421BDAC2
:10BCD000A4F5C0506A381CF04EFE41EC1A0B9FEDE3
:10BCE000DF0B53EC102B1CF0ADFE41EC190B9FED5C
:10BCF000E00B53EC102B1CF0D9FF41EC180B1CF09F
:10BD00009FFB00EE100A22E742F22240844206DB4B
:10BD100042F21C50844202DA9FEDD70A17E742F242
:10BD20001C5084421FDB43F6982084421BDAA4F5A2
:10BD300014501C381CF01FFE41EC1A0B9FEDCF0B6A
:10BD400053EC102B1CF07EFE41EC190B9FEDCD0B3C
:10BD500053EC102B1CF0AAFF41EC180B1CF070FBED
:10BD600000EE100AF3E61FED520AF0E62DE9F0416D
:10BD700005462E460AF018F904463078F0B1C34B58
:10BD80001B88C24F3F88E71B03EB67035A1EBF4B5C
:10BD90005B88BF4F3F68D919BC4B1B88E31A58100A
:10BDA000BB4B1B68623306F033F8B8480088201A92
:10BDB0004110B7480268B54806F04AFB6FF07F4073
:10BDC00007F00CFFB24800688A3000EB40036010B7
:10BDD00000EB40020521B01C05F0B2FA307890B1BA
:10BDE000022007F055FFFF2007F0F8FEA94807F0F2
:10BDF00009FFA6484088A64B1B681844421D6110E5
:10BE0000A5A006F05BFABDE8F0812DE9F0410546FA
:10BE10002E460AF0C9F80446307840B39B4F3F885D
:10BE2000DFF868C2BCF800C0A4EB0C0C07EB6C0791
:10BE30007A1E974F3F6862377B00944F7F88DFF808
:10BE400050C2DCF800C067447900904F3F88E71B80
:10BE5000781005F0DDFF8E480068400000F16202B6
:10BE60008A480088201A4110884806F0F1FA6FF0DD
:10BE70007F4007F0B3FE86480068623040002830FB
:10BE800000EB4003601000EB40020421B01C05F001
:10BE900057FA3078A0B1022007F0FAFEFF2007F031
:10BEA0009DFE7C4807F0AEFE794800684000623095
:10BEB000764B5B881844421D61107AA006F0FEF9AB
:10BEC000BDE8F0812DE9F047A2B0482107A802F0B3
:10BED0008DFE00200190029081460AF071F805461F
:10BEE0000120FFF78DFC00244BE0BFEE000A05A8FF
:10BEF00000EB840080ED000A04EBC40119AA02EBF8
:10BF0000410006F0C7FF6A4850F8241048468847A9
:10BF1000DFED680A20EE200A04EBC40007A901EB5C
:10BF2000800080ED080A04EBC4038C460CEB83030D
:10BF3000D3ED080AB0EE600A5F4B03EBC4035A6806
:10BF40005D4B53F8341004EBC4030CEB8303981CD3
:10BF500007F0BEFC04EBC40C0DF11C0A0AEB8C03C9
:10BF6000DFF858C15CF8242004EBC40C0AEB8C0108
:10BF700004EBC40C0DF1640A0AEB4C0007F092F8D4
:10BF8000641C022CB1DBFFF74FF806460027DEE009
:10BF9000002499E0464850F8241048468847DFEDD1
:10BFA000450A20EE200A04EBC40007A901EB80003B
:10BFB00080ED080A05A800EB840090ED000A04EB70
:10BFC000C40001EB8000D0ED080AB4EE600AF1EE87
:10BFD00010FA78D004EBC40001EB800090ED080A61
:10BFE00005A800EB840080ED000AFFF71DF88046ED
:10BFF00004EBC4030DF11C0C0CEB8303D3ED080A16
:10C00000B0EE600A2C4B03EBC4035A682A4B53F87A
:10C01000341004EBC4030CEB8303981C07F058FCAA
:10C0200004EBC40C0DF11C0A0AEB8C03DFF88CC086
:10C030005CF8242004EBC40C0AEB8C0104EBC40C68
:10C040000DF1640A0AEB4C0007F02CF8FEF7ECFF48
:10C05000A0EB080003A934E000003943FCA9F1D2A9
:10C060004D62703F000000000020674000002F4339
:10C070000000000000E065400000234361325530BD
:10C080002AA9533F0000000000606440C8E4020891
:10C0900000010020E473040852504D202F2031305D
:10C0A000303000004D5048202F203130000000007B
:10C0B0002001002035FA8E3C1001002028010020CC
:10C0C00001E041F82400641C022CFFF663AF5A48DB
:10C0D0000068C8B3142097FBF0F100FB117098BB07
:10C0E0006FF07F4007F07AFD002007F0D1FD534844
:10C0F00007F088FD002425E003A850F8240001A9DA
:10C1000051F8241088421CD0A5F11700DFF82CC18B
:10C110009CF818C000EB0C036A1001460A2005F0D9
:10C1200077FEA5F117010AB203A951F824000323F1
:10C130000A2105F0F9FF03A850F8240001A941F8ED
:10C140002400641C022CD7DB06F016FC7F1CFEF7D3
:10C150006BFF801B814643F69821884204DAFEF784
:10C1600039FD00283FF414AF002407E004EBC401BC
:10C1700019AA02EB410006F0FDFE641C022CF5DB5F
:10C1800022B0BDE8F0872DE9F04100262CA136A0B1
:10C19000FEF7E7FF09F008FF044609F011FF054626
:10C1A000A5F1C400032190FBF1F034490860344844
:10C1B0000088401D33490988611AB0EB610F06DB26
:10C1C0002F484088401D2D490968884200DA012621
:10C1D000AFF21C6006F0BEFC2A490988611AB0EB78
:10C1E000610F07DB2548006862304100A5F1280097
:10C1F000814202DA012010490860234807F002FD5D
:10C20000074606F089FC401C1C490968884202DA8E
:10C2100001201E490860384607F0F4FC3046FFF75D
:10C22000AFFA05F03DF8032005F02EF9FFF74AFEBE
:10C2300005F02EF8BDE8F08104010020F85604084E
:10C240004578616D706C657320666F7220746865E7
:10C250000A6175746F6D6F7469766520696E6475B7
:10C2600073747269650000004175746F6D6F746955
:10C2700076652073616D706C6573000000010020AD
:10C28000B4810508C8E40208E4730408080100202A
:10C29000F8B509F089FE441009F092FE45103B48BC
:10C2A0000088401000EB4000261A384840884010B3
:10C2B00000EB40002F1A032003463A463146009017
:10C2C000324806F0EBF832A0FEF72AFFF8BD2DE960
:10C2D000F04109F069FE064609F072FE0746322277
:10C2E0001421324806F0B4F831A0FEF719FF40F6E9
:10C2F000B830FEF72EFF0020FEF7D9FE32221421BF
:10C30000224806F0A5F830A0FEF70AFF40F6B83044
:10C31000FEF71FFF002415E000250BE01B484088B6
:10C3200000FB05F21948008800FB04F1174806F0ED
:10C330008FF86D1C1548408897FBF0F0401CA84210
:10C34000ECDC641C1148008896FBF0F0401CA04215
:10C35000E2DC4FF4FA60FEF7FCFE20A0FEF7E0FE00
:10C36000FFF796FFBDE8F08110B527A134A0FEF7D6
:10C37000F8FEFEF7E8FE0020FEF799FEFFF7A7FFA4
:10C380004FF47A60FEF7E5FE10BD00004CF00208A5
:10C390004269746D6170732063616E206265206D07
:10C3A00061676E69666965642E2E2E0004F80208C6
:10C3B000524C4520436F6D707265737365642062E3
:10C3C00069746D6170730000312F322F342F382063
:10C3D000627070206269746D617073004269746D7F
:10C3E000617073206D617920616C736F2062650AE2
:10C3F0006D61676E696669656420616E6420726F45
:10C40000746174656400000053686F77696E670A31
:10C41000646966666572656E74206269746D6170C8
:10C420007320776974680A616E6420776974686F35
:10C43000757420636F6D7072657373696F6E000041
:10C440004269746D617073002DE9F04F99B050210D
:10C4500005A802F0CBFB09F0A7FD824609F0B0FD6C
:10C4600003908E498EA0FEF77CFE0120FEF71FFE92
:10C470006FF07F4007F0B2FB8C4807F0C3FB4FEA38
:10C480006A010C228AA005F019FF8C4807F0BAFB5C
:10C490002B2201218AA005F009FF3F22012189A05A
:10C4A00005F004FF5322012188A005F0FFFE62225F
:10C4B000012188A005F0FAFE7122012187A005F074
:10C4C000F5FE8522012187A005F0F0FE99220121C9
:10C4D00086A005F0EBFE874807F094FB09F0B4FC5A
:10C4E000049005A80499FEF7B4FC83A105A8FEF703
:10C4F000D8FC092009F0C4FC8146B9F1000F0BD02B
:10C500007FA105A8FEF7CDFC494605A8FEF7A1FCD2
:10C510007CA105A8FEF7C5FC0398A0F119020C2127
:10C5200005A805F0C3FEFEF77FFD0746A6E0FEF76F
:10C530007BFDC01B4FF4FA6190FBF1F201FB120688
:10C54000481096FBF0F808EB4800C0EBC810A6EBCB
:10C55000C006B6F5FA7F00DD90E0C6EB06204FF48A
:10C56000FA7190FBF1F0C8EB082180EA010B0BEBAC
:10C570000B2000EB0B446FF07F40051BFF203423A2
:10C5800052462B21CDE900043C2006F069F8FF203B
:10C590003E2352463521CDE900053C2006F060F8E7
:10C5A0004FF47F40482352463F21CDE900043C2010
:10C5B00006F056F84FF47F40522352464921CDE908
:10C5C00000053C2006F04CF84FF47F005C235246F7
:10C5D0005321CDE900043C2006F042F84FF47F00DF
:10C5E000662352465D21CDE900053C2006F038F86F
:10C5F0004648702352466721CDE900043C2006F0EE
:10C600002FF84FF6FF707A2352467121CDE90005CD
:10C610003C2006F025F84FF6FF70842352467B211C
:10C62000CDE900043C2006F01BF839488E23524621
:10C630008521CDE900053C2006F012F83448982306
:10C6400052468F21CDE900043C2006F009F84FF056
:10C65000FF10A22352469921CDE900053C2005F0A8
:10C66000FFFF4FF0FF10AC235246A321CDE9000499
:10C670003C2005F0F5FF06F07FF900BFFEF7D4FC83
:10C68000C01B41F27071884204DAFEF7A3FA002859
:10C690003FF44DAF19B0BDE8F08F000058550708C2
:10C6A000436F6C6F7220626172000000E4730408D3
:10C6B000436F6C6F7220626172730000F01D070897
:10C6C00052656400477265656E000000426C7565D6
:10C6D00000000000477265790000000059656C6C2D
:10C6E0006F7700004379616E000000004D6167655F
:10C6F0006E74610090FB06082062707000000000FC
:10C700002C20000020636F6C6F72730080808000AB
:10C7100000FFFF00034901600D21416005210181F7
:10C7200070470000300100202DE9FC5F0646884676
:10C73000174600200190009000240CE056F8345079
:10C74000286841880198814204DD2868408801906A
:10C75000A8680090641C032CF0DB4A4807F052FAEA
:10C760003A464146B06905F0A1FD06F0D5F9401CF6
:10C770000744454807F046FA002428E056F83450AC
:10C7800006EBC40090F8049000983844A968A0EB28
:10C79000010B484606F09AF929680988081A4FEAF9
:10C7A000600A1C2202FB0482511D5A46286805F0CB
:10C7B0004FFE01983844801C02B21C2000FB04800C
:10C7C000401D504401B2484605F0A6FC641C032CF1
:10C7D000D4DBBDE8FC9F2DE9F0412DED048B09F081
:10C7E000E3FB0646022007F053FA284807F00AFA4E
:10C7F00071100C2226A005F061FD442430461CF087
:10C80000BAF841EC190B9FED270B53EC102B1BF0E2
:10C81000FDFE41EC180B1CF051F807464B25224653
:10C8200005212248FFF780FF621905212048FFF704
:10C830007BFF224639461F48FFF776FF62193946CB
:10C840001D48FFF771FFBDEC048BBDE8F08110B50A
:10C850001AA123A0FEF785FC0120FEF728FC05F0B5
:10C86000AFF9FFF7B8FF4FF47A60FEF772FC05F0FE
:10C8700083FA0021084605F03FFA1B4805F0D0F97D
:10C8800010BD0000F856040850130708E4730408AC
:10C89000417661696C61626C6520637572736F7259
:10C8A00073000000000000000000044018F80208B7
:10C8B00050F8020834F802086CF802085354656D09
:10C8C00057696E20737570706F7274730A736F6638
:10C8D000747761726520637572736F720000000077
:10C8E000437572736F720000C4E506082DE9F041CC
:10C8F00080460C4624B1012C05D0022C09D105E05C
:10C900004625032607E03225012604E01E250726DA
:10C9100001E0BDE8F08100BFEC4951F8240008F0C7
:10C920001FFD0746E94850F824004FF47A7101FBD7
:10C930000600E64941F8240007FB05F0E44A1288A6
:10C9400002EB204001B2404603F0D4FF00BFE0E715
:10C9500070B504460D46DF48DF4A126830F8220001
:10C96000DB4A1288104401B2204603F0C3FFDA48C4
:10C970000068401CD8490860462801D100200860A2
:10C9800070BD2DE9FF4F85B00D461646994609F05A
:10C990000BFB03900398273804904FF0000B002402
:10C9A00005E055F82410059803F0DCFE641CB44241
:10C9B000F7DB0AE0002404E055F824002146C847CC
:10C9C000641CB442F8DB0BF1010B04988345F1DBE6
:10C9D000FEF72AFB07460120019000BFFEF724FB6B
:10C9E000A0EB0708002404E055F824002146C847BE
:10C9F000641CB442F8DB019880B10020019005F07E
:10CA0000BBFFB6480168059803F0F8FFB448016819
:10CA1000059803F0F3FF05980DF026FCFEF7DAF811
:10CA20000290FEF701FBA0EB070AAAEB08000F2813
:10CA300005DAAAEB0801C1F10F0005F057FB41F23E
:10CA40008830804502DA02980028C7D0002405E02B
:10CA500055F82410059803F0A3FF641CB442F7DBDB
:10CA6000FEF74BFB09B0BDE8F08F10B50446206817
:10CA70000F2803D10120FEF71AFB03E020460CF03B
:10CA800099FB00BF00BF10BD2DE9F04F8DB009F03C
:10CA90008BFA804609F094FA834692480CF074F8B9
:10CAA0000C900CF093FC904905900DF049FAA8F118
:10CAB0001406ABF14B05F22D0DDDF22505EB8500DB
:10CAC00080000B2190FBF1F0B04204DA05EB850009
:10CAD000800090FBF1F6A8EB060040100690ABEB4F
:10CAE00005004FEA6009B9F1460F01DA4FF0460937
:10CAF0000CF06CFC002140F602030590CDE90131F9
:10CB00002B463246039100904946069803F0ABFE4F
:10CB10008246092000231A4613210090504603F054
:10CB2000EBFF50460DF016FB00227049504603F013
:10CB3000FFFF01224FF40801504603F0F9FF0222E3
:10CB40000021504603F0F4FF03226949504603F0E8
:10CB5000EFFF0121504604F044F81921504604F03B
:10CB600001F80A21504604F012F850460CF0E2F9A0
:10CB700000240CE0A8F127015E4A52F824000023AB
:10CB80001A4603F0CFFE07A941F82400641C052CC7
:10CB9000F0DBA5F10907192300220C21042003F082
:10CBA0005BFF4E490860142301220221092003F093
:10CBB00053FF4B490860291F4848006803F089FF6C
:10CBC0006FF004014548006803F070FF002443E063
:10CBD00004EB4401484A52F83100FEF7A1FA3F48FD
:10CBE0000168504603F0DBFD3D480168504603F004
:10CBF000D6FD04EB4400404901EBC0008068784357
:10CC000040123349086004EB44003B4A02EBC00089
:10CC1000C06878434112504603F0CEFFA7F10900E7
:10CC200004EB4402344B03EBC202526850434112FE
:10CC30002B48006803F03AFF04EB44002E4901EB57
:10CC4000C000036904EB440001EBC00007A942697E
:10CC50005046FFF796FE641C04EB4400264901EBA6
:10CC6000C00000690028B3D11C480168504603F099
:10CC7000C5FE1B480168504603F0C0FE1748006817
:10CC800003F012FF1648006803F00EFF002405E0D1
:10CC900007A951F8240003F081FE641C052CF7DB82
:10CCA00050460CF0BBFA0C980BF06EFF0DB0BDE8CF
:10CCB000F08F10B511A11EA0FEF753FAFEF743FA4C
:10CCC000FFF7E2FEFEF719FA10BD00008CE201202A
:10CCD0009802002064010020E4020020900200205D
:10CCE00094020020184207086BCA00084040400028
:10CCF000808080007C0200209C0200204F707469BC
:10CD00006D697A65642064726177696E6720726FFD
:10CD10007574696E650A666F722064726177696EF8
:10CD200067206772617068206461746100000000B0
:10CD300044726177696E6720612067726170680074
:10CD4000F0B589B020223A4901A801F0F3FE09F0BC
:10CD50002BF9054609F034F904466E100020FEF761
:10CD6000A6F9022006F094FF6FF07F4006F036FF30
:10CD7000304806F047FF44F3191231462EA005F063
:10CD80009DFA2F4806F03EFF04EB440000EBC40080
:10CD9000821131462BA005F091FA384806F01EFFAB
:10CDA000162060438211314635A005F087FA4048CD
:10CDB00006F028FF16206043122101EBA012314635
:10CDC0003CA005F07BFA6FF07F4006F007FF1C489F
:10CDD00006F018FF05F0CAFE0746394601A801F023
:10CDE00016FEC4EB44108211314601A805F066FA24
:10CDF00026206043821137480088281A411036489F
:10CE000005F026FB6FF07F4006F0E8FE094806F0CB
:10CE1000F9FEC4EBC40040F3D90231462FA005F05F
:10CE20004DFA41F28830FEF70CF909B0F0BD000070
:10CE300088F80208E47304085354656D57696E005E
:10CE4000F01D0708556E6976657273616C20677214
:10CE5000617068696320736F6674776172650A66D2
:10CE60006F7220656D626564646564206170706CCA
:10CE700069636174696F6E7300000000FF882200AF
:10CE8000466F722053544D3332204D43552050721B
:10CE90006F6475637473202D20436F7274657820FE
:10CEA0004D33202D20436F72746578204D3400007F
:10CEB00078020708436F6D70696C6564204A756E6F
:10CEC00020323820323032302032333A30373A3064
:10CED0003000000070B40408585B05087777772E9F
:10CEE00073742E636F6D2F73746D33320000000006
:10CEF000F0B593B006460D463C2101A801F076FE40
:10CF0000F3F7C2F9F521B0FBF1F201FB1204AA48D4
:10CF100050F8241001A801F037FD00240BE0F3F7CE
:10CF2000B3F91A2190FBF1F201FB12004130C1B2BA
:10CF300006A80155641C052CF1DBF3F7A5F942F2B4
:10CF4000107190FBF1F201FB1200A0EB610422468C
:10CF50009AA10BA801F0F4FB002408E004EB840084
:10CF600001A901EB800010A941F82400641C032CE6
:10CF7000F4DB35B110AA0021304609F00FFF074657
:10CF800004E010A9304609F058FC0746384613B0B3
:10CF9000F0BD70B50546284609F0A8FE06460121F9
:10CFA00008F005FD012128460AF01BF8012128465A
:10CFB0000AF035F8052128460AF0A5F8052128468B
:10CFC0000AF08DF8002417E07D4800EB0410836818
:10CFD0007B4800EB04100268794800EB04104168BC
:10CFE000284609F0DEFB764800EB04102146C268B3
:10CFF000284609F0F9FF641C032CE5DB284609F0FC
:10D0000064FE70BD2DE9F14F82B04FF00008C146BB
:10D01000C246C3464FF0FF37002400BF04EB440074
:10D02000684901EB8000806838B104EB4401654A2F
:10D0300002EB81018868FEF773F804EB4400614954
:10D0400001EB8000406807285CD2DFE800F05B401D
:10D050004A3830340400029809F06FFE0646002575
:10D0600022E0594850F82A0000234A4641460090E1
:10D07000029809F0EEFF0AF101008246182801D15A
:10D080004FF0000A029809F04AFE08F101018846B3
:10D09000884201D14FF0000809F101008146B042F9
:10D0A00001D14FF000096D1CB542DAD32AE0029895
:10D0B00009F06EFE26E0029809F000FE22E08BF0F7
:10D0C000010B5A46394602980AF031F81AE0002559
:10D0D00004E000210298FFF70BFF6D1C282DF8D308
:10D0E00010E0781C08B9002706E07F1C029809F0C0
:10D0F00016FEB84200D100275A46394602980AF077
:10D1000016F800BF00BF04EB44012E4A52F821007C
:10D1100004F0ECFF601C0446212804D2FDF75AFD00
:10D1200000283FF47BAFBDE8FE8F2DE9FF4708F0F4
:10D130003BFF044608F044FF8046A4F1D20055218D
:10D14000B1EB600F01DA451002E0A4F591704510D3
:10D15000A8F14100C6100CF039F981464FF4007077
:10D1600000210222CDE90092CDE90210A8F1410090
:10D17000A0EB460306F14101D222284609F025FD25
:10D18000074638460CF070FF3846FFF702FF384676
:10D19000FFF738FF38460CF041F8BDE8FF8710B5BF
:10D1A0000AA115A0FDF7DDFF0120FDF780FFFDF7C7
:10D1B000CAFFFFF7BAFF10BDE80200202569000092
:10D1C000A8F80208D8F8020864FA020853686F77D2
:10D1D0007320736F6D652066656174757265732069
:10D1E0006F660A746865204C49535456455720773A
:10D1F00069646765740000004C69737476696577CB
:10D200002064656D6F0000002DE9F04F87B0054682
:10D210006868039028680F287ED1042202A9039829
:10D220000CF0D0F90298806800283AD103980CF0ED
:10D23000EFF90299086103980CF0FBF90299486133
:10D240000298C06A00680088029988600298C06AE3
:10D25000006840880299C86002990969029A926838
:10D26000881A00EBD0714910029A916102994969BC
:10D27000029AD268881A00EBD0714910029AD161E3
:10D280000299086900EBD0714910029A1162029963
:10D29000C86800EBD071029AD26902EB6101029A70
:10D2A0005162029800684FF46161484302994968ED
:10D2B00090FBF1F700243DE0F8486043029949688B
:10D2C00090FBF1F0F649394400EB0109484608F0BB
:10D2D00047F88046484607F07FFA06460298006BFA
:10D2E00004EB440100EB8100846002988169714382
:10D2F000026AA2EB21400299096B04EB440241F857
:10D3000022000298C06900FB08F000140299C96964
:10D3100048430299896900E0B0E090FBF1F002997E
:10D32000496A08440299096B04EB440201EB82014B
:10D330004860641C02984068A042BDDC00BF4FF00A
:10D34000000A002438E00298006B04EB440100EB73
:10D35000810041680298026B601C00EB400002EB08
:10D3600080004068814226DD0298006B04EB440196
:10D3700000EB8102D2E900109268CDE90502049128
:10D380000298006B04EB440100EB81010298026BF0
:10D39000601C00EB400002EB80030DCB0DC1029836
:10D3A000016B601C00EB400001EB800004A90EC97A
:10D3B0000EC04FF0010A641C02984068401EA04253
:10D3C000C1DCBAF1000FBAD100242BE0029B1B6B29
:10D3D00004EB440C03EB8C035B68DDF808C0DCF85D
:10D3E0000CB00BEBDB7CA3EB6C02029B1B6B04EB26
:10D3F000440C53F82CC0029B9B68019303EBD3733E
:10D40000ACEB6301029B1B6B04EB440C03EB8C0342
:10D410009B68DDF808C0DCF82CC05CF8330005F030
:10D4200017F8641C02984068A042CFDC0298806A1A
:10D43000D8B16FF07F4006F0D1FB022006F028FC47
:10D44000984806F0DFFB02990A6B4968491E01EB18
:10D45000410102EB81018968029AD26A02EBC101A3
:10D46000A0224868962104F029FFFF2006F0B6FBB1
:10D470005F2278218C4804F0EBFF00BF00BF07B0AB
:10D48000BDE8F08FF8B505466E68286830284ED1A3
:10D490000422694630460CF095F8EC68206820B10B
:10D4A000012807D0022840D13BE08048A0626420D8
:10D4B000E0613AE0606A00998862009800686168FB
:10D4C000084400990860009800680099496801EBD9
:10D4D000C10202EB0111B0EB810F0BDD0098006877
:10D4E0000099496801EBC10202EB0111A0EB810038
:10D4F000009908600098006800280BDA009800681E
:10D500000099496801EBC10202EB011100EB8100B7
:10D510000099086030460CF01FF807460CF02BFB12
:10D5200003E000980068206100BF00BF00BF00BF9B
:10D53000F8BD70B5044605F017FB05462E1900BF6F
:10D540000A2004F0D3FD05F00FFB0546B542F7DBDA
:10D55000FDF740FB70BD2DE9F04786B054480590BB
:10D5600009200599486053480599C86252480599B1
:10D57000086300200599086008F016FD0646C017EC
:10D5800006EB10700011C0EB001A08F019FD0646FA
:10D59000C01706EB9070801000EB40040BF016FFF4
:10D5A00006460420454903222346CDE90062CDE921
:10D5B0000210524614210A200BF04EFD0746264663
:10D5C000A04604203E490322CDE90072CDE90210B5
:10D5D00004EBD870431004EBD67041105246002083
:10D5E0000BF03AFD8146042205A938460CF016FEE0
:10D5F000042205A948460CF011FEFDF7EBFA10B124
:10D6000006B0BDE8F087C8231A46002148460CF052
:10D610001DFB4FF4FA60FFF78CFF30B148460BF06A
:10D62000FDFD38460BF0FAFDEAE74FF448731A4661
:10D63000002148460CF00AFB4FF4FA60FFF779FF2F
:10D6400030B148460BF0EAFD38460BF0E7FDD7E76E
:10D650004FF4FA631A46002148460CF0F7FA4FF4EB
:10D66000FA60FFF766FF30B148460BF0D7FD384649
:10D670000BF0D4FDC4E7C8235A42002148460CF001
:10D68000E5FA4FF4FA60FFF754FFD8B148460BF0C3
:10D69000C5FD38460BF0C2FDB2E70000407E050034
:10D6A000905F01009C0A070844430408010002003F
:10D6B0000CE3012058430408A0E2012009D200082D
:10D6C00085D400084FF448735A42002148460CF0B4
:10D6D000BDFA4FF4FA60FFF72CFF30B148460BF06B
:10D6E0009DFD38460BF09AFD8AE74FF4FA635A42E3
:10D6F000002148460CF0AAFA4FF4FA60FFF719FF30
:10D7000030B148460BF08AFD38460BF087FD77E7CD
:10D71000002513E064234FF4FA72002148460CF010
:10D72000CCFA4FF4FA70FFF704FF30B148460BF023
:10D7300075FD38460BF072FD62E76D1C052DE9DBC7
:10D7400048460BF06BFD38460BF068FD00BF57E70D
:10D7500010B5FDF7C7FC064906A0FDF702FD012044
:10D760000CF06EFAFFF7F7FE00200CF069FA10BD1E
:10D77000A85E070852616469616C204D656E750092
:10D780002DE9F04F85B008F00FFC029008F018FC6E
:10D7900001904FF0000A00250298471E412601988B
:10D7A000A0F13D0805F0A7F9049005F087F9039072
:10D7B000039806F013FAFDF737FC814600BF434695
:10D7C0003A463146284605F0F1F80AF1010AFDF71C
:10D7D0002BFC044609F16401601A0028EFDDA4EB7C
:10D7E0000904781B401CA8EB0601491C484300FBB8
:10D7F0000AF000900098B0FBF4F04FF47A7100FB4F
:10D8000001FB049806F0EAF9584605B0BDE8F08F30
:10D810002DE9F04796B02821684601F0E7F908F0B5
:10D82000C3FB054608F0CCFB044608F0B1FB80467C
:10D8300004F0C6F9A0450DDD0020ADF82800ADF8D4
:10D840002A0028B2ADF82C0020B2ADF82E000AA8AC
:10D8500006F0C2F95EA16AA0FDF783FC002608E08D
:10D860006A4951F8260004F00DFB0EA941F8260084
:10D87000761C082EF4DBFDF7D7FB0746002667E091
:10D8800006F007010EAA52F8210006F0A9F9F2F7F6
:10D89000FBFC90FBF5F105FB1100A94605EBD971E6
:10D8A000A0EB610000B2ADF83000F2F7EDFC90FBA8
:10D8B000F4F104FB1100A14604EBD971A0EB610067
:10D8C00000B2ADF83200F2F7DFFC90FBF5F105FB9A
:10D8D0001101BDF830001430084400B2ADF8340036
:10D8E000F2F7D2FC90FBF4F104FB1101BDF8320019
:10D8F0001430084400B2ADF83600BDF93630BDF939
:10D900003420BDF93210BDF9300005F04FF8BDF9F3
:10D910003400A84203DB681E00B2ADF83400BDF944
:10D920003600A04203DB601E00B2ADF83600BDF940
:10D930003000002802DA0020ADF83000BDF93600D2
:10D94000002802DA0020ADF8360005F015F8761C44
:10D95000FDF76AFBC01B41F28831884203DAFDF70C
:10D9600039F900288CD0FDF7C8FBFFF709FF824684
:10D97000002006F031F90020FDF799FB6FF07F40A1
:10D9800006F02CF9022006F083F9214806F03AF956
:10D99000052211461F4804F05BFD1FA16846FDF7F4
:10D9A00080FA51466846FDF754FA05F0BDF8201A92
:10D9B0004FEA600969104A46684604F07FFC4FF45C
:10D9C0007A60FDF73EFB04F0D7F916B0BDE8F087AA
:10D9D0004D756C7469206C6179657220636C697037
:10D9E00070696E670A486967686C79206F7074693E
:10D9F0006D697A65642064726976657273000000EF
:10DA0000486967682073706565640000C88105080F
:10DA1000E4730408B4810508506978656C732F734A
:10DA200065633A20000000002DE9F0478046D8F8F1
:10DA3000049008F0B9FA064608F0C2FA0446FE4817
:10DA400005884788D8F800000F286AD0B0F5806FA5
:10DA500010D0A0F20140002862D1F848006840B917
:10DA6000F748006828B90020F44908600220F4490A
:10DA7000086000BFF04805884788F0480068002823
:10DA80000BDA701BEF490968884234DB0020EB4950
:10DA90000860801EEA4908602DE0E9480068002817
:10DAA0000BDAE01BE8490968884224DB0220E349DD
:10DAB00008600020E24908601DE0E0480068002896
:10DAC0000ADDE0480068002815DB0020DB4908601B
:10DAD0000220DB4908600EE0D948006800280ADD12
:10DAE000D9480068002806DB6FF00100D3490860C0
:10DAF0000020D3490860AE4206DAD2480068CF4918
:10DB000009680844CF490860BC4206DACE4800687C
:10DB1000CB4909680844CC49086048460CF02BF80A
:10DB20004FE06FF07F4006F055F8AE4203DD701B0A
:10DB30004010C4490860BC4203DDE01B4010C249EC
:10DB40000860C1480268BF480168BB4804F080FC17
:10DB5000BC48006838B1631EBA480068421E002104
:10DB6000084604F055F9B74800682844B04207DA7F
:10DB7000631E721EB34909684819002104F048F970
:10DB8000B148006858B1B0480068431EAD4800680D
:10DB90002844421E0021AB48006804F039F9AA4825
:10DBA00000683844A0420BDA631EA6480068284487
:10DBB000421EA5480068C119A248006804F028F96F
:10DBC00000BF00BFBDE8F0872DE9F04106460C46D6
:10DBD000214630460BF010FC074638460AF0C1FAE1
:10DBE0000546B4F5987F03D0A4F2311078B905E06A
:10DBF0009648056030460BF0BEFF08E0944805608B
:10DC000030460BF0A9FC80460BF0B5FF00BF00BF0B
:10DC1000BDE8F0812DE9F0410446666820680F28D0
:10DC200033D01D2802D026283DD120E04FF4987132
:10DC300030460BF0E1FB8046FF22002140460AF00F
:10DC4000C5FA8248016840460AF0DCFA40F2311118
:10DC500030460BF0D1FB8046FF22002140460AF0FF
:10DC6000B5FA7B48016840460AF0CCFA1BE0A06890
:10DC70000BF0F3FB0746E568052D04D13946304625
:10DC8000FFF7A2FF00BF00BF0DE07049087805F064
:10DC900065FF704805F09EFF04F0ACF8002005F029
:10DCA0005DFFBDE8F08100BF6B48006818B12046F9
:10DCB00069490968884700BFF3E710B50446206842
:10DCC0000F2804D16249087805F048FF00BF00BF63
:10DCD000204601F0E7FB002005F040FF10BD2DE9D4
:10DCE000F04F87B008F060F983465C4801F0A6FF6A
:10DCF000022001F0BDFF4FF0FF11002001F094FF62
:10DD00004FF0FF11012001F08FFF0AF039FB049062
:10DD100052480AF03BFB4FF47F000AF03DFB0BF04A
:10DD200055FB4F4902900CF00BF903900BF04EFBA2
:10DD300040F2014102900CF0F2F8ABF1DC00372127
:10DD4000029000EBD070401000231A46CDE900018C
:10DD50000521444804F098F8804640460CF0FAF952
:10DD6000414940460CF0ECF840460BF023FB06908E
:10DD700006980CF0EFF93D4906980CF0E1F83649A9
:10DD800008601D2106980CF0CAF840460BF012FB03
:10DD90004FF4987102900BF02FFB814640460BF038
:10DDA00009FB40F2311102900BF026FB8246FDF791
:10DDB0003BF9064606F12800059000BF012004F05B
:10DDC00095F9FDF731F90446A51B05998C422EDB28
:10DDD00004F1280005900BF0F9FA4FF480610290ED
:10DDE0000CF09DF841F2883095FBF0F100FB1155E5
:10DDF0004010854207DAC5EB0520800042F2107121
:10DE000090FBF1F70AE0A5F6C410C0EB00208000FB
:10DE100042F2107190FBF1F0C0F1FF07394648461D
:10DE20000AF0F0F9C7F1FF0150460AF0EBF9FDF7EF
:10DE3000FBF8801B1CE000008CDC0508C8060020F5
:10DE4000CC060020D0060020D4060020BC0600200E
:10DE5000C0060020AAAAAA00C4060020EC2B0708CE
:10DE600029DA0008A0DC0508BBDC000815DC000886
:10DE700042F21071884203DAFCF7ACFE00289DD014
:10DE800040460BF0CBF9144801F0D8FE002001F019
:10DE9000EFFE1249002001F0C7FE4FF47F01012080
:10DEA00001F0C2FE04980AF071FA00200AF074FA38
:10DEB0000BF08CFA029003990CF042F807B0BDE821
:10DEC000F08F10B506A111A0FDF74BF9FDF70AF987
:10DED000FFF705FF10BD000070F506084040400048
:10DEE0005573657320616C70686120626C656E6447
:10DEF000696E670A666F72207472616E7370617208
:10DF0000656E637920656666656374005472616E40
:10DF100073706172656E74206469616C6F67000074
:10DF20002DE9F04104460D461646E069401CE061CB
:10DF30002169E069884201DB0020E061A168206876
:10DF4000084420602068A84206DDE169606950F855
:10DF50002100008840422060E169606950F821009A
:10DF6000008840422168884200DD2560E1686068E1
:10DF7000084460606068002802DAE0684042E060BF
:10DF8000E169606950F821004088301A6168884270
:10DF900002DAE0684042E060D4F81CC0676957F8D4
:10DFA0002C10D4E90023A06905F00EFDBDE8F08136
:10DFB000F8B50546FEA000231A4601210090284628
:10DFC0000AF097FC0446FDA002232246012100909E
:10DFD00028460AF08EFC0646FBA00123324619466D
:10DFE000009028460AF085FC064600221146284685
:10DFF0000AF098FB04460422214628460AF092FBC8
:10E000000446F3A0022322460121009028460AF08C
:10E0100070FC0646EFA001233246194600902846C0
:10E020000AF067FC0646ECA0012332461946009030
:10E0300028460AF05EFC0646E9A00123324619464E
:10E04000009028460AF055FC064604222146284640
:10E050000AF068FB0446E3A0022322460021009058
:10E0600028460AF046FC0646E0A00123324600217D
:10E07000009028460AF03DFC0646DEA00123324609
:10E080000021009028460AF034FC06460222214670
:10E0900028460AF047FB0446D9A002232246002165
:10E0A000009028460AF025FC0646D9A001233246F6
:10E0B0000021009028460AF01CFC0646D8A0012347
:10E0C00032460021009028460AF013FC0646022240
:10E0D000214628460AF026FB0446D5A00223224604
:10E0E0000021009028460AF004FC0646D3A0012334
:10E0F00032460021009028460AF0FBFB0646D2A0DB
:10E10000012332460021009028460AF0F2FB064621
:10E110000222214628460AF005FB0446CDA0022330
:10E1200022460021009028460AF0E3FB064605221D
:10E13000214628460AF0F6FA0446022221462846DD
:10E140000AF0F0FA0446C6A00223224600210090FD
:10E1500028460AF0CEFB0646C4A001233246002121
:10E16000009028460AF0C5FB0646012128460AF021
:10E1700001FC012128460AF003FC00221146284632
:10E180000AF0D0FA07460AF061FB28460BF06CFF54
:10E19000F8BD70B50446656820680F280BD01D28AF
:10E1A0000AD14FF4107128460BF026F90646304686
:10E1B000FFF7FEFE00E000BF00BF70BD2DE9F04795
:10E1C00086B0074688469146002400BFFCF72CFF26
:10E1D00004EB4401A84A52F82110461804EB44000D
:10E1E000114601EB8000806830B104EB440102EB82
:10E1F00081018868FCF794FF00BFFCF7EBFC10B1CD
:10E2000006B0BDE8F0870120FCF758FF60B100259B
:10E2100007E09A4901EB45104A464146FFF780FE68
:10E220006D1C022DF5D300BF642003F05FFFFCF7E7
:10E23000FBFEB042E1DB38460AF0D7FA824601A97C
:10E2400050460AF008FB04EB44008B4901EB8000C8
:10E25000406809283BD2DFE800F03A2A2E32361413
:10E260000F050A00002138460AF090FB2FE001213B
:10E2700038460AF08BFB2AE0012138460AF0A2FB5F
:10E2800025E0019868B1029828B17D4A01215046E5
:10E290000AF0FFFA0AE07B4A002150460AF0F9FA38
:10E2A00004E0794A022150460AF0F3FA0FE03846BA
:10E2B0000AF01CFB0BE038460AF030FA07E0504643
:10E2C0000AF0C4FA03E050460AF09CFA00BF00BF0F
:10E2D000601C04462B28FFF479AF00BF90E72DE9BE
:10E2E000F04F91B03822694903A800F023FC07F0F1
:10E2F0005BFE054607F064FE0646284605EBD07136
:10E30000491009B2ADF81A1030B2ADF81C00284619
:10E3100005EBD07149100AB2ADF8362031B2ADF834
:10E3200038100BF053F80446002000902346584A5A
:10E330000221019003A803F0A7FD074638460BF021
:10E3400039F8804640460BF063F9824640460BF0B0
:10E3500070F983464FF4107138460BF04DF8814642
:10E360005A46514648460BF02EFF0120FCF7A6FE08
:10E37000C0B1002413E0414B03EB44135A683F4BF8
:10E3800003EB441319683D4B03EB44135B691868B6
:10E3900005F0D8FA394901EB44118861641C022C5C
:10E3A000E9D300BF324629464846FFF707FF71E030
:10E3B0004C6F63616C206469736B00005069637417
:10E3C00075726573000000004D6F7669657300001B
:10E3D000424D5000474946004A5045470000000062
:10E3E000504E47004361742E626D7000446F672E7B
:10E3F000626D700046726F672E626D7000000000E3
:10E40000466C6F7763686172742E676966000000FE
:10E4100050726F6A656374732E676966000000004E
:10E42000496E7465726C616365642E67696600008D
:10E43000547265652E6A7065670000004E617475E0
:10E4400072652E6A706567005061756C2E6A706522
:10E4500067000000506172726F742E706E6700006A
:10E46000536D696C69652E6769660000436174735A
:10E470002E67696600000000B8E10608000700206A
:10E4800028DE050894DE050878DD0508BCE30608EB
:10E4900093E100080120FCF711FE58B1002406E0CA
:10E4A000114901EB4411886905F058FA641C022CEB
:10E4B000F6D300BF38460AF0B1FE11B0BDE8F08FC8
:10E4C00010B50A490AA0FCF74CFEFCF73CFE002000
:10E4D000FCF7EDFD03F074FBFFF701FF03F04CFCCC
:10E4E000FCF70BFE10BD0000000700207C60070851
:10E4F00054726565766965772064656D6F0000000C
:10E500002DE9F04104460D4617461E4600BF2C4437
:10E510002146002005F08EFB304603F0E7FDFCF7B6
:10E5200059FB10B10120BDE8F081781E071EEED125
:10E5300000BFF8E7F0B587B05F4903C9CDE9050131
:10E5400007F032FD064607F03BFD04465B4805F048
:10E5500059FB022005F09CFB0020ADF80C00ADF843
:10E560000E00701E00B2ADF81000601E00B2ADF8D3
:10E5700012006FF07F4005F031FB0E2203A950A07E
:10E5800003F0B6FEFA2003F0B1FDBDF80E00204402
:10E5900000B2ADF80E00BDF81200204400B2ADF894
:10E5A000120000206FF07F41CDE90010BDF912305C
:10E5B000BDF91020BDF90E10BDF90C0004F084F86F
:10E5C000032094FBF0F0BDF81210081A00B2ADF869
:10E5D00012004FF4004005F001FB0E2203A93CA0FD
:10E5E00003F086FE052094FBF0F700252AE005A83D
:10E5F00050F825303A4605210020FFF781FF012819
:10E6000001D107B0F0BD2146002005F013FBFA2030
:10E6100003F06CFD05A850F825303A466FF0040170
:10E620002046FFF76DFF012800D1EAE700210846E8
:10E6300005F000FBFA2003F059FDFCF7CBFA00B11E
:10E64000DFE76D1C022DD2D3002512E02146002009
:10E6500005F0F0FAC82003F049FD0021084605F056
:10E66000E9FAC82003F042FDFCF7B4FA00B1C8E7AC
:10E670006D1C052DEADB4FF47A70FCF7E2FC00BF5D
:10E68000BFE770B507F09CFC044607F081FC054627
:10E69000B5EB440F00DA70BD14A11EA0FCF761FDBC
:10E6A0000120FCF704FDFFF745FF0021084605F0B7
:10E6B000C1FA00BFEFE70000F4E30608EC400708EA
:10E6C00044656661756C742073637265656E0000E5
:10E6D0004865726520697320746865207669727474
:10E6E00075616C2073637265656E000044656D6FC3
:10E6F0006E7374726174657320686F7720746F2015
:10E700007573650A7669727475616C2073637265DE
:10E71000656E73005653637265656E2064656D6F38
:10E7200000000000704700000FB4044910B503AAB0
:10E73000029800F05FFB10BC5DF814FB7400002031
:10E740000FB41CB5074B06AA7B4469460090059898
:10E7500000F021FB0020694600F030FB1CBC5DF896
:10E7600014FB0000710600002DE9F0410E4604463E
:10E77000002020622046E168884730B3252805D074
:10E78000D4E901219047206A401CF2E7E168204665
:10E7900000278847050018D0A5F14100192802D8A4
:10E7A00020354FF400673246294620462760F1F7AE
:10E7B00045FD40B1012804D0F61D26F007060836B5
:10E7C000D8E7361DD6E72846DAE7206ABDE8F081AB
:10E7D00070B50C460546012A05D02878800600D57C
:10E7E000EA69002302E0012305E05B1C934202D2A8
:10E7F000E05C0028F9D1A869E618C01AA861286A67
:10E80000184428622846AFF3008004E0D5E90121CE
:10E8100014F8010B9047B442F8D32846AFF30080B8
:10E8200070BD00002DE9F0410646002410687529EE
:10E83000314616A510D0AFF30080002802DA40421E
:10E8400013A507E031688A0701D512A502E0490740
:10E8500004D511A5012401E0AFF3008000210A22B4
:10E8600006F1240709E0B0FBF2FCB0FBF2F302FB77
:10E870001C00303078541846491C0028F3D1234638
:10E880002A463046BDE8F04100F027BA00000000FB
:10E890002D0000002B0000002000000070B5044691
:10E8A0000D4621461068AFF300802188090502D586
:10E8B0000F4A7A4402E00E4A7A440E32002104F1F3
:10E8C000240305E000F00F060009965D5E54491C24
:10E8D0000028F7D120780023000704D5702D02D03E
:10E8E00009B1022311322046BDE8704000F0F5B9AD
:10E8F000CF6B06000B4910B5A1F17C020A4CC2E9AE
:10E900003712372106E000EB104342F82130074B65
:10E9100000FB03400B1EA1F10101F4DC10BD01203E
:10E92000E8E7000060E70120E119D666CD0D01009F
:10E9300040EA010310B59B070FD1042A0DD310C87C
:10E9400008C9121F9C42F8D020BA19BA884201D9CE
:10E95000012010BD4FF0FF3010BD1AB1D30703D016
:10E96000521C07E0002010BD10F8013B11F8014BCC
:10E970001B1B07D110F8013B11F8014B1B1B01D1E8
:10E98000921EF1D1184610BD40EA0103024630B58F
:10E990009B0710D14FF0013400E008C208C91D1BCD
:10E9A0009D4315EAC41FF8D013F0FF0102F8011BC4
:10E9B0000DD01B0AF8E711F8013B002B02F8013BD0
:10E9C00005D011F8013B002B02F8013BF3D130BD1B
:10E9D00010B5431C02E010F8011B71B18107FAD198
:10E9E0004FF0013202C88C1A8C4314EAC211F9D0DC
:10E9F000C01A0A0603D0C01E10BDC01A10BD0A04FA
:10EA000001D0801E10BD0902FCD0401E10BD421E68
:10EA100012F8013F002BFBD111F8013B002B02F84B
:10EA2000013BF9D17047032A40F2308010F0030C0B
:10EA300000F0158011F8013BBCF1020F624498BF51
:10EA400011F801CB00F8013B38BF11F8013BA2F1EE
:10EA5000040298BF00F801CB38BF00F8013B11F069
:10EA6000030300F06780083AC0F0088051F8043BC7
:10EA7000083A51F804CBA0E80810F5E7121D5CBF76
:10EA800051F8043B40F8043BAFF30080D20724BFA9
:10EA900011F8013B11F801CB48BF11F8012B24BF3D
:10EAA00000F8013B00F801CB48BF00F8012B70478C
:10EAB000431A28BF9A427FF6B6AF032A1044114486
:10EAC00040F2268010F0030F1EBF11F8013D521EC8
:10EAD00000F8013D10F0030F7FF4F6AF11F00303CF
:10EAE00000F0AD81083AC0F00B8051F8043D083ABF
:10EAF00051F804CD40F8043D40F804CDFFF7F3BFD2
:10EB0000121D5CBF51F8043D40F8043DAFF3008096
:10EB1000D20724BF11F8013D11F801CD48BF11F80B
:10EB2000012C24BF00F8013D00F801CD48BF00F8DA
:10EB3000012C704710B5203AC0F00B80B1E8185096
:10EB4000203AA0E81850B1E81850A0E81850BFF4D7
:10EB5000F5AF5FEA027C24BFB1E81850A0E8185076
:10EB600044BF18C918C0BDE810405FEA827C24BFCA
:10EB700051F8043B40F8043B08BF7047D20728BF58
:10EB800031F8023B48BF11F8012B28BF20F8023BA7
:10EB900048BF00F8012B704702F0FF0343EA03224D
:10EBA00042EA024200F002B84FF000020429C0F02D
:10EBB000128010F0030C00F01B80CCF1040CBCF1AF
:10EBC000020F18BF00F8012BA8BF20F8022BA1EB01
:10EBD0000C0100F00DB85FEAC17C24BF00F8012BE6
:10EBE00000F8012B48BF00F8012B70474FF00002DE
:10EBF00000B5134694469646203922BFA0E80C5033
:10EC0000A0E80C50B1F12001BFF4F7AF090728BF0D
:10EC1000A0E80C5048BF0CC05DF804EB890028BF89
:10EC200040F8042B08BF704748BF20F8022B11F0B2
:10EC3000804F18BF00F8012B704700004FF0013CD7
:10EC400050F8042B51F8043B9A4221D1A2EB0C035B
:10EC5000934313EACC1317D150F8042B51F8043B1B
:10EC60009A4215D1A2EB0C03934313EACC130BD1B8
:10EC700050F8042B51F8043B9A4209D1A2EB0C0343
:10EC8000934313EACC13DBD04FF00000704700BF72
:10EC9000D01A01BAB1FA81F101F0180122FA01F09B
:10ECA000CB40C1F12001DBB2C0B2C01A2CFA01F393
:10ECB000D11A914311EAC311E6D1704770477047EA
:10ECC0007047704710B500F0E5F8006810BD10B54A
:10ECD000044600F0DFF8046010BD2DE9F0470D4652
:10ECE00099469246044600F124080168880604D536
:10ECF000E06921F01001216000E00120A84201DD5F
:10ED0000471B00E00027A1697A1902EB0900081AE5
:10ED1000A0612078C00602D42046AFF30080002610
:10ED200008E0D4E901211AF806009047206A401C47
:10ED3000761C20624E45F4DB2078C0060AD52046BA
:10ED4000AFF3008006E0D4E9012130209047206A2B
:10ED5000401C2062381EA7F10107F4DC07E0D4E96B
:10ED6000012118F805009047206A401C2062281EE7
:10ED7000A5F10105F3DC2046AFF300802078000602
:10ED800002D50220BDE8F0870120FBE701694A1C9B
:10ED900002610878704700B58FB0CDE901310021DC
:10EDA000059105497944CDE9031011466846FFF7FE
:10EDB000DBFC0FB000BD0000E5FFFFFF0A6802F8B2
:10EDC000010B0A60704710B5436913B1AFF30080BF
:10EDD00001E0FFF7FDFC012010BD127800F12401D5
:10EDE0000A7000224A700122EDE711684FF0FF32ED
:10EDF000E9E70000074B70B50D467B44FFF7CBFFFA
:10EE00000446284600F04AF810B14FF0FF3070BDBC
:10EE1000204670BD8DABFFFF431A28BF9A427FF694
:10EE200089AE104410F0030F11441EBF11F8013DCC
:10EE3000521E00F8013D10F0030F7FF4F6AF103AB8
:10EE4000C0F00A8010B531E91850103A20E9185086
:10EE5000BFF4F9AFBDE81040530724BF31E90810F3
:10EE600020E9081044BF51F8043D40F8043D12F079
:10EE7000030F08BF7047D20728BF31F8023D48BFD3
:10EE800011F8012C28BF20F8023D48BF00F8012CE2
:10EE90007047000000487047C8E70120007B00F081
:10EEA0008000704700487047C8E701207546FFF7AB
:10EEB000F9FFAE4605006946534620F00700854637
:10EEC00018B020B5F8F792FCBDE820404FF00006DE
:10EED0004FF000074FF000084FF0000B21F0070142
:10EEE000AC46ACE8C009ACE8C009ACE8C009ACE885
:10EEF000C0098D46704710B50446AFF30080204628
:10EF0000BDE81040F1F7B9B9002800DC4042704775
:10EF100038B5456804460146284609F097FD0028A3
:10EF20002BD02068304A11280DD006DC0B2825D0C4
:10EF30000E2833D00F2852D112E0282849D0B0F53E
:10EF4000107F4CD108E09268002A16D0214628464E
:10EF500001B0BDE830401047214628465268F7E727
:10EF6000284602F0CBFB0090406E0468684602F031
:10EF70001DFC002C01D02846A04738BD284602F0D1
:10EF8000BDFB0090683002F013FB009803216C3049
:10EF900002F016FB684602F009FC20E0E1684868D0
:10EFA00009680D2902D0202913D105E0002810DDC1
:10EFB000284614F0DAFB06E0002804DD2846BDE808
:10EFC000384014F0D2BB2846BDE83840022114F086
:10EFD000E2BBE06818B90021284600F08FF920460E
:10EFE000BDE838400AF0E6B8AC080020F0B50446A9
:10EFF00085B08069B4F90850668A0027CDE90265BA
:10F00000CDE900170490B4F90C00B4F91060C118F0
:10F01000B4F90A00B4F90E50104433462A4600F001
:10F0200007F80546616800F07FF905B02846F0BD95
:10F03000F0B585B00C46DDE90D51DFF854C04C3118
:10F04000DDE90A67CDE902C12146CDE900670AF092
:10F0500003F8040018D002F051FB10222946049056
:10F0600009F036FF049830220A493430FFF762FD78
:10F07000084D04990C3D2868486604A802F096FBE8
:10F08000286841682046884705B02046F0BD00004A
:10F0900011EF0008B8080020F0B5044680688B49DD
:10F0A00089B051F82050606800287DD0052804D030
:10F0B00006287AD0122879D1AEE0E86900284FD02E
:10F0C00095E80E008DE80F0004F110010FC905F05E
:10F0D000ABFD002655F8260004F080FDA169E86923
:10F0E0000A1A216901446069304403F045FBA169B3
:10F0F000E8690A1A21690144E069801B03F03CFBBE
:10F10000E169E8690A1A616901442069304403F041
:10F11000D3FBE169E8690A1A61690144A069801BAF
:10F1200003F0CAFB761C022ED4DBA86804F056FD5F
:10F13000E069E9696669431A206942183144801C14
:10F14000521E03F033FCE169E869A2690B1A616998
:10F150000144101A401C921E03F028FCEE6913E0D3
:10F160005FF0000655F8260004F038FDE069831BC7
:10F17000A069821B606981192069304403F05EFB3D
:10F18000761C022EEEDB0226D5E90301CDE9000153
:10F190006169E06908444310A069891C821B2069E9
:10F1A000304403F091FA02E089E012E08AE0D5E908
:10F1B0000501CDE90001E36960690121184401EB13
:10F1C0006001A0699B1E821B2069304403F07CFA19
:10F1D00078E0206802F092FA049020680BF04EFB71
:10F1E00040B1A06808B1002008E00498006F28B181
:10F1F000012003E00498406F00B10220049901EB64
:10F200008000C56E04A802F0D1FA00231A462846F1
:10F21000216802F033FF55E0206802F06FFA049095
:10F22000866EEEB3B0F95C70A168D1B3032942D009
:10F230005FF0000100EB8101406D0C6C04F0E2FC1A
:10F24000204604F0CBFC05A803F050FCBDF81410D8
:10F25000A88B0144ADF81410BDF81810081AADF8C9
:10F260001800BDF81600801CADF81600BDF81A0095
:10F27000801EADF81A000498B0F96020B0F95E1055
:10F2800005A804F06FFA04A802F090FA022004F036
:10F29000FFFC304602F032FA3A4605A9079001E039
:10F2A0000BE006E003F024F80DF11C0002F07EFAFA
:10F2B00008E00121BEE70221BCE704A8F6E72068C8
:10F2C0000AF048FF09B00020F0BD0000F84107082F
:10F2D000044A0349116004494A6A4862104670476B
:10F2E000E8080020AC080020B808002000294FF0F2
:10F2F000100101D009F034BC09F085BB4FF48072D5
:10F300000029114601D009F02BBC09F07CBB00009C
:10F310000348024941600349816070476F4E02080B
:10F32000AC0800205D4802082DE9FF410E460500AB
:10F330004FF001041CD002F0E1F90190876E01A8A2
:10F34000009702F033FA3146684605F0D3FF78B1F2
:10F3500000980024B84208D0284602F0CFF9019066
:10F360000099816601A802F021FA28460AF003FC00
:10F3700004B02046BDE8F0817CB5214C05462168EB
:10F3800031F8220F4A8D104408804888CA8D1044F5
:10F390004880284603F09AFB2168498CADF800109C
:10F3A0004618284605F034FE3044401EADF80400EF
:10F3B00003F0BAFB2168898CADF802100844401EA6
:10F3C000ADF8060068460BF0E5F804E0284600F0CA
:10F3D00029FE0BF05DF80028F8D10A2D04D0BDF805
:10F3E00004002168401C4884206830F8221F428DA8
:10F3F000891A01804188C28D891A41807CBD000034
:10F40000900700202DE9FC5F15460746DFF8908045
:10F4100028440190D8F800201C460E46526E214424
:10F42000894652689047D8F80020781B4946526EAA
:10F43000824652689047711938190090D8F8002018
:10F440008946526E52689047D8F80020711B8B464F
:10F45000526E009852689047002C1ED0D8F80010C9
:10F46000361B4546496E01984A68314690472A68DE
:10F4700031465046526E5268904728683C1B4946B8
:10F48000406E4268204690472A6859462046526E90
:10F49000526802B0BDE8F05F1047BDE8FC9F000075
:10F4A000900700202DE9F047456804468EB00027FC
:10F4B000284602F023F90090B0F87CA0D0F86890BC
:10F4C000D0F88080D0F88860C06D00B107686846C9
:10F4D00002F06CF905E0716820468847002841D1A8
:10F4E0003668002EF7D12068172852D00CDC0F2880
:10F4F0003BD004DC0B2874D00D283AD189E01128C8
:10F5000010D0142835D13AE0262845D004DC1E2836
:10F510004FD020282DD188E02A2814D0B0F5107FB4
:10F5200027D127E02846E66802F0E8F80190717AD2
:10F5300039B9317A012904D130F87C1F41F4807146
:10F54000018001A88EE0284602F0D8F80090E1681A
:10F5500011B1C0F8841002E0D0F88400E060684681
:10F5600002F024F90EB0BDE8F087002F7CD02846C9
:10F57000B84779E02146284615F0E2F9F2E705A9F7
:10F58000284600F0FDFBE06806990160079941609C
:10F59000E8E7C4F80C90E5E7E0680228E2D10C95B2
:10F5A000E0680D9027200A900AA9A0680BF08EFB56
:10F5B000D8E7E068012804D00021284600F02FFB9E
:10F5C000D0E740460AF039FB60B140460AF04CFDF6
:10F5D00040460AF007FA90B10121404609F0C0FA0E
:10F5E0000DE04BE048460AF08DFD8046284602F0CB
:10F5F00085F80090C0F88080684602F0D7F80121B5
:10F60000284600F00CFBB8F1000FABD10020E06001
:10F61000A8E75FEA0A7027D4E068C06820B3007AE0
:10F6200010B328460AF020FD1EE0E668E6B1294640
:10F6300070680BF00CF920B10121284616F06EFE1F
:10F6400012E00021284616F069FE294630680BF0CA
:10F65000EDF848B1284602F051F803903168C0F83F
:10F66000801003A802F0A2F82146284609F0EEF91E
:10F6700000288DD0204609F09DFD73E7284602F052
:10F680003DF80090703001F093FF6846EAE7F0B56E
:10F6900087B0B0F908400DF10C0C0C9E87694568E5
:10F6A0008CE8F000448A0025CDE900150294B0F9F9
:10F6B0000C10B0F91050B0F90E40B0F90A0019441E
:10F6C00010442B46224600F003F807B0F0BD0000BE
:10F6D0002DE9F0478AB00DF14C0CDDE917849CE868
:10F6E0006006129F45F48055DFF8BCC06034CDE958
:10F6F00002C4CDE9007509F0AFFC04004FD001F061
:10F70000FDFF30224946049009F0E2FB04982822CC
:10F7100026493430FFF70EFA0498244FC0F864806D
:10F72000A0F87C600026C0F88060C666083FC0F87C
:10F7300088607968C16504A802F038F805A92046F8
:10F7400000F01EFB1A4841F2827103960094CDE945
:10F750000110BDF91E00BDF91A10BDF91C20431A95
:10F76000BDF918005B1C121A521C09F075FC064604
:10F770007868416820468847204601F0BFFF049022
:10F78000866604A802F012F842F20400054202D193
:10F79000204609F0A5FD5146204600F0A9FA0AB01E
:10F7A0002046BDE8F0870000A5F400087C09002091
:10F7B0003BFF00082DE9F041044694B0006800F0DA
:10F7C000B7F908B1D94D01E0D84D2C35606815283E
:10F7D0001ED00CDC0B281FD004DC00287ED00528AE
:10F7E0007DD12FE10E287BD01228F9D141E11628D6
:10F7F00006D0172808D0182808D01C28F0D109E016
:10F80000E86914B0BDE8F081286AFAE7686AF8E7A9
:10F81000A86AF6E76869F4E720680B901C200C9052
:10F82000206801F06BFF0390016D0BA88847064626
:10F8300003A801F0BBFF022E0FDB95E807008DE85F
:10F840000700D4E904023346A16905F0BBF9206939
:10F850008719A069A0EB06082CE0286804F0BEF91F
:10F860002169E8690A18521E606902F085FFA269E1
:10F87000E869111A491C606902F07EFFD4E90407A7
:10F880007F1C394602F0BAFF3946A06902F0B6FF84
:10F89000686804F0A3F920693946401C02F0AEFF05
:10F8A000A0693946401E02F0A9FFA0692769A0F1AE
:10F8B0000208BF1C286804F091F942463946606985
:10F8C00002F05AFF686804F089F9606942463946D7
:10F8D000401C02F051FF686A022802E015E1B0E026
:10F8E00000E10BDDA86804F079F961696A6A881C97
:10F8F0008B180146424638465B1E27E0296AB14212
:10F9000026DD6069022E074600F1020801DB37445C
:10F9100001E007F10207206901DB304401E000F15A
:10F92000020022693B460A444146A2F1010203F06B
:10F930003DF8022E02DBA069821B01E0A269921E43
:10F94000A069E9693B46401A4146401C03F02EF885
:10F95000022E02DB6069064401E06669B61CE769B5
:10F9600028687F1E04F03AF93A463146206902F0D1
:10F97000A3FF3A463146A06902F09EFFE769686836
:10F98000BF1E04F02BF920693A463146401C02F0B4
:10F9900093FFA0693A463146401E02F08DFFE869A8
:10F9A000022802DC286A022823DDA86A022802DD78
:10F9B000E1690F1A01E0E769BF1EA86804F00EF9BB
:10F9C000E969022909DD20693B46421800F1020C71
:10F9D00031466046521E02F0E9FF286A022808DD1F
:10F9E000A269E8693B46101A3146401C921E02F09B
:10F9F000DDFF286804F0F2F8D4E90620216902F05E
:10FA0000BBFE686804F0EAF8D4E906202169401ECC
:10FA1000491C521E02F0B0FEA86A022811DDA1693D
:10FA20002669E469A1F10208271AA41EB61C7F1CEE
:10FA3000A86804F0D3F8234642463946304602F01F
:10FA4000B5FF71E0208A00B2ADF81400A18A09B2B6
:10FA5000ADF81610228B12B2ADF81820A38B1BB292
:10FA6000ADF81A302C69ED68CDE9005402F02CFE97
:10FA70005AE0208A298B0844ADF81400A08AADF81A
:10FA80001600208B298B401AADF81800A08BADF81A
:10FA90001A00206801F032FE0390006FF0B10220DE
:10FAA00004F0F6F8039890F87C10C1F3C00100EB65
:10FAB0008100006C04F092F80398406B04F0A2F807
:10FAC0000398006F01F01AFE03990990B1F95A20CA
:10FAD00005A902F00DFC09A801F068FE03A801F0D9
:10FAE00065FE21E0208AADF81400A08AADF816006A
:10FAF000208BADF81800A08BADF81A00A86804F0B0
:10FB00006DF805A802F076FF0EE0206801F0F6FD22
:10FB1000039030F85A1F41F00C01018003A801F056
:10FB200045FE20680AF016FB00206AE6B8090020AE
:10FB300038B5002450B101F0E1FD009090F87C0050
:10FB4000000700D50124684601F030FE204638BD8C
:10FB5000022905D2034A52F821102C22FEF7EABFEF
:10FB6000704700000842070830B504468BB00068B3
:10FB700001F0C4FD009090F87C10246A006FC1F37E
:10FB8000C00508B101F0BAFD0690E0680290206956
:10FB90000390A088401EADF81000E089ADF8120077
:10FBA0002089401CADF81400608AADF81600BDF83D
:10FBB0000800401CADF80800BDF80A00401CADF874
:10FBC0000A00BDF80C00401EADF80C000098406B18
:10FBD00004F018F8009808AA02A9B0F95A3006985B
:10FBE00004F04CFC009800EB8500806B06F080FB75
:10FBF000009800EB8500006C06F0B2FB08AB02AA8F
:10FC000004A9069809F07EF8684601F0CFFD069831
:10FC100010B106A801F0CAFD0BB0002030BD0028CD
:10FC200001D016F07BBB7047022803D2024A02EBD8
:10FC300080004160704700007C0900200149086095
:10FC4000704700007C090020074A0649054B1160F7
:10FC5000064A083BD16958601B68C2E9063008466D
:10FC600070470000AC090020780900207C090020C2
:10FC7000024AB2F92610D084084670477C09002059
:10FC800038B50D46040009D001F038FD0090056636
:10FC9000684601F08BFD204609F06DFF38BD00007D
:10FCA00070B50D460146022D1ED2104C2C2254F880
:10FCB0002500FEF73FFF54F825100220CA69022AEA
:10FCC00000DAC86154F825100A6A022A00DA0862CC
:10FCD00054F825104A6A022A00DA486254F82510BE
:10FCE0008A6A022A00DA886270BD000008420708AA
:10FCF0007CB50D46040019D001F000FD0090006FA6
:10FD00000190684601F052FD294601A805F0F2FA7B
:10FD100000280BD0204601F0F1FC0090019901670A
:10FD2000684601F043FD204609F025FF7CBD38B54B
:10FD30000C4605000ED001F0E1FC0090B0F95A101D
:10FD4000A14204D0A0F85A40284609F014FF6846A2
:10FD500001F02CFD38BD38B50C4605000FD001F080
:10FD6000CDFC0022009000EB8201521C0C64022AA0
:10FD7000F9D3684601F01AFD284609F0FCFE38BDAB
:10FD80002DE9F34F85B000270C46B846059801F0E1
:10FD9000B5FC0090C06D0121856805982A689047E0
:10FDA00082462A6803210598904704902A68022118
:10FDB0000598904703902A680021059890470646C9
:10FDC00000980AF0D8FB834600980AF0DBFB8146D6
:10FDD000009890F83210890601D5B0F9588000F0EB
:10FDE00036F805460098C06E10B109F022FC0746AF
:10FDF00025806780A4F804A0049AABEB020006EB10
:10FE00000802401E2A4420813A44E280039BA9EB69
:10FE10000302521E6281A4F80CA020827019E681B0
:10FE2000401E6082684601F0C1FCB4F90C000190EC
:10FE3000B4F91000029002AA01A9059800F03AF85E
:10FE40000198A0810298208207B0BDE8F08F10B51C
:10FE50000146002091F83220920607D5B1F95400EE
:10FE6000002803D1486B02F0A8FE801C10BD70B5BD
:10FE70008AB00C46054601F041FC0990C06D8668C9
:10FE800009A801F093FC009534B1012C06D0022C96
:10FE90000BD0032C04D10AE0182000E016200190BA
:10FEA0007168684688470AB070BD1520F7E71720CB
:10FEB000F5E700002DE9FC4117468846044601F0AD
:10FEC0001DFC0090C16D056868468E6801F06EFCEF
:10FED00032680021204690470646204609F094FAF1
:10FEE00027E000BF01F00AFC0190B0F900102AB22F
:10FEF000B0F90430891A9A1AB0F90230A3EB2543FD
:10FF0000B34210D190F82800000605D53868884221
:10FF100009DB491E396006E0D8F80000904202DC97
:10FF2000521CC8F8002001A801F040FC204609F04E
:10FF3000FBFA0400D6D1BDE8FC812DE9F04304466C
:10FF4000406885B0064609F007FB814601F0D6FB04
:10FF50000090D0F88080876C456E684601F026FCE2
:10FF60002068172859D008DC0E2837D00F280BD06E
:10FF7000142852D015283AD14FE01E2818D01F2837
:10FF800027D0222833D146E06FF07040874204D05A
:10FF9000384606F0ADF901F02DFF002D12D0D4E95E
:10FFA00002122068CDE90106CDE9031201A822E082
:10FFB000E068002806D05FEA080006D0B04504D00B
:10FFC0000AF052F805B0BDE8F08330460AF09AF81E
:10FFD00016E02146484608F039FDF3E7E06841683D
:10FFE000002904DD00680928EFD00A2805D0A5B152
:10FFF0002046C4F80490A847E4E730460AF08AF89F
:020000040801F1
:100000000446484601F07AFB0090C0F880406846FC
:1000100001F0CCFBD6E7E760D4E7204609F0CAF848
:10002000D0E7000010B504460A280FD00D2C11D0DF
:1000300009480068C0690168204688470748016888
:10004000002907D02046BDE810400847BDE8104011
:1000500002F088B810BD000090070020B80700200B
:100060002DE9F0430446C56887B0904689460020D4
:1000700003F0C6FD064625B1287910B146F002000E
:1000800001E026F0020003F0BBFD2069012558B114
:10009000D4E902128DE8260003956388228804685B
:1000A00041464846A0471EE0124F134B2146386890
:1000B0001B68427CE068984730B9E088012801D08D
:1000C000002001E03868806BA288E388A168009571
:1000D000CDE90410CDE902320195638822884146BA
:1000E000484605F0F9FC07B03046BDE8F04303F0A0
:1000F00087BD000090070020880700202DE9F04709
:100100008146884640F2C32050434FF47A7190FBF9
:10011000F1F502FB02F002EBD27100EB610617462B
:100120000023414648466D1CFFF76CF9012413E09B
:1001300004FB04F007FB0700B04206DD3B46224605
:1001400041464846FFF75EF97F1E3B462246414640
:100150004846FFF757F9641CAC42E9DDBDE8F0877B
:100160001CB50024019401AC009400F0E7F81CBD1C
:100170002DE9FF4F83B0814606988A46A0EB0A0816
:10018000109E00200090A2EB09043568934654EAC3
:10019000080018D02046FEF7B7FE07464046FEF797
:1001A000B3FE87420BDA2046444680464846D14695
:1001B00082465846DDF818B0069001200090002CC9
:1001C00007DD204606E007B04846BDE8F04F00F0E6
:1001D0003BB96042A0420AD04846D9466442C8F1C1
:1001E000000883464FF0FF37DDF818A000E0012734
:1001F0005148B8F1000F11D004EBD4714FEA610BF4
:1002000001DACBF1000B4C480068807E88B3002FE8
:1002100002DA30682044306000257BE00099002934
:10022000016821D0897E11B10027804615E007B012
:100230005A4649465046BDE8F04F05F0AFBD284646
:100240006D1C16F0BDFA38B9D8F8000009EB0701AB
:10025000406E4268504690477F1CA742EFDD6D1EFE
:10026000356007B0BDE8F08F8A7E1AB1002780465E
:1002700017E019E0486E5A465146036807B04846F1
:10028000BDE8F04F184728466D1C16F099FA38B9AA
:10029000D8F8001009EB0700496E4A6851469047AC
:1002A0007F1CA742EFDDDAE700250FE008FB05B071
:1002B00090FBF4F101EB0A00009951B11E4A09EBE1
:1002C00005011268526E526890476D1CA542EDDD23
:1002D000C7E7194909EB05030968496E4A680146F1
:1002E0001846F1E708FB05B090FBF4F101EB0A00BA
:1002F000019030683844306016F062FA48B90098CE
:1003000090B10D4809EB05010068406E4268019804
:1003100090476D1CA542E5DD3068002F01DA2044CE
:100320003060C01B30609CE7034909EB0500096899
:10033000496E4A680199EBE7900700202DE9FF47D5
:100340000F4640491646804609680C981D460A7EAD
:10035000012A1CD0A8EB0600791B50EA01031CD02F
:10036000A2F1010917F072FF00F58060824605F0E6
:10037000EAF800FB09F4504605F0EAF800FB09F141
:10038000002C0CDAC4F50070801240420AE00090A4
:10039000324639464046FFF7EBFEBDE8FF8704F5DD
:1003A0000074A012002904DAC1F5007189124C42D0
:1003B00002E001F500718C12002804DD411C01EB04
:1003C000D171491003E000EBD0714910401E00EBE1
:1003D000D0704210002C04DD601C00EBD070401087
:1003E00003E004EBD4704010641E04EBD47308EBFC
:1003F0000104ADF800403C18ADF80240A8EB02043F
:100400005B10B21AADF80440ADF808203144FC1A74
:10041000EA1AADF80C102844ADF80A20ADF80E0029
:100420000023ADF806401A460421684600F08CF817
:10043000394640460FF008FB294630460FF004FBD2
:10044000ABE7000090070020064A13681A7E012AD5
:1004500005D0521E02EBD272521000F005B85A6E4F
:1004600052681047900700202DE9F05F0646884645
:1004700040F2C32002FB00F14FF47A7091FBF0F7D9
:1004800002FB02F102EBD27001EB600B1446B118D3
:10049000234A301B7F1C1268526E13680A4641467D
:1004A0009847012538E000BF05FB05F004FB040177
:1004B00059451CDDBC4219DD194B06EB050AA6EBBC
:1004C00005091B68AAF1010208EB04015B6E09F142
:1004D00001001B689847124BAAF10102A8EB040126
:1004E0001B6809F101005B6E1B689847641E0C4B8A
:1004F0003219301B1B68924608EB05015B6E814682
:100500001B689847064B5246A8EB05011B684846F6
:100510005B6E1B6898476D1CBD42C5DDBDE8F09F52
:100520009007002070B514460E4605460119001BC1
:1005300000F09EFF22463146284610F0F3FBBDE84E
:10054000704000F0B5BE00002DE9FF4F43F6FF7488
:100550000F46664283B09B46814600210BE000BFF8
:1005600009EB8100B0F90200A04200DA0446B04273
:1005700000DD0646491CB942F2DB67480068406965
:1005800000280DD0B0F906101A46A1EB0B01B142BC
:1005900000DA0E46B0F90200801AA04200DD0446DF
:1005A000B4E0DFF878A100200546CAF8000088E032
:1005B000781E854201DA6B1C00E0002309EB850CF4
:1005C00009EB8302BCF90200B2F90210A04244D147
:1005D000A14215D139F92330059A39F9251003EBD9
:1005E000020C4D4A05981268084404EB0B01526E48
:1005F0006045136801DA62462AE00246604627E059
:100600002846A4464FF000087A1E0BE008B1401EB1
:1006100000E0781E09EB8003B3F90230634504D192
:1006200008F101089045F1DB2346A34248D01A1B8C
:1006300039F92500A1EB040C059B92EA0C0F09D4B3
:10064000354A184404EB0B011268526E13680246D7
:10065000984735E00AF050FC32E0A14230D001DB8F
:10066000A04203DDA0422BDBA14229DCE046884208
:100670000ADC0346A04223DC0846A14220DBB8F98D
:1006800000C0B2F9001008E00B46A14218DCA042FD
:1006900016DBB2F900C0B8F90010E21AA1EB0C01A8
:1006A00051430029A0EB030202DD01EB620102E0ED
:1006B000A1EB6201491CC01A91FBF0F06044C9E74C
:1006C0006D1CBD42FFF674AF0598009004EB0B0063
:1006D000019000208046054613E01149B8F1000F53
:1006E00031F915A009D0009901EB0A0208440A4922
:1006F0000968496E0B680199984788F001085046CF
:100700006D1C064909688D42E7DB641CB4427FF723
:1007100048AF07B0BDE8F08F90070020440D0020DF
:10072000FCE5012010B5002003F054FA6FF07F4083
:1007300003F054FA012003F099FA002003F09EFA26
:10074000002003F0A5FA002003F05AFA04480068DC
:1007500003F058FABDE81040002003F063BA00002F
:100760008C07002033B583B0040016D000F0C6FF1C
:100770000190456E01A801F019F8049800F0BEFF41
:1007800000908460684601F011F8042204A928460C
:1007900001F030F8204609F0EEF905B030BD33B570
:1007A00083B0040016D000F0A9FF0190856E01A867
:1007B00000F0FCFF049800F0A1FF00908460684600
:1007C00000F0F4FF042204A9284601F013F82046A3
:1007D00009F0D1F905B030BD2DE9F04104460025FE
:1007E000D4E90007B0F5407F00D101252146384605
:1007F00008F02CF9064615B1384612F013FD002E0C
:100800002FD02068052806D00B280ED00F2806D040
:10081000262821D10EE0384612F004FD1CE03846AF
:10082000E168BDE8F04113F0B2BA3846BDE8F041E6
:1008300012F0CEBFE06805280ED1384608F0B9FEA8
:10084000A168884205D0384608F0AAFEA16888420F
:1008500002D1606814F024F82046BDE8F04108F0A9
:10086000A9BCBDE8F081F0B585B00DF1280C9CE87D
:10087000F0004FF0000C8DE8F01000F003F805B028
:10088000F0BD00002DE9F04186B00DF1300CDDE93E
:100890000F849CE8E0006C34DFF850C003948DE8CE
:1008A000601008F0D9FB04001BD000F0E0FF054603
:1008B00000F0DDFF0646204600F020FF0490C0E96E
:1008C00019560022414608F003FB049830220849DB
:1008D0003430FEF72FF90498A0F8787004A800F0DF
:1008E00065FF06B02046BDE8F0810000D907010889
:1008F000100A002003B583B000F000FF009060B143
:10090000406A00F0FBFE01460190022304AA009811
:1009100000F07EF901A800F049FF684600F046FFAC
:1009200005B000BD2DE9F043814685B01D469046D7
:100930000F462C2000F0F9FD060024D0780000F0CE
:10094000F4FD04000ED0B8F1000F0BD055B12046D5
:1009500000F0D4FE6A0041460090FEF764F8684655
:1009600000F024FF304600F0C9FE0949029000F172
:100970000C02446282E8A202064901600649416015
:1009800002A800F013FF05B03046BDE8F083000078
:100990002D2D0208393F02086138020812F060BFAD
:1009A0002DE9FC478946070026D000F0A7FE0190FC
:1009B000466E01A800F0FAFE304600F0ACFF054696
:1009C000002414E02146304600F0B1FF70B100F081
:1009D00095FE0090D0F80080684600F0E7FEC8451C
:1009E00004D12146304600F06DFF02E0641CAC42A9
:1009F000E8DB384609F0BFF8BDE8FC872DE9FC4785
:100A00008946070026D000F079FE0190866E01A885
:100A100000F0CCFE304600F07EFF0546002414E0D6
:100A20002146304600F083FF70B100F067FE009071
:100A3000D0F80080684600F0B9FEC84504D12146D0
:100A4000304600F03FFF02E0641CAC42E8DB384671
:100A500009F091F8BDE8FC872DE9F8430746984670
:100A600015460E46302000F060FD040015D000F061
:100A700045FE0090C0E905768584094AB7EE000A74
:100A8000C0F81C8080ED0A0AD2E90012C0E9031206
:100A900004490160684600F089FE2046BDE8F883FD
:100AA000400A00201140020800F05ABD38B50D463A
:100AB000002460B100F022FE0090046AAC4203D032
:100AC0000562806809F057F8684600F06FFE20461E
:100AD00038BD38B50D46002460B100F00FFE00901F
:100AE0004469AC4203D04561806809F044F8684627
:100AF00000F05CFE204638BD2DE9F8431D46DDF8C8
:100B0000208016460F46040010D000F0F7FD00903C
:100B1000C0F860804765C0E91665684600F046FE8B
:100B2000204612F07FFB204609F025F8BDE8F88347
:100B3000F8B515460E4607004FF0000410D000F03F
:100B4000DDFD0090042D08D200EB8500446BB4421B
:100B500003D04663384609F00EF8684600F026FEDA
:100B60002046F8BDF8B50D4606004FF000040CD045
:100B700000F0C4FD0090446CAC4203D045643046A4
:100B800008F0F9FF684600F011FE2046F8BDF8B500
:100B90000D4606004FF000040CD000F0AFFD0090B1
:100BA000846CAC4203D08564304608F0E4FF6846AC
:100BB00000F0FCFD2046F8BDF8B50D4606004FF0EC
:100BC00000040CD000F09AFD0090046DAC4203D0FC
:100BD0000565304600F04EF8684600F0E7FD204617
:100BE000F8BDF8B50D4606004FF000040ED000F039
:100BF00085FD009090F86C40AC4204D080F86C50B9
:100C0000304608F0B8FF684600F0D0FD2046F8BD39
:100C10002DE9F041044680681D4617460E4600281F
:100C200026D0D4E9040290420ED1521E6A437119B3
:100C30003046FDF73DFF20692A46401E05FB006057
:100C40003946FDF735FF0EE005FB0013401C20611F
:100C50002A4639461846FDF72BFFE16819B12046B0
:100C6000BDE8F0410847A068BDE8F04100F002B8D7
:100C7000BDE8F08110B58AB0044600F03FFD09A937
:100C800004AACDE9002105AB089006AA07A911F036
:100C9000F4FA08A800F08AFD02A9204608F0F2FB49
:100CA000BDF8080007990844ADF80800BDF80A002F
:100CB00006990844ADF80A00BDF80C000599401AE1
:100CC000ADF80C00BDF80E000499401AADF80E0006
:100CD00002A9204608F014FF0AB010BD2DE9F04F1C
:100CE000DFF828B191B04FF0FF35DBF80030B3F9F1
:100CF00022100691DE69B3F92490F469A18981423A
:100D000006D8E289824203D3471AD4F8008012E061
:100D1000D4E9018100296FD00A8882426CD84D88BD
:100D2000854269D3801A82B2486800EB8200B0F92C
:100D30000070B0F90250781C5ED0307EA17C10FBB0
:100D400001FA217CCDE90701B3F92A60304605F0AC
:100D500019FBC0B20E90DBF8000007FB0A81A37CF0
:100D6000826B0127CDE90412CDE90273C069089AAC
:100D7000C17E807ECDE90001DDE90603494604F02D
:100D8000ABFE681C18D046F0020005F0FBFADBF859
:100D90000000A37C05FB0A81826BCDE90273CDE9DB
:100DA0000412C069089AC17E807ECDE90001DDE9A8
:100DB0000603494604F090FEDBF800005D46C0697A
:100DC000417E007E814214D9022E12D086F00400AA
:100DD00005F0D8FA2868C069027EC37E12FB039131
:100DE000437E857E089A06984B4412FB050204F068
:100DF000FFFF0E9805F0C6FADBF80000627C418C1C
:100E00001144418411B0BDE8F08F0000900700202C
:100E100004480068C069C06909B1027C0A60407C6E
:100E20007047000090070020022008807047C069CA
:100E300082898A4202D8C2898A4210D2806880B1EF
:100E400002888A420DD843888B420AD3406800EB5F
:100E50008100A0EB8200B0F90000002801DB012036
:100E60007047002070470000F0B52C4D044687B055
:100E700028682146B0F92A60C069C06900F0C4F949
:100E8000002848D041680088201A00EB400001EBA0
:100E900080042078C01C8708304605F073FA0646A7
:100EA0001F48D0F800C0BCF1000F1AD00021A06884
:100EB000CDE904010222012001A9009081E885000A
:100EC000286894F90320DCF80070B0F92410B0F918
:100ED0002200114494F90220637810442278B84724
:100EE00011E0A068CDE90070286894F903206378C8
:100EF000B0F92410B0F92200114494F902201044F2
:100F0000227800F0C9FA304605F03CFA28682279C8
:100F1000418C1144418407B0F0BD000090070020CF
:100F2000C8070020F0B52C4D044687B0286821463C
:100F3000B0F92A60C069C06900F066F9002848D09D
:100F400041680088201A00EB400001EB8004207803
:100F5000401C4708304605F015FA06461F48D0F8F1
:100F600000C0BCF1000F1AD00021A068CDE9040137
:100F70000422012001A9009081E88500286894F9E5
:100F80000320DCF80070B0F92410B0F922001144FD
:100F900094F90220637810442278B84711E0A068E1
:100FA000CDE90070286894F903206378B0F9241023
:100FB000B0F92200114494F902201044227800F084
:100FC0007DFA304605F0DEF928682279418C11441B
:100FD000418407B0F0BD000090070020C807002042
:100FE0002DE9F043304C034687B020681946B0F92C
:100FF0002A60C069C06900F040F9002850D04168FB
:101000000088181A01EBC0053046AF7805F0BAF930
:10101000814620686A680123816BCDE90237CDE9FA
:101020000421C169CB7E8A7ECDE900230B7EB0F915
:1010300024102A78B0F9220004F04EFD2068C0691F
:10104000417E027E91421FD9C07E11FB00F812FB47
:1010500000F7022E18D001F04EFD064601F02EFDDD
:1010600002F0BCFD21682A78CB69B1F92200DB7E51
:1010700012FB0302B1F9241001EB0803394404F018
:10108000B7FE304602F0AAFD484605F07BF920681D
:101090006A78C369B0F922109B7E12FB0311418468
:1010A00007B0BDE8F08300009007002030B5104C79
:1010B00005460B4620682946C069C06900F0A4F8BF
:1010C000002814D0416800882468281A00EB4002E8
:1010D0000420E46900EB8200085CA47E10FB04F0AD
:1010E000002B04D011F8221011FB04F1196030BD5F
:1010F0009007002003460C4810B500680C461946BE
:10110000C069C06900F080F858B141680088181AB9
:1011100000EB400001EB800007C884E807000020D6
:1011200010BD012010BD00009007002001200880A4
:10113000704700B5C06900F067F8002800D00120B2
:1011400000BD00002DE9F3411C4E0F46002530681C
:101150002C46C069417EC07E11FB00F81DE0684648
:1011600002F0DCFF054630682946C069C06900F01E
:101170004BF890B141680088281A00EB400001EB61
:10118000800090F90210007908443168C969897EAD
:1011900010FB01F0002800DD04447F1EDFD51DB1E7
:1011A000284603F035FF0444414620460AF05CFC23
:1011B000034901200870BDE8FC8100009007002071
:1011C000080800202DE9F3410D4D0E4F0E4628680A
:1011D000B0F92A40A0070AD17A680098904706E043
:1011E000684602F09BFF2968C96909688847761E2E
:1011F000F6D50020387028684485BDE8FC810000E1
:10120000900700200808002006E002888A4202D8E1
:1012100042888A4202D280680028F6D170470000D6
:1012200030B50F4C05460B4620682946C069C06999
:1012300000F023F8002812D04168008824682A1A98
:101240000120E46900EBC200085CA47E10FB04F0FE
:10125000002B04D011F8321011FB04F1196030BDDD
:101260009007002001200880704700B5C06900F099
:1012700004F8002800D0012000BD06E002888A4260
:1012800002D842888A4202D280680028F6D170478C
:1012900002490020096881F8690070479007002022
:1012A00002490120096881F8690070479007002011
:1012B00010B510F077F90448016A044800684166E7
:1012C00000F10801416110BD400700209007002097
:1012D0007CB514460D46064609F0FAF8064409F0B6
:1012E00005F905441548006890F8691021B990F88F
:1012F00068104E434D434C43301B00F059F8ADF895
:101300000000301900F054F8ADF80400281B00F07C
:101310004FF8ADF80200281900F04AF8ADF80600C1
:10132000684609F037F906E0224629463046FFF7BD
:10133000F9F809F0ADF80028F6D17CBD900700203F
:101340002DE9FC471C4615468846814609F0C0F841
:10135000054409F0CBF80444002009F01BF90028EB
:101360001FD0114E114F12213068407C57F82000D9
:101370000190C068426A01A890475FEA000C06D05D
:101380002B464246494600940198E04705E0234633
:101390002A46414648460FF035FD09F079F8002805
:1013A000E1D1BDE8FC87000090070020A8070020DD
:1013B0000449096891F8681009B190FBF1F000B296
:1013C00070470000900700202DE9F041224C0546AF
:1013D0000E462068002788B920480068E06110B9EF
:1013E00004F0D3FDE06100F0F9F8206080B31A4901
:1013F0001B4824310860084603F03CFF1948006888
:10140000854200DA0546E169731B4A1E2046934275
:1014100001DD6E18761EAE4201DA2E460127124C0F
:101420002268516E4B68836301620B490F4B343164
:101430000B60516602C880E862000AF001FB09F007
:101440001DFF054821682C3048613846BDE8F08111
:10145000FFE70127D2E7000040070020BC0700207B
:1014600089380208C00700209007002085F701088E
:10147000044A126892F8682090FBF2F091FBF2F1B6
:10148000FFF7A2BF900700200249096881F86800B1
:1014900009F0F4BE900700207CB5074EDDE9065444
:1014A0003668367CCDE90054B60702D40DF0EAFB6D
:1014B0007CBD0DF039FC7CBD900700207CB5084E4A
:1014C000DDE906543668367CCDE90054B60702D40F
:1014D0000DF08CFC7CBD034C2468A0477CBD000053
:1014E00090070020CC0C0020F8B505460C000DD06C
:1014F000084600F015F8060010D000F0FFF822466C
:1015000000902DB12946FDF78EFA04E00020F8BDC9
:10151000002103F09AFF684600F048F93046F8BD14
:10152000002801D009F014BE704738B50546FFF712
:10153000F7FF040009D000F0E1F82A4600210090EE
:1015400003F083FF684600F031F9204638BD000003
:10155000024A106021F0030050607047FCE3012054
:1015600010B5002814D004460A48006B10F8341057
:1015700000290DD002290BD2042101EBC4014158EE
:10158000486809F0D5FC2046BDE8104014F020BDA5
:1015900010BD000040E30120002805D0034A916BF4
:1015A000016001B1486090637047000040E3012092
:1015B00010B504460068FFF7D3FF0020206010BD7F
:1015C00070B50D460646002405E000BF06EB84001A
:1015D000FFF7EEFF641CAC42F8DB70BD2DE9F04173
:1015E000044611F003FB2848E41C24F00305C16BFA
:1015F0002D1DA94200D90D46846B13E054F8042C2C
:10160000AA420ED184B1216809B162684A6061685A
:1016100009B122680A60826BA24231D121688163DC
:101620002EE02468002CE9D18046416B80680F18B9
:1016300057F8040C3E1A306838B1002014F07CFDD5
:1016400057F8040C3E1A3068D0B97068A84217DB0E
:101650003044441B3046241D14F026FDD8F80810F1
:10166000491BC8F80810D8F810102944C8F8101001
:101670007068401B02D0314609F05AFC44F8045C03
:101680002046BDE8F081000040E3012010B50024B1
:1016900011F0ACFA0C490F2001EBC002126C1AB128
:1016A00001EBC000006C08E0401EF5D508E0416881
:1016B000A14200D90C46806810B180680028F6D19C
:1016C000A4F10C0010BD000040E3012003480068B5
:1016D0000C38002800DC00207047000040E30120A7
:1016E000002138B10449042202EBC000096B0858FC
:1016F00041680C390846704740E3012005498A6972
:10170000521C8A61096B01EBC0010A78521C0A70F5
:1017100000F064B840E301207CB506460C4608465C
:10172000FFF7FEFE05001CD0DEB13046FFF7D8FF04
:10173000A04200DA04462846FFF7E0FF009030465A
:10174000FFF7DCFF0146019022460098FDF76BF998
:10175000684600F02BF801A800F028F83046FFF7A3
:10176000FFFE28467CBD000010B5FFF78FFF642206
:101770000649B0F5800F04D990FBF2F0C9694843DF
:1017800010BDC9694143B1FBF2F010BD40E3012037
:101790000549102805D94A68B0EB520F02D350080A
:1017A00000E0102088607047FCE301200A490268CD
:1017B0000B6B52F8082C03EBC2021378022B03D3F5
:1017C0008B690BB15B1E8B611178491E1170002172
:1017D000016008467047000040E30120002806D061
:1017E0000349042202EBC000096B08580830704717
:1017F00040E301202DE9FC414FF000060B465FEA73
:10180000000834462BD032B111461846FFF76CFE63
:10181000060000D101244046FFF770FF00900788C2
:1018200045686846FFF7C2FFCCB9B9002846091DD4
:10183000FFF772FF050015D0FFF760FF019040F839
:10184000276001A8FFF7B2FF4046FFF757FF00905F
:1018500045600188491C01806846FFF7A7FF2046C4
:10186000BDE8FC813046FFF77BFE0124F7E7082046
:10187000FFF75BBE7CB5050023D0FFF73FFF00906C
:101880004068C0B1FFF73AFF0024019005E00198DD
:1018900000EB8400FFF78CFE641C00980088A042D7
:1018A000F5DC01A8FFF782FF0098001DFFF780FE1E
:1018B0000099002008806846FFF778FF2846FFF768
:1018C0004FFE7CBD1CB50C46FFF718FF0090018849
:1018D000A1421CD94068D0B1FFF710FF019000EB86
:1018E0008400FFF765FE00990888401E80B20880DA
:1018F000401E019906E000BF01EB8402526841F8E6
:101900002420641C8442F7DD01A8FFF74FFF6846DE
:10191000FFF74CFF1CBD38B5002430B1FFF7EEFED9
:10192000009004886846FFF741FF204638BD38B56F
:101930000D46002448B1FFF7E1FE2946009000F073
:10194000B4F804466846FFF731FF204638BD38B585
:101950000D46002448B1FFF7D1FE2946009000F063
:10196000B6F804466846FFF721FF204638BD2DE94A
:10197000FE430C465FEA00083DD0FFF7BFFE009033
:10198000068847686846FFF711FFB44233D2B000BB
:10199000001DFFF7CAFD05002DD0FFF7AFFE019037
:1019A0003846FFF7ABFE01460290A2000198FDF712
:1019B000C1F8301B8200029800EB8401019800EB13
:1019C0008400001DFDF7B6F801A8FFF7EFFE02A89E
:1019D000FFF7ECFE3846FFF7C3FD4046FFF78EFEEB
:1019E000009045600188491C01806846FFF7DEFED3
:1019F0000120BDE8FE830020FBE72DE9F0411546FC
:101A00000E4607460024FFF7B2FF30B12B460022F6
:101A10003146384600F004F804462046BDE8F0811F
:101A20002DE9FE43984691460D460024D0B3FFF7BA
:101A300065FE01900788466801A8FFF7B7FEBD4222
:101A400030D27EB33046FFF759FE009050F8254063
:101A50006846FFF7ABFE24B12046FFF741FE404544
:101A600011D04046FFF761FD04000CD03046FFF76F
:101A700045FE00EB850500902846FFF799FD684676
:101A80002C60FFF793FEB9F1000F0BD054B1204644
:101A9000FFF734FE424649460290FCF7C4FF02A815
:101AA000FFF784FE2046BDE8FE8338B50D46018869
:101AB0000024A94209D9406838B1FFF71FFE009001
:101AC00050F825406846FFF771FE204638BD10B536
:101AD0000024FFF7EAFF10B1FFF710FE044620468E
:101AE00010BD70B50C46054601F0B8F8C1B22346EA
:101AF0002846BDE870400022AFF30080F0B52D27E6
:101B00001C68B0F1004F08D0002600280DDA651CD3
:101B10001D6027704042012408E0651C01261D60FD
:101B20006FF000402770491E01E00024091BC9B274
:101B30002AB3491EC9B222E00C46491EC9B29442DA
:101B400005D1124C27781C68651C1D602770104C4D
:101B500054F8215090FBF5F4E4B20A2C11D804FBA0
:101B6000150011B90EB1641CE4B20A2C02D1012493
:101B7000491CC9B21D686F1C30341F602C700029CD
:101B8000DAD1196800200870F0BD00008407002039
:101B90009444070810B5002807DD0A682B24531C5D
:101BA0000B601470096800220A7010BD034900EB35
:101BB000800001EB800040797047000078E401204C
:101BC00002480068407C00F003B800009007002045
:101BD00070B5054600EB85011048002600EB810436
:101BE0006671236953B150F82100E268816840684A
:101BF000521AA168091A184601F016FF284600F08B
