Component: ARM Compiler 5.06 update 6 (build 750) Tool: armlink [4d35ed]

==============================================================================

Section Cross References

    main.o(.text) refers to delay.o(.text) for delay_init
    main.o(.text) refers to misc.o(.text) for NVIC_PriorityGroupConfig
    main.o(.text) refers to usart.o(.text) for uart_init
    main.o(.text) refers to led.o(.text) for LED_Init
    main.o(.text) refers to ili93xx.o(.text) for TFTLCD_Init
    main.o(.text) refers to touch.o(.text) for TP_Init
    main.o(.text) refers to sram.o(.text) for FSMC_SRAM_Init
    main.o(.text) refers to timer.o(.text) for TIM3_Int_Init
    main.o(.text) refers to stm32f4xx_rcc.o(.text) for RCC_AHB1PeriphClockCmd
    main.o(.text) refers to malloc.o(.text) for mem_init
    main.o(.text) refers to wm_setcreateflags.o(i.WM_SetCreateFlags) for WM_SetCreateFlags
    main.o(.text) refers to gui_core.o(i.GUI_Init) for GUI_Init
    main.o(.text) refers to guidemo.o(.text) for GUIDEMO_Main
    main.o(.text) refers to gui_exec.o(i.GUI_Exec) for GUI_Exec
    system_stm32f4xx.o(.text) refers to system_stm32f4xx.o(.data) for SystemCoreClock
    led.o(.text) refers to stm32f4xx_rcc.o(.text) for RCC_AHB1PeriphClockCmd
    led.o(.text) refers to stm32f4xx_gpio.o(.text) for GPIO_Init
    key.o(.text) refers to stm32f4xx_rcc.o(.text) for RCC_AHB1PeriphClockCmd
==============================================================================

Removing Unused input sections from the image.

    Removing main.o(.rev16_text), (4 bytes).
    Removing main.o(.revsh_text), (4 bytes).
    Removing stm32f4xx_it.o(.rev16_text), (4 bytes).
    Removing stm32f4xx_it.o(.revsh_text), (4 bytes).
    Removing system_stm32f4xx.o(.rev16_text), (4 bytes).
    Removing system_stm32f4xx.o(.revsh_text), (4 bytes).
    Removing led.o(.rev16_text), (4 bytes).
    Removing led.o(.revsh_text), (4 bytes).
    Removing key.o(.rev16_text), (4 bytes).
    Removing key.o(.revsh_text), (4 bytes).
    Removing key.o(.text), (224 bytes).
    Removing key.o(.data), (1 bytes).
    Removing sram.o(.rev16_text), (4 bytes).
    Removing sram.o(.revsh_text), (4 bytes).
    Removing ili93xx.o(.rev16_text), (4 bytes).
    Removing ili93xx.o(.revsh_text), (4 bytes).
    Removing 24cxx.o(.rev16_text), (4 bytes).
    Removing 24cxx.o(.revsh_text), (4 bytes).
==============================================================================

Image Symbol Table

    Local Symbols

    Symbol Name                              Value     Ov Type        Size  Object(Section)

    ../clib/angel/boardlib.s                 0x00000000   Number         0  boardinit1.o ABSOLUTE
    ../clib/angel/boardlib.s                 0x00000000   Number         0  boardshut.o ABSOLUTE
    ../clib/angel/boardlib.s                 0x00000000   Number         0  boardinit2.o ABSOLUTE
    ../clib/angel/boardlib.s                 0x00000000   Number         0  boardinit3.o ABSOLUTE
    ../clib/angel/dczerorl2.s                0x00000000   Number         0  __dczerorl2.o ABSOLUTE
    ../clib/angel/handlers.s                 0x00000000   Number         0  __scatter_zi.o ABSOLUTE
    ../clib/angel/kernel.s                   0x00000000   Number         0  __rtentry2.o ABSOLUTE
    ../clib/angel/kernel.s                   0x00000000   Number         0  __rtentry.o ABSOLUTE
    ../clib/angel/kernel.s                   0x00000000   Number         0  rtexit.o ABSOLUTE
    ../clib/angel/kernel.s                   0x00000000   Number         0  __rtentry4.o ABSOLUTE
    ../clib/angel/kernel.s                   0x00000000   Number         0  rtexit2.o ABSOLUTE
    ../clib/angel/rt.s                       0x00000000   Number         0  rt_errno_addr_intlibspace.o ABSOLUTE
    ../clib/angel/rt.s                       0x00000000   Number         0  rt_errno_addr.o ABSOLUTE
    ../clib/angel/rt.s                       0x00000000   Number         0  rt_raise.o ABSOLUTE
    ../clib/angel/scatter.s                  0x00000000   Number         0  __scatter.o ABSOLUTE
    ../clib/angel/startup.s                  0x00000000   Number         0  __main.o ABSOLUTE
    ../clib/angel/sys.s                      0x00000000   Number         0  sys_stackheap_outer.o ABSOLUTE
    ../clib/angel/sys.s                      0x00000000   Number         0  libspace.o ABSOLUTE
    ../clib/angel/sys.s                      0x00000000   Number         0  use_no_semi_2.o ABSOLUTE
    ../clib/angel/sys.s                      0x00000000   Number         0  use_no_semi.o ABSOLUTE
    ../clib/angel/sys.s                      0x00000000   Number         0  indicate_semi.o ABSOLUTE
    ../clib/angel/sysapp.c                   0x00000000   Number         0  sys_command.o ABSOLUTE
    ../clib/angel/sysapp.c                   0x00000000   Number         0  sys_wrch.o ABSOLUTE
    ../clib/armsys.c                         0x00000000   Number         0  _get_argv_nomalloc.o ABSOLUTE
    ../clib/armsys.c                         0x00000000   Number         0  argv_veneer.o ABSOLUTE
    ../clib/armsys.c                         0x00000000   Number         0  no_argv.o ABSOLUTE
    ../clib/armsys.c                         0x00000000   Number         0  argv_veneer.o ABSOLUTE
    ../clib/fenv.c                           0x00000000   Number         0  _rserrno.o ABSOLUTE
    ../clib/heapalloc.c                      0x00000000   Number         0  hrguard.o ABSOLUTE
    ../clib/heapaux.c                        0x00000000   Number         0  heapauxi.o ABSOLUTE
    ../clib/libinit.s                        0x00000000   Number         0  libshutdown2.o ABSOLUTE
    ../clib/libinit.s                        0x00000000   Number         0  libshutdown.o ABSOLUTE
    ../clib/libinit.s                        0x00000000   Number         0  libinit2.o ABSOLUTE
    ../clib/libinit.s                        0x00000000   Number         0  libinit.o ABSOLUTE
    ../clib/memcpset.s                       0x00000000   Number         0  rt_memclr_w.o ABSOLUTE
    ../clib/memcpset.s                       0x00000000   Number         0  rt_memclr.o ABSOLUTE
    ../clib/memcpset.s                       0x00000000   Number         0  rt_memcpy_v6.o ABSOLUTE
    ../clib/memcpset.s                       0x00000000   Number         0  strncpy.o ABSOLUTE
    ../clib/memcpset.s                       0x00000000   Number         0  rt_memmove_v6.o ABSOLUTE
    ../clib/memcpset.s                       0x00000000   Number         0  strcmpv7m.o ABSOLUTE
    ../clib/memcpset.s                       0x00000000   Number         0  aeabi_memset.o ABSOLUTE
    ../clib/memcpset.s                       0x00000000   Number         0  rt_memmove_w.o ABSOLUTE
    ../clib/memcpset.s                       0x00000000   Number         0  rt_memcpy_w.o ABSOLUTE
    ../clib/printf.c                         0x00000000   Number         0  _printf_intcommon.o ABSOLUTE
    ../clib/printf.c                         0x00000000   Number         0  _printf_char_common.o ABSOLUTE
    ../clib/printf.c                         0x00000000   Number         0  _sputc.o ABSOLUTE
    ../clib/printf.c                         0x00000000   Number         0  _printf_char.o ABSOLUTE
    ../clib/printf.c                         0x00000000   Number         0  __printf_ss_wp.o ABSOLUTE
    ../clib/printf.c                         0x00000000   Number         0  __printf_flags_ss_wp.o ABSOLUTE
    ../clib/printf.c                         0x00000000   Number         0  _printf_hex_int_ptr.o ABSOLUTE
    ../clib/printf.c                         0x00000000   Number         0  __printf_wp.o ABSOLUTE
    ../clib/printf.c                         0x00000000   Number         0  _printf_hex_int_ll.o ABSOLUTE
    ../clib/printf.c                         0x00000000   Number         0  _printf_hex_ptr.o ABSOLUTE
    ../clib/printf.c                         0x00000000   Number         0  __printf_flags_ss.o ABSOLUTE
    ../clib/printf.c                         0x00000000   Number         0  noretval__2printf.o ABSOLUTE
    ../clib/printf.c                         0x00000000   Number         0  __printf_flags_wp.o ABSOLUTE
    ../clib/printf.c                         0x00000000   Number         0  _printf_hex_ll_ptr.o ABSOLUTE
    ../clib/printf.c                         0x00000000   Number         0  noretval__2sprintf.o ABSOLUTE
    ../clib/printf.c                         0x00000000   Number         0  _printf_hex_int_ll_ptr.o ABSOLUTE
    ../clib/printf.c                         0x00000000   Number         0  __printf_flags.o ABSOLUTE
    ../clib/printf.c                         0x00000000   Number         0  __printf_ss.o ABSOLUTE
    ../clib/printf.c                         0x00000000   Number         0  _printf_hex_ll.o ABSOLUTE
    ../clib/printf.c                         0x00000000   Number         0  __2sprintf.o ABSOLUTE
    ../clib/printf.c                         0x00000000   Number         0  __2printf.o ABSOLUTE
    ../clib/printf.c                         0x00000000   Number         0  __printf_nopercent.o ABSOLUTE
    ../clib/printf.c                         0x00000000   Number         0  _printf_hex_int.o ABSOLUTE
    ../clib/printf.c                         0x00000000   Number         0  _printf_char_file.o ABSOLUTE
    ../clib/printf.c                         0x00000000   Number         0  _printf_str.o ABSOLUTE
    ../clib/printf.c                         0x00000000   Number         0  _printf_dec.o ABSOLUTE
    ../clib/printf.c                         0x00000000   Number         0  __printf.o ABSOLUTE
    ../clib/printf_percent.s                 0x00000000   Number         0  _printf_x.o ABSOLUTE
    ../clib/printf_percent.s                 0x00000000   Number         0  _printf_s.o ABSOLUTE
    ../clib/printf_percent.s                 0x00000000   Number         0  _printf_i.o ABSOLUTE
    ../clib/printf_percent.s                 0x00000000   Number         0  _printf_percent.o ABSOLUTE
    ../clib/printf_percent.s                 0x00000000   Number         0  _printf_d.o ABSOLUTE
    ../clib/printf_percent.s                 0x00000000   Number         0  _printf_percent_end.o ABSOLUTE
    ../clib/signal.c                         0x00000000   Number         0  defsig_rtmem_outer.o ABSOLUTE
    ../clib/signal.c                         0x00000000   Number         0  defsig_pvfn_inner.o ABSOLUTE
    ../clib/signal.c                         0x00000000   Number         0  defsig_rtmem_inner.o ABSOLUTE
    ../clib/signal.c                         0x00000000   Number         0  defsig_abrt_inner.o ABSOLUTE
    ../clib/signal.c                         0x00000000   Number         0  __raise.o ABSOLUTE
    ../clib/signal.c                         0x00000000   Number         0  defsig_general.o ABSOLUTE
    ../clib/signal.c                         0x00000000   Number         0  defsig_rtred_inner.o ABSOLUTE
    ../clib/signal.c                         0x00000000   Number         0  defsig_stak_inner.o ABSOLUTE
    ../clib/signal.c                         0x00000000   Number         0  defsig_other.o ABSOLUTE
    ../clib/signal.c                         0x00000000   Number         0  defsig_segv_inner.o ABSOLUTE
    ../clib/signal.c                         0x00000000   Number         0  defsig_cppl_inner.o ABSOLUTE
    ../clib/signal.c                         0x00000000   Number         0  defsig_rtmem_formal.o ABSOLUTE
    ../clib/signal.c                         0x00000000   Number         0  defsig_exit.o ABSOLUTE
    ../clib/signal.c                         0x00000000   Number         0  defsig_fpe_inner.o ABSOLUTE
    ../clib/signal.s                         0x00000000   Number         0  defsig.o ABSOLUTE
    ../clib/stdio.c                          0x00000000   Number         0  ferror_locked.o ABSOLUTE
    ../clib/stdio.c                          0x00000000   Number         0  ferror.o ABSOLUTE
    ../clib/stdlib.c                         0x00000000   Number         0  rand.o ABSOLUTE
    ../clib/stdlib.c                         0x00000000   Number         0  exit.o ABSOLUTE
    ../clib/stdlib.c                         0x00000000   Number         0  rand.o ABSOLUTE
    ../clib/string.c                         0x00000000   Number         0  strlen.o ABSOLUTE
    ../clib/string.c                         0x00000000   Number         0  strcat.o ABSOLUTE
    ../clib/string.c                         0x00000000   Number         0  strcpy.o ABSOLUTE
    ../clib/string.c                         0x00000000   Number         0  memcmp.o ABSOLUTE
    ../fplib/d2f.s                           0x00000000   Number         0  d2f.o ABSOLUTE
    ../fplib/daddsub.s                       0x00000000   Number         0  daddsub_clz.o ABSOLUTE
    ../fplib/dcmpi.s                         0x00000000   Number         0  dcmpi.o ABSOLUTE
    ../fplib/ddiv.s                          0x00000000   Number         0  ddiv.o ABSOLUTE
    ../fplib/dfix.s                          0x00000000   Number         0  dfix.o ABSOLUTE
    ../fplib/dfixu.s                         0x00000000   Number         0  dfixu.o ABSOLUTE
    ../fplib/dflt.s                          0x00000000   Number         0  dflt_clz.o ABSOLUTE
    ../fplib/dleqf.s                         0x00000000   Number         0  dleqf.o ABSOLUTE
    ../fplib/dmul.s                          0x00000000   Number         0  dmul.o ABSOLUTE
    ../fplib/dnaninf.s                       0x00000000   Number         0  dnaninf.o ABSOLUTE
    ../fplib/dretinf.s                       0x00000000   Number         0  dretinf.o ABSOLUTE
    ../fplib/drleqf.s                        0x00000000   Number         0  drleqf.o ABSOLUTE
    ../fplib/dsqrt.s                         0x00000000   Number         0  dsqrt_umaal.o ABSOLUTE
    ../fplib/f2d.s                           0x00000000   Number         0  f2d.o ABSOLUTE
    ../fplib/fnaninf.s                       0x00000000   Number         0  fnaninf.o ABSOLUTE
    ../fplib/fpinit.s                        0x00000000   Number         0  fpinit.o ABSOLUTE
    ../fplib/fretinf.s                       0x00000000   Number         0  fretinf.o ABSOLUTE
    ../fplib/usenofp.s                       0x00000000   Number         0  usenofp.o ABSOLUTE
    ../mathlib/ceil.c                        0x00000000   Number         0  ceil.o ABSOLUTE
    ../mathlib/floor.c                       0x00000000   Number         0  floor.o ABSOLUTE
    ../mathlib/sqrt.c                        0x00000000   Number         0  sqrt_x.o ABSOLUTE
    ../mathlib/sqrt.c                        0x00000000   Number         0  sqrt.o ABSOLUTE
    ..\..\..\Utilities\Third_Party\STemWin526_20140919\GUI\Antialias\GUIAA_Char2.c 0x00000000   Number         0  guiaa_char2.o ABSOLUTE
    ..\..\..\Utilities\Third_Party\STemWin526_20140919\GUI\Antialias\GUIAA_Char2Ext.c 0x00000000   Number         0  guiaa_char2ext.o ABSOLUTE
    ..\..\..\Utilities\Third_Party\STemWin526_20140919\GUI\Antialias\GUIAA_Char4.c 0x00000000   Number         0  guiaa_char4.o ABSOLUTE
    ..\..\..\Utilities\Third_Party\STemWin526_20140919\GUI\Antialias\GUIAA_Char4Ext.c 0x00000000   Number         0  guiaa_char4ext.o ABSOLUTE
    ..\..\..\Utilities\Third_Party\STemWin526_20140919\GUI\Antialias\GUIAA_Circle.c 0x00000000   Number         0  guiaa_circle.o ABSOLUTE
    ..\..\..\Utilities\Third_Party\STemWin526_20140919\GUI\Antialias\GUIAA_Lib.c 0x00000000   Number         0  guiaa_lib.o ABSOLUTE
    ..\..\..\Utilities\Third_Party\STemWin526_20140919\GUI\Antialias\GUIAA_Poly.c 0x00000000   Number         0  guiaa_poly.o ABSOLUTE
    ..\..\..\Utilities\Third_Party\STemWin526_20140919\GUI\Core\GUICC_0.c 0x00000000   Number         0  guicc_0.o ABSOLUTE
    ..\..\..\Utilities\Third_Party\STemWin526_20140919\GUI\Core\GUICC_888.c 0x00000000   Number         0  guicc_888.o ABSOLUTE
    ..\..\..\Utilities\Third_Party\STemWin526_20140919\GUI\Core\GUICC_8888.c 0x00000000   Number         0  guicc_8888.o ABSOLUTE
    ..\..\..\Utilities\Third_Party\STemWin526_20140919\GUI\Core\GUICC_8888_Index2Color.c 0x00000000   Number         0  guicc_8888_index2color.o ABSOLUTE
    ..\..\..\Utilities\Third_Party\STemWin526_20140919\GUI\Core\GUICC_888_Index2Color.c 0x00000000   Number         0  guicc_888_index2color.o ABSOLUTE
    ..\..\..\Utilities\Third_Party\STemWin526_20140919\GUI\Core\GUICC_M565.c 0x00000000   Number         0  guicc_m565.o ABSOLUTE
    ..\..\..\Utilities\Third_Party\STemWin526_20140919\GUI\Core\GUI_2DLib.c 0x00000000   Number         0  gui_2dlib.o ABSOLUTE
    ..\..\..\Utilities\Third_Party\STemWin526_20140919\GUI\Core\GUI_ALLOC_AllocInit.c 0x00000000   Number         0  gui_alloc_allocinit.o ABSOLUTE
    ..\..\..\Utilities\Third_Party\STemWin526_20140919\GUI\Core\GUI_ALLOC_AllocZero.c 0x00000000   Number         0  gui_alloc_alloczero.o ABSOLUTE
    ..\..\..\Utilities\Third_Party\STemWin526_20140919\GUI\Core\GUI_AddDecMin.c 0x00000000   Number         0  gui_adddecmin.o ABSOLUTE
    ..\..\..\Utilities\Third_Party\STemWin526_20140919\GUI\Core\GUI_AddDecShift.c 0x00000000   Number         0  gui_adddecshift.o ABSOLUTE
    ..\..\..\Utilities\Third_Party\STemWin526_20140919\GUI\Core\GUI_Alloc.c 0x00000000   Number         0  gui_alloc.o ABSOLUTE
    ..\..\..\Utilities\Third_Party\STemWin526_20140919\GUI\Core\GUI_CalcColorDist.c 0x00000000   Number         0  gui_calccolordist.o ABSOLUTE
    ..\..\..\Utilities\Third_Party\STemWin526_20140919\GUI\Core\GUI_Char.c 0x00000000   Number         0  gui_char.o ABSOLUTE
    ..\..\..\Utilities\Third_Party\STemWin526_20140919\GUI\Core\GUI_CharLine.c 0x00000000   Number         0  gui_charline.o ABSOLUTE
    ..\..\..\Utilities\Third_Party\STemWin526_20140919\GUI\Core\GUI_CharM.c 0x00000000   Number         0  gui_charm.o ABSOLUTE
    ..\..\..\Utilities\Third_Party\STemWin526_20140919\GUI\Core\GUI_CharP.c 0x00000000   Number         0  gui_charp.o ABSOLUTE
    ..\..\..\Utilities\Third_Party\STemWin526_20140919\GUI\Core\GUI_CharPExt.c 0x00000000   Number         0  gui_charpext.o ABSOLUTE
    ..\..\..\Utilities\Third_Party\STemWin526_20140919\GUI\Core\GUI_Circ.c 0x00000000   Number         0  gui_circ.o ABSOLUTE
    ..\..\..\Utilities\Third_Party\STemWin526_20140919\GUI\Core\GUI_ClearRectEx.c 0x00000000   Number         0  gui_clearrectex.o ABSOLUTE
    ..\..\..\Utilities\Third_Party\STemWin526_20140919\GUI\Core\GUI_Color2Index.c 0x00000000   Number         0  gui_color2index.o ABSOLUTE
    ..\..\..\Utilities\Third_Party\STemWin526_20140919\GUI\Core\GUI_Core.c 0x00000000   Number         0  gui_core.o ABSOLUTE
    ..\..\..\Utilities\Third_Party\STemWin526_20140919\GUI\Core\GUI_Curs1.c 0x00000000   Number         0  gui_curs1.o ABSOLUTE
    ..\..\..\Utilities\Third_Party\STemWin526_20140919\GUI\Core\GUI_CursorArrowL.c 0x00000000   Number         0  gui_cursorarrowl.o ABSOLUTE
    ..\..\..\Utilities\Third_Party\STemWin526_20140919\GUI\Core\GUI_CursorArrowLI.c 0x00000000   Number         0  gui_cursorarrowli.o ABSOLUTE
    ..\..\..\Utilities\Third_Party\STemWin526_20140919\GUI\Core\GUI_CursorArrowLPx.c 0x00000000   Number         0  gui_cursorarrowlpx.o ABSOLUTE
    ..\..\..\Utilities\Third_Party\STemWin526_20140919\GUI\Core\GUI_CursorArrowM.c 0x00000000   Number         0  gui_cursorarrowm.o ABSOLUTE
    ..\..\..\Utilities\Third_Party\STemWin526_20140919\GUI\Core\GUI_CursorArrowMI.c 0x00000000   Number         0  gui_cursorarrowmi.o ABSOLUTE
    ..\..\..\Utilities\Third_Party\STemWin526_20140919\GUI\Core\GUI_CursorArrowMPx.c 0x00000000   Number         0  gui_cursorarrowmpx.o ABSOLUTE
    ..\..\..\Utilities\Third_Party\STemWin526_20140919\GUI\Core\GUI_CursorArrowS.c 0x00000000   Number         0  gui_cursorarrows.o ABSOLUTE
    ..\..\..\Utilities\Third_Party\STemWin526_20140919\GUI\Core\GUI_CursorArrowSI.c 0x00000000   Number         0  gui_cursorarrowsi.o ABSOLUTE
    ..\..\..\Utilities\Third_Party\STemWin526_20140919\GUI\Core\GUI_CursorArrowSPx.c 0x00000000   Number         0  gui_cursorarrowspx.o ABSOLUTE
    ..\..\..\Utilities\Third_Party\STemWin526_20140919\GUI\Core\GUI_CursorCrossL.c 0x00000000   Number         0  gui_cursorcrossl.o ABSOLUTE
    ..\..\..\Utilities\Third_Party\STemWin526_20140919\GUI\Core\GUI_CursorCrossLI.c 0x00000000   Number         0  gui_cursorcrossli.o ABSOLUTE
    ..\..\..\Utilities\Third_Party\STemWin526_20140919\GUI\Core\GUI_CursorCrossLPx.c 0x00000000   Number         0  gui_cursorcrosslpx.o ABSOLUTE
    ..\..\..\Utilities\Third_Party\STemWin526_20140919\GUI\Core\GUI_CursorCrossM.c 0x00000000   Number         0  gui_cursorcrossm.o ABSOLUTE
    ..\..\..\Utilities\Third_Party\STemWin526_20140919\GUI\Core\GUI_CursorCrossMI.c 0x00000000   Number         0  gui_cursorcrossmi.o ABSOLUTE
    ..\..\..\Utilities\Third_Party\STemWin526_20140919\GUI\Core\GUI_CursorCrossMPx.c 0x00000000   Number         0  gui_cursorcrossmpx.o ABSOLUTE
    ..\..\..\Utilities\Third_Party\STemWin526_20140919\GUI\Core\GUI_CursorCrossS.c 0x00000000   Number         0  gui_cursorcrosss.o ABSOLUTE
    ..\..\..\Utilities\Third_Party\STemWin526_20140919\GUI\Core\GUI_CursorCrossSI.c 0x00000000   Number         0  gui_cursorcrosssi.o ABSOLUTE
    ..\..\..\Utilities\Third_Party\STemWin526_20140919\GUI\Core\GUI_CursorCrossSPx.c 0x00000000   Number         0  gui_cursorcrossspx.o ABSOLUTE
    ..\..\..\Utilities\Third_Party\STemWin526_20140919\GUI\Core\GUI_CursorHeaderM.c 0x00000000   Number         0  gui_cursorheaderm.o ABSOLUTE
    ..\..\..\Utilities\Third_Party\STemWin526_20140919\GUI\Core\GUI_CursorHeaderMPx.c 0x00000000   Number         0  gui_cursorheadermpx.o ABSOLUTE
    ..\..\..\Utilities\Third_Party\STemWin526_20140919\GUI\Core\GUI_CursorPal.c 0x00000000   Number         0  gui_cursorpal.o ABSOLUTE
    ..\..\..\Utilities\Third_Party\STemWin526_20140919\GUI\Core\GUI_CursorPalI.c 0x00000000   Number         0  gui_cursorpali.o ABSOLUTE
    ..\..\..\Utilities\Third_Party\STemWin526_20140919\GUI\Core\GUI_Device.c 0x00000000   Number         0  gui_device.o ABSOLUTE
    ..\..\..\Utilities\Third_Party\STemWin526_20140919\GUI\Core\GUI_DispChar.c 0x00000000   Number         0  gui_dispchar.o ABSOLUTE
    ..\..\..\Utilities\Third_Party\STemWin526_20140919\GUI\Core\GUI_DispString.c 0x00000000   Number         0  gui_dispstring.o ABSOLUTE
    ..\..\..\Utilities\Third_Party\STemWin526_20140919\GUI\Core\GUI_DispStringAt.c 0x00000000   Number         0  gui_dispstringat.o ABSOLUTE
    ..\..\..\Utilities\Third_Party\STemWin526_20140919\GUI\Core\GUI_DispStringHCenter.c 0x00000000   Number         0  gui_dispstringhcenter.o ABSOLUTE
    ..\..\..\Utilities\Third_Party\STemWin526_20140919\GUI\Core\GUI_DispStringInRect.c 0x00000000   Number         0  gui_dispstringinrect.o ABSOLUTE
    ..\..\..\Utilities\Third_Party\STemWin526_20140919\GUI\Core\GUI_DispStringInRectWrap.c 0x00000000   Number         0  gui_dispstringinrectwrap.o ABSOLUTE
    ..\..\..\Utilities\Third_Party\STemWin526_20140919\GUI\Core\GUI_DrawBitmap.c 0x00000000   Number         0  gui_drawbitmap.o ABSOLUTE
    ..\..\..\Utilities\Third_Party\STemWin526_20140919\GUI\Core\GUI_DrawBitmapMag.c 0x00000000   Number         0  gui_drawbitmapmag.o ABSOLUTE
    ..\..\..\Utilities\Third_Party\STemWin526_20140919\GUI\Core\GUI_DrawBitmap_8888.c 0x00000000   Number         0  gui_drawbitmap_8888.o ABSOLUTE
    ..\..\..\Utilities\Third_Party\STemWin526_20140919\GUI\Core\GUI_DrawFocusRect.c 0x00000000   Number         0  gui_drawfocusrect.o ABSOLUTE
    ..\..\..\Utilities\Third_Party\STemWin526_20140919\GUI\Core\GUI_DrawGradient.c 0x00000000   Number         0  gui_drawgradient.o ABSOLUTE
    ..\..\..\Utilities\Third_Party\STemWin526_20140919\GUI\Core\GUI_DrawGraphEx.c 0x00000000   Number         0  gui_drawgraphex.o ABSOLUTE
    ..\..\..\Utilities\Third_Party\STemWin526_20140919\GUI\Core\GUI_DrawHLine.c 0x00000000   Number         0  gui_drawhline.o ABSOLUTE
    ..\..\..\Utilities\Third_Party\STemWin526_20140919\GUI\Core\GUI_DrawLine.c 0x00000000   Number         0  gui_drawline.o ABSOLUTE
    ..\..\..\Utilities\Third_Party\STemWin526_20140919\GUI\Core\GUI_DrawPixel.c 0x00000000   Number         0  gui_drawpixel.o ABSOLUTE
    ..\..\..\Utilities\Third_Party\STemWin526_20140919\GUI\Core\GUI_DrawPoint.c 0x00000000   Number         0  gui_drawpoint.o ABSOLUTE
    ..\..\..\Utilities\Third_Party\STemWin526_20140919\GUI\Core\GUI_DrawVLine.c 0x00000000   Number         0  gui_drawvline.o ABSOLUTE
    ..\..\..\Utilities\Third_Party\STemWin526_20140919\GUI\Core\GUI_EnableAlpha.c 0x00000000   Number         0  gui_enablealpha.o ABSOLUTE
    ..\..\..\Utilities\Third_Party\STemWin526_20140919\GUI\Core\GUI_EncExt.c 0x00000000   Number         0  gui_encext.o ABSOLUTE
    ..\..\..\Utilities\Third_Party\STemWin526_20140919\GUI\Core\GUI_Exec.c 0x00000000   Number         0  gui_exec.o ABSOLUTE
    ..\..\..\Utilities\Third_Party\STemWin526_20140919\GUI\Core\GUI_FillPolygon.c 0x00000000   Number         0  gui_fillpolygon.o ABSOLUTE
    ..\..\..\Utilities\Third_Party\STemWin526_20140919\GUI\Core\GUI_FillRect.c 0x00000000   Number         0  gui_fillrect.o ABSOLUTE
    ..\..\..\Utilities\Third_Party\STemWin526_20140919\GUI\Core\GUI_FillRectEx.c 0x00000000   Number         0  gui_fillrectex.o ABSOLUTE
    ..\..\..\Utilities\Third_Party\STemWin526_20140919\GUI\Core\GUI_GetBitmapPixelIndex.c 0x00000000   Number         0  gui_getbitmappixelindex.o ABSOLUTE
    ..\..\..\Utilities\Third_Party\STemWin526_20140919\GUI\Core\GUI_GetClientRect.c 0x00000000   Number         0  gui_getclientrect.o ABSOLUTE
    ..\..\..\Utilities\Third_Party\STemWin526_20140919\GUI\Core\GUI_GetColor.c 0x00000000   Number         0  gui_getcolor.o ABSOLUTE
    ..\..\..\Utilities\Third_Party\STemWin526_20140919\GUI\Core\GUI_GetFontSizeY.c 0x00000000   Number         0  gui_getfontsizey.o ABSOLUTE
    ..\..\..\Utilities\Third_Party\STemWin526_20140919\GUI\Core\GUI_GetLineStyle.c 0x00000000   Number         0  gui_getlinestyle.o ABSOLUTE
    ..\..\..\Utilities\Third_Party\STemWin526_20140919\GUI\Core\GUI_GetOrg.c 0x00000000   Number         0  gui_getorg.o ABSOLUTE
    ..\..\..\Utilities\Third_Party\STemWin526_20140919\GUI\Core\GUI_GetStringDistX.c 0x00000000   Number         0  gui_getstringdistx.o ABSOLUTE
    ..\..\..\Utilities\Third_Party\STemWin526_20140919\GUI\Core\GUI_GetVersionString.c 0x00000000   Number         0  gui_getversionstring.o ABSOLUTE
    ..\..\..\Utilities\Third_Party\STemWin526_20140919\GUI\Core\GUI_GetYSizeOfFont.c 0x00000000   Number         0  gui_getysizeoffont.o ABSOLUTE
    ..\..\..\Utilities\Third_Party\STemWin526_20140919\GUI\Core\GUI_Goto.c 0x00000000   Number         0  gui_goto.o ABSOLUTE
    ..\..\..\Utilities\Third_Party\STemWin526_20140919\GUI\Core\GUI_MergeRect.c 0x00000000   Number         0  gui_mergerect.o ABSOLUTE
    ..\..\..\Utilities\Third_Party\STemWin526_20140919\GUI\Core\GUI_MoveRect.c 0x00000000   Number         0  gui_moverect.o ABSOLUTE
    ..\..\..\Utilities\Third_Party\STemWin526_20140919\GUI\Core\GUI_OnKey.c 0x00000000   Number         0  gui_onkey.o ABSOLUTE
    ..\..\..\Utilities\Third_Party\STemWin526_20140919\GUI\Core\GUI_PID.c 0x00000000   Number         0  gui_pid.o ABSOLUTE
    ..\..\..\Utilities\Third_Party\STemWin526_20140919\GUI\Core\GUI_Pen.c 0x00000000   Number         0  gui_pen.o ABSOLUTE
    ..\..\..\Utilities\Third_Party\STemWin526_20140919\GUI\Core\GUI_PolyRotate.c 0x00000000   Number         0  gui_polyrotate.o ABSOLUTE
    ..\..\..\Utilities\Third_Party\STemWin526_20140919\GUI\Core\GUI_Realloc.c 0x00000000   Number         0  gui_realloc.o ABSOLUTE
    ..\..\..\Utilities\Third_Party\STemWin526_20140919\GUI\Core\GUI_RectsIntersect.c 0x00000000   Number         0  gui_rectsintersect.o ABSOLUTE
    ..\..\..\Utilities\Third_Party\STemWin526_20140919\GUI\Core\GUI_SPRITE.c 0x00000000   Number         0  gui_sprite.o ABSOLUTE
    ..\..\..\Utilities\Third_Party\STemWin526_20140919\GUI\Core\GUI_SaveContext.c 0x00000000   Number         0  gui_savecontext.o ABSOLUTE
    ..\..\..\Utilities\Third_Party\STemWin526_20140919\GUI\Core\GUI_SelectLCD.c 0x00000000   Number         0  gui_selectlcd.o ABSOLUTE
    ..\..\..\Utilities\Third_Party\STemWin526_20140919\GUI\Core\GUI_SelectLayer.c 0x00000000   Number         0  gui_selectlayer.o ABSOLUTE
    ..\..\..\Utilities\Third_Party\STemWin526_20140919\GUI\Core\GUI_SetAlpha.c 0x00000000   Number         0  gui_setalpha.o ABSOLUTE
    ..\..\..\Utilities\Third_Party\STemWin526_20140919\GUI\Core\GUI_SetClipRect.c 0x00000000   Number         0  gui_setcliprect.o ABSOLUTE
    ..\..\..\Utilities\Third_Party\STemWin526_20140919\GUI\Core\GUI_SetColor.c 0x00000000   Number         0  gui_setcolor.o ABSOLUTE
    ..\..\..\Utilities\Third_Party\STemWin526_20140919\GUI\Core\GUI_SetColorIndex.c 0x00000000   Number         0  gui_setcolorindex.o ABSOLUTE
    ..\..\..\Utilities\Third_Party\STemWin526_20140919\GUI\Core\GUI_SetDefault.c 0x00000000   Number         0  gui_setdefault.o ABSOLUTE
    ..\..\..\Utilities\Third_Party\STemWin526_20140919\GUI\Core\GUI_SetDrawMode.c 0x00000000   Number         0  gui_setdrawmode.o ABSOLUTE
    ..\..\..\Utilities\Third_Party\STemWin526_20140919\GUI\Core\GUI_SetFont.c 0x00000000   Number         0  gui_setfont.o ABSOLUTE
    ..\..\..\Utilities\Third_Party\STemWin526_20140919\GUI\Core\GUI_SetLineStyle.c 0x00000000   Number         0  gui_setlinestyle.o ABSOLUTE
    ..\..\..\Utilities\Third_Party\STemWin526_20140919\GUI\Core\GUI_SetOrg.c 0x00000000   Number         0  gui_setorg.o ABSOLUTE
    ..\..\..\Utilities\Third_Party\STemWin526_20140919\GUI\Core\GUI_SetPixelIndex.c 0x00000000   Number         0  gui_setpixelindex.o ABSOLUTE
    ..\..\..\Utilities\Third_Party\STemWin526_20140919\GUI\Core\GUI_SetTextAlign.c 0x00000000   Number         0  gui_settextalign.o ABSOLUTE
    ..\..\..\Utilities\Third_Party\STemWin526_20140919\GUI\Core\GUI_SetTextMode.c 0x00000000   Number         0  gui_settextmode.o ABSOLUTE
    ..\..\..\Utilities\Third_Party\STemWin526_20140919\GUI\Core\GUI_TOUCH.c 0x00000000   Number         0  gui_touch.o ABSOLUTE
    ..\..\..\Utilities\Third_Party\STemWin526_20140919\GUI\Core\GUI_TOUCH_DriverAnalog.c 0x00000000   Number         0  gui_touch_driveranalog.o ABSOLUTE
    ..\..\..\Utilities\Third_Party\STemWin526_20140919\GUI\Core\GUI_TOUCH_StoreState.c 0x00000000   Number         0  gui_touch_storestate.o ABSOLUTE
    ..\..\..\Utilities\Third_Party\STemWin526_20140919\GUI\Core\GUI_TOUCH_StoreUnstable.c 0x00000000   Number         0  gui_touch_storeunstable.o ABSOLUTE
    ..\..\..\Utilities\Third_Party\STemWin526_20140919\GUI\Core\GUI_Time.c 0x00000000   Number         0  gui_time.o ABSOLUTE
    ..\..\..\Utilities\Third_Party\STemWin526_20140919\GUI\Core\GUI_Timer.c 0x00000000   Number         0  gui_timer.o ABSOLUTE
    ..\..\..\Utilities\Third_Party\STemWin526_20140919\GUI\Core\GUI_UC.c 0x00000000   Number         0  gui_uc.o ABSOLUTE
    ..\..\..\Utilities\Third_Party\STemWin526_20140919\GUI\Core\GUI_UC_EncodeNone.c 0x00000000   Number         0  gui_uc_encodenone.o ABSOLUTE
    ..\..\..\Utilities\Third_Party\STemWin526_20140919\GUI\Core\GUI_Val.c 0x00000000   Number         0  gui_val.o ABSOLUTE
    ..\..\..\Utilities\Third_Party\STemWin526_20140919\GUI\Core\GUI_Valf.c 0x00000000   Number         0  gui_valf.o ABSOLUTE
    ..\..\..\Utilities\Third_Party\STemWin526_20140919\GUI\Core\GUI_WaitEvent.c 0x00000000   Number         0  gui_waitevent.o ABSOLUTE
    ..\..\..\Utilities\Third_Party\STemWin526_20140919\GUI\Core\GUI__Alpha.c 0x00000000   Number         0  gui__alpha.o ABSOLUTE
    ..\..\..\Utilities\Third_Party\STemWin526_20140919\GUI\Core\GUI__CalcTextRect.c 0x00000000   Number         0  gui__calctextrect.o ABSOLUTE
    ..\..\..\Utilities\Third_Party\STemWin526_20140919\GUI\Core\GUI__CompactPixelIndices.c 0x00000000   Number         0  gui__compactpixelindices.o ABSOLUTE
    ..\..\..\Utilities\Third_Party\STemWin526_20140919\GUI\Core\GUI__DivTbl_255_31.c 0x00000000   Number         0  gui__divtbl_255_31.o ABSOLUTE
    ..\..\..\Utilities\Third_Party\STemWin526_20140919\GUI\Core\GUI__DivTbl_255_63.c 0x00000000   Number         0  gui__divtbl_255_63.o ABSOLUTE
    ..\..\..\Utilities\Third_Party\STemWin526_20140919\GUI\Core\GUI__DivTbl_31_255.c 0x00000000   Number         0  gui__divtbl_31_255.o ABSOLUTE
    ..\..\..\Utilities\Third_Party\STemWin526_20140919\GUI\Core\GUI__DivTbl_63_255.c 0x00000000   Number         0  gui__divtbl_63_255.o ABSOLUTE
    ..\..\..\Utilities\Third_Party\STemWin526_20140919\GUI\Core\GUI__DivideRound32.c 0x00000000   Number         0  gui__divideround32.o ABSOLUTE
    ..\..\..\Utilities\Third_Party\STemWin526_20140919\GUI\Core\GUI__DrawTwinArc.c 0x00000000   Number         0  gui__drawtwinarc.o ABSOLUTE
    ..\..\..\Utilities\Third_Party\STemWin526_20140919\GUI\Core\GUI__ExpandPixelIndices.c 0x00000000   Number         0  gui__expandpixelindices.o ABSOLUTE
    ..\..\..\Utilities\Third_Party\STemWin526_20140919\GUI\Core\GUI__GetFontSizeY.c 0x00000000   Number         0  gui__getfontsizey.o ABSOLUTE
    ..\..\..\Utilities\Third_Party\STemWin526_20140919\GUI\Core\GUI__GetNumChars.c 0x00000000   Number         0  gui__getnumchars.o ABSOLUTE
    ..\..\..\Utilities\Third_Party\STemWin526_20140919\GUI\Core\GUI__HandleEOLine.c 0x00000000   Number         0  gui__handleeoline.o ABSOLUTE
    ..\..\..\Utilities\Third_Party\STemWin526_20140919\GUI\Core\GUI__IntersectRect.c 0x00000000   Number         0  gui__intersectrect.o ABSOLUTE
    ..\..\..\Utilities\Third_Party\STemWin526_20140919\GUI\Core\GUI__IntersectRects.c 0x00000000   Number         0  gui__intersectrects.o ABSOLUTE
    ..\..\..\Utilities\Third_Party\STemWin526_20140919\GUI\Core\GUI__ManageCache.c 0x00000000   Number         0  gui__managecache.o ABSOLUTE
    ..\..\..\Utilities\Third_Party\STemWin526_20140919\GUI\Core\GUI__ReduceRect.c 0x00000000   Number         0  gui__reducerect.o ABSOLUTE
    ..\..\..\Utilities\Third_Party\STemWin526_20140919\GUI\Core\GUI__SetPixelAlpha.c 0x00000000   Number         0  gui__setpixelalpha.o ABSOLUTE
    ..\..\..\Utilities\Third_Party\STemWin526_20140919\GUI\Core\GUI__SetText.c 0x00000000   Number         0  gui__settext.o ABSOLUTE
    ..\..\..\Utilities\Third_Party\STemWin526_20140919\GUI\Core\GUI__SinHQ.c 0x00000000   Number         0  gui__sinhq.o ABSOLUTE
    ..\..\..\Utilities\Third_Party\STemWin526_20140919\GUI\Core\GUI__Wrap.c 0x00000000   Number         0  gui__wrap.o ABSOLUTE
    ..\..\..\Utilities\Third_Party\STemWin526_20140919\GUI\Core\GUI__memset.c 0x00000000   Number         0  gui__memset.o ABSOLUTE
    ..\..\..\Utilities\Third_Party\STemWin526_20140919\GUI\Core\GUI__memset16.c 0x00000000   Number         0  gui__memset16.o ABSOLUTE
    ..\..\..\Utilities\Third_Party\STemWin526_20140919\GUI\Core\GUI__sqrt32.c 0x00000000   Number         0  gui__sqrt32.o ABSOLUTE
    ..\..\..\Utilities\Third_Party\STemWin526_20140919\GUI\Core\GUI__strcmp.c 0x00000000   Number         0  gui__strcmp.o ABSOLUTE
    ..\..\..\Utilities\Third_Party\STemWin526_20140919\GUI\Core\GUI__strlen.c 0x00000000   Number         0  gui__strlen.o ABSOLUTE
    ..\..\..\Utilities\Third_Party\STemWin526_20140919\GUI\Core\LCD.c 0x00000000   Number         0  lcd.o ABSOLUTE
    ..\..\..\Utilities\Third_Party\STemWin526_20140919\GUI\Core\LCD_AA.c 0x00000000   Number         0  lcd_aa.o ABSOLUTE
    ..\..\..\Utilities\Third_Party\STemWin526_20140919\GUI\Core\LCD_Color.c 0x00000000   Number         0  lcd_color.o ABSOLUTE
    ..\..\..\Utilities\Third_Party\STemWin526_20140919\GUI\Core\LCD_GetColorIndex.c 0x00000000   Number         0  lcd_getcolorindex.o ABSOLUTE
    ..\..\..\Utilities\Third_Party\STemWin526_20140919\GUI\Core\LCD_GetEx.c 0x00000000   Number         0  lcd_getex.o ABSOLUTE
    ..\..\..\Utilities\Third_Party\STemWin526_20140919\GUI\Core\LCD_GetNumDisplays.c 0x00000000   Number         0  lcd_getnumdisplays.o ABSOLUTE
    ..\..\..\Utilities\Third_Party\STemWin526_20140919\GUI\Core\LCD_GetP.c 0x00000000   Number         0  lcd_getp.o ABSOLUTE
    ..\..\..\Utilities\Third_Party\STemWin526_20140919\GUI\Core\LCD_GetPixelColor.c 0x00000000   Number         0  lcd_getpixelcolor.o ABSOLUTE
    ..\..\..\Utilities\Third_Party\STemWin526_20140919\GUI\Core\LCD_Info.c 0x00000000   Number         0  lcd_info.o ABSOLUTE
    ..\..\..\Utilities\Third_Party\STemWin526_20140919\GUI\Core\LCD_Mirror.c 0x00000000   Number         0  lcd_mirror.o ABSOLUTE
    ..\..\..\Utilities\Third_Party\STemWin526_20140919\GUI\Core\LCD_RLE4.c 0x00000000   Number         0  lcd_rle4.o ABSOLUTE
    ..\..\..\Utilities\Third_Party\STemWin526_20140919\GUI\Core\LCD_RLE8.c 0x00000000   Number         0  lcd_rle8.o ABSOLUTE
    ..\..\..\Utilities\Third_Party\STemWin526_20140919\GUI\Core\LCD_RLEAlpha.c 0x00000000   Number         0  lcd_rlealpha.o ABSOLUTE
    ..\..\..\Utilities\Third_Party\STemWin526_20140919\GUI\Core\LCD_ReadRect.c 0x00000000   Number         0  lcd_readrect.o ABSOLUTE
    ..\..\..\Utilities\Third_Party\STemWin526_20140919\GUI\Core\LCD_SelectLCD.c 0x00000000   Number         0  lcd_selectlcd.o ABSOLUTE
    ..\..\..\Utilities\Third_Party\STemWin526_20140919\GUI\Core\LCD_Set.c 0x00000000   Number         0  lcd_set.o ABSOLUTE
    ..\..\..\Utilities\Third_Party\STemWin526_20140919\GUI\Core\LCD_SetClipRectEx.c 0x00000000   Number         0  lcd_setcliprectex.o ABSOLUTE
    ..\..\..\Utilities\Third_Party\STemWin526_20140919\GUI\Core\LCD_UpdateColorIndices.c 0x00000000   Number         0  lcd_updatecolorindices.o ABSOLUTE
    ..\..\..\Utilities\Third_Party\STemWin526_20140919\GUI\Font\F08_1.c 0x00000000   Number         0  f08_1.o ABSOLUTE
    ..\..\..\Utilities\Third_Party\STemWin526_20140919\GUI\Font\F08_ASCII.c 0x00000000   Number         0  f08_ascii.o ABSOLUTE
    ..\..\..\Utilities\Third_Party\STemWin526_20140919\GUI\Font\F10S_ASCII.c 0x00000000   Number         0  f10s_ascii.o ABSOLUTE
    ..\..\..\Utilities\Third_Party\STemWin526_20140919\GUI\Font\F13B_ASCII.c 0x00000000   Number         0  f13b_ascii.o ABSOLUTE
    ..\..\..\Utilities\Third_Party\STemWin526_20140919\GUI\Font\F13_1.c 0x00000000   Number         0  f13_1.o ABSOLUTE
    ..\..\..\Utilities\Third_Party\STemWin526_20140919\GUI\Font\F13_ASCII.c 0x00000000   Number         0  f13_ascii.o ABSOLUTE
    ..\..\..\Utilities\Third_Party\STemWin526_20140919\GUI\Font\F16_ASCII.c 0x00000000   Number         0  f16_ascii.o ABSOLUTE
    ..\..\..\Utilities\Third_Party\STemWin526_20140919\GUI\Font\F6x8.c 0x00000000   Number         0  f6x8.o ABSOLUTE
    ..\..\..\Utilities\Third_Party\STemWin526_20140919\GUI\Font\FComic18B_ASCII.c 0x00000000   Number         0  fcomic18b_ascii.o ABSOLUTE
    ..\..\..\Utilities\Third_Party\STemWin526_20140919\GUI\Font\FComic24B_ASCII.c 0x00000000   Number         0  fcomic24b_ascii.o ABSOLUTE
    ..\..\..\Utilities\Third_Party\STemWin526_20140919\GUI\MemDev\GUIDEV.c 0x00000000   Number         0  guidev.o ABSOLUTE
    ..\..\..\Utilities\Third_Party\STemWin526_20140919\GUI\MemDev\GUIDEV_16.c 0x00000000   Number         0  guidev_16.o ABSOLUTE
    ..\..\..\Utilities\Third_Party\STemWin526_20140919\GUI\MemDev\GUIDEV_32.c 0x00000000   Number         0  guidev_32.o ABSOLUTE
    ..\..\..\Utilities\Third_Party\STemWin526_20140919\GUI\MemDev\GUIDEV_Auto.c 0x00000000   Number         0  guidev_auto.o ABSOLUTE
    ..\..\..\Utilities\Third_Party\STemWin526_20140919\GUI\MemDev\GUIDEV_Banding.c 0x00000000   Number         0  guidev_banding.o ABSOLUTE
    ..\..\..\Utilities\Third_Party\STemWin526_20140919\GUI\MemDev\GUIDEV_Clear.c 0x00000000   Number         0  guidev_clear.o ABSOLUTE
    ..\..\..\Utilities\Third_Party\STemWin526_20140919\GUI\MemDev\GUIDEV_CreateFixed.c 0x00000000   Number         0  guidev_createfixed.o ABSOLUTE
    ..\..\..\Utilities\Third_Party\STemWin526_20140919\GUI\MemDev\GUIDEV_GetDataPtr.c 0x00000000   Number         0  guidev_getdataptr.o ABSOLUTE
    ..\..\..\Utilities\Third_Party\STemWin526_20140919\GUI\MemDev\GUIDEV_GetPos.c 0x00000000   Number         0  guidev_getpos.o ABSOLUTE
    ..\..\..\Utilities\Third_Party\STemWin526_20140919\GUI\MemDev\GUIDEV_GetXSize.c 0x00000000   Number         0  guidev_getxsize.o ABSOLUTE
    ..\..\..\Utilities\Third_Party\STemWin526_20140919\GUI\MemDev\GUIDEV_GetYSize.c 0x00000000   Number         0  guidev_getysize.o ABSOLUTE
    ..\..\..\Utilities\Third_Party\STemWin526_20140919\GUI\MemDev\GUIDEV_Measure.c 0x00000000   Number         0  guidev_measure.o ABSOLUTE
    ..\..\..\Utilities\Third_Party\STemWin526_20140919\GUI\MemDev\GUIDEV_MoveAndFade.c 0x00000000   Number         0  guidev_moveandfade.o ABSOLUTE
    ..\..\..\Utilities\Third_Party\STemWin526_20140919\GUI\MemDev\GUIDEV_Perspective.c 0x00000000   Number         0  guidev_perspective.o ABSOLUTE
    ..\..\..\Utilities\Third_Party\STemWin526_20140919\GUI\MemDev\GUIDEV_ReduceYSize.c 0x00000000   Number         0  guidev_reduceysize.o ABSOLUTE
    ..\..\..\Utilities\Third_Party\STemWin526_20140919\GUI\MemDev\GUIDEV_SetOrg.c 0x00000000   Number         0  guidev_setorg.o ABSOLUTE
    ..\..\..\Utilities\Third_Party\STemWin526_20140919\GUI\MemDev\GUIDEV_StaticDevices.c 0x00000000   Number         0  guidev_staticdevices.o ABSOLUTE
    ..\..\..\Utilities\Third_Party\STemWin526_20140919\GUI\MemDev\GUIDEV_Usage.c 0x00000000   Number         0  guidev_usage.o ABSOLUTE
    ..\..\..\Utilities\Third_Party\STemWin526_20140919\GUI\MemDev\GUIDEV_UsageBM.c 0x00000000   Number         0  guidev_usagebm.o ABSOLUTE
    ..\..\..\Utilities\Third_Party\STemWin526_20140919\GUI\MemDev\GUIDEV_Write.c 0x00000000   Number         0  guidev_write.o ABSOLUTE
    ..\..\..\Utilities\Third_Party\STemWin526_20140919\GUI\MemDev\GUIDEV_WriteToActiveAlpha.c 0x00000000   Number         0  guidev_writetoactivealpha.o ABSOLUTE
    ..\..\..\Utilities\Third_Party\STemWin526_20140919\GUI\MemDev\GUIDEV_WriteToActiveOpaque.c 0x00000000   Number         0  guidev_writetoactiveopaque.o ABSOLUTE
    ..\..\..\Utilities\Third_Party\STemWin526_20140919\GUI\WM\WM.c 0x00000000   Number         0  wm.o ABSOLUTE
    ..\..\..\Utilities\Third_Party\STemWin526_20140919\GUI\WM\WM_BringToBottom.c 0x00000000   Number         0  wm_bringtobottom.o ABSOLUTE
    ..\..\..\Utilities\Third_Party\STemWin526_20140919\GUI\WM\WM_BringToTop.c 0x00000000   Number         0  wm_bringtotop.o ABSOLUTE
    ..\..\..\Utilities\Third_Party\STemWin526_20140919\GUI\WM\WM_CheckScrollPos.c 0x00000000   Number         0  wm_checkscrollpos.o ABSOLUTE
    ..\..\..\Utilities\Third_Party\STemWin526_20140919\GUI\WM\WM_CriticalHandle.c 0x00000000   Number         0  wm_criticalhandle.o ABSOLUTE
    ..\..\..\Utilities\Third_Party\STemWin526_20140919\GUI\WM\WM_ForEachDesc.c 0x00000000   Number         0  wm_foreachdesc.o ABSOLUTE
    ..\..\..\Utilities\Third_Party\STemWin526_20140919\GUI\WM\WM_GetBkColor.c 0x00000000   Number         0  wm_getbkcolor.o ABSOLUTE
    ..\..\..\Utilities\Third_Party\STemWin526_20140919\GUI\WM\WM_GetClientRect.c 0x00000000   Number         0  wm_getclientrect.o ABSOLUTE
    ..\..\..\Utilities\Third_Party\STemWin526_20140919\GUI\WM\WM_GetClientWindow.c 0x00000000   Number         0  wm_getclientwindow.o ABSOLUTE
    ..\..\..\Utilities\Third_Party\STemWin526_20140919\GUI\WM\WM_GetDesktopWindow.c 0x00000000   Number         0  wm_getdesktopwindow.o ABSOLUTE
    ..\..\..\Utilities\Third_Party\STemWin526_20140919\GUI\WM\WM_GetDesktopWindowEx.c 0x00000000   Number         0  wm_getdesktopwindowex.o ABSOLUTE
    ..\..\..\Utilities\Third_Party\STemWin526_20140919\GUI\WM\WM_GetDialogItem.c 0x00000000   Number         0  wm_getdialogitem.o ABSOLUTE
    ..\..\..\Utilities\Third_Party\STemWin526_20140919\GUI\WM\WM_GetFirstChild.c 0x00000000   Number         0  wm_getfirstchild.o ABSOLUTE
    ..\..\..\Utilities\Third_Party\STemWin526_20140919\GUI\WM\WM_GetFlags.c 0x00000000   Number         0  wm_getflags.o ABSOLUTE
    ..\..\..\Utilities\Third_Party\STemWin526_20140919\GUI\WM\WM_GetFocussedWindow.c 0x00000000   Number         0  wm_getfocussedwindow.o ABSOLUTE
    ..\..\..\Utilities\Third_Party\STemWin526_20140919\GUI\WM\WM_GetId.c 0x00000000   Number         0  wm_getid.o ABSOLUTE
    ..\..\..\Utilities\Third_Party\STemWin526_20140919\GUI\WM\WM_GetInsideRect.c 0x00000000   Number         0  wm_getinsiderect.o ABSOLUTE
    ..\..\..\Utilities\Third_Party\STemWin526_20140919\GUI\WM\WM_GetInsideRectExScrollbar.c 0x00000000   Number         0  wm_getinsiderectexscrollbar.o ABSOLUTE
    ..\..\..\Utilities\Third_Party\STemWin526_20140919\GUI\WM\WM_GetNextSibling.c 0x00000000   Number         0  wm_getnextsibling.o ABSOLUTE
    ..\..\..\Utilities\Third_Party\STemWin526_20140919\GUI\WM\WM_GetOrg.c 0x00000000   Number         0  wm_getorg.o ABSOLUTE
    ..\..\..\Utilities\Third_Party\STemWin526_20140919\GUI\WM\WM_GetParent.c 0x00000000   Number         0  wm_getparent.o ABSOLUTE
    ..\..\..\Utilities\Third_Party\STemWin526_20140919\GUI\WM\WM_GetScrollPartner.c 0x00000000   Number         0  wm_getscrollpartner.o ABSOLUTE
    ..\..\..\Utilities\Third_Party\STemWin526_20140919\GUI\WM\WM_GetScrollState.c 0x00000000   Number         0  wm_getscrollstate.o ABSOLUTE
    ..\..\..\Utilities\Third_Party\STemWin526_20140919\GUI\WM\WM_GetScrollbar.c 0x00000000   Number         0  wm_getscrollbar.o ABSOLUTE
    ..\..\..\Utilities\Third_Party\STemWin526_20140919\GUI\WM\WM_GetWindowRect.c 0x00000000   Number         0  wm_getwindowrect.o ABSOLUTE
    ..\..\..\Utilities\Third_Party\STemWin526_20140919\GUI\WM\WM_GetWindowSize.c 0x00000000   Number         0  wm_getwindowsize.o ABSOLUTE
    ..\..\..\Utilities\Third_Party\STemWin526_20140919\GUI\WM\WM_HasCaptured.c 0x00000000   Number         0  wm_hascaptured.o ABSOLUTE
    ..\..\..\Utilities\Third_Party\STemWin526_20140919\GUI\WM\WM_HasFocus.c 0x00000000   Number         0  wm_hasfocus.o ABSOLUTE
    ..\..\..\Utilities\Third_Party\STemWin526_20140919\GUI\WM\WM_Hide.c 0x00000000   Number         0  wm_hide.o ABSOLUTE
    ..\..\..\Utilities\Third_Party\STemWin526_20140919\GUI\WM\WM_IsFocussable.c 0x00000000   Number         0  wm_isfocussable.o ABSOLUTE
    ..\..\..\Utilities\Third_Party\STemWin526_20140919\GUI\WM\WM_IsVisible.c 0x00000000   Number         0  wm_isvisible.o ABSOLUTE
    ..\..\..\Utilities\Third_Party\STemWin526_20140919\GUI\WM\WM_IsWindow.c 0x00000000   Number         0  wm_iswindow.o ABSOLUTE
    ..\..\..\Utilities\Third_Party\STemWin526_20140919\GUI\WM\WM_MakeModal.c 0x00000000   Number         0  wm_makemodal.o ABSOLUTE
    ..\..\..\Utilities\Third_Party\STemWin526_20140919\GUI\WM\WM_MemDev.c 0x00000000   Number         0  wm_memdev.o ABSOLUTE
    ..\..\..\Utilities\Third_Party\STemWin526_20140919\GUI\WM\WM_Motion.c 0x00000000   Number         0  wm_motion.o ABSOLUTE
    ..\..\..\Utilities\Third_Party\STemWin526_20140919\GUI\WM\WM_Move.c 0x00000000   Number         0  wm_move.o ABSOLUTE
    ..\..\..\Utilities\Third_Party\STemWin526_20140919\GUI\WM\WM_MoveChildTo.c 0x00000000   Number         0  wm_movechildto.o ABSOLUTE
    ..\..\..\Utilities\Third_Party\STemWin526_20140919\GUI\WM\WM_NotifyParent.c 0x00000000   Number         0  wm_notifyparent.o ABSOLUTE
    ..\..\..\Utilities\Third_Party\STemWin526_20140919\GUI\WM\WM_OnKey.c 0x00000000   Number         0  wm_onkey.o ABSOLUTE
    ..\..\..\Utilities\Third_Party\STemWin526_20140919\GUI\WM\WM_PID__GetPrevState.c 0x00000000   Number         0  wm_pid__getprevstate.o ABSOLUTE
    ..\..\..\Utilities\Third_Party\STemWin526_20140919\GUI\WM\WM_ResizeWindow.c 0x00000000   Number         0  wm_resizewindow.o ABSOLUTE
    ..\..\..\Utilities\Third_Party\STemWin526_20140919\GUI\WM\WM_Screen2Win.c 0x00000000   Number         0  wm_screen2win.o ABSOLUTE
    ..\..\..\Utilities\Third_Party\STemWin526_20140919\GUI\WM\WM_SendMessageNoPara.c 0x00000000   Number         0  wm_sendmessagenopara.o ABSOLUTE
    ..\..\..\Utilities\Third_Party\STemWin526_20140919\GUI\WM\WM_SendToParent.c 0x00000000   Number         0  wm_sendtoparent.o ABSOLUTE
    ..\..\..\Utilities\Third_Party\STemWin526_20140919\GUI\WM\WM_SetCallback.c 0x00000000   Number         0  wm_setcallback.o ABSOLUTE
    ..\..\..\Utilities\Third_Party\STemWin526_20140919\GUI\WM\WM_SetCapture.c 0x00000000   Number         0  wm_setcapture.o ABSOLUTE
    ..\..\..\Utilities\Third_Party\STemWin526_20140919\GUI\WM\WM_SetCaptureMove.c 0x00000000   Number         0  wm_setcapturemove.o ABSOLUTE
    ..\..\..\Utilities\Third_Party\STemWin526_20140919\GUI\WM\WM_SetCreateFlags.c 0x00000000   Number         0  wm_setcreateflags.o ABSOLUTE
    ..\..\..\Utilities\Third_Party\STemWin526_20140919\GUI\WM\WM_SetFocus.c 0x00000000   Number         0  wm_setfocus.o ABSOLUTE
    ..\..\..\Utilities\Third_Party\STemWin526_20140919\GUI\WM\WM_SetFocusOnNextChild.c 0x00000000   Number         0  wm_setfocusonnextchild.o ABSOLUTE
    ..\..\..\Utilities\Third_Party\STemWin526_20140919\GUI\WM\WM_SetFocusOnPrevChild.c 0x00000000   Number         0  wm_setfocusonprevchild.o ABSOLUTE
    ..\..\..\Utilities\Third_Party\STemWin526_20140919\GUI\WM\WM_SetScrollState.c 0x00000000   Number         0  wm_setscrollstate.o ABSOLUTE
    ..\..\..\Utilities\Third_Party\STemWin526_20140919\GUI\WM\WM_SetScrollbar.c 0x00000000   Number         0  wm_setscrollbar.o ABSOLUTE
    ..\..\..\Utilities\Third_Party\STemWin526_20140919\GUI\WM\WM_SetSize.c 0x00000000   Number         0  wm_setsize.o ABSOLUTE
    ..\..\..\Utilities\Third_Party\STemWin526_20140919\GUI\WM\WM_SetTrans.c 0x00000000   Number         0  wm_settrans.o ABSOLUTE
    ..\..\..\Utilities\Third_Party\STemWin526_20140919\GUI\WM\WM_SetUserClipRect.c 0x00000000   Number         0  wm_setusercliprect.o ABSOLUTE
    ..\..\..\Utilities\Third_Party\STemWin526_20140919\GUI\WM\WM_SetWindowPos.c 0x00000000   Number         0  wm_setwindowpos.o ABSOLUTE
    ..\..\..\Utilities\Third_Party\STemWin526_20140919\GUI\WM\WM_Show.c 0x00000000   Number         0  wm_show.o ABSOLUTE
    ..\..\..\Utilities\Third_Party\STemWin526_20140919\GUI\WM\WM_Timer.c 0x00000000   Number         0  wm_timer.o ABSOLUTE
    ..\..\..\Utilities\Third_Party\STemWin526_20140919\GUI\WM\WM_Touch.c 0x00000000   Number         0  wm_touch.o ABSOLUTE
    ..\..\..\Utilities\Third_Party\STemWin526_20140919\GUI\WM\WM_UserData.c 0x00000000   Number         0  wm_userdata.o ABSOLUTE
    ..\..\..\Utilities\Third_Party\STemWin526_20140919\GUI\WM\WM_ValidateWindow.c 0x00000000   Number         0  wm_validatewindow.o ABSOLUTE
    ..\..\..\Utilities\Third_Party\STemWin526_20140919\GUI\WM\WM__ForEachDesc.c 0x00000000   Number         0  wm__foreachdesc.o ABSOLUTE
    ..\..\..\Utilities\Third_Party\STemWin526_20140919\GUI\WM\WM__GetFirstSibling.c 0x00000000   Number         0  wm__getfirstsibling.o ABSOLUTE
    ..\..\..\Utilities\Third_Party\STemWin526_20140919\GUI\WM\WM__GetFocussedChild.c 0x00000000   Number         0  wm__getfocussedchild.o ABSOLUTE
    ..\..\..\Utilities\Third_Party\STemWin526_20140919\GUI\WM\WM__GetLastSibling.c 0x00000000   Number         0  wm__getlastsibling.o ABSOLUTE
    ..\..\..\Utilities\Third_Party\STemWin526_20140919\GUI\WM\WM__GetOrg_AA.c 0x00000000   Number         0  wm__getorg_aa.o ABSOLUTE
    ..\..\..\Utilities\Third_Party\STemWin526_20140919\GUI\WM\WM__GetPrevSibling.c 0x00000000   Number         0  wm__getprevsibling.o ABSOLUTE
    ..\..\..\Utilities\Third_Party\STemWin526_20140919\GUI\WM\WM__IsAncestor.c 0x00000000   Number         0  wm__isancestor.o ABSOLUTE
    ..\..\..\Utilities\Third_Party\STemWin526_20140919\GUI\WM\WM__IsChild.c 0x00000000   Number         0  wm__ischild.o ABSOLUTE
    ..\..\..\Utilities\Third_Party\STemWin526_20140919\GUI\WM\WM__IsEnabled.c 0x00000000   Number         0  wm__isenabled.o ABSOLUTE
    ..\..\..\Utilities\Third_Party\STemWin526_20140919\GUI\WM\WM__Screen2Client.c 0x00000000   Number         0  wm__screen2client.o ABSOLUTE
    ..\..\..\Utilities\Third_Party\STemWin526_20140919\GUI\WM\WM__SendMessage.c 0x00000000   Number         0  wm__sendmessage.o ABSOLUTE
    ..\..\..\Utilities\Third_Party\STemWin526_20140919\GUI\WM\WM__SendMessageIfEnabled.c 0x00000000   Number         0  wm__sendmessageifenabled.o ABSOLUTE
    ..\..\..\Utilities\Third_Party\STemWin526_20140919\GUI\WM\WM__SendMessageNoPara.c 0x00000000   Number         0  wm__sendmessagenopara.o ABSOLUTE
    ..\..\..\Utilities\Third_Party\STemWin526_20140919\GUI\WM\WM__UpdateChildPositions.c 0x00000000   Number         0  wm__updatechildpositions.o ABSOLUTE
    ..\..\..\Utilities\Third_Party\STemWin526_20140919\GUI\Widget\BUTTON.c 0x00000000   Number         0  button.o ABSOLUTE
    ..\..\..\Utilities\Third_Party\STemWin526_20140919\GUI\Widget\BUTTON_CreateIndirect.c 0x00000000   Number         0  button_createindirect.o ABSOLUTE
    ..\..\..\Utilities\Third_Party\STemWin526_20140919\GUI\Widget\BUTTON_Skin.c 0x00000000   Number         0  button_skin.o ABSOLUTE
    ..\..\..\Utilities\Third_Party\STemWin526_20140919\GUI\Widget\BUTTON_SkinClassic.c 0x00000000   Number         0  button_skinclassic.o ABSOLUTE
    ..\..\..\Utilities\Third_Party\STemWin526_20140919\GUI\Widget\BUTTON_SkinFlex.c 0x00000000   Number         0  button_skinflex.o ABSOLUTE
    ..\..\..\Utilities\Third_Party\STemWin526_20140919\GUI\Widget\DIALOG.c 0x00000000   Number         0  dialog.o ABSOLUTE
    ..\..\..\Utilities\Third_Party\STemWin526_20140919\GUI\Widget\FRAMEWIN.c 0x00000000   Number         0  framewin.o ABSOLUTE
    ..\..\..\Utilities\Third_Party\STemWin526_20140919\GUI\Widget\FRAMEWIN_CreateIndirect.c 0x00000000   Number         0  framewin_createindirect.o ABSOLUTE
    ..\..\..\Utilities\Third_Party\STemWin526_20140919\GUI\Widget\FRAMEWIN_Default.c 0x00000000   Number         0  framewin_default.o ABSOLUTE
    ..\..\..\Utilities\Third_Party\STemWin526_20140919\GUI\Widget\FRAMEWIN_Get.c 0x00000000   Number         0  framewin_get.o ABSOLUTE
    ..\..\..\Utilities\Third_Party\STemWin526_20140919\GUI\Widget\FRAMEWIN_SetColors.c 0x00000000   Number         0  framewin_setcolors.o ABSOLUTE
    ..\..\..\Utilities\Third_Party\STemWin526_20140919\GUI\Widget\FRAMEWIN_SetOwnerDraw.c 0x00000000   Number         0  framewin_setownerdraw.o ABSOLUTE
    ..\..\..\Utilities\Third_Party\STemWin526_20140919\GUI\Widget\FRAMEWIN_Skin.c 0x00000000   Number         0  framewin_skin.o ABSOLUTE
    ..\..\..\Utilities\Third_Party\STemWin526_20140919\GUI\Widget\FRAMEWIN_SkinClassic.c 0x00000000   Number         0  framewin_skinclassic.o ABSOLUTE
    ..\..\..\Utilities\Third_Party\STemWin526_20140919\GUI\Widget\FRAMEWIN_SkinFlex.c 0x00000000   Number         0  framewin_skinflex.o ABSOLUTE
    ..\..\..\Utilities\Third_Party\STemWin526_20140919\GUI\Widget\FRAMEWIN__UpdateButtons.c 0x00000000   Number         0  framewin__updatebuttons.o ABSOLUTE
    ..\..\..\Utilities\Third_Party\STemWin526_20140919\GUI\Widget\GRAPH.c 0x00000000   Number         0  graph.o ABSOLUTE
    ..\..\..\Utilities\Third_Party\STemWin526_20140919\GUI\Widget\GRAPH_DATA_YT.c 0x00000000   Number         0  graph_data_yt.o ABSOLUTE
    ..\..\..\Utilities\Third_Party\STemWin526_20140919\GUI\Widget\GRAPH_SCALE.c 0x00000000   Number         0  graph_scale.o ABSOLUTE
    ..\..\..\Utilities\Third_Party\STemWin526_20140919\GUI\Widget\GUI_ARRAY.c 0x00000000   Number         0  gui_array.o ABSOLUTE
    ..\..\..\Utilities\Third_Party\STemWin526_20140919\GUI\Widget\GUI_ARRAY_DeleteItem.c 0x00000000   Number         0  gui_array_deleteitem.o ABSOLUTE
    ..\..\..\Utilities\Third_Party\STemWin526_20140919\GUI\Widget\GUI_ARRAY_InsertItem.c 0x00000000   Number         0  gui_array_insertitem.o ABSOLUTE
    ..\..\..\Utilities\Third_Party\STemWin526_20140919\GUI\Widget\GUI_ARRAY_ResizeItem.c 0x00000000   Number         0  gui_array_resizeitem.o ABSOLUTE
    ..\..\..\Utilities\Third_Party\STemWin526_20140919\GUI\Widget\GUI_DRAW.c 0x00000000   Number         0  gui_draw.o ABSOLUTE
    ..\..\..\Utilities\Third_Party\STemWin526_20140919\GUI\Widget\HEADER.c 0x00000000   Number         0  header.o ABSOLUTE
    ..\..\..\Utilities\Third_Party\STemWin526_20140919\GUI\Widget\HEADER_GetSel.c 0x00000000   Number         0  header_getsel.o ABSOLUTE
    ..\..\..\Utilities\Third_Party\STemWin526_20140919\GUI\Widget\HEADER_SetDragLimit.c 0x00000000   Number         0  header_setdraglimit.o ABSOLUTE
    ..\..\..\Utilities\Third_Party\STemWin526_20140919\GUI\Widget\HEADER_Skin.c 0x00000000   Number         0  header_skin.o ABSOLUTE
    ..\..\..\Utilities\Third_Party\STemWin526_20140919\GUI\Widget\HEADER_SkinClassic.c 0x00000000   Number         0  header_skinclassic.o ABSOLUTE
    ..\..\..\Utilities\Third_Party\STemWin526_20140919\GUI\Widget\HEADER_SkinFlex.c 0x00000000   Number         0  header_skinflex.o ABSOLUTE
    ..\..\..\Utilities\Third_Party\STemWin526_20140919\GUI\Widget\LISTVIEW.c 0x00000000   Number         0  listview.o ABSOLUTE
    ..\..\..\Utilities\Third_Party\STemWin526_20140919\GUI\Widget\LISTVIEW_DeleteRow.c 0x00000000   Number         0  listview_deleterow.o ABSOLUTE
    ..\..\..\Utilities\Third_Party\STemWin526_20140919\GUI\Widget\LISTVIEW_DisableRow.c 0x00000000   Number         0  listview_disablerow.o ABSOLUTE
    ..\..\..\Utilities\Third_Party\STemWin526_20140919\GUI\Widget\LISTVIEW_GetHeader.c 0x00000000   Number         0  listview_getheader.o ABSOLUTE
    ..\..\..\Utilities\Third_Party\STemWin526_20140919\GUI\Widget\LISTVIEW_GetItemText.c 0x00000000   Number         0  listview_getitemtext.o ABSOLUTE
    ..\..\..\Utilities\Third_Party\STemWin526_20140919\GUI\Widget\LISTVIEW_GetNumColumns.c 0x00000000   Number         0  listview_getnumcolumns.o ABSOLUTE
    ..\..\..\Utilities\Third_Party\STemWin526_20140919\GUI\Widget\LISTVIEW_GetNumRows.c 0x00000000   Number         0  listview_getnumrows.o ABSOLUTE
    ..\..\..\Utilities\Third_Party\STemWin526_20140919\GUI\Widget\LISTVIEW_GetSel.c 0x00000000   Number         0  listview_getsel.o ABSOLUTE
    ..\..\..\Utilities\Third_Party\STemWin526_20140919\GUI\Widget\LISTVIEW_GetWrapMode.c 0x00000000   Number         0  listview_getwrapmode.o ABSOLUTE
    ..\..\..\Utilities\Third_Party\STemWin526_20140919\GUI\Widget\LISTVIEW_InsertRow.c 0x00000000   Number         0  listview_insertrow.o ABSOLUTE
    ..\..\..\Utilities\Third_Party\STemWin526_20140919\GUI\Widget\LISTVIEW_SetAutoScroll.c 0x00000000   Number         0  listview_setautoscroll.o ABSOLUTE
    ..\..\..\Utilities\Third_Party\STemWin526_20140919\GUI\Widget\LISTVIEW_SetGridVis.c 0x00000000   Number         0  listview_setgridvis.o ABSOLUTE
    ..\..\..\Utilities\Third_Party\STemWin526_20140919\GUI\Widget\LISTVIEW_SetItemColor.c 0x00000000   Number         0  listview_setitemcolor.o ABSOLUTE
    ..\..\..\Utilities\Third_Party\STemWin526_20140919\GUI\Widget\LISTVIEW_SetLBorder.c 0x00000000   Number         0  listview_setlborder.o ABSOLUTE
    ..\..\..\Utilities\Third_Party\STemWin526_20140919\GUI\Widget\LISTVIEW_SetRBorder.c 0x00000000   Number         0  listview_setrborder.o ABSOLUTE
    ..\..\..\Utilities\Third_Party\STemWin526_20140919\GUI\Widget\LISTVIEW_SetSel.c 0x00000000   Number         0  listview_setsel.o ABSOLUTE
    ..\..\..\Utilities\Third_Party\STemWin526_20140919\GUI\Widget\LISTVIEW_SetSort.c 0x00000000   Number         0  listview_setsort.o ABSOLUTE
    ..\..\..\Utilities\Third_Party\STemWin526_20140919\GUI\Widget\PROGBAR.c 0x00000000   Number         0  progbar.o ABSOLUTE
    ..\..\..\Utilities\Third_Party\STemWin526_20140919\GUI\Widget\PROGBAR_CreateIndirect.c 0x00000000   Number         0  progbar_createindirect.o ABSOLUTE
    ..\..\..\Utilities\Third_Party\STemWin526_20140919\GUI\Widget\PROGBAR_SetFont.c 0x00000000   Number         0  progbar_setfont.o ABSOLUTE
    ..\..\..\Utilities\Third_Party\STemWin526_20140919\GUI\Widget\PROGBAR_SetMinMax.c 0x00000000   Number         0  progbar_setminmax.o ABSOLUTE
    ..\..\..\Utilities\Third_Party\STemWin526_20140919\GUI\Widget\PROGBAR_SetTextAlign.c 0x00000000   Number         0  progbar_settextalign.o ABSOLUTE
    ..\..\..\Utilities\Third_Party\STemWin526_20140919\GUI\Widget\PROGBAR_Skin.c 0x00000000   Number         0  progbar_skin.o ABSOLUTE
    ..\..\..\Utilities\Third_Party\STemWin526_20140919\GUI\Widget\PROGBAR_SkinClassic.c 0x00000000   Number         0  progbar_skinclassic.o ABSOLUTE
    ..\..\..\Utilities\Third_Party\STemWin526_20140919\GUI\Widget\PROGBAR_SkinFlex.c 0x00000000   Number         0  progbar_skinflex.o ABSOLUTE
    ..\..\..\Utilities\Third_Party\STemWin526_20140919\GUI\Widget\SCROLLBAR.c 0x00000000   Number         0  scrollbar.o ABSOLUTE
    ..\..\..\Utilities\Third_Party\STemWin526_20140919\GUI\Widget\SCROLLBAR_Create.c 0x00000000   Number         0  scrollbar_create.o ABSOLUTE
    ..\..\..\Utilities\Third_Party\STemWin526_20140919\GUI\Widget\SCROLLBAR_GetValue.c 0x00000000   Number         0  scrollbar_getvalue.o ABSOLUTE
    ..\..\..\Utilities\Third_Party\STemWin526_20140919\GUI\Widget\SCROLLBAR_Skin.c 0x00000000   Number         0  scrollbar_skin.o ABSOLUTE
    ..\..\..\Utilities\Third_Party\STemWin526_20140919\GUI\Widget\SCROLLBAR_SkinClassic.c 0x00000000   Number         0  scrollbar_skinclassic.o ABSOLUTE
    ..\..\..\Utilities\Third_Party\STemWin526_20140919\GUI\Widget\SCROLLBAR_SkinFlex.c 0x00000000   Number         0  scrollbar_skinflex.o ABSOLUTE
    ..\..\..\Utilities\Third_Party\STemWin526_20140919\GUI\Widget\SLIDER.c 0x00000000   Number         0  slider.o ABSOLUTE
    ..\..\..\Utilities\Third_Party\STemWin526_20140919\GUI\Widget\SLIDER_CreateIndirect.c 0x00000000   Number         0  slider_createindirect.o ABSOLUTE
    ..\..\..\Utilities\Third_Party\STemWin526_20140919\GUI\Widget\SLIDER_Skin.c 0x00000000   Number         0  slider_skin.o ABSOLUTE
    ..\..\..\Utilities\Third_Party\STemWin526_20140919\GUI\Widget\SLIDER_SkinClassic.c 0x00000000   Number         0  slider_skinclassic.o ABSOLUTE
    ..\..\..\Utilities\Third_Party\STemWin526_20140919\GUI\Widget\SLIDER_SkinFlex.c 0x00000000   Number         0  slider_skinflex.o ABSOLUTE
    ..\..\..\Utilities\Third_Party\STemWin526_20140919\GUI\Widget\TEXT.c 0x00000000   Number         0  text.o ABSOLUTE
    ..\..\..\Utilities\Third_Party\STemWin526_20140919\GUI\Widget\TEXT_CreateIndirect.c 0x00000000   Number         0  text_createindirect.o ABSOLUTE
    ..\..\..\Utilities\Third_Party\STemWin526_20140919\GUI\Widget\TEXT_Default.c 0x00000000   Number         0  text_default.o ABSOLUTE
    ..\..\..\Utilities\Third_Party\STemWin526_20140919\GUI\Widget\TEXT_SetFont.c 0x00000000   Number         0  text_setfont.o ABSOLUTE
    ..\..\..\Utilities\Third_Party\STemWin526_20140919\GUI\Widget\TEXT_SetText.c 0x00000000   Number         0  text_settext.o ABSOLUTE
    ..\..\..\Utilities\Third_Party\STemWin526_20140919\GUI\Widget\TREEVIEW.c 0x00000000   Number         0  treeview.o ABSOLUTE
    ..\..\..\Utilities\Third_Party\STemWin526_20140919\GUI\Widget\TREEVIEW_CreateIndirect.c 0x00000000   Number         0  treeview_createindirect.o ABSOLUTE
    ..\..\..\Utilities\Third_Party\STemWin526_20140919\GUI\Widget\TREEVIEW_Image.c 0x00000000   Number         0  treeview_image.o ABSOLUTE
    ..\..\..\Utilities\Third_Party\STemWin526_20140919\GUI\Widget\WIDGET.c 0x00000000   Number         0  widget.o ABSOLUTE
    ..\..\..\Utilities\Third_Party\STemWin526_20140919\GUI\Widget\WIDGET_Effect_3D.c 0x00000000   Number         0  widget_effect_3d.o ABSOLUTE
    ..\..\..\Utilities\Third_Party\STemWin526_20140919\GUI\Widget\WIDGET_Effect_None.c 0x00000000   Number         0  widget_effect_none.o ABSOLUTE
    ..\..\..\Utilities\Third_Party\STemWin526_20140919\GUI\Widget\WIDGET_Effect_Simple.c 0x00000000   Number         0  widget_effect_simple.o ABSOLUTE
    ..\..\..\Utilities\Third_Party\STemWin526_20140919\GUI\Widget\WIDGET_FillStringInRect.c 0x00000000   Number         0  widget_fillstringinrect.o ABSOLUTE
    ..\..\..\Utilities\Third_Party\STemWin526_20140919\GUI\Widget\WIDGET_SetEffect.c 0x00000000   Number         0  widget_seteffect.o ABSOLUTE
    ..\CORE\startup_stm32f40_41xxx.s         0x00000000   Number         0  startup_stm32f40_41xxx.o ABSOLUTE
    ..\EMWIN\Demo\GUIDEMO.c                  0x00000000   Number         0  guidemo.o ABSOLUTE
    ..\EMWIN\Demo\GUIDEMO_AntialiasedText.c  0x00000000   Number         0  guidemo_antialiasedtext.o ABSOLUTE
    ..\EMWIN\Demo\GUIDEMO_Automotive.c       0x00000000   Number         0  guidemo_automotive.o ABSOLUTE
    ..\EMWIN\Demo\GUIDEMO_BarGraph.c         0x00000000   Number         0  guidemo_bargraph.o ABSOLUTE
    ..\EMWIN\Demo\GUIDEMO_Bitmap.c           0x00000000   Number         0  guidemo_bitmap.o ABSOLUTE
    ..\EMWIN\Demo\GUIDEMO_ColorBar.c         0x00000000   Number         0  guidemo_colorbar.o ABSOLUTE
    ..\EMWIN\Demo\GUIDEMO_Conf.c             0x00000000   Number         0  guidemo_conf.o ABSOLUTE
    ..\EMWIN\Demo\GUIDEMO_Cursor.c           0x00000000   Number         0  guidemo_cursor.o ABSOLUTE
    ..\EMWIN\Demo\GUIDEMO_Fading.c           0x00000000   Number         0  guidemo_fading.o ABSOLUTE
    ..\EMWIN\Demo\GUIDEMO_Graph.c            0x00000000   Number         0  guidemo_graph.o ABSOLUTE
    ..\EMWIN\Demo\GUIDEMO_IconView.c         0x00000000   Number         0  guidemo_iconview.o ABSOLUTE
    ..\EMWIN\Demo\GUIDEMO_ImageFlow.c        0x00000000   Number         0  guidemo_imageflow.o ABSOLUTE
    ..\EMWIN\Demo\GUIDEMO_Intro.c            0x00000000   Number         0  guidemo_intro.o ABSOLUTE
    ..\EMWIN\Demo\GUIDEMO_Listview.c         0x00000000   Number         0  guidemo_listview.o ABSOLUTE
    ..\EMWIN\Demo\GUIDEMO_RadialMenu.c       0x00000000   Number         0  guidemo_radialmenu.o ABSOLUTE
    ..\EMWIN\Demo\GUIDEMO_Resource.c         0x00000000   Number         0  guidemo_resource.o ABSOLUTE
    ..\EMWIN\Demo\GUIDEMO_Skinning.c         0x00000000   Number         0  guidemo_skinning.o ABSOLUTE
    ..\EMWIN\Demo\GUIDEMO_Speed.c            0x00000000   Number         0  guidemo_speed.o ABSOLUTE
    ..\EMWIN\Demo\GUIDEMO_Speedometer.c      0x00000000   Number         0  guidemo_speedometer.o ABSOLUTE
    ..\EMWIN\Demo\GUIDEMO_Start.c            0x00000000   Number         0  guidemo_start.o ABSOLUTE
    ..\EMWIN\Demo\GUIDEMO_TransparentDialog.c 0x00000000   Number         0  guidemo_transparentdialog.o ABSOLUTE
    ..\EMWIN\Demo\GUIDEMO_Treeview.c         0x00000000   Number         0  guidemo_treeview.o ABSOLUTE
    ..\EMWIN\Demo\GUIDEMO_VScreen.c          0x00000000   Number         0  guidemo_vscreen.o ABSOLUTE
    ..\EMWIN\Demo\GUIDEMO_WashingMachine.c   0x00000000   Number         0  guidemo_washingmachine.o ABSOLUTE
    ..\EMWIN\Demo\GUIDEMO_ZoomAndRotate.c    0x00000000   Number         0  guidemo_zoomandrotate.o ABSOLUTE
    ..\EMWIN\STemWin\Config\GUIConf.c        0x00000000   Number         0  guiconf.o ABSOLUTE
    ..\EMWIN\STemWin\Config\GUIDRV_Template.c 0x00000000   Number         0  guidrv_template.o ABSOLUTE
    ..\EMWIN\STemWin\Config\GUI_X_Touch_Analog.c 0x00000000   Number         0  gui_x_touch_analog.o ABSOLUTE
    ..\EMWIN\STemWin\Config\LCDConf_FlexColor_Template.c 0x00000000   Number         0  lcdconf_flexcolor_template.o ABSOLUTE
    ..\EMWIN\STemWin\OS\GUI_X.c              0x00000000   Number         0  gui_x.o ABSOLUTE
    ..\FWLIB\STM32F4xx_StdPeriph_Driver\src\misc.c 0x00000000   Number         0  misc.o ABSOLUTE
    ..\FWLIB\STM32F4xx_StdPeriph_Driver\src\stm32f4xx_fsmc.c 0x00000000   Number         0  stm32f4xx_fsmc.o ABSOLUTE
    ..\FWLIB\STM32F4xx_StdPeriph_Driver\src\stm32f4xx_gpio.c 0x00000000   Number         0  stm32f4xx_gpio.o ABSOLUTE
    ..\FWLIB\STM32F4xx_StdPeriph_Driver\src\stm32f4xx_rcc.c 0x00000000   Number         0  stm32f4xx_rcc.o ABSOLUTE
    ..\FWLIB\STM32F4xx_StdPeriph_Driver\src\stm32f4xx_tim.c 0x00000000   Number         0  stm32f4xx_tim.o ABSOLUTE
    ..\FWLIB\STM32F4xx_StdPeriph_Driver\src\stm32f4xx_usart.c 0x00000000   Number         0  stm32f4xx_usart.o ABSOLUTE
    ..\HARDWARE\24CXX\24cxx.c                0x00000000   Number         0  24cxx.o ABSOLUTE
    ..\HARDWARE\IIC\myiic.c                  0x00000000   Number         0  myiic.o ABSOLUTE
    ..\HARDWARE\KEY\key.c                    0x00000000   Number         0  key.o ABSOLUTE
    ..\HARDWARE\LCD\ILI93xx.c                0x00000000   Number         0  ili93xx.o ABSOLUTE
    ..\HARDWARE\LED\led.c                    0x00000000   Number         0  led.o ABSOLUTE
    ..\HARDWARE\SRAM\sram.c                  0x00000000   Number         0  sram.o ABSOLUTE
    ..\HARDWARE\TIMER\timer.c                0x00000000   Number         0  timer.o ABSOLUTE
    ..\HARDWARE\TOUCH\ctiic.c                0x00000000   Number         0  ctiic.o ABSOLUTE
    ..\HARDWARE\TOUCH\ft5206.c               0x00000000   Number         0  ft5206.o ABSOLUTE
    ..\HARDWARE\TOUCH\gt9147.c               0x00000000   Number         0  gt9147.o ABSOLUTE
    ..\HARDWARE\TOUCH\ott2001a.c             0x00000000   Number         0  ott2001a.o ABSOLUTE
    ..\HARDWARE\TOUCH\touch.c                0x00000000   Number         0  touch.o ABSOLUTE
    ..\MALLOC\malloc.c                       0x00000000   Number         0  malloc.o ABSOLUTE
    ..\SYSTEM\delay\delay.c                  0x00000000   Number         0  delay.o ABSOLUTE
    ..\SYSTEM\sys\sys.c                      0x00000000   Number         0  sys.o ABSOLUTE
    ..\SYSTEM\usart\usart.c                  0x00000000   Number         0  usart.o ABSOLUTE
    ..\\EMWIN\\Demo\\GUIDEMO_Speedometer.c   0x00000000   Number         0  guidemo_speedometer.o ABSOLUTE
    ..\\EMWIN\\STemWin\\Config\\GUIConf.c    0x00000000   Number         0  guiconf.o ABSOLUTE
    ..\\EMWIN\\STemWin\\Config\\GUIDRV_Template.c 0x00000000   Number         0  guidrv_template.o ABSOLUTE
    ..\\EMWIN\\STemWin\\Config\\GUI_X_Touch_Analog.c 0x00000000   Number         0  gui_x_touch_analog.o ABSOLUTE
    ..\\EMWIN\\STemWin\\Config\\LCDConf_FlexColor_Template.c 0x00000000   Number         0  lcdconf_flexcolor_template.o ABSOLUTE
    ..\\FWLIB\\STM32F4xx_StdPeriph_Driver\\src\\misc.c 0x00000000   Number         0  misc.o ABSOLUTE
    ..\\FWLIB\\STM32F4xx_StdPeriph_Driver\\src\\stm32f4xx_fsmc.c 0x00000000   Number         0  stm32f4xx_fsmc.o ABSOLUTE
    ..\\FWLIB\\STM32F4xx_StdPeriph_Driver\\src\\stm32f4xx_gpio.c 0x00000000   Number         0  stm32f4xx_gpio.o ABSOLUTE
    ..\\FWLIB\\STM32F4xx_StdPeriph_Driver\\src\\stm32f4xx_rcc.c 0x00000000   Number         0  stm32f4xx_rcc.o ABSOLUTE
    ..\\FWLIB\\STM32F4xx_StdPeriph_Driver\\src\\stm32f4xx_tim.c 0x00000000   Number         0  stm32f4xx_tim.o ABSOLUTE
    ..\\FWLIB\\STM32F4xx_StdPeriph_Driver\\src\\stm32f4xx_usart.c 0x00000000   Number         0  stm32f4xx_usart.o ABSOLUTE
    ..\\HARDWARE\\24CXX\\24cxx.c             0x00000000   Number         0  24cxx.o ABSOLUTE
    ..\\HARDWARE\\IIC\\myiic.c               0x00000000   Number         0  myiic.o ABSOLUTE
    ..\\HARDWARE\\KEY\\key.c                 0x00000000   Number         0  key.o ABSOLUTE
    ..\\HARDWARE\\LCD\\ILI93xx.c             0x00000000   Number         0  ili93xx.o ABSOLUTE
    ..\\HARDWARE\\LED\\led.c                 0x00000000   Number         0  led.o ABSOLUTE
    ..\\HARDWARE\\SRAM\\sram.c               0x00000000   Number         0  sram.o ABSOLUTE
    ..\\HARDWARE\\TIMER\\timer.c             0x00000000   Number         0  timer.o ABSOLUTE
    ..\\HARDWARE\\TOUCH\\ctiic.c             0x00000000   Number         0  ctiic.o ABSOLUTE
    ..\\HARDWARE\\TOUCH\\ft5206.c            0x00000000   Number         0  ft5206.o ABSOLUTE
    ..\\HARDWARE\\TOUCH\\gt9147.c            0x00000000   Number         0  gt9147.o ABSOLUTE
    ..\\HARDWARE\\TOUCH\\ott2001a.c          0x00000000   Number         0  ott2001a.o ABSOLUTE
    ..\\HARDWARE\\TOUCH\\touch.c             0x00000000   Number         0  touch.o ABSOLUTE
    ..\\MALLOC\\malloc.c                     0x00000000   Number         0  malloc.o ABSOLUTE
    ..\\SYSTEM\\delay\\delay.c               0x00000000   Number         0  delay.o ABSOLUTE
    ..\\SYSTEM\\sys\\sys.c                   0x00000000   Number         0  sys.o ABSOLUTE
    ..\\SYSTEM\\usart\\usart.c               0x00000000   Number         0  usart.o ABSOLUTE
    dc.s                                     0x00000000   Number         0  dc.o ABSOLUTE
    main.c                                   0x00000000   Number         0  main.o ABSOLUTE
    main.c                                   0x00000000   Number         0  main.o ABSOLUTE
    stm32f4xx_it.c                           0x00000000   Number         0  stm32f4xx_it.o ABSOLUTE
    stm32f4xx_it.c                           0x00000000   Number         0  stm32f4xx_it.o ABSOLUTE
    system_stm32f4xx.c                       0x00000000   Number         0  system_stm32f4xx.o ABSOLUTE
    system_stm32f4xx.c                       0x00000000   Number         0  system_stm32f4xx.o ABSOLUTE
    RESET                                    0x08000000   Section      392  startup_stm32f40_41xxx.o(RESET)
    !!!main                                  0x08000188   Section        8  __main.o(!!!main)
    !!!scatter                               0x08000190   Section       52  __scatter.o(!!!scatter)
    !!dczerorl2                              0x080001c4   Section       90  __dczerorl2.o(!!dczerorl2)
    !!handler_zi                             0x08000220   Section       28  __scatter_zi.o(!!handler_zi)
    .ARM.Collect$$_printf_percent$$00000000  0x0800023c   Section        0  _printf_percent.o(.ARM.Collect$$_printf_percent$$00000000)
    .ARM.Collect$$_printf_percent$$00000008  0x0800023c   Section        6  _printf_i.o(.ARM.Collect$$_printf_percent$$00000008)
    .ARM.Collect$$_printf_percent$$00000009  0x08000242   Section        6  _printf_d.o(.ARM.Collect$$_printf_percent$$00000009)
    .ARM.Collect$$_printf_percent$$0000000C  0x08000248   Section        6  _printf_x.o(.ARM.Collect$$_printf_percent$$0000000C)
    .ARM.Collect$$_printf_percent$$00000014  0x0800024e   Section        6  _printf_s.o(.ARM.Collect$$_printf_percent$$00000014)
    .ARM.Collect$$_printf_percent$$00000017  0x08000254   Section        4  _printf_percent_end.o(.ARM.Collect$$_printf_percent$$00000017)
    .ARM.Collect$$libinit$$00000000          0x08000258   Section        2  libinit.o(.ARM.Collect$$libinit$$00000000)
    .ARM.Collect$$libinit$$00000001          0x0800025a   Section        4  libinit2.o(.ARM.Collect$$libinit$$00000001)
    .ARM.Collect$$libinit$$00000004          0x0800025e   Section        0  libinit2.o(.ARM.Collect$$libinit$$00000004)
    .ARM.Collect$$libinit$$0000000A          0x0800025e   Section        0  libinit2.o(.ARM.Collect$$libinit$$0000000A)
    .ARM.Collect$$libinit$$0000000C          0x0800025e   Section        0  libinit2.o(.ARM.Collect$$libinit$$0000000C)
    .ARM.Collect$$libinit$$0000000D          0x0800025e   Section        4  libinit2.o(.ARM.Collect$$libinit$$0000000D)
    .ARM.Collect$$libinit$$0000000E          0x08000262   Section        0  libinit2.o(.ARM.Collect$$libinit$$0000000E)
    .ARM.Collect$$libinit$$00000011          0x08000262   Section        0  libinit2.o(.ARM.Collect$$libinit$$00000011)
    .ARM.Collect$$libinit$$00000013          0x08000262   Section        0  libinit2.o(.ARM.Collect$$libinit$$00000013)
    .ARM.Collect$$libinit$$00000015          0x08000262   Section        0  libinit2.o(.ARM.Collect$$libinit$$00000015)
    .ARM.Collect$$libinit$$00000017          0x08000262   Section        0  libinit2.o(.ARM.Collect$$libinit$$00000017)
    .ARM.Collect$$libinit$$00000019          0x08000262   Section        0  libinit2.o(.ARM.Collect$$libinit$$00000019)
    .ARM.Collect$$libinit$$0000001B          0x08000262   Section        0  libinit2.o(.ARM.Collect$$libinit$$0000001B)
    .ARM.Collect$$libinit$$0000001D          0x08000262   Section        0  libinit2.o(.ARM.Collect$$libinit$$0000001D)
    .ARM.Collect$$libinit$$0000001F          0x08000262   Section        0  libinit2.o(.ARM.Collect$$libinit$$0000001F)
    .ARM.Collect$$libinit$$00000021          0x08000262   Section        0  libinit2.o(.ARM.Collect$$libinit$$00000021)
    .ARM.Collect$$libinit$$00000023          0x08000262   Section        0  libinit2.o(.ARM.Collect$$libinit$$00000023)
    .ARM.Collect$$libinit$$00000025          0x08000262   Section        0  libinit2.o(.ARM.Collect$$libinit$$00000025)
    .ARM.Collect$$libinit$$0000002C          0x08000262   Section        0  libinit2.o(.ARM.Collect$$libinit$$0000002C)
    .ARM.Collect$$libinit$$0000002E          0x08000262   Section        0  libinit2.o(.ARM.Collect$$libinit$$0000002E)
    .ARM.Collect$$libinit$$00000030          0x08000262   Section        0  libinit2.o(.ARM.Collect$$libinit$$00000030)
    .ARM.Collect$$libinit$$00000032          0x08000262   Section        0  libinit2.o(.ARM.Collect$$libinit$$00000032)
    .ARM.Collect$$libinit$$00000033          0x08000262   Section        2  libinit2.o(.ARM.Collect$$libinit$$00000033)
    .ARM.Collect$$libshutdown$$00000000      0x08000264   Section        2  libshutdown.o(.ARM.Collect$$libshutdown$$00000000)
    .ARM.Collect$$libshutdown$$00000002      0x08000266   Section        0  libshutdown2.o(.ARM.Collect$$libshutdown$$00000002)
    .ARM.Collect$$libshutdown$$00000004      0x08000266   Section        0  libshutdown2.o(.ARM.Collect$$libshutdown$$00000004)
    .ARM.Collect$$libshutdown$$00000007      0x08000266   Section        0  libshutdown2.o(.ARM.Collect$$libshutdown$$00000007)
    .ARM.Collect$$libshutdown$$0000000A      0x08000266   Section        0  libshutdown2.o(.ARM.Collect$$libshutdown$$0000000A)
    .ARM.Collect$$libshutdown$$0000000C      0x08000266   Section        0  libshutdown2.o(.ARM.Collect$$libshutdown$$0000000C)
    .ARM.Collect$$libshutdown$$0000000F      0x08000266   Section        0  libshutdown2.o(.ARM.Collect$$libshutdown$$0000000F)
    .ARM.Collect$$libshutdown$$00000010      0x08000266   Section        2  libshutdown2.o(.ARM.Collect$$libshutdown$$00000010)
    .ARM.Collect$$rtentry$$00000000          0x08000268   Section        0  __rtentry.o(.ARM.Collect$$rtentry$$00000000)
    .ARM.Collect$$rtentry$$00000002          0x08000268   Section        0  __rtentry2.o(.ARM.Collect$$rtentry$$00000002)
    .ARM.Collect$$rtentry$$00000004          0x08000268   Section        6  __rtentry4.o(.ARM.Collect$$rtentry$$00000004)
    .ARM.Collect$$rtentry$$00000009          0x0800026e   Section        0  __rtentry2.o(.ARM.Collect$$rtentry$$00000009)
    .ARM.Collect$$rtentry$$0000000A          0x0800026e   Section        4  __rtentry2.o(.ARM.Collect$$rtentry$$0000000A)
    .ARM.Collect$$rtentry$$0000000C          0x08000272   Section        0  __rtentry2.o(.ARM.Collect$$rtentry$$0000000C)
    .ARM.Collect$$rtentry$$0000000D          0x08000272   Section        8  __rtentry2.o(.ARM.Collect$$rtentry$$0000000D)
    .ARM.Collect$$rtexit$$00000000           0x0800027a   Section        2  rtexit.o(.ARM.Collect$$rtexit$$00000000)
    .ARM.Collect$$rtexit$$00000002           0x0800027c   Section        0  rtexit2.o(.ARM.Collect$$rtexit$$00000002)
    .ARM.Collect$$rtexit$$00000003           0x0800027c   Section        4  rtexit2.o(.ARM.Collect$$rtexit$$00000003)
    .ARM.Collect$$rtexit$$00000004           0x08000280   Section        6  rtexit2.o(.ARM.Collect$$rtexit$$00000004)
    .emb_text                                0x08000288   Section       52  rand.o(.emb_text)
    .text                                    0x080002bc   Section        0  main.o(.text)
    .text                                    0x08000322   Section        0  stm32f4xx_it.o(.text)
    .text                                    0x08000338   Section        0  system_stm32f4xx.o(.text)
    SetSysClock                              0x08000339   Thumb Code   220  system_stm32f4xx.o(.text)
    .text                                    0x08000548   Section        0  led.o(.text)
    .text                                    0x08000588   Section        0  sram.o(.text)
    .text                                    0x0800082c   Section        0  ili93xx.o(.text)
    .text                                    0x080054d4   Section        0  24cxx.o(.text)
    .text                                    0x08005650   Section        0  myiic.o(.text)
    .text                                    0x080058ac   Section        0  ctiic.o(.text)
    .text                                    0x08005b08   Section        0  ott2001a.o(.text)
    .text                                    0x08005e90   Section        0  touch.o(.text)
    .text                                    0x08006f60   Section        0  timer.o(.text)
    .text                                    0x0800705c   Section        0  gt9147.o(.text)
    .text                                    0x080074a0   Section        0  ft5206.o(.text)
    .text                                    0x080077d0   Section       64  startup_stm32f40_41xxx.o(.text)
    $v0                                      0x080077d0   Number         0  startup_stm32f40_41xxx.o(.text)
    .text                                    0x08007810   Section        0  misc.o(.text)
    .text                                    0x080078f0   Section        0  stm32f4xx_fsmc.o(.text)
    .text                                    0x08007eb8   Section        0  stm32f4xx_gpio.o(.text)
    .text                                    0x0800814c   Section        0  stm32f4xx_rcc.o(.text)
    .text                                    0x080087a8   Section        0  stm32f4xx_tim.o(.text)
    TI4_Config                               0x08008f47   Thumb Code    80  stm32f4xx_tim.o(.text)
    TI3_Config                               0x08008fa9   Thumb Code    72  stm32f4xx_tim.o(.text)
    TI2_Config                               0x0800900b   Thumb Code    90  stm32f4xx_tim.o(.text)
    TI1_Config                               0x08009077   Thumb Code    58  stm32f4xx_tim.o(.text)
    .text                                    0x0800944c   Section        0  stm32f4xx_usart.o(.text)
    .text                                    0x080098a0   Section        0  delay.o(.text)
    .text                                    0x08009984   Section        0  usart.o(.text)
    .text                                    0x08009ad8   Section        0  malloc.o(.text)
    .text                                    0x08009d0c   Section        0  gui_x.o(.text)
    .text                                    0x08009d34   Section        0  guiconf.o(.text)
    .text                                    0x08009d60   Section        0  guidrv_template.o(.text)
    _SetPixelIndex                           0x08009d61   Thumb Code    26  guidrv_template.o(.text)
    _GetPixelIndex                           0x08009d7b   Thumb Code    26  guidrv_template.o(.text)
    _XorPixel                                0x08009d95   Thumb Code    48  guidrv_template.o(.text)
    _FillRect                                0x08009dc5   Thumb Code    42  guidrv_template.o(.text)
    _DrawHLine                               0x08009def   Thumb Code    26  guidrv_template.o(.text)
    _DrawVLine                               0x08009e09   Thumb Code    26  guidrv_template.o(.text)
    _DrawBitLine1BPP                         0x08009e23   Thumb Code   236  guidrv_template.o(.text)
    _DrawBitLine2BPP                         0x08009f0f   Thumb Code   358  guidrv_template.o(.text)
    _DrawBitLine4BPP                         0x0800a075   Thumb Code   364  guidrv_template.o(.text)
    _DrawBitLine8BPP                         0x0800a1e1   Thumb Code   170  guidrv_template.o(.text)
    _DrawBitLine16BPP                        0x0800a28b   Thumb Code    62  guidrv_template.o(.text)
    _DrawBitLine32BPP                        0x0800a2c9   Thumb Code    42  guidrv_template.o(.text)
    _DrawBitmap                              0x0800a2f3   Thumb Code   250  guidrv_template.o(.text)
    _InitOnce                                0x0800a3ed   Thumb Code    44  guidrv_template.o(.text)
    _GetDevProp                              0x0800a419   Thumb Code    80  guidrv_template.o(.text)
    _GetDevData                              0x0800a469   Thumb Code    14  guidrv_template.o(.text)
    _GetRect                                 0x0800a477   Thumb Code    26  guidrv_template.o(.text)
    _SetOrg                                  0x0800a491   Thumb Code    30  guidrv_template.o(.text)
    _SetVRAMAddr                             0x0800a4af   Thumb Code    38  guidrv_template.o(.text)
    _SetVSize                                0x0800a4d5   Thumb Code    32  guidrv_template.o(.text)
    _SetSize                                 0x0800a4f5   Thumb Code    62  guidrv_template.o(.text)
    _Init                                    0x0800a533   Thumb Code    28  guidrv_template.o(.text)
    _On                                      0x0800a54f   Thumb Code    16  guidrv_template.o(.text)
    _Off                                     0x0800a55f   Thumb Code    16  guidrv_template.o(.text)
    _SetLUTEntry                             0x0800a56f   Thumb Code    32  guidrv_template.o(.text)
    _GetDevFunc                              0x0800a58f   Thumb Code    54  guidrv_template.o(.text)
    .text                                    0x0800a5f4   Section        0  gui_x_touch_analog.o(.text)
    .text                                    0x0800a7f0   Section        0  lcdconf_flexcolor_template.o(.text)
    .text                                    0x0800a9d0   Section        0  guidemo.o(.text)
    _ClearHalt                               0x0800a9d1   Thumb Code    16  guidemo.o(.text)
    _DrawBkSimple                            0x0800a9e1   Thumb Code    30  guidemo.o(.text)
    _DrawBk                                  0x0800a9ff   Thumb Code    52  guidemo.o(.text)
    _DrawBkCircle                            0x0800aa33   Thumb Code   296  guidemo.o(.text)
    _HideProgress                            0x0800ab5b   Thumb Code    24  guidemo.o(.text)
    _ShowProgress                            0x0800ab73   Thumb Code    24  guidemo.o(.text)
    _cbBk                                    0x0800ab8b   Thumb Code    74  guidemo.o(.text)
    _cbEffect                                0x0800abfd   Thumb Code    68  guidemo.o(.text)
    _cbFrameWinControl                       0x0800ac41   Thumb Code   308  guidemo.o(.text)
    _cbFrameWinInfo                          0x0800ad75   Thumb Code   182  guidemo.o(.text)
    _FRAMEWIN_DrawSkinFlex                   0x0800ae2b   Thumb Code    40  guidemo.o(.text)
    _Main                                    0x0800af29   Thumb Code   236  guidemo.o(.text)
    .text                                    0x0800b32c   Section        0  guidemo_antialiasedtext.o(.text)
    _DrawAlphaCircles                        0x0800b32d   Thumb Code   158  guidemo_antialiasedtext.o(.text)
    _DrawSample                              0x0800b3cb   Thumb Code   560  guidemo_antialiasedtext.o(.text)
    _DrawText                                0x0800b5fb   Thumb Code    34  guidemo_antialiasedtext.o(.text)
    _DrawScreen                              0x0800b61d   Thumb Code   120  guidemo_antialiasedtext.o(.text)
    .text                                    0x0800b780   Section        0  guidemo_automotive.o(.text)
    _DrawBk                                  0x0800b781   Thumb Code   128  guidemo_automotive.o(.text)
    _WriteGear                               0x0800b801   Thumb Code   108  guidemo_automotive.o(.text)
    _GetAngle_0                              0x0800b86d   Thumb Code   670  guidemo_automotive.o(.text)
    _GetAngle_1                              0x0800bb0b   Thumb Code   610  guidemo_automotive.o(.text)
    _Draw_0                                  0x0800bd6d   Thumb Code   158  guidemo_automotive.o(.text)
    _Draw_1                                  0x0800be0b   Thumb Code   186  guidemo_automotive.o(.text)
    _AutomotiveDemo                          0x0800bec5   Thumb Code   706  guidemo_automotive.o(.text)
    .text                                    0x0800c290   Section        0  guidemo_bitmap.o(.text)
    _ShowMagnifiedBitmap                     0x0800c291   Thumb Code    62  guidemo_bitmap.o(.text)
    _BitmapDemo                              0x0800c2cf   Thumb Code   154  guidemo_bitmap.o(.text)
    .text                                    0x0800c448   Section        0  guidemo_colorbar.o(.text)
    .text                                    0x0800c714   Section        0  guidemo_conf.o(.text)
    .text                                    0x0800c728   Section        0  guidemo_cursor.o(.text)
    _ShowCursorType                          0x0800c729   Thumb Code   174  guidemo_cursor.o(.text)
    _DispCursor                              0x0800c7d7   Thumb Code   120  guidemo_cursor.o(.text)
    .text                                    0x0800c8ec   Section        0  guidemo_graph.o(.text)
    _AddData_Sine                            0x0800c8ed   Thumb Code   100  guidemo_graph.o(.text)
    _AddData_Heartbeat                       0x0800c951   Thumb Code    50  guidemo_graph.o(.text)
    _ShowGraph                               0x0800c983   Thumb Code   232  guidemo_graph.o(.text)
    _cbBk                                    0x0800ca6b   Thumb Code    30  guidemo_graph.o(.text)
    _GraphDemo                               0x0800ca89   Thumb Code   554  guidemo_graph.o(.text)
    .text                                    0x0800cd40   Section        0  guidemo_intro.o(.text)
    .text                                    0x0800cef0   Section        0  guidemo_listview.o(.text)
    _AddRow                                  0x0800cef1   Thumb Code   162  guidemo_listview.o(.text)
    _InitListview                            0x0800cf93   Thumb Code   114  guidemo_listview.o(.text)
    _Action                                  0x0800d005   Thumb Code   294  guidemo_listview.o(.text)
    _DemoListview                            0x0800d12b   Thumb Code   116  guidemo_listview.o(.text)
    .text                                    0x0800d208   Section        0  guidemo_radialmenu.o(.text)
    _cbDraw                                  0x0800d209   Thumb Code   636  guidemo_radialmenu.o(.text)
    _cbMotion                                0x0800d485   Thumb Code   174  guidemo_radialmenu.o(.text)
    _Delay                                   0x0800d533   Thumb Code    36  guidemo_radialmenu.o(.text)
    _RadialMenu                              0x0800d557   Thumb Code   506  guidemo_radialmenu.o(.text)
    .text                                    0x0800d780   Section        0  guidemo_speed.o(.text)
    _GetPixelsPerSecond                      0x0800d781   Thumb Code   144  guidemo_speed.o(.text)
    .text                                    0x0800da28   Section        0  guidemo_transparentdialog.o(.text)
    _cbWin                                   0x0800da29   Thumb Code   416  guidemo_transparentdialog.o(.text)
    _OnValueChanged                          0x0800dbc9   Thumb Code    76  guidemo_transparentdialog.o(.text)
    _cbClient                                0x0800dc15   Thumb Code   166  guidemo_transparentdialog.o(.text)
    _cbFrame                                 0x0800dcbb   Thumb Code    36  guidemo_transparentdialog.o(.text)
    _TransparentDialog                       0x0800dcdf   Thumb Code   484  guidemo_transparentdialog.o(.text)
    .text                                    0x0800df20   Section        0  guidemo_treeview.o(.text)
    _MoveSprite                              0x0800df21   Thumb Code   144  guidemo_treeview.o(.text)
    _InitTreeview                            0x0800dfb1   Thumb Code   482  guidemo_treeview.o(.text)
    _cbDialog                                0x0800e193   Thumb Code    42  guidemo_treeview.o(.text)
    _Action                                  0x0800e1bd   Thumb Code   290  guidemo_treeview.o(.text)
    _DemoTreeview                            0x0800e2df   Thumb Code   482  guidemo_treeview.o(.text)
    .text                                    0x0800e500   Section        0  guidemo_vscreen.o(.text)
    _Loop                                    0x0800e501   Thumb Code    52  guidemo_vscreen.o(.text)
    _DemoVScreen                             0x0800e535   Thumb Code   334  guidemo_vscreen.o(.text)
    .text                                    0x0800e724   Section        2  use_no_semi_2.o(.text)
    .text                                    0x0800e728   Section        0  noretval__2printf.o(.text)
    .text                                    0x0800e740   Section        0  noretval__2sprintf.o(.text)
    .text                                    0x0800e768   Section        0  __printf.o(.text)
    .text                                    0x0800e7d0   Section        0  _printf_str.o(.text)
    .text                                    0x0800e824   Section        0  _printf_dec.o(.text)
    .text                                    0x0800e89c   Section        0  _printf_hex_int.o(.text)
    .text                                    0x0800e8f4   Section        0  rand.o(.text)
    .text                                    0x0800e930   Section        0  memcmp.o(.text)
    .text                                    0x0800e988   Section        0  strcpy.o(.text)
    .text                                    0x0800e9d0   Section        0  strlen.o(.text)
    .text                                    0x0800ea0e   Section        0  strcat.o(.text)
    .text                                    0x0800ea26   Section      138  rt_memcpy_v6.o(.text)
    .text                                    0x0800eab0   Section      132  rt_memmove_v6.o(.text)
    .text                                    0x0800eb34   Section      100  rt_memcpy_w.o(.text)
    .text                                    0x0800eb98   Section       16  aeabi_memset.o(.text)
    .text                                    0x0800eba8   Section       68  rt_memclr.o(.text)
    .text                                    0x0800ebec   Section       78  rt_memclr_w.o(.text)
    .text                                    0x0800ec3c   Section      128  strcmpv7m.o(.text)
    .text                                    0x0800ecbc   Section        0  heapauxi.o(.text)
    .text                                    0x0800ecc2   Section        2  use_no_semi.o(.text)
    .text                                    0x0800ecc4   Section        0  _rserrno.o(.text)
    .text                                    0x0800ecda   Section        0  _printf_intcommon.o(.text)
    .text                                    0x0800ed8c   Section        0  _printf_char_common.o(.text)
    _printf_input_char                       0x0800ed8d   Thumb Code    10  _printf_char_common.o(.text)
    .text                                    0x0800edbc   Section        0  _sputc.o(.text)
    .text                                    0x0800edc6   Section        0  _printf_char.o(.text)
    .text                                    0x0800edf4   Section        0  _printf_char_file.o(.text)
    .text                                    0x0800ee18   Section      122  rt_memmove_w.o(.text)
    .text                                    0x0800ee94   Section        8  rt_errno_addr_intlibspace.o(.text)
    .text                                    0x0800ee9c   Section        0  ferror.o(.text)
    .text                                    0x0800eea4   Section        8  libspace.o(.text)
    .text                                    0x0800eeac   Section       74  sys_stackheap_outer.o(.text)
    .text                                    0x0800eef6   Section        0  exit.o(.text)
    i.Abs                                    0x0800ef08   Section        0  gui_drawline.o(i.Abs)
    Abs                                      0x0800ef09   Thumb Code     8  gui_drawline.o(i.Abs)
    i.BUTTON_Callback                        0x0800ef10   Section        0  button.o(i.BUTTON_Callback)
    i.BUTTON_CreateIndirect                  0x0800efec   Section        0  button_createindirect.o(i.BUTTON_CreateIndirect)
    i.BUTTON_CreateUser                      0x0800f030   Section        0  button.o(i.BUTTON_CreateUser)
    i.BUTTON_DrawSkinFlex                    0x0800f098   Section        0  button_skinflex.o(i.BUTTON_DrawSkinFlex)
    i.BUTTON_SetDefaultSkin                  0x0800f2d0   Section        0  button_skin.o(i.BUTTON_SetDefaultSkin)
    i.BUTTON_SetFocussable                   0x0800f2ec   Section        0  button.o(i.BUTTON_SetFocussable)
    i.BUTTON_SetPressed                      0x0800f2fc   Section        0  button.o(i.BUTTON_SetPressed)
    i.BUTTON_SetReactOnLevel                 0x0800f310   Section        0  button.o(i.BUTTON_SetReactOnLevel)
    i.BUTTON_SetText                         0x0800f328   Section        0  button.o(i.BUTTON_SetText)
    i.CL_DispChar                            0x0800f378   Section        0  gui_dispchar.o(i.CL_DispChar)
    CL_DispChar                              0x0800f379   Thumb Code   134  gui_dispchar.o(i.CL_DispChar)
    i.Draw8Point                             0x0800f404   Section        0  gui_circ.o(i.Draw8Point)
    Draw8Point                               0x0800f405   Thumb Code   154  gui_circ.o(i.Draw8Point)
    i.FRAMEWIN_Callback                      0x0800f4a4   Section        0  framewin.o(i.FRAMEWIN_Callback)
    i.FRAMEWIN_CreateIndirect                0x0800f68e   Section        0  framewin_createindirect.o(i.FRAMEWIN_CreateIndirect)
    i.FRAMEWIN_CreateUser                    0x0800f6d0   Section        0  framewin.o(i.FRAMEWIN_CreateUser)
    i.FRAMEWIN_DrawSkinFlex                  0x0800f7b4   Section        0  framewin_skinflex.o(i.FRAMEWIN_DrawSkinFlex)
    i.FRAMEWIN_GetActive                     0x0800fb30   Section        0  framewin_get.o(i.FRAMEWIN_GetActive)
    i.FRAMEWIN_GetSkinFlexProps              0x0800fb50   Section        0  framewin_skinflex.o(i.FRAMEWIN_GetSkinFlexProps)
    i.FRAMEWIN_OwnerDraw                     0x0800fb68   Section        0  framewin_skinclassic.o(i.FRAMEWIN_OwnerDraw)
    i.FRAMEWIN_SetActive                     0x0800fc1e   Section        0  framewin.o(i.FRAMEWIN_SetActive)
    i.FRAMEWIN_SetDefaultBarColor            0x0800fc28   Section        0  framewin_default.o(i.FRAMEWIN_SetDefaultBarColor)
    i.FRAMEWIN_SetDefaultFont                0x0800fc3c   Section        0  framewin_default.o(i.FRAMEWIN_SetDefaultFont)
    i.FRAMEWIN_SetDefaultSkin                0x0800fc48   Section        0  framewin_skin.o(i.FRAMEWIN_SetDefaultSkin)
    i.FRAMEWIN_SetDefaultTextAlign           0x0800fc70   Section        0  framewin_default.o(i.FRAMEWIN_SetDefaultTextAlign)
    i.FRAMEWIN_SetOwnerDraw                  0x0800fc80   Section        0  framewin_setownerdraw.o(i.FRAMEWIN_SetOwnerDraw)
    i.FRAMEWIN_SetSkinFlexProps              0x0800fca0   Section        0  framewin_skinflex.o(i.FRAMEWIN_SetSkinFlexProps)
    i.FRAMEWIN_SetText                       0x0800fcf0   Section        0  framewin.o(i.FRAMEWIN_SetText)
    i.FRAMEWIN_SetTextAlign                  0x0800fd2e   Section        0  framewin.o(i.FRAMEWIN_SetTextAlign)
    i.FRAMEWIN_SetTextColor                  0x0800fd56   Section        0  framewin_setcolors.o(i.FRAMEWIN_SetTextColor)
    i.FRAMEWIN__CalcPositions                0x0800fd80   Section        0  framewin.o(i.FRAMEWIN__CalcPositions)
    i.FRAMEWIN__CalcTitleHeight              0x0800fe4e   Section        0  framewin.o(i.FRAMEWIN__CalcTitleHeight)
    i.FRAMEWIN__GetBorderSize                0x0800fe6e   Section        0  framewin.o(i.FRAMEWIN__GetBorderSize)
    i.FRAMEWIN__GetTitleLimits               0x0800feb4   Section        0  framewin.o(i.FRAMEWIN__GetTitleLimits)
    i.FRAMEWIN__cbClient                     0x0800ff3a   Section        0  framewin.o(i.FRAMEWIN__cbClient)
    FRAMEWIN__cbClient                       0x0800ff3b   Thumb Code   232  framewin.o(i.FRAMEWIN__cbClient)
    i.GL_DispChar                            0x08010024   Section        0  gui_char.o(i.GL_DispChar)
    i.GL_DrawBitmap                          0x08010060   Section        0  gui_drawbitmap.o(i.GL_DrawBitmap)
    i.GL_DrawCircle                          0x080100fc   Section        0  gui_circ.o(i.GL_DrawCircle)
    i.GL_DrawLine                            0x08010160   Section        0  gui_drawline.o(i.GL_DrawLine)
    i.GL_DrawLine1Ex                         0x08010170   Section        0  gui_drawline.o(i.GL_DrawLine1Ex)
    i.GL_DrawLineEx                          0x0801033c   Section        0  gui_drawline.o(i.GL_DrawLineEx)
    i.GL_DrawPoint                           0x08010448   Section        0  gui_drawpoint.o(i.GL_DrawPoint)
    i.GL_FillCircle                          0x08010468   Section        0  gui_circ.o(i.GL_FillCircle)
    i.GL_FillCircleAA_HiRes                  0x08010524   Section        0  guiaa_circle.o(i.GL_FillCircleAA_HiRes)
    i.GL_FillPolygon                         0x08010548   Section        0  gui_fillpolygon.o(i.GL_FillPolygon)
    i.GL_SetDefault                          0x08010724   Section        0  gui_setdefault.o(i.GL_SetDefault)
    i.GRAPH_AttachData                       0x08010764   Section        0  graph.o(i.GRAPH_AttachData)
    i.GRAPH_AttachScale                      0x0801079e   Section        0  graph.o(i.GRAPH_AttachScale)
    i.GRAPH_Callback                         0x080107d8   Section        0  graph.o(i.GRAPH_Callback)
    i.GRAPH_CreateEx                         0x08010866   Section        0  graph.o(i.GRAPH_CreateEx)
    i.GRAPH_CreateUser                       0x08010884   Section        0  graph.o(i.GRAPH_CreateUser)
    i.GRAPH_DATA_YT_AddValue                 0x080108f4   Section        0  graph_data_yt.o(i.GRAPH_DATA_YT_AddValue)
    i.GRAPH_DATA_YT_Create                   0x08010924   Section        0  graph_data_yt.o(i.GRAPH_DATA_YT_Create)
    i.GRAPH_DATA_YT_Delete                   0x0801099c   Section        0  graph_data_yt.o(i.GRAPH_DATA_YT_Delete)
    i.GRAPH_DetachData                       0x080109a0   Section        0  graph.o(i.GRAPH_DetachData)
    i.GRAPH_DetachScale                      0x080109fc   Section        0  graph.o(i.GRAPH_DetachScale)
    i.GRAPH_SCALE_Create                     0x08010a58   Section        0  graph_scale.o(i.GRAPH_SCALE_Create)
    i.GRAPH_SCALE_Delete                     0x08010aa8   Section        0  graph_scale.o(i.GRAPH_SCALE_Delete)
    i.GRAPH_SCALE_SetOff                     0x08010aac   Section        0  graph_scale.o(i.GRAPH_SCALE_SetOff)
    i.GRAPH_SCALE_SetPos                     0x08010ad2   Section        0  graph_scale.o(i.GRAPH_SCALE_SetPos)
    i.GRAPH_SetBorder                        0x08010af8   Section        0  graph.o(i.GRAPH_SetBorder)
    i.GRAPH_SetColor                         0x08010b30   Section        0  graph.o(i.GRAPH_SetColor)
    i.GRAPH_SetGridDistX                     0x08010b64   Section        0  graph.o(i.GRAPH_SetGridDistX)
    i.GRAPH_SetGridDistY                     0x08010b8e   Section        0  graph.o(i.GRAPH_SetGridDistY)
    i.GRAPH_SetGridOffY                      0x08010bb8   Section        0  graph.o(i.GRAPH_SetGridOffY)
    i.GRAPH_SetGridVis                       0x08010be2   Section        0  graph.o(i.GRAPH_SetGridVis)
    i.GRAPH__AddValue                        0x08010c10   Section        0  graph.o(i.GRAPH__AddValue)
    i.GRAPH__InvalidateGraph                 0x08010c74   Section        0  graph.o(i.GRAPH__InvalidateGraph)
    i.GUIMONO_DispChar                       0x08010cdc   Section        0  gui_charm.o(i.GUIMONO_DispChar)
    i.GUIMONO_GetCharDistX                   0x08010e10   Section        0  gui_charm.o(i.GUIMONO_GetCharDistX)
    i.GUIMONO_GetFontInfo                    0x08010e28   Section        0  gui_charm.o(i.GUIMONO_GetFontInfo)
    i.GUIMONO_IsInFont                       0x08010e2e   Section        0  gui_charm.o(i.GUIMONO_IsInFont)
    i.GUIPROP_AA2_EXT_DispChar               0x08010e68   Section        0  guiaa_char2ext.o(i.GUIPROP_AA2_EXT_DispChar)
    i.GUIPROP_AA4_EXT_DispChar               0x08010f24   Section        0  guiaa_char4ext.o(i.GUIPROP_AA4_EXT_DispChar)
    i.GUIPROP_DispChar                       0x08010fe0   Section        0  gui_charp.o(i.GUIPROP_DispChar)
    i.GUIPROP_EXT_GetCharDistX               0x080110ac   Section        0  gui_charpext.o(i.GUIPROP_EXT_GetCharDistX)
    i.GUIPROP_EXT_GetCharInfo                0x080110f4   Section        0  gui_charpext.o(i.GUIPROP_EXT_GetCharInfo)
    i.GUIPROP_EXT_GetFontInfo                0x0801112c   Section        0  gui_charpext.o(i.GUIPROP_EXT_GetFontInfo)
    i.GUIPROP_EXT_IsInFont                   0x08011132   Section        0  gui_charpext.o(i.GUIPROP_EXT_IsInFont)
    i.GUIPROP_EXT__ClearLine                 0x08011144   Section        0  gui_encext.o(i.GUIPROP_EXT__ClearLine)
    i.GUIPROP_EXT__DispLine                  0x080111c4   Section        0  gui_encext.o(i.GUIPROP_EXT__DispLine)
    i.GUIPROP_EXT__FindChar                  0x08011208   Section        0  gui_charpext.o(i.GUIPROP_EXT__FindChar)
    i.GUIPROP_GetCharDistX                   0x08011220   Section        0  gui_charp.o(i.GUIPROP_GetCharDistX)
    i.GUIPROP_GetFontInfo                    0x08011264   Section        0  gui_charp.o(i.GUIPROP_GetFontInfo)
    i.GUIPROP_IsInFont                       0x0801126a   Section        0  gui_charp.o(i.GUIPROP_IsInFont)
    i.GUIPROP__FindChar                      0x0801127a   Section        0  gui_charp.o(i.GUIPROP__FindChar)
    i.GUI_AA_DisableHiRes                    0x08011290   Section        0  guiaa_lib.o(i.GUI_AA_DisableHiRes)
    i.GUI_AA_EnableHiRes                     0x080112a0   Section        0  guiaa_lib.o(i.GUI_AA_EnableHiRes)
    i.GUI_AA_Exit                            0x080112b0   Section        0  guiaa_lib.o(i.GUI_AA_Exit)
    i.GUI_AA_FillCircle                      0x080112d0   Section        0  guiaa_circle.o(i.GUI_AA_FillCircle)
    i.GUI_AA_FillPolygon                     0x08011340   Section        0  guiaa_poly.o(i.GUI_AA_FillPolygon)
    i.GUI_AA_HiRes2Pixel                     0x080113b0   Section        0  guiaa_lib.o(i.GUI_AA_HiRes2Pixel)
    i.GUI_AA_Init                            0x080113c8   Section        0  guiaa_lib.o(i.GUI_AA_Init)
    i.GUI_AA_Init_HiRes                      0x08011470   Section        0  guiaa_lib.o(i.GUI_AA_Init_HiRes)
    i.GUI_AA_SetFactor                       0x08011488   Section        0  guiaa_lib.o(i.GUI_AA_SetFactor)
    i.GUI_AA__DrawCharAA2                    0x08011498   Section        0  guiaa_char2.o(i.GUI_AA__DrawCharAA2)
    i.GUI_AA__DrawCharAA4                    0x080114bc   Section        0  guiaa_char4.o(i.GUI_AA__DrawCharAA4)
    i.GUI_ALLOC_AllocInit                    0x080114e8   Section        0  gui_alloc_allocinit.o(i.GUI_ALLOC_AllocInit)
    i.GUI_ALLOC_AllocNoInit                  0x08011520   Section        0  gui_alloc.o(i.GUI_ALLOC_AllocNoInit)
    i.GUI_ALLOC_AllocZero                    0x0801152a   Section        0  gui_alloc_alloczero.o(i.GUI_ALLOC_AllocZero)
    i.GUI_ALLOC_AssignMemory                 0x08011550   Section        0  gui_alloc.o(i.GUI_ALLOC_AssignMemory)
    i.GUI_ALLOC_Free                         0x08011560   Section        0  gui_alloc.o(i.GUI_ALLOC_Free)
    i.GUI_ALLOC_FreeFixedBlock               0x08011598   Section        0  gui_alloc.o(i.GUI_ALLOC_FreeFixedBlock)
    i.GUI_ALLOC_FreePtr                      0x080115b0   Section        0  gui_alloc.o(i.GUI_ALLOC_FreePtr)
    i.GUI_ALLOC_FreePtrArray                 0x080115c0   Section        0  gui_alloc.o(i.GUI_ALLOC_FreePtrArray)
    i.GUI_ALLOC_GetFixedBlock                0x080115dc   Section        0  gui_alloc.o(i.GUI_ALLOC_GetFixedBlock)
    i.GUI_ALLOC_GetMaxSize                   0x0801168c   Section        0  gui_alloc.o(i.GUI_ALLOC_GetMaxSize)
    i.GUI_ALLOC_GetNumFreeBytes              0x080116cc   Section        0  gui_alloc.o(i.GUI_ALLOC_GetNumFreeBytes)
    i.GUI_ALLOC_GetSize                      0x080116e0   Section        0  gui_alloc.o(i.GUI_ALLOC_GetSize)
    i.GUI_ALLOC_LockH                        0x080116fc   Section        0  gui_alloc.o(i.GUI_ALLOC_LockH)
    i.GUI_ALLOC_Realloc                      0x08011718   Section        0  gui_realloc.o(i.GUI_ALLOC_Realloc)
    i.GUI_ALLOC_RequestSize                  0x08011768   Section        0  gui_alloc.o(i.GUI_ALLOC_RequestSize)
    i.GUI_ALLOC_SetAvBlockSize               0x08011790   Section        0  gui_alloc.o(i.GUI_ALLOC_SetAvBlockSize)
    i.GUI_ALLOC_UnlockH                      0x080117ac   Section        0  gui_alloc.o(i.GUI_ALLOC_UnlockH)
    i.GUI_ALLOC_h2p                          0x080117dc   Section        0  gui_alloc.o(i.GUI_ALLOC_h2p)
    i.GUI_ARRAY_AddItem                      0x080117f4   Section        0  gui_array.o(i.GUI_ARRAY_AddItem)
    i.GUI_ARRAY_Create                       0x0801186e   Section        0  gui_array.o(i.GUI_ARRAY_Create)
    i.GUI_ARRAY_Delete                       0x08011874   Section        0  gui_array.o(i.GUI_ARRAY_Delete)
    i.GUI_ARRAY_DeleteItem                   0x080118c4   Section        0  gui_array_deleteitem.o(i.GUI_ARRAY_DeleteItem)
    i.GUI_ARRAY_GetNumItems                  0x08011916   Section        0  gui_array.o(i.GUI_ARRAY_GetNumItems)
    i.GUI_ARRAY_GethItem                     0x0801192e   Section        0  gui_array.o(i.GUI_ARRAY_GethItem)
    i.GUI_ARRAY_GetpItemLocked               0x0801194e   Section        0  gui_array.o(i.GUI_ARRAY_GetpItemLocked)
    i.GUI_ARRAY_InsertBlankItem              0x0801196e   Section        0  gui_array_insertitem.o(i.GUI_ARRAY_InsertBlankItem)
    i.GUI_ARRAY_InsertItem                   0x080119fa   Section        0  gui_array_insertitem.o(i.GUI_ARRAY_InsertItem)
    i.GUI_ARRAY_SetItem                      0x08011a20   Section        0  gui_array.o(i.GUI_ARRAY_SetItem)
    i.GUI_ARRAY__GethItem                    0x08011aaa   Section        0  gui_array.o(i.GUI_ARRAY__GethItem)
    i.GUI_ARRAY__GetpItemLocked              0x08011ace   Section        0  gui_array.o(i.GUI_ARRAY__GetpItemLocked)
    i.GUI_AddDecMin                          0x08011ae2   Section        0  gui_adddecmin.o(i.GUI_AddDecMin)
    i.GUI_AddDecShift                        0x08011afc   Section        0  gui_adddecshift.o(i.GUI_AddDecShift)
    i.GUI_AddSign                            0x08011b94   Section        0  gui_adddecshift.o(i.GUI_AddSign)
    i.GUI_CURSOR_GetStateEx                  0x08011bac   Section        0  gui_curs1.o(i.GUI_CURSOR_GetStateEx)
    i.GUI_CURSOR_Hide                        0x08011bc0   Section        0  gui_curs1.o(i.GUI_CURSOR_Hide)
    i.GUI_CURSOR_HideEx                      0x08011bd0   Section        0  gui_curs1.o(i.GUI_CURSOR_HideEx)
    i.GUI_CURSOR_Select                      0x08011c20   Section        0  gui_curs1.o(i.GUI_CURSOR_Select)
    i.GUI_CURSOR_SelectEx                    0x08011c30   Section        0  gui_curs1.o(i.GUI_CURSOR_SelectEx)
    i.GUI_CURSOR_SetPosition                 0x08011cf8   Section        0  gui_curs1.o(i.GUI_CURSOR_SetPosition)
    i.GUI_CURSOR_SetPositionEx               0x08011d08   Section        0  gui_curs1.o(i.GUI_CURSOR_SetPositionEx)
    i.GUI_CURSOR_Show                        0x08011d78   Section        0  gui_curs1.o(i.GUI_CURSOR_Show)
    i.GUI_CURSOR_ShowEx                      0x08011d88   Section        0  gui_curs1.o(i.GUI_CURSOR_ShowEx)
    i.GUI_CalcColorDist                      0x08011db8   Section        0  gui_calccolordist.o(i.GUI_CalcColorDist)
    i.GUI_Clear                              0x08011df4   Section        0  gui_core.o(i.GUI_Clear)
    i.GUI_ClearRect                          0x08011e10   Section        0  gui_core.o(i.GUI_ClearRect)
    i.GUI_ClearRectEx                        0x08011e70   Section        0  gui_clearrectex.o(i.GUI_ClearRectEx)
    i.GUI_Color2Index                        0x08011e84   Section        0  gui_color2index.o(i.GUI_Color2Index)
    i.GUI_CreateDialogBox                    0x08011e88   Section        0  dialog.o(i.GUI_CreateDialogBox)
    i.GUI_DEVICE_Create                      0x08011f2c   Section        0  gui_device.o(i.GUI_DEVICE_Create)
    i.GUI_DEVICE_CreateAndLink               0x08011f7c   Section        0  gui_device.o(i.GUI_DEVICE_CreateAndLink)
    i.GUI_DEVICE_Delete                      0x08011fa4   Section        0  gui_device.o(i.GUI_DEVICE_Delete)
    i.GUI_DEVICE_Link                        0x08011fa8   Section        0  gui_device.o(i.GUI_DEVICE_Link)
    i.GUI_DEVICE_Unlink                      0x08012030   Section        0  gui_device.o(i.GUI_DEVICE_Unlink)
    i.GUI_DEVICE__GetpDevice                 0x08012034   Section        0  gui_device.o(i.GUI_DEVICE__GetpDevice)
    i.GUI_DEVICE__GetpDriver                 0x08012058   Section        0  gui_device.o(i.GUI_DEVICE__GetpDriver)
    i.GUI_DRAW__Draw                         0x0801207c   Section        0  gui_draw.o(i.GUI_DRAW__Draw)
    i.GUI_DRAW__GetXSize                     0x080120a8   Section        0  gui_draw.o(i.GUI_DRAW__GetXSize)
    i.GUI_DRAW__GetYSize                     0x080120ca   Section        0  gui_draw.o(i.GUI_DRAW__GetYSize)
    i.GUI_Delay                              0x080120ec   Section        0  gui_time.o(i.GUI_Delay)
    i.GUI_DispCharAt                         0x08012118   Section        0  gui_dispchar.o(i.GUI_DispCharAt)
    i.GUI_DispDecAt                          0x08012128   Section        0  gui_val.o(i.GUI_DispDecAt)
    i.GUI_DispDecShift                       0x0801214a   Section        0  gui_val.o(i.GUI_DispDecShift)
    i.GUI_DispFloatMin                       0x0801215e   Section        0  gui_valf.o(i.GUI_DispFloatMin)
    i.GUI_DispNextLine                       0x08012164   Section        0  gui_char.o(i.GUI_DispNextLine)
    i.GUI_DispSDecShift                      0x08012180   Section        0  gui_val.o(i.GUI_DispSDecShift)
    i.GUI_DispString                         0x080121ac   Section        0  gui_dispstring.o(i.GUI_DispString)
    i.GUI_DispStringAt                       0x080122ac   Section        0  gui_dispstringat.o(i.GUI_DispStringAt)
    i.GUI_DispStringHCenterAt                0x080122bc   Section        0  gui_dispstringhcenter.o(i.GUI_DispStringHCenterAt)
    i.GUI_DispStringInRect                   0x080122f0   Section        0  gui_dispstringinrect.o(i.GUI_DispStringInRect)
    i.GUI_DispStringInRectMax                0x080122f8   Section        0  gui_dispstringinrect.o(i.GUI_DispStringInRectMax)
    i.GUI_DispStringInRectWrap               0x0801233c   Section        0  gui_dispstringinrectwrap.o(i.GUI_DispStringInRectWrap)
    i.GUI_DrawBitmap                         0x08012450   Section        0  gui_drawbitmap.o(i.GUI_DrawBitmap)
    i.GUI_DrawBitmapMag                      0x0801249c   Section        0  gui_drawbitmapmag.o(i.GUI_DrawBitmapMag)
    i.GUI_DrawCircle                         0x08012574   Section        0  gui_circ.o(i.GUI_DrawCircle)
    i.GUI_DrawFocusRect                      0x080125bc   Section        0  gui_drawfocusrect.o(i.GUI_DrawFocusRect)
    i.GUI_DrawGradientH                      0x08012660   Section        0  gui_drawgradient.o(i.GUI_DrawGradientH)
    i.GUI_DrawGradientV                      0x080126c8   Section        0  gui_drawgradient.o(i.GUI_DrawGradientV)
    i.GUI_DrawGraphEx                        0x08012730   Section        0  gui_drawgraphex.o(i.GUI_DrawGraphEx)
    i.GUI_DrawHLine                          0x08012778   Section        0  gui_drawhline.o(i.GUI_DrawHLine)
    i.GUI_DrawLine                           0x080127c4   Section        0  gui_drawline.o(i.GUI_DrawLine)
    i.GUI_DrawPixel                          0x080127fc   Section        0  gui_drawpixel.o(i.GUI_DrawPixel)
    i.GUI_DrawRect                           0x0801283c   Section        0  gui_2dlib.o(i.GUI_DrawRect)
    i.GUI_DrawVLine                          0x080128b8   Section        0  gui_drawvline.o(i.GUI_DrawVLine)
    i.GUI_EnableAlpha                        0x080128f8   Section        0  gui_enablealpha.o(i.GUI_EnableAlpha)
    i.GUI_Exec                               0x08012978   Section        0  gui_exec.o(i.GUI_Exec)
    i.GUI_Exec1                              0x0801298c   Section        0  gui_exec.o(i.GUI_Exec1)
    i.GUI_FillRect                           0x080129ac   Section        0  gui_fillrect.o(i.GUI_FillRect)
    i.GUI_FillRectEx                         0x080129f4   Section        0  gui_fillrectex.o(i.GUI_FillRectEx)
    i.GUI_GetBitmapPixelIndex                0x08012a08   Section        0  gui_getbitmappixelindex.o(i.GUI_GetBitmapPixelIndex)
    i.GUI_GetBitmapPixelIndexEx              0x08012a1e   Section        0  gui_getbitmappixelindex.o(i.GUI_GetBitmapPixelIndexEx)
    i.GUI_GetBitsPerPixelEx                  0x08012aa8   Section        0  lcd_getex.o(i.GUI_GetBitsPerPixelEx)
    i.GUI_GetBkColor                         0x08012abc   Section        0  gui_getcolor.o(i.GUI_GetBkColor)
    i.GUI_GetCharDistX                       0x08012acc   Section        0  gui_char.o(i.GUI_GetCharDistX)
    i.GUI_GetCharDistXEx                     0x08012adc   Section        0  gui_char.o(i.GUI_GetCharDistXEx)
    i.GUI_GetClientRect                      0x08012aec   Section        0  gui_getclientrect.o(i.GUI_GetClientRect)
    i.GUI_GetColor                           0x08012af6   Section        0  gui_getcolor.o(i.GUI_GetColor)
    i.GUI_GetCursorLayer                     0x08012b04   Section        0  gui_selectlayer.o(i.GUI_GetCursorLayer)
    i.GUI_GetFontDistY                       0x08012b18   Section        0  gui_char.o(i.GUI_GetFontDistY)
    i.GUI_GetFontSizeY                       0x08012b28   Section        0  gui_getfontsizey.o(i.GUI_GetFontSizeY)
    i.GUI_GetLayerPosEx                      0x08012b2c   Section        0  gui_selectlayer.o(i.GUI_GetLayerPosEx)
    i.GUI_GetLineStyle                       0x08012b44   Section        0  gui_getlinestyle.o(i.GUI_GetLineStyle)
    i.GUI_GetOrg                             0x08012b50   Section        0  gui_getorg.o(i.GUI_GetOrg)
    i.GUI_GetStringDistX                     0x08012b54   Section        0  gui_getstringdistx.o(i.GUI_GetStringDistX)
    i.GUI_GetTime                            0x08012b68   Section        0  gui_time.o(i.GUI_GetTime)
    i.GUI_GetVersionString                   0x08012b6c   Section        0  gui_getversionstring.o(i.GUI_GetVersionString)
    i.GUI_GetYAdjust                         0x08012b80   Section        0  gui_char.o(i.GUI_GetYAdjust)
    i.GUI_GetYDistOfFont                     0x08012bb0   Section        0  gui_getysizeoffont.o(i.GUI_GetYDistOfFont)
    i.GUI_GetYSizeOfFont                     0x08012bba   Section        0  gui_getysizeoffont.o(i.GUI_GetYSizeOfFont)
    i.GUI_GetpfColor2IndexEx                 0x08012bc4   Section        0  lcd_getex.o(i.GUI_GetpfColor2IndexEx)
    i.GUI_GetpfIndex2ColorEx                 0x08012bd4   Section        0  lcd_getex.o(i.GUI_GetpfIndex2ColorEx)
    i.GUI_GotoXY                             0x08012be4   Section        0  gui_goto.o(i.GUI_GotoXY)
    i.GUI_Init                               0x08012bf8   Section        0  gui_core.o(i.GUI_Init)
    i.GUI_Long2Len                           0x08012c5c   Section        0  gui_adddecshift.o(i.GUI_Long2Len)
    i.GUI_MEASDEV_ClearRect                  0x08012c88   Section        0  guidev_measure.o(i.GUI_MEASDEV_ClearRect)
    i.GUI_MEASDEV_Create                     0x08012cac   Section        0  guidev_measure.o(i.GUI_MEASDEV_Create)
    i.GUI_MEASDEV_Delete                     0x08012d08   Section        0  guidev_measure.o(i.GUI_MEASDEV_Delete)
    i.GUI_MEASDEV_GetRect                    0x08012d44   Section        0  guidev_measure.o(i.GUI_MEASDEV_GetRect)
    i.GUI_MEASDEV_Select                     0x08012d70   Section        0  guidev_measure.o(i.GUI_MEASDEV_Select)
    i.GUI_MEMDEV_Clear                       0x08012dac   Section        0  guidev_clear.o(i.GUI_MEMDEV_Clear)
    i.GUI_MEMDEV_CopyToLCD                   0x08012de8   Section        0  guidev.o(i.GUI_MEMDEV_CopyToLCD)
    i.GUI_MEMDEV_CopyToLCDAt                 0x08012df4   Section        0  guidev.o(i.GUI_MEMDEV_CopyToLCDAt)
    i.GUI_MEMDEV_CreateAuto                  0x08012e94   Section        0  guidev_auto.o(i.GUI_MEMDEV_CreateAuto)
    i.GUI_MEMDEV_CreateEx                    0x08012e9c   Section        0  guidev.o(i.GUI_MEMDEV_CreateEx)
    i.GUI_MEMDEV_CreateFixed                 0x08012f14   Section        0  guidev_createfixed.o(i.GUI_MEMDEV_CreateFixed)
    i.GUI_MEMDEV_Delete                      0x08012f34   Section        0  guidev.o(i.GUI_MEMDEV_Delete)
    i.GUI_MEMDEV_DeleteAuto                  0x08012f74   Section        0  guidev_auto.o(i.GUI_MEMDEV_DeleteAuto)
    i.GUI_MEMDEV_Draw                        0x08012f78   Section        0  guidev_banding.o(i.GUI_MEMDEV_Draw)
    i.GUI_MEMDEV_DrawAuto                    0x080130a4   Section        0  guidev_auto.o(i.GUI_MEMDEV_DrawAuto)
    i.GUI_MEMDEV_DrawPerspectiveX            0x0801315c   Section        0  guidev_perspective.o(i.GUI_MEMDEV_DrawPerspectiveX)
    i.GUI_MEMDEV_GetBitsPerPixel             0x080131dc   Section        0  guidev.o(i.GUI_MEMDEV_GetBitsPerPixel)
    i.GUI_MEMDEV_GetDataPtr                  0x08013200   Section        0  guidev_getdataptr.o(i.GUI_MEMDEV_GetDataPtr)
    i.GUI_MEMDEV_GetXPos                     0x08013218   Section        0  guidev_getpos.o(i.GUI_MEMDEV_GetXPos)
    i.GUI_MEMDEV_GetXSize                    0x08013240   Section        0  guidev_getxsize.o(i.GUI_MEMDEV_GetXSize)
    i.GUI_MEMDEV_GetYPos                     0x08013268   Section        0  guidev_getpos.o(i.GUI_MEMDEV_GetYPos)
    i.GUI_MEMDEV_GetYSize                    0x08013290   Section        0  guidev_getysize.o(i.GUI_MEMDEV_GetYSize)
    i.GUI_MEMDEV_Paint1Static                0x080132b8   Section        0  guidev_staticdevices.o(i.GUI_MEMDEV_Paint1Static)
    i.GUI_MEMDEV_ReduceYSize                 0x080132d8   Section        0  guidev_reduceysize.o(i.GUI_MEMDEV_ReduceYSize)
    i.GUI_MEMDEV_Select                      0x08013304   Section        0  guidev.o(i.GUI_MEMDEV_Select)
    i.GUI_MEMDEV_SetAnimationCallback        0x08013348   Section        0  guidev_moveandfade.o(i.GUI_MEMDEV_SetAnimationCallback)
    i.GUI_MEMDEV_SetOrg                      0x08013354   Section        0  guidev_setorg.o(i.GUI_MEMDEV_SetOrg)
    i.GUI_MEMDEV_Write                       0x080133ac   Section        0  guidev_write.o(i.GUI_MEMDEV_Write)
    i.GUI_MEMDEV_WriteAt                     0x080133b8   Section        0  guidev_write.o(i.GUI_MEMDEV_WriteAt)
    i.GUI_MEMDEV__CreateFixed                0x08013418   Section        0  guidev.o(i.GUI_MEMDEV__CreateFixed)
    i.GUI_MEMDEV__SetAlphaCallback           0x08013504   Section        0  guidev_banding.o(i.GUI_MEMDEV__SetAlphaCallback)
    i.GUI_MEMDEV__WriteToActiveAlpha         0x08013510   Section        0  guidev_writetoactivealpha.o(i.GUI_MEMDEV__WriteToActiveAlpha)
    i.GUI_MEMDEV__WriteToActiveAt            0x080136a0   Section        0  guidev.o(i.GUI_MEMDEV__WriteToActiveAt)
    i.GUI_MEMDEV__WriteToActiveOpaque        0x080136d0   Section        0  guidev_writetoactiveopaque.o(i.GUI_MEMDEV__WriteToActiveOpaque)
    i.GUI_MergeRect                          0x0801370c   Section        0  gui_mergerect.o(i.GUI_MergeRect)
    i.GUI_MoveRect                           0x08013764   Section        0  gui_moverect.o(i.GUI_MoveRect)
    i.GUI_PID_GetState                       0x08013784   Section        0  gui_pid.o(i.GUI_PID_GetState)
    i.GUI_PID_IsEmpty                        0x080137c8   Section        0  gui_pid.o(i.GUI_PID_IsEmpty)
    i.GUI_PID_StoreState                     0x080137e0   Section        0  gui_pid.o(i.GUI_PID_StoreState)
    i.GUI_PollKeyMsg                         0x080137fc   Section        0  gui_onkey.o(i.GUI_PollKeyMsg)
    i.GUI_ReadRectEx                         0x08013828   Section        0  lcd_readrect.o(i.GUI_ReadRectEx)
    i.GUI_RectsIntersect                     0x08013888   Section        0  gui_rectsintersect.o(i.GUI_RectsIntersect)
    i.GUI_RestoreContext                     0x080138c0   Section        0  gui_savecontext.o(i.GUI_RestoreContext)
    i.GUI_RotatePolygon                      0x080138d0   Section        0  gui_polyrotate.o(i.GUI_RotatePolygon)
    i.GUI_SPRITE_Create                      0x08013944   Section        0  gui_sprite.o(i.GUI_SPRITE_Create)
    i.GUI_SPRITE_Delete                      0x0801395c   Section        0  gui_sprite.o(i.GUI_SPRITE_Delete)
    i.GUI_SPRITE_Hide                        0x08013998   Section        0  gui_sprite.o(i.GUI_SPRITE_Hide)
    i.GUI_SPRITE_SetBitmapAndPosition        0x080139c8   Section        0  gui_sprite.o(i.GUI_SPRITE_SetBitmapAndPosition)
    i.GUI_SPRITE_SetPosition                 0x08013a28   Section        0  gui_sprite.o(i.GUI_SPRITE_SetPosition)
    i.GUI_SPRITE_Show                        0x08013a32   Section        0  gui_sprite.o(i.GUI_SPRITE_Show)
    i.GUI_SPRITE__CreateEx                   0x08013a70   Section        0  gui_sprite.o(i.GUI_SPRITE__CreateEx)
    i.GUI_SaveContext_W                      0x08013b14   Section        0  gui_savecontext.o(i.GUI_SaveContext_W)
    i.GUI_SelectLCD                          0x08013b24   Section        0  gui_selectlcd.o(i.GUI_SelectLCD)
    i.GUI_SelectLayer                        0x08013b38   Section        0  gui_selectlayer.o(i.GUI_SelectLayer)
    i.GUI_SetAlpha                           0x08013b5c   Section        0  gui_setalpha.o(i.GUI_SetAlpha)
    i.GUI_SetBkColor                         0x08013bd4   Section        0  gui_setcolor.o(i.GUI_SetBkColor)
    i.GUI_SetClipRect                        0x08013bd8   Section        0  gui_setcliprect.o(i.GUI_SetClipRect)
    i.GUI_SetColor                           0x08013bdc   Section        0  gui_setcolor.o(i.GUI_SetColor)
    i.GUI_SetColorIndex                      0x08013be0   Section        0  gui_setcolorindex.o(i.GUI_SetColorIndex)
    i.GUI_SetDefaultFont                     0x08013bf4   Section        0  gui_core.o(i.GUI_SetDefaultFont)
    i.GUI_SetDrawMode                        0x08013c00   Section        0  gui_setdrawmode.o(i.GUI_SetDrawMode)
    i.GUI_SetFont                            0x08013c04   Section        0  gui_setfont.o(i.GUI_SetFont)
    i.GUI_SetLayerPosEx                      0x08013c18   Section        0  gui_selectlayer.o(i.GUI_SetLayerPosEx)
    i.GUI_SetLayerSizeEx                     0x08013c1c   Section        0  gui_selectlayer.o(i.GUI_SetLayerSizeEx)
    i.GUI_SetLayerVisEx                      0x08013c20   Section        0  gui_selectlayer.o(i.GUI_SetLayerVisEx)
    i.GUI_SetLineStyle                       0x08013c24   Section        0  gui_setlinestyle.o(i.GUI_SetLineStyle)
    i.GUI_SetOrg                             0x08013c34   Section        0  gui_setorg.o(i.GUI_SetOrg)
    i.GUI_SetPenSize                         0x08013c6c   Section        0  gui_pen.o(i.GUI_SetPenSize)
    i.GUI_SetTextAlign                       0x08013c7c   Section        0  gui_settextalign.o(i.GUI_SetTextAlign)
    i.GUI_SetTextMode                        0x08013c90   Section        0  gui_settextmode.o(i.GUI_SetTextMode)
    i.GUI_SignalEvent                        0x08013ca4   Section        0  gui_waitevent.o(i.GUI_SignalEvent)
    i.GUI_StoreKey                           0x08013cb4   Section        0  gui_onkey.o(i.GUI_StoreKey)
    i.GUI_TIMER_Create                       0x08013cc4   Section        0  gui_timer.o(i.GUI_TIMER_Create)
    i.GUI_TIMER_Delete                       0x08013d4c   Section        0  gui_timer.o(i.GUI_TIMER_Delete)
    i.GUI_TIMER_Exec                         0x08013d68   Section        0  gui_timer.o(i.GUI_TIMER_Exec)
    i.GUI_TIMER_GetFlag                      0x08013dd4   Section        0  gui_timer.o(i.GUI_TIMER_GetFlag)
    i.GUI_TIMER_Restart                      0x08013dfa   Section        0  gui_timer.o(i.GUI_TIMER_Restart)
    i.GUI_TIMER_SetPeriod                    0x08013e28   Section        0  gui_timer.o(i.GUI_TIMER_SetPeriod)
    i.GUI_TIMER__GetFirstTimer               0x08013e40   Section        0  gui_timer.o(i.GUI_TIMER__GetFirstTimer)
    i.GUI_TIMER__GetNextTimerLin             0x08013e68   Section        0  gui_timer.o(i.GUI_TIMER__GetNextTimerLin)
    i.GUI_TOUCH_Calibrate                    0x08013ea0   Section        0  gui_touch_driveranalog.o(i.GUI_TOUCH_Calibrate)
    i.GUI_TOUCH_Exec                         0x08013f4c   Section        0  gui_touch_driveranalog.o(i.GUI_TOUCH_Exec)
    i.GUI_TOUCH_SetOrientation               0x08014094   Section        0  gui_touch_driveranalog.o(i.GUI_TOUCH_SetOrientation)
    i.GUI_TOUCH_StoreState                   0x080140a0   Section        0  gui_touch_storestate.o(i.GUI_TOUCH_StoreState)
    i.GUI_TOUCH_StoreStateEx                 0x080140c4   Section        0  gui_touch.o(i.GUI_TOUCH_StoreStateEx)
    i.GUI_TOUCH_StoreUnstable                0x080140f0   Section        0  gui_touch_storeunstable.o(i.GUI_TOUCH_StoreUnstable)
    i.GUI_UC__GetCharCodeInc                 0x0801411c   Section        0  gui_uc.o(i.GUI_UC__GetCharCodeInc)
    i.GUI_UC__NumChars2NumBytes              0x08014148   Section        0  gui_uc.o(i.GUI_UC__NumChars2NumBytes)
    i.GUI_USAGE_AddRect                      0x08014170   Section        0  guidev_usage.o(i.GUI_USAGE_AddRect)
    i.GUI_USAGE_BM_AddHLine                  0x08014198   Section        0  guidev_usagebm.o(i.GUI_USAGE_BM_AddHLine)
    GUI_USAGE_BM_AddHLine                    0x08014199   Thumb Code   116  guidev_usagebm.o(i.GUI_USAGE_BM_AddHLine)
    i.GUI_USAGE_BM_AddPixel                  0x0801420c   Section        0  guidev_usagebm.o(i.GUI_USAGE_BM_AddPixel)
    GUI_USAGE_BM_AddPixel                    0x0801420d   Thumb Code    44  guidev_usagebm.o(i.GUI_USAGE_BM_AddPixel)
    i.GUI_USAGE_BM_Clear                     0x08014238   Section        0  guidev_usagebm.o(i.GUI_USAGE_BM_Clear)
    GUI_USAGE_BM_Clear                       0x08014239   Thumb Code    14  guidev_usagebm.o(i.GUI_USAGE_BM_Clear)
    i.GUI_USAGE_BM_Create                    0x08014248   Section        0  guidev_usagebm.o(i.GUI_USAGE_BM_Create)
    i.GUI_USAGE_BM_GetNextDirty              0x0801429c   Section        0  guidev_usagebm.o(i.GUI_USAGE_BM_GetNextDirty)
    GUI_USAGE_BM_GetNextDirty                0x0801429d   Thumb Code   154  guidev_usagebm.o(i.GUI_USAGE_BM_GetNextDirty)
    i.GUI_USAGE_DecUseCnt                    0x08014336   Section        0  guidev_usage.o(i.GUI_USAGE_DecUseCnt)
    i.GUI_WrapGetNumLines                    0x0801435a   Section        0  gui_dispstringinrectwrap.o(i.GUI_WrapGetNumLines)
    i.GUI__ASinHQ                            0x08014380   Section        0  gui__sinhq.o(i.GUI__ASinHQ)
    i.GUI__ATan2                             0x080143f0   Section        0  gui__sinhq.o(i.GUI__ATan2)
    i.GUI__AllocAlphaBuffer                  0x08014442   Section        0  gui__alpha.o(i.GUI__AllocAlphaBuffer)
    i.GUI__AlphaSuppressMixing               0x08014458   Section        0  gui_setalpha.o(i.GUI__AlphaSuppressMixing)
    i.GUI__CalcTextRect                      0x0801447c   Section        0  gui__calctextrect.o(i.GUI__CalcTextRect)
    i.GUI__CompactPixelIndices               0x0801451c   Section        0  gui__compactpixelindices.o(i.GUI__CompactPixelIndices)
    i.GUI__CompactPixelIndicesEx             0x08014640   Section        0  gui__compactpixelindices.o(i.GUI__CompactPixelIndicesEx)
    i.GUI__Config                            0x080147a4   Section        0  gui_core.o(i.GUI__Config)
    i.GUI__CosHQ                             0x080147d8   Section        0  gui__sinhq.o(i.GUI__CosHQ)
    i.GUI__DispLine                          0x080147e4   Section        0  gui_charline.o(i.GUI__DispLine)
    i.GUI__DispStringInRect                  0x08014894   Section        0  gui_dispstringinrect.o(i.GUI__DispStringInRect)
    i.GUI__DivideRound32                     0x080149d8   Section        0  gui__divideround32.o(i.GUI__DivideRound32)
    i.GUI__DoAlphaBlending                   0x080149f4   Section        0  gui__alpha.o(i.GUI__DoAlphaBlending)
    i.GUI__DrawTwinArc2                      0x08014bc4   Section        0  gui__drawtwinarc.o(i.GUI__DrawTwinArc2)
    i.GUI__DrawTwinArc4                      0x08014c28   Section        0  gui__drawtwinarc.o(i.GUI__DrawTwinArc4)
    i.GUI__ExpandPixelIndices                0x08014c84   Section        0  gui__expandpixelindices.o(i.GUI__ExpandPixelIndices)
    i.GUI__ExpandPixelIndicesEx              0x08014d58   Section        0  gui__expandpixelindices.o(i.GUI__ExpandPixelIndicesEx)
    i.GUI__GetAlphaBuffer                    0x08014e9c   Section        0  gui__alpha.o(i.GUI__GetAlphaBuffer)
    i.GUI__GetFontSizeY                      0x08014f38   Section        0  gui__getfontsizey.o(i.GUI__GetFontSizeY)
    i.GUI__GetLineDistX                      0x08014f4c   Section        0  gui_charline.o(i.GUI__GetLineDistX)
    i.GUI__GetLineNumChars                   0x08014fa0   Section        0  gui_charline.o(i.GUI__GetLineNumChars)
    i.GUI__GetNumChars                       0x08014fd8   Section        0  gui__getnumchars.o(i.GUI__GetNumChars)
    i.GUI__GetOrg                            0x08014ff4   Section        0  gui_getorg.o(i.GUI__GetOrg)
    i.GUI__GetOverlap                        0x08015010   Section        0  gui_charline.o(i.GUI__GetOverlap)
    i.GUI__HandleEOLine                      0x08015028   Section        0  gui__handleeoline.o(i.GUI__HandleEOLine)
    i.GUI__IntersectRect                     0x08015040   Section        0  gui__intersectrect.o(i.GUI__IntersectRect)
    i.GUI__IntersectRects                    0x0801507a   Section        0  gui__intersectrects.o(i.GUI__IntersectRects)
    i.GUI__ManageCache                       0x080150cc   Section        0  gui__managecache.o(i.GUI__ManageCache)
    i.GUI__ManageCacheEx                     0x080150dc   Section        0  gui__managecache.o(i.GUI__ManageCacheEx)
    i.GUI__MixColors                         0x080151a4   Section        0  gui__alpha.o(i.GUI__MixColors)
    i.GUI__MixColorsBulk                     0x0801520a   Section        0  gui__alpha.o(i.GUI__MixColorsBulk)
    i.GUI__ReduceRect                        0x08015258   Section        0  gui__reducerect.o(i.GUI__ReduceRect)
    i.GUI__RegisterExit                      0x08015274   Section        0  gui_core.o(i.GUI__RegisterExit)
    i.GUI__SetPixelAlpha                     0x08015284   Section        0  gui__setpixelalpha.o(i.GUI__SetPixelAlpha)
    i.GUI__SetText                           0x080152f4   Section        0  gui__settext.o(i.GUI__SetText)
    i.GUI__SinHQ                             0x08015360   Section        0  gui__sinhq.o(i.GUI__SinHQ)
    i.GUI__WrapGetNumBytesToNextLine         0x080153d4   Section        0  gui__wrap.o(i.GUI__WrapGetNumBytesToNextLine)
    i.GUI__WrapGetNumCharsDisp               0x080153e8   Section        0  gui__wrap.o(i.GUI__WrapGetNumCharsDisp)
    i.GUI__WrapGetNumCharsToNextLine         0x080153ee   Section        0  gui__wrap.o(i.GUI__WrapGetNumCharsToNextLine)
    i.GUI__memset                            0x0801544a   Section        0  gui__memset.o(i.GUI__memset)
    i.GUI__memset16                          0x08015496   Section        0  gui__memset16.o(i.GUI__memset16)
    i.GUI__sqrt32                            0x080154d2   Section        0  gui__sqrt32.o(i.GUI__sqrt32)
    i.GUI__strcmp                            0x080154ec   Section        0  gui__strcmp.o(i.GUI__strcmp)
    i.GUI__strcmp_hp                         0x08015510   Section        0  gui__strcmp.o(i.GUI__strcmp_hp)
    i.GUI__strlen                            0x08015530   Section        0  gui__strlen.o(i.GUI__strlen)
    i.GUI_cos                                0x08015546   Section        0  gui_drawline.o(i.GUI_cos)
    i.GUI_sin                                0x08015550   Section        0  gui_drawline.o(i.GUI_sin)
    i.HEADER_AddItem                         0x080155a8   Section        0  header.o(i.HEADER_AddItem)
    i.HEADER_Callback                        0x08015660   Section        0  header.o(i.HEADER_Callback)
    i.HEADER_CreateEx                        0x08015794   Section        0  header.o(i.HEADER_CreateEx)
    i.HEADER_CreateUser                      0x080157b0   Section        0  header.o(i.HEADER_CreateUser)
    i.HEADER_DrawSkinFlex                    0x08015888   Section        0  header_skinflex.o(i.HEADER_DrawSkinFlex)
    i.HEADER_GetHeight                       0x080158c6   Section        0  header.o(i.HEADER_GetHeight)
    i.HEADER_GetItemWidth                    0x080158f8   Section        0  header.o(i.HEADER_GetItemWidth)
    i.HEADER_GetNumItems                     0x0801592e   Section        0  header.o(i.HEADER_GetNumItems)
    i.HEADER_GetSel                          0x0801594c   Section        0  header_getsel.o(i.HEADER_GetSel)
    i.HEADER_SetDefaultSkin                  0x08015964   Section        0  header_skin.o(i.HEADER_SetDefaultSkin)
    i.HEADER_SetDirIndicator                 0x08015980   Section        0  header.o(i.HEADER_SetDirIndicator)
    i.HEADER_SetDragLimit                    0x080159ae   Section        0  header_setdraglimit.o(i.HEADER_SetDragLimit)
    i.HEADER_SetItemWidth                    0x080159d0   Section        0  header.o(i.HEADER_SetItemWidth)
    i.HEADER_SetScrollPos                    0x08015a3e   Section        0  header.o(i.HEADER_SetScrollPos)
    i.LCD_AA_MixColors16                     0x08015a70   Section        0  lcd_aa.o(i.LCD_AA_MixColors16)
    i.LCD_AA_SetAndMask                      0x08015aac   Section        0  lcd_aa.o(i.LCD_AA_SetAndMask)
    i.LCD_Color2Index                        0x08015abc   Section        0  lcd.o(i.LCD_Color2Index)
    i.LCD_DrawBitmap                         0x08015ad8   Section        0  lcd.o(i.LCD_DrawBitmap)
    i.LCD_DrawHLine                          0x08015cdc   Section        0  lcd.o(i.LCD_DrawHLine)
    i.LCD_DrawPixel                          0x08015d34   Section        0  lcd.o(i.LCD_DrawPixel)
    i.LCD_DrawVLine                          0x08015d9c   Section        0  lcd.o(i.LCD_DrawVLine)
    i.LCD_FillRect                           0x08015df0   Section        0  lcd.o(i.LCD_FillRect)
    i.LCD_GetBitsPerPixel                    0x08015e48   Section        0  lcd_getex.o(i.LCD_GetBitsPerPixel)
    i.LCD_GetBitsPerPixelEx                  0x08015e58   Section        0  lcd_getex.o(i.LCD_GetBitsPerPixelEx)
    i.LCD_GetBkColorIndex                    0x08015e60   Section        0  lcd_getcolorindex.o(i.LCD_GetBkColorIndex)
    i.LCD_GetColorIndex                      0x08015e70   Section        0  lcd_getcolorindex.o(i.LCD_GetColorIndex)
    i.LCD_GetDevCap                          0x08015e80   Section        0  lcd_info.o(i.LCD_GetDevCap)
    i.LCD_GetNumColors                       0x08015e90   Section        0  lcd_getex.o(i.LCD_GetNumColors)
    i.LCD_GetNumColorsEx                     0x08015ea0   Section        0  lcd_getex.o(i.LCD_GetNumColorsEx)
    i.LCD_GetNumLayers                       0x08015ea6   Section        0  lcd_getnumdisplays.o(i.LCD_GetNumLayers)
    i.LCD_GetPalette                         0x08015ec0   Section        0  lcd_getex.o(i.LCD_GetPalette)
    i.LCD_GetPaletteEx                       0x08015ed0   Section        0  lcd_getex.o(i.LCD_GetPaletteEx)
    i.LCD_GetPixelColor                      0x08015ee8   Section        0  lcd_getpixelcolor.o(i.LCD_GetPixelColor)
    i.LCD_GetPixelIndex                      0x08015ef8   Section        0  lcd_getp.o(i.LCD_GetPixelIndex)
    i.LCD_GetPosEx                           0x08015f58   Section        0  lcd_set.o(i.LCD_GetPosEx)
    i.LCD_GetVXSizeEx                        0x08015f84   Section        0  lcd_getex.o(i.LCD_GetVXSizeEx)
    i.LCD_GetVXSizeMax                       0x08015f8a   Section        0  lcd_getex.o(i.LCD_GetVXSizeMax)
    i.LCD_GetVYSize                          0x08015f90   Section        0  lcd_getex.o(i.LCD_GetVYSize)
    i.LCD_GetVYSizeEx                        0x08015fa0   Section        0  lcd_getex.o(i.LCD_GetVYSizeEx)
    i.LCD_GetXSize                           0x08015fa8   Section        0  lcd_getex.o(i.LCD_GetXSize)
    i.LCD_GetXSizeEx                         0x08015fb8   Section        0  lcd_getex.o(i.LCD_GetXSizeEx)
    i.LCD_GetYSize                           0x08015fc0   Section        0  lcd_getex.o(i.LCD_GetYSize)
    i.LCD_GetYSizeEx                         0x08015fd0   Section        0  lcd_getex.o(i.LCD_GetYSizeEx)
    i.LCD_GetpPalConvTable                   0x08015fd6   Section        0  lcd_color.o(i.LCD_GetpPalConvTable)
    i.LCD_GetpPalConvTableBM                 0x08015fda   Section        0  lcd_color.o(i.LCD_GetpPalConvTableBM)
    i.LCD_GetpPalConvTableUncached           0x08015fe0   Section        0  lcd_color.o(i.LCD_GetpPalConvTableUncached)
    i.LCD_Index2Color                        0x08016028   Section        0  lcd.o(i.LCD_Index2Color)
    i.LCD_Index2Color_888                    0x08016044   Section        0  guicc_888_index2color.o(i.LCD_Index2Color_888)
    i.LCD_Index2Color_8888                   0x08016046   Section        0  guicc_8888_index2color.o(i.LCD_Index2Color_8888)
    i.LCD_Index2Color_M565                   0x08016048   Section        0  guicc_m565.o(i.LCD_Index2Color_M565)
    i.LCD_InitColors                         0x08016074   Section        0  lcd_color.o(i.LCD_InitColors)
    i.LCD_InitLUT                            0x080160a8   Section        0  lcd_color.o(i.LCD_InitLUT)
    i.LCD_ReadRectEx                         0x08016118   Section        0  lcd_readrect.o(i.LCD_ReadRectEx)
    LCD_ReadRectEx                           0x08016119   Thumb Code   404  lcd_readrect.o(i.LCD_ReadRectEx)
    i.LCD_SelectLCD                          0x080162b0   Section        0  lcd_selectlcd.o(i.LCD_SelectLCD)
    i.LCD_SetBkColor                         0x080162f0   Section        0  lcd.o(i.LCD_SetBkColor)
    i.LCD_SetBkColorIndex                    0x080162fc   Section        0  lcd.o(i.LCD_SetBkColorIndex)
    i.LCD_SetClipRectEx                      0x08016314   Section        0  lcd_setcliprectex.o(i.LCD_SetClipRectEx)
    i.LCD_SetClipRectMax                     0x08016344   Section        0  lcd.o(i.LCD_SetClipRectMax)
    i.LCD_SetColor                           0x08016360   Section        0  lcd.o(i.LCD_SetColor)
    i.LCD_SetColorIndex                      0x0801636c   Section        0  lcd.o(i.LCD_SetColorIndex)
    i.LCD_SetDrawMode                        0x08016384   Section        0  lcd.o(i.LCD_SetDrawMode)
    i.LCD_SetLUTEntryEx                      0x08016390   Section        0  lcd_set.o(i.LCD_SetLUTEntryEx)
    i.LCD_SetPixelAA4_Trans                  0x080163bc   Section        0  lcd_aa.o(i.LCD_SetPixelAA4_Trans)
    i.LCD_SetPixelIndex                      0x08016444   Section        0  gui_setpixelindex.o(i.LCD_SetPixelIndex)
    i.LCD_SetPosEx                           0x08016490   Section        0  lcd_set.o(i.LCD_SetPosEx)
    i.LCD_SetSizeEx                          0x080164bc   Section        0  lcd_set.o(i.LCD_SetSizeEx)
    i.LCD_SetVSizeEx                         0x080164e8   Section        0  lcd_set.o(i.LCD_SetVSizeEx)
    i.LCD_SetVisEx                           0x08016514   Section        0  lcd_set.o(i.LCD_SetVisEx)
    i.LCD_UpdateColorIndices                 0x0801653c   Section        0  lcd_updatecolorindices.o(i.LCD_UpdateColorIndices)
    i.LCD__DrawBitmap_1bpp                   0x08016560   Section        0  lcd.o(i.LCD__DrawBitmap_1bpp)
    i.LCD__GetBPP                            0x08016714   Section        0  lcd_getex.o(i.LCD__GetBPP)
    i.LCD__GetBPPDevice                      0x08016770   Section        0  lcd_getex.o(i.LCD__GetBPPDevice)
    i.LISTVIEW_AddColumn                     0x080167a2   Section        0  listview.o(i.LISTVIEW_AddColumn)
    i.LISTVIEW_AddRow                        0x0801683a   Section        0  listview.o(i.LISTVIEW_AddRow)
    i.LISTVIEW_Callback                      0x08016936   Section        0  listview.o(i.LISTVIEW_Callback)
    i.LISTVIEW_CompareDec                    0x08016b3e   Section        0  listview_setsort.o(i.LISTVIEW_CompareDec)
    i.LISTVIEW_CompareText                   0x08016bc0   Section        0  listview_setsort.o(i.LISTVIEW_CompareText)
    i.LISTVIEW_CreateEx                      0x08016bca   Section        0  listview.o(i.LISTVIEW_CreateEx)
    i.LISTVIEW_CreateUser                    0x08016be8   Section        0  listview.o(i.LISTVIEW_CreateUser)
    i.LISTVIEW_DecSel                        0x08016cbc   Section        0  listview.o(i.LISTVIEW_DecSel)
    i.LISTVIEW_EnableSort                    0x08016cca   Section        0  listview_setsort.o(i.LISTVIEW_EnableSort)
    i.LISTVIEW_GetHeader                     0x08016cec   Section        0  listview_getheader.o(i.LISTVIEW_GetHeader)
    i.LISTVIEW_GetLBorder                    0x08016d04   Section        0  listview_setlborder.o(i.LISTVIEW_GetLBorder)
    i.LISTVIEW_GetNumColumns                 0x08016d1e   Section        0  listview_getnumcolumns.o(i.LISTVIEW_GetNumColumns)
    i.LISTVIEW_GetNumRows                    0x08016d3a   Section        0  listview_getnumrows.o(i.LISTVIEW_GetNumRows)
    i.LISTVIEW_GetRBorder                    0x08016d56   Section        0  listview_setrborder.o(i.LISTVIEW_GetRBorder)
    i.LISTVIEW_GetSel                        0x08016d70   Section        0  listview_getsel.o(i.LISTVIEW_GetSel)
    i.LISTVIEW_GetWrapMode                   0x08016d76   Section        0  listview_getwrapmode.o(i.LISTVIEW_GetWrapMode)
    i.LISTVIEW_IncSel                        0x08016d90   Section        0  listview.o(i.LISTVIEW_IncSel)
    i.LISTVIEW_InsertRow                     0x08016d9c   Section        0  listview_insertrow.o(i.LISTVIEW_InsertRow)
    i.LISTVIEW_OwnerDraw                     0x08016ed2   Section        0  listview.o(i.LISTVIEW_OwnerDraw)
    i.LISTVIEW_RowIsDisabled                 0x08016fca   Section        0  listview_disablerow.o(i.LISTVIEW_RowIsDisabled)
    i.LISTVIEW_SetAutoScrollV                0x08016fe2   Section        0  listview_setautoscroll.o(i.LISTVIEW_SetAutoScrollV)
    i.LISTVIEW_SetCompareFunc                0x08016fe8   Section        0  listview_setsort.o(i.LISTVIEW_SetCompareFunc)
    i.LISTVIEW_SetGridVis                    0x0801701e   Section        0  listview_setgridvis.o(i.LISTVIEW_SetGridVis)
    i.LISTVIEW_SetItemBkColor                0x08017052   Section        0  listview_setitemcolor.o(i.LISTVIEW_SetItemBkColor)
    i.LISTVIEW_SetLBorder                    0x080170de   Section        0  listview_setlborder.o(i.LISTVIEW_SetLBorder)
    i.LISTVIEW_SetRBorder                    0x08017106   Section        0  listview_setrborder.o(i.LISTVIEW_SetRBorder)
    i.LISTVIEW_SetSort                       0x0801712e   Section        0  listview_setsort.o(i.LISTVIEW_SetSort)
    i.LISTVIEW__CreateCellInfoLocked         0x080171bc   Section        0  listview_setitemcolor.o(i.LISTVIEW__CreateCellInfoLocked)
    i.LISTVIEW__GetNumColumns                0x08017244   Section        0  listview_getnumcolumns.o(i.LISTVIEW__GetNumColumns)
    i.LISTVIEW__GetNumRows                   0x0801724a   Section        0  listview_getnumrows.o(i.LISTVIEW__GetNumRows)
    i.LISTVIEW__GetRowDistY                  0x08017250   Section        0  listview.o(i.LISTVIEW__GetRowDistY)
    i.LISTVIEW__GetpCellInfo                 0x0801726c   Section        0  listview_setitemcolor.o(i.LISTVIEW__GetpCellInfo)
    i.LISTVIEW__GetpRow                      0x080172d6   Section        0  listview.o(i.LISTVIEW__GetpRow)
    i.LISTVIEW__InvalidateInsideArea         0x08017348   Section        0  listview.o(i.LISTVIEW__InvalidateInsideArea)
    i.LISTVIEW__InvalidateRow                0x0801737c   Section        0  listview.o(i.LISTVIEW__InvalidateRow)
    i.LISTVIEW__InvalidateRowAndBelow        0x080173d2   Section        0  listview_deleterow.o(i.LISTVIEW__InvalidateRowAndBelow)
    i.LISTVIEW__SetSel                       0x0801741e   Section        0  listview.o(i.LISTVIEW__SetSel)
    i.LISTVIEW__UpdateScrollParas            0x08017494   Section        0  listview.o(i.LISTVIEW__UpdateScrollParas)
    i.PROGBAR_Callback                       0x0801756c   Section        0  progbar.o(i.PROGBAR_Callback)
    i.PROGBAR_CreateIndirect                 0x080175c2   Section        0  progbar_createindirect.o(i.PROGBAR_CreateIndirect)
    i.PROGBAR_CreateUser                     0x080175fc   Section        0  progbar.o(i.PROGBAR_CreateUser)
    i.PROGBAR_DrawSkinFlex                   0x080176a8   Section        0  progbar_skinflex.o(i.PROGBAR_DrawSkinFlex)
    i.PROGBAR_SetDefaultSkin                 0x0801772c   Section        0  progbar_skin.o(i.PROGBAR_SetDefaultSkin)
    i.PROGBAR_SetFont                        0x08017748   Section        0  progbar_setfont.o(i.PROGBAR_SetFont)
    i.PROGBAR_SetMinMax                      0x08017766   Section        0  progbar_setminmax.o(i.PROGBAR_SetMinMax)
    i.PROGBAR_SetTextAlign                   0x08017798   Section        0  progbar_settextalign.o(i.PROGBAR_SetTextAlign)
    i.PROGBAR_SetValue                       0x080177b8   Section        0  progbar.o(i.PROGBAR_SetValue)
    i.PROGBAR__GetTextLocked                 0x080178f8   Section        0  progbar.o(i.PROGBAR__GetTextLocked)
    i.PROGBAR__GetTextRect                   0x080178fe   Section        0  progbar.o(i.PROGBAR__GetTextRect)
    i.PROGBAR__Value2Pos                     0x0801797c   Section        0  progbar.o(i.PROGBAR__Value2Pos)
    i.SCROLLBAR_AddValue                     0x080179cc   Section        0  scrollbar.o(i.SCROLLBAR_AddValue)
    i.SCROLLBAR_Callback                     0x080179ec   Section        0  scrollbar.o(i.SCROLLBAR_Callback)
    i.SCROLLBAR_CreateAttached               0x08017b30   Section        0  scrollbar_create.o(i.SCROLLBAR_CreateAttached)
    i.SCROLLBAR_CreateEx                     0x08017b66   Section        0  scrollbar.o(i.SCROLLBAR_CreateEx)
    i.SCROLLBAR_CreateUser                   0x08017b84   Section        0  scrollbar.o(i.SCROLLBAR_CreateUser)
    i.SCROLLBAR_Dec                          0x08017c60   Section        0  scrollbar.o(i.SCROLLBAR_Dec)
    i.SCROLLBAR_DrawSkinFlex                 0x08017c68   Section        0  scrollbar_skinflex.o(i.SCROLLBAR_DrawSkinFlex)
    i.SCROLLBAR_GetValue                     0x08017dfc   Section        0  scrollbar_getvalue.o(i.SCROLLBAR_GetValue)
    i.SCROLLBAR_Inc                          0x08017e14   Section        0  scrollbar.o(i.SCROLLBAR_Inc)
    i.SCROLLBAR_SetDefaultSkin               0x08017e1c   Section        0  scrollbar_skin.o(i.SCROLLBAR_SetDefaultSkin)
    i.SCROLLBAR_SetValue                     0x08017e38   Section        0  scrollbar.o(i.SCROLLBAR_SetValue)
    i.SCROLLBAR__InvalidatePartner           0x08017e82   Section        0  scrollbar.o(i.SCROLLBAR__InvalidatePartner)
    i.SCROLLBAR__Rect2VRect                  0x08017e9e   Section        0  scrollbar.o(i.SCROLLBAR__Rect2VRect)
    i.SLIDER_Callback                        0x08017eca   Section        0  slider.o(i.SLIDER_Callback)
    i.SLIDER_CreateIndirect                  0x08017f3e   Section        0  slider_createindirect.o(i.SLIDER_CreateIndirect)
    i.SLIDER_CreateUser                      0x08017f78   Section        0  slider.o(i.SLIDER_CreateUser)
    i.SLIDER_Dec                             0x08018000   Section        0  slider.o(i.SLIDER_Dec)
    i.SLIDER_DrawSkinFlex                    0x08018038   Section        0  slider_skinflex.o(i.SLIDER_DrawSkinFlex)
    i.SLIDER_GetFlag                         0x08018144   Section        0  slider.o(i.SLIDER_GetFlag)
    i.SLIDER_GetValue                        0x08018162   Section        0  slider.o(i.SLIDER_GetValue)
    i.SLIDER_Inc                             0x0801817a   Section        0  slider.o(i.SLIDER_Inc)
    i.SLIDER_SetDefaultSkin                  0x080181b0   Section        0  slider_skin.o(i.SLIDER_SetDefaultSkin)
    i.SLIDER_SetRange                        0x080181cc   Section        0  slider.o(i.SLIDER_SetRange)
    i.SLIDER_SetValue                        0x08018204   Section        0  slider.o(i.SLIDER_SetValue)
    i.TEXT_Callback                          0x08018248   Section        0  text.o(i.TEXT_Callback)
    i.TEXT_CreateIndirect                    0x080182ae   Section        0  text_createindirect.o(i.TEXT_CreateIndirect)
    i.TEXT_CreateUser                        0x080182ec   Section        0  text.o(i.TEXT_CreateUser)
    i.TEXT_GetDefaultFont                    0x08018380   Section        0  text_default.o(i.TEXT_GetDefaultFont)
    i.TEXT_SetDefaultFont                    0x0801838c   Section        0  text_default.o(i.TEXT_SetDefaultFont)
    i.TEXT_SetDefaultTextColor               0x08018398   Section        0  text_default.o(i.TEXT_SetDefaultTextColor)
    i.TEXT_SetFont                           0x080183a4   Section        0  text_setfont.o(i.TEXT_SetFont)
    i.TEXT_SetText                           0x080183c8   Section        0  text_settext.o(i.TEXT_SetText)
    i.TREEVIEW_AttachItem                    0x08018412   Section        0  treeview.o(i.TREEVIEW_AttachItem)
    i.TREEVIEW_Callback                      0x08018522   Section        0  treeview.o(i.TREEVIEW_Callback)
    i.TREEVIEW_CreateIndirect                0x0801867a   Section        0  treeview_createindirect.o(i.TREEVIEW_CreateIndirect)
    i.TREEVIEW_CreateUser                    0x080186b4   Section        0  treeview.o(i.TREEVIEW_CreateUser)
    i.TREEVIEW_DecSel                        0x0801871c   Section        0  treeview.o(i.TREEVIEW_DecSel)
    i.TREEVIEW_GetItem                       0x08018724   Section        0  treeview.o(i.TREEVIEW_GetItem)
    i.TREEVIEW_GetSel                        0x080187ea   Section        0  treeview.o(i.TREEVIEW_GetSel)
    i.TREEVIEW_ITEM_Collapse                 0x08018804   Section        0  treeview.o(i.TREEVIEW_ITEM_Collapse)
    i.TREEVIEW_ITEM_Create                   0x0801880e   Section        0  treeview.o(i.TREEVIEW_ITEM_Create)
    i.TREEVIEW_ITEM_Expand                   0x0801884c   Section        0  treeview.o(i.TREEVIEW_ITEM_Expand)
    i.TREEVIEW_ITEM_GetInfo                  0x08018856   Section        0  treeview.o(i.TREEVIEW_ITEM_GetInfo)
    i.TREEVIEW_ITEM_SetImage                 0x08018892   Section        0  treeview.o(i.TREEVIEW_ITEM_SetImage)
    i.TREEVIEW_IncSel                        0x080188ec   Section        0  treeview.o(i.TREEVIEW_IncSel)
    i.TREEVIEW_InsertItem                    0x080188f2   Section        0  treeview.o(i.TREEVIEW_InsertItem)
    i.TREEVIEW_OwnerDraw                     0x08018926   Section        0  treeview.o(i.TREEVIEW_OwnerDraw)
    i.TREEVIEW_SetAutoScrollH                0x08018974   Section        0  treeview.o(i.TREEVIEW_SetAutoScrollH)
    i.TREEVIEW_SetAutoScrollV                0x08018980   Section        0  treeview.o(i.TREEVIEW_SetAutoScrollV)
    i.TREEVIEW_SetHasLines                   0x0801898c   Section        0  treeview.o(i.TREEVIEW_SetHasLines)
    i.TREEVIEW_SetSelMode                    0x080189c4   Section        0  treeview.o(i.TREEVIEW_SetSelMode)
    i.WIDGET_AndState                        0x08018a06   Section        0  widget.o(i.WIDGET_AndState)
    i.WIDGET_EFFECT_3D_DrawUp                0x08018a2e   Section        0  widget_effect_3d.o(i.WIDGET_EFFECT_3D_DrawUp)
    i.WIDGET_GetDefaultEffect                0x08018a40   Section        0  widget.o(i.WIDGET_GetDefaultEffect)
    i.WIDGET_HandleActive                    0x08018a4c   Section        0  widget.o(i.WIDGET_HandleActive)
    i.WIDGET_OrState                         0x08018b60   Section        0  widget.o(i.WIDGET_OrState)
    i.WIDGET_SetDefaultEffect                0x08018b88   Section        0  widget.o(i.WIDGET_SetDefaultEffect)
    i.WIDGET_SetEffect                       0x08018b98   Section        0  widget_seteffect.o(i.WIDGET_SetEffect)
    i.WIDGET_SetState                        0x08018bae   Section        0  widget.o(i.WIDGET_SetState)
    i.WIDGET__DrawFocusRect                  0x08018bd0   Section        0  widget.o(i.WIDGET__DrawFocusRect)
    i.WIDGET__DrawTriangle                   0x08018bf0   Section        0  widget.o(i.WIDGET__DrawTriangle)
    i.WIDGET__DrawVLine                      0x08018c30   Section        0  widget.o(i.WIDGET__DrawVLine)
    i.WIDGET__EFFECT_DrawDown                0x08018c78   Section        0  widget.o(i.WIDGET__EFFECT_DrawDown)
    i.WIDGET__EFFECT_DrawDownRect            0x08018c7e   Section        0  widget.o(i.WIDGET__EFFECT_DrawDownRect)
    i.WIDGET__EFFECT_DrawUpRect              0x08018cb8   Section        0  widget.o(i.WIDGET__EFFECT_DrawUpRect)
    i.WIDGET__FillRectEx                     0x08018ce8   Section        0  widget.o(i.WIDGET__FillRectEx)
    i.WIDGET__FillStringInRect               0x08018d04   Section        0  widget_fillstringinrect.o(i.WIDGET__FillStringInRect)
    i.WIDGET__GetClientRect                  0x08018e14   Section        0  widget.o(i.WIDGET__GetClientRect)
    i.WIDGET__GetInsideRect                  0x08018e4a   Section        0  widget.o(i.WIDGET__GetInsideRect)
    i.WIDGET__GetWindowSizeX                 0x08018e64   Section        0  widget.o(i.WIDGET__GetWindowSizeX)
    i.WIDGET__GetXSize                       0x08018e8e   Section        0  widget.o(i.WIDGET__GetXSize)
    i.WIDGET__GetYSize                       0x08018eae   Section        0  widget.o(i.WIDGET__GetYSize)
    i.WIDGET__Init                           0x08018ed0   Section        0  widget.o(i.WIDGET__Init)
    i.WIDGET__RotateRect90                   0x08018ee0   Section        0  widget.o(i.WIDGET__RotateRect90)
    i.WIDGET__SetScrollState                 0x08018efe   Section        0  widget.o(i.WIDGET__SetScrollState)
    i.WM_Activate                            0x08018f24   Section        0  wm.o(i.WM_Activate)
    i.WM_BringToBottom                       0x08018f34   Section        0  wm_bringtobottom.o(i.WM_BringToBottom)
    i.WM_BringToTop                          0x08018fb2   Section        0  wm_bringtotop.o(i.WM_BringToTop)
    i.WM_CheckScrollBounds                   0x08018fb6   Section        0  wm_checkscrollpos.o(i.WM_CheckScrollBounds)
    i.WM_CheckScrollPos                      0x08018fd2   Section        0  wm_checkscrollpos.o(i.WM_CheckScrollPos)
    i.WM_CreateTimer                         0x08019004   Section        0  wm_timer.o(i.WM_CreateTimer)
    i.WM_CreateWindowAsChild                 0x08019058   Section        0  wm.o(i.WM_CreateWindowAsChild)
    i.WM_Deactivate                          0x080191a0   Section        0  wm.o(i.WM_Deactivate)
    i.WM_DefaultProc                         0x080191b4   Section        0  wm.o(i.WM_DefaultProc)
    i.WM_DeleteTimer                         0x080191fa   Section        0  wm_timer.o(i.WM_DeleteTimer)
    i.WM_DeleteWindow                        0x0801921c   Section        0  wm.o(i.WM_DeleteWindow)
    i.WM_DisableMemdev                       0x080192e0   Section        0  wm_memdev.o(i.WM_DisableMemdev)
    i.WM_EnableMemdev                        0x080192f6   Section        0  wm_memdev.o(i.WM_EnableMemdev)
    i.WM_Exec                                0x0801930c   Section        0  wm.o(i.WM_Exec)
    i.WM_ForEachDesc                         0x08019384   Section        0  wm_foreachdesc.o(i.WM_ForEachDesc)
    i.WM_GetActiveWindow                     0x08019388   Section        0  wm.o(i.WM_GetActiveWindow)
    i.WM_GetClientRect                       0x08019394   Section        0  wm_getclientrect.o(i.WM_GetClientRect)
    i.WM_GetClientRectEx                     0x080193b0   Section        0  wm_getclientrect.o(i.WM_GetClientRectEx)
    i.WM_GetClientWindow                     0x080193b4   Section        0  wm_getclientwindow.o(i.WM_GetClientWindow)
    i.WM_GetDesktopWindow                    0x080193cc   Section        0  wm_getdesktopwindow.o(i.WM_GetDesktopWindow)
    i.WM_GetDesktopWindowEx                  0x080193e4   Section        0  wm_getdesktopwindowex.o(i.WM_GetDesktopWindowEx)
    i.WM_GetDialogItem                       0x080193f8   Section        0  wm_getdialogitem.o(i.WM_GetDialogItem)
    i.WM_GetFirstChild                       0x08019408   Section        0  wm_getfirstchild.o(i.WM_GetFirstChild)
    i.WM_GetFlags                            0x08019416   Section        0  wm_getflags.o(i.WM_GetFlags)
    i.WM_GetFocussedWindow                   0x0801942c   Section        0  wm_getfocussedwindow.o(i.WM_GetFocussedWindow)
    i.WM_GetHasTrans                         0x08019440   Section        0  wm_settrans.o(i.WM_GetHasTrans)
    i.WM_GetId                               0x0801945a   Section        0  wm_getid.o(i.WM_GetId)
    i.WM_GetInsideRectEx                     0x08019474   Section        0  wm_getinsiderect.o(i.WM_GetInsideRectEx)
    i.WM_GetInsideRectExScrollbar            0x08019484   Section        0  wm_getinsiderectexscrollbar.o(i.WM_GetInsideRectExScrollbar)
    i.WM_GetNextSibling                      0x08019528   Section        0  wm_getnextsibling.o(i.WM_GetNextSibling)
    i.WM_GetOrgX                             0x08019538   Section        0  wm_getorg.o(i.WM_GetOrgX)
    i.WM_GetOrgY                             0x08019548   Section        0  wm_getorg.o(i.WM_GetOrgY)
    i.WM_GetParent                           0x08019558   Section        0  wm_getparent.o(i.WM_GetParent)
    i.WM_GetScrollPartner                    0x08019566   Section        0  wm_getscrollpartner.o(i.WM_GetScrollPartner)
    i.WM_GetScrollState                      0x08019590   Section        0  wm_getscrollstate.o(i.WM_GetScrollState)
    i.WM_GetScrollbarH                       0x080195a0   Section        0  wm_getscrollbar.o(i.WM_GetScrollbarH)
    i.WM_GetScrollbarV                       0x080195b2   Section        0  wm_getscrollbar.o(i.WM_GetScrollbarV)
    i.WM_GetUserData                         0x080195c4   Section        0  wm_userdata.o(i.WM_GetUserData)
    i.WM_GetWindowOrgX                       0x080195ca   Section        0  wm_getorg.o(i.WM_GetWindowOrgX)
    i.WM_GetWindowOrgY                       0x080195e0   Section        0  wm_getorg.o(i.WM_GetWindowOrgY)
    i.WM_GetWindowRectEx                     0x080195f6   Section        0  wm_getwindowrect.o(i.WM_GetWindowRectEx)
    i.WM_GetWindowSizeX                      0x08019610   Section        0  wm_getwindowsize.o(i.WM_GetWindowSizeX)
    i.WM_GetWindowSizeY                      0x08019632   Section        0  wm_getwindowsize.o(i.WM_GetWindowSizeY)
    i.WM_HandlePID                           0x08019654   Section        0  wm_touch.o(i.WM_HandlePID)
    i.WM_HasCaptured                         0x080199c4   Section        0  wm_hascaptured.o(i.WM_HasCaptured)
    i.WM_HasFocus                            0x080199e4   Section        0  wm_hasfocus.o(i.WM_HasFocus)
    i.WM_HideWindow                          0x08019a04   Section        0  wm_hide.o(i.WM_HideWindow)
    i.WM_Init                                0x08019a2c   Section        0  wm.o(i.WM_Init)
    i.WM_InvalidateRect                      0x08019b00   Section        0  wm.o(i.WM_InvalidateRect)
    i.WM_InvalidateWindow                    0x08019b76   Section        0  wm.o(i.WM_InvalidateWindow)
    i.WM_InvalidateWindowAndDescs            0x08019b7c   Section        0  wm_show.o(i.WM_InvalidateWindowAndDescs)
    i.WM_InvalidateWindowAndDescsEx          0x08019ba4   Section        0  wm.o(i.WM_InvalidateWindowAndDescsEx)
    i.WM_IsFocussable                        0x08019c02   Section        0  wm_isfocussable.o(i.WM_IsFocussable)
    i.WM_IsVisible                           0x08019c20   Section        0  wm_isvisible.o(i.WM_IsVisible)
    i.WM_IsWindow                            0x08019c3a   Section        0  wm_iswindow.o(i.WM_IsWindow)
    i.WM_MOTION_Enable                       0x08019c40   Section        0  wm_motion.o(i.WM_MOTION_Enable)
    i.WM_MOTION_SetMotion                    0x08019c4c   Section        0  wm_motion.o(i.WM_MOTION_SetMotion)
    i.WM_MOTION_SetMoveable                  0x08019c8c   Section        0  wm_motion.o(i.WM_MOTION_SetMoveable)
    i.WM_MOTION_SetMovement                  0x08019cba   Section        0  wm_motion.o(i.WM_MOTION_SetMovement)
    i.WM_MakeModal                           0x08019cf0   Section        0  wm_makemodal.o(i.WM_MakeModal)
    i.WM_MoveTo                              0x08019d4c   Section        0  wm_move.o(i.WM_MoveTo)
    i.WM_MoveWindow                          0x08019d50   Section        0  wm_move.o(i.WM_MoveWindow)
    i.WM_NotifyParent                        0x08019d54   Section        0  wm_notifyparent.o(i.WM_NotifyParent)
    i.WM_OnKey                               0x08019d64   Section        0  wm_onkey.o(i.WM_OnKey)
    i.WM_PID__SetPrevState                   0x08019d9c   Section        0  wm_pid__getprevstate.o(i.WM_PID__SetPrevState)
    i.WM_ReleaseCapture                      0x08019db4   Section        0  wm_setcapture.o(i.WM_ReleaseCapture)
    i.WM_ResizeWindow                        0x08019db8   Section        0  wm_resizewindow.o(i.WM_ResizeWindow)
    i.WM_RestartTimer                        0x08019ea4   Section        0  wm_timer.o(i.WM_RestartTimer)
    i.WM_Screen2hWin                         0x08019ecc   Section        0  wm_screen2win.o(i.WM_Screen2hWin)
    i.WM_SelectWindow                        0x08019ed8   Section        0  wm.o(i.WM_SelectWindow)
    i.WM_SendMessage                         0x08019f14   Section        0  wm.o(i.WM_SendMessage)
    i.WM_SendMessageNoPara                   0x08019f1e   Section        0  wm_sendmessagenopara.o(i.WM_SendMessageNoPara)
    i.WM_SendToParent                        0x08019f22   Section        0  wm_sendtoparent.o(i.WM_SendToParent)
    i.WM_SetCallback                         0x08019f40   Section        0  wm_setcallback.o(i.WM_SetCallback)
    i.WM_SetCapture                          0x08019f68   Section        0  wm_setcapture.o(i.WM_SetCapture)
    i.WM_SetCaptureMove                      0x08019f9c   Section        0  wm_setcapturemove.o(i.WM_SetCaptureMove)
    i.WM_SetCreateFlags                      0x0801a044   Section        0  wm_setcreateflags.o(i.WM_SetCreateFlags)
    i.WM_SetDefault                          0x0801a054   Section        0  wm.o(i.WM_SetDefault)
    i.WM_SetFocus                            0x0801a068   Section        0  wm_setfocus.o(i.WM_SetFocus)
    i.WM_SetFocusOnNextChild                 0x0801a104   Section        0  wm_setfocusonnextchild.o(i.WM_SetFocusOnNextChild)
    i.WM_SetFocusOnPrevChild                 0x0801a114   Section        0  wm_setfocusonprevchild.o(i.WM_SetFocusOnPrevChild)
    i.WM_SetHasTrans                         0x0801a154   Section        0  wm_settrans.o(i.WM_SetHasTrans)
    i.WM_SetScrollState                      0x0801a194   Section        0  wm_setscrollstate.o(i.WM_SetScrollState)
    i.WM_SetScrollValue                      0x0801a1ac   Section        0  wm_checkscrollpos.o(i.WM_SetScrollValue)
    i.WM_SetScrollbarH                       0x0801a1be   Section        0  wm_setscrollbar.o(i.WM_SetScrollbarH)
    i.WM_SetScrollbarV                       0x0801a1c2   Section        0  wm_setscrollbar.o(i.WM_SetScrollbarV)
    i.WM_SetSize                             0x0801a1c6   Section        0  wm_setsize.o(i.WM_SetSize)
    i.WM_SetUserClipRect                     0x0801a204   Section        0  wm_setusercliprect.o(i.WM_SetUserClipRect)
    i.WM_SetUserData                         0x0801a21c   Section        0  wm_userdata.o(i.WM_SetUserData)
    i.WM_SetWindowPos                        0x0801a222   Section        0  wm_setwindowpos.o(i.WM_SetWindowPos)
    i.WM_ShowWindow                          0x0801a240   Section        0  wm_show.o(i.WM_ShowWindow)
    i.WM_ValidateWindow                      0x0801a268   Section        0  wm_validatewindow.o(i.WM_ValidateWindow)
    i.WM__ActivateClipRect                   0x0801a294   Section        0  wm.o(i.WM__ActivateClipRect)
    i.WM__AddCriticalHandle                  0x0801a2dc   Section        0  wm_criticalhandle.o(i.WM__AddCriticalHandle)
    i.WM__Client2Screen                      0x0801a2ec   Section        0  wm.o(i.WM__Client2Screen)
    i.WM__ClipAtParentBorders                0x0801a2fc   Section        0  wm.o(i.WM__ClipAtParentBorders)
    i.WM__DeleteAssocTimer                   0x0801a34a   Section        0  wm_timer.o(i.WM__DeleteAssocTimer)
    i.WM__DeleteSecure                       0x0801a394   Section        0  wm.o(i.WM__DeleteSecure)
    i.WM__DetachWindow                       0x0801a3b0   Section        0  wm.o(i.WM__DetachWindow)
    i.WM__ForEachDesc                        0x0801a3d8   Section        0  wm__foreachdesc.o(i.WM__ForEachDesc)
    i.WM__GetClientRectEx                    0x0801a404   Section        0  wm_getclientrect.o(i.WM__GetClientRectEx)
    i.WM__GetClientRectWin                   0x0801a424   Section        0  wm.o(i.WM__GetClientRectWin)
    i.WM__GetFirstSibling                    0x0801a43c   Section        0  wm__getfirstsibling.o(i.WM__GetFirstSibling)
    i.WM__GetFocussedChild                   0x0801a450   Section        0  wm__getfocussedchild.o(i.WM__GetFocussedChild)
    i.WM__GetLastSibling                     0x0801a478   Section        0  wm__getlastsibling.o(i.WM__GetLastSibling)
    i.WM__GetNextIVR                         0x0801a490   Section        0  wm.o(i.WM__GetNextIVR)
    i.WM__GetOrgX_AA                         0x0801a4d0   Section        0  wm__getorg_aa.o(i.WM__GetOrgX_AA)
    i.WM__GetOrgY_AA                         0x0801a4ec   Section        0  wm__getorg_aa.o(i.WM__GetOrgY_AA)
    i.WM__GetPrevSibling                     0x0801a508   Section        0  wm__getprevsibling.o(i.WM__GetPrevSibling)
    i.WM__GetTopLevelLayer                   0x0801a52c   Section        0  wm.o(i.WM__GetTopLevelLayer)
    i.WM__GetUserDataEx                      0x0801a544   Section        0  wm_userdata.o(i.WM__GetUserDataEx)
    i.WM__GetWindowSizeX                     0x0801a576   Section        0  wm_getwindowsize.o(i.WM__GetWindowSizeX)
    i.WM__GetWindowSizeY                     0x0801a584   Section        0  wm_getwindowsize.o(i.WM__GetWindowSizeY)
    i.WM__InitIVRSearch                      0x0801a594   Section        0  wm.o(i.WM__InitIVRSearch)
    i.WM__InsertWindowIntoList               0x0801a684   Section        0  wm.o(i.WM__InsertWindowIntoList)
    i.WM__Invalidate1Abs                     0x0801a728   Section        0  wm.o(i.WM__Invalidate1Abs)
    i.WM__InvalidateDrawAndDescs             0x0801a730   Section        0  wm.o(i.WM__InvalidateDrawAndDescs)
    i.WM__InvalidateParent                   0x0801a784   Section        0  wm.o(i.WM__InvalidateParent)
    i.WM__InvalidateRect                     0x0801a7ae   Section        0  wm.o(i.WM__InvalidateRect)
    i.WM__InvalidateRectEx                   0x0801a824   Section        0  wm.o(i.WM__InvalidateRectEx)
    i.WM__IsAncestor                         0x0801a82c   Section        0  wm__isancestor.o(i.WM__IsAncestor)
    i.WM__IsAncestorOrSelf                   0x0801a84e   Section        0  wm__isancestor.o(i.WM__IsAncestorOrSelf)
    i.WM__IsChild                            0x0801a85a   Section        0  wm__ischild.o(i.WM__IsChild)
    i.WM__IsEnabled                          0x0801a87c   Section        0  wm__isenabled.o(i.WM__IsEnabled)
    i.WM__IsInModalArea                      0x0801a894   Section        0  wm_touch.o(i.WM__IsInModalArea)
    i.WM__IsInWindow                         0x0801a8fc   Section        0  wm_screen2win.o(i.WM__IsInWindow)
    i.WM__IsWindow                           0x0801a92c   Section        0  wm.o(i.WM__IsWindow)
    i.WM__MoveTo                             0x0801a950   Section        0  wm_move.o(i.WM__MoveTo)
    i.WM__MoveWindow                         0x0801a97e   Section        0  wm_move.o(i.WM__MoveWindow)
    i.WM__Paint                              0x0801aa18   Section        0  wm.o(i.WM__Paint)
    i.WM__Paint1                             0x0801aab8   Section        0  wm.o(i.WM__Paint1)
    i.WM__PaintWinAndOverlays                0x0801ab44   Section        0  wm.o(i.WM__PaintWinAndOverlays)
    WM__PaintWinAndOverlays                  0x0801ab45   Thumb Code   116  wm.o(i.WM__PaintWinAndOverlays)
    i.WM__RectIsNZ                           0x0801abbc   Section        0  wm.o(i.WM__RectIsNZ)
    i.WM__ReleaseCapture                     0x0801abdc   Section        0  wm_setcapture.o(i.WM__ReleaseCapture)
    WM__ReleaseCapture                       0x0801abdd   Thumb Code    36  wm_setcapture.o(i.WM__ReleaseCapture)
    i.WM__RemoveCriticalHandle               0x0801ac08   Section        0  wm_criticalhandle.o(i.WM__RemoveCriticalHandle)
    i.WM__RemoveFromLinList                  0x0801ac34   Section        0  wm.o(i.WM__RemoveFromLinList)
    i.WM__RemoveWindowFromList               0x0801ac64   Section        0  wm.o(i.WM__RemoveWindowFromList)
    i.WM__Screen2Client                      0x0801aca4   Section        0  wm__screen2client.o(i.WM__Screen2Client)
    i.WM__SelectTopLevelLayer                0x0801acb8   Section        0  wm.o(i.WM__SelectTopLevelLayer)
    i.WM__SendMessage                        0x0801accc   Section        0  wm__sendmessage.o(i.WM__SendMessage)
    i.WM__SendMessageIfEnabled               0x0801ad08   Section        0  wm__sendmessageifenabled.o(i.WM__SendMessageIfEnabled)
    i.WM__SendMessageNoPara                  0x0801ad24   Section        0  wm__sendmessagenopara.o(i.WM__SendMessageNoPara)
    i.WM__SendMsgNoData                      0x0801ad4a   Section        0  wm.o(i.WM__SendMsgNoData)
    i.WM__SendPIDMessage                     0x0801ad58   Section        0  wm_touch.o(i.WM__SendPIDMessage)
    i.WM__SendTouchMessage                   0x0801ad96   Section        0  wm_touch.o(i.WM__SendTouchMessage)
    i.WM__SetMotionCallback                  0x0801adcc   Section        0  wm_touch.o(i.WM__SetMotionCallback)
    i.WM__SetScrollbarH                      0x0801add8   Section        0  wm_setscrollbar.o(i.WM__SetScrollbarH)
    i.WM__SetScrollbarV                      0x0801ade0   Section        0  wm_setscrollbar.o(i.WM__SetScrollbarV)
    i.WM__SetUserDataEx                      0x0801ade8   Section        0  wm_userdata.o(i.WM__SetUserDataEx)
    i.WM__UpdateChildPositions               0x0801ae1a   Section        0  wm__updatechildpositions.o(i.WM__UpdateChildPositions)
    i._Add                                   0x0801aef8   Section        0  gui_fillpolygon.o(i._Add)
    _Add                                     0x0801aef9   Thumb Code    46  gui_fillpolygon.o(i._Add)
    i._AddFreeMemory                         0x0801af30   Section        0  gui_alloc.o(i._AddFreeMemory)
    _AddFreeMemory                           0x0801af31   Thumb Code   116  gui_alloc.o(i._AddFreeMemory)
    i._AddKey                                0x0801afa8   Section        0  listview.o(i._AddKey)
    _AddKey                                  0x0801afa9   Thumb Code   242  listview.o(i._AddKey)
    i._AimDestination                        0x0801b09a   Section        0  wm_motion.o(i._AimDestination)
    _AimDestination                          0x0801b09b   Thumb Code    64  wm_motion.o(i._AimDestination)
    i._AimDestinationXY                      0x0801b0dc   Section        0  wm_motion.o(i._AimDestinationXY)
    _AimDestinationXY                        0x0801b0dd   Thumb Code   112  wm_motion.o(i._AimDestinationXY)
    i._Alloc                                 0x0801b150   Section        0  gui_alloc.o(i._Alloc)
    _Alloc                                   0x0801b151   Thumb Code   182  gui_alloc.o(i._Alloc)
    i._BringToTop                            0x0801b20c   Section        0  wm_bringtotop.o(i._BringToTop)
    _BringToTop                              0x0801b20d   Thumb Code   106  wm_bringtotop.o(i._BringToTop)
    i._CalcClipRectHL                        0x0801b27c   Section        0  guiaa_lib.o(i._CalcClipRectHL)
    _CalcClipRectHL                          0x0801b27d   Thumb Code    48  guiaa_lib.o(i._CalcClipRectHL)
    i._CalcDrawInfo                          0x0801b2b4   Section        0  treeview.o(i._CalcDrawInfo)
    _CalcDrawInfo                            0x0801b2b5   Thumb Code   944  treeview.o(i._CalcDrawInfo)
    i._CalcNumBytes                          0x0801b664   Section        0  wm_userdata.o(i._CalcNumBytes)
    _CalcNumBytes                            0x0801b665   Thumb Code    22  wm_userdata.o(i._CalcNumBytes)
    i._CalcParams                            0x0801b67a   Section        0  treeview.o(i._CalcParams)
    _CalcParams                              0x0801b67b   Thumb Code   206  treeview.o(i._CalcParams)
    i._CalcPolyRect                          0x0801b748   Section        0  guidev_measure.o(i._CalcPolyRect)
    _CalcPolyRect                            0x0801b749   Thumb Code    72  guidev_measure.o(i._CalcPolyRect)
    i._CalcPositions                         0x0801b790   Section        0  scrollbar_skin.o(i._CalcPositions)
    _CalcPositions                           0x0801b791   Thumb Code   334  scrollbar_skin.o(i._CalcPositions)
    i._CalcPositions                         0x0801b8e4   Section        0  scrollbar_skinclassic.o(i._CalcPositions)
    _CalcPositions                           0x0801b8e5   Thumb Code   310  scrollbar_skinclassic.o(i._CalcPositions)
    i._CalcSizeOfChar                        0x0801ba20   Section        0  gui_uc_encodenone.o(i._CalcSizeOfChar)
    _CalcSizeOfChar                          0x0801ba21   Thumb Code     4  gui_uc_encodenone.o(i._CalcSizeOfChar)
    i._CallOwnerDraw                         0x0801ba24   Section        0  treeview.o(i._CallOwnerDraw)
    _CallOwnerDraw                           0x0801ba25   Thumb Code    28  treeview.o(i._CallOwnerDraw)
    i._CleanLine                             0x0801ba40   Section        0  guiaa_lib.o(i._CleanLine)
    _CleanLine                               0x0801ba41   Thumb Code    32  guiaa_lib.o(i._CleanLine)
    i._ClearTextBackground                   0x0801ba68   Section        0  gui_encext.o(i._ClearTextBackground)
    _ClearTextBackground                     0x0801ba69   Thumb Code   106  gui_encext.o(i._ClearTextBackground)
    i._ClipRectEx                            0x0801badc   Section        0  gui_sprite.o(i._ClipRectEx)
    _ClipRectEx                              0x0801badd   Thumb Code    20  gui_sprite.o(i._ClipRectEx)
    i._CollapseItem                          0x0801baf0   Section        0  treeview.o(i._CollapseItem)
    _CollapseItem                            0x0801baf1   Thumb Code    58  treeview.o(i._CollapseItem)
    i._Color2Index                           0x0801bb2c   Section        0  gui_enablealpha.o(i._Color2Index)
    _Color2Index                             0x0801bb2d   Thumb Code    12  gui_enablealpha.o(i._Color2Index)
    i._Color2Index                           0x0801bb3c   Section        0  gui_setalpha.o(i._Color2Index)
    _Color2Index                             0x0801bb3d   Thumb Code    20  gui_setalpha.o(i._Color2Index)
    i._Color2IndexBulk                       0x0801bb58   Section        0  gui_enablealpha.o(i._Color2IndexBulk)
    _Color2IndexBulk                         0x0801bb59   Thumb Code   114  gui_enablealpha.o(i._Color2IndexBulk)
    i._Color2IndexBulk                       0x0801bbd0   Section        0  gui_setalpha.o(i._Color2IndexBulk)
    _Color2IndexBulk                         0x0801bbd1   Thumb Code   154  gui_setalpha.o(i._Color2IndexBulk)
    i._Color2IndexBulk                       0x0801bc74   Section        0  guicc_8888.o(i._Color2IndexBulk)
    _Color2IndexBulk                         0x0801bc75   Thumb Code    14  guicc_8888.o(i._Color2IndexBulk)
    i._Color2IndexBulk                       0x0801bc84   Section        0  guicc_m565.o(i._Color2IndexBulk)
    _Color2IndexBulk                         0x0801bc85   Thumb Code    62  guicc_m565.o(i._Color2IndexBulk)
    i._Color2Index_0                         0x0801bcd0   Section        0  guicc_0.o(i._Color2Index_0)
    _Color2Index_0                           0x0801bcd1   Thumb Code    84  guicc_0.o(i._Color2Index_0)
    i._Color2Index_8888                      0x0801bd24   Section        0  guicc_8888.o(i._Color2Index_8888)
    _Color2Index_8888                        0x0801bd25   Thumb Code     2  guicc_8888.o(i._Color2Index_8888)
    i._Color2Index_M565                      0x0801bd28   Section        0  guicc_m565.o(i._Color2Index_M565)
    _Color2Index_M565                        0x0801bd29   Thumb Code    34  guicc_m565.o(i._Color2Index_M565)
    i._ColumnScroll                          0x0801bd54   Section        0  listview.o(i._ColumnScroll)
    _ColumnScroll                            0x0801bd55   Thumb Code   338  listview.o(i._ColumnScroll)
    i._Compare                               0x0801bea6   Section        0  listview_setsort.o(i._Compare)
    _Compare                                 0x0801bea7   Thumb Code   154  listview_setsort.o(i._Compare)
    i._ConnectLines                          0x0801bf40   Section        0  treeview.o(i._ConnectLines)
    _ConnectLines                            0x0801bf41   Thumb Code   104  treeview.o(i._ConnectLines)
    i._Convert16                             0x0801bfa8   Section        0  guidev_writetoactiveopaque.o(i._Convert16)
    _Convert16                               0x0801bfa9   Thumb Code    62  guidev_writetoactiveopaque.o(i._Convert16)
    i._Convert8                              0x0801bfe6   Section        0  guidev_writetoactiveopaque.o(i._Convert8)
    _Convert8                                0x0801bfe7   Thumb Code    62  guidev_writetoactiveopaque.o(i._Convert8)
    i._CopyItemInfo2Rect                     0x0801c024   Section        0  slider_skin.o(i._CopyItemInfo2Rect)
    _CopyItemInfo2Rect                       0x0801c025   Thumb Code    18  slider_skin.o(i._CopyItemInfo2Rect)
    i._Create                                0x0801c036   Section        0  button_skin.o(i._Create)
    _Create                                  0x0801c037   Thumb Code    48  button_skin.o(i._Create)
    i._Create                                0x0801c066   Section        0  framewin_skin.o(i._Create)
    _Create                                  0x0801c067   Thumb Code    38  framewin_skin.o(i._Create)
    i._Create                                0x0801c08c   Section        0  header_skin.o(i._Create)
    _Create                                  0x0801c08d   Thumb Code    38  header_skin.o(i._Create)
    i._Create                                0x0801c0b2   Section        0  progbar_skin.o(i._Create)
    _Create                                  0x0801c0b3   Thumb Code    38  progbar_skin.o(i._Create)
    i._Create                                0x0801c0d8   Section        0  scrollbar_skin.o(i._Create)
    _Create                                  0x0801c0d9   Thumb Code    52  scrollbar_skin.o(i._Create)
    i._Create                                0x0801c110   Section        0  slider_skin.o(i._Create)
    _Create                                  0x0801c111   Thumb Code    36  slider_skin.o(i._Create)
    i._Create                                0x0801c134   Section        0  button_skinclassic.o(i._Create)
    _Create                                  0x0801c135   Thumb Code     2  button_skinclassic.o(i._Create)
    i._Create                                0x0801c138   Section        0  framewin_skinclassic.o(i._Create)
    _Create                                  0x0801c139   Thumb Code     6  framewin_skinclassic.o(i._Create)
    i._Create                                0x0801c144   Section        0  progbar_skinclassic.o(i._Create)
    _Create                                  0x0801c145   Thumb Code     2  progbar_skinclassic.o(i._Create)
    i._Create                                0x0801c146   Section        0  slider_skinclassic.o(i._Create)
    _Create                                  0x0801c147   Thumb Code     2  slider_skinclassic.o(i._Create)
    i._Create                                0x0801c148   Section        0  header_skinclassic.o(i._Create)
    _Create                                  0x0801c149   Thumb Code     2  header_skinclassic.o(i._Create)
    i._Create                                0x0801c14c   Section        0  scrollbar_skinclassic.o(i._Create)
    _Create                                  0x0801c14d   Thumb Code    20  scrollbar_skinclassic.o(i._Create)
    i._CreateBuffer                          0x0801c164   Section        0  gui_sprite.o(i._CreateBuffer)
    _CreateBuffer                            0x0801c165   Thumb Code   154  gui_sprite.o(i._CreateBuffer)
    i._CreateSortObject                      0x0801c200   Section        0  listview_setsort.o(i._CreateSortObject)
    _CreateSortObject                        0x0801c201   Thumb Code    84  listview_setsort.o(i._CreateSortObject)
    i._CreateStaticDevice                    0x0801c25c   Section        0  guidev_staticdevices.o(i._CreateStaticDevice)
    _CreateStaticDevice                      0x0801c25d   Thumb Code   306  guidev_staticdevices.o(i._CreateStaticDevice)
    i._CreatehCrit                           0x0801c3a4   Section        0  wm_motion.o(i._CreatehCrit)
    _CreatehCrit                             0x0801c3a5   Thumb Code    32  wm_motion.o(i._CreatehCrit)
    i._DecPointer                            0x0801c3c4   Section        0  gui_pid.o(i._DecPointer)
    _DecPointer                              0x0801c3c5   Thumb Code    16  gui_pid.o(i._DecPointer)
    i._DeleteAllChildren                     0x0801c3d8   Section        0  wm.o(i._DeleteAllChildren)
    _DeleteAllChildren                       0x0801c3d9   Thumb Code    18  wm.o(i._DeleteAllChildren)
    i._DeleteTimer                           0x0801c3ea   Section        0  scrollbar.o(i._DeleteTimer)
    _DeleteTimer                             0x0801c3eb   Thumb Code    30  scrollbar.o(i._DeleteTimer)
    i._DesktopHandle2Index                   0x0801c408   Section        0  wm.o(i._DesktopHandle2Index)
    _DesktopHandle2Index                     0x0801c409   Thumb Code    28  wm.o(i._DesktopHandle2Index)
    i._DispFloatFix                          0x0801c428   Section        0  gui_valf.o(i._DispFloatFix)
    _DispFloatFix                            0x0801c429   Thumb Code    60  gui_valf.o(i._DispFloatFix)
    i._DispFloatMin                          0x0801c468   Section        0  gui_valf.o(i._DispFloatMin)
    _DispFloatMin                            0x0801c469   Thumb Code   280  gui_valf.o(i._DispFloatMin)
    i._DispLine                              0x0801c588   Section        0  gui_charline.o(i._DispLine)
    _DispLine                                0x0801c589   Thumb Code   104  gui_charline.o(i._DispLine)
    i._DoClipping                            0x0801c5fc   Section        0  gui_drawbitmap_8888.o(i._DoClipping)
    _DoClipping                              0x0801c5fd   Thumb Code   172  gui_drawbitmap_8888.o(i._DoClipping)
    i._DoColorConversion                     0x0801c6ac   Section        0  gui_sprite.o(i._DoColorConversion)
    _DoColorConversion                       0x0801c6ad   Thumb Code   126  gui_sprite.o(i._DoColorConversion)
    i._DoFinalMoveXY                         0x0801c730   Section        0  wm_motion.o(i._DoFinalMoveXY)
    _DoFinalMoveXY                           0x0801c731   Thumb Code    62  wm_motion.o(i._DoFinalMoveXY)
    i._Draw                                  0x0801c770   Section        0  lcd_rlealpha.o(i._Draw)
    _Draw                                    0x0801c771   Thumb Code   120  lcd_rlealpha.o(i._Draw)
    i._DrawArrow                             0x0801c7ec   Section        0  header_skinflex.o(i._DrawArrow)
    _DrawArrow                               0x0801c7ed   Thumb Code    88  header_skinflex.o(i._DrawArrow)
    i._DrawBackground                        0x0801c848   Section        0  header_skinflex.o(i._DrawBackground)
    _DrawBackground                          0x0801c849   Thumb Code   124  header_skinflex.o(i._DrawBackground)
    i._DrawBackground                        0x0801c8c8   Section        0  progbar_skinflex.o(i._DrawBackground)
    _DrawBackground                          0x0801c8c9   Thumb Code   254  progbar_skinflex.o(i._DrawBackground)
    i._DrawBackgroundH                       0x0801c9cc   Section        0  scrollbar_skinflex.o(i._DrawBackgroundH)
    _DrawBackgroundH                         0x0801c9cd   Thumb Code    92  scrollbar_skinflex.o(i._DrawBackgroundH)
    i._DrawBackgroundV                       0x0801ca28   Section        0  scrollbar_skinflex.o(i._DrawBackgroundV)
    _DrawBackgroundV                         0x0801ca29   Thumb Code    92  scrollbar_skinflex.o(i._DrawBackgroundV)
    i._DrawBitLine16BPP                      0x0801ca84   Section        0  gui_setalpha.o(i._DrawBitLine16BPP)
    _DrawBitLine16BPP                        0x0801ca85   Thumb Code   102  gui_setalpha.o(i._DrawBitLine16BPP)
    i._DrawBitLine1BPP                       0x0801caf0   Section        0  gui_setalpha.o(i._DrawBitLine1BPP)
    _DrawBitLine1BPP                         0x0801caf1   Thumb Code   368  gui_setalpha.o(i._DrawBitLine1BPP)
    i._DrawBitLine1BPP                       0x0801cc68   Section        0  guidev_16.o(i._DrawBitLine1BPP)
    _DrawBitLine1BPP                         0x0801cc69   Thumb Code   320  guidev_16.o(i._DrawBitLine1BPP)
    i._DrawBitLine1BPP                       0x0801cdb0   Section        0  guidev_32.o(i._DrawBitLine1BPP)
    _DrawBitLine1BPP                         0x0801cdb1   Thumb Code   276  guidev_32.o(i._DrawBitLine1BPP)
    i._DrawBitLine2BPP                       0x0801cecc   Section        0  gui_setalpha.o(i._DrawBitLine2BPP)
    _DrawBitLine2BPP                         0x0801cecd   Thumb Code   270  gui_setalpha.o(i._DrawBitLine2BPP)
    i._DrawBitLine2BPP                       0x0801cfe0   Section        0  guidev_16.o(i._DrawBitLine2BPP)
    _DrawBitLine2BPP                         0x0801cfe1   Thumb Code   220  guidev_16.o(i._DrawBitLine2BPP)
    i._DrawBitLine2BPP                       0x0801d0c0   Section        0  guidev_32.o(i._DrawBitLine2BPP)
    _DrawBitLine2BPP                         0x0801d0c1   Thumb Code   218  guidev_32.o(i._DrawBitLine2BPP)
    i._DrawBitLine32BPP                      0x0801d1a0   Section        0  gui_setalpha.o(i._DrawBitLine32BPP)
    _DrawBitLine32BPP                        0x0801d1a1   Thumb Code   100  gui_setalpha.o(i._DrawBitLine32BPP)
    i._DrawBitLine32BPP_DDB                  0x0801d208   Section        0  guidev_32.o(i._DrawBitLine32BPP_DDB)
    _DrawBitLine32BPP_DDB                    0x0801d209   Thumb Code   148  guidev_32.o(i._DrawBitLine32BPP_DDB)
    i._DrawBitLine4BPP                       0x0801d29c   Section        0  gui_setalpha.o(i._DrawBitLine4BPP)
    _DrawBitLine4BPP                         0x0801d29d   Thumb Code   270  gui_setalpha.o(i._DrawBitLine4BPP)
    i._DrawBitLine4BPP                       0x0801d3b0   Section        0  guidev_16.o(i._DrawBitLine4BPP)
    _DrawBitLine4BPP                         0x0801d3b1   Thumb Code   346  guidev_16.o(i._DrawBitLine4BPP)
    i._DrawBitLine4BPP                       0x0801d510   Section        0  guidev_32.o(i._DrawBitLine4BPP)
    _DrawBitLine4BPP                         0x0801d511   Thumb Code   340  guidev_32.o(i._DrawBitLine4BPP)
    i._DrawBitLine8BPP                       0x0801d668   Section        0  gui_setalpha.o(i._DrawBitLine8BPP)
    _DrawBitLine8BPP                         0x0801d669   Thumb Code   150  gui_setalpha.o(i._DrawBitLine8BPP)
    i._DrawBitmap                            0x0801d704   Section        0  gui_drawbitmap_8888.o(i._DrawBitmap)
    _DrawBitmap                              0x0801d705   Thumb Code   658  gui_drawbitmap_8888.o(i._DrawBitmap)
    i._DrawBitmap                            0x0801d9a0   Section        0  gui_enablealpha.o(i._DrawBitmap)
    _DrawBitmap                              0x0801d9a1   Thumb Code   242  gui_enablealpha.o(i._DrawBitmap)
    i._DrawBitmap                            0x0801da9c   Section        0  gui_setalpha.o(i._DrawBitmap)
    _DrawBitmap                              0x0801da9d   Thumb Code   202  gui_setalpha.o(i._DrawBitmap)
    i._DrawBitmap                            0x0801db68   Section        0  gui_sprite.o(i._DrawBitmap)
    _DrawBitmap                              0x0801db69   Thumb Code   612  gui_sprite.o(i._DrawBitmap)
    i._DrawBitmap                            0x0801ddd0   Section        0  lcd_rle4.o(i._DrawBitmap)
    _DrawBitmap                              0x0801ddd1   Thumb Code   508  lcd_rle4.o(i._DrawBitmap)
    i._DrawBitmap                            0x0801dfd4   Section        0  lcd_rle8.o(i._DrawBitmap)
    _DrawBitmap                              0x0801dfd5   Thumb Code   532  lcd_rle8.o(i._DrawBitmap)
    i._DrawBitmap                            0x0801e1f4   Section        0  guidev_16.o(i._DrawBitmap)
    _DrawBitmap                              0x0801e1f5   Thumb Code   714  guidev_16.o(i._DrawBitmap)
    i._DrawBitmap                            0x0801e4cc   Section        0  guidev_32.o(i._DrawBitmap)
    _DrawBitmap                              0x0801e4cd   Thumb Code   666  guidev_32.o(i._DrawBitmap)
    i._DrawBitmap                            0x0801e770   Section        0  header_skinflex.o(i._DrawBitmap)
    _DrawBitmap                              0x0801e771   Thumb Code   156  header_skinflex.o(i._DrawBitmap)
    i._DrawBitmap                            0x0801e80c   Section        0  guidev_measure.o(i._DrawBitmap)
    _DrawBitmap                              0x0801e80d   Thumb Code    24  guidev_measure.o(i._DrawBitmap)
    i._DrawBitmapHW                          0x0801e824   Section        0  gui_drawbitmap_8888.o(i._DrawBitmapHW)
    _DrawBitmapHW                            0x0801e825   Thumb Code   142  gui_drawbitmap_8888.o(i._DrawBitmapHW)
    i._DrawBitmapHW_8888                     0x0801e8bc   Section        0  gui_drawbitmap_8888.o(i._DrawBitmapHW_8888)
    _DrawBitmapHW_8888                       0x0801e8bd   Thumb Code    12  gui_drawbitmap_8888.o(i._DrawBitmapHW_8888)
    i._DrawBitmapLine                        0x0801e8c8   Section        0  gui_setalpha.o(i._DrawBitmapLine)
    _DrawBitmapLine                          0x0801e8c9   Thumb Code    76  gui_setalpha.o(i._DrawBitmapLine)
    i._DrawBitmap_8888                       0x0801e91c   Section        0  gui_drawbitmap_8888.o(i._DrawBitmap_8888)
    _DrawBitmap_8888                         0x0801e91d   Thumb Code    24  gui_drawbitmap_8888.o(i._DrawBitmap_8888)
    i._DrawBitmap_RLE4                       0x0801e938   Section        0  lcd_rle4.o(i._DrawBitmap_RLE4)
    _DrawBitmap_RLE4                         0x0801e939   Thumb Code    28  lcd_rle4.o(i._DrawBitmap_RLE4)
    i._DrawBitmap_RLE8                       0x0801e95c   Section        0  lcd_rle8.o(i._DrawBitmap_RLE8)
    _DrawBitmap_RLE8                         0x0801e95d   Thumb Code    38  lcd_rle8.o(i._DrawBitmap_RLE8)
    i._DrawBitmap_RLEAlpha                   0x0801e990   Section        0  lcd_rlealpha.o(i._DrawBitmap_RLEAlpha)
    _DrawBitmap_RLEAlpha                     0x0801e991   Thumb Code   406  lcd_rlealpha.o(i._DrawBitmap_RLEAlpha)
    i._DrawBorder                            0x0801eb3c   Section        0  graph.o(i._DrawBorder)
    _DrawBorder                              0x0801eb3d   Thumb Code   326  graph.o(i._DrawBorder)
    i._DrawCharAA2_NoTrans                   0x0801ec84   Section        0  guiaa_char2.o(i._DrawCharAA2_NoTrans)
    _DrawCharAA2_NoTrans                     0x0801ec85   Thumb Code   148  guiaa_char2.o(i._DrawCharAA2_NoTrans)
    i._DrawCharAA2_Trans                     0x0801ed28   Section        0  guiaa_char2.o(i._DrawCharAA2_Trans)
    _DrawCharAA2_Trans                       0x0801ed29   Thumb Code   190  guiaa_char2.o(i._DrawCharAA2_Trans)
    i._DrawCharAA4_NoTrans                   0x0801edec   Section        0  guiaa_char4.o(i._DrawCharAA4_NoTrans)
    _DrawCharAA4_NoTrans                     0x0801eded   Thumb Code   142  guiaa_char4.o(i._DrawCharAA4_NoTrans)
    i._DrawCharAA4_Trans                     0x0801ee8c   Section        0  guiaa_char4.o(i._DrawCharAA4_Trans)
    _DrawCharAA4_Trans                       0x0801ee8d   Thumb Code   106  guiaa_char4.o(i._DrawCharAA4_Trans)
    i._DrawClip                              0x0801eef8   Section        0  lcd_rlealpha.o(i._DrawClip)
    _DrawClip                                0x0801eef9   Thumb Code   120  lcd_rlealpha.o(i._DrawClip)
    i._DrawColumnScaled                      0x0801ef74   Section        0  guidev_perspective.o(i._DrawColumnScaled)
    _DrawColumnScaled                        0x0801ef75   Thumb Code   224  guidev_perspective.o(i._DrawColumnScaled)
    i._DrawDown                              0x0801f058   Section        0  widget_effect_simple.o(i._DrawDown)
    _DrawDown                                0x0801f059   Thumb Code    16  widget_effect_simple.o(i._DrawDown)
    i._DrawDown                              0x0801f068   Section        0  widget_effect_3d.o(i._DrawDown)
    _DrawDown                                0x0801f069   Thumb Code    16  widget_effect_3d.o(i._DrawDown)
    i._DrawDown                              0x0801f078   Section        0  widget_effect_none.o(i._DrawDown)
    _DrawDown                                0x0801f079   Thumb Code     2  widget_effect_none.o(i._DrawDown)
    i._DrawDownRect                          0x0801f07c   Section        0  widget_effect_simple.o(i._DrawDownRect)
    _DrawDownRect                            0x0801f07d   Thumb Code    50  widget_effect_simple.o(i._DrawDownRect)
    i._DrawDownRect                          0x0801f0b4   Section        0  widget_effect_3d.o(i._DrawDownRect)
    _DrawDownRect                            0x0801f0b5   Thumb Code   144  widget_effect_3d.o(i._DrawDownRect)
    i._DrawDownRect                          0x0801f148   Section        0  widget_effect_none.o(i._DrawDownRect)
    _DrawDownRect                            0x0801f149   Thumb Code     2  widget_effect_none.o(i._DrawDownRect)
    i._DrawFlat                              0x0801f14a   Section        0  widget_effect_none.o(i._DrawFlat)
    _DrawFlat                                0x0801f14b   Thumb Code     2  widget_effect_none.o(i._DrawFlat)
    i._DrawFrame                             0x0801f14c   Section        0  scrollbar_skinflex.o(i._DrawFrame)
    _DrawFrame                               0x0801f14d   Thumb Code   244  scrollbar_skinflex.o(i._DrawFrame)
    i._DrawGradient                          0x0801f240   Section        0  gui_drawgradient.o(i._DrawGradient)
    _DrawGradient                            0x0801f241   Thumb Code   382  gui_drawgradient.o(i._DrawGradient)
    i._DrawGraph                             0x0801f3c0   Section        0  gui_drawgraphex.o(i._DrawGraph)
    _DrawGraph                               0x0801f3c1   Thumb Code   494  gui_drawgraphex.o(i._DrawGraph)
    i._DrawGraspH                            0x0801f5b4   Section        0  scrollbar_skinflex.o(i._DrawGraspH)
    _DrawGraspH                              0x0801f5b5   Thumb Code    92  scrollbar_skinflex.o(i._DrawGraspH)
    i._DrawGraspV                            0x0801f610   Section        0  scrollbar_skinflex.o(i._DrawGraspV)
    _DrawGraspV                              0x0801f611   Thumb Code    92  scrollbar_skinflex.o(i._DrawGraspV)
    i._DrawGrid                              0x0801f66c   Section        0  graph.o(i._DrawGrid)
